{
  "contractName": "HeyStake",
  "abi": [
    {
      "anonymous": false,
      "inputs": [
        {
          "indexed": true,
          "internalType": "address",
          "name": "owner",
          "type": "address"
        },
        {
          "indexed": true,
          "internalType": "address",
          "name": "spender",
          "type": "address"
        },
        {
          "indexed": false,
          "internalType": "uint256",
          "name": "value",
          "type": "uint256"
        }
      ],
      "name": "Approval",
      "type": "event"
    },
    {
      "anonymous": false,
      "inputs": [
        {
          "indexed": false,
          "internalType": "address",
          "name": "account",
          "type": "address"
        }
      ],
      "name": "Paused",
      "type": "event"
    },
    {
      "anonymous": false,
      "inputs": [
        {
          "indexed": true,
          "internalType": "bytes32",
          "name": "role",
          "type": "bytes32"
        },
        {
          "indexed": true,
          "internalType": "bytes32",
          "name": "previousAdminRole",
          "type": "bytes32"
        },
        {
          "indexed": true,
          "internalType": "bytes32",
          "name": "newAdminRole",
          "type": "bytes32"
        }
      ],
      "name": "RoleAdminChanged",
      "type": "event"
    },
    {
      "anonymous": false,
      "inputs": [
        {
          "indexed": true,
          "internalType": "bytes32",
          "name": "role",
          "type": "bytes32"
        },
        {
          "indexed": true,
          "internalType": "address",
          "name": "account",
          "type": "address"
        },
        {
          "indexed": true,
          "internalType": "address",
          "name": "sender",
          "type": "address"
        }
      ],
      "name": "RoleGranted",
      "type": "event"
    },
    {
      "anonymous": false,
      "inputs": [
        {
          "indexed": true,
          "internalType": "bytes32",
          "name": "role",
          "type": "bytes32"
        },
        {
          "indexed": true,
          "internalType": "address",
          "name": "account",
          "type": "address"
        },
        {
          "indexed": true,
          "internalType": "address",
          "name": "sender",
          "type": "address"
        }
      ],
      "name": "RoleRevoked",
      "type": "event"
    },
    {
      "anonymous": false,
      "inputs": [
        {
          "indexed": true,
          "internalType": "address",
          "name": "from",
          "type": "address"
        },
        {
          "indexed": true,
          "internalType": "address",
          "name": "to",
          "type": "address"
        },
        {
          "indexed": false,
          "internalType": "uint256",
          "name": "value",
          "type": "uint256"
        }
      ],
      "name": "Transfer",
      "type": "event"
    },
    {
      "anonymous": false,
      "inputs": [
        {
          "indexed": false,
          "internalType": "address",
          "name": "account",
          "type": "address"
        }
      ],
      "name": "Unpaused",
      "type": "event"
    },
    {
      "anonymous": false,
      "inputs": [
        {
          "indexed": false,
          "internalType": "uint256",
          "name": "voteAmount",
          "type": "uint256"
        },
        {
          "indexed": false,
          "internalType": "uint256",
          "name": "commitEndDate",
          "type": "uint256"
        },
        {
          "indexed": true,
          "internalType": "uint256",
          "name": "pollID",
          "type": "uint256"
        },
        {
          "indexed": true,
          "internalType": "address",
          "name": "creator",
          "type": "address"
        }
      ],
      "name": "_PollCreated",
      "type": "event"
    },
    {
      "anonymous": false,
      "inputs": [
        {
          "indexed": true,
          "internalType": "uint256",
          "name": "pollID",
          "type": "uint256"
        },
        {
          "indexed": true,
          "internalType": "uint256",
          "name": "amount",
          "type": "uint256"
        }
      ],
      "name": "_RewardsBurned",
      "type": "event"
    },
    {
      "anonymous": false,
      "inputs": [
        {
          "indexed": true,
          "internalType": "uint256",
          "name": "pollID",
          "type": "uint256"
        },
        {
          "indexed": true,
          "internalType": "uint256",
          "name": "amount",
          "type": "uint256"
        }
      ],
      "name": "_RewardsMinted",
      "type": "event"
    },
    {
      "anonymous": false,
      "inputs": [
        {
          "indexed": false,
          "internalType": "address",
          "name": "to",
          "type": "address"
        }
      ],
      "name": "_StakerGranted",
      "type": "event"
    },
    {
      "anonymous": false,
      "inputs": [
        {
          "indexed": false,
          "internalType": "address",
          "name": "account",
          "type": "address"
        },
        {
          "indexed": false,
          "internalType": "uint256",
          "name": "amountReturned",
          "type": "uint256"
        }
      ],
      "name": "_StakerRoleRevoked",
      "type": "event"
    },
    {
      "anonymous": false,
      "inputs": [
        {
          "indexed": false,
          "internalType": "address",
          "name": "account",
          "type": "address"
        },
        {
          "indexed": false,
          "internalType": "uint256",
          "name": "amount",
          "type": "uint256"
        }
      ],
      "name": "_StakesDeposited",
      "type": "event"
    },
    {
      "anonymous": false,
      "inputs": [
        {
          "indexed": false,
          "internalType": "address",
          "name": "account",
          "type": "address"
        },
        {
          "indexed": false,
          "internalType": "uint256",
          "name": "amount",
          "type": "uint256"
        }
      ],
      "name": "_StakesWithdrawn",
      "type": "event"
    },
    {
      "anonymous": false,
      "inputs": [
        {
          "indexed": true,
          "internalType": "address",
          "name": "voter",
          "type": "address"
        },
        {
          "indexed": false,
          "internalType": "uint256",
          "name": "amountClaimed",
          "type": "uint256"
        }
      ],
      "name": "_VoteClaimed",
      "type": "event"
    },
    {
      "anonymous": false,
      "inputs": [
        {
          "indexed": true,
          "internalType": "uint256",
          "name": "pollID",
          "type": "uint256"
        }
      ],
      "name": "_VoteEnded",
      "type": "event"
    },
    {
      "anonymous": false,
      "inputs": [
        {
          "indexed": true,
          "internalType": "uint256",
          "name": "pollID",
          "type": "uint256"
        },
        {
          "indexed": false,
          "internalType": "uint256",
          "name": "votes",
          "type": "uint256"
        },
        {
          "indexed": true,
          "internalType": "address",
          "name": "voter",
          "type": "address"
        },
        {
          "indexed": false,
          "internalType": "uint256",
          "name": "side",
          "type": "uint256"
        }
      ],
      "name": "_VoteMade",
      "type": "event"
    },
    {
      "anonymous": false,
      "inputs": [
        {
          "indexed": true,
          "internalType": "uint256",
          "name": "pollID",
          "type": "uint256"
        },
        {
          "indexed": false,
          "internalType": "uint256",
          "name": "votes",
          "type": "uint256"
        },
        {
          "indexed": true,
          "internalType": "address",
          "name": "voter",
          "type": "address"
        }
      ],
      "name": "_VoteRevoked",
      "type": "event"
    },
    {
      "anonymous": false,
      "inputs": [
        {
          "indexed": true,
          "internalType": "address",
          "name": "voter",
          "type": "address"
        }
      ],
      "name": "_VotingRightsGranted",
      "type": "event"
    },
    {
      "anonymous": false,
      "inputs": [
        {
          "indexed": true,
          "internalType": "address",
          "name": "voter",
          "type": "address"
        }
      ],
      "name": "_VotingRightsRevoked",
      "type": "event"
    },
    {
      "anonymous": false,
      "inputs": [
        {
          "indexed": true,
          "internalType": "uint256",
          "name": "lengthExtended",
          "type": "uint256"
        },
        {
          "indexed": true,
          "internalType": "uint256",
          "name": "NewCommitDuration",
          "type": "uint256"
        }
      ],
      "name": "_VotingTimeAdded",
      "type": "event"
    },
    {
      "anonymous": false,
      "inputs": [
        {
          "indexed": false,
          "internalType": "uint256",
          "name": "amountMinted",
          "type": "uint256"
        },
        {
          "indexed": false,
          "internalType": "uint256",
          "name": "pollID",
          "type": "uint256"
        }
      ],
      "name": "_resultsGenerated",
      "type": "event"
    },
    {
      "inputs": [],
      "name": "DEFAULT_ADMIN_ROLE",
      "outputs": [
        {
          "internalType": "bytes32",
          "name": "",
          "type": "bytes32"
        }
      ],
      "stateMutability": "view",
      "type": "function"
    },
    {
      "inputs": [],
      "name": "MINTER_ROLE",
      "outputs": [
        {
          "internalType": "bytes32",
          "name": "",
          "type": "bytes32"
        }
      ],
      "stateMutability": "view",
      "type": "function"
    },
    {
      "inputs": [],
      "name": "PAUSER_ROLE",
      "outputs": [
        {
          "internalType": "bytes32",
          "name": "",
          "type": "bytes32"
        }
      ],
      "stateMutability": "view",
      "type": "function"
    },
    {
      "inputs": [],
      "name": "STAKER_ROLE",
      "outputs": [
        {
          "internalType": "bytes32",
          "name": "",
          "type": "bytes32"
        }
      ],
      "stateMutability": "view",
      "type": "function"
    },
    {
      "inputs": [],
      "name": "VOTER_ROLE",
      "outputs": [
        {
          "internalType": "bytes32",
          "name": "",
          "type": "bytes32"
        }
      ],
      "stateMutability": "view",
      "type": "function"
    },
    {
      "inputs": [
        {
          "internalType": "uint256",
          "name": "pollID",
          "type": "uint256"
        },
        {
          "internalType": "uint256",
          "name": "timeAdded",
          "type": "uint256"
        }
      ],
      "name": "addTime",
      "outputs": [],
      "stateMutability": "nonpayable",
      "type": "function"
    },
    {
      "inputs": [
        {
          "internalType": "address",
          "name": "owner",
          "type": "address"
        },
        {
          "internalType": "address",
          "name": "spender",
          "type": "address"
        }
      ],
      "name": "allowance",
      "outputs": [
        {
          "internalType": "uint256",
          "name": "",
          "type": "uint256"
        }
      ],
      "stateMutability": "view",
      "type": "function"
    },
    {
      "inputs": [
        {
          "internalType": "address",
          "name": "spender",
          "type": "address"
        },
        {
          "internalType": "uint256",
          "name": "amount",
          "type": "uint256"
        }
      ],
      "name": "approve",
      "outputs": [
        {
          "internalType": "bool",
          "name": "",
          "type": "bool"
        }
      ],
      "stateMutability": "nonpayable",
      "type": "function"
    },
    {
      "inputs": [
        {
          "internalType": "address",
          "name": "account",
          "type": "address"
        }
      ],
      "name": "balanceOf",
      "outputs": [
        {
          "internalType": "uint256",
          "name": "",
          "type": "uint256"
        }
      ],
      "stateMutability": "view",
      "type": "function"
    },
    {
      "inputs": [
        {
          "internalType": "uint256",
          "name": "amount",
          "type": "uint256"
        }
      ],
      "name": "burn",
      "outputs": [],
      "stateMutability": "nonpayable",
      "type": "function"
    },
    {
      "inputs": [
        {
          "internalType": "address",
          "name": "account",
          "type": "address"
        },
        {
          "internalType": "uint256",
          "name": "amount",
          "type": "uint256"
        }
      ],
      "name": "burnFrom",
      "outputs": [],
      "stateMutability": "nonpayable",
      "type": "function"
    },
    {
      "inputs": [
        {
          "internalType": "uint256",
          "name": "pollID",
          "type": "uint256"
        }
      ],
      "name": "burnRewards",
      "outputs": [],
      "stateMutability": "payable",
      "type": "function"
    },
    {
      "inputs": [
        {
          "internalType": "address",
          "name": "voter",
          "type": "address"
        }
      ],
      "name": "checkParticipation",
      "outputs": [
        {
          "internalType": "bool",
          "name": "participating",
          "type": "bool"
        }
      ],
      "stateMutability": "view",
      "type": "function"
    },
    {
      "inputs": [
        {
          "internalType": "uint256",
          "name": "pollID",
          "type": "uint256"
        }
      ],
      "name": "claimVote",
      "outputs": [],
      "stateMutability": "nonpayable",
      "type": "function"
    },
    {
      "inputs": [],
      "name": "decimals",
      "outputs": [
        {
          "internalType": "uint8",
          "name": "",
          "type": "uint8"
        }
      ],
      "stateMutability": "view",
      "type": "function"
    },
    {
      "inputs": [
        {
          "internalType": "address",
          "name": "spender",
          "type": "address"
        },
        {
          "internalType": "uint256",
          "name": "subtractedValue",
          "type": "uint256"
        }
      ],
      "name": "decreaseAllowance",
      "outputs": [
        {
          "internalType": "bool",
          "name": "",
          "type": "bool"
        }
      ],
      "stateMutability": "nonpayable",
      "type": "function"
    },
    {
      "inputs": [
        {
          "internalType": "uint256",
          "name": "pollID",
          "type": "uint256"
        }
      ],
      "name": "endPoll",
      "outputs": [],
      "stateMutability": "nonpayable",
      "type": "function"
    },
    {
      "inputs": [
        {
          "internalType": "bytes32",
          "name": "role",
          "type": "bytes32"
        }
      ],
      "name": "getRoleAdmin",
      "outputs": [
        {
          "internalType": "bytes32",
          "name": "",
          "type": "bytes32"
        }
      ],
      "stateMutability": "view",
      "type": "function"
    },
    {
      "inputs": [
        {
          "internalType": "bytes32",
          "name": "role",
          "type": "bytes32"
        },
        {
          "internalType": "address",
          "name": "account",
          "type": "address"
        }
      ],
      "name": "grantRole",
      "outputs": [],
      "stateMutability": "nonpayable",
      "type": "function"
    },
    {
      "inputs": [
        {
          "internalType": "bytes32",
          "name": "role",
          "type": "bytes32"
        },
        {
          "internalType": "address",
          "name": "account",
          "type": "address"
        }
      ],
      "name": "hasRole",
      "outputs": [
        {
          "internalType": "bool",
          "name": "",
          "type": "bool"
        }
      ],
      "stateMutability": "view",
      "type": "function"
    },
    {
      "inputs": [
        {
          "internalType": "address",
          "name": "spender",
          "type": "address"
        },
        {
          "internalType": "uint256",
          "name": "addedValue",
          "type": "uint256"
        }
      ],
      "name": "increaseAllowance",
      "outputs": [
        {
          "internalType": "bool",
          "name": "",
          "type": "bool"
        }
      ],
      "stateMutability": "nonpayable",
      "type": "function"
    },
    {
      "inputs": [
        {
          "internalType": "uint256",
          "name": "_terminationDate",
          "type": "uint256"
        }
      ],
      "name": "isNotExpired",
      "outputs": [
        {
          "internalType": "bool",
          "name": "expired",
          "type": "bool"
        }
      ],
      "stateMutability": "view",
      "type": "function"
    },
    {
      "inputs": [
        {
          "internalType": "uint256",
          "name": "votesMade",
          "type": "uint256"
        },
        {
          "internalType": "uint256",
          "name": "pollID",
          "type": "uint256"
        },
        {
          "internalType": "uint256",
          "name": "side",
          "type": "uint256"
        }
      ],
      "name": "makeVote",
      "outputs": [],
      "stateMutability": "nonpayable",
      "type": "function"
    },
    {
      "inputs": [
        {
          "internalType": "address",
          "name": "to",
          "type": "address"
        },
        {
          "internalType": "uint256",
          "name": "amount",
          "type": "uint256"
        }
      ],
      "name": "mint",
      "outputs": [],
      "stateMutability": "nonpayable",
      "type": "function"
    },
    {
      "inputs": [
        {
          "internalType": "uint256",
          "name": "pollID",
          "type": "uint256"
        }
      ],
      "name": "mintRewards",
      "outputs": [],
      "stateMutability": "payable",
      "type": "function"
    },
    {
      "inputs": [],
      "name": "name",
      "outputs": [
        {
          "internalType": "string",
          "name": "",
          "type": "string"
        }
      ],
      "stateMutability": "view",
      "type": "function"
    },
    {
      "inputs": [
        {
          "internalType": "address",
          "name": "voter",
          "type": "address"
        },
        {
          "internalType": "uint256",
          "name": "pollID",
          "type": "uint256"
        }
      ],
      "name": "numOfVotes",
      "outputs": [
        {
          "internalType": "uint256",
          "name": "votes",
          "type": "uint256"
        }
      ],
      "stateMutability": "view",
      "type": "function"
    },
    {
      "inputs": [],
      "name": "pause",
      "outputs": [],
      "stateMutability": "nonpayable",
      "type": "function"
    },
    {
      "inputs": [],
      "name": "paused",
      "outputs": [
        {
          "internalType": "bool",
          "name": "",
          "type": "bool"
        }
      ],
      "stateMutability": "view",
      "type": "function"
    },
    {
      "inputs": [
        {
          "internalType": "uint256",
          "name": "_pollID",
          "type": "uint256"
        }
      ],
      "name": "pollEnded",
      "outputs": [
        {
          "internalType": "bool",
          "name": "ended",
          "type": "bool"
        }
      ],
      "stateMutability": "view",
      "type": "function"
    },
    {
      "inputs": [
        {
          "internalType": "uint256",
          "name": "_pollID",
          "type": "uint256"
        }
      ],
      "name": "pollExists",
      "outputs": [
        {
          "internalType": "bool",
          "name": "exists",
          "type": "bool"
        }
      ],
      "stateMutability": "view",
      "type": "function"
    },
    {
      "inputs": [
        {
          "internalType": "uint256",
          "name": "",
          "type": "uint256"
        }
      ],
      "name": "pollMapping",
      "outputs": [
        {
          "internalType": "uint256",
          "name": "commitEndDate",
          "type": "uint256"
        },
        {
          "internalType": "uint256",
          "name": "voteAmount",
          "type": "uint256"
        },
        {
          "internalType": "bool",
          "name": "quorumOption",
          "type": "bool"
        },
        {
          "internalType": "uint256",
          "name": "voteQuorum",
          "type": "uint256"
        },
        {
          "internalType": "uint256",
          "name": "votesFor",
          "type": "uint256"
        },
        {
          "internalType": "uint256",
          "name": "votesAgainst",
          "type": "uint256"
        },
        {
          "internalType": "uint256",
          "name": "option",
          "type": "uint256"
        },
        {
          "internalType": "bool",
          "name": "ongoing",
          "type": "bool"
        }
      ],
      "stateMutability": "view",
      "type": "function"
    },
    {
      "inputs": [
        {
          "internalType": "uint256",
          "name": "pollID",
          "type": "uint256"
        }
      ],
      "name": "quorumCalc",
      "outputs": [
        {
          "internalType": "uint256",
          "name": "result",
          "type": "uint256"
        }
      ],
      "stateMutability": "view",
      "type": "function"
    },
    {
      "inputs": [
        {
          "internalType": "bytes32",
          "name": "role",
          "type": "bytes32"
        },
        {
          "internalType": "address",
          "name": "account",
          "type": "address"
        }
      ],
      "name": "renounceRole",
      "outputs": [],
      "stateMutability": "nonpayable",
      "type": "function"
    },
    {
      "inputs": [
        {
          "internalType": "uint256",
          "name": "pollID",
          "type": "uint256"
        }
      ],
      "name": "results",
      "outputs": [
        {
          "internalType": "bool",
          "name": "passed",
          "type": "bool"
        }
      ],
      "stateMutability": "nonpayable",
      "type": "function"
    },
    {
      "inputs": [
        {
          "internalType": "bytes32",
          "name": "role",
          "type": "bytes32"
        },
        {
          "internalType": "address",
          "name": "account",
          "type": "address"
        }
      ],
      "name": "revokeRole",
      "outputs": [],
      "stateMutability": "nonpayable",
      "type": "function"
    },
    {
      "inputs": [
        {
          "internalType": "uint256",
          "name": "amount",
          "type": "uint256"
        },
        {
          "internalType": "uint256",
          "name": "pollID",
          "type": "uint256"
        }
      ],
      "name": "revokeVote",
      "outputs": [],
      "stateMutability": "nonpayable",
      "type": "function"
    },
    {
      "inputs": [
        {
          "internalType": "address",
          "name": "",
          "type": "address"
        }
      ],
      "name": "stakedTotal",
      "outputs": [
        {
          "internalType": "uint256",
          "name": "",
          "type": "uint256"
        }
      ],
      "stateMutability": "view",
      "type": "function"
    },
    {
      "inputs": [
        {
          "internalType": "bool",
          "name": "_quorumOption",
          "type": "bool"
        },
        {
          "internalType": "uint256",
          "name": "_voteQuorum",
          "type": "uint256"
        },
        {
          "internalType": "uint256",
          "name": "_voteAmount",
          "type": "uint256"
        },
        {
          "internalType": "uint256",
          "name": "_commitDuration",
          "type": "uint256"
        },
        {
          "internalType": "uint256",
          "name": "_option",
          "type": "uint256"
        }
      ],
      "name": "startPoll",
      "outputs": [
        {
          "internalType": "uint256",
          "name": "pollID",
          "type": "uint256"
        }
      ],
      "stateMutability": "nonpayable",
      "type": "function"
    },
    {
      "inputs": [
        {
          "internalType": "bytes4",
          "name": "interfaceId",
          "type": "bytes4"
        }
      ],
      "name": "supportsInterface",
      "outputs": [
        {
          "internalType": "bool",
          "name": "",
          "type": "bool"
        }
      ],
      "stateMutability": "view",
      "type": "function"
    },
    {
      "inputs": [],
      "name": "symbol",
      "outputs": [
        {
          "internalType": "string",
          "name": "",
          "type": "string"
        }
      ],
      "stateMutability": "view",
      "type": "function"
    },
    {
      "inputs": [],
      "name": "totalSupply",
      "outputs": [
        {
          "internalType": "uint256",
          "name": "",
          "type": "uint256"
        }
      ],
      "stateMutability": "view",
      "type": "function"
    },
    {
      "inputs": [
        {
          "internalType": "uint256",
          "name": "",
          "type": "uint256"
        }
      ],
      "name": "totalVotes",
      "outputs": [
        {
          "internalType": "uint256",
          "name": "",
          "type": "uint256"
        }
      ],
      "stateMutability": "view",
      "type": "function"
    },
    {
      "inputs": [
        {
          "internalType": "address",
          "name": "recipient",
          "type": "address"
        },
        {
          "internalType": "uint256",
          "name": "amount",
          "type": "uint256"
        }
      ],
      "name": "transfer",
      "outputs": [
        {
          "internalType": "bool",
          "name": "",
          "type": "bool"
        }
      ],
      "stateMutability": "nonpayable",
      "type": "function"
    },
    {
      "inputs": [
        {
          "internalType": "address",
          "name": "sender",
          "type": "address"
        },
        {
          "internalType": "address",
          "name": "recipient",
          "type": "address"
        },
        {
          "internalType": "uint256",
          "name": "amount",
          "type": "uint256"
        }
      ],
      "name": "transferFrom",
      "outputs": [
        {
          "internalType": "bool",
          "name": "",
          "type": "bool"
        }
      ],
      "stateMutability": "nonpayable",
      "type": "function"
    },
    {
      "inputs": [],
      "name": "unpause",
      "outputs": [],
      "stateMutability": "nonpayable",
      "type": "function"
    },
    {
      "inputs": [
        {
          "internalType": "address",
          "name": "voter",
          "type": "address"
        }
      ],
      "name": "voterAllocation",
      "outputs": [],
      "stateMutability": "nonpayable",
      "type": "function"
    },
    {
      "inputs": [
        {
          "internalType": "address",
          "name": "voter",
          "type": "address"
        }
      ],
      "name": "voterRevokation",
      "outputs": [],
      "stateMutability": "nonpayable",
      "type": "function"
    },
    {
      "inputs": [
        {
          "internalType": "uint256",
          "name": "amount",
          "type": "uint256"
        }
      ],
      "name": "stake",
      "outputs": [],
      "stateMutability": "payable",
      "type": "function"
    },
    {
      "inputs": [
        {
          "internalType": "uint256",
          "name": "amount",
          "type": "uint256"
        }
      ],
      "name": "withdraw",
      "outputs": [],
      "stateMutability": "payable",
      "type": "function"
    },
    {
      "inputs": [
        {
          "internalType": "uint256",
          "name": "amount",
          "type": "uint256"
        }
      ],
      "name": "deposit",
      "outputs": [],
      "stateMutability": "payable",
      "type": "function"
    },
    {
      "inputs": [],
      "name": "viewStakedBalance",
      "outputs": [
        {
          "internalType": "uint256",
          "name": "balance",
          "type": "uint256"
        }
      ],
      "stateMutability": "view",
      "type": "function"
    },
    {
      "inputs": [],
      "name": "revokeStaker",
      "outputs": [],
      "stateMutability": "nonpayable",
      "type": "function"
    }
  ],
  "bytecode": "0x60806040526000600a553480156200001657600080fd5b506040518060400160405280600381526020017f4d616900000000000000000000000000000000000000000000000000000000008152506040518060400160405280600381526020017f4d4149000000000000000000000000000000000000000000000000000000000081525081600390805190602001906200009b929190620004cc565b508060049080519060200190620000b4929190620004cc565b5050506000600660006101000a81548160ff0219169083151502179055506200011033620000e7620001c160201b60201c565b600a620000f59190620006d7565b6103e862000104919062000814565b620001ca60201b60201c565b620001256000801b336200032f60201b60201c565b620001577f9f2df0fed2c77648de5860a4cc508cd0818c85b8b8a1ab4ceeef8d981c8956a6336200032f60201b60201c565b620001897f72c3eec1760bf69946625c2d4fb8e44e2c806345041960b434674fb9ab3976cf336200032f60201b60201c565b620001bb7fb9e206fa2af7ee1331b72ce58b6d938ac810ce9b5cdb65d35ab723fd67badf9e336200032f60201b60201c565b6200092d565b60006012905090565b600073ffffffffffffffffffffffffffffffffffffffff168273ffffffffffffffffffffffffffffffffffffffff1614156200023d576040517f08c379a00000000000000000000000000000000000000000000000000000000081526004016200023490620005cf565b60405180910390fd5b62000251600083836200034560201b60201c565b80600260008282546200026591906200061f565b92505081905550806000808473ffffffffffffffffffffffffffffffffffffffff1673ffffffffffffffffffffffffffffffffffffffff1681526020019081526020016000206000828254620002bc91906200061f565b925050819055508173ffffffffffffffffffffffffffffffffffffffff16600073ffffffffffffffffffffffffffffffffffffffff167fddf252ad1be2c89b69c2b068fc378daa952ba7f163c4a11628f55a4df523b3ef83604051620003239190620005f1565b60405180910390a35050565b6200034182826200036260201b60201c565b5050565b6200035d8383836200045460201b6200347b1760201c565b505050565b6200037482826200045960201b60201c565b620004505760016005600084815260200190815260200160002060000160008373ffffffffffffffffffffffffffffffffffffffff1673ffffffffffffffffffffffffffffffffffffffff16815260200190815260200160002060006101000a81548160ff021916908315150217905550620003f5620004c460201b60201c565b73ffffffffffffffffffffffffffffffffffffffff168173ffffffffffffffffffffffffffffffffffffffff16837f2f8788117e7eff1d82e926ec794901d17c78024a50270940304540a733656f0d60405160405180910390a45b5050565b505050565b60006005600084815260200190815260200160002060000160008373ffffffffffffffffffffffffffffffffffffffff1673ffffffffffffffffffffffffffffffffffffffff16815260200190815260200160002060009054906101000a900460ff16905092915050565b600033905090565b828054620004da906200088c565b90600052602060002090601f016020900481019282620004fe57600085556200054a565b82601f106200051957805160ff19168380011785556200054a565b828001600101855582156200054a579182015b82811115620005495782518255916020019190600101906200052c565b5b5090506200055991906200055d565b5090565b5b80821115620005785760008160009055506001016200055e565b5090565b60006200058b601f836200060e565b91507f45524332303a206d696e7420746f20746865207a65726f2061646472657373006000830152602082019050919050565b620005c98162000875565b82525050565b60006020820190508181036000830152620005ea816200057c565b9050919050565b6000602082019050620006086000830184620005be565b92915050565b600082825260208201905092915050565b60006200062c8262000875565b9150620006398362000875565b9250827fffffffffffffffffffffffffffffffffffffffffffffffffffffffffffffffff03821115620006715762000670620008c2565b5b828201905092915050565b6000808291508390505b6001851115620006ce57808604811115620006a657620006a5620008c2565b5b6001851615620006b65780820291505b8081029050620006c68562000920565b945062000686565b94509492505050565b6000620006e48262000875565b9150620006f1836200087f565b9250620007207fffffffffffffffffffffffffffffffffffffffffffffffffffffffffffffffff848462000728565b905092915050565b6000826200073a57600190506200080d565b816200074a57600090506200080d565b81600181146200076357600281146200076e57620007a4565b60019150506200080d565b60ff841115620007835762000782620008c2565b5b8360020a9150848211156200079d576200079c620008c2565b5b506200080d565b5060208310610133831016604e8410600b8410161715620007de5782820a905083811115620007d857620007d7620008c2565b5b6200080d565b620007ed84848460016200067c565b92509050818404811115620008075762000806620008c2565b5b81810290505b9392505050565b6000620008218262000875565b91506200082e8362000875565b9250817fffffffffffffffffffffffffffffffffffffffffffffffffffffffffffffffff04831182151516156200086a5762000869620008c2565b5b828202905092915050565b6000819050919050565b600060ff82169050919050565b60006002820490506001821680620008a557607f821691505b60208210811415620008bc57620008bb620008f1565b5b50919050565b7f4e487b7100000000000000000000000000000000000000000000000000000000600052601160045260246000fd5b7f4e487b7100000000000000000000000000000000000000000000000000000000600052602260045260246000fd5b60008160011c9050919050565b615ac1806200093d6000396000f3fe6080604052600436106103195760003560e01c80638456cb59116101ab578063a94015c8116100f7578063d547741f11610095578063edf949e81161006f578063edf949e814610c19578063ee68483014610c42578063f43b877814610c7f578063f567918914610ca857610319565b8063d547741f14610b88578063dd62ed3e14610bb1578063e63ab1e914610bee57610319565b8063b6b55f25116100d1578063b6b55f2514610adb578063ca5f0b9914610af7578063cd8cd04814610b34578063d539139314610b5d57610319565b8063a94015c814610a70578063ae47785b14610a9b578063b687bcc014610ab257610319565b806395d89b4111610164578063a3a4333b1161013e578063a3a4333b146109b1578063a457c2d7146109da578063a694fc3a14610a17578063a9059cbb14610a3357610319565b806395d89b411461093257806398dcad611461095d578063a217fddf1461098657610319565b80638456cb591461081d57806385f8db101461083457806388d21ff31461085f57806389ec02571461089c5780638c405503146108b857806391d14854146108f557610319565b8063313ce5671161026a57806340c10f19116102235780635c975abb116101fd5780635c975abb1461076357806370a082311461078e578063791581c6146107cb57806379cc6790146107f457610319565b806340c10f19146106f557806342966c681461071e5780634828ced91461074757610319565b8063313ce567146105de57806336568abe14610609578063372c48e1146106325780633780b3ed1461067657806339509351146106a15780633f4ba83a146106de57610319565b806319e6e158116102d757806323b872dd116102b157806323b872dd1461051f578063248a9ca31461055c5780632e1a7d4d146105995780632f2ff15d146105b557610319565b806319e6e158146104685780631b0c27da146104a557806321e04c32146104e257610319565b8062f027201461031e57806301ffc9a71461035b57806303d29a5b1461039857806306fdde03146103d5578063095ea7b31461040057806318160ddd1461043d575b600080fd5b34801561032a57600080fd5b50610345600480360381019061034091906145c9565b610ce5565b60405161035291906155fe565b60405180910390f35b34801561036757600080fd5b50610382600480360381019061037d91906145a0565b610dad565b60405161038f9190615266565b60405180910390f35b3480156103a457600080fd5b506103bf60048036038101906103ba91906145c9565b610e27565b6040516103cc9190615266565b60405180910390f35b3480156103e157600080fd5b506103ea610e33565b6040516103f7919061529c565b60405180910390f35b34801561040c57600080fd5b5061042760048036038101906104229190614488565b610ec5565b6040516104349190615266565b60405180910390f35b34801561044957600080fd5b50610452610ee3565b60405161045f91906155fe565b60405180910390f35b34801561047457600080fd5b5061048f600480360381019061048a91906145c9565b610eed565b60405161049c91906155fe565b60405180910390f35b3480156104b157600080fd5b506104cc60048036038101906104c791906145c9565b610f05565b6040516104d99190615266565b60405180910390f35b3480156104ee57600080fd5b50610509600480360381019061050491906143d4565b61108a565b6040516105169190615266565b60405180910390f35b34801561052b57600080fd5b5061054660048036038101906105419190614439565b611164565b6040516105539190615266565b60405180910390f35b34801561056857600080fd5b50610583600480360381019061057e919061453b565b611265565b6040516105909190615281565b60405180910390f35b6105b360048036038101906105ae91906145c9565b611285565b005b3480156105c157600080fd5b506105dc60048036038101906105d79190614564565b611531565b005b3480156105ea57600080fd5b506105f361155a565b60405161060091906156c0565b60405180910390f35b34801561061557600080fd5b50610630600480360381019061062b9190614564565b611563565b005b34801561063e57600080fd5b50610659600480360381019061065491906145c9565b6115e6565b60405161066d989796959493929190615642565b60405180910390f35b34801561068257600080fd5b5061068b611648565b6040516106989190615281565b60405180910390f35b3480156106ad57600080fd5b506106c860048036038101906106c39190614488565b61166c565b6040516106d59190615266565b60405180910390f35b3480156106ea57600080fd5b506106f3611718565b005b34801561070157600080fd5b5061071c60048036038101906107179190614488565b611755565b005b34801561072a57600080fd5b50610745600480360381019061074091906145c9565b6117a2565b005b610761600480360381019061075c91906145c9565b6117b6565b005b34801561076f57600080fd5b506107786118a1565b6040516107859190615266565b60405180910390f35b34801561079a57600080fd5b506107b560048036038101906107b091906143d4565b6118b8565b6040516107c291906155fe565b60405180910390f35b3480156107d757600080fd5b506107f260048036038101906107ed91906145f2565b611900565b005b34801561080057600080fd5b5061081b60048036038101906108169190614488565b61199c565b005b34801561082957600080fd5b50610832611a20565b005b34801561084057600080fd5b50610849611a5d565b60405161085691906155fe565b60405180910390f35b34801561086b57600080fd5b50610886600480360381019061088191906145c9565b611b0d565b6040516108939190615266565b60405180910390f35b6108b660048036038101906108b191906145c9565b611b28565b005b3480156108c457600080fd5b506108df60048036038101906108da9190614488565b611c12565b6040516108ec91906155fe565b60405180910390f35b34801561090157600080fd5b5061091c60048036038101906109179190614564565b611ca9565b6040516109299190615266565b60405180910390f35b34801561093e57600080fd5b50610947611d14565b604051610954919061529c565b60405180910390f35b34801561096957600080fd5b50610984600480360381019061097f919061462e565b611da6565b005b34801561099257600080fd5b5061099b6122df565b6040516109a89190615281565b60405180910390f35b3480156109bd57600080fd5b506109d860048036038101906109d391906145c9565b6122e6565b005b3480156109e657600080fd5b50610a0160048036038101906109fc9190614488565b612621565b604051610a0e9190615266565b60405180910390f35b610a316004803603810190610a2c91906145c9565b612715565b005b348015610a3f57600080fd5b50610a5a6004803603810190610a559190614488565b6128f1565b604051610a679190615266565b60405180910390f35b348015610a7c57600080fd5b50610a8561290f565b604051610a929190615281565b60405180910390f35b348015610aa757600080fd5b50610ab0612933565b005b348015610abe57600080fd5b50610ad96004803603810190610ad491906143d4565b612acf565b005b610af56004803603810190610af091906145c9565b612b72565b005b348015610b0357600080fd5b50610b1e6004803603810190610b1991906144c4565b612cda565b604051610b2b91906155fe565b60405180910390f35b348015610b4057600080fd5b50610b5b6004803603810190610b5691906143d4565b612e76565b005b348015610b6957600080fd5b50610b72612f53565b604051610b7f9190615281565b60405180910390f35b348015610b9457600080fd5b50610baf6004803603810190610baa9190614564565b612f77565b005b348015610bbd57600080fd5b50610bd86004803603810190610bd391906143fd565b612fa0565b604051610be591906155fe565b60405180910390f35b348015610bfa57600080fd5b50610c03613027565b604051610c109190615281565b60405180910390f35b348015610c2557600080fd5b50610c406004803603810190610c3b91906145f2565b61304b565b005b348015610c4e57600080fd5b50610c696004803603810190610c6491906145c9565b6133b2565b604051610c769190615266565b60405180910390f35b348015610c8b57600080fd5b50610ca66004803603810190610ca191906145c9565b6133ec565b005b348015610cb457600080fd5b50610ccf6004803603810190610cca91906143d4565b613463565b604051610cdc91906155fe565b60405180910390f35b600080600860008481526020019081526020016000205411610d0657600080fd5b610d0f82611b0d565b610d4e576040517f08c379a0000000000000000000000000000000000000000000000000000000008152600401610d459061549e565b60405180910390fd5b6000610d8c6008600085815260200190815260200160002054600760008681526020019081526020016000206004015461348090919063ffffffff16565b9050610da260648261349690919063ffffffff16565b905080915050919050565b60007f7965db0b000000000000000000000000000000000000000000000000000000007bffffffffffffffffffffffffffffffffffffffffffffffffffffffff1916827bffffffffffffffffffffffffffffffffffffffffffffffffffffffff19161480610e205750610e1f826134ac565b5b9050919050565b60008142109050919050565b606060038054610e42906158ff565b80601f0160208091040260200160405190810160405280929190818152602001828054610e6e906158ff565b8015610ebb5780601f10610e9057610100808354040283529160200191610ebb565b820191906000526020600020905b815481529060010190602001808311610e9e57829003601f168201915b5050505050905090565b6000610ed9610ed2613516565b848461351e565b6001905092915050565b6000600254905090565b60086020528060005260406000206000915090505481565b6000610f10826133ec565b60001515610f1d83610e27565b151514610f2957600080fd5b610f3282611b0d565b610f3b57600080fd5b600015156007600084815260200190815260200160002060020160009054906101000a900460ff1615151415610fee57600760008381526020019081526020016000206005015460076000848152602001908152602001600020600401541115610fa85760019050611085565b600760008381526020019081526020016000206005015460076000848152602001908152602001600020600401541015610fe55760009050611085565b60009050611085565b600115156007600084815260200190815260200160002060020160009054906101000a900460ff161515141561108457600760008381526020019081526020016000206003015461103e83610ce5565b1061104c5760019050611085565b600760008381526020019081526020016000206003015461106c83610ce5565b101561107b5760009050611085565b60009050611085565b5b919050565b600080600190505b600a5481101561115957600115156007600083815260200190815260200160002060070160009054906101000a900460ff1615151480156111375750600115156007600083815260200190815260200160002060090160008573ffffffffffffffffffffffffffffffffffffffff1673ffffffffffffffffffffffffffffffffffffffff16815260200190815260200160002060009054906101000a900460ff161515145b1561114657600191505061115f565b808061115190615931565b915050611092565b50600090505b919050565b60006111718484846136e9565b6000600160008673ffffffffffffffffffffffffffffffffffffffff1673ffffffffffffffffffffffffffffffffffffffff16815260200190815260200160002060006111bc613516565b73ffffffffffffffffffffffffffffffffffffffff1673ffffffffffffffffffffffffffffffffffffffff1681526020019081526020016000205490508281101561123c576040517f08c379a00000000000000000000000000000000000000000000000000000000081526004016112339061543e565b60405180910390fd5b61125985611248613516565b858461125491906157e3565b61351e565b60019150509392505050565b600060056000838152602001908152602001600020600101549050919050565b6112af7fb9e206fa2af7ee1331b72ce58b6d938ac810ce9b5cdb65d35ab723fd67badf9e33611ca9565b6112ee576040517f08c379a00000000000000000000000000000000000000000000000000000000081526004016112e5906153de565b60405180910390fd5b600c60003373ffffffffffffffffffffffffffffffffffffffff1673ffffffffffffffffffffffffffffffffffffffff16815260200190815260200160002054811115611370576040517f08c379a00000000000000000000000000000000000000000000000000000000081526004016113679061539e565b60405180910390fd5b6103e86113c582600c60003373ffffffffffffffffffffffffffffffffffffffff1673ffffffffffffffffffffffffffffffffffffffff1681526020019081526020016000205461396890919063ffffffff16565b1015611406576040517f08c379a00000000000000000000000000000000000000000000000000000000081526004016113fd9061557e565b60405180910390fd5b600015156114133361108a565b151514611455576040517f08c379a000000000000000000000000000000000000000000000000000000000815260040161144c9061545e565b60405180910390fd5b61145f33826128f1565b506114b281600c60003373ffffffffffffffffffffffffffffffffffffffff1673ffffffffffffffffffffffffffffffffffffffff1681526020019081526020016000205461396890919063ffffffff16565b600c60003373ffffffffffffffffffffffffffffffffffffffff1673ffffffffffffffffffffffffffffffffffffffff168152602001908152602001600020819055507f636cb222c0a14b941cff2b7b16a3920b7043e92dabbf4ebe5104f45b7c5ea23c338260405161152692919061523d565b60405180910390a150565b61153a82611265565b61154b81611546613516565b61397e565b6115558383613a1b565b505050565b60006012905090565b61156b613516565b73ffffffffffffffffffffffffffffffffffffffff168173ffffffffffffffffffffffffffffffffffffffff16146115d8576040517f08c379a00000000000000000000000000000000000000000000000000000000081526004016115cf906155be565b60405180910390fd5b6115e28282613afc565b5050565b60076020528060005260406000206000915090508060000154908060010154908060020160009054906101000a900460ff16908060030154908060040154908060050154908060060154908060070160009054906101000a900460ff16905088565b7fb9e206fa2af7ee1331b72ce58b6d938ac810ce9b5cdb65d35ab723fd67badf9e81565b600061170e611679613516565b848460016000611687613516565b73ffffffffffffffffffffffffffffffffffffffff1673ffffffffffffffffffffffffffffffffffffffff16815260200190815260200160002060008873ffffffffffffffffffffffffffffffffffffffff1673ffffffffffffffffffffffffffffffffffffffff168152602001908152602001600020546117099190615702565b61351e565b6001905092915050565b6117427f65d7a28e3265b37a6474929f336521b332c1681b933f6cb9f3376673440d862a33611ca9565b61174b57600080fd5b611753613bde565b565b61177f7f9f2df0fed2c77648de5860a4cc508cd0818c85b8b8a1ab4ceeef8d981c8956a633611ca9565b61178857600080fd5b6117928282613c80565b61179e60003383613dd4565b5050565b6117b36117ad613516565b82613de4565b50565b60016007600083815260200190815260200160002060060154146117d957600080fd5b600015156007600083815260200190815260200160002060070160009054906101000a900460ff1615151461180d57600080fd5b61182f6000336007600085815260200190815260200160002060010154613dd4565b61184f336007600084815260200190815260200160002060010154613c80565b7f815e966a30d910f09bbe731021156b873eaca737ddd8f638c08f40c47d4c55da600760008381526020019081526020016000206001015482604051611896929190615619565b60405180910390a150565b6000600660009054906101000a900460ff16905090565b60008060008373ffffffffffffffffffffffffffffffffffffffff1673ffffffffffffffffffffffffffffffffffffffff168152602001908152602001600020549050919050565b61190982611b0d565b61191257600080fd5b60008111611955576040517f08c379a000000000000000000000000000000000000000000000000000000000815260040161194c9061541e565b60405180910390fd5b61197e816007600085815260200190815260200160002060000154613fb890919063ffffffff16565b60076000848152602001908152602001600020600001819055505050565b60006119af836119aa613516565b612fa0565b9050818110156119f4576040517f08c379a00000000000000000000000000000000000000000000000000000000081526004016119eb9061547e565b60405180910390fd5b611a1183611a00613516565b8484611a0c91906157e3565b61351e565b611a1b8383613de4565b505050565b611a4a7f65d7a28e3265b37a6474929f336521b332c1681b933f6cb9f3376673440d862a33611ca9565b611a5357600080fd5b611a5b613fce565b565b6000611a897fb9e206fa2af7ee1331b72ce58b6d938ac810ce9b5cdb65d35ab723fd67badf9e33611ca9565b611ac8576040517f08c379a0000000000000000000000000000000000000000000000000000000008152600401611abf906153de565b60405180910390fd5b600c60003373ffffffffffffffffffffffffffffffffffffffff1673ffffffffffffffffffffffffffffffffffffffff16815260200190815260200160002054905090565b6000808214158015611b215750600a548211155b9050919050565b6002600760008381526020019081526020016000206006015414611b4b57600080fd5b600015156007600083815260200190815260200160002060070160009054906101000a900460ff16151514611b7f57600080fd5b611ba13360006007600085815260200190815260200160002060010154613dd4565b611bc060076000838152602001908152602001600020600101546117a2565b7f815e966a30d910f09bbe731021156b873eaca737ddd8f638c08f40c47d4c55da600760008381526020019081526020016000206001015482604051611c07929190615619565b60405180910390a150565b60008073ffffffffffffffffffffffffffffffffffffffff168373ffffffffffffffffffffffffffffffffffffffff161415611c4d57600080fd5b60076000838152602001908152602001600020600a0160008473ffffffffffffffffffffffffffffffffffffffff1673ffffffffffffffffffffffffffffffffffffffff16815260200190815260200160002054905092915050565b60006005600084815260200190815260200160002060000160008373ffffffffffffffffffffffffffffffffffffffff1673ffffffffffffffffffffffffffffffffffffffff16815260200190815260200160002060009054906101000a900460ff16905092915050565b606060048054611d23906158ff565b80601f0160208091040260200160405190810160405280929190818152602001828054611d4f906158ff565b8015611d9c5780601f10611d7157610100808354040283529160200191611d9c565b820191906000526020600020905b815481529060010190602001808311611d7f57829003601f168201915b5050505050905090565b33611dd17f72c3eec1760bf69946625c2d4fb8e44e2c806345041960b434674fb9ab3976cf82611ca9565b611dda57600080fd5b600073ffffffffffffffffffffffffffffffffffffffff163373ffffffffffffffffffffffffffffffffffffffff161415611e1457600080fd5b60016007600085815260200190815260200160002060070160006101000a81548160ff0219169083151502179055611e4b57600080fd5b611e5483610e27565b611e5d57600080fd5b600060076000858152602001908152602001600020600a0160003373ffffffffffffffffffffffffffffffffffffffff1673ffffffffffffffffffffffffffffffffffffffff1681526020019081526020016000205411611ef3576040517f08c379a0000000000000000000000000000000000000000000000000000000008152600401611eea9061553e565b60405180910390fd5b60076000848152602001908152602001600020600a0160003373ffffffffffffffffffffffffffffffffffffffff1673ffffffffffffffffffffffffffffffffffffffff16815260200190815260200160002054841115611f5357600080fd5b600060076000858152602001908152602001600020600b0160003373ffffffffffffffffffffffffffffffffffffffff1673ffffffffffffffffffffffffffffffffffffffff16815260200190815260200160002054148061200757508160076000858152602001908152602001600020600b0160003373ffffffffffffffffffffffffffffffffffffffff1673ffffffffffffffffffffffffffffffffffffffff16815260200190815260200160002054145b61201057600080fd5b600182148061201f5750600282145b61202857600080fd5b600182141561207a5761205b60016007600086815260200190815260200160002060040154613fb890919063ffffffff16565b60076000858152602001908152602001600020600401819055506120c9565b60028214156120c8576120ad60016007600086815260200190815260200160002060050154613fb890919063ffffffff16565b60076000858152602001908152602001600020600501819055505b5b8160076000858152602001908152602001600020600b0160003373ffffffffffffffffffffffffffffffffffffffff1673ffffffffffffffffffffffffffffffffffffffff168152602001908152602001600020819055506121878460076000868152602001908152602001600020600a0160003373ffffffffffffffffffffffffffffffffffffffff1673ffffffffffffffffffffffffffffffffffffffff1681526020019081526020016000205461396890919063ffffffff16565b60076000858152602001908152602001600020600a0160003373ffffffffffffffffffffffffffffffffffffffff1673ffffffffffffffffffffffffffffffffffffffff1681526020019081526020016000208190555061220560016008600086815260200190815260200160002054613fb890919063ffffffff16565b600860008581526020019081526020016000208190555060016007600085815260200190815260200160002060090160003373ffffffffffffffffffffffffffffffffffffffff1673ffffffffffffffffffffffffffffffffffffffff16815260200190815260200160002060006101000a81548160ff0219169083151502179055503373ffffffffffffffffffffffffffffffffffffffff16837f5996e6b79a799eac35fb8f87a5ec15485d68232f99e6a9a13118feb7b77adb8086856040516122d1929190615619565b60405180910390a350505050565b6000801b81565b336123117f72c3eec1760bf69946625c2d4fb8e44e2c806345041960b434674fb9ab3976cf82611ca9565b61231a57600080fd5b600073ffffffffffffffffffffffffffffffffffffffff163373ffffffffffffffffffffffffffffffffffffffff16141561235457600080fd5b600061240f6103e76124016007600087815260200190815260200160002060080160003373ffffffffffffffffffffffffffffffffffffffff1673ffffffffffffffffffffffffffffffffffffffff16815260200190815260200160002054600960003373ffffffffffffffffffffffffffffffffffffffff1673ffffffffffffffffffffffffffffffffffffffff1681526020019081526020016000205461396890919063ffffffff16565b61396890919063ffffffff16565b905060008111612454576040517f08c379a000000000000000000000000000000000000000000000000000000000815260040161244b906153be565b60405180910390fd5b6124ba816007600086815260200190815260200160002060080160003373ffffffffffffffffffffffffffffffffffffffff1673ffffffffffffffffffffffffffffffffffffffff16815260200190815260200160002054613fb890919063ffffffff16565b6007600085815260200190815260200160002060080160003373ffffffffffffffffffffffffffffffffffffffff1673ffffffffffffffffffffffffffffffffffffffff168152602001908152602001600020819055506125778160076000868152602001908152602001600020600a0160003373ffffffffffffffffffffffffffffffffffffffff1673ffffffffffffffffffffffffffffffffffffffff16815260200190815260200160002054613fb890919063ffffffff16565b60076000858152602001908152602001600020600a0160003373ffffffffffffffffffffffffffffffffffffffff1673ffffffffffffffffffffffffffffffffffffffff168152602001908152602001600020819055503373ffffffffffffffffffffffffffffffffffffffff167f11121ac798069fb07833ce3bd6cbfb51fec926c61a652138d3241566fe7240798260405161261491906155fe565b60405180910390a2505050565b60008060016000612630613516565b73ffffffffffffffffffffffffffffffffffffffff1673ffffffffffffffffffffffffffffffffffffffff16815260200190815260200160002060008573ffffffffffffffffffffffffffffffffffffffff1673ffffffffffffffffffffffffffffffffffffffff168152602001908152602001600020549050828110156126ed576040517f08c379a00000000000000000000000000000000000000000000000000000000081526004016126e49061559e565b60405180910390fd5b61270a6126f8613516565b85858461270591906157e3565b61351e565b600191505092915050565b6103e881101561275a576040517f08c379a00000000000000000000000000000000000000000000000000000000081526004016127519061533e565b60405180910390fd5b600015156127887fb9e206fa2af7ee1331b72ce58b6d938ac810ce9b5cdb65d35ab723fd67badf9e33611ca9565b1515146127ca576040517f08c379a00000000000000000000000000000000000000000000000000000000081526004016127c19061555e565b60405180910390fd5b6127f733600b60009054906101000a900473ffffffffffffffffffffffffffffffffffffffff1683611164565b506128227fb9e206fa2af7ee1331b72ce58b6d938ac810ce9b5cdb65d35ab723fd67badf9e33611531565b61287481600c60003373ffffffffffffffffffffffffffffffffffffffff1673ffffffffffffffffffffffffffffffffffffffff16815260200190815260200160002054613fb890919063ffffffff16565b600c60003373ffffffffffffffffffffffffffffffffffffffff1673ffffffffffffffffffffffffffffffffffffffff168152602001908152602001600020819055507faa9b7cbce69f378b88683439602b2857dc079ec95e5996ecd5e84df0673de4d7336040516128e69190615222565b60405180910390a150565b60006129056128fe613516565b84846136e9565b6001905092915050565b7f72c3eec1760bf69946625c2d4fb8e44e2c806345041960b434674fb9ab3976cf81565b61295d7fb9e206fa2af7ee1331b72ce58b6d938ac810ce9b5cdb65d35ab723fd67badf9e33611ca9565b61299c576040517f08c379a0000000000000000000000000000000000000000000000000000000008152600401612993906153de565b60405180910390fd5b6129c67fb9e206fa2af7ee1331b72ce58b6d938ac810ce9b5cdb65d35ab723fd67badf9e33612f77565b612a0f33600c60003373ffffffffffffffffffffffffffffffffffffffff1673ffffffffffffffffffffffffffffffffffffffff168152602001908152602001600020546128f1565b506000600c60003373ffffffffffffffffffffffffffffffffffffffff1673ffffffffffffffffffffffffffffffffffffffff168152602001908152602001600020819055507fcb71ce4aef17d5694e262b4bedec3b5f7ea68f25621d775f80bc72e78d27692d33600c60003373ffffffffffffffffffffffffffffffffffffffff1673ffffffffffffffffffffffffffffffffffffffff16815260200190815260200160002054604051612ac592919061523d565b60405180910390a1565b612af97fb9e206fa2af7ee1331b72ce58b6d938ac810ce9b5cdb65d35ab723fd67badf9e33611ca9565b612b0257600080fd5b612b2c7f72c3eec1760bf69946625c2d4fb8e44e2c806345041960b434674fb9ab3976cf82611531565b8073ffffffffffffffffffffffffffffffffffffffff167f3025407ee9b066f6cd97886b0c47bda6b6ebbb42d2c7574284f5814cfd3a504a60405160405180910390a250565b612b9c7fb9e206fa2af7ee1331b72ce58b6d938ac810ce9b5cdb65d35ab723fd67badf9e33611ca9565b612bdb576040517f08c379a0000000000000000000000000000000000000000000000000000000008152600401612bd2906153de565b60405180910390fd5b612c0833600b60009054906101000a900473ffffffffffffffffffffffffffffffffffffffff1683611164565b50612c5b81600c60003373ffffffffffffffffffffffffffffffffffffffff1673ffffffffffffffffffffffffffffffffffffffff16815260200190815260200160002054613fb890919063ffffffff16565b600c60003373ffffffffffffffffffffffffffffffffffffffff1673ffffffffffffffffffffffffffffffffffffffff168152602001908152602001600020819055507f91dd5382838389dd317d2f661bec79d34c5b6abd4d2d475f84079da548c030fc3382604051612ccf92919061523d565b60405180910390a150565b6000801515861515148015612cef5750600085145b80612d0a575060011515861515148015612d095750600085115b5b612d1357600080fd5b60008411612d56576040517f08c379a0000000000000000000000000000000000000000000000000000000008152600401612d4d906154fe565b60405180910390fd5b6000612d6b8442613fb890919063ffffffff16565b9050612d836001600a54613fb890919063ffffffff16565b600a81905550600060076000600a5481526020019081526020016000209050838160060181905550878160020160006101000a81548160ff021916908315150217905550868160030181905550858160010181905550818160000181905550600081600401819055506000816005018190555060018160070160006101000a81548160ff0219169083151502179055503373ffffffffffffffffffffffffffffffffffffffff16600a547f75c3234b322da18df8c948bde9b9983e5a43633c4e2647d4d9f4f15c0706f05d8885604051612e5e929190615619565b60405180910390a3600a549250505095945050505050565b612ea07f72c3eec1760bf69946625c2d4fb8e44e2c806345041960b434674fb9ab3976cf33611ca9565b612ea957600080fd5b600073ffffffffffffffffffffffffffffffffffffffff168173ffffffffffffffffffffffffffffffffffffffff161415612ee357600080fd5b612f0d7f72c3eec1760bf69946625c2d4fb8e44e2c806345041960b434674fb9ab3976cf82612f77565b8073ffffffffffffffffffffffffffffffffffffffff167fc8f0ca04e3a4bee64fa8f12ab2c36bf665502f928567c2adfbbcc4ad796ed26960405160405180910390a250565b7f9f2df0fed2c77648de5860a4cc508cd0818c85b8b8a1ab4ceeef8d981c8956a681565b612f8082611265565b612f9181612f8c613516565b61397e565b612f9b8383613afc565b505050565b6000600160008473ffffffffffffffffffffffffffffffffffffffff1673ffffffffffffffffffffffffffffffffffffffff16815260200190815260200160002060008373ffffffffffffffffffffffffffffffffffffffff1673ffffffffffffffffffffffffffffffffffffffff16815260200190815260200160002054905092915050565b7f65d7a28e3265b37a6474929f336521b332c1681b933f6cb9f3376673440d862a81565b600073ffffffffffffffffffffffffffffffffffffffff163373ffffffffffffffffffffffffffffffffffffffff16141561308557600080fd5b60016007600083815260200190815260200160002060070160006101000a81548160ff02191690831515021790556130bc57600080fd5b6130c581610e27565b6130ce57600080fd5b60076000828152602001908152602001600020600a0160003373ffffffffffffffffffffffffffffffffffffffff1673ffffffffffffffffffffffffffffffffffffffff1681526020019081526020016000205482111561312e57600080fd5b6131948260076000848152602001908152602001600020600a0160003373ffffffffffffffffffffffffffffffffffffffff1673ffffffffffffffffffffffffffffffffffffffff1681526020019081526020016000205461396890919063ffffffff16565b60076000838152602001908152602001600020600a0160003373ffffffffffffffffffffffffffffffffffffffff1673ffffffffffffffffffffffffffffffffffffffff16815260200190815260200160002081905550613251826007600084815260200190815260200160002060080160003373ffffffffffffffffffffffffffffffffffffffff1673ffffffffffffffffffffffffffffffffffffffff16815260200190815260200160002054613fb890919063ffffffff16565b6007600083815260200190815260200160002060080160003373ffffffffffffffffffffffffffffffffffffffff1673ffffffffffffffffffffffffffffffffffffffff16815260200190815260200160002081905550600060076000838152602001908152602001600020600a0160003373ffffffffffffffffffffffffffffffffffffffff1673ffffffffffffffffffffffffffffffffffffffff1681526020019081526020016000205414156133715760006007600083815260200190815260200160002060090160003373ffffffffffffffffffffffffffffffffffffffff1673ffffffffffffffffffffffffffffffffffffffff16815260200190815260200160002060006101000a81548160ff0219169083151502179055505b61339782600860008481526020019081526020016000205461396890919063ffffffff16565b60086000838152602001908152602001600020819055505050565b60006133bd82611b0d565b6133c657600080fd5b6133e56007600084815260200190815260200160002060000154610e27565b9050919050565b6134167f65d7a28e3265b37a6474929f336521b332c1681b933f6cb9f3376673440d862a33611ca9565b61341f57600080fd5b61342881611b0d565b61343157600080fd5b60006007600083815260200190815260200160002060070160006101000a81548160ff02191690831515021790555050565b60096020528060005260406000206000915090505481565b505050565b6000818361348e9190615758565b905092915050565b600081836134a49190615789565b905092915050565b60007f01ffc9a7000000000000000000000000000000000000000000000000000000007bffffffffffffffffffffffffffffffffffffffffffffffffffffffff1916827bffffffffffffffffffffffffffffffffffffffffffffffffffffffff1916149050919050565b600033905090565b600073ffffffffffffffffffffffffffffffffffffffff168373ffffffffffffffffffffffffffffffffffffffff16141561358e576040517f08c379a00000000000000000000000000000000000000000000000000000000081526004016135859061551e565b60405180910390fd5b600073ffffffffffffffffffffffffffffffffffffffff168273ffffffffffffffffffffffffffffffffffffffff1614156135fe576040517f08c379a00000000000000000000000000000000000000000000000000000000081526004016135f59061535e565b60405180910390fd5b80600160008573ffffffffffffffffffffffffffffffffffffffff1673ffffffffffffffffffffffffffffffffffffffff16815260200190815260200160002060008473ffffffffffffffffffffffffffffffffffffffff1673ffffffffffffffffffffffffffffffffffffffff168152602001908152602001600020819055508173ffffffffffffffffffffffffffffffffffffffff168373ffffffffffffffffffffffffffffffffffffffff167f8c5be1e5ebec7d5bd14f71427d1e84f3dd0314c0f7b2291e5b200ac8c7c3b925836040516136dc91906155fe565b60405180910390a3505050565b600073ffffffffffffffffffffffffffffffffffffffff168373ffffffffffffffffffffffffffffffffffffffff161415613759576040517f08c379a0000000000000000000000000000000000000000000000000000000008152600401613750906154de565b60405180910390fd5b600073ffffffffffffffffffffffffffffffffffffffff168273ffffffffffffffffffffffffffffffffffffffff1614156137c9576040517f08c379a00000000000000000000000000000000000000000000000000000000081526004016137c0906152de565b60405180910390fd5b6137d4838383613dd4565b60008060008573ffffffffffffffffffffffffffffffffffffffff1673ffffffffffffffffffffffffffffffffffffffff1681526020019081526020016000205490508181101561385a576040517f08c379a00000000000000000000000000000000000000000000000000000000081526004016138519061537e565b60405180910390fd5b818161386691906157e3565b6000808673ffffffffffffffffffffffffffffffffffffffff1673ffffffffffffffffffffffffffffffffffffffff16815260200190815260200160002081905550816000808573ffffffffffffffffffffffffffffffffffffffff1673ffffffffffffffffffffffffffffffffffffffff16815260200190815260200160002060008282546138f69190615702565b925050819055508273ffffffffffffffffffffffffffffffffffffffff168473ffffffffffffffffffffffffffffffffffffffff167fddf252ad1be2c89b69c2b068fc378daa952ba7f163c4a11628f55a4df523b3ef8460405161395a91906155fe565b60405180910390a350505050565b6000818361397691906157e3565b905092915050565b6139888282611ca9565b613a17576139ad8173ffffffffffffffffffffffffffffffffffffffff166014614071565b6139bb8360001c6020614071565b6040516020016139cc9291906151e8565b6040516020818303038152906040526040517f08c379a0000000000000000000000000000000000000000000000000000000008152600401613a0e919061529c565b60405180910390fd5b5050565b613a258282611ca9565b613af85760016005600084815260200190815260200160002060000160008373ffffffffffffffffffffffffffffffffffffffff1673ffffffffffffffffffffffffffffffffffffffff16815260200190815260200160002060006101000a81548160ff021916908315150217905550613a9d613516565b73ffffffffffffffffffffffffffffffffffffffff168173ffffffffffffffffffffffffffffffffffffffff16837f2f8788117e7eff1d82e926ec794901d17c78024a50270940304540a733656f0d60405160405180910390a45b5050565b613b068282611ca9565b15613bda5760006005600084815260200190815260200160002060000160008373ffffffffffffffffffffffffffffffffffffffff1673ffffffffffffffffffffffffffffffffffffffff16815260200190815260200160002060006101000a81548160ff021916908315150217905550613b7f613516565b73ffffffffffffffffffffffffffffffffffffffff168173ffffffffffffffffffffffffffffffffffffffff16837ff6391f5c32d9c69d2a47ea670b442974b53935d1edc7fd64eb21e047a839171b60405160405180910390a45b5050565b613be66118a1565b613c25576040517f08c379a0000000000000000000000000000000000000000000000000000000008152600401613c1c906152fe565b60405180910390fd5b6000600660006101000a81548160ff0219169083151502179055507f5db9ee0a495bf2e6ff9c91a7834c1ba4fdd244a5e8aa4e537bd38aeae4b073aa613c69613516565b604051613c769190615222565b60405180910390a1565b600073ffffffffffffffffffffffffffffffffffffffff168273ffffffffffffffffffffffffffffffffffffffff161415613cf0576040517f08c379a0000000000000000000000000000000000000000000000000000000008152600401613ce7906155de565b60405180910390fd5b613cfc60008383613dd4565b8060026000828254613d0e9190615702565b92505081905550806000808473ffffffffffffffffffffffffffffffffffffffff1673ffffffffffffffffffffffffffffffffffffffff1681526020019081526020016000206000828254613d639190615702565b925050819055508173ffffffffffffffffffffffffffffffffffffffff16600073ffffffffffffffffffffffffffffffffffffffff167fddf252ad1be2c89b69c2b068fc378daa952ba7f163c4a11628f55a4df523b3ef83604051613dc891906155fe565b60405180910390a35050565b613ddf83838361347b565b505050565b600073ffffffffffffffffffffffffffffffffffffffff168273ffffffffffffffffffffffffffffffffffffffff161415613e54576040517f08c379a0000000000000000000000000000000000000000000000000000000008152600401613e4b906154be565b60405180910390fd5b613e6082600083613dd4565b60008060008473ffffffffffffffffffffffffffffffffffffffff1673ffffffffffffffffffffffffffffffffffffffff16815260200190815260200160002054905081811015613ee6576040517f08c379a0000000000000000000000000000000000000000000000000000000008152600401613edd9061531e565b60405180910390fd5b8181613ef291906157e3565b6000808573ffffffffffffffffffffffffffffffffffffffff1673ffffffffffffffffffffffffffffffffffffffff168152602001908152602001600020819055508160026000828254613f4691906157e3565b92505081905550600073ffffffffffffffffffffffffffffffffffffffff168373ffffffffffffffffffffffffffffffffffffffff167fddf252ad1be2c89b69c2b068fc378daa952ba7f163c4a11628f55a4df523b3ef84604051613fab91906155fe565b60405180910390a3505050565b60008183613fc69190615702565b905092915050565b613fd66118a1565b15614016576040517f08c379a000000000000000000000000000000000000000000000000000000000815260040161400d906153fe565b60405180910390fd5b6001600660006101000a81548160ff0219169083151502179055507f62e78cea01bee320cd4e420270b5ea74000d11b0c9f74754ebdbfc544b05a25861405a613516565b6040516140679190615222565b60405180910390a1565b6060600060028360026140849190615789565b61408e9190615702565b67ffffffffffffffff8111156140cd577f4e487b7100000000000000000000000000000000000000000000000000000000600052604160045260246000fd5b6040519080825280601f01601f1916602001820160405280156140ff5781602001600182028036833780820191505090505b5090507f30000000000000000000000000000000000000000000000000000000000000008160008151811061415d577f4e487b7100000000000000000000000000000000000000000000000000000000600052603260045260246000fd5b60200101907effffffffffffffffffffffffffffffffffffffffffffffffffffffffffffff1916908160001a9053507f7800000000000000000000000000000000000000000000000000000000000000816001815181106141e7577f4e487b7100000000000000000000000000000000000000000000000000000000600052603260045260246000fd5b60200101907effffffffffffffffffffffffffffffffffffffffffffffffffffffffffffff1916908160001a905350600060018460026142279190615789565b6142319190615702565b90505b600181111561431d577f3031323334353637383961626364656600000000000000000000000000000000600f861660108110614299577f4e487b7100000000000000000000000000000000000000000000000000000000600052603260045260246000fd5b1a60f81b8282815181106142d6577f4e487b7100000000000000000000000000000000000000000000000000000000600052603260045260246000fd5b60200101907effffffffffffffffffffffffffffffffffffffffffffffffffffffffffffff1916908160001a905350600485901c945080614316906158d5565b9050614234565b5060008414614361576040517f08c379a0000000000000000000000000000000000000000000000000000000008152600401614358906152be565b60405180910390fd5b8091505092915050565b60008135905061437a81615a18565b92915050565b60008135905061438f81615a2f565b92915050565b6000813590506143a481615a46565b92915050565b6000813590506143b981615a5d565b92915050565b6000813590506143ce81615a74565b92915050565b6000602082840312156143e657600080fd5b60006143f48482850161436b565b91505092915050565b6000806040838503121561441057600080fd5b600061441e8582860161436b565b925050602061442f8582860161436b565b9150509250929050565b60008060006060848603121561444e57600080fd5b600061445c8682870161436b565b935050602061446d8682870161436b565b925050604061447e868287016143bf565b9150509250925092565b6000806040838503121561449b57600080fd5b60006144a98582860161436b565b92505060206144ba858286016143bf565b9150509250929050565b600080600080600060a086880312156144dc57600080fd5b60006144ea88828901614380565b95505060206144fb888289016143bf565b945050604061450c888289016143bf565b935050606061451d888289016143bf565b925050608061452e888289016143bf565b9150509295509295909350565b60006020828403121561454d57600080fd5b600061455b84828501614395565b91505092915050565b6000806040838503121561457757600080fd5b600061458585828601614395565b92505060206145968582860161436b565b9150509250929050565b6000602082840312156145b257600080fd5b60006145c0848285016143aa565b91505092915050565b6000602082840312156145db57600080fd5b60006145e9848285016143bf565b91505092915050565b6000806040838503121561460557600080fd5b6000614613858286016143bf565b9250506020614624858286016143bf565b9150509250929050565b60008060006060848603121561464357600080fd5b6000614651868287016143bf565b9350506020614662868287016143bf565b9250506040614673868287016143bf565b9150509250925092565b61468681615817565b82525050565b61469581615829565b82525050565b6146a481615835565b82525050565b60006146b5826156db565b6146bf81856156e6565b93506146cf8185602086016158a2565b6146d881615a07565b840191505092915050565b60006146ee826156db565b6146f881856156f7565b93506147088185602086016158a2565b80840191505092915050565b60006147216020836156e6565b91507f537472696e67733a20686578206c656e67746820696e73756666696369656e746000830152602082019050919050565b60006147616023836156e6565b91507f45524332303a207472616e7366657220746f20746865207a65726f206164647260008301527f65737300000000000000000000000000000000000000000000000000000000006020830152604082019050919050565b60006147c76014836156e6565b91507f5061757361626c653a206e6f74207061757365640000000000000000000000006000830152602082019050919050565b60006148076022836156e6565b91507f45524332303a206275726e20616d6f756e7420657863656564732062616c616e60008301527f63650000000000000000000000000000000000000000000000000000000000006020830152604082019050919050565b600061486d6043836156e6565b91507f4d75737420686176652061207374616b65642062616c616e6365206f66206d6f60008301527f7265207468616e2031303030204d414920746f206265636f6d6520612073746160208301527f6b657200000000000000000000000000000000000000000000000000000000006040830152606082019050919050565b60006148f96022836156e6565b91507f45524332303a20617070726f766520746f20746865207a65726f20616464726560008301527f73730000000000000000000000000000000000000000000000000000000000006020830152604082019050919050565b600061495f6026836156e6565b91507f45524332303a207472616e7366657220616d6f756e742065786365656473206260008301527f616c616e636500000000000000000000000000000000000000000000000000006020830152604082019050919050565b60006149c56023836156e6565b91507f4d75737420776974686472617720616d6f756e742077697468696e2062616c6160008301527f6e636500000000000000000000000000000000000000000000000000000000006020830152604082019050919050565b6000614a2b6027836156e6565b91507f4164647265737320686173206e6f20766f74657320617661696c61626c65207460008301527f6f20636c61696d000000000000000000000000000000000000000000000000006020830152604082019050919050565b6000614a91602c836156e6565b91507f4d7573742068617665207374616b657220726f6c6520746f20706572666f726d60008301527f207468697320616374696f6e00000000000000000000000000000000000000006020830152604082019050919050565b6000614af76010836156e6565b91507f5061757361626c653a20706175736564000000000000000000000000000000006000830152602082019050919050565b6000614b37601c836156e6565b91507f4d757374206164642074696d652067726561746572207468616e2030000000006000830152602082019050919050565b6000614b776028836156e6565b91507f45524332303a207472616e7366657220616d6f756e742065786365656473206160008301527f6c6c6f77616e63650000000000000000000000000000000000000000000000006020830152604082019050919050565b6000614bdd6050836156e6565b91507f596f75206d757374206e6f742062652070617274696369706174696e6720696e60008301527f20616e7920766f746520696e206f7264657220746f207769746864726177206160208301527f6e79207374616b656420746f6b656e73000000000000000000000000000000006040830152606082019050919050565b6000614c696024836156e6565b91507f45524332303a206275726e20616d6f756e74206578636565647320616c6c6f7760008301527f616e6365000000000000000000000000000000000000000000000000000000006020830152604082019050919050565b6000614ccf6013836156e6565b91507f506f6c6c20646f6573206e6f74206578697374000000000000000000000000006000830152602082019050919050565b6000614d0f6021836156e6565b91507f45524332303a206275726e2066726f6d20746865207a65726f2061646472657360008301527f73000000000000000000000000000000000000000000000000000000000000006020830152604082019050919050565b6000614d756025836156e6565b91507f45524332303a207472616e736665722066726f6d20746865207a65726f20616460008301527f64726573730000000000000000000000000000000000000000000000000000006020830152604082019050919050565b6000614ddb603f836156e6565b91507f54686520616d6f756e74206f6620746f6b656e7320746f206265206275726e6560008301527f642f206d696e746564206d757374206265206c6172676572207468616e2030006020830152604082019050919050565b6000614e416024836156e6565b91507f45524332303a20617070726f76652066726f6d20746865207a65726f2061646460008301527f72657373000000000000000000000000000000000000000000000000000000006020830152604082019050919050565b6000614ea76017836156f7565b91507f416363657373436f6e74726f6c3a206163636f756e74200000000000000000006000830152601782019050919050565b6000614ee76047836156e6565b91507f4164647265737320686173206e6f20766f7465732063757272656e746c792c2060008301527f63616c6c2066756e6374696f6e20636c61696d566f746520746f20636c61696d60208301527f206120766f7465000000000000000000000000000000000000000000000000006040830152606082019050919050565b6000614f736018836156e6565b91507f596f752061726520616c72656164792061207374616b657200000000000000006000830152602082019050919050565b6000614fb3608b836156e6565b91507f412062616c616e6365206f6620686967686572207468616e203130303020697360008301527f20726571756972656420746f206d61696e7461696e20726f6c65206f6620737460208301527f616b65722c20696620796f75207769736820746f207265766f6b65207468652060408301527f726f6c65206f66207374616b65722c20757365207265766f6b655374616b657260608301527f28292066756e6374696f6e000000000000000000000000000000000000000000608083015260a082019050919050565b600061508b6025836156e6565b91507f45524332303a2064656372656173656420616c6c6f77616e63652062656c6f7760008301527f207a65726f0000000000000000000000000000000000000000000000000000006020830152604082019050919050565b60006150f16011836156f7565b91507f206973206d697373696e6720726f6c65200000000000000000000000000000006000830152601182019050919050565b6000615131602f836156e6565b91507f416363657373436f6e74726f6c3a2063616e206f6e6c792072656e6f756e636560008301527f20726f6c657320666f722073656c6600000000000000000000000000000000006020830152604082019050919050565b6000615197601f836156e6565b91507f45524332303a206d696e7420746f20746865207a65726f2061646472657373006000830152602082019050919050565b6151d38161588b565b82525050565b6151e281615895565b82525050565b60006151f382614e9a565b91506151ff82856146e3565b915061520a826150e4565b915061521682846146e3565b91508190509392505050565b6000602082019050615237600083018461467d565b92915050565b6000604082019050615252600083018561467d565b61525f60208301846151ca565b9392505050565b600060208201905061527b600083018461468c565b92915050565b6000602082019050615296600083018461469b565b92915050565b600060208201905081810360008301526152b681846146aa565b905092915050565b600060208201905081810360008301526152d781614714565b9050919050565b600060208201905081810360008301526152f781614754565b9050919050565b60006020820190508181036000830152615317816147ba565b9050919050565b60006020820190508181036000830152615337816147fa565b9050919050565b6000602082019050818103600083015261535781614860565b9050919050565b60006020820190508181036000830152615377816148ec565b9050919050565b6000602082019050818103600083015261539781614952565b9050919050565b600060208201905081810360008301526153b7816149b8565b9050919050565b600060208201905081810360008301526153d781614a1e565b9050919050565b600060208201905081810360008301526153f781614a84565b9050919050565b6000602082019050818103600083015261541781614aea565b9050919050565b6000602082019050818103600083015261543781614b2a565b9050919050565b6000602082019050818103600083015261545781614b6a565b9050919050565b6000602082019050818103600083015261547781614bd0565b9050919050565b6000602082019050818103600083015261549781614c5c565b9050919050565b600060208201905081810360008301526154b781614cc2565b9050919050565b600060208201905081810360008301526154d781614d02565b9050919050565b600060208201905081810360008301526154f781614d68565b9050919050565b6000602082019050818103600083015261551781614dce565b9050919050565b6000602082019050818103600083015261553781614e34565b9050919050565b6000602082019050818103600083015261555781614eda565b9050919050565b6000602082019050818103600083015261557781614f66565b9050919050565b6000602082019050818103600083015261559781614fa6565b9050919050565b600060208201905081810360008301526155b78161507e565b9050919050565b600060208201905081810360008301526155d781615124565b9050919050565b600060208201905081810360008301526155f78161518a565b9050919050565b600060208201905061561360008301846151ca565b92915050565b600060408201905061562e60008301856151ca565b61563b60208301846151ca565b9392505050565b600061010082019050615658600083018b6151ca565b615665602083018a6151ca565b615672604083018961468c565b61567f60608301886151ca565b61568c60808301876151ca565b61569960a08301866151ca565b6156a660c08301856151ca565b6156b360e083018461468c565b9998505050505050505050565b60006020820190506156d560008301846151d9565b92915050565b600081519050919050565b600082825260208201905092915050565b600081905092915050565b600061570d8261588b565b91506157188361588b565b9250827fffffffffffffffffffffffffffffffffffffffffffffffffffffffffffffffff0382111561574d5761574c61597a565b5b828201905092915050565b60006157638261588b565b915061576e8361588b565b92508261577e5761577d6159a9565b5b828204905092915050565b60006157948261588b565b915061579f8361588b565b9250817fffffffffffffffffffffffffffffffffffffffffffffffffffffffffffffffff04831182151516156157d8576157d761597a565b5b828202905092915050565b60006157ee8261588b565b91506157f98361588b565b92508282101561580c5761580b61597a565b5b828203905092915050565b60006158228261586b565b9050919050565b60008115159050919050565b6000819050919050565b60007fffffffff0000000000000000000000000000000000000000000000000000000082169050919050565b600073ffffffffffffffffffffffffffffffffffffffff82169050919050565b6000819050919050565b600060ff82169050919050565b60005b838110156158c05780820151818401526020810190506158a5565b838111156158cf576000848401525b50505050565b60006158e08261588b565b915060008214156158f4576158f361597a565b5b600182039050919050565b6000600282049050600182168061591757607f821691505b6020821081141561592b5761592a6159d8565b5b50919050565b600061593c8261588b565b91507fffffffffffffffffffffffffffffffffffffffffffffffffffffffffffffffff82141561596f5761596e61597a565b5b600182019050919050565b7f4e487b7100000000000000000000000000000000000000000000000000000000600052601160045260246000fd5b7f4e487b7100000000000000000000000000000000000000000000000000000000600052601260045260246000fd5b7f4e487b7100000000000000000000000000000000000000000000000000000000600052602260045260246000fd5b6000601f19601f8301169050919050565b615a2181615817565b8114615a2c57600080fd5b50565b615a3881615829565b8114615a4357600080fd5b50565b615a4f81615835565b8114615a5a57600080fd5b50565b615a668161583f565b8114615a7157600080fd5b50565b615a7d8161588b565b8114615a8857600080fd5b5056fea2646970667358221220547917f7d8fc55fed4ae3188ee7dc24469034437d0226d35d6d5ce9900c6ba2964736f6c63430008000033",
  "immutableReferences": {},
  "source": "// SPDX-License-Identifier: MIT\npragma solidity ^0.8.0;\nimport \"./MaiGeneration.sol\";\nimport \"@openzeppelin/contracts/utils/math/SafeMath.sol\";\n\ncontract HeyStake is Mai {\n    using SafeMath for uint256;\n\n    event _StakerGranted(address to);\n    event _StakerRoleRevoked(address account, uint256 amountReturned);\n    event _StakesDeposited(address account, uint256 amount);\n    event _StakesWithdrawn(address account, uint256 amount);\n\n    mapping(address => uint256) stakedBalance; // Maps user address to the total amount of staked tokens\n\n    /**\n    @dev Allows users to stake, adding their respective amount of tokens to the staked balance\n    @param amount Amount of tokens used in the stake pool\n    */\n\n    function stake(uint256 amount) payable public {\n        require(amount >= 1000, \"Must have a staked balance of more than 1000 MAI to become a staker\");\n        require(hasRole(STAKER_ROLE, msg.sender) == false, \"You are already a staker\");\n        transferFrom(msg.sender, stakingAddress, amount);\n        grantRole(STAKER_ROLE, msg.sender);\n        stakedBalance[msg.sender] = stakedBalance[msg.sender].add(amount);\n        emit _StakerGranted(msg.sender);\n    }\n\n    /**\n    @dev Withdraws tokens from the stake pool back to the users account, the user must not be part of any active polls\n    @param amount Amount of tokens the user wishes to withdraw\n    */\n\n    function withdraw(uint256 amount) payable public {\n        require(hasRole(STAKER_ROLE, msg.sender), \"Must have staker role to perform this action\");\n        require(amount <= stakedBalance[msg.sender], \"Must withdraw amount within balance\"); \n        require(stakedBalance[msg.sender].sub(amount) >= 1000, \"A balance of higher than 1000 is required to maintain role of staker, if you wish to revoke the role of staker, use revokeStaker() function\");\n        require(checkParticipation(msg.sender) == false, \"You must not be participating in any vote in order to withdraw any staked tokens\");\n        transfer(msg.sender, amount);\n        stakedBalance[msg.sender] = stakedBalance[msg.sender].sub(amount);\n        emit _StakesWithdrawn(msg.sender, amount);\n    }\n\n    /**\n    @dev Deposits tokens into the stake pool from the users account\n    @param amount Amount of tokens the user wishes to deposit\n    */\n\n    function deposit(uint256 amount) payable public {\n        require(hasRole(STAKER_ROLE, msg.sender), \"Must have staker role to perform this action\");\n        transferFrom(msg.sender, stakingAddress, amount);\n        stakedBalance[msg.sender] = stakedBalance[msg.sender].add(amount);\n        emit _StakesDeposited(msg.sender, amount);\n    }\n\n    /**\n    @dev Function for users to see the balance they currently have in the stake pool\n    */\n\n    function viewStakedBalance() view public returns (uint256 balance) {\n        require(hasRole(STAKER_ROLE, msg.sender), \"Must have staker role to perform this action\");\n        return (stakedBalance[msg.sender]);\n    }\n\n    /**\n    @dev Revokes their staker role and returns all their tokens back to the user\n    */\n    \n    function revokeStaker() public {\n        require(hasRole(STAKER_ROLE, msg.sender), \"Must have staker role to perform this action\");\n        revokeRole(STAKER_ROLE, msg.sender);\n        transfer(msg.sender, stakedBalance[msg.sender]);\n        stakedBalance[msg.sender] = 0;\n        emit _StakerRoleRevoked(msg.sender, stakedBalance[msg.sender]); \n    }\n}\n\n\n",
  "sourcePath": "/Users/colinlam/Desktop/code/HoHey/contracts/HoHeyStaking.sol",
  "compiler": {
    "name": "solc",
    "version": "0.8.0+commit.c7dfd78e.Emscripten.clang"
  },
  "schemaVersion": "3.4.1",
  "updatedAt": "2021-07-15T08:54:23.076Z",
  "devdoc": {
    "kind": "dev",
    "methods": {
      "addTime(uint256,uint256)": {
        "details": "Adds time to the commit duration of the poll",
        "params": {
          "pollID": "ID of the poll",
          "timeAdded": "Amount of time to be added to the poll"
        }
      },
      "allowance(address,address)": {
        "details": "See {IERC20-allowance}."
      },
      "approve(address,uint256)": {
        "details": "See {IERC20-approve}. Requirements: - `spender` cannot be the zero address."
      },
      "balanceOf(address)": {
        "details": "See {IERC20-balanceOf}."
      },
      "burn(uint256)": {
        "details": "Destroys `amount` tokens from the caller. See {ERC20-_burn}."
      },
      "burnFrom(address,uint256)": {
        "details": "Destroys `amount` tokens from `account`, deducting from the caller's allowance. See {ERC20-_burn} and {ERC20-allowance}. Requirements: - the caller must have allowance for ``accounts``'s tokens of at least `amount`."
      },
      "burnRewards(uint256)": {
        "details": "Burns the proposed amount of tokens after the poll has ended and passed",
        "params": {
          "pollID": "ID of the poll"
        }
      },
      "checkParticipation(address)": {
        "details": "Checks if the address of the voter has participated in any active poll",
        "params": {
          "voter": "Address of the voter"
        }
      },
      "claimVote(uint256)": {
        "details": "Claims votes from existing staked tokens and stores available votes at _votes",
        "params": {
          "pollID": "ID of vote"
        }
      },
      "decimals()": {
        "details": "Returns the number of decimals used to get its user representation. For example, if `decimals` equals `2`, a balance of `505` tokens should be displayed to a user as `5,05` (`505 / 10 ** 2`). Tokens usually opt for a value of 18, imitating the relationship between Ether and Wei. This is the value {ERC20} uses, unless this function is overridden; NOTE: This information is only used for _display_ purposes: it in no way affects any of the arithmetic of the contract, including {IERC20-balanceOf} and {IERC20-transfer}."
      },
      "decreaseAllowance(address,uint256)": {
        "details": "Atomically decreases the allowance granted to `spender` by the caller. This is an alternative to {approve} that can be used as a mitigation for problems described in {IERC20-approve}. Emits an {Approval} event indicating the updated allowance. Requirements: - `spender` cannot be the zero address. - `spender` must have allowance for the caller of at least `subtractedValue`."
      },
      "deposit(uint256)": {
        "details": "Deposits tokens into the stake pool from the users account",
        "params": {
          "amount": "Amount of tokens the user wishes to deposit"
        }
      },
      "endPoll(uint256)": {
        "details": "Ends the poll instantly if necessary",
        "params": {
          "pollID": "ID of the poll"
        }
      },
      "getRoleAdmin(bytes32)": {
        "details": "Returns the admin role that controls `role`. See {grantRole} and {revokeRole}. To change a role's admin, use {_setRoleAdmin}."
      },
      "grantRole(bytes32,address)": {
        "details": "Grants `role` to `account`. If `account` had not been already granted `role`, emits a {RoleGranted} event. Requirements: - the caller must have ``role``'s admin role."
      },
      "hasRole(bytes32,address)": {
        "details": "Returns `true` if `account` has been granted `role`."
      },
      "increaseAllowance(address,uint256)": {
        "details": "Atomically increases the allowance granted to `spender` by the caller. This is an alternative to {approve} that can be used as a mitigation for problems described in {IERC20-approve}. Emits an {Approval} event indicating the updated allowance. Requirements: - `spender` cannot be the zero address."
      },
      "isNotExpired(uint256)": {
        "details": "Checks if a date has expired or not",
        "params": {
          "_terminationDate": "The date for checking"
        }
      },
      "makeVote(uint256,uint256,uint256)": {
        "details": "Voters makes votes on corresponding polls, deducting their _votes and emitting _VoteMade event",
        "params": {
          "pollID": "ID of the poll",
          "side": "The side of the poll the user wants to support (1: for; 2: against)",
          "votesMade": "Amount of votes going to be made"
        }
      },
      "mintRewards(uint256)": {
        "details": "Mints the proposed amount of tokens after the poll has ended and passed",
        "params": {
          "pollID": "ID of the poll"
        }
      },
      "name()": {
        "details": "Returns the name of the token."
      },
      "numOfVotes(address,uint256)": {
        "details": "Returns number of votes available to users",
        "params": {
          "pollID": "ID of poll",
          "voter": "Address of requested voter"
        }
      },
      "paused()": {
        "details": "Returns true if the contract is paused, and false otherwise."
      },
      "pollEnded(uint256)": {
        "details": "Checks of poll has ended or not",
        "params": {
          "_pollID": "ID of the poll"
        }
      },
      "pollExists(uint256)": {
        "details": "Checks if poll exists and returns a boolean value",
        "params": {
          "_pollID": "ID of the poll"
        }
      },
      "quorumCalc(uint256)": {
        "details": "Calculates the percentage of voters that supports the proposal",
        "params": {
          "pollID": "ID of the poll"
        }
      },
      "renounceRole(bytes32,address)": {
        "details": "Revokes `role` from the calling account. Roles are often managed via {grantRole} and {revokeRole}: this function's purpose is to provide a mechanism for accounts to lose their privileges if they are compromised (such as when a trusted device is misplaced). If the calling account had been granted `role`, emits a {RoleRevoked} event. Requirements: - the caller must be `account`."
      },
      "results(uint256)": {
        "details": "Returns whether the poll/ proposal passed the voting",
        "params": {
          "pollID": "ID of the poll"
        }
      },
      "revokeRole(bytes32,address)": {
        "details": "Revokes `role` from `account`. If `account` had been granted `role`, emits a {RoleRevoked} event. Requirements: - the caller must have ``role``'s admin role."
      },
      "revokeStaker()": {
        "details": "Revokes their staker role and returns all their tokens back to the user"
      },
      "revokeVote(uint256,uint256)": {
        "details": "Revokes votes that are already made and returns the vote to msg.sender",
        "params": {
          "amount": "Amount of votes to be revoked",
          "pollID": "ID of poll"
        }
      },
      "stake(uint256)": {
        "details": "Allows users to stake, adding their respective amount of tokens to the staked balance",
        "params": {
          "amount": "Amount of tokens used in the stake pool"
        }
      },
      "startPoll(bool,uint256,uint256,uint256,uint256)": {
        "details": "Initiates poll and emits PollCreate event",
        "params": {
          "_commitDuration": "Length of the poll in seconds",
          "_option": "Type of poll, option 1 is for minting tokens, option 2 is for burning tokens ",
          "_quorumOption": "Users can decide if the winner is decided by the percentage majority out of 100 or whether the 'for' side has more votes than the 'against' side",
          "_voteAmount": "The amount of tokens minted/burned if poll is successful ",
          "_voteQuorum": "Assumes that the _quorumOption is false, passes in the percentage majority out of 100 that is required to win the vote"
        }
      },
      "supportsInterface(bytes4)": {
        "details": "See {IERC165-supportsInterface}."
      },
      "symbol()": {
        "details": "Returns the symbol of the token, usually a shorter version of the name."
      },
      "totalSupply()": {
        "details": "See {IERC20-totalSupply}."
      },
      "transfer(address,uint256)": {
        "details": "a random transfer function for no apparent reason"
      },
      "transferFrom(address,address,uint256)": {
        "details": "See {IERC20-transferFrom}. Emits an {Approval} event indicating the updated allowance. This is not required by the EIP. See the note at the beginning of {ERC20}. Requirements: - `sender` and `recipient` cannot be the zero address. - `sender` must have a balance of at least `amount`. - the caller must have allowance for ``sender``'s tokens of at least `amount`."
      },
      "viewStakedBalance()": {
        "details": "Function for users to see the balance they currently have in the stake pool"
      },
      "voterAllocation(address)": {
        "details": "Allocates voter role to stakers and emits event",
        "params": {
          "voter": "address of staker"
        }
      },
      "voterRevokation(address)": {
        "details": "Function that takes away voter role from addresses when necessary",
        "params": {
          "voter": "Voter that is going to get their role revoked"
        }
      },
      "withdraw(uint256)": {
        "details": "Withdraws tokens from the stake pool back to the users account, the user must not be part of any active polls",
        "params": {
          "amount": "Amount of tokens the user wishes to withdraw"
        }
      }
    },
    "version": 1
  },
  "userdoc": {
    "kind": "user",
    "methods": {},
    "version": 1
  }
}