{
  "contractName": "HeyStake",
  "abi": [
    {
      "anonymous": false,
      "inputs": [
        {
          "indexed": true,
          "internalType": "address",
          "name": "owner",
          "type": "address"
        },
        {
          "indexed": true,
          "internalType": "address",
          "name": "spender",
          "type": "address"
        },
        {
          "indexed": false,
          "internalType": "uint256",
          "name": "value",
          "type": "uint256"
        }
      ],
      "name": "Approval",
      "type": "event"
    },
    {
      "anonymous": false,
      "inputs": [
        {
          "indexed": false,
          "internalType": "address",
          "name": "account",
          "type": "address"
        }
      ],
      "name": "Paused",
      "type": "event"
    },
    {
      "anonymous": false,
      "inputs": [
        {
          "indexed": true,
          "internalType": "bytes32",
          "name": "role",
          "type": "bytes32"
        },
        {
          "indexed": true,
          "internalType": "bytes32",
          "name": "previousAdminRole",
          "type": "bytes32"
        },
        {
          "indexed": true,
          "internalType": "bytes32",
          "name": "newAdminRole",
          "type": "bytes32"
        }
      ],
      "name": "RoleAdminChanged",
      "type": "event"
    },
    {
      "anonymous": false,
      "inputs": [
        {
          "indexed": true,
          "internalType": "bytes32",
          "name": "role",
          "type": "bytes32"
        },
        {
          "indexed": true,
          "internalType": "address",
          "name": "account",
          "type": "address"
        },
        {
          "indexed": true,
          "internalType": "address",
          "name": "sender",
          "type": "address"
        }
      ],
      "name": "RoleGranted",
      "type": "event"
    },
    {
      "anonymous": false,
      "inputs": [
        {
          "indexed": true,
          "internalType": "bytes32",
          "name": "role",
          "type": "bytes32"
        },
        {
          "indexed": true,
          "internalType": "address",
          "name": "account",
          "type": "address"
        },
        {
          "indexed": true,
          "internalType": "address",
          "name": "sender",
          "type": "address"
        }
      ],
      "name": "RoleRevoked",
      "type": "event"
    },
    {
      "anonymous": false,
      "inputs": [
        {
          "indexed": true,
          "internalType": "address",
          "name": "from",
          "type": "address"
        },
        {
          "indexed": true,
          "internalType": "address",
          "name": "to",
          "type": "address"
        },
        {
          "indexed": false,
          "internalType": "uint256",
          "name": "value",
          "type": "uint256"
        }
      ],
      "name": "Transfer",
      "type": "event"
    },
    {
      "anonymous": false,
      "inputs": [
        {
          "indexed": false,
          "internalType": "address",
          "name": "account",
          "type": "address"
        }
      ],
      "name": "Unpaused",
      "type": "event"
    },
    {
      "anonymous": false,
      "inputs": [
        {
          "indexed": false,
          "internalType": "uint256",
          "name": "voteAmount",
          "type": "uint256"
        },
        {
          "indexed": false,
          "internalType": "uint256",
          "name": "commitEndDate",
          "type": "uint256"
        },
        {
          "indexed": true,
          "internalType": "uint256",
          "name": "pollID",
          "type": "uint256"
        },
        {
          "indexed": true,
          "internalType": "address",
          "name": "creator",
          "type": "address"
        }
      ],
      "name": "_PollCreated",
      "type": "event"
    },
    {
      "anonymous": false,
      "inputs": [
        {
          "indexed": false,
          "internalType": "address",
          "name": "_to",
          "type": "address"
        }
      ],
      "name": "_StakerGranted",
      "type": "event"
    },
    {
      "anonymous": false,
      "inputs": [
        {
          "indexed": false,
          "internalType": "address",
          "name": "_account",
          "type": "address"
        },
        {
          "indexed": false,
          "internalType": "uint256",
          "name": "_amountReturned",
          "type": "uint256"
        }
      ],
      "name": "_StakerRoleRevoked",
      "type": "event"
    },
    {
      "anonymous": false,
      "inputs": [
        {
          "indexed": false,
          "internalType": "address",
          "name": "_account",
          "type": "address"
        },
        {
          "indexed": false,
          "internalType": "uint256",
          "name": "_amount",
          "type": "uint256"
        }
      ],
      "name": "_StakesDeposited",
      "type": "event"
    },
    {
      "anonymous": false,
      "inputs": [
        {
          "indexed": false,
          "internalType": "address",
          "name": "_account",
          "type": "address"
        },
        {
          "indexed": false,
          "internalType": "uint256",
          "name": "_amount",
          "type": "uint256"
        }
      ],
      "name": "_StakesWithdrawn",
      "type": "event"
    },
    {
      "anonymous": false,
      "inputs": [
        {
          "indexed": true,
          "internalType": "uint256",
          "name": "pollID",
          "type": "uint256"
        },
        {
          "indexed": false,
          "internalType": "uint256",
          "name": "votes",
          "type": "uint256"
        },
        {
          "indexed": true,
          "internalType": "address",
          "name": "voter",
          "type": "address"
        }
      ],
      "name": "_VoteMade",
      "type": "event"
    },
    {
      "anonymous": false,
      "inputs": [
        {
          "indexed": true,
          "internalType": "address",
          "name": "voter",
          "type": "address"
        }
      ],
      "name": "_VotingRightsGranted",
      "type": "event"
    },
    {
      "anonymous": false,
      "inputs": [
        {
          "indexed": true,
          "internalType": "address",
          "name": "voter",
          "type": "address"
        }
      ],
      "name": "_VotingRightsRevoked",
      "type": "event"
    },
    {
      "anonymous": false,
      "inputs": [
        {
          "indexed": false,
          "internalType": "uint256",
          "name": "amountMinted",
          "type": "uint256"
        },
        {
          "indexed": false,
          "internalType": "uint256",
          "name": "pollID",
          "type": "uint256"
        }
      ],
      "name": "_resultsGenerated",
      "type": "event"
    },
    {
      "inputs": [],
      "name": "DEFAULT_ADMIN_ROLE",
      "outputs": [
        {
          "internalType": "bytes32",
          "name": "",
          "type": "bytes32"
        }
      ],
      "stateMutability": "view",
      "type": "function"
    },
    {
      "inputs": [],
      "name": "MINTER_ROLE",
      "outputs": [
        {
          "internalType": "bytes32",
          "name": "",
          "type": "bytes32"
        }
      ],
      "stateMutability": "view",
      "type": "function"
    },
    {
      "inputs": [],
      "name": "PAUSER_ROLE",
      "outputs": [
        {
          "internalType": "bytes32",
          "name": "",
          "type": "bytes32"
        }
      ],
      "stateMutability": "view",
      "type": "function"
    },
    {
      "inputs": [],
      "name": "STAKER_ROLE",
      "outputs": [
        {
          "internalType": "bytes32",
          "name": "",
          "type": "bytes32"
        }
      ],
      "stateMutability": "view",
      "type": "function"
    },
    {
      "inputs": [],
      "name": "VOTER_ROLE",
      "outputs": [
        {
          "internalType": "bytes32",
          "name": "",
          "type": "bytes32"
        }
      ],
      "stateMutability": "view",
      "type": "function"
    },
    {
      "inputs": [
        {
          "internalType": "uint256",
          "name": "pollID",
          "type": "uint256"
        },
        {
          "internalType": "uint256",
          "name": "timeAdded",
          "type": "uint256"
        }
      ],
      "name": "addTime",
      "outputs": [],
      "stateMutability": "nonpayable",
      "type": "function"
    },
    {
      "inputs": [
        {
          "internalType": "address",
          "name": "owner",
          "type": "address"
        },
        {
          "internalType": "address",
          "name": "spender",
          "type": "address"
        }
      ],
      "name": "allowance",
      "outputs": [
        {
          "internalType": "uint256",
          "name": "",
          "type": "uint256"
        }
      ],
      "stateMutability": "view",
      "type": "function"
    },
    {
      "inputs": [
        {
          "internalType": "address",
          "name": "spender",
          "type": "address"
        },
        {
          "internalType": "uint256",
          "name": "amount",
          "type": "uint256"
        }
      ],
      "name": "approve",
      "outputs": [
        {
          "internalType": "bool",
          "name": "",
          "type": "bool"
        }
      ],
      "stateMutability": "nonpayable",
      "type": "function"
    },
    {
      "inputs": [
        {
          "internalType": "address",
          "name": "account",
          "type": "address"
        }
      ],
      "name": "balanceOf",
      "outputs": [
        {
          "internalType": "uint256",
          "name": "",
          "type": "uint256"
        }
      ],
      "stateMutability": "view",
      "type": "function"
    },
    {
      "inputs": [
        {
          "internalType": "uint256",
          "name": "amount",
          "type": "uint256"
        }
      ],
      "name": "burn",
      "outputs": [],
      "stateMutability": "nonpayable",
      "type": "function"
    },
    {
      "inputs": [
        {
          "internalType": "address",
          "name": "account",
          "type": "address"
        },
        {
          "internalType": "uint256",
          "name": "amount",
          "type": "uint256"
        }
      ],
      "name": "burnFrom",
      "outputs": [],
      "stateMutability": "nonpayable",
      "type": "function"
    },
    {
      "inputs": [
        {
          "internalType": "uint256",
          "name": "pollID",
          "type": "uint256"
        }
      ],
      "name": "burnRewards",
      "outputs": [],
      "stateMutability": "payable",
      "type": "function"
    },
    {
      "inputs": [
        {
          "internalType": "uint256",
          "name": "pollID",
          "type": "uint256"
        }
      ],
      "name": "claimVote",
      "outputs": [],
      "stateMutability": "nonpayable",
      "type": "function"
    },
    {
      "inputs": [],
      "name": "decimals",
      "outputs": [
        {
          "internalType": "uint8",
          "name": "",
          "type": "uint8"
        }
      ],
      "stateMutability": "view",
      "type": "function"
    },
    {
      "inputs": [
        {
          "internalType": "address",
          "name": "spender",
          "type": "address"
        },
        {
          "internalType": "uint256",
          "name": "subtractedValue",
          "type": "uint256"
        }
      ],
      "name": "decreaseAllowance",
      "outputs": [
        {
          "internalType": "bool",
          "name": "",
          "type": "bool"
        }
      ],
      "stateMutability": "nonpayable",
      "type": "function"
    },
    {
      "inputs": [
        {
          "internalType": "uint256",
          "name": "pollID",
          "type": "uint256"
        }
      ],
      "name": "endPoll",
      "outputs": [],
      "stateMutability": "nonpayable",
      "type": "function"
    },
    {
      "inputs": [
        {
          "internalType": "bytes32",
          "name": "role",
          "type": "bytes32"
        }
      ],
      "name": "getRoleAdmin",
      "outputs": [
        {
          "internalType": "bytes32",
          "name": "",
          "type": "bytes32"
        }
      ],
      "stateMutability": "view",
      "type": "function"
    },
    {
      "inputs": [
        {
          "internalType": "bytes32",
          "name": "role",
          "type": "bytes32"
        },
        {
          "internalType": "address",
          "name": "account",
          "type": "address"
        }
      ],
      "name": "grantRole",
      "outputs": [],
      "stateMutability": "nonpayable",
      "type": "function"
    },
    {
      "inputs": [
        {
          "internalType": "bytes32",
          "name": "role",
          "type": "bytes32"
        },
        {
          "internalType": "address",
          "name": "account",
          "type": "address"
        }
      ],
      "name": "hasRole",
      "outputs": [
        {
          "internalType": "bool",
          "name": "",
          "type": "bool"
        }
      ],
      "stateMutability": "view",
      "type": "function"
    },
    {
      "inputs": [
        {
          "internalType": "address",
          "name": "spender",
          "type": "address"
        },
        {
          "internalType": "uint256",
          "name": "addedValue",
          "type": "uint256"
        }
      ],
      "name": "increaseAllowance",
      "outputs": [
        {
          "internalType": "bool",
          "name": "",
          "type": "bool"
        }
      ],
      "stateMutability": "nonpayable",
      "type": "function"
    },
    {
      "inputs": [
        {
          "internalType": "uint256",
          "name": "_terminationDate",
          "type": "uint256"
        }
      ],
      "name": "isNotExpired",
      "outputs": [
        {
          "internalType": "bool",
          "name": "expired",
          "type": "bool"
        }
      ],
      "stateMutability": "view",
      "type": "function"
    },
    {
      "inputs": [
        {
          "internalType": "uint256",
          "name": "votesMade",
          "type": "uint256"
        },
        {
          "internalType": "uint256",
          "name": "pollID",
          "type": "uint256"
        },
        {
          "internalType": "uint256",
          "name": "side",
          "type": "uint256"
        }
      ],
      "name": "makeVote",
      "outputs": [],
      "stateMutability": "nonpayable",
      "type": "function"
    },
    {
      "inputs": [
        {
          "internalType": "address",
          "name": "to",
          "type": "address"
        },
        {
          "internalType": "uint256",
          "name": "amount",
          "type": "uint256"
        }
      ],
      "name": "mint",
      "outputs": [],
      "stateMutability": "nonpayable",
      "type": "function"
    },
    {
      "inputs": [
        {
          "internalType": "uint256",
          "name": "pollID",
          "type": "uint256"
        }
      ],
      "name": "mintRewards",
      "outputs": [],
      "stateMutability": "payable",
      "type": "function"
    },
    {
      "inputs": [],
      "name": "name",
      "outputs": [
        {
          "internalType": "string",
          "name": "",
          "type": "string"
        }
      ],
      "stateMutability": "view",
      "type": "function"
    },
    {
      "inputs": [
        {
          "internalType": "address",
          "name": "voter",
          "type": "address"
        },
        {
          "internalType": "uint256",
          "name": "pollID",
          "type": "uint256"
        }
      ],
      "name": "numOfVotes",
      "outputs": [
        {
          "internalType": "uint256",
          "name": "votes",
          "type": "uint256"
        }
      ],
      "stateMutability": "view",
      "type": "function"
    },
    {
      "inputs": [],
      "name": "pause",
      "outputs": [],
      "stateMutability": "nonpayable",
      "type": "function"
    },
    {
      "inputs": [],
      "name": "paused",
      "outputs": [
        {
          "internalType": "bool",
          "name": "",
          "type": "bool"
        }
      ],
      "stateMutability": "view",
      "type": "function"
    },
    {
      "inputs": [
        {
          "internalType": "uint256",
          "name": "_pollID",
          "type": "uint256"
        }
      ],
      "name": "pollEnded",
      "outputs": [
        {
          "internalType": "bool",
          "name": "ended",
          "type": "bool"
        }
      ],
      "stateMutability": "view",
      "type": "function"
    },
    {
      "inputs": [
        {
          "internalType": "uint256",
          "name": "_pollID",
          "type": "uint256"
        }
      ],
      "name": "pollExists",
      "outputs": [
        {
          "internalType": "bool",
          "name": "exists",
          "type": "bool"
        }
      ],
      "stateMutability": "view",
      "type": "function"
    },
    {
      "inputs": [
        {
          "internalType": "uint256",
          "name": "",
          "type": "uint256"
        }
      ],
      "name": "pollMapping",
      "outputs": [
        {
          "internalType": "uint256",
          "name": "commitEndDate",
          "type": "uint256"
        },
        {
          "internalType": "uint256",
          "name": "voteAmount",
          "type": "uint256"
        },
        {
          "internalType": "bool",
          "name": "quorumOption",
          "type": "bool"
        },
        {
          "internalType": "uint256",
          "name": "voteQuorum",
          "type": "uint256"
        },
        {
          "internalType": "uint256",
          "name": "votesFor",
          "type": "uint256"
        },
        {
          "internalType": "uint256",
          "name": "votesAgainst",
          "type": "uint256"
        },
        {
          "internalType": "uint256",
          "name": "option",
          "type": "uint256"
        },
        {
          "internalType": "bool",
          "name": "ongoing",
          "type": "bool"
        }
      ],
      "stateMutability": "view",
      "type": "function"
    },
    {
      "inputs": [
        {
          "internalType": "uint256",
          "name": "pollID",
          "type": "uint256"
        }
      ],
      "name": "quorumCalc",
      "outputs": [
        {
          "internalType": "uint256",
          "name": "result",
          "type": "uint256"
        }
      ],
      "stateMutability": "view",
      "type": "function"
    },
    {
      "inputs": [
        {
          "internalType": "bytes32",
          "name": "role",
          "type": "bytes32"
        },
        {
          "internalType": "address",
          "name": "account",
          "type": "address"
        }
      ],
      "name": "renounceRole",
      "outputs": [],
      "stateMutability": "nonpayable",
      "type": "function"
    },
    {
      "inputs": [
        {
          "internalType": "uint256",
          "name": "pollID",
          "type": "uint256"
        }
      ],
      "name": "results",
      "outputs": [
        {
          "internalType": "bool",
          "name": "passed",
          "type": "bool"
        }
      ],
      "stateMutability": "nonpayable",
      "type": "function"
    },
    {
      "inputs": [
        {
          "internalType": "bytes32",
          "name": "role",
          "type": "bytes32"
        },
        {
          "internalType": "address",
          "name": "account",
          "type": "address"
        }
      ],
      "name": "revokeRole",
      "outputs": [],
      "stateMutability": "nonpayable",
      "type": "function"
    },
    {
      "inputs": [
        {
          "internalType": "uint256",
          "name": "amount",
          "type": "uint256"
        },
        {
          "internalType": "uint256",
          "name": "pollID",
          "type": "uint256"
        }
      ],
      "name": "revokeVote",
      "outputs": [],
      "stateMutability": "nonpayable",
      "type": "function"
    },
    {
      "inputs": [
        {
          "internalType": "bool",
          "name": "_quorumOption",
          "type": "bool"
        },
        {
          "internalType": "uint256",
          "name": "_voteQuorum",
          "type": "uint256"
        },
        {
          "internalType": "uint256",
          "name": "_voteAmount",
          "type": "uint256"
        },
        {
          "internalType": "uint256",
          "name": "_commitDuration",
          "type": "uint256"
        },
        {
          "internalType": "uint256",
          "name": "_option",
          "type": "uint256"
        }
      ],
      "name": "startPoll",
      "outputs": [
        {
          "internalType": "uint256",
          "name": "pollID",
          "type": "uint256"
        }
      ],
      "stateMutability": "nonpayable",
      "type": "function"
    },
    {
      "inputs": [
        {
          "internalType": "bytes4",
          "name": "interfaceId",
          "type": "bytes4"
        }
      ],
      "name": "supportsInterface",
      "outputs": [
        {
          "internalType": "bool",
          "name": "",
          "type": "bool"
        }
      ],
      "stateMutability": "view",
      "type": "function"
    },
    {
      "inputs": [],
      "name": "symbol",
      "outputs": [
        {
          "internalType": "string",
          "name": "",
          "type": "string"
        }
      ],
      "stateMutability": "view",
      "type": "function"
    },
    {
      "inputs": [],
      "name": "totalSupply",
      "outputs": [
        {
          "internalType": "uint256",
          "name": "",
          "type": "uint256"
        }
      ],
      "stateMutability": "view",
      "type": "function"
    },
    {
      "inputs": [
        {
          "internalType": "uint256",
          "name": "",
          "type": "uint256"
        }
      ],
      "name": "totalVotes",
      "outputs": [
        {
          "internalType": "uint256",
          "name": "",
          "type": "uint256"
        }
      ],
      "stateMutability": "view",
      "type": "function"
    },
    {
      "inputs": [
        {
          "internalType": "address",
          "name": "recipient",
          "type": "address"
        },
        {
          "internalType": "uint256",
          "name": "amount",
          "type": "uint256"
        }
      ],
      "name": "transfer",
      "outputs": [
        {
          "internalType": "bool",
          "name": "",
          "type": "bool"
        }
      ],
      "stateMutability": "nonpayable",
      "type": "function"
    },
    {
      "inputs": [
        {
          "internalType": "address",
          "name": "sender",
          "type": "address"
        },
        {
          "internalType": "address",
          "name": "recipient",
          "type": "address"
        },
        {
          "internalType": "uint256",
          "name": "amount",
          "type": "uint256"
        }
      ],
      "name": "transferFrom",
      "outputs": [
        {
          "internalType": "bool",
          "name": "",
          "type": "bool"
        }
      ],
      "stateMutability": "nonpayable",
      "type": "function"
    },
    {
      "inputs": [],
      "name": "unpause",
      "outputs": [],
      "stateMutability": "nonpayable",
      "type": "function"
    },
    {
      "inputs": [
        {
          "internalType": "address",
          "name": "voter",
          "type": "address"
        }
      ],
      "name": "voterAllocation",
      "outputs": [],
      "stateMutability": "nonpayable",
      "type": "function"
    },
    {
      "inputs": [
        {
          "internalType": "address",
          "name": "voter",
          "type": "address"
        }
      ],
      "name": "voterRevokation",
      "outputs": [],
      "stateMutability": "nonpayable",
      "type": "function"
    },
    {
      "inputs": [
        {
          "internalType": "uint256",
          "name": "pollID",
          "type": "uint256"
        }
      ],
      "name": "whenTie",
      "outputs": [
        {
          "internalType": "string",
          "name": "tied",
          "type": "string"
        }
      ],
      "stateMutability": "view",
      "type": "function"
    },
    {
      "inputs": [
        {
          "internalType": "uint256",
          "name": "amount",
          "type": "uint256"
        }
      ],
      "name": "stake",
      "outputs": [],
      "stateMutability": "payable",
      "type": "function"
    },
    {
      "inputs": [
        {
          "internalType": "uint256",
          "name": "amount",
          "type": "uint256"
        }
      ],
      "name": "withdraw",
      "outputs": [],
      "stateMutability": "payable",
      "type": "function"
    },
    {
      "inputs": [
        {
          "internalType": "uint256",
          "name": "amount",
          "type": "uint256"
        }
      ],
      "name": "deposit",
      "outputs": [],
      "stateMutability": "payable",
      "type": "function"
    },
    {
      "inputs": [],
      "name": "viewStakedBalance",
      "outputs": [
        {
          "internalType": "uint256",
          "name": "balance",
          "type": "uint256"
        }
      ],
      "stateMutability": "view",
      "type": "function"
    },
    {
      "inputs": [],
      "name": "revokeStaker",
      "outputs": [],
      "stateMutability": "nonpayable",
      "type": "function"
    }
  ],
  "bytecode": "0x608060405260006009553480156200001657600080fd5b506040518060400160405280600381526020017f4d616900000000000000000000000000000000000000000000000000000000008152506040518060400160405280600381526020017f4d4149000000000000000000000000000000000000000000000000000000000081525081600390805190602001906200009b92919062000536565b508060049080519060200190620000b492919062000536565b5050506000600660006101000a81548160ff0219169083151502179055506200011033620000e7620001c160201b60201c565b600a620000f59190620007a5565b6103e8620001049190620008e2565b620001ca60201b60201c565b620001256000801b336200032f60201b60201c565b620001577f9f2df0fed2c77648de5860a4cc508cd0818c85b8b8a1ab4ceeef8d981c8956a6336200032f60201b60201c565b620001897f72c3eec1760bf69946625c2d4fb8e44e2c806345041960b434674fb9ab3976cf336200032f60201b60201c565b620001bb7fb9e206fa2af7ee1331b72ce58b6d938ac810ce9b5cdb65d35ab723fd67badf9e336200032f60201b60201c565b620009fb565b60006012905090565b600073ffffffffffffffffffffffffffffffffffffffff168273ffffffffffffffffffffffffffffffffffffffff1614156200023d576040517f08c379a000000000000000000000000000000000000000000000000000000000815260040162000234906200069d565b60405180910390fd5b62000251600083836200034560201b60201c565b8060026000828254620002659190620006ed565b92505081905550806000808473ffffffffffffffffffffffffffffffffffffffff1673ffffffffffffffffffffffffffffffffffffffff1681526020019081526020016000206000828254620002bc9190620006ed565b925050819055508173ffffffffffffffffffffffffffffffffffffffff16600073ffffffffffffffffffffffffffffffffffffffff167fddf252ad1be2c89b69c2b068fc378daa952ba7f163c4a11628f55a4df523b3ef83604051620003239190620006bf565b60405180910390a35050565b620003418282620003b560201b60201c565b5050565b62000355620004a760201b60201c565b1562000398576040517f08c379a00000000000000000000000000000000000000000000000000000000081526004016200038f906200067b565b60405180910390fd5b620003b0838383620004be60201b6200349e1760201c565b505050565b620003c78282620004c360201b60201c565b620004a35760016005600084815260200190815260200160002060000160008373ffffffffffffffffffffffffffffffffffffffff1673ffffffffffffffffffffffffffffffffffffffff16815260200190815260200160002060006101000a81548160ff021916908315150217905550620004486200052e60201b60201c565b73ffffffffffffffffffffffffffffffffffffffff168173ffffffffffffffffffffffffffffffffffffffff16837f2f8788117e7eff1d82e926ec794901d17c78024a50270940304540a733656f0d60405160405180910390a45b5050565b6000600660009054906101000a900460ff16905090565b505050565b60006005600084815260200190815260200160002060000160008373ffffffffffffffffffffffffffffffffffffffff1673ffffffffffffffffffffffffffffffffffffffff16815260200190815260200160002060009054906101000a900460ff16905092915050565b600033905090565b82805462000544906200095a565b90600052602060002090601f016020900481019282620005685760008555620005b4565b82601f106200058357805160ff1916838001178555620005b4565b82800160010185558215620005b4579182015b82811115620005b357825182559160200191906001019062000596565b5b509050620005c39190620005c7565b5090565b5b80821115620005e2576000816000905550600101620005c8565b5090565b6000620005f5601083620006dc565b91507f5061757361626c653a20706175736564000000000000000000000000000000006000830152602082019050919050565b600062000637601f83620006dc565b91507f45524332303a206d696e7420746f20746865207a65726f2061646472657373006000830152602082019050919050565b620006758162000943565b82525050565b600060208201905081810360008301526200069681620005e6565b9050919050565b60006020820190508181036000830152620006b88162000628565b9050919050565b6000602082019050620006d660008301846200066a565b92915050565b600082825260208201905092915050565b6000620006fa8262000943565b9150620007078362000943565b9250827fffffffffffffffffffffffffffffffffffffffffffffffffffffffffffffffff038211156200073f576200073e62000990565b5b828201905092915050565b6000808291508390505b60018511156200079c5780860481111562000774576200077362000990565b5b6001851615620007845780820291505b80810290506200079485620009ee565b945062000754565b94509492505050565b6000620007b28262000943565b9150620007bf836200094d565b9250620007ee7fffffffffffffffffffffffffffffffffffffffffffffffffffffffffffffffff8484620007f6565b905092915050565b600082620008085760019050620008db565b81620008185760009050620008db565b81600181146200083157600281146200083c5762000872565b6001915050620008db565b60ff84111562000851576200085062000990565b5b8360020a9150848211156200086b576200086a62000990565b5b50620008db565b5060208310610133831016604e8410600b8410161715620008ac5782820a905083811115620008a657620008a562000990565b5b620008db565b620008bb84848460016200074a565b92509050818404811115620008d557620008d462000990565b5b81810290505b9392505050565b6000620008ef8262000943565b9150620008fc8362000943565b9250817fffffffffffffffffffffffffffffffffffffffffffffffffffffffffffffffff048311821515161562000938576200093762000990565b5b828202905092915050565b6000819050919050565b600060ff82169050919050565b600060028204905060018216806200097357607f821691505b602082108114156200098a5762000989620009bf565b5b50919050565b7f4e487b7100000000000000000000000000000000000000000000000000000000600052601160045260246000fd5b7f4e487b7100000000000000000000000000000000000000000000000000000000600052602260045260246000fd5b60008160011c9050919050565b615ae38062000a0b6000396000f3fe6080604052600436106102fe5760003560e01c80638456cb5911610190578063a94015c8116100dc578063d539139311610095578063e63ab1e91161006f578063e63ab1e914610bd3578063edf949e814610bfe578063ee68483014610c27578063f43b877814610c64576102fe565b8063d539139314610b42578063d547741f14610b6d578063dd62ed3e14610b96576102fe565b8063a94015c814610a55578063ae47785b14610a80578063b687bcc014610a97578063b6b55f2514610ac0578063ca5f0b9914610adc578063cd8cd04814610b19576102fe565b806395d89b4111610149578063a3a4333b11610123578063a3a4333b14610996578063a457c2d7146109bf578063a694fc3a146109fc578063a9059cbb14610a18576102fe565b806395d89b411461091757806398dcad6114610942578063a217fddf1461096b576102fe565b80638456cb591461080257806385f8db101461081957806388d21ff31461084457806389ec0257146108815780638c4055031461089d57806391d14854146108da576102fe565b806336568abe1161024f57806342966c681161020857806370a08231116101e257806370a082311461073657806378de123914610773578063791581c6146107b057806379cc6790146107d9576102fe565b806342966c68146106c65780634828ced9146106ef5780635c975abb1461070b576102fe565b806336568abe146105b1578063372c48e1146105da5780633780b3ed1461061e57806339509351146106495780633f4ba83a1461068657806340c10f191461069d576102fe565b806319e6e158116102bc578063248a9ca311610296578063248a9ca3146105045780632e1a7d4d146105415780632f2ff15d1461055d578063313ce56714610586576102fe565b806319e6e1581461044d5780631b0c27da1461048a57806323b872dd146104c7576102fe565b8062f027201461030357806301ffc9a71461034057806303d29a5b1461037d57806306fdde03146103ba578063095ea7b3146103e557806318160ddd14610422575b600080fd5b34801561030f57600080fd5b5061032a60048036038101906103259190614634565b610c8d565b6040516103379190615669565b60405180910390f35b34801561034c57600080fd5b506103676004803603810190610362919061460b565b610d55565b60405161037491906152d1565b60405180910390f35b34801561038957600080fd5b506103a4600480360381019061039f9190614634565b610dcf565b6040516103b191906152d1565b60405180910390f35b3480156103c657600080fd5b506103cf610ddb565b6040516103dc9190615307565b60405180910390f35b3480156103f157600080fd5b5061040c600480360381019061040791906144f3565b610e6d565b60405161041991906152d1565b60405180910390f35b34801561042e57600080fd5b50610437610e8b565b6040516104449190615669565b60405180910390f35b34801561045957600080fd5b50610474600480360381019061046f9190614634565b610e95565b6040516104819190615669565b60405180910390f35b34801561049657600080fd5b506104b160048036038101906104ac9190614634565b610ead565b6040516104be91906152d1565b60405180910390f35b3480156104d357600080fd5b506104ee60048036038101906104e991906144a4565b61103b565b6040516104fb91906152d1565b60405180910390f35b34801561051057600080fd5b5061052b600480360381019061052691906145a6565b61113c565b60405161053891906152ec565b60405180910390f35b61055b60048036038101906105569190614634565b61115c565b005b34801561056957600080fd5b50610584600480360381019061057f91906145cf565b6113b9565b005b34801561059257600080fd5b5061059b6113e2565b6040516105a8919061572b565b60405180910390f35b3480156105bd57600080fd5b506105d860048036038101906105d391906145cf565b6113eb565b005b3480156105e657600080fd5b5061060160048036038101906105fc9190614634565b61146e565b6040516106159897969594939291906156ad565b60405180910390f35b34801561062a57600080fd5b506106336114d0565b60405161064091906152ec565b60405180910390f35b34801561065557600080fd5b50610670600480360381019061066b91906144f3565b6114f4565b60405161067d91906152d1565b60405180910390f35b34801561069257600080fd5b5061069b6115a0565b005b3480156106a957600080fd5b506106c460048036038101906106bf91906144f3565b6115dd565b005b3480156106d257600080fd5b506106ed60048036038101906106e89190614634565b61161e565b005b61070960048036038101906107049190614634565b611632565b005b34801561071757600080fd5b506107206116fb565b60405161072d91906152d1565b60405180910390f35b34801561074257600080fd5b5061075d6004803603810190610758919061443f565b611712565b60405161076a9190615669565b60405180910390f35b34801561077f57600080fd5b5061079a60048036038101906107959190614634565b61175a565b6040516107a79190615307565b60405180910390f35b3480156107bc57600080fd5b506107d760048036038101906107d2919061465d565b6118af565b005b3480156107e557600080fd5b5061080060048036038101906107fb91906144f3565b61194b565b005b34801561080e57600080fd5b506108176119cf565b005b34801561082557600080fd5b5061082e611a0c565b60405161083b9190615669565b60405180910390f35b34801561085057600080fd5b5061086b60048036038101906108669190614634565b611abc565b60405161087891906152d1565b60405180910390f35b61089b60048036038101906108969190614634565b611ad7565b005b3480156108a957600080fd5b506108c460048036038101906108bf91906144f3565b611b9f565b6040516108d19190615669565b60405180910390f35b3480156108e657600080fd5b5061090160048036038101906108fc91906145cf565b611c36565b60405161090e91906152d1565b60405180910390f35b34801561092357600080fd5b5061092c611ca1565b6040516109399190615307565b60405180910390f35b34801561094e57600080fd5b5061096960048036038101906109649190614699565b611d33565b005b34801561097757600080fd5b50610980612361565b60405161098d91906152ec565b60405180910390f35b3480156109a257600080fd5b506109bd60048036038101906109b89190614634565b612368565b005b3480156109cb57600080fd5b506109e660048036038101906109e191906144f3565b612767565b6040516109f391906152d1565b60405180910390f35b610a166004803603810190610a119190614634565b61285b565b005b348015610a2457600080fd5b50610a3f6004803603810190610a3a91906144f3565b612a37565b604051610a4c91906152d1565b60405180910390f35b348015610a6157600080fd5b50610a6a612a55565b604051610a7791906152ec565b60405180910390f35b348015610a8c57600080fd5b50610a95612a79565b005b348015610aa357600080fd5b50610abe6004803603810190610ab9919061443f565b612c15565b005b610ada6004803603810190610ad59190614634565b612c9c565b005b348015610ae857600080fd5b50610b036004803603810190610afe919061452f565b612e04565b604051610b109190615669565b60405180910390f35b348015610b2557600080fd5b50610b406004803603810190610b3b919061443f565b612fa0565b005b348015610b4e57600080fd5b50610b5761307d565b604051610b6491906152ec565b60405180910390f35b348015610b7957600080fd5b50610b946004803603810190610b8f91906145cf565b6130a1565b005b348015610ba257600080fd5b50610bbd6004803603810190610bb89190614468565b6130ca565b604051610bca9190615669565b60405180910390f35b348015610bdf57600080fd5b50610be8613151565b604051610bf591906152ec565b60405180910390f35b348015610c0a57600080fd5b50610c256004803603810190610c20919061465d565b613175565b005b348015610c3357600080fd5b50610c4e6004803603810190610c499190614634565b6133ed565b604051610c5b91906152d1565b60405180910390f35b348015610c7057600080fd5b50610c8b6004803603810190610c869190614634565b613427565b005b600080600860008481526020019081526020016000205411610cae57600080fd5b610cb782611abc565b610cf6576040517f08c379a0000000000000000000000000000000000000000000000000000000008152600401610ced90615509565b60405180910390fd5b6000610d34600860008581526020019081526020016000205460076000868152602001908152602001600020600401546134a390919063ffffffff16565b9050610d4a6064826134b990919063ffffffff16565b905080915050919050565b60007f7965db0b000000000000000000000000000000000000000000000000000000007bffffffffffffffffffffffffffffffffffffffffffffffffffffffff1916827bffffffffffffffffffffffffffffffffffffffffffffffffffffffff19161480610dc85750610dc7826134cf565b5b9050919050565b60008142119050919050565b606060038054610dea9061596a565b80601f0160208091040260200160405190810160405280929190818152602001828054610e169061596a565b8015610e635780601f10610e3857610100808354040283529160200191610e63565b820191906000526020600020905b815481529060010190602001808311610e4657829003601f168201915b5050505050905090565b6000610e81610e7a613539565b8484613541565b6001905092915050565b6000600254905090565b60086020528060005260406000206000915090505481565b6000610eb882613427565b60001515610ec583610dcf565b151514610ed157600080fd5b610eda82611abc565b610ee357600080fd5b600015156007600084815260200190815260200160002060020160009054906101000a900460ff1615151415610f9c57600760008381526020019081526020016000206005015460076000848152602001908152602001600020600401541115610f505760019050611036565b600760008381526020019081526020016000206005015460076000848152602001908152602001600020600401541015610f8d5760009050611036565b610f968261175a565b50611035565b600115156007600084815260200190815260200160002060020160009054906101000a900460ff1615151415611034576007600083815260200190815260200160002060030154610fec83610c8d565b10610ffa5760019050611036565b600760008381526020019081526020016000206003015461101a83610c8d565b10156110295760009050611036565b6110328261175a565b505b5b5b919050565b600061104884848461370c565b6000600160008673ffffffffffffffffffffffffffffffffffffffff1673ffffffffffffffffffffffffffffffffffffffff1681526020019081526020016000206000611093613539565b73ffffffffffffffffffffffffffffffffffffffff1673ffffffffffffffffffffffffffffffffffffffff16815260200190815260200160002054905082811015611113576040517f08c379a000000000000000000000000000000000000000000000000000000000815260040161110a906154c9565b60405180910390fd5b6111308561111f613539565b858461112b919061584e565b613541565b60019150509392505050565b600060056000838152602001908152602001600020600101549050919050565b6111867fb9e206fa2af7ee1331b72ce58b6d938ac810ce9b5cdb65d35ab723fd67badf9e33611c36565b6111c5576040517f08c379a00000000000000000000000000000000000000000000000000000000081526004016111bc90615449565b60405180910390fd5b600b60003373ffffffffffffffffffffffffffffffffffffffff1673ffffffffffffffffffffffffffffffffffffffff16815260200190815260200160002054811115611247576040517f08c379a000000000000000000000000000000000000000000000000000000000815260040161123e90615409565b60405180910390fd5b6103e861129c82600b60003373ffffffffffffffffffffffffffffffffffffffff1673ffffffffffffffffffffffffffffffffffffffff1681526020019081526020016000205461398b90919063ffffffff16565b10156112dd576040517f08c379a00000000000000000000000000000000000000000000000000000000081526004016112d4906155e9565b60405180910390fd5b6112e73382612a37565b5061133a81600b60003373ffffffffffffffffffffffffffffffffffffffff1673ffffffffffffffffffffffffffffffffffffffff1681526020019081526020016000205461398b90919063ffffffff16565b600b60003373ffffffffffffffffffffffffffffffffffffffff1673ffffffffffffffffffffffffffffffffffffffff168152602001908152602001600020819055507f636cb222c0a14b941cff2b7b16a3920b7043e92dabbf4ebe5104f45b7c5ea23c33826040516113ae9291906152a8565b60405180910390a150565b6113c28261113c565b6113d3816113ce613539565b6139a1565b6113dd8383613a3e565b505050565b60006012905090565b6113f3613539565b73ffffffffffffffffffffffffffffffffffffffff168173ffffffffffffffffffffffffffffffffffffffff1614611460576040517f08c379a000000000000000000000000000000000000000000000000000000000815260040161145790615629565b60405180910390fd5b61146a8282613b1f565b5050565b60076020528060005260406000206000915090508060000154908060010154908060020160009054906101000a900460ff16908060030154908060040154908060050154908060060154908060070160009054906101000a900460ff16905088565b7fb9e206fa2af7ee1331b72ce58b6d938ac810ce9b5cdb65d35ab723fd67badf9e81565b6000611596611501613539565b84846001600061150f613539565b73ffffffffffffffffffffffffffffffffffffffff1673ffffffffffffffffffffffffffffffffffffffff16815260200190815260200160002060008873ffffffffffffffffffffffffffffffffffffffff1673ffffffffffffffffffffffffffffffffffffffff16815260200190815260200160002054611591919061576d565b613541565b6001905092915050565b6115ca7f65d7a28e3265b37a6474929f336521b332c1681b933f6cb9f3376673440d862a33611c36565b6115d357600080fd5b6115db613c01565b565b6116077f9f2df0fed2c77648de5860a4cc508cd0818c85b8b8a1ab4ceeef8d981c8956a633611c36565b61161057600080fd5b61161a8282613ca3565b5050565b61162f611629613539565b82613df7565b50565b600160076000838152602001908152602001600020600601541461165557600080fd5b600015156007600083815260200190815260200160002060070160009054906101000a900460ff1615151461168957600080fd5b6116a9336007600084815260200190815260200160002060010154613ca3565b7f815e966a30d910f09bbe731021156b873eaca737ddd8f638c08f40c47d4c55da6007600083815260200190815260200160002060010154826040516116f0929190615684565b60405180910390a150565b6000600660009054906101000a900460ff16905090565b60008060008373ffffffffffffffffffffffffffffffffffffffff1673ffffffffffffffffffffffffffffffffffffffff168152602001908152602001600020549050919050565b606061176582611abc565b61176e57600080fd5b600015156007600084815260200190815260200160002060020160009054906101000a900460ff16151514156118145760076000838152602001908152602001600020600501546007600084815260200190815260200160002060040154141561180f576040518060400160405280600981526020017f506f6c6c2074696564000000000000000000000000000000000000000000000081525090506118aa565b6118a9565b600115156007600084815260200190815260200160002060020160009054906101000a900460ff16151514156118a857600760008381526020019081526020016000206003015461186483610c8d565b14156118a7576040518060400160405280600981526020017f506f6c6c2074696564000000000000000000000000000000000000000000000081525090506118aa565b5b5b5b919050565b6118b882611abc565b6118c157600080fd5b60008111611904576040517f08c379a00000000000000000000000000000000000000000000000000000000081526004016118fb906154a9565b60405180910390fd5b61192d816007600085815260200190815260200160002060000154613fcb90919063ffffffff16565b60076000848152602001908152602001600020600001819055505050565b600061195e83611959613539565b6130ca565b9050818110156119a3576040517f08c379a000000000000000000000000000000000000000000000000000000000815260040161199a906154e9565b60405180910390fd5b6119c0836119af613539565b84846119bb919061584e565b613541565b6119ca8383613df7565b505050565b6119f97f65d7a28e3265b37a6474929f336521b332c1681b933f6cb9f3376673440d862a33611c36565b611a0257600080fd5b611a0a613fe1565b565b6000611a387fb9e206fa2af7ee1331b72ce58b6d938ac810ce9b5cdb65d35ab723fd67badf9e33611c36565b611a77576040517f08c379a0000000000000000000000000000000000000000000000000000000008152600401611a6e90615449565b60405180910390fd5b600b60003373ffffffffffffffffffffffffffffffffffffffff1673ffffffffffffffffffffffffffffffffffffffff16815260200190815260200160002054905090565b6000808214158015611ad057506009548211155b9050919050565b6002600760008381526020019081526020016000206006015414611afa57600080fd5b600015156007600083815260200190815260200160002060070160009054906101000a900460ff16151514611b2e57600080fd5b611b4d600760008381526020019081526020016000206001015461161e565b7f815e966a30d910f09bbe731021156b873eaca737ddd8f638c08f40c47d4c55da600760008381526020019081526020016000206001015482604051611b94929190615684565b60405180910390a150565b60008073ffffffffffffffffffffffffffffffffffffffff168373ffffffffffffffffffffffffffffffffffffffff161415611bda57600080fd5b6007600083815260200190815260200160002060090160008473ffffffffffffffffffffffffffffffffffffffff1673ffffffffffffffffffffffffffffffffffffffff16815260200190815260200160002054905092915050565b60006005600084815260200190815260200160002060000160008373ffffffffffffffffffffffffffffffffffffffff1673ffffffffffffffffffffffffffffffffffffffff16815260200190815260200160002060009054906101000a900460ff16905092915050565b606060048054611cb09061596a565b80601f0160208091040260200160405190810160405280929190818152602001828054611cdc9061596a565b8015611d295780601f10611cfe57610100808354040283529160200191611d29565b820191906000526020600020905b815481529060010190602001808311611d0c57829003601f168201915b5050505050905090565b611d3b6116fb565b15611d7b576040517f08c379a0000000000000000000000000000000000000000000000000000000008152600401611d7290615489565b60405180910390fd5b33600073ffffffffffffffffffffffffffffffffffffffff168173ffffffffffffffffffffffffffffffffffffffff161415611db657600080fd5b60001515611de47f72c3eec1760bf69946625c2d4fb8e44e2c806345041960b434674fb9ab3976cf83611c36565b1515148015611dfd57506103e8611dfa82611712565b10155b15611e0c57611e0b81612c15565b5b60011515611e3a7f72c3eec1760bf69946625c2d4fb8e44e2c806345041960b434674fb9ab3976cf83611c36565b1515148015611e5257506103e8611e5082611712565b105b15611e6157611e6081612fa0565b5b611e8b7f72c3eec1760bf69946625c2d4fb8e44e2c806345041960b434674fb9ab3976cf82611c36565b611eca576040517f08c379a0000000000000000000000000000000000000000000000000000000008152600401611ec190615469565b60405180910390fd5b600073ffffffffffffffffffffffffffffffffffffffff163373ffffffffffffffffffffffffffffffffffffffff161415611f0457600080fd5b60016007600085815260200190815260200160002060070160006101000a81548160ff0219169083151502179055611f3b57600080fd5b611f4483610dcf565b611f4d57600080fd5b60006007600085815260200190815260200160002060090160003373ffffffffffffffffffffffffffffffffffffffff1673ffffffffffffffffffffffffffffffffffffffff1681526020019081526020016000205411611fe3576040517f08c379a0000000000000000000000000000000000000000000000000000000008152600401611fda906155a9565b60405180910390fd5b6007600084815260200190815260200160002060090160003373ffffffffffffffffffffffffffffffffffffffff1673ffffffffffffffffffffffffffffffffffffffff1681526020019081526020016000205484111561204357600080fd5b600060076000858152602001908152602001600020600a0160003373ffffffffffffffffffffffffffffffffffffffff1673ffffffffffffffffffffffffffffffffffffffff1681526020019081526020016000205414806120f757508160076000858152602001908152602001600020600a0160003373ffffffffffffffffffffffffffffffffffffffff1673ffffffffffffffffffffffffffffffffffffffff16815260200190815260200160002054145b61210057600080fd5b600182148061210f5750600282145b61211857600080fd5b600182141561216a5761214b60016007600086815260200190815260200160002060040154613fcb90919063ffffffff16565b60076000858152602001908152602001600020600401819055506121b9565b60028214156121b85761219d60016007600086815260200190815260200160002060050154613fcb90919063ffffffff16565b60076000858152602001908152602001600020600501819055505b5b8160076000858152602001908152602001600020600a0160003373ffffffffffffffffffffffffffffffffffffffff1673ffffffffffffffffffffffffffffffffffffffff16815260200190815260200160002081905550612277846007600086815260200190815260200160002060090160003373ffffffffffffffffffffffffffffffffffffffff1673ffffffffffffffffffffffffffffffffffffffff1681526020019081526020016000205461398b90919063ffffffff16565b6007600085815260200190815260200160002060090160003373ffffffffffffffffffffffffffffffffffffffff1673ffffffffffffffffffffffffffffffffffffffff168152602001908152602001600020819055503373ffffffffffffffffffffffffffffffffffffffff16837fb8032ae25c12382c9eae96f471eca2deb60c0e3f794645265e43090947023956866040516123159190615669565b60405180910390a361234460016008600086815260200190815260200160002054613fcb90919063ffffffff16565b600860008581526020019081526020016000208190555050505050565b6000801b81565b6123706116fb565b156123b0576040517f08c379a00000000000000000000000000000000000000000000000000000000081526004016123a790615489565b60405180910390fd5b33600073ffffffffffffffffffffffffffffffffffffffff168173ffffffffffffffffffffffffffffffffffffffff1614156123eb57600080fd5b600015156124197f72c3eec1760bf69946625c2d4fb8e44e2c806345041960b434674fb9ab3976cf83611c36565b151514801561243257506103e861242f82611712565b10155b156124415761244081612c15565b5b6001151561246f7f72c3eec1760bf69946625c2d4fb8e44e2c806345041960b434674fb9ab3976cf83611c36565b151514801561248757506103e861248582611712565b105b156124965761249581612fa0565b5b6124c07f72c3eec1760bf69946625c2d4fb8e44e2c806345041960b434674fb9ab3976cf82611c36565b6124ff576040517f08c379a00000000000000000000000000000000000000000000000000000000081526004016124f690615469565b60405180910390fd5b600073ffffffffffffffffffffffffffffffffffffffff163373ffffffffffffffffffffffffffffffffffffffff16141561253957600080fd5b60006125a36103e76007600086815260200190815260200160002060080160003373ffffffffffffffffffffffffffffffffffffffff1673ffffffffffffffffffffffffffffffffffffffff1681526020019081526020016000205461398b90919063ffffffff16565b9050600081116125e8576040517f08c379a00000000000000000000000000000000000000000000000000000000081526004016125df90615429565b60405180910390fd5b61264e816007600086815260200190815260200160002060080160003373ffffffffffffffffffffffffffffffffffffffff1673ffffffffffffffffffffffffffffffffffffffff16815260200190815260200160002054613fcb90919063ffffffff16565b6007600085815260200190815260200160002060080160003373ffffffffffffffffffffffffffffffffffffffff1673ffffffffffffffffffffffffffffffffffffffff1681526020019081526020016000208190555061270b816007600086815260200190815260200160002060090160003373ffffffffffffffffffffffffffffffffffffffff1673ffffffffffffffffffffffffffffffffffffffff16815260200190815260200160002054613fcb90919063ffffffff16565b6007600085815260200190815260200160002060090160003373ffffffffffffffffffffffffffffffffffffffff1673ffffffffffffffffffffffffffffffffffffffff16815260200190815260200160002081905550505050565b60008060016000612776613539565b73ffffffffffffffffffffffffffffffffffffffff1673ffffffffffffffffffffffffffffffffffffffff16815260200190815260200160002060008573ffffffffffffffffffffffffffffffffffffffff1673ffffffffffffffffffffffffffffffffffffffff16815260200190815260200160002054905082811015612833576040517f08c379a000000000000000000000000000000000000000000000000000000000815260040161282a90615609565b60405180910390fd5b61285061283e613539565b85858461284b919061584e565b613541565b600191505092915050565b6103e88110156128a0576040517f08c379a0000000000000000000000000000000000000000000000000000000008152600401612897906153a9565b60405180910390fd5b600015156128ce7fb9e206fa2af7ee1331b72ce58b6d938ac810ce9b5cdb65d35ab723fd67badf9e33611c36565b151514612910576040517f08c379a0000000000000000000000000000000000000000000000000000000008152600401612907906155c9565b60405180910390fd5b61293d33600a60009054906101000a900473ffffffffffffffffffffffffffffffffffffffff168361103b565b506129687fb9e206fa2af7ee1331b72ce58b6d938ac810ce9b5cdb65d35ab723fd67badf9e336113b9565b6129ba81600b60003373ffffffffffffffffffffffffffffffffffffffff1673ffffffffffffffffffffffffffffffffffffffff16815260200190815260200160002054613fcb90919063ffffffff16565b600b60003373ffffffffffffffffffffffffffffffffffffffff1673ffffffffffffffffffffffffffffffffffffffff168152602001908152602001600020819055507faa9b7cbce69f378b88683439602b2857dc079ec95e5996ecd5e84df0673de4d733604051612a2c919061528d565b60405180910390a150565b6000612a4b612a44613539565b848461370c565b6001905092915050565b7f72c3eec1760bf69946625c2d4fb8e44e2c806345041960b434674fb9ab3976cf81565b612aa37fb9e206fa2af7ee1331b72ce58b6d938ac810ce9b5cdb65d35ab723fd67badf9e33611c36565b612ae2576040517f08c379a0000000000000000000000000000000000000000000000000000000008152600401612ad990615449565b60405180910390fd5b612b0c7fb9e206fa2af7ee1331b72ce58b6d938ac810ce9b5cdb65d35ab723fd67badf9e336130a1565b612b5533600b60003373ffffffffffffffffffffffffffffffffffffffff1673ffffffffffffffffffffffffffffffffffffffff16815260200190815260200160002054612a37565b506000600b60003373ffffffffffffffffffffffffffffffffffffffff1673ffffffffffffffffffffffffffffffffffffffff168152602001908152602001600020819055507fcb71ce4aef17d5694e262b4bedec3b5f7ea68f25621d775f80bc72e78d27692d33600b60003373ffffffffffffffffffffffffffffffffffffffff1673ffffffffffffffffffffffffffffffffffffffff16815260200190815260200160002054604051612c0b9291906152a8565b60405180910390a1565b6103e8612c2182611712565b1015612c2c57600080fd5b612c567f72c3eec1760bf69946625c2d4fb8e44e2c806345041960b434674fb9ab3976cf826113b9565b8073ffffffffffffffffffffffffffffffffffffffff167f3025407ee9b066f6cd97886b0c47bda6b6ebbb42d2c7574284f5814cfd3a504a60405160405180910390a250565b612cc67fb9e206fa2af7ee1331b72ce58b6d938ac810ce9b5cdb65d35ab723fd67badf9e33611c36565b612d05576040517f08c379a0000000000000000000000000000000000000000000000000000000008152600401612cfc90615449565b60405180910390fd5b612d3233600a60009054906101000a900473ffffffffffffffffffffffffffffffffffffffff168361103b565b50612d8581600b60003373ffffffffffffffffffffffffffffffffffffffff1673ffffffffffffffffffffffffffffffffffffffff16815260200190815260200160002054613fcb90919063ffffffff16565b600b60003373ffffffffffffffffffffffffffffffffffffffff1673ffffffffffffffffffffffffffffffffffffffff168152602001908152602001600020819055507f91dd5382838389dd317d2f661bec79d34c5b6abd4d2d475f84079da548c030fc3382604051612df99291906152a8565b60405180910390a150565b6000801515861515148015612e195750600085145b80612e34575060011515861515148015612e335750600085115b5b612e3d57600080fd5b60008411612e80576040517f08c379a0000000000000000000000000000000000000000000000000000000008152600401612e7790615569565b60405180910390fd5b6000612e958442613fcb90919063ffffffff16565b9050612ead6001600954613fcb90919063ffffffff16565b60098190555060006007600060095481526020019081526020016000209050838160060181905550878160020160006101000a81548160ff021916908315150217905550868160030181905550858160010181905550818160000181905550600081600401819055506000816005018190555060018160070160006101000a81548160ff0219169083151502179055503373ffffffffffffffffffffffffffffffffffffffff166009547f75c3234b322da18df8c948bde9b9983e5a43633c4e2647d4d9f4f15c0706f05d8885604051612f88929190615684565b60405180910390a36009549250505095945050505050565b612fca7f72c3eec1760bf69946625c2d4fb8e44e2c806345041960b434674fb9ab3976cf33611c36565b612fd357600080fd5b600073ffffffffffffffffffffffffffffffffffffffff168173ffffffffffffffffffffffffffffffffffffffff16141561300d57600080fd5b6130377f72c3eec1760bf69946625c2d4fb8e44e2c806345041960b434674fb9ab3976cf826130a1565b8073ffffffffffffffffffffffffffffffffffffffff167fc8f0ca04e3a4bee64fa8f12ab2c36bf665502f928567c2adfbbcc4ad796ed26960405160405180910390a250565b7f9f2df0fed2c77648de5860a4cc508cd0818c85b8b8a1ab4ceeef8d981c8956a681565b6130aa8261113c565b6130bb816130b6613539565b6139a1565b6130c58383613b1f565b505050565b6000600160008473ffffffffffffffffffffffffffffffffffffffff1673ffffffffffffffffffffffffffffffffffffffff16815260200190815260200160002060008373ffffffffffffffffffffffffffffffffffffffff1673ffffffffffffffffffffffffffffffffffffffff16815260200190815260200160002054905092915050565b7f65d7a28e3265b37a6474929f336521b332c1681b933f6cb9f3376673440d862a81565b600073ffffffffffffffffffffffffffffffffffffffff163373ffffffffffffffffffffffffffffffffffffffff1614156131af57600080fd5b60016007600083815260200190815260200160002060070160006101000a81548160ff02191690831515021790556131e657600080fd5b6131ef81610dcf565b6131f857600080fd5b60006007600083815260200190815260200160002060090160003373ffffffffffffffffffffffffffffffffffffffff1673ffffffffffffffffffffffffffffffffffffffff168152602001908152602001600020541161328e576040517f08c379a0000000000000000000000000000000000000000000000000000000008152600401613285906155a9565b60405180910390fd5b6007600082815260200190815260200160002060090160003373ffffffffffffffffffffffffffffffffffffffff1673ffffffffffffffffffffffffffffffffffffffff168152602001908152602001600020548211156132ee57600080fd5b613354826007600084815260200190815260200160002060090160003373ffffffffffffffffffffffffffffffffffffffff1673ffffffffffffffffffffffffffffffffffffffff1681526020019081526020016000205461398b90919063ffffffff16565b6007600083815260200190815260200160002060090160003373ffffffffffffffffffffffffffffffffffffffff1673ffffffffffffffffffffffffffffffffffffffff168152602001908152602001600020819055506133d260016008600084815260200190815260200160002054613fcb90919063ffffffff16565b60086000838152602001908152602001600020819055505050565b60006133f882611abc565b61340157600080fd5b6134206007600084815260200190815260200160002060000154610dcf565b9050919050565b6134517f65d7a28e3265b37a6474929f336521b332c1681b933f6cb9f3376673440d862a33611c36565b61345a57600080fd5b61346381611abc565b61346c57600080fd5b60006007600083815260200190815260200160002060070160006101000a81548160ff02191690831515021790555050565b505050565b600081836134b191906157c3565b905092915050565b600081836134c791906157f4565b905092915050565b60007f01ffc9a7000000000000000000000000000000000000000000000000000000007bffffffffffffffffffffffffffffffffffffffffffffffffffffffff1916827bffffffffffffffffffffffffffffffffffffffffffffffffffffffff1916149050919050565b600033905090565b600073ffffffffffffffffffffffffffffffffffffffff168373ffffffffffffffffffffffffffffffffffffffff1614156135b1576040517f08c379a00000000000000000000000000000000000000000000000000000000081526004016135a890615589565b60405180910390fd5b600073ffffffffffffffffffffffffffffffffffffffff168273ffffffffffffffffffffffffffffffffffffffff161415613621576040517f08c379a0000000000000000000000000000000000000000000000000000000008152600401613618906153c9565b60405180910390fd5b80600160008573ffffffffffffffffffffffffffffffffffffffff1673ffffffffffffffffffffffffffffffffffffffff16815260200190815260200160002060008473ffffffffffffffffffffffffffffffffffffffff1673ffffffffffffffffffffffffffffffffffffffff168152602001908152602001600020819055508173ffffffffffffffffffffffffffffffffffffffff168373ffffffffffffffffffffffffffffffffffffffff167f8c5be1e5ebec7d5bd14f71427d1e84f3dd0314c0f7b2291e5b200ac8c7c3b925836040516136ff9190615669565b60405180910390a3505050565b600073ffffffffffffffffffffffffffffffffffffffff168373ffffffffffffffffffffffffffffffffffffffff16141561377c576040517f08c379a000000000000000000000000000000000000000000000000000000000815260040161377390615549565b60405180910390fd5b600073ffffffffffffffffffffffffffffffffffffffff168273ffffffffffffffffffffffffffffffffffffffff1614156137ec576040517f08c379a00000000000000000000000000000000000000000000000000000000081526004016137e390615349565b60405180910390fd5b6137f7838383614084565b60008060008573ffffffffffffffffffffffffffffffffffffffff1673ffffffffffffffffffffffffffffffffffffffff1681526020019081526020016000205490508181101561387d576040517f08c379a0000000000000000000000000000000000000000000000000000000008152600401613874906153e9565b60405180910390fd5b8181613889919061584e565b6000808673ffffffffffffffffffffffffffffffffffffffff1673ffffffffffffffffffffffffffffffffffffffff16815260200190815260200160002081905550816000808573ffffffffffffffffffffffffffffffffffffffff1673ffffffffffffffffffffffffffffffffffffffff1681526020019081526020016000206000828254613919919061576d565b925050819055508273ffffffffffffffffffffffffffffffffffffffff168473ffffffffffffffffffffffffffffffffffffffff167fddf252ad1be2c89b69c2b068fc378daa952ba7f163c4a11628f55a4df523b3ef8460405161397d9190615669565b60405180910390a350505050565b60008183613999919061584e565b905092915050565b6139ab8282611c36565b613a3a576139d08173ffffffffffffffffffffffffffffffffffffffff1660146140dc565b6139de8360001c60206140dc565b6040516020016139ef929190615253565b6040516020818303038152906040526040517f08c379a0000000000000000000000000000000000000000000000000000000008152600401613a319190615307565b60405180910390fd5b5050565b613a488282611c36565b613b1b5760016005600084815260200190815260200160002060000160008373ffffffffffffffffffffffffffffffffffffffff1673ffffffffffffffffffffffffffffffffffffffff16815260200190815260200160002060006101000a81548160ff021916908315150217905550613ac0613539565b73ffffffffffffffffffffffffffffffffffffffff168173ffffffffffffffffffffffffffffffffffffffff16837f2f8788117e7eff1d82e926ec794901d17c78024a50270940304540a733656f0d60405160405180910390a45b5050565b613b298282611c36565b15613bfd5760006005600084815260200190815260200160002060000160008373ffffffffffffffffffffffffffffffffffffffff1673ffffffffffffffffffffffffffffffffffffffff16815260200190815260200160002060006101000a81548160ff021916908315150217905550613ba2613539565b73ffffffffffffffffffffffffffffffffffffffff168173ffffffffffffffffffffffffffffffffffffffff16837ff6391f5c32d9c69d2a47ea670b442974b53935d1edc7fd64eb21e047a839171b60405160405180910390a45b5050565b613c096116fb565b613c48576040517f08c379a0000000000000000000000000000000000000000000000000000000008152600401613c3f90615369565b60405180910390fd5b6000600660006101000a81548160ff0219169083151502179055507f5db9ee0a495bf2e6ff9c91a7834c1ba4fdd244a5e8aa4e537bd38aeae4b073aa613c8c613539565b604051613c99919061528d565b60405180910390a1565b600073ffffffffffffffffffffffffffffffffffffffff168273ffffffffffffffffffffffffffffffffffffffff161415613d13576040517f08c379a0000000000000000000000000000000000000000000000000000000008152600401613d0a90615649565b60405180910390fd5b613d1f60008383614084565b8060026000828254613d31919061576d565b92505081905550806000808473ffffffffffffffffffffffffffffffffffffffff1673ffffffffffffffffffffffffffffffffffffffff1681526020019081526020016000206000828254613d86919061576d565b925050819055508173ffffffffffffffffffffffffffffffffffffffff16600073ffffffffffffffffffffffffffffffffffffffff167fddf252ad1be2c89b69c2b068fc378daa952ba7f163c4a11628f55a4df523b3ef83604051613deb9190615669565b60405180910390a35050565b600073ffffffffffffffffffffffffffffffffffffffff168273ffffffffffffffffffffffffffffffffffffffff161415613e67576040517f08c379a0000000000000000000000000000000000000000000000000000000008152600401613e5e90615529565b60405180910390fd5b613e7382600083614084565b60008060008473ffffffffffffffffffffffffffffffffffffffff1673ffffffffffffffffffffffffffffffffffffffff16815260200190815260200160002054905081811015613ef9576040517f08c379a0000000000000000000000000000000000000000000000000000000008152600401613ef090615389565b60405180910390fd5b8181613f05919061584e565b6000808573ffffffffffffffffffffffffffffffffffffffff1673ffffffffffffffffffffffffffffffffffffffff168152602001908152602001600020819055508160026000828254613f59919061584e565b92505081905550600073ffffffffffffffffffffffffffffffffffffffff168373ffffffffffffffffffffffffffffffffffffffff167fddf252ad1be2c89b69c2b068fc378daa952ba7f163c4a11628f55a4df523b3ef84604051613fbe9190615669565b60405180910390a3505050565b60008183613fd9919061576d565b905092915050565b613fe96116fb565b15614029576040517f08c379a000000000000000000000000000000000000000000000000000000000815260040161402090615489565b60405180910390fd5b6001600660006101000a81548160ff0219169083151502179055507f62e78cea01bee320cd4e420270b5ea74000d11b0c9f74754ebdbfc544b05a25861406d613539565b60405161407a919061528d565b60405180910390a1565b61408c6116fb565b156140cc576040517f08c379a00000000000000000000000000000000000000000000000000000000081526004016140c390615489565b60405180910390fd5b6140d783838361349e565b505050565b6060600060028360026140ef91906157f4565b6140f9919061576d565b67ffffffffffffffff811115614138577f4e487b7100000000000000000000000000000000000000000000000000000000600052604160045260246000fd5b6040519080825280601f01601f19166020018201604052801561416a5781602001600182028036833780820191505090505b5090507f3000000000000000000000000000000000000000000000000000000000000000816000815181106141c8577f4e487b7100000000000000000000000000000000000000000000000000000000600052603260045260246000fd5b60200101907effffffffffffffffffffffffffffffffffffffffffffffffffffffffffffff1916908160001a9053507f780000000000000000000000000000000000000000000000000000000000000081600181518110614252577f4e487b7100000000000000000000000000000000000000000000000000000000600052603260045260246000fd5b60200101907effffffffffffffffffffffffffffffffffffffffffffffffffffffffffffff1916908160001a9053506000600184600261429291906157f4565b61429c919061576d565b90505b6001811115614388577f3031323334353637383961626364656600000000000000000000000000000000600f861660108110614304577f4e487b7100000000000000000000000000000000000000000000000000000000600052603260045260246000fd5b1a60f81b828281518110614341577f4e487b7100000000000000000000000000000000000000000000000000000000600052603260045260246000fd5b60200101907effffffffffffffffffffffffffffffffffffffffffffffffffffffffffffff1916908160001a905350600485901c94508061438190615940565b905061429f565b50600084146143cc576040517f08c379a00000000000000000000000000000000000000000000000000000000081526004016143c390615329565b60405180910390fd5b8091505092915050565b6000813590506143e581615a3a565b92915050565b6000813590506143fa81615a51565b92915050565b60008135905061440f81615a68565b92915050565b60008135905061442481615a7f565b92915050565b60008135905061443981615a96565b92915050565b60006020828403121561445157600080fd5b600061445f848285016143d6565b91505092915050565b6000806040838503121561447b57600080fd5b6000614489858286016143d6565b925050602061449a858286016143d6565b9150509250929050565b6000806000606084860312156144b957600080fd5b60006144c7868287016143d6565b93505060206144d8868287016143d6565b92505060406144e98682870161442a565b9150509250925092565b6000806040838503121561450657600080fd5b6000614514858286016143d6565b92505060206145258582860161442a565b9150509250929050565b600080600080600060a0868803121561454757600080fd5b6000614555888289016143eb565b95505060206145668882890161442a565b94505060406145778882890161442a565b93505060606145888882890161442a565b92505060806145998882890161442a565b9150509295509295909350565b6000602082840312156145b857600080fd5b60006145c684828501614400565b91505092915050565b600080604083850312156145e257600080fd5b60006145f085828601614400565b9250506020614601858286016143d6565b9150509250929050565b60006020828403121561461d57600080fd5b600061462b84828501614415565b91505092915050565b60006020828403121561464657600080fd5b60006146548482850161442a565b91505092915050565b6000806040838503121561467057600080fd5b600061467e8582860161442a565b925050602061468f8582860161442a565b9150509250929050565b6000806000606084860312156146ae57600080fd5b60006146bc8682870161442a565b93505060206146cd8682870161442a565b92505060406146de8682870161442a565b9150509250925092565b6146f181615882565b82525050565b61470081615894565b82525050565b61470f816158a0565b82525050565b600061472082615746565b61472a8185615751565b935061473a81856020860161590d565b61474381615a29565b840191505092915050565b600061475982615746565b6147638185615762565b935061477381856020860161590d565b80840191505092915050565b600061478c602083615751565b91507f537472696e67733a20686578206c656e67746820696e73756666696369656e746000830152602082019050919050565b60006147cc602383615751565b91507f45524332303a207472616e7366657220746f20746865207a65726f206164647260008301527f65737300000000000000000000000000000000000000000000000000000000006020830152604082019050919050565b6000614832601483615751565b91507f5061757361626c653a206e6f74207061757365640000000000000000000000006000830152602082019050919050565b6000614872602283615751565b91507f45524332303a206275726e20616d6f756e7420657863656564732062616c616e60008301527f63650000000000000000000000000000000000000000000000000000000000006020830152604082019050919050565b60006148d8604383615751565b91507f4d75737420686176652061207374616b65642062616c616e6365206f66206d6f60008301527f7265207468616e2031303030204d414920746f206265636f6d6520612073746160208301527f6b657200000000000000000000000000000000000000000000000000000000006040830152606082019050919050565b6000614964602283615751565b91507f45524332303a20617070726f766520746f20746865207a65726f20616464726560008301527f73730000000000000000000000000000000000000000000000000000000000006020830152604082019050919050565b60006149ca602683615751565b91507f45524332303a207472616e7366657220616d6f756e742065786365656473206260008301527f616c616e636500000000000000000000000000000000000000000000000000006020830152604082019050919050565b6000614a30602383615751565b91507f4d75737420776974686472617720616d6f756e742077697468696e2062616c6160008301527f6e636500000000000000000000000000000000000000000000000000000000006020830152604082019050919050565b6000614a96602783615751565b91507f4164647265737320686173206e6f20766f74657320617661696c61626c65207460008301527f6f20636c61696d000000000000000000000000000000000000000000000000006020830152604082019050919050565b6000614afc602c83615751565b91507f4d7573742068617665207374616b657220726f6c6520746f20706572666f726d60008301527f207468697320616374696f6e00000000000000000000000000000000000000006020830152604082019050919050565b6000614b62604683615751565b91507f4f6e6c7920616464726573736573207468617420686176652062616c616e636560008301527f73206f66206f766572203130303020746f6b656e73206172652061626c65207460208301527f6f20766f746500000000000000000000000000000000000000000000000000006040830152606082019050919050565b6000614bee601083615751565b91507f5061757361626c653a20706175736564000000000000000000000000000000006000830152602082019050919050565b6000614c2e601c83615751565b91507f4d757374206164642074696d652067726561746572207468616e2030000000006000830152602082019050919050565b6000614c6e602883615751565b91507f45524332303a207472616e7366657220616d6f756e742065786365656473206160008301527f6c6c6f77616e63650000000000000000000000000000000000000000000000006020830152604082019050919050565b6000614cd4602483615751565b91507f45524332303a206275726e20616d6f756e74206578636565647320616c6c6f7760008301527f616e6365000000000000000000000000000000000000000000000000000000006020830152604082019050919050565b6000614d3a601383615751565b91507f506f6c6c20646f6573206e6f74206578697374000000000000000000000000006000830152602082019050919050565b6000614d7a602183615751565b91507f45524332303a206275726e2066726f6d20746865207a65726f2061646472657360008301527f73000000000000000000000000000000000000000000000000000000000000006020830152604082019050919050565b6000614de0602583615751565b91507f45524332303a207472616e736665722066726f6d20746865207a65726f20616460008301527f64726573730000000000000000000000000000000000000000000000000000006020830152604082019050919050565b6000614e46603f83615751565b91507f54686520616d6f756e74206f6620746f6b656e7320746f206265206275726e6560008301527f642f206d696e746564206d757374206265206c6172676572207468616e2030006020830152604082019050919050565b6000614eac602483615751565b91507f45524332303a20617070726f76652066726f6d20746865207a65726f2061646460008301527f72657373000000000000000000000000000000000000000000000000000000006020830152604082019050919050565b6000614f12601783615762565b91507f416363657373436f6e74726f6c3a206163636f756e74200000000000000000006000830152601782019050919050565b6000614f52604783615751565b91507f4164647265737320686173206e6f20766f7465732063757272656e746c792c2060008301527f63616c6c2066756e6374696f6e20636c61696d566f746520746f20636c61696d60208301527f206120766f7465000000000000000000000000000000000000000000000000006040830152606082019050919050565b6000614fde601883615751565b91507f596f752061726520616c72656164792061207374616b657200000000000000006000830152602082019050919050565b600061501e608b83615751565b91507f412062616c616e6365206f6620686967686572207468616e203130303020697360008301527f20726571756972656420746f206d61696e7461696e20726f6c65206f6620737460208301527f616b65722c20696620796f75207769736820746f207265766f6b65207468652060408301527f726f6c65206f66207374616b65722c20757365207265766f6b655374616b657260608301527f28292066756e6374696f6e000000000000000000000000000000000000000000608083015260a082019050919050565b60006150f6602583615751565b91507f45524332303a2064656372656173656420616c6c6f77616e63652062656c6f7760008301527f207a65726f0000000000000000000000000000000000000000000000000000006020830152604082019050919050565b600061515c601183615762565b91507f206973206d697373696e6720726f6c65200000000000000000000000000000006000830152601182019050919050565b600061519c602f83615751565b91507f416363657373436f6e74726f6c3a2063616e206f6e6c792072656e6f756e636560008301527f20726f6c657320666f722073656c6600000000000000000000000000000000006020830152604082019050919050565b6000615202601f83615751565b91507f45524332303a206d696e7420746f20746865207a65726f2061646472657373006000830152602082019050919050565b61523e816158f6565b82525050565b61524d81615900565b82525050565b600061525e82614f05565b915061526a828561474e565b91506152758261514f565b9150615281828461474e565b91508190509392505050565b60006020820190506152a260008301846146e8565b92915050565b60006040820190506152bd60008301856146e8565b6152ca6020830184615235565b9392505050565b60006020820190506152e660008301846146f7565b92915050565b60006020820190506153016000830184614706565b92915050565b600060208201905081810360008301526153218184614715565b905092915050565b600060208201905081810360008301526153428161477f565b9050919050565b60006020820190508181036000830152615362816147bf565b9050919050565b6000602082019050818103600083015261538281614825565b9050919050565b600060208201905081810360008301526153a281614865565b9050919050565b600060208201905081810360008301526153c2816148cb565b9050919050565b600060208201905081810360008301526153e281614957565b9050919050565b60006020820190508181036000830152615402816149bd565b9050919050565b6000602082019050818103600083015261542281614a23565b9050919050565b6000602082019050818103600083015261544281614a89565b9050919050565b6000602082019050818103600083015261546281614aef565b9050919050565b6000602082019050818103600083015261548281614b55565b9050919050565b600060208201905081810360008301526154a281614be1565b9050919050565b600060208201905081810360008301526154c281614c21565b9050919050565b600060208201905081810360008301526154e281614c61565b9050919050565b6000602082019050818103600083015261550281614cc7565b9050919050565b6000602082019050818103600083015261552281614d2d565b9050919050565b6000602082019050818103600083015261554281614d6d565b9050919050565b6000602082019050818103600083015261556281614dd3565b9050919050565b6000602082019050818103600083015261558281614e39565b9050919050565b600060208201905081810360008301526155a281614e9f565b9050919050565b600060208201905081810360008301526155c281614f45565b9050919050565b600060208201905081810360008301526155e281614fd1565b9050919050565b6000602082019050818103600083015261560281615011565b9050919050565b60006020820190508181036000830152615622816150e9565b9050919050565b600060208201905081810360008301526156428161518f565b9050919050565b60006020820190508181036000830152615662816151f5565b9050919050565b600060208201905061567e6000830184615235565b92915050565b60006040820190506156996000830185615235565b6156a66020830184615235565b9392505050565b6000610100820190506156c3600083018b615235565b6156d0602083018a615235565b6156dd60408301896146f7565b6156ea6060830188615235565b6156f76080830187615235565b61570460a0830186615235565b61571160c0830185615235565b61571e60e08301846146f7565b9998505050505050505050565b60006020820190506157406000830184615244565b92915050565b600081519050919050565b600082825260208201905092915050565b600081905092915050565b6000615778826158f6565b9150615783836158f6565b9250827fffffffffffffffffffffffffffffffffffffffffffffffffffffffffffffffff038211156157b8576157b761599c565b5b828201905092915050565b60006157ce826158f6565b91506157d9836158f6565b9250826157e9576157e86159cb565b5b828204905092915050565b60006157ff826158f6565b915061580a836158f6565b9250817fffffffffffffffffffffffffffffffffffffffffffffffffffffffffffffffff04831182151516156158435761584261599c565b5b828202905092915050565b6000615859826158f6565b9150615864836158f6565b9250828210156158775761587661599c565b5b828203905092915050565b600061588d826158d6565b9050919050565b60008115159050919050565b6000819050919050565b60007fffffffff0000000000000000000000000000000000000000000000000000000082169050919050565b600073ffffffffffffffffffffffffffffffffffffffff82169050919050565b6000819050919050565b600060ff82169050919050565b60005b8381101561592b578082015181840152602081019050615910565b8381111561593a576000848401525b50505050565b600061594b826158f6565b9150600082141561595f5761595e61599c565b5b600182039050919050565b6000600282049050600182168061598257607f821691505b60208210811415615996576159956159fa565b5b50919050565b7f4e487b7100000000000000000000000000000000000000000000000000000000600052601160045260246000fd5b7f4e487b7100000000000000000000000000000000000000000000000000000000600052601260045260246000fd5b7f4e487b7100000000000000000000000000000000000000000000000000000000600052602260045260246000fd5b6000601f19601f8301169050919050565b615a4381615882565b8114615a4e57600080fd5b50565b615a5a81615894565b8114615a6557600080fd5b50565b615a71816158a0565b8114615a7c57600080fd5b50565b615a88816158aa565b8114615a9357600080fd5b50565b615a9f816158f6565b8114615aaa57600080fd5b5056fea264697066735822122011a4ac2e2af9464cd53838e55cd76c3a47023f588b69319bcfec9801503ffc0864736f6c63430008000033",
  "immutableReferences": {},
  "source": "// SPDX-License-Identifier: MIT\npragma solidity ^0.8.0;\nimport \"./MaiGeneration.sol\";\nimport \"@openzeppelin/contracts/utils/math/SafeMath.sol\";\n\ncontract HeyStake is Mai {\n    using SafeMath for uint256;\n\n    event _StakerGranted(address _to);\n    event _StakerRoleRevoked(address _account, uint256 _amountReturned);\n    event _StakesDeposited(address _account, uint256 _amount);\n    event _StakesWithdrawn(address _account, uint256 _amount);\n\n    mapping(address => uint256) stakedBalance;\n\n    function stake(uint256 amount) payable public {\n        require(amount >= 1000, \"Must have a staked balance of more than 1000 MAI to become a staker\");\n        require(hasRole(STAKER_ROLE, msg.sender) == false, \"You are already a staker\");\n        transferFrom(msg.sender, stakingAddress, amount);\n        grantRole(STAKER_ROLE, msg.sender);\n        stakedBalance[msg.sender] = stakedBalance[msg.sender].add(amount);\n        emit _StakerGranted(msg.sender);\n    }\n\n    function withdraw(uint256 amount) payable public {\n        require(hasRole(STAKER_ROLE, msg.sender), \"Must have staker role to perform this action\");\n        require(amount <= stakedBalance[msg.sender], \"Must withdraw amount within balance\"); \n        require(stakedBalance[msg.sender].sub(amount) >= 1000, \"A balance of higher than 1000 is required to maintain role of staker, if you wish to revoke the role of staker, use revokeStaker() function\");\n        transfer(msg.sender, amount);\n        stakedBalance[msg.sender] = stakedBalance[msg.sender].sub(amount);\n        emit _StakesWithdrawn(msg.sender, amount);\n    }\n\n    function deposit(uint256 amount) payable public {\n        require(hasRole(STAKER_ROLE, msg.sender), \"Must have staker role to perform this action\");\n        transferFrom(msg.sender, stakingAddress, amount);\n        stakedBalance[msg.sender] = stakedBalance[msg.sender].add(amount);\n        emit _StakesDeposited(msg.sender, amount);\n    }\n\n    function viewStakedBalance() view public returns (uint256 balance) {\n        require(hasRole(STAKER_ROLE, msg.sender), \"Must have staker role to perform this action\");\n        return (stakedBalance[msg.sender]);\n    }\n    \n    function revokeStaker() public {\n        require(hasRole(STAKER_ROLE, msg.sender), \"Must have staker role to perform this action\");\n        revokeRole(STAKER_ROLE, msg.sender);\n        transfer(msg.sender, stakedBalance[msg.sender]);\n        stakedBalance[msg.sender] = 0;\n        emit _StakerRoleRevoked(msg.sender, stakedBalance[msg.sender]); \n    }\n}\n\n\n",
  "sourcePath": "/Users/colinlam/Desktop/code/MaiContract/contracts/HoHeyStaking.sol",
  "compiler": {
    "name": "solc",
    "version": "0.8.0+commit.c7dfd78e.Emscripten.clang"
  },
  "schemaVersion": "3.4.1",
  "updatedAt": "2021-07-05T10:07:32.500Z",
  "devdoc": {
    "kind": "dev",
    "methods": {
      "allowance(address,address)": {
        "details": "See {IERC20-allowance}."
      },
      "approve(address,uint256)": {
        "details": "See {IERC20-approve}. Requirements: - `spender` cannot be the zero address."
      },
      "balanceOf(address)": {
        "details": "See {IERC20-balanceOf}."
      },
      "burn(uint256)": {
        "details": "Destroys `amount` tokens from the caller. See {ERC20-_burn}."
      },
      "burnFrom(address,uint256)": {
        "details": "Destroys `amount` tokens from `account`, deducting from the caller's allowance. See {ERC20-_burn} and {ERC20-allowance}. Requirements: - the caller must have allowance for ``accounts``'s tokens of at least `amount`."
      },
      "decimals()": {
        "details": "Returns the number of decimals used to get its user representation. For example, if `decimals` equals `2`, a balance of `505` tokens should be displayed to a user as `5,05` (`505 / 10 ** 2`). Tokens usually opt for a value of 18, imitating the relationship between Ether and Wei. This is the value {ERC20} uses, unless this function is overridden; NOTE: This information is only used for _display_ purposes: it in no way affects any of the arithmetic of the contract, including {IERC20-balanceOf} and {IERC20-transfer}."
      },
      "decreaseAllowance(address,uint256)": {
        "details": "Atomically decreases the allowance granted to `spender` by the caller. This is an alternative to {approve} that can be used as a mitigation for problems described in {IERC20-approve}. Emits an {Approval} event indicating the updated allowance. Requirements: - `spender` cannot be the zero address. - `spender` must have allowance for the caller of at least `subtractedValue`."
      },
      "getRoleAdmin(bytes32)": {
        "details": "Returns the admin role that controls `role`. See {grantRole} and {revokeRole}. To change a role's admin, use {_setRoleAdmin}."
      },
      "grantRole(bytes32,address)": {
        "details": "Grants `role` to `account`. If `account` had not been already granted `role`, emits a {RoleGranted} event. Requirements: - the caller must have ``role``'s admin role."
      },
      "hasRole(bytes32,address)": {
        "details": "Returns `true` if `account` has been granted `role`."
      },
      "increaseAllowance(address,uint256)": {
        "details": "Atomically increases the allowance granted to `spender` by the caller. This is an alternative to {approve} that can be used as a mitigation for problems described in {IERC20-approve}. Emits an {Approval} event indicating the updated allowance. Requirements: - `spender` cannot be the zero address."
      },
      "name()": {
        "details": "Returns the name of the token."
      },
      "paused()": {
        "details": "Returns true if the contract is paused, and false otherwise."
      },
      "renounceRole(bytes32,address)": {
        "details": "Revokes `role` from the calling account. Roles are often managed via {grantRole} and {revokeRole}: this function's purpose is to provide a mechanism for accounts to lose their privileges if they are compromised (such as when a trusted device is misplaced). If the calling account had been granted `role`, emits a {RoleRevoked} event. Requirements: - the caller must be `account`."
      },
      "revokeRole(bytes32,address)": {
        "details": "Revokes `role` from `account`. If `account` had been granted `role`, emits a {RoleRevoked} event. Requirements: - the caller must have ``role``'s admin role."
      },
      "startPoll(bool,uint256,uint256,uint256,uint256)": {
        "details": "Initiates poll and emits PollCreate event",
        "params": {
          "_commitDuration": "Length of the poll in seconds",
          "_option": "Type of poll, option 1 is for minting tokens, option 2 is for burning tokens *",
          "_quorumOption": "Users can decide if the winner is decided by the percentage majority out of 100 or whether the 'for' side has more votes than the 'against' side",
          "_voteAmount": "The amount of tokens minted/burned if poll is successful ",
          "_voteQuorum": "Assumes that the _quorumOption is false, passes in the percentage majority out of 100 that is required to win the vote"
        }
      },
      "supportsInterface(bytes4)": {
        "details": "See {IERC165-supportsInterface}."
      },
      "symbol()": {
        "details": "Returns the symbol of the token, usually a shorter version of the name."
      },
      "totalSupply()": {
        "details": "See {IERC20-totalSupply}."
      },
      "transfer(address,uint256)": {
        "details": "See {IERC20-transfer}. Requirements: - `recipient` cannot be the zero address. - the caller must have a balance of at least `amount`."
      },
      "transferFrom(address,address,uint256)": {
        "details": "See {IERC20-transferFrom}. Emits an {Approval} event indicating the updated allowance. This is not required by the EIP. See the note at the beginning of {ERC20}. Requirements: - `sender` and `recipient` cannot be the zero address. - `sender` must have a balance of at least `amount`. - the caller must have allowance for ``sender``'s tokens of at least `amount`."
      }
    },
    "version": 1
  },
  "userdoc": {
    "kind": "user",
    "methods": {},
    "version": 1
  }
}