{
  "contractName": "Mai",
  "abi": [
    {
      "inputs": [],
      "stateMutability": "nonpayable",
      "type": "constructor"
    },
    {
      "anonymous": false,
      "inputs": [
        {
          "indexed": true,
          "internalType": "address",
          "name": "owner",
          "type": "address"
        },
        {
          "indexed": true,
          "internalType": "address",
          "name": "spender",
          "type": "address"
        },
        {
          "indexed": false,
          "internalType": "uint256",
          "name": "value",
          "type": "uint256"
        }
      ],
      "name": "Approval",
      "type": "event"
    },
    {
      "anonymous": false,
      "inputs": [
        {
          "indexed": false,
          "internalType": "address",
          "name": "account",
          "type": "address"
        }
      ],
      "name": "Paused",
      "type": "event"
    },
    {
      "anonymous": false,
      "inputs": [
        {
          "indexed": true,
          "internalType": "bytes32",
          "name": "role",
          "type": "bytes32"
        },
        {
          "indexed": true,
          "internalType": "bytes32",
          "name": "previousAdminRole",
          "type": "bytes32"
        },
        {
          "indexed": true,
          "internalType": "bytes32",
          "name": "newAdminRole",
          "type": "bytes32"
        }
      ],
      "name": "RoleAdminChanged",
      "type": "event"
    },
    {
      "anonymous": false,
      "inputs": [
        {
          "indexed": true,
          "internalType": "bytes32",
          "name": "role",
          "type": "bytes32"
        },
        {
          "indexed": true,
          "internalType": "address",
          "name": "account",
          "type": "address"
        },
        {
          "indexed": true,
          "internalType": "address",
          "name": "sender",
          "type": "address"
        }
      ],
      "name": "RoleGranted",
      "type": "event"
    },
    {
      "anonymous": false,
      "inputs": [
        {
          "indexed": true,
          "internalType": "bytes32",
          "name": "role",
          "type": "bytes32"
        },
        {
          "indexed": true,
          "internalType": "address",
          "name": "account",
          "type": "address"
        },
        {
          "indexed": true,
          "internalType": "address",
          "name": "sender",
          "type": "address"
        }
      ],
      "name": "RoleRevoked",
      "type": "event"
    },
    {
      "anonymous": false,
      "inputs": [
        {
          "indexed": true,
          "internalType": "address",
          "name": "from",
          "type": "address"
        },
        {
          "indexed": true,
          "internalType": "address",
          "name": "to",
          "type": "address"
        },
        {
          "indexed": false,
          "internalType": "uint256",
          "name": "value",
          "type": "uint256"
        }
      ],
      "name": "Transfer",
      "type": "event"
    },
    {
      "anonymous": false,
      "inputs": [
        {
          "indexed": false,
          "internalType": "address",
          "name": "account",
          "type": "address"
        }
      ],
      "name": "Unpaused",
      "type": "event"
    },
    {
      "anonymous": false,
      "inputs": [
        {
          "indexed": false,
          "internalType": "uint256",
          "name": "voteQuorum",
          "type": "uint256"
        },
        {
          "indexed": false,
          "internalType": "uint256",
          "name": "commitEndDate",
          "type": "uint256"
        },
        {
          "indexed": true,
          "internalType": "uint256",
          "name": "pollID",
          "type": "uint256"
        },
        {
          "indexed": true,
          "internalType": "address",
          "name": "creator",
          "type": "address"
        }
      ],
      "name": "_PollCreated",
      "type": "event"
    },
    {
      "anonymous": false,
      "inputs": [
        {
          "indexed": true,
          "internalType": "uint256",
          "name": "pollID",
          "type": "uint256"
        },
        {
          "indexed": false,
          "internalType": "uint256",
          "name": "votes",
          "type": "uint256"
        },
        {
          "indexed": true,
          "internalType": "address",
          "name": "voter",
          "type": "address"
        }
      ],
      "name": "_VoteMade",
      "type": "event"
    },
    {
      "anonymous": false,
      "inputs": [
        {
          "indexed": true,
          "internalType": "address",
          "name": "voter",
          "type": "address"
        }
      ],
      "name": "_VotingRightsGranted",
      "type": "event"
    },
    {
      "anonymous": false,
      "inputs": [
        {
          "indexed": true,
          "internalType": "address",
          "name": "voter",
          "type": "address"
        }
      ],
      "name": "_VotingRightsRevoked",
      "type": "event"
    },
    {
      "anonymous": false,
      "inputs": [
        {
          "indexed": false,
          "internalType": "uint256",
          "name": "amountMinted",
          "type": "uint256"
        },
        {
          "indexed": false,
          "internalType": "uint256",
          "name": "pollID",
          "type": "uint256"
        }
      ],
      "name": "_resultsGenerated",
      "type": "event"
    },
    {
      "inputs": [],
      "name": "DEFAULT_ADMIN_ROLE",
      "outputs": [
        {
          "internalType": "bytes32",
          "name": "",
          "type": "bytes32"
        }
      ],
      "stateMutability": "view",
      "type": "function"
    },
    {
      "inputs": [],
      "name": "MINTER_ROLE",
      "outputs": [
        {
          "internalType": "bytes32",
          "name": "",
          "type": "bytes32"
        }
      ],
      "stateMutability": "view",
      "type": "function"
    },
    {
      "inputs": [],
      "name": "PAUSER_ROLE",
      "outputs": [
        {
          "internalType": "bytes32",
          "name": "",
          "type": "bytes32"
        }
      ],
      "stateMutability": "view",
      "type": "function"
    },
    {
      "inputs": [],
      "name": "VOTER_ROLE",
      "outputs": [
        {
          "internalType": "bytes32",
          "name": "",
          "type": "bytes32"
        }
      ],
      "stateMutability": "view",
      "type": "function"
    },
    {
      "inputs": [
        {
          "internalType": "address",
          "name": "owner",
          "type": "address"
        },
        {
          "internalType": "address",
          "name": "spender",
          "type": "address"
        }
      ],
      "name": "allowance",
      "outputs": [
        {
          "internalType": "uint256",
          "name": "",
          "type": "uint256"
        }
      ],
      "stateMutability": "view",
      "type": "function"
    },
    {
      "inputs": [
        {
          "internalType": "address",
          "name": "spender",
          "type": "address"
        },
        {
          "internalType": "uint256",
          "name": "amount",
          "type": "uint256"
        }
      ],
      "name": "approve",
      "outputs": [
        {
          "internalType": "bool",
          "name": "",
          "type": "bool"
        }
      ],
      "stateMutability": "nonpayable",
      "type": "function"
    },
    {
      "inputs": [
        {
          "internalType": "address",
          "name": "account",
          "type": "address"
        }
      ],
      "name": "balanceOf",
      "outputs": [
        {
          "internalType": "uint256",
          "name": "",
          "type": "uint256"
        }
      ],
      "stateMutability": "view",
      "type": "function"
    },
    {
      "inputs": [
        {
          "internalType": "uint256",
          "name": "amount",
          "type": "uint256"
        }
      ],
      "name": "burn",
      "outputs": [],
      "stateMutability": "nonpayable",
      "type": "function"
    },
    {
      "inputs": [
        {
          "internalType": "address",
          "name": "account",
          "type": "address"
        },
        {
          "internalType": "uint256",
          "name": "amount",
          "type": "uint256"
        }
      ],
      "name": "burnFrom",
      "outputs": [],
      "stateMutability": "nonpayable",
      "type": "function"
    },
    {
      "inputs": [],
      "name": "decimals",
      "outputs": [
        {
          "internalType": "uint8",
          "name": "",
          "type": "uint8"
        }
      ],
      "stateMutability": "view",
      "type": "function"
    },
    {
      "inputs": [
        {
          "internalType": "address",
          "name": "spender",
          "type": "address"
        },
        {
          "internalType": "uint256",
          "name": "subtractedValue",
          "type": "uint256"
        }
      ],
      "name": "decreaseAllowance",
      "outputs": [
        {
          "internalType": "bool",
          "name": "",
          "type": "bool"
        }
      ],
      "stateMutability": "nonpayable",
      "type": "function"
    },
    {
      "inputs": [
        {
          "internalType": "bytes32",
          "name": "role",
          "type": "bytes32"
        }
      ],
      "name": "getRoleAdmin",
      "outputs": [
        {
          "internalType": "bytes32",
          "name": "",
          "type": "bytes32"
        }
      ],
      "stateMutability": "view",
      "type": "function"
    },
    {
      "inputs": [
        {
          "internalType": "bytes32",
          "name": "role",
          "type": "bytes32"
        },
        {
          "internalType": "address",
          "name": "account",
          "type": "address"
        }
      ],
      "name": "grantRole",
      "outputs": [],
      "stateMutability": "nonpayable",
      "type": "function"
    },
    {
      "inputs": [
        {
          "internalType": "bytes32",
          "name": "role",
          "type": "bytes32"
        },
        {
          "internalType": "address",
          "name": "account",
          "type": "address"
        }
      ],
      "name": "hasRole",
      "outputs": [
        {
          "internalType": "bool",
          "name": "",
          "type": "bool"
        }
      ],
      "stateMutability": "view",
      "type": "function"
    },
    {
      "inputs": [
        {
          "internalType": "address",
          "name": "spender",
          "type": "address"
        },
        {
          "internalType": "uint256",
          "name": "addedValue",
          "type": "uint256"
        }
      ],
      "name": "increaseAllowance",
      "outputs": [
        {
          "internalType": "bool",
          "name": "",
          "type": "bool"
        }
      ],
      "stateMutability": "nonpayable",
      "type": "function"
    },
    {
      "inputs": [],
      "name": "name",
      "outputs": [
        {
          "internalType": "string",
          "name": "",
          "type": "string"
        }
      ],
      "stateMutability": "view",
      "type": "function"
    },
    {
      "inputs": [],
      "name": "paused",
      "outputs": [
        {
          "internalType": "bool",
          "name": "",
          "type": "bool"
        }
      ],
      "stateMutability": "view",
      "type": "function"
    },
    {
      "inputs": [
        {
          "internalType": "uint256",
          "name": "",
          "type": "uint256"
        }
      ],
      "name": "pollMapping",
      "outputs": [
        {
          "internalType": "uint256",
          "name": "commitEndDate",
          "type": "uint256"
        },
        {
          "internalType": "uint256",
          "name": "voteQuorum",
          "type": "uint256"
        },
        {
          "internalType": "uint256",
          "name": "votesFor",
          "type": "uint256"
        },
        {
          "internalType": "uint256",
          "name": "votesAgainst",
          "type": "uint256"
        },
        {
          "internalType": "bool",
          "name": "ongoing",
          "type": "bool"
        }
      ],
      "stateMutability": "view",
      "type": "function"
    },
    {
      "inputs": [
        {
          "internalType": "bytes32",
          "name": "role",
          "type": "bytes32"
        },
        {
          "internalType": "address",
          "name": "account",
          "type": "address"
        }
      ],
      "name": "renounceRole",
      "outputs": [],
      "stateMutability": "nonpayable",
      "type": "function"
    },
    {
      "inputs": [
        {
          "internalType": "bytes32",
          "name": "role",
          "type": "bytes32"
        },
        {
          "internalType": "address",
          "name": "account",
          "type": "address"
        }
      ],
      "name": "revokeRole",
      "outputs": [],
      "stateMutability": "nonpayable",
      "type": "function"
    },
    {
      "inputs": [
        {
          "internalType": "bytes4",
          "name": "interfaceId",
          "type": "bytes4"
        }
      ],
      "name": "supportsInterface",
      "outputs": [
        {
          "internalType": "bool",
          "name": "",
          "type": "bool"
        }
      ],
      "stateMutability": "view",
      "type": "function"
    },
    {
      "inputs": [],
      "name": "symbol",
      "outputs": [
        {
          "internalType": "string",
          "name": "",
          "type": "string"
        }
      ],
      "stateMutability": "view",
      "type": "function"
    },
    {
      "inputs": [],
      "name": "totalSupply",
      "outputs": [
        {
          "internalType": "uint256",
          "name": "",
          "type": "uint256"
        }
      ],
      "stateMutability": "view",
      "type": "function"
    },
    {
      "inputs": [
        {
          "internalType": "address",
          "name": "recipient",
          "type": "address"
        },
        {
          "internalType": "uint256",
          "name": "amount",
          "type": "uint256"
        }
      ],
      "name": "transfer",
      "outputs": [
        {
          "internalType": "bool",
          "name": "",
          "type": "bool"
        }
      ],
      "stateMutability": "nonpayable",
      "type": "function"
    },
    {
      "inputs": [
        {
          "internalType": "address",
          "name": "sender",
          "type": "address"
        },
        {
          "internalType": "address",
          "name": "recipient",
          "type": "address"
        },
        {
          "internalType": "uint256",
          "name": "amount",
          "type": "uint256"
        }
      ],
      "name": "transferFrom",
      "outputs": [
        {
          "internalType": "bool",
          "name": "",
          "type": "bool"
        }
      ],
      "stateMutability": "nonpayable",
      "type": "function"
    },
    {
      "inputs": [
        {
          "internalType": "uint256",
          "name": "_voteQuorum",
          "type": "uint256"
        },
        {
          "internalType": "uint256",
          "name": "_commitDuration",
          "type": "uint256"
        }
      ],
      "name": "startPoll",
      "outputs": [
        {
          "internalType": "uint256",
          "name": "pollID",
          "type": "uint256"
        }
      ],
      "stateMutability": "nonpayable",
      "type": "function"
    },
    {
      "inputs": [
        {
          "internalType": "address",
          "name": "voter",
          "type": "address"
        }
      ],
      "name": "voterAllocation",
      "outputs": [],
      "stateMutability": "nonpayable",
      "type": "function"
    },
    {
      "inputs": [
        {
          "internalType": "address",
          "name": "voter",
          "type": "address"
        }
      ],
      "name": "voteRevokation",
      "outputs": [],
      "stateMutability": "nonpayable",
      "type": "function"
    },
    {
      "inputs": [
        {
          "internalType": "address",
          "name": "voter",
          "type": "address"
        },
        {
          "internalType": "uint256",
          "name": "pollID",
          "type": "uint256"
        }
      ],
      "name": "claimVote",
      "outputs": [],
      "stateMutability": "nonpayable",
      "type": "function"
    },
    {
      "inputs": [
        {
          "internalType": "address",
          "name": "voter",
          "type": "address"
        },
        {
          "internalType": "uint256",
          "name": "pollID",
          "type": "uint256"
        }
      ],
      "name": "numOfVotes",
      "outputs": [
        {
          "internalType": "uint256",
          "name": "votes",
          "type": "uint256"
        }
      ],
      "stateMutability": "view",
      "type": "function"
    },
    {
      "inputs": [
        {
          "internalType": "address",
          "name": "voter",
          "type": "address"
        },
        {
          "internalType": "uint256",
          "name": "votesMade",
          "type": "uint256"
        },
        {
          "internalType": "uint256",
          "name": "pollID",
          "type": "uint256"
        },
        {
          "internalType": "uint256",
          "name": "side",
          "type": "uint256"
        }
      ],
      "name": "makeVote",
      "outputs": [],
      "stateMutability": "nonpayable",
      "type": "function"
    },
    {
      "inputs": [
        {
          "internalType": "uint256",
          "name": "pollID",
          "type": "uint256"
        }
      ],
      "name": "results",
      "outputs": [
        {
          "internalType": "bool",
          "name": "passed",
          "type": "bool"
        }
      ],
      "stateMutability": "nonpayable",
      "type": "function"
    },
    {
      "inputs": [
        {
          "internalType": "uint256",
          "name": "pollID",
          "type": "uint256"
        }
      ],
      "name": "endPoll",
      "outputs": [],
      "stateMutability": "nonpayable",
      "type": "function"
    },
    {
      "inputs": [
        {
          "internalType": "uint256",
          "name": "pollID",
          "type": "uint256"
        }
      ],
      "name": "whenTie",
      "outputs": [
        {
          "internalType": "string",
          "name": "tied",
          "type": "string"
        }
      ],
      "stateMutability": "view",
      "type": "function"
    },
    {
      "inputs": [
        {
          "internalType": "uint256",
          "name": "pollID",
          "type": "uint256"
        }
      ],
      "name": "mintRewards",
      "outputs": [],
      "stateMutability": "payable",
      "type": "function"
    },
    {
      "inputs": [
        {
          "internalType": "uint256",
          "name": "pollID",
          "type": "uint256"
        },
        {
          "internalType": "uint256",
          "name": "timeAdded",
          "type": "uint256"
        }
      ],
      "name": "addTime",
      "outputs": [],
      "stateMutability": "nonpayable",
      "type": "function"
    },
    {
      "inputs": [],
      "name": "pause",
      "outputs": [],
      "stateMutability": "nonpayable",
      "type": "function"
    },
    {
      "inputs": [],
      "name": "unpause",
      "outputs": [],
      "stateMutability": "nonpayable",
      "type": "function"
    },
    {
      "inputs": [
        {
          "internalType": "address",
          "name": "to",
          "type": "address"
        },
        {
          "internalType": "uint256",
          "name": "amount",
          "type": "uint256"
        }
      ],
      "name": "mint",
      "outputs": [],
      "stateMutability": "nonpayable",
      "type": "function"
    },
    {
      "inputs": [
        {
          "internalType": "uint256",
          "name": "_pollID",
          "type": "uint256"
        }
      ],
      "name": "pollExists",
      "outputs": [
        {
          "internalType": "bool",
          "name": "exists",
          "type": "bool"
        }
      ],
      "stateMutability": "view",
      "type": "function"
    },
    {
      "inputs": [
        {
          "internalType": "uint256",
          "name": "_pollID",
          "type": "uint256"
        }
      ],
      "name": "pollEnded",
      "outputs": [
        {
          "internalType": "bool",
          "name": "ended",
          "type": "bool"
        }
      ],
      "stateMutability": "view",
      "type": "function"
    },
    {
      "inputs": [
        {
          "internalType": "uint256",
          "name": "_terminationDate",
          "type": "uint256"
        }
      ],
      "name": "isNotExpired",
      "outputs": [
        {
          "internalType": "bool",
          "name": "expired",
          "type": "bool"
        }
      ],
      "stateMutability": "view",
      "type": "function"
    }
  ],
  "bytecode": "0x608060405260006008553480156200001657600080fd5b506040518060400160405280600381526020017f4d616900000000000000000000000000000000000000000000000000000000008152506040518060400160405280600381526020017f4d4149000000000000000000000000000000000000000000000000000000000081525081600390805190602001906200009b92919062000504565b508060049080519060200190620000b492919062000504565b5050506000600660006101000a81548160ff0219169083151502179055506200011033620000e76200018f60201b60201c565b600a620000f5919062000773565b6103e8620001049190620008b0565b6200019860201b60201c565b620001256000801b33620002fd60201b60201c565b620001577f9f2df0fed2c77648de5860a4cc508cd0818c85b8b8a1ab4ceeef8d981c8956a633620002fd60201b60201c565b620001897f72c3eec1760bf69946625c2d4fb8e44e2c806345041960b434674fb9ab3976cf33620002fd60201b60201c565b620009c9565b60006012905090565b600073ffffffffffffffffffffffffffffffffffffffff168273ffffffffffffffffffffffffffffffffffffffff1614156200020b576040517f08c379a000000000000000000000000000000000000000000000000000000000815260040162000202906200066b565b60405180910390fd5b6200021f600083836200031360201b60201c565b8060026000828254620002339190620006bb565b92505081905550806000808473ffffffffffffffffffffffffffffffffffffffff1673ffffffffffffffffffffffffffffffffffffffff16815260200190815260200160002060008282546200028a9190620006bb565b925050819055508173ffffffffffffffffffffffffffffffffffffffff16600073ffffffffffffffffffffffffffffffffffffffff167fddf252ad1be2c89b69c2b068fc378daa952ba7f163c4a11628f55a4df523b3ef83604051620002f191906200068d565b60405180910390a35050565b6200030f82826200038360201b60201c565b5050565b620003236200047560201b60201c565b1562000366576040517f08c379a00000000000000000000000000000000000000000000000000000000081526004016200035d9062000649565b60405180910390fd5b6200037e8383836200048c60201b620021021760201c565b505050565b6200039582826200049160201b60201c565b620004715760016005600084815260200190815260200160002060000160008373ffffffffffffffffffffffffffffffffffffffff1673ffffffffffffffffffffffffffffffffffffffff16815260200190815260200160002060006101000a81548160ff02191690831515021790555062000416620004fc60201b60201c565b73ffffffffffffffffffffffffffffffffffffffff168173ffffffffffffffffffffffffffffffffffffffff16837f2f8788117e7eff1d82e926ec794901d17c78024a50270940304540a733656f0d60405160405180910390a45b5050565b6000600660009054906101000a900460ff16905090565b505050565b60006005600084815260200190815260200160002060000160008373ffffffffffffffffffffffffffffffffffffffff1673ffffffffffffffffffffffffffffffffffffffff16815260200190815260200160002060009054906101000a900460ff16905092915050565b600033905090565b828054620005129062000928565b90600052602060002090601f01602090048101928262000536576000855562000582565b82601f106200055157805160ff191683800117855562000582565b8280016001018555821562000582579182015b828111156200058157825182559160200191906001019062000564565b5b50905062000591919062000595565b5090565b5b80821115620005b057600081600090555060010162000596565b5090565b6000620005c3601083620006aa565b91507f5061757361626c653a20706175736564000000000000000000000000000000006000830152602082019050919050565b600062000605601f83620006aa565b91507f45524332303a206d696e7420746f20746865207a65726f2061646472657373006000830152602082019050919050565b620006438162000911565b82525050565b600060208201905081810360008301526200066481620005b4565b9050919050565b600060208201905081810360008301526200068681620005f6565b9050919050565b6000602082019050620006a4600083018462000638565b92915050565b600082825260208201905092915050565b6000620006c88262000911565b9150620006d58362000911565b9250827fffffffffffffffffffffffffffffffffffffffffffffffffffffffffffffffff038211156200070d576200070c6200095e565b5b828201905092915050565b6000808291508390505b60018511156200076a578086048111156200074257620007416200095e565b5b6001851615620007525780820291505b80810290506200076285620009bc565b945062000722565b94509492505050565b6000620007808262000911565b91506200078d836200091b565b9250620007bc7fffffffffffffffffffffffffffffffffffffffffffffffffffffffffffffffff8484620007c4565b905092915050565b600082620007d65760019050620008a9565b81620007e65760009050620008a9565b8160018114620007ff57600281146200080a5762000840565b6001915050620008a9565b60ff8411156200081f576200081e6200095e565b5b8360020a9150848211156200083957620008386200095e565b5b50620008a9565b5060208310610133831016604e8410600b84101617156200087a5782820a9050838111156200087457620008736200095e565b5b620008a9565b62000889848484600162000718565b92509050818404811115620008a357620008a26200095e565b5b81810290505b9392505050565b6000620008bd8262000911565b9150620008ca8362000911565b9250817fffffffffffffffffffffffffffffffffffffffffffffffffffffffffffffffff04831182151516156200090657620009056200095e565b5b828202905092915050565b6000819050919050565b600060ff82169050919050565b600060028204905060018216806200094157607f821691505b602082108114156200095857620009576200098d565b5b50919050565b7f4e487b7100000000000000000000000000000000000000000000000000000000600052601160045260246000fd5b7f4e487b7100000000000000000000000000000000000000000000000000000000600052602260045260246000fd5b60008160011c9050919050565b6141e280620009d96000396000f3fe6080604052600436106102515760003560e01c8063791581c611610139578063a9059cbb116100b6578063d547741f1161007a578063d547741f1461093d578063d930245d14610966578063dd62ed3e1461098f578063e63ab1e9146109cc578063ee684830146109f7578063f43b877814610a3457610251565b8063a9059cbb14610844578063a94015c814610881578063b359dd43146108ac578063b687bcc0146108e9578063d53913931461091257610251565b806391d14854116100fd57806391d148541461074b57806395d89b41146107885780639855ae20146107b3578063a217fddf146107dc578063a457c2d71461080757610251565b8063791581c61461066857806379cc6790146106915780638456cb59146106ba57806388d21ff3146106d15780638c4055031461070e57610251565b806336568abe116101d257806342966c681161019657806342966c68146105555780634828ced91461057e5780635c975abb1461059a5780636c1d0c3a146105c557806370a08231146105ee57806378de12391461062b57610251565b806336568abe1461046e578063372c48e11461049757806339509351146104d85780633f4ba83a1461051557806340c10f191461052c57610251565b80631b0c27da116102195780631b0c27da1461036357806323b872dd146103a0578063248a9ca3146103dd5780632f2ff15d1461041a578063313ce5671461044357610251565b806301ffc9a71461025657806303d29a5b1461029357806306fdde03146102d0578063095ea7b3146102fb57806318160ddd14610338575b600080fd5b34801561026257600080fd5b5061027d6004803603810190610278919061321a565b610a5d565b60405161028a9190613b52565b60405180910390f35b34801561029f57600080fd5b506102ba60048036038101906102b59190613243565b610ad7565b6040516102c79190613b52565b60405180910390f35b3480156102dc57600080fd5b506102e5610ae3565b6040516102f29190613b88565b60405180910390f35b34801561030757600080fd5b50610322600480360381019061031d9190613116565b610b75565b60405161032f9190613b52565b60405180910390f35b34801561034457600080fd5b5061034d610b93565b60405161035a9190613e0a565b60405180910390f35b34801561036f57600080fd5b5061038a60048036038101906103859190613243565b610b9d565b6040516103979190613b52565b60405180910390f35b3480156103ac57600080fd5b506103c760048036038101906103c291906130c7565b610c5d565b6040516103d49190613b52565b60405180910390f35b3480156103e957600080fd5b5061040460048036038101906103ff91906131b5565b610d5e565b6040516104119190613b6d565b60405180910390f35b34801561042657600080fd5b50610441600480360381019061043c91906131de565b610d7e565b005b34801561044f57600080fd5b50610458610da7565b6040516104659190613ea1565b60405180910390f35b34801561047a57600080fd5b50610495600480360381019061049091906131de565b610db0565b005b3480156104a357600080fd5b506104be60048036038101906104b99190613243565b610e33565b6040516104cf959493929190613e4e565b60405180910390f35b3480156104e457600080fd5b506104ff60048036038101906104fa9190613116565b610e76565b60405161050c9190613b52565b60405180910390f35b34801561052157600080fd5b5061052a610f22565b005b34801561053857600080fd5b50610553600480360381019061054e9190613116565b610f5f565b005b34801561056157600080fd5b5061057c60048036038101906105779190613243565b610fa0565b005b61059860048036038101906105939190613243565b610fb4565b005b3480156105a657600080fd5b506105af61105a565b6040516105bc9190613b52565b60405180910390f35b3480156105d157600080fd5b506105ec60048036038101906105e79190613062565b611071565b005b3480156105fa57600080fd5b5061061560048036038101906106109190613062565b6110e1565b6040516106229190613e0a565b60405180910390f35b34801561063757600080fd5b50610652600480360381019061064d9190613243565b611129565b60405161065f9190613b88565b60405180910390f35b34801561067457600080fd5b5061068f600480360381019061068a919061326c565b6111b4565b005b34801561069d57600080fd5b506106b860048036038101906106b39190613116565b611250565b005b3480156106c657600080fd5b506106cf6112d4565b005b3480156106dd57600080fd5b506106f860048036038101906106f39190613243565b611311565b6040516107059190613b52565b60405180910390f35b34801561071a57600080fd5b5061073560048036038101906107309190613116565b61132c565b6040516107429190613e0a565b60405180910390f35b34801561075757600080fd5b50610772600480360381019061076d91906131de565b61138a565b60405161077f9190613b52565b60405180910390f35b34801561079457600080fd5b5061079d6113f5565b6040516107aa9190613b88565b60405180910390f35b3480156107bf57600080fd5b506107da60048036038101906107d59190613152565b611487565b005b3480156107e857600080fd5b506107f1611904565b6040516107fe9190613b6d565b60405180910390f35b34801561081357600080fd5b5061082e60048036038101906108299190613116565b61190b565b60405161083b9190613b52565b60405180910390f35b34801561085057600080fd5b5061086b60048036038101906108669190613116565b6119ff565b6040516108789190613b52565b60405180910390f35b34801561088d57600080fd5b50610896611a1d565b6040516108a39190613b6d565b60405180910390f35b3480156108b857600080fd5b506108d360048036038101906108ce919061326c565b611a41565b6040516108e09190613e0a565b60405180910390f35b3480156108f557600080fd5b50610910600480360381019061090b9190613062565b611b31565b005b34801561091e57600080fd5b50610927611bb8565b6040516109349190613b6d565b60405180910390f35b34801561094957600080fd5b50610964600480360381019061095f91906131de565b611bdc565b005b34801561097257600080fd5b5061098d60048036038101906109889190613116565b611c05565b005b34801561099b57600080fd5b506109b660048036038101906109b1919061308b565b611fa6565b6040516109c39190613e0a565b60405180910390f35b3480156109d857600080fd5b506109e161202d565b6040516109ee9190613b6d565b60405180910390f35b348015610a0357600080fd5b50610a1e6004803603810190610a199190613243565b612051565b604051610a2b9190613b52565b60405180910390f35b348015610a4057600080fd5b50610a5b6004803603810190610a569190613243565b61208b565b005b60007f7965db0b000000000000000000000000000000000000000000000000000000007bffffffffffffffffffffffffffffffffffffffffffffffffffffffff1916827bffffffffffffffffffffffffffffffffffffffffffffffffffffffff19161480610ad05750610acf82612107565b5b9050919050565b60008142119050919050565b606060038054610af2906140af565b80601f0160208091040260200160405190810160405280929190818152602001828054610b1e906140af565b8015610b6b5780601f10610b4057610100808354040283529160200191610b6b565b820191906000526020600020905b815481529060010190602001808311610b4e57829003601f168201915b5050505050905090565b6000610b89610b82612171565b8484612179565b6001905092915050565b6000600254905090565b6000610ba88261208b565b60001515610bb583610ad7565b151514610bc157600080fd5b610bca82611311565b610bd357600080fd5b600760008381526020019081526020016000206003015460076000848152602001908152602001600020600201541115610c105760019050610c58565b600760008381526020019081526020016000206003015460076000848152602001908152602001600020600201541015610c4d5760009050610c58565b610c5682611129565b505b919050565b6000610c6a848484612344565b6000600160008673ffffffffffffffffffffffffffffffffffffffff1673ffffffffffffffffffffffffffffffffffffffff1681526020019081526020016000206000610cb5612171565b73ffffffffffffffffffffffffffffffffffffffff1673ffffffffffffffffffffffffffffffffffffffff16815260200190815260200160002054905082811015610d35576040517f08c379a0000000000000000000000000000000000000000000000000000000008152600401610d2c90613cea565b60405180910390fd5b610d5285610d41612171565b8584610d4d9190613f93565b612179565b60019150509392505050565b600060056000838152602001908152602001600020600101549050919050565b610d8782610d5e565b610d9881610d93612171565b6125c3565b610da28383612660565b505050565b60006012905090565b610db8612171565b73ffffffffffffffffffffffffffffffffffffffff168173ffffffffffffffffffffffffffffffffffffffff1614610e25576040517f08c379a0000000000000000000000000000000000000000000000000000000008152600401610e1c90613dca565b60405180910390fd5b610e2f8282612741565b5050565b60076020528060005260406000206000915090508060000154908060010154908060020154908060030154908060040160009054906101000a900460ff16905085565b6000610f18610e83612171565b848460016000610e91612171565b73ffffffffffffffffffffffffffffffffffffffff1673ffffffffffffffffffffffffffffffffffffffff16815260200190815260200160002060008873ffffffffffffffffffffffffffffffffffffffff1673ffffffffffffffffffffffffffffffffffffffff16815260200190815260200160002054610f139190613ee3565b612179565b6001905092915050565b610f4c7f65d7a28e3265b37a6474929f336521b332c1681b933f6cb9f3376673440d862a3361138a565b610f5557600080fd5b610f5d612823565b565b610f897f9f2df0fed2c77648de5860a4cc508cd0818c85b8b8a1ab4ceeef8d981c8956a63361138a565b610f9257600080fd5b610f9c82826128c5565b5050565b610fb1610fab612171565b82612a19565b50565b600015156007600083815260200190815260200160002060040160009054906101000a900460ff16151514610fe857600080fd5b6110083360076000848152602001908152602001600020600101546128c5565b7f815e966a30d910f09bbe731021156b873eaca737ddd8f638c08f40c47d4c55da60076000838152602001908152602001600020600101548260405161104f929190613e25565b60405180910390a150565b6000600660009054906101000a900460ff16905090565b61109b7f72c3eec1760bf69946625c2d4fb8e44e2c806345041960b434674fb9ab3976cf82611bdc565b8073ffffffffffffffffffffffffffffffffffffffff167fc8f0ca04e3a4bee64fa8f12ab2c36bf665502f928567c2adfbbcc4ad796ed26960405160405180910390a250565b60008060008373ffffffffffffffffffffffffffffffffffffffff1673ffffffffffffffffffffffffffffffffffffffff168152602001908152602001600020549050919050565b606061113482611311565b61113d57600080fd5b6007600083815260200190815260200160002060030154600760008481526020019081526020016000206002015414156111ae576040518060400160405280600981526020017f506f6c6c2074696564000000000000000000000000000000000000000000000081525090506111af565b5b919050565b6111bd82611311565b6111c657600080fd5b60008111611209576040517f08c379a000000000000000000000000000000000000000000000000000000000815260040161120090613cca565b60405180910390fd5b611232816007600085815260200190815260200160002060000154612bed90919063ffffffff16565b60076000848152602001908152602001600020600001819055505050565b60006112638361125e612171565b611fa6565b9050818110156112a8576040517f08c379a000000000000000000000000000000000000000000000000000000000815260040161129f90613d0a565b60405180910390fd5b6112c5836112b4612171565b84846112c09190613f93565b612179565b6112cf8383612a19565b505050565b6112fe7f65d7a28e3265b37a6474929f336521b332c1681b933f6cb9f3376673440d862a3361138a565b61130757600080fd5b61130f612c03565b565b600080821415801561132557506008548211155b9050919050565b60006007600083815260200190815260200160002060060160008473ffffffffffffffffffffffffffffffffffffffff1673ffffffffffffffffffffffffffffffffffffffff16815260200190815260200160002054905092915050565b60006005600084815260200190815260200160002060000160008373ffffffffffffffffffffffffffffffffffffffff1673ffffffffffffffffffffffffffffffffffffffff16815260200190815260200160002060009054906101000a900460ff16905092915050565b606060048054611404906140af565b80601f0160208091040260200160405190810160405280929190818152602001828054611430906140af565b801561147d5780601f106114525761010080835404028352916020019161147d565b820191906000526020600020905b81548152906001019060200180831161146057829003601f168201915b5050505050905090565b61148f61105a565b156114cf576040517f08c379a00000000000000000000000000000000000000000000000000000000081526004016114c690613caa565b60405180910390fd5b83600015156114fe7f72c3eec1760bf69946625c2d4fb8e44e2c806345041960b434674fb9ab3976cf8361138a565b151514801561151757506103e8611514826110e1565b10155b156115265761152581611b31565b5b600115156115547f72c3eec1760bf69946625c2d4fb8e44e2c806345041960b434674fb9ab3976cf8361138a565b151514801561156c57506103e861156a826110e1565b105b1561157b5761157a81611071565b5b6115a57f72c3eec1760bf69946625c2d4fb8e44e2c806345041960b434674fb9ab3976cf8261138a565b806115ba57506103e86115b7826110e1565b10155b6115f9576040517f08c379a00000000000000000000000000000000000000000000000000000000081526004016115f090613c8a565b60405180910390fd5b60016007600085815260200190815260200160002060040160006101000a81548160ff021916908315150217905561163057600080fd5b61163983610ad7565b61164257600080fd5b60006007600085815260200190815260200160002060060160008773ffffffffffffffffffffffffffffffffffffffff1673ffffffffffffffffffffffffffffffffffffffff16815260200190815260200160002054116116d8576040517f08c379a00000000000000000000000000000000000000000000000000000000081526004016116cf90613d8a565b60405180910390fd5b6007600084815260200190815260200160002060060160008673ffffffffffffffffffffffffffffffffffffffff1673ffffffffffffffffffffffffffffffffffffffff1681526020019081526020016000205484111561173857600080fd5b60018214806117475750600282145b61175057600080fd5b60018214156117a25761178360016007600086815260200190815260200160002060020154612bed90919063ffffffff16565b60076000858152602001908152602001600020600201819055506117f1565b60028214156117f0576117d560016007600086815260200190815260200160002060030154612bed90919063ffffffff16565b60076000858152602001908152602001600020600301819055505b5b611857846007600086815260200190815260200160002060060160008873ffffffffffffffffffffffffffffffffffffffff1673ffffffffffffffffffffffffffffffffffffffff16815260200190815260200160002054612ca690919063ffffffff16565b6007600085815260200190815260200160002060060160008773ffffffffffffffffffffffffffffffffffffffff1673ffffffffffffffffffffffffffffffffffffffff168152602001908152602001600020819055508473ffffffffffffffffffffffffffffffffffffffff16837fb8032ae25c12382c9eae96f471eca2deb60c0e3f794645265e43090947023956866040516118f59190613e0a565b60405180910390a35050505050565b6000801b81565b6000806001600061191a612171565b73ffffffffffffffffffffffffffffffffffffffff1673ffffffffffffffffffffffffffffffffffffffff16815260200190815260200160002060008573ffffffffffffffffffffffffffffffffffffffff1673ffffffffffffffffffffffffffffffffffffffff168152602001908152602001600020549050828110156119d7576040517f08c379a00000000000000000000000000000000000000000000000000000000081526004016119ce90613daa565b60405180910390fd5b6119f46119e2612171565b8585846119ef9190613f93565b612179565b600191505092915050565b6000611a13611a0c612171565b8484612344565b6001905092915050565b7f72c3eec1760bf69946625c2d4fb8e44e2c806345041960b434674fb9ab3976cf81565b600080611a578342612bed90919063ffffffff16565b9050611a6f6001600854612bed90919063ffffffff16565b60088190555060006007600060085481526020019081526020016000209050848160010181905550818160000181905550600081600201819055506000816003018190555060018160040160006101000a81548160ff0219169083151502179055503373ffffffffffffffffffffffffffffffffffffffff166008547f75c3234b322da18df8c948bde9b9983e5a43633c4e2647d4d9f4f15c0706f05d8785604051611b1c929190613e25565b60405180910390a36008549250505092915050565b6103e8611b3d826110e1565b1015611b4857600080fd5b611b727f72c3eec1760bf69946625c2d4fb8e44e2c806345041960b434674fb9ab3976cf82610d7e565b8073ffffffffffffffffffffffffffffffffffffffff167f3025407ee9b066f6cd97886b0c47bda6b6ebbb42d2c7574284f5814cfd3a504a60405160405180910390a250565b7f9f2df0fed2c77648de5860a4cc508cd0818c85b8b8a1ab4ceeef8d981c8956a681565b611be582610d5e565b611bf681611bf1612171565b6125c3565b611c008383612741565b505050565b611c0d61105a565b15611c4d576040517f08c379a0000000000000000000000000000000000000000000000000000000008152600401611c4490613caa565b60405180910390fd5b8160001515611c7c7f72c3eec1760bf69946625c2d4fb8e44e2c806345041960b434674fb9ab3976cf8361138a565b1515148015611c9557506103e8611c92826110e1565b10155b15611ca457611ca381611b31565b5b60011515611cd27f72c3eec1760bf69946625c2d4fb8e44e2c806345041960b434674fb9ab3976cf8361138a565b1515148015611cea57506103e8611ce8826110e1565b105b15611cf957611cf881611071565b5b611d237f72c3eec1760bf69946625c2d4fb8e44e2c806345041960b434674fb9ab3976cf8261138a565b80611d3857506103e8611d35826110e1565b10155b611d77576040517f08c379a0000000000000000000000000000000000000000000000000000000008152600401611d6e90613c8a565b60405180910390fd5b6000611de16103e76007600086815260200190815260200160002060050160008773ffffffffffffffffffffffffffffffffffffffff1673ffffffffffffffffffffffffffffffffffffffff16815260200190815260200160002054612ca690919063ffffffff16565b905060008111611e26576040517f08c379a0000000000000000000000000000000000000000000000000000000008152600401611e1d90613c6a565b60405180910390fd5b611e8c816007600086815260200190815260200160002060050160008773ffffffffffffffffffffffffffffffffffffffff1673ffffffffffffffffffffffffffffffffffffffff16815260200190815260200160002054612bed90919063ffffffff16565b6007600085815260200190815260200160002060050160008673ffffffffffffffffffffffffffffffffffffffff1673ffffffffffffffffffffffffffffffffffffffff16815260200190815260200160002081905550611f49816007600086815260200190815260200160002060060160008773ffffffffffffffffffffffffffffffffffffffff1673ffffffffffffffffffffffffffffffffffffffff16815260200190815260200160002054612bed90919063ffffffff16565b6007600085815260200190815260200160002060060160008673ffffffffffffffffffffffffffffffffffffffff1673ffffffffffffffffffffffffffffffffffffffff1681526020019081526020016000208190555050505050565b6000600160008473ffffffffffffffffffffffffffffffffffffffff1673ffffffffffffffffffffffffffffffffffffffff16815260200190815260200160002060008373ffffffffffffffffffffffffffffffffffffffff1673ffffffffffffffffffffffffffffffffffffffff16815260200190815260200160002054905092915050565b7f65d7a28e3265b37a6474929f336521b332c1681b933f6cb9f3376673440d862a81565b600061205c82611311565b61206557600080fd5b6120846007600084815260200190815260200160002060000154610ad7565b9050919050565b6120b57f65d7a28e3265b37a6474929f336521b332c1681b933f6cb9f3376673440d862a3361138a565b6120be57600080fd5b6120c781611311565b6120d057600080fd5b60006007600083815260200190815260200160002060040160006101000a81548160ff02191690831515021790555050565b505050565b60007f01ffc9a7000000000000000000000000000000000000000000000000000000007bffffffffffffffffffffffffffffffffffffffffffffffffffffffff1916827bffffffffffffffffffffffffffffffffffffffffffffffffffffffff1916149050919050565b600033905090565b600073ffffffffffffffffffffffffffffffffffffffff168373ffffffffffffffffffffffffffffffffffffffff1614156121e9576040517f08c379a00000000000000000000000000000000000000000000000000000000081526004016121e090613d6a565b60405180910390fd5b600073ffffffffffffffffffffffffffffffffffffffff168273ffffffffffffffffffffffffffffffffffffffff161415612259576040517f08c379a000000000000000000000000000000000000000000000000000000000815260040161225090613c2a565b60405180910390fd5b80600160008573ffffffffffffffffffffffffffffffffffffffff1673ffffffffffffffffffffffffffffffffffffffff16815260200190815260200160002060008473ffffffffffffffffffffffffffffffffffffffff1673ffffffffffffffffffffffffffffffffffffffff168152602001908152602001600020819055508173ffffffffffffffffffffffffffffffffffffffff168373ffffffffffffffffffffffffffffffffffffffff167f8c5be1e5ebec7d5bd14f71427d1e84f3dd0314c0f7b2291e5b200ac8c7c3b925836040516123379190613e0a565b60405180910390a3505050565b600073ffffffffffffffffffffffffffffffffffffffff168373ffffffffffffffffffffffffffffffffffffffff1614156123b4576040517f08c379a00000000000000000000000000000000000000000000000000000000081526004016123ab90613d4a565b60405180910390fd5b600073ffffffffffffffffffffffffffffffffffffffff168273ffffffffffffffffffffffffffffffffffffffff161415612424576040517f08c379a000000000000000000000000000000000000000000000000000000000815260040161241b90613bca565b60405180910390fd5b61242f838383612cbc565b60008060008573ffffffffffffffffffffffffffffffffffffffff1673ffffffffffffffffffffffffffffffffffffffff168152602001908152602001600020549050818110156124b5576040517f08c379a00000000000000000000000000000000000000000000000000000000081526004016124ac90613c4a565b60405180910390fd5b81816124c19190613f93565b6000808673ffffffffffffffffffffffffffffffffffffffff1673ffffffffffffffffffffffffffffffffffffffff16815260200190815260200160002081905550816000808573ffffffffffffffffffffffffffffffffffffffff1673ffffffffffffffffffffffffffffffffffffffff16815260200190815260200160002060008282546125519190613ee3565b925050819055508273ffffffffffffffffffffffffffffffffffffffff168473ffffffffffffffffffffffffffffffffffffffff167fddf252ad1be2c89b69c2b068fc378daa952ba7f163c4a11628f55a4df523b3ef846040516125b59190613e0a565b60405180910390a350505050565b6125cd828261138a565b61265c576125f28173ffffffffffffffffffffffffffffffffffffffff166014612d14565b6126008360001c6020612d14565b604051602001612611929190613afd565b6040516020818303038152906040526040517f08c379a00000000000000000000000000000000000000000000000000000000081526004016126539190613b88565b60405180910390fd5b5050565b61266a828261138a565b61273d5760016005600084815260200190815260200160002060000160008373ffffffffffffffffffffffffffffffffffffffff1673ffffffffffffffffffffffffffffffffffffffff16815260200190815260200160002060006101000a81548160ff0219169083151502179055506126e2612171565b73ffffffffffffffffffffffffffffffffffffffff168173ffffffffffffffffffffffffffffffffffffffff16837f2f8788117e7eff1d82e926ec794901d17c78024a50270940304540a733656f0d60405160405180910390a45b5050565b61274b828261138a565b1561281f5760006005600084815260200190815260200160002060000160008373ffffffffffffffffffffffffffffffffffffffff1673ffffffffffffffffffffffffffffffffffffffff16815260200190815260200160002060006101000a81548160ff0219169083151502179055506127c4612171565b73ffffffffffffffffffffffffffffffffffffffff168173ffffffffffffffffffffffffffffffffffffffff16837ff6391f5c32d9c69d2a47ea670b442974b53935d1edc7fd64eb21e047a839171b60405160405180910390a45b5050565b61282b61105a565b61286a576040517f08c379a000000000000000000000000000000000000000000000000000000000815260040161286190613bea565b60405180910390fd5b6000600660006101000a81548160ff0219169083151502179055507f5db9ee0a495bf2e6ff9c91a7834c1ba4fdd244a5e8aa4e537bd38aeae4b073aa6128ae612171565b6040516128bb9190613b37565b60405180910390a1565b600073ffffffffffffffffffffffffffffffffffffffff168273ffffffffffffffffffffffffffffffffffffffff161415612935576040517f08c379a000000000000000000000000000000000000000000000000000000000815260040161292c90613dea565b60405180910390fd5b61294160008383612cbc565b80600260008282546129539190613ee3565b92505081905550806000808473ffffffffffffffffffffffffffffffffffffffff1673ffffffffffffffffffffffffffffffffffffffff16815260200190815260200160002060008282546129a89190613ee3565b925050819055508173ffffffffffffffffffffffffffffffffffffffff16600073ffffffffffffffffffffffffffffffffffffffff167fddf252ad1be2c89b69c2b068fc378daa952ba7f163c4a11628f55a4df523b3ef83604051612a0d9190613e0a565b60405180910390a35050565b600073ffffffffffffffffffffffffffffffffffffffff168273ffffffffffffffffffffffffffffffffffffffff161415612a89576040517f08c379a0000000000000000000000000000000000000000000000000000000008152600401612a8090613d2a565b60405180910390fd5b612a9582600083612cbc565b60008060008473ffffffffffffffffffffffffffffffffffffffff1673ffffffffffffffffffffffffffffffffffffffff16815260200190815260200160002054905081811015612b1b576040517f08c379a0000000000000000000000000000000000000000000000000000000008152600401612b1290613c0a565b60405180910390fd5b8181612b279190613f93565b6000808573ffffffffffffffffffffffffffffffffffffffff1673ffffffffffffffffffffffffffffffffffffffff168152602001908152602001600020819055508160026000828254612b7b9190613f93565b92505081905550600073ffffffffffffffffffffffffffffffffffffffff168373ffffffffffffffffffffffffffffffffffffffff167fddf252ad1be2c89b69c2b068fc378daa952ba7f163c4a11628f55a4df523b3ef84604051612be09190613e0a565b60405180910390a3505050565b60008183612bfb9190613ee3565b905092915050565b612c0b61105a565b15612c4b576040517f08c379a0000000000000000000000000000000000000000000000000000000008152600401612c4290613caa565b60405180910390fd5b6001600660006101000a81548160ff0219169083151502179055507f62e78cea01bee320cd4e420270b5ea74000d11b0c9f74754ebdbfc544b05a258612c8f612171565b604051612c9c9190613b37565b60405180910390a1565b60008183612cb49190613f93565b905092915050565b612cc461105a565b15612d04576040517f08c379a0000000000000000000000000000000000000000000000000000000008152600401612cfb90613caa565b60405180910390fd5b612d0f838383612102565b505050565b606060006002836002612d279190613f39565b612d319190613ee3565b67ffffffffffffffff811115612d70577f4e487b7100000000000000000000000000000000000000000000000000000000600052604160045260246000fd5b6040519080825280601f01601f191660200182016040528015612da25781602001600182028036833780820191505090505b5090507f300000000000000000000000000000000000000000000000000000000000000081600081518110612e00577f4e487b7100000000000000000000000000000000000000000000000000000000600052603260045260246000fd5b60200101907effffffffffffffffffffffffffffffffffffffffffffffffffffffffffffff1916908160001a9053507f780000000000000000000000000000000000000000000000000000000000000081600181518110612e8a577f4e487b7100000000000000000000000000000000000000000000000000000000600052603260045260246000fd5b60200101907effffffffffffffffffffffffffffffffffffffffffffffffffffffffffffff1916908160001a90535060006001846002612eca9190613f39565b612ed49190613ee3565b90505b6001811115612fc0577f3031323334353637383961626364656600000000000000000000000000000000600f861660108110612f3c577f4e487b7100000000000000000000000000000000000000000000000000000000600052603260045260246000fd5b1a60f81b828281518110612f79577f4e487b7100000000000000000000000000000000000000000000000000000000600052603260045260246000fd5b60200101907effffffffffffffffffffffffffffffffffffffffffffffffffffffffffffff1916908160001a905350600485901c945080612fb990614085565b9050612ed7565b5060008414613004576040517f08c379a0000000000000000000000000000000000000000000000000000000008152600401612ffb90613baa565b60405180910390fd5b8091505092915050565b60008135905061301d81614150565b92915050565b60008135905061303281614167565b92915050565b6000813590506130478161417e565b92915050565b60008135905061305c81614195565b92915050565b60006020828403121561307457600080fd5b60006130828482850161300e565b91505092915050565b6000806040838503121561309e57600080fd5b60006130ac8582860161300e565b92505060206130bd8582860161300e565b9150509250929050565b6000806000606084860312156130dc57600080fd5b60006130ea8682870161300e565b93505060206130fb8682870161300e565b925050604061310c8682870161304d565b9150509250925092565b6000806040838503121561312957600080fd5b60006131378582860161300e565b92505060206131488582860161304d565b9150509250929050565b6000806000806080858703121561316857600080fd5b60006131768782880161300e565b94505060206131878782880161304d565b93505060406131988782880161304d565b92505060606131a98782880161304d565b91505092959194509250565b6000602082840312156131c757600080fd5b60006131d584828501613023565b91505092915050565b600080604083850312156131f157600080fd5b60006131ff85828601613023565b92505060206132108582860161300e565b9150509250929050565b60006020828403121561322c57600080fd5b600061323a84828501613038565b91505092915050565b60006020828403121561325557600080fd5b60006132638482850161304d565b91505092915050565b6000806040838503121561327f57600080fd5b600061328d8582860161304d565b925050602061329e8582860161304d565b9150509250929050565b6132b181613fc7565b82525050565b6132c081613fd9565b82525050565b6132cf81613fe5565b82525050565b60006132e082613ebc565b6132ea8185613ec7565b93506132fa818560208601614052565b6133038161413f565b840191505092915050565b600061331982613ebc565b6133238185613ed8565b9350613333818560208601614052565b80840191505092915050565b600061334c602083613ec7565b91507f537472696e67733a20686578206c656e67746820696e73756666696369656e746000830152602082019050919050565b600061338c602383613ec7565b91507f45524332303a207472616e7366657220746f20746865207a65726f206164647260008301527f65737300000000000000000000000000000000000000000000000000000000006020830152604082019050919050565b60006133f2601483613ec7565b91507f5061757361626c653a206e6f74207061757365640000000000000000000000006000830152602082019050919050565b6000613432602283613ec7565b91507f45524332303a206275726e20616d6f756e7420657863656564732062616c616e60008301527f63650000000000000000000000000000000000000000000000000000000000006020830152604082019050919050565b6000613498602283613ec7565b91507f45524332303a20617070726f766520746f20746865207a65726f20616464726560008301527f73730000000000000000000000000000000000000000000000000000000000006020830152604082019050919050565b60006134fe602683613ec7565b91507f45524332303a207472616e7366657220616d6f756e742065786365656473206260008301527f616c616e636500000000000000000000000000000000000000000000000000006020830152604082019050919050565b6000613564602783613ec7565b91507f4164647265737320686173206e6f20766f74657320617661696c61626c65207460008301527f6f20636c61696d000000000000000000000000000000000000000000000000006020830152604082019050919050565b60006135ca604683613ec7565b91507f4f6e6c7920616464726573736573207468617420686176652062616c616e636560008301527f73206f66206f766572203130303020746f6b656e73206172652061626c65207460208301527f6f20766f746500000000000000000000000000000000000000000000000000006040830152606082019050919050565b6000613656601083613ec7565b91507f5061757361626c653a20706175736564000000000000000000000000000000006000830152602082019050919050565b6000613696601c83613ec7565b91507f4d757374206164642074696d652067726561746572207468616e2030000000006000830152602082019050919050565b60006136d6602883613ec7565b91507f45524332303a207472616e7366657220616d6f756e742065786365656473206160008301527f6c6c6f77616e63650000000000000000000000000000000000000000000000006020830152604082019050919050565b600061373c602483613ec7565b91507f45524332303a206275726e20616d6f756e74206578636565647320616c6c6f7760008301527f616e6365000000000000000000000000000000000000000000000000000000006020830152604082019050919050565b60006137a2602183613ec7565b91507f45524332303a206275726e2066726f6d20746865207a65726f2061646472657360008301527f73000000000000000000000000000000000000000000000000000000000000006020830152604082019050919050565b6000613808602583613ec7565b91507f45524332303a207472616e736665722066726f6d20746865207a65726f20616460008301527f64726573730000000000000000000000000000000000000000000000000000006020830152604082019050919050565b600061386e602483613ec7565b91507f45524332303a20617070726f76652066726f6d20746865207a65726f2061646460008301527f72657373000000000000000000000000000000000000000000000000000000006020830152604082019050919050565b60006138d4601783613ed8565b91507f416363657373436f6e74726f6c3a206163636f756e74200000000000000000006000830152601782019050919050565b6000613914604783613ec7565b91507f4164647265737320686173206e6f20766f7465732063757272656e746c792c2060008301527f63616c6c2066756e6374696f6e20636c61696d566f746520746f20636c61696d60208301527f206120766f7465000000000000000000000000000000000000000000000000006040830152606082019050919050565b60006139a0602583613ec7565b91507f45524332303a2064656372656173656420616c6c6f77616e63652062656c6f7760008301527f207a65726f0000000000000000000000000000000000000000000000000000006020830152604082019050919050565b6000613a06601183613ed8565b91507f206973206d697373696e6720726f6c65200000000000000000000000000000006000830152601182019050919050565b6000613a46602f83613ec7565b91507f416363657373436f6e74726f6c3a2063616e206f6e6c792072656e6f756e636560008301527f20726f6c657320666f722073656c6600000000000000000000000000000000006020830152604082019050919050565b6000613aac601f83613ec7565b91507f45524332303a206d696e7420746f20746865207a65726f2061646472657373006000830152602082019050919050565b613ae88161403b565b82525050565b613af781614045565b82525050565b6000613b08826138c7565b9150613b14828561330e565b9150613b1f826139f9565b9150613b2b828461330e565b91508190509392505050565b6000602082019050613b4c60008301846132a8565b92915050565b6000602082019050613b6760008301846132b7565b92915050565b6000602082019050613b8260008301846132c6565b92915050565b60006020820190508181036000830152613ba281846132d5565b905092915050565b60006020820190508181036000830152613bc38161333f565b9050919050565b60006020820190508181036000830152613be38161337f565b9050919050565b60006020820190508181036000830152613c03816133e5565b9050919050565b60006020820190508181036000830152613c2381613425565b9050919050565b60006020820190508181036000830152613c438161348b565b9050919050565b60006020820190508181036000830152613c63816134f1565b9050919050565b60006020820190508181036000830152613c8381613557565b9050919050565b60006020820190508181036000830152613ca3816135bd565b9050919050565b60006020820190508181036000830152613cc381613649565b9050919050565b60006020820190508181036000830152613ce381613689565b9050919050565b60006020820190508181036000830152613d03816136c9565b9050919050565b60006020820190508181036000830152613d238161372f565b9050919050565b60006020820190508181036000830152613d4381613795565b9050919050565b60006020820190508181036000830152613d63816137fb565b9050919050565b60006020820190508181036000830152613d8381613861565b9050919050565b60006020820190508181036000830152613da381613907565b9050919050565b60006020820190508181036000830152613dc381613993565b9050919050565b60006020820190508181036000830152613de381613a39565b9050919050565b60006020820190508181036000830152613e0381613a9f565b9050919050565b6000602082019050613e1f6000830184613adf565b92915050565b6000604082019050613e3a6000830185613adf565b613e476020830184613adf565b9392505050565b600060a082019050613e636000830188613adf565b613e706020830187613adf565b613e7d6040830186613adf565b613e8a6060830185613adf565b613e9760808301846132b7565b9695505050505050565b6000602082019050613eb66000830184613aee565b92915050565b600081519050919050565b600082825260208201905092915050565b600081905092915050565b6000613eee8261403b565b9150613ef98361403b565b9250827fffffffffffffffffffffffffffffffffffffffffffffffffffffffffffffffff03821115613f2e57613f2d6140e1565b5b828201905092915050565b6000613f448261403b565b9150613f4f8361403b565b9250817fffffffffffffffffffffffffffffffffffffffffffffffffffffffffffffffff0483118215151615613f8857613f876140e1565b5b828202905092915050565b6000613f9e8261403b565b9150613fa98361403b565b925082821015613fbc57613fbb6140e1565b5b828203905092915050565b6000613fd28261401b565b9050919050565b60008115159050919050565b6000819050919050565b60007fffffffff0000000000000000000000000000000000000000000000000000000082169050919050565b600073ffffffffffffffffffffffffffffffffffffffff82169050919050565b6000819050919050565b600060ff82169050919050565b60005b83811015614070578082015181840152602081019050614055565b8381111561407f576000848401525b50505050565b60006140908261403b565b915060008214156140a4576140a36140e1565b5b600182039050919050565b600060028204905060018216806140c757607f821691505b602082108114156140db576140da614110565b5b50919050565b7f4e487b7100000000000000000000000000000000000000000000000000000000600052601160045260246000fd5b7f4e487b7100000000000000000000000000000000000000000000000000000000600052602260045260246000fd5b6000601f19601f8301169050919050565b61415981613fc7565b811461416457600080fd5b50565b61417081613fe5565b811461417b57600080fd5b50565b61418781613fef565b811461419257600080fd5b50565b61419e8161403b565b81146141a957600080fd5b5056fea264697066735822122067b27b175bbd19fcc4eba1997ad9495e108eef3256bd984ad48fd8eb30c5348f64736f6c63430008000033",
  "immutableReferences": {},
  "source": "// SPDX-License-Identifier: MIT\npragma solidity >=0.4.22 <0.9.0;\n\nimport \"@openzeppelin/contracts/token/ERC20/ERC20.sol\";\nimport \"@openzeppelin/contracts/token/ERC20/extensions/ERC20Burnable.sol\";\nimport \"@openzeppelin/contracts/access/AccessControl.sol\";\nimport \"@openzeppelin/contracts/utils/math/SafeMath.sol\";\nimport \"@openzeppelin/contracts/security/Pausable.sol\";\n\ncontract Mai is ERC20, ERC20Burnable, AccessControl, Pausable{\n    using SafeMath for uint256;\n    bytes32 public constant PAUSER_ROLE = keccak256(\"PAUSER_ROLE\");\n    bytes32 public constant MINTER_ROLE = keccak256(\"MINTER_ROLE\");\n    bytes32 public constant VOTER_ROLE = keccak256(\"VOTER_ROLE\");\n\n    event _VoteMade(uint256 indexed pollID, uint256 votes, address indexed voter);\n    event _PollCreated(uint voteQuorum, uint commitEndDate, uint indexed pollID, address indexed creator);\n    event _VotingRightsGranted(address indexed voter);\n    event _VotingRightsRevoked(address indexed voter);\n    event _resultsGenerated(uint256 amountMinted, uint256 pollID);\n\n    constructor() ERC20(\"Mai\", \"MAI\") {\n        _mint(msg.sender, 1000 * 10 ** decimals());\n        _setupRole(DEFAULT_ADMIN_ROLE, msg.sender);\n        _setupRole(MINTER_ROLE, msg.sender);\n        _setupRole(VOTER_ROLE, msg.sender);\n    }\n\n    struct Poll {\n        uint256 commitEndDate;\n        uint256 voteQuorum;\n        uint256 votesFor;\n        uint256 votesAgainst;\n        bool ongoing;\n        mapping(address => uint256) _votesClaimed;\n        mapping(address => uint256) _votes;\n    }\n\n    mapping (uint256 => Poll) public pollMapping;\n    uint256 pollNonce = 0;\n\n    function startPoll(uint256 _voteQuorum, uint256 _commitDuration) public returns (uint256 pollID) {\n        uint256 commitEndDate = block.timestamp.add(_commitDuration);\n        pollNonce = pollNonce.add(1);\n        Poll storage newPoll = pollMapping[pollNonce];\n        newPoll.voteQuorum = _voteQuorum;\n        newPoll.commitEndDate = commitEndDate;\n        newPoll.votesFor = 0;\n        newPoll.votesAgainst = 0;\n        newPoll.ongoing = true;\n\n        emit _PollCreated(_voteQuorum, commitEndDate, pollNonce, msg.sender);\n        return pollNonce;\n    }\n\n    function voterAllocation(address voter) public {\n        require(balanceOf(voter) >= 1000);\n        grantRole(VOTER_ROLE, voter);\n        emit _VotingRightsGranted(voter);\n    }\n\n    function voteRevokation(address voter) public {\n        revokeRole(VOTER_ROLE, voter);\n        emit _VotingRightsRevoked(voter);\n    }\n\n    modifier voterCheck(address voter) {\n        if (hasRole(VOTER_ROLE, voter) == false && balanceOf(voter) >= 1000) {\n            voterAllocation(voter);\n        }\n        if (hasRole(VOTER_ROLE, voter) == true && balanceOf(voter) < 1000) {\n           voteRevokation(voter); \n        }\n        require(hasRole(VOTER_ROLE, voter) || balanceOf(voter) >= 1000, \"Only addresses that have balances of over 1000 tokens are able to vote\");\n        _;\n    }\n\n    function claimVote(address voter, uint256 pollID) public whenNotPaused voterCheck(voter) {\n        uint256 claimable = pollMapping[pollID]._votesClaimed[voter].sub(999);\n        require(claimable > 0, \"Address has no votes available to claim\");\n        pollMapping[pollID]._votesClaimed[voter] = pollMapping[pollID]._votesClaimed[voter].add(claimable);\n        pollMapping[pollID]._votes[voter] = pollMapping[pollID]._votes[voter].add(claimable);\n    }\n\n    function numOfVotes(address voter, uint256 pollID) public view returns (uint256 votes) {\n        return pollMapping[pollID]._votes[voter]; \n    }\n\n    function makeVote(address voter, uint256 votesMade, uint256 pollID, uint256 side) public whenNotPaused voterCheck(voter) {\n        require(pollMapping[pollID].ongoing = true);\n        require(isNotExpired(pollID));\n        require(pollMapping[pollID]._votes[voter] > 0, \"Address has no votes currently, call function claimVote to claim a vote\");\n        require(votesMade <= pollMapping[pollID]._votes[voter]);\n        require(side == 1 || side == 2);\n        if (side == 1) {\n            pollMapping[pollID].votesFor = pollMapping[pollID].votesFor.add(1);\n        } else if (side == 2) {\n            pollMapping[pollID].votesAgainst = pollMapping[pollID].votesAgainst.add(1);\n        }\n        pollMapping[pollID]._votes[voter] = pollMapping[pollID]._votes[voter].sub(votesMade);\n        emit _VoteMade(pollID, votesMade, voter); \n    }\n\n    function results(uint256 pollID) public returns (bool passed) {\n        endPoll(pollID);\n        require(isNotExpired(pollID) == false);\n        require(pollExists(pollID));\n        if (pollMapping[pollID].votesFor > pollMapping[pollID].votesAgainst) {\n            return (true);\n        } else if (pollMapping[pollID].votesFor < pollMapping[pollID].votesAgainst) {\n            return (false);\n        } else {\n            whenTie(pollID);\n        }\n    }\n\n    function endPoll(uint pollID) public {\n        require(hasRole(PAUSER_ROLE, msg.sender));\n        require(pollExists(pollID));\n        pollMapping[pollID].ongoing = false;\n    }\n\n    function whenTie(uint256 pollID) public view returns (string memory tied) {\n        require(pollExists(pollID));\n        if (pollMapping[pollID].votesFor == pollMapping[pollID].votesAgainst) {\n            return (\"Poll tied\");\n        }\n    }\n\n    function mintRewards (uint256 pollID) public payable {\n        require(pollMapping[pollID].ongoing == false);\n        _mint(msg.sender, pollMapping[pollID].voteQuorum);\n        emit _resultsGenerated(pollMapping[pollID].voteQuorum, pollID);  \n    }\n        \n    \n    function addTime(uint256 pollID, uint256 timeAdded) public {\n        require (pollExists(pollID)); \n        require(timeAdded > 0, \"Must add time greater than 0\");\n        pollMapping[pollID].commitEndDate = pollMapping[pollID].commitEndDate.add(timeAdded); \n    }\n\n\n    function pause() public {\n        require(hasRole(PAUSER_ROLE, msg.sender));\n        _pause();\n    }\n\n    function unpause() public {\n        require(hasRole(PAUSER_ROLE, msg.sender));\n        _unpause();\n    }\n\n    function _beforeTokenTransfer(address from, address to, uint256 amount)\n        internal\n        whenNotPaused\n        override\n    {\n        super._beforeTokenTransfer(from, to, amount);\n    }\n\n    function mint(address to, uint256 amount) public {\n        require(hasRole(MINTER_ROLE, msg.sender));\n        _mint(to, amount);\n    }\n\n    function pollExists(uint256 _pollID) public view returns (bool exists) {\n        return (_pollID != 0 && _pollID <= pollNonce);\n    }\n\n    function pollEnded(uint256 _pollID) public view returns (bool ended) {\n        require(pollExists(_pollID));\n\n        return isNotExpired(pollMapping[_pollID].commitEndDate);\n    }\n\n    function isNotExpired(uint256 _terminationDate) public view returns (bool expired) {\n        return (block.timestamp > _terminationDate);\n    }\n\n}\n",
  "sourcePath": "/Users/colinlam/Desktop/code/MaiContract/contracts/MaiGeneration.sol",
  "compiler": {
    "name": "solc",
    "version": "0.8.0+commit.c7dfd78e.Emscripten.clang"
  },
  "schemaVersion": "3.4.1",
  "updatedAt": "2021-07-01T06:01:48.818Z",
  "devdoc": {
    "kind": "dev",
    "methods": {
      "allowance(address,address)": {
        "details": "See {IERC20-allowance}."
      },
      "approve(address,uint256)": {
        "details": "See {IERC20-approve}. Requirements: - `spender` cannot be the zero address."
      },
      "balanceOf(address)": {
        "details": "See {IERC20-balanceOf}."
      },
      "burn(uint256)": {
        "details": "Destroys `amount` tokens from the caller. See {ERC20-_burn}."
      },
      "burnFrom(address,uint256)": {
        "details": "Destroys `amount` tokens from `account`, deducting from the caller's allowance. See {ERC20-_burn} and {ERC20-allowance}. Requirements: - the caller must have allowance for ``accounts``'s tokens of at least `amount`."
      },
      "decimals()": {
        "details": "Returns the number of decimals used to get its user representation. For example, if `decimals` equals `2`, a balance of `505` tokens should be displayed to a user as `5,05` (`505 / 10 ** 2`). Tokens usually opt for a value of 18, imitating the relationship between Ether and Wei. This is the value {ERC20} uses, unless this function is overridden; NOTE: This information is only used for _display_ purposes: it in no way affects any of the arithmetic of the contract, including {IERC20-balanceOf} and {IERC20-transfer}."
      },
      "decreaseAllowance(address,uint256)": {
        "details": "Atomically decreases the allowance granted to `spender` by the caller. This is an alternative to {approve} that can be used as a mitigation for problems described in {IERC20-approve}. Emits an {Approval} event indicating the updated allowance. Requirements: - `spender` cannot be the zero address. - `spender` must have allowance for the caller of at least `subtractedValue`."
      },
      "getRoleAdmin(bytes32)": {
        "details": "Returns the admin role that controls `role`. See {grantRole} and {revokeRole}. To change a role's admin, use {_setRoleAdmin}."
      },
      "grantRole(bytes32,address)": {
        "details": "Grants `role` to `account`. If `account` had not been already granted `role`, emits a {RoleGranted} event. Requirements: - the caller must have ``role``'s admin role."
      },
      "hasRole(bytes32,address)": {
        "details": "Returns `true` if `account` has been granted `role`."
      },
      "increaseAllowance(address,uint256)": {
        "details": "Atomically increases the allowance granted to `spender` by the caller. This is an alternative to {approve} that can be used as a mitigation for problems described in {IERC20-approve}. Emits an {Approval} event indicating the updated allowance. Requirements: - `spender` cannot be the zero address."
      },
      "name()": {
        "details": "Returns the name of the token."
      },
      "paused()": {
        "details": "Returns true if the contract is paused, and false otherwise."
      },
      "renounceRole(bytes32,address)": {
        "details": "Revokes `role` from the calling account. Roles are often managed via {grantRole} and {revokeRole}: this function's purpose is to provide a mechanism for accounts to lose their privileges if they are compromised (such as when a trusted device is misplaced). If the calling account had been granted `role`, emits a {RoleRevoked} event. Requirements: - the caller must be `account`."
      },
      "revokeRole(bytes32,address)": {
        "details": "Revokes `role` from `account`. If `account` had been granted `role`, emits a {RoleRevoked} event. Requirements: - the caller must have ``role``'s admin role."
      },
      "supportsInterface(bytes4)": {
        "details": "See {IERC165-supportsInterface}."
      },
      "symbol()": {
        "details": "Returns the symbol of the token, usually a shorter version of the name."
      },
      "totalSupply()": {
        "details": "See {IERC20-totalSupply}."
      },
      "transfer(address,uint256)": {
        "details": "See {IERC20-transfer}. Requirements: - `recipient` cannot be the zero address. - the caller must have a balance of at least `amount`."
      },
      "transferFrom(address,address,uint256)": {
        "details": "See {IERC20-transferFrom}. Emits an {Approval} event indicating the updated allowance. This is not required by the EIP. See the note at the beginning of {ERC20}. Requirements: - `sender` and `recipient` cannot be the zero address. - `sender` must have a balance of at least `amount`. - the caller must have allowance for ``sender``'s tokens of at least `amount`."
      }
    },
    "version": 1
  },
  "userdoc": {
    "kind": "user",
    "methods": {},
    "version": 1
  }
}