{
  "contractName": "Mai",
  "abi": [
    {
      "inputs": [],
      "stateMutability": "nonpayable",
      "type": "constructor"
    },
    {
      "anonymous": false,
      "inputs": [
        {
          "indexed": true,
          "internalType": "address",
          "name": "owner",
          "type": "address"
        },
        {
          "indexed": true,
          "internalType": "address",
          "name": "spender",
          "type": "address"
        },
        {
          "indexed": false,
          "internalType": "uint256",
          "name": "value",
          "type": "uint256"
        }
      ],
      "name": "Approval",
      "type": "event"
    },
    {
      "anonymous": false,
      "inputs": [
        {
          "indexed": false,
          "internalType": "address",
          "name": "account",
          "type": "address"
        }
      ],
      "name": "Paused",
      "type": "event"
    },
    {
      "anonymous": false,
      "inputs": [
        {
          "indexed": true,
          "internalType": "bytes32",
          "name": "role",
          "type": "bytes32"
        },
        {
          "indexed": true,
          "internalType": "bytes32",
          "name": "previousAdminRole",
          "type": "bytes32"
        },
        {
          "indexed": true,
          "internalType": "bytes32",
          "name": "newAdminRole",
          "type": "bytes32"
        }
      ],
      "name": "RoleAdminChanged",
      "type": "event"
    },
    {
      "anonymous": false,
      "inputs": [
        {
          "indexed": true,
          "internalType": "bytes32",
          "name": "role",
          "type": "bytes32"
        },
        {
          "indexed": true,
          "internalType": "address",
          "name": "account",
          "type": "address"
        },
        {
          "indexed": true,
          "internalType": "address",
          "name": "sender",
          "type": "address"
        }
      ],
      "name": "RoleGranted",
      "type": "event"
    },
    {
      "anonymous": false,
      "inputs": [
        {
          "indexed": true,
          "internalType": "bytes32",
          "name": "role",
          "type": "bytes32"
        },
        {
          "indexed": true,
          "internalType": "address",
          "name": "account",
          "type": "address"
        },
        {
          "indexed": true,
          "internalType": "address",
          "name": "sender",
          "type": "address"
        }
      ],
      "name": "RoleRevoked",
      "type": "event"
    },
    {
      "anonymous": false,
      "inputs": [
        {
          "indexed": false,
          "internalType": "uint256",
          "name": "id",
          "type": "uint256"
        }
      ],
      "name": "Snapshot",
      "type": "event"
    },
    {
      "anonymous": false,
      "inputs": [
        {
          "indexed": true,
          "internalType": "address",
          "name": "from",
          "type": "address"
        },
        {
          "indexed": true,
          "internalType": "address",
          "name": "to",
          "type": "address"
        },
        {
          "indexed": false,
          "internalType": "uint256",
          "name": "value",
          "type": "uint256"
        }
      ],
      "name": "Transfer",
      "type": "event"
    },
    {
      "anonymous": false,
      "inputs": [
        {
          "indexed": false,
          "internalType": "address",
          "name": "account",
          "type": "address"
        }
      ],
      "name": "Unpaused",
      "type": "event"
    },
    {
      "anonymous": false,
      "inputs": [
        {
          "indexed": false,
          "internalType": "uint256",
          "name": "minStake",
          "type": "uint256"
        }
      ],
      "name": "_MinimumStakeChanged",
      "type": "event"
    },
    {
      "anonymous": false,
      "inputs": [
        {
          "indexed": true,
          "internalType": "address",
          "name": "to",
          "type": "address"
        },
        {
          "indexed": false,
          "internalType": "uint256",
          "name": "amount",
          "type": "uint256"
        }
      ],
      "name": "_Minted",
      "type": "event"
    },
    {
      "anonymous": false,
      "inputs": [
        {
          "indexed": false,
          "internalType": "uint256",
          "name": "votedTokenAmount",
          "type": "uint256"
        },
        {
          "indexed": false,
          "internalType": "uint256",
          "name": "end",
          "type": "uint256"
        },
        {
          "indexed": true,
          "internalType": "uint256",
          "name": "pollID",
          "type": "uint256"
        },
        {
          "indexed": true,
          "internalType": "address",
          "name": "creator",
          "type": "address"
        }
      ],
      "name": "_PollCreated",
      "type": "event"
    },
    {
      "anonymous": false,
      "inputs": [
        {
          "indexed": false,
          "internalType": "uint256",
          "name": "amount",
          "type": "uint256"
        },
        {
          "indexed": false,
          "internalType": "uint256",
          "name": "pollID",
          "type": "uint256"
        }
      ],
      "name": "_ResultsGenerated",
      "type": "event"
    },
    {
      "anonymous": false,
      "inputs": [
        {
          "indexed": true,
          "internalType": "uint256",
          "name": "pollID",
          "type": "uint256"
        },
        {
          "indexed": true,
          "internalType": "uint256",
          "name": "amount",
          "type": "uint256"
        }
      ],
      "name": "_RewardsBurned",
      "type": "event"
    },
    {
      "anonymous": false,
      "inputs": [
        {
          "indexed": true,
          "internalType": "uint256",
          "name": "pollID",
          "type": "uint256"
        },
        {
          "indexed": true,
          "internalType": "uint256",
          "name": "amount",
          "type": "uint256"
        }
      ],
      "name": "_RewardsMinted",
      "type": "event"
    },
    {
      "anonymous": false,
      "inputs": [
        {
          "indexed": false,
          "internalType": "address",
          "name": "to",
          "type": "address"
        }
      ],
      "name": "_StakerGranted",
      "type": "event"
    },
    {
      "anonymous": false,
      "inputs": [
        {
          "indexed": false,
          "internalType": "address",
          "name": "account",
          "type": "address"
        },
        {
          "indexed": false,
          "internalType": "uint256",
          "name": "amountReturned",
          "type": "uint256"
        }
      ],
      "name": "_StakerRoleRevoked",
      "type": "event"
    },
    {
      "anonymous": false,
      "inputs": [
        {
          "indexed": false,
          "internalType": "address",
          "name": "account",
          "type": "address"
        },
        {
          "indexed": false,
          "internalType": "uint256",
          "name": "amount",
          "type": "uint256"
        }
      ],
      "name": "_StakesDeposited",
      "type": "event"
    },
    {
      "anonymous": false,
      "inputs": [
        {
          "indexed": false,
          "internalType": "address",
          "name": "account",
          "type": "address"
        },
        {
          "indexed": false,
          "internalType": "uint256",
          "name": "amount",
          "type": "uint256"
        }
      ],
      "name": "_StakesWithdrawn",
      "type": "event"
    },
    {
      "anonymous": false,
      "inputs": [
        {
          "indexed": true,
          "internalType": "address",
          "name": "voter",
          "type": "address"
        },
        {
          "indexed": false,
          "internalType": "uint256",
          "name": "amountClaimed",
          "type": "uint256"
        }
      ],
      "name": "_VoteClaimed",
      "type": "event"
    },
    {
      "anonymous": false,
      "inputs": [
        {
          "indexed": true,
          "internalType": "uint256",
          "name": "pollID",
          "type": "uint256"
        }
      ],
      "name": "_VoteEnded",
      "type": "event"
    },
    {
      "anonymous": false,
      "inputs": [
        {
          "indexed": true,
          "internalType": "uint256",
          "name": "pollID",
          "type": "uint256"
        },
        {
          "indexed": false,
          "internalType": "uint256",
          "name": "votes",
          "type": "uint256"
        },
        {
          "indexed": true,
          "internalType": "address",
          "name": "voter",
          "type": "address"
        },
        {
          "indexed": false,
          "internalType": "uint256",
          "name": "side",
          "type": "uint256"
        }
      ],
      "name": "_VoteMade",
      "type": "event"
    },
    {
      "anonymous": false,
      "inputs": [
        {
          "indexed": true,
          "internalType": "uint256",
          "name": "pollID",
          "type": "uint256"
        },
        {
          "indexed": false,
          "internalType": "uint256",
          "name": "votes",
          "type": "uint256"
        },
        {
          "indexed": true,
          "internalType": "address",
          "name": "voter",
          "type": "address"
        }
      ],
      "name": "_VoteRevoked",
      "type": "event"
    },
    {
      "anonymous": false,
      "inputs": [
        {
          "indexed": true,
          "internalType": "address",
          "name": "voter",
          "type": "address"
        }
      ],
      "name": "_VotingRightsGranted",
      "type": "event"
    },
    {
      "anonymous": false,
      "inputs": [
        {
          "indexed": true,
          "internalType": "address",
          "name": "voter",
          "type": "address"
        }
      ],
      "name": "_VotingRightsRevoked",
      "type": "event"
    },
    {
      "inputs": [],
      "name": "DEFAULT_ADMIN_ROLE",
      "outputs": [
        {
          "internalType": "bytes32",
          "name": "",
          "type": "bytes32"
        }
      ],
      "stateMutability": "view",
      "type": "function"
    },
    {
      "inputs": [],
      "name": "OWNER_ROLE",
      "outputs": [
        {
          "internalType": "bytes32",
          "name": "",
          "type": "bytes32"
        }
      ],
      "stateMutability": "view",
      "type": "function"
    },
    {
      "inputs": [],
      "name": "PAUSER_ROLE",
      "outputs": [
        {
          "internalType": "bytes32",
          "name": "",
          "type": "bytes32"
        }
      ],
      "stateMutability": "view",
      "type": "function"
    },
    {
      "inputs": [],
      "name": "SNAPSHOT_ROLE",
      "outputs": [
        {
          "internalType": "bytes32",
          "name": "",
          "type": "bytes32"
        }
      ],
      "stateMutability": "view",
      "type": "function"
    },
    {
      "inputs": [],
      "name": "STAKER_ROLE",
      "outputs": [
        {
          "internalType": "bytes32",
          "name": "",
          "type": "bytes32"
        }
      ],
      "stateMutability": "view",
      "type": "function"
    },
    {
      "inputs": [],
      "name": "VOTER_ROLE",
      "outputs": [
        {
          "internalType": "bytes32",
          "name": "",
          "type": "bytes32"
        }
      ],
      "stateMutability": "view",
      "type": "function"
    },
    {
      "inputs": [
        {
          "internalType": "address",
          "name": "owner",
          "type": "address"
        },
        {
          "internalType": "address",
          "name": "spender",
          "type": "address"
        }
      ],
      "name": "allowance",
      "outputs": [
        {
          "internalType": "uint256",
          "name": "",
          "type": "uint256"
        }
      ],
      "stateMutability": "view",
      "type": "function"
    },
    {
      "inputs": [
        {
          "internalType": "address",
          "name": "spender",
          "type": "address"
        },
        {
          "internalType": "uint256",
          "name": "amount",
          "type": "uint256"
        }
      ],
      "name": "approve",
      "outputs": [
        {
          "internalType": "bool",
          "name": "",
          "type": "bool"
        }
      ],
      "stateMutability": "nonpayable",
      "type": "function"
    },
    {
      "inputs": [
        {
          "internalType": "address",
          "name": "account",
          "type": "address"
        }
      ],
      "name": "balanceOf",
      "outputs": [
        {
          "internalType": "uint256",
          "name": "",
          "type": "uint256"
        }
      ],
      "stateMutability": "view",
      "type": "function"
    },
    {
      "inputs": [
        {
          "internalType": "address",
          "name": "account",
          "type": "address"
        },
        {
          "internalType": "uint256",
          "name": "snapshotId",
          "type": "uint256"
        }
      ],
      "name": "balanceOfAt",
      "outputs": [
        {
          "internalType": "uint256",
          "name": "",
          "type": "uint256"
        }
      ],
      "stateMutability": "view",
      "type": "function"
    },
    {
      "inputs": [
        {
          "internalType": "uint256",
          "name": "amount",
          "type": "uint256"
        }
      ],
      "name": "burn",
      "outputs": [],
      "stateMutability": "nonpayable",
      "type": "function"
    },
    {
      "inputs": [
        {
          "internalType": "address",
          "name": "account",
          "type": "address"
        },
        {
          "internalType": "uint256",
          "name": "amount",
          "type": "uint256"
        }
      ],
      "name": "burnFrom",
      "outputs": [],
      "stateMutability": "nonpayable",
      "type": "function"
    },
    {
      "inputs": [],
      "name": "decimals",
      "outputs": [
        {
          "internalType": "uint8",
          "name": "",
          "type": "uint8"
        }
      ],
      "stateMutability": "view",
      "type": "function"
    },
    {
      "inputs": [
        {
          "internalType": "address",
          "name": "spender",
          "type": "address"
        },
        {
          "internalType": "uint256",
          "name": "subtractedValue",
          "type": "uint256"
        }
      ],
      "name": "decreaseAllowance",
      "outputs": [
        {
          "internalType": "bool",
          "name": "",
          "type": "bool"
        }
      ],
      "stateMutability": "nonpayable",
      "type": "function"
    },
    {
      "inputs": [
        {
          "internalType": "bytes32",
          "name": "role",
          "type": "bytes32"
        }
      ],
      "name": "getRoleAdmin",
      "outputs": [
        {
          "internalType": "bytes32",
          "name": "",
          "type": "bytes32"
        }
      ],
      "stateMutability": "view",
      "type": "function"
    },
    {
      "inputs": [
        {
          "internalType": "bytes32",
          "name": "role",
          "type": "bytes32"
        },
        {
          "internalType": "address",
          "name": "account",
          "type": "address"
        }
      ],
      "name": "grantRole",
      "outputs": [],
      "stateMutability": "nonpayable",
      "type": "function"
    },
    {
      "inputs": [
        {
          "internalType": "bytes32",
          "name": "role",
          "type": "bytes32"
        },
        {
          "internalType": "address",
          "name": "account",
          "type": "address"
        }
      ],
      "name": "hasRole",
      "outputs": [
        {
          "internalType": "bool",
          "name": "",
          "type": "bool"
        }
      ],
      "stateMutability": "view",
      "type": "function"
    },
    {
      "inputs": [
        {
          "internalType": "address",
          "name": "spender",
          "type": "address"
        },
        {
          "internalType": "uint256",
          "name": "addedValue",
          "type": "uint256"
        }
      ],
      "name": "increaseAllowance",
      "outputs": [
        {
          "internalType": "bool",
          "name": "",
          "type": "bool"
        }
      ],
      "stateMutability": "nonpayable",
      "type": "function"
    },
    {
      "inputs": [],
      "name": "name",
      "outputs": [
        {
          "internalType": "string",
          "name": "",
          "type": "string"
        }
      ],
      "stateMutability": "view",
      "type": "function"
    },
    {
      "inputs": [],
      "name": "paused",
      "outputs": [
        {
          "internalType": "bool",
          "name": "",
          "type": "bool"
        }
      ],
      "stateMutability": "view",
      "type": "function"
    },
    {
      "inputs": [
        {
          "internalType": "uint256",
          "name": "",
          "type": "uint256"
        }
      ],
      "name": "pollMapping",
      "outputs": [
        {
          "internalType": "address",
          "name": "pollStarter",
          "type": "address"
        },
        {
          "internalType": "uint256",
          "name": "start",
          "type": "uint256"
        },
        {
          "internalType": "uint256",
          "name": "end",
          "type": "uint256"
        },
        {
          "internalType": "uint256",
          "name": "votedTokenAmount",
          "type": "uint256"
        },
        {
          "internalType": "bool",
          "name": "quorumOption",
          "type": "bool"
        },
        {
          "internalType": "uint256",
          "name": "voteQuorum",
          "type": "uint256"
        },
        {
          "internalType": "uint256",
          "name": "votesFor",
          "type": "uint256"
        },
        {
          "internalType": "uint256",
          "name": "votesAgainst",
          "type": "uint256"
        },
        {
          "internalType": "uint256",
          "name": "action",
          "type": "uint256"
        },
        {
          "internalType": "bool",
          "name": "ongoing",
          "type": "bool"
        },
        {
          "internalType": "bool",
          "name": "rewardsClaimed",
          "type": "bool"
        }
      ],
      "stateMutability": "view",
      "type": "function"
    },
    {
      "inputs": [
        {
          "internalType": "bytes32",
          "name": "role",
          "type": "bytes32"
        },
        {
          "internalType": "address",
          "name": "account",
          "type": "address"
        }
      ],
      "name": "renounceRole",
      "outputs": [],
      "stateMutability": "nonpayable",
      "type": "function"
    },
    {
      "inputs": [
        {
          "internalType": "bytes32",
          "name": "role",
          "type": "bytes32"
        },
        {
          "internalType": "address",
          "name": "account",
          "type": "address"
        }
      ],
      "name": "revokeRole",
      "outputs": [],
      "stateMutability": "nonpayable",
      "type": "function"
    },
    {
      "inputs": [
        {
          "internalType": "address",
          "name": "",
          "type": "address"
        }
      ],
      "name": "stakedTotal",
      "outputs": [
        {
          "internalType": "uint256",
          "name": "",
          "type": "uint256"
        }
      ],
      "stateMutability": "view",
      "type": "function"
    },
    {
      "inputs": [],
      "name": "stakingAddress",
      "outputs": [
        {
          "internalType": "address",
          "name": "",
          "type": "address"
        }
      ],
      "stateMutability": "view",
      "type": "function"
    },
    {
      "inputs": [
        {
          "internalType": "bytes4",
          "name": "interfaceId",
          "type": "bytes4"
        }
      ],
      "name": "supportsInterface",
      "outputs": [
        {
          "internalType": "bool",
          "name": "",
          "type": "bool"
        }
      ],
      "stateMutability": "view",
      "type": "function"
    },
    {
      "inputs": [],
      "name": "symbol",
      "outputs": [
        {
          "internalType": "string",
          "name": "",
          "type": "string"
        }
      ],
      "stateMutability": "view",
      "type": "function"
    },
    {
      "inputs": [],
      "name": "totalSupply",
      "outputs": [
        {
          "internalType": "uint256",
          "name": "",
          "type": "uint256"
        }
      ],
      "stateMutability": "view",
      "type": "function"
    },
    {
      "inputs": [
        {
          "internalType": "uint256",
          "name": "snapshotId",
          "type": "uint256"
        }
      ],
      "name": "totalSupplyAt",
      "outputs": [
        {
          "internalType": "uint256",
          "name": "",
          "type": "uint256"
        }
      ],
      "stateMutability": "view",
      "type": "function"
    },
    {
      "inputs": [
        {
          "internalType": "uint256",
          "name": "",
          "type": "uint256"
        }
      ],
      "name": "totalVotes",
      "outputs": [
        {
          "internalType": "uint256",
          "name": "",
          "type": "uint256"
        }
      ],
      "stateMutability": "view",
      "type": "function"
    },
    {
      "inputs": [
        {
          "internalType": "address",
          "name": "recipient",
          "type": "address"
        },
        {
          "internalType": "uint256",
          "name": "amount",
          "type": "uint256"
        }
      ],
      "name": "transfer",
      "outputs": [
        {
          "internalType": "bool",
          "name": "",
          "type": "bool"
        }
      ],
      "stateMutability": "nonpayable",
      "type": "function"
    },
    {
      "inputs": [
        {
          "internalType": "address",
          "name": "sender",
          "type": "address"
        },
        {
          "internalType": "address",
          "name": "recipient",
          "type": "address"
        },
        {
          "internalType": "uint256",
          "name": "amount",
          "type": "uint256"
        }
      ],
      "name": "transferFrom",
      "outputs": [
        {
          "internalType": "bool",
          "name": "",
          "type": "bool"
        }
      ],
      "stateMutability": "nonpayable",
      "type": "function"
    },
    {
      "inputs": [],
      "name": "snapshot",
      "outputs": [],
      "stateMutability": "nonpayable",
      "type": "function"
    },
    {
      "inputs": [
        {
          "internalType": "uint256",
          "name": "newMinAmount",
          "type": "uint256"
        }
      ],
      "name": "changeMinimumStake",
      "outputs": [],
      "stateMutability": "nonpayable",
      "type": "function"
    },
    {
      "inputs": [
        {
          "internalType": "address",
          "name": "staking",
          "type": "address"
        }
      ],
      "name": "setStakingAddress",
      "outputs": [],
      "stateMutability": "nonpayable",
      "type": "function"
    },
    {
      "inputs": [
        {
          "internalType": "uint256",
          "name": "amount",
          "type": "uint256"
        }
      ],
      "name": "stake",
      "outputs": [],
      "stateMutability": "payable",
      "type": "function"
    },
    {
      "inputs": [
        {
          "internalType": "uint256",
          "name": "amount",
          "type": "uint256"
        }
      ],
      "name": "withdraw",
      "outputs": [],
      "stateMutability": "payable",
      "type": "function"
    },
    {
      "inputs": [
        {
          "internalType": "uint256",
          "name": "amount",
          "type": "uint256"
        }
      ],
      "name": "deposit",
      "outputs": [],
      "stateMutability": "payable",
      "type": "function"
    },
    {
      "inputs": [],
      "name": "viewStakedBalance",
      "outputs": [
        {
          "internalType": "uint256",
          "name": "balance",
          "type": "uint256"
        }
      ],
      "stateMutability": "view",
      "type": "function"
    },
    {
      "inputs": [],
      "name": "viewStakedTotal",
      "outputs": [
        {
          "internalType": "uint256",
          "name": "balance",
          "type": "uint256"
        }
      ],
      "stateMutability": "view",
      "type": "function"
    },
    {
      "inputs": [],
      "name": "revokeStaker",
      "outputs": [],
      "stateMutability": "nonpayable",
      "type": "function"
    },
    {
      "inputs": [
        {
          "internalType": "bool",
          "name": "_quorumOption",
          "type": "bool"
        },
        {
          "internalType": "uint256",
          "name": "_voteQuorum",
          "type": "uint256"
        },
        {
          "internalType": "uint256",
          "name": "_action",
          "type": "uint256"
        },
        {
          "internalType": "uint256",
          "name": "_votedTokenAmount",
          "type": "uint256"
        },
        {
          "internalType": "uint256",
          "name": "_commitDuration",
          "type": "uint256"
        }
      ],
      "name": "startPoll",
      "outputs": [
        {
          "internalType": "uint256",
          "name": "pollID",
          "type": "uint256"
        }
      ],
      "stateMutability": "nonpayable",
      "type": "function"
    },
    {
      "inputs": [
        {
          "internalType": "address",
          "name": "voter",
          "type": "address"
        }
      ],
      "name": "voterAllocation",
      "outputs": [],
      "stateMutability": "nonpayable",
      "type": "function"
    },
    {
      "inputs": [
        {
          "internalType": "address",
          "name": "voter",
          "type": "address"
        }
      ],
      "name": "voterRevokation",
      "outputs": [],
      "stateMutability": "nonpayable",
      "type": "function"
    },
    {
      "inputs": [
        {
          "internalType": "uint256",
          "name": "pollID",
          "type": "uint256"
        },
        {
          "internalType": "address",
          "name": "voter",
          "type": "address"
        }
      ],
      "name": "claimVote",
      "outputs": [],
      "stateMutability": "nonpayable",
      "type": "function"
    },
    {
      "inputs": [
        {
          "internalType": "address",
          "name": "account",
          "type": "address"
        },
        {
          "internalType": "uint256",
          "name": "amount",
          "type": "uint256"
        }
      ],
      "name": "mint",
      "outputs": [],
      "stateMutability": "nonpayable",
      "type": "function"
    },
    {
      "inputs": [
        {
          "internalType": "address",
          "name": "voter",
          "type": "address"
        },
        {
          "internalType": "uint256",
          "name": "pollID",
          "type": "uint256"
        }
      ],
      "name": "numOfVotes",
      "outputs": [
        {
          "internalType": "uint256",
          "name": "votes",
          "type": "uint256"
        }
      ],
      "stateMutability": "nonpayable",
      "type": "function"
    },
    {
      "inputs": [
        {
          "internalType": "uint256",
          "name": "votesMade",
          "type": "uint256"
        },
        {
          "internalType": "uint256",
          "name": "pollID",
          "type": "uint256"
        },
        {
          "internalType": "uint256",
          "name": "side",
          "type": "uint256"
        },
        {
          "internalType": "address",
          "name": "voter",
          "type": "address"
        }
      ],
      "name": "makeVote",
      "outputs": [],
      "stateMutability": "nonpayable",
      "type": "function"
    },
    {
      "inputs": [
        {
          "internalType": "uint256",
          "name": "pollID",
          "type": "uint256"
        }
      ],
      "name": "results",
      "outputs": [
        {
          "internalType": "bool",
          "name": "passed",
          "type": "bool"
        }
      ],
      "stateMutability": "nonpayable",
      "type": "function"
    },
    {
      "inputs": [
        {
          "internalType": "uint256",
          "name": "pollID",
          "type": "uint256"
        }
      ],
      "name": "quorumCalc",
      "outputs": [
        {
          "internalType": "uint256",
          "name": "result",
          "type": "uint256"
        }
      ],
      "stateMutability": "nonpayable",
      "type": "function"
    },
    {
      "inputs": [
        {
          "internalType": "uint256",
          "name": "pollID",
          "type": "uint256"
        }
      ],
      "name": "endPoll",
      "outputs": [],
      "stateMutability": "nonpayable",
      "type": "function"
    },
    {
      "inputs": [
        {
          "internalType": "uint256",
          "name": "pollID",
          "type": "uint256"
        }
      ],
      "name": "_claimRewards",
      "outputs": [],
      "stateMutability": "nonpayable",
      "type": "function"
    },
    {
      "inputs": [
        {
          "internalType": "uint256",
          "name": "pollID",
          "type": "uint256"
        }
      ],
      "name": "mintRewards",
      "outputs": [],
      "stateMutability": "payable",
      "type": "function"
    },
    {
      "inputs": [
        {
          "internalType": "uint256",
          "name": "pollID",
          "type": "uint256"
        }
      ],
      "name": "burnRewards",
      "outputs": [],
      "stateMutability": "payable",
      "type": "function"
    },
    {
      "inputs": [
        {
          "internalType": "uint256",
          "name": "pollID",
          "type": "uint256"
        },
        {
          "internalType": "address",
          "name": "recipient",
          "type": "address"
        }
      ],
      "name": "transferRewards",
      "outputs": [],
      "stateMutability": "nonpayable",
      "type": "function"
    },
    {
      "inputs": [
        {
          "internalType": "uint256",
          "name": "pollID",
          "type": "uint256"
        }
      ],
      "name": "takeSnapshot",
      "outputs": [],
      "stateMutability": "nonpayable",
      "type": "function"
    },
    {
      "inputs": [
        {
          "internalType": "address",
          "name": "voter",
          "type": "address"
        }
      ],
      "name": "checkParticipation",
      "outputs": [
        {
          "internalType": "bool",
          "name": "participating",
          "type": "bool"
        }
      ],
      "stateMutability": "view",
      "type": "function"
    },
    {
      "inputs": [
        {
          "internalType": "uint256",
          "name": "_pollID",
          "type": "uint256"
        }
      ],
      "name": "pollExists",
      "outputs": [
        {
          "internalType": "bool",
          "name": "exists",
          "type": "bool"
        }
      ],
      "stateMutability": "view",
      "type": "function"
    },
    {
      "inputs": [
        {
          "internalType": "uint256",
          "name": "_pollID",
          "type": "uint256"
        }
      ],
      "name": "pollEnded",
      "outputs": [
        {
          "internalType": "bool",
          "name": "ended",
          "type": "bool"
        }
      ],
      "stateMutability": "view",
      "type": "function"
    },
    {
      "inputs": [
        {
          "internalType": "uint256",
          "name": "_terminationDate",
          "type": "uint256"
        }
      ],
      "name": "isNotExpired",
      "outputs": [
        {
          "internalType": "bool",
          "name": "expired",
          "type": "bool"
        }
      ],
      "stateMutability": "view",
      "type": "function"
    }
  ],
  "bytecode": "0x60806040526103e8600c5560006010553480156200001c57600080fd5b506040805180820182526003808252624d616960e81b60208084019182528451808601909552828552624d414960e81b90850152825192939262000062929190620004e8565b50805162000078906004906020840190620004e8565b5050600a805460ff1916905550620000b833620000946200017b565b620000a190600a62000636565b620000b29064e8d4a510006200072e565b62000180565b620000e47fb9e206fa2af7ee1331b72ce58b6d938ac810ce9b5cdb65d35ab723fd67badf9e3362000262565b620001107fb19546dff01e856fb3f010c267a7b1c60363cf8a4664e21cc89c26224620214e3362000262565b6200013c7f65d7a28e3265b37a6474929f336521b332c1681b933f6cb9f3376673440d862a3362000262565b620001687f5fdbd35e8da83ee755d5e62a539e5ed7f47126abede0b8b10f9ea43dc6eed07f3362000262565b6200017560003362000262565b620007bd565b601290565b6001600160a01b038216620001b25760405162461bcd60e51b8152600401620001a9906200058e565b60405180910390fd5b620001c0600083836200026e565b8060026000828254620001d49190620005ce565b90915550506001600160a01b0382166000908152602081905260408120805483929062000203908490620005ce565b90915550506040516001600160a01b038316906000907fddf252ad1be2c89b69c2b068fc378daa952ba7f163c4a11628f55a4df523b3ef9062000248908590620005c5565b60405180910390a36200025e6000838362000286565b5050565b6200025e82826200028b565b620002868383836200031760201b620026d11760201c565b505050565b62000297828262000389565b6200025e5760008281526009602090815260408083206001600160a01b03851684529091529020805460ff19166001179055620002d3620003b4565b6001600160a01b0316816001600160a01b0316837f2f8788117e7eff1d82e926ec794901d17c78024a50270940304540a733656f0d60405160405180910390a45050565b6200032f8383836200028660201b620010701760201c565b6001600160a01b03831662000359576200034982620003b8565b62000353620003e9565b62000286565b6001600160a01b03821662000373576200034983620003b8565b6200037e83620003b8565b6200028682620003b8565b60009182526009602090815260408084206001600160a01b0393909316845291905290205460ff1690565b3390565b6001600160a01b0381166000908152600560205260409020620003e690620003e083620003fb565b6200041a565b50565b620003f96006620003e062000469565b565b6001600160a01b0381166000908152602081905260409020545b919050565b6000620004266200046f565b90508062000434846200048d565b101562000286578254600180820185556000858152602080822090930193909355938401805494850181558252902090910155565b60025490565b6000620004886008620004e460201b620027291760201c565b905090565b8054600090620004a05750600062000415565b81548290620004b29060019062000750565b81548110620004d157634e487b7160e01b600052603260045260246000fd5b9060005260206000200154905062000415565b5490565b828054620004f6906200076a565b90600052602060002090601f0160209004810192826200051a576000855562000565565b82601f106200053557805160ff191683800117855562000565565b8280016001018555821562000565579182015b828111156200056557825182559160200191906001019062000548565b506200057392915062000577565b5090565b5b8082111562000573576000815560010162000578565b6020808252601f908201527f45524332303a206d696e7420746f20746865207a65726f206164647265737300604082015260600190565b90815260200190565b60008219821115620005e457620005e4620007a7565b500190565b80825b6001808611620005fd57506200062d565b818704821115620006125762000612620007a7565b808616156200062057918102915b9490941c938002620005ec565b94509492505050565b60006200064a60001960ff85168462000651565b9392505050565b60008262000662575060016200064a565b8162000671575060006200064a565b81600181146200068a57600281146200069557620006c9565b60019150506200064a565b60ff841115620006a957620006a9620007a7565b6001841b915084821115620006c257620006c2620007a7565b506200064a565b5060208310610133831016604e8410600b841016171562000701575081810a83811115620006fb57620006fb620007a7565b6200064a565b620007108484846001620005e9565b808604821115620007255762000725620007a7565b02949350505050565b60008160001904831182151516156200074b576200074b620007a7565b500290565b600082821015620007655762000765620007a7565b500390565b6002810460018216806200077f57607f821691505b60208210811415620007a157634e487b7160e01b600052602260045260246000fd5b50919050565b634e487b7160e01b600052601160045260246000fd5b613f5b80620007cd6000396000f3fe6080604052600436106103965760003560e01c806385f8db10116101dc578063b687bcc011610102578063d7b4be24116100a0578063ee6848301161006f578063ee68483014610a0d578063f43b877814610a2d578063f4e0d9ac14610a4d578063f567918914610a6d57610396565b8063d7b4be24146109a1578063dd62ed3e146109c3578063e58378bb146109e3578063e63ab1e9146109f857610396565b8063cd8cd048116100dc578063cd8cd0481461092c578063d0beb73a1461094c578063d547741f1461096c578063d72cd6071461098c57610396565b8063b687bcc0146108d9578063b6b55f25146108f9578063ca5f0b991461090c57610396565b80639711715a1161017a578063a694fc3a11610149578063a694fc3a1461087c578063a9059cbb1461088f578063a94015c8146108af578063ae47785b146108c457610396565b80639711715a14610812578063981b24d014610827578063a217fddf14610847578063a457c2d71461085c57610396565b80638c405503116101b65780638c4055031461079d5780638fecb1a2146107bd57806391d14854146107dd57806395d89b41146107fd57610396565b806385f8db101461075557806388d21ff31461076a57806389ec02571461078a57610396565b806336568abe116102c15780634828ced91161025f5780637028e2cd1161022e5780637028e2cd146106e057806370a08231146106f557806379cc67901461071557806379d0e6fe1461073557610396565b80634828ced9146106785780634a65ea601461068b5780634ee2cd7e146106ab5780635c975abb146106cb57610396565b8063395093511161029b57806339509351146105f857806340c10f191461061857806342966c681461063857806343398cd21461065857610396565b806336568abe1461058c578063372c48e1146105ac5780633780b3ed146105e357610396565b80631b0c27da116103395780632e1a7d4d116103085780632e1a7d4d146105155780632f2ff15d1461052a578063313ce5671461054a578063356cb5551461056c57610396565b80631b0c27da1461049557806321e04c32146104b557806323b872dd146104d5578063248a9ca3146104f557610396565b806306fdde031161037557806306fdde031461041e578063095ea7b31461044057806318160ddd1461046057806319e6e1581461047557610396565b8062f027201461039b57806301ffc9a7146103d157806303d29a5b146103fe575b600080fd5b3480156103a757600080fd5b506103bb6103b6366004613270565b610a8d565b6040516103c8919061341a565b60405180910390f35b3480156103dd57600080fd5b506103f16103ec3660046132aa565b610b62565b6040516103c8919061340f565b34801561040a57600080fd5b506103f1610419366004613270565b610b8f565b34801561042a57600080fd5b50610433610b94565b6040516103c89190613423565b34801561044c57600080fd5b506103f161045b366004613200565b610c26565b34801561046c57600080fd5b506103bb610c44565b34801561048157600080fd5b506103bb610490366004613270565b610c4a565b3480156104a157600080fd5b506103f16104b0366004613270565b610c5c565b3480156104c157600080fd5b506103f16104d0366004613179565b610dc0565b3480156104e157600080fd5b506103f16104f03660046131c5565b610e49565b34801561050157600080fd5b506103bb610510366004613270565b610ed9565b610528610523366004613270565b610eee565b005b34801561053657600080fd5b50610528610545366004613288565b61104c565b34801561055657600080fd5b5061055f611075565b6040516103c89190613d82565b34801561057857600080fd5b50610528610587366004613288565b61107a565b34801561059857600080fd5b506105286105a7366004613288565b611252565b3480156105b857600080fd5b506105cc6105c7366004613270565b611298565b6040516103c89b9a999897969594939291906133b2565b3480156105ef57600080fd5b506103bb611301565b34801561060457600080fd5b506103f1610613366004613200565b611313565b34801561062457600080fd5b50610528610633366004613200565b611367565b34801561064457600080fd5b50610528610653366004613270565b6113ec565b34801561066457600080fd5b50610528610673366004613270565b611400565b610528610686366004613270565b611491565b34801561069757600080fd5b506105286106a6366004613270565b6115e7565b3480156106b757600080fd5b506103bb6106c6366004613200565b61168f565b3480156106d757600080fd5b506103f16116d8565b3480156106ec57600080fd5b506103bb6116e1565b34801561070157600080fd5b506103bb610710366004613179565b611705565b34801561072157600080fd5b50610528610730366004613200565b611720565b34801561074157600080fd5b506105286107503660046132d2565b61176e565b34801561076157600080fd5b506103bb611aa9565b34801561077657600080fd5b506103f1610785366004613270565b611af3565b610528610798366004613270565b611b08565b3480156107a957600080fd5b506103bb6107b8366004613200565b611c0e565b3480156107c957600080fd5b506105286107d8366004613288565b611ca0565b3480156107e957600080fd5b506103f16107f8366004613288565b611e18565b34801561080957600080fd5b50610433611e43565b34801561081e57600080fd5b50610528611e52565b34801561083357600080fd5b506103bb610842366004613270565b611e90565b34801561085357600080fd5b506103bb611ebd565b34801561086857600080fd5b506103f1610877366004613200565b611ec2565b61052861088a366004613270565b611f3b565b34801561089b57600080fd5b506103f16108aa366004613200565b61201f565b3480156108bb57600080fd5b506103bb612033565b3480156108d057600080fd5b50610528612045565b3480156108e557600080fd5b506105286108f4366004613179565b6120f7565b610528610907366004613270565b612167565b34801561091857600080fd5b506103bb610927366004613229565b612236565b34801561093857600080fd5b50610528610947366004613179565b6123ad565b34801561095857600080fd5b50610528610967366004613270565b612430565b34801561097857600080fd5b50610528610987366004613288565b6124ab565b34801561099857600080fd5b506103bb6124ca565b3480156109ad57600080fd5b506109b6612514565b6040516103c89190613385565b3480156109cf57600080fd5b506103bb6109de366004613193565b612523565b3480156109ef57600080fd5b506103bb61254e565b348015610a0457600080fd5b506103bb612560565b348015610a1957600080fd5b506103f1610a28366004613270565b612584565b348015610a3957600080fd5b50610528610a48366004613270565b6125b3565b348015610a5957600080fd5b50610528610a68366004613179565b612667565b348015610a7957600080fd5b506103bb610a88366004613179565b6126bf565b600081610a9981612584565b15156001148015610ac057506000818152600d602052604090206009015460ff1615156001145b15610adf576000818152600d60205260409020600901805460ff191690555b6000838152600e6020526040902054610af757600080fd5b610b0083611af3565b610b255760405162461bcd60e51b8152600401610b1c9061393b565b60405180910390fd5b6000838152600e6020908152604080832054600d909252822060060154610b4b9161272d565b9050610b58816064612739565b9250505b50919050565b60006001600160e01b03198216637965db0b60e01b1480610b875750610b8782612745565b90505b919050565b421090565b606060038054610ba390613e35565b80601f0160208091040260200160405190810160405280929190818152602001828054610bcf90613e35565b8015610c1c5780601f10610bf157610100808354040283529160200191610c1c565b820191906000526020600020905b815481529060010190602001808311610bff57829003601f168201915b5050505050905090565b6000610c3a610c3361275e565b8484612762565b5060015b92915050565b60025490565b600e6020526000908152604090205481565b600081610c6881612584565b15156001148015610c8f57506000818152600d602052604090206009015460ff1615156001145b15610cae576000818152600d60205260409020600901805460ff191690555b610cb7836125b3565b610cc083610b8f565b15610cca57600080fd5b610cd383611af3565b610cdc57600080fd5b6000838152600d602052604090206004015460ff16610d4e576000838152600d6020526040902060078101546006909101541115610d1d5760019150610b5c565b6000838152600d6020526040902060078101546006909101541015610d455760009150610b5c565b60009150610b5c565b6000838152600d602052604090206004015460ff16151560011415610b5c576000838152600d6020526040902060050154610d8884610a8d565b10610d965760019150610b5c565b6000838152600d6020526040902060050154610db184610a8d565b1015610d455760009150610b5c565b600060015b601054811015610e40576000818152600d602052604090206009015460ff1615156001148015610e1f57506000818152600d602090815260408083206001600160a01b0387168452600b0190915290205460ff1615156001145b15610e2e576001915050610b8a565b80610e3881613e6a565b915050610dc5565b50600092915050565b6000610e56848484612816565b6001600160a01b038416600090815260016020526040812081610e7761275e565b6001600160a01b03166001600160a01b0316815260200190815260200160002054905082811015610eba5760405162461bcd60e51b8152600401610b1c90613839565b610ece85610ec661275e565b858403612762565b506001949350505050565b60009081526009602052604090206001015490565b610f06600080516020613ee683398151915233611e18565b610f225760405162461bcd60e51b8152600401610b1c906136fd565b336000908152600b6020526040902054811115610f515760405162461bcd60e51b8152600401610b1c90613606565b600c54336000908152600b6020526040902054610f6e9083612940565b1015610f8c5760405162461bcd60e51b8152600401610b1c90613b44565b610f9533610dc0565b15610fb25760405162461bcd60e51b8152600401610b1c90613881565b610fbc338261201f565b50336000908152600b6020526040902054610fd79082612940565b336000908152600b6020908152604080832093909355600f90522054610ffd9082612940565b336000818152600f6020526040908190209290925590517f636cb222c0a14b941cff2b7b16a3920b7043e92dabbf4ebe5104f45b7c5ea23c91611041918490613399565b60405180910390a150565b61105582610ed9565b6110668161106161275e565b61294c565b61107083836129b0565b505050565b601290565b8161108481612584565b151560011480156110ab57506000818152600d602052604090206009015460ff1615156001145b156110ca576000818152600d60205260409020600901805460ff191690555b816110e3600080516020613f0683398151915282611e18565b6110ec57600080fd5b6001600160a01b0383166110ff57600080fd5b600061115861111a6001600c5461294090919063ffffffff16565b6000878152600d602090815260408083206001600160a01b038a168452600a01825280832054600f9092529091205461115291612940565b90612940565b90506000811161117a5760405162461bcd60e51b8152600401610b1c906136b6565b6000858152600d602090815260408083206001600160a01b0388168452600a019091529020546111aa9082612a37565b6000868152600d602090815260408083206001600160a01b0389168452600a8101835281842094909455600c909301905220546111e79082612a37565b6000868152600d602090815260408083206001600160a01b038916808552600c9091019092529182902092909255517f11121ac798069fb07833ce3bd6cbfb51fec926c61a652138d3241566fe7240799061124390849061341a565b60405180910390a25050505050565b61125a61275e565b6001600160a01b0316816001600160a01b03161461128a5760405162461bcd60e51b8152600401610b1c90613cee565b6112948282612a43565b5050565b600d6020526000908152604090208054600182015460028301546003840154600485015460058601546006870154600788015460088901546009909901546001600160a01b039098169896979596949560ff94851695939492939192818116916101009004168b565b600080516020613ee683398151915281565b6000610c3a61132061275e565b84846001600061132e61275e565b6001600160a01b03908116825260208083019390935260409182016000908120918b16815292529020546113629190613d90565b612762565b61137f600080516020613ec683398151915233611e18565b8061139457506011546001600160a01b031633145b61139d57600080fd5b6113a78282612ac8565b816001600160a01b03167fa01c539e02f0011c0f14be4450f129565d1e05ad6863b64aa665a28431f66e00826040516113e0919061341a565b60405180910390a25050565b6113fd6113f761275e565b82612b90565b50565b611418600080516020613ec683398151915233611e18565b8061142d57506011546001600160a01b031633145b61143657600080fd5b600c5481141561144557600080fd5b6011546001600160a01b0316331461145c57600080fd5b600c8190556040517fa780cb8437215d835d6296c681503f759ac98b8f069b8bdc2ec57a92054ff7699061104190839061341a565b8061149b81612584565b151560011480156114c257506000818152600d602052604090206009015460ff1615156001145b156114e1576000818152600d60205260409020600901805460ff191690555b6114f9600080516020613ec683398151915233611e18565b8061150e57506011546001600160a01b031633145b61151757600080fd5b611520826115e7565b6000828152600d602052604090206008015460011461153e57600080fd5b6000828152600d602052604090206009015460ff161561155d57600080fd5b6000828152600d602052604081206003015461157b91903390612c81565b6000828152600d6020526040902060030154611598903390612ac8565b6000828152600d6020526040908190206003015490517f143263f7b9f933ad95c7547e531e5a27d3f06f741fae22be1353448a3d0e9171916115db918590613d74565b60405180910390a15050565b806115f181612584565b1515600114801561161857506000818152600d602052604090206009015460ff1615156001145b15611637576000818152600d60205260409020600901805460ff191690555b6000828152600d6020526040902060090154610100900460ff161561166e5760405162461bcd60e51b8152600401610b1c9061348d565b506000908152600d60205260409020600901805461ff001916610100179055565b6001600160a01b0382166000908152600560205260408120819081906116b6908590612c8c565b91509150816116cd576116c885611705565b6116cf565b805b95945050505050565b600a5460ff1690565b7f5fdbd35e8da83ee755d5e62a539e5ed7f47126abede0b8b10f9ea43dc6eed07f81565b6001600160a01b031660009081526020819052604090205490565b600061172e836109de61275e565b9050818110156117505760405162461bcd60e51b8152600401610b1c906138f7565b6117648361175c61275e565b848403612762565b6110708383612b90565b8261177881612584565b1515600114801561179f57506000818152600d602052604090206009015460ff1615156001145b156117be576000818152600d60205260409020600901805460ff191690555b816117d7600080516020613f0683398151915282611e18565b6117e057600080fd5b6001600160a01b0383166118065760405162461bcd60e51b8152600401610b1c90613a4b565b6000858152600d6020908152604080832060098101805460ff191660011790556001600160a01b0387168452600c019091529020546118575760405162461bcd60e51b8152600401610b1c90613c05565b6000858152600d602090815260408083206001600160a01b0387168452600c0190915290205486111561189c5760405162461bcd60e51b8152600401610b1c90613ac6565b6000858152600d602081815260408084206001600160a01b0388168552909201905290205415806118f057506000858152600d602081815260408084206001600160a01b0388168552909201905290205484145b61190c5760405162461bcd60e51b8152600401610b1c90613749565b836001148061191b5750836002145b6119375760405162461bcd60e51b8152600401610b1c90613813565b8360011415611974576000858152600d602052604090206006015461195d906001612a37565b6000868152600d60205260409020600601556119ad565b83600214156119ad576000858152600d602052604090206007015461199a906001612a37565b6000868152600d60205260409020600701555b6000858152600d602081815260408084206001600160a01b03881685529283018252808420889055600c90920190529020546119e99087612940565b6000868152600d602090815260408083206001600160a01b0388168452600c01825280832093909355878252600e90522054611a26906001612a37565b6000868152600e6020908152604080832093909355600d81528282206001600160a01b038716808452600b90910190915290829020805460ff19166001179055905186907f5996e6b79a799eac35fb8f87a5ec15485d68232f99e6a9a13118feb7b77adb8090611a99908a908990613d74565b60405180910390a3505050505050565b6000611ac3600080516020613ee683398151915233611e18565b611adf5760405162461bcd60e51b8152600401610b1c906136fd565b50336000908152600b602052604090205490565b60008115801590610b87575050601054101590565b80611b1281612584565b15156001148015611b3957506000818152600d602052604090206009015460ff1615156001145b15611b58576000818152600d60205260409020600901805460ff191690555b611b70600080516020613ec683398151915233611e18565b80611b8557506011546001600160a01b031633145b611b8e57600080fd5b611b97826115e7565b6000828152600d6020526040902060080154600214611bb557600080fd5b6000828152600d602052604090206009015460ff1615611bd457600080fd5b6000828152600d6020526040812060030154611bf1913391612c81565b6000828152600d6020526040902060030154611598903390611720565b600081611c1a81612584565b15156001148015611c4157506000818152600d602052604090206009015460ff1615156001145b15611c60576000818152600d60205260409020600901805460ff191690555b6001600160a01b038416611c7357600080fd5b50506000908152600d602090815260408083206001600160a01b03949094168352600c9093019052205490565b81611caa81612584565b15156001148015611cd157506000818152600d602052604090206009015460ff1615156001145b15611cf0576000818152600d60205260409020600901805460ff191690555b611d08600080516020613ec683398151915233611e18565b80611d1d57506011546001600160a01b031633145b611d2657600080fd5b611d2f836115e7565b6000838152600d6020526040902060080154600314611d4d57600080fd5b6000838152600d602052604090206009015460ff1615611d6c57600080fd5b6000838152600d6020526040812060030154611d89913391612c81565b6000838152600d6020526040902060030154611da4906113ec565b611dc8611daf61275e565b6000858152600d60205260409020600301548490612816565b6000838152600d6020526040908190206003015490517f143263f7b9f933ad95c7547e531e5a27d3f06f741fae22be1353448a3d0e917191611e0b918690613d74565b60405180910390a1505050565b60009182526009602090815260408084206001600160a01b0393909316845291905290205460ff1690565b606060048054610ba390613e35565b611e6a600080516020613ec683398151915233611e18565b80611e7f57506011546001600160a01b031633145b611e8857600080fd5b6113fd612d38565b6000806000611ea0846006612c8c565b9150915081611eb657611eb1610c44565b610b58565b9392505050565b600081565b60008060016000611ed161275e565b6001600160a01b0390811682526020808301939093526040918201600090812091881681529252902054905082811015611f1d5760405162461bcd60e51b8152600401610b1c90613ca9565b611f31611f2861275e565b85858403612762565b5060019392505050565b600c54811015611f5d5760405162461bcd60e51b8152600401610b1c90613649565b611f75600080516020613ee683398151915233611e18565b15611f925760405162461bcd60e51b8152600401610b1c90613c72565b601154611faa9033906001600160a01b031683610e49565b50611fc3600080516020613ee68339815191523361104c565b336000908152600b6020526040902054611fdd9082612a37565b336000818152600b6020526040908190209290925590517faa9b7cbce69f378b88683439602b2857dc079ec95e5996ecd5e84df0673de4d79161104191613385565b6000610c3a61202c61275e565b8484612816565b600080516020613f0683398151915281565b61205d600080516020613ee683398151915233611e18565b6120795760405162461bcd60e51b8152600401610b1c906136fd565b612091600080516020613ee6833981519152336124ab565b336000818152600b60205260409020546120ab919061201f565b50336000818152600b6020526040808220829055517fcb71ce4aef17d5694e262b4bedec3b5f7ea68f25621d775f80bc72e78d27692d926120ed929091613399565b60405180910390a1565b61210f600080516020613ee683398151915282611e18565b61211857600080fd5b612130600080516020613f068339815191528261104c565b6040516001600160a01b038216907f3025407ee9b066f6cd97886b0c47bda6b6ebbb42d2c7574284f5814cfd3a504a90600090a250565b61217f600080516020613ee683398151915233611e18565b61219b5760405162461bcd60e51b8152600401610b1c906136fd565b6011546121b1906001600160a01b03168261201f565b50336000908152600b60205260409020546121cc9082612a37565b336000908152600b6020908152604080832093909355600f905220546121f29082612a37565b336000818152600f6020526040908190209290925590517f91dd5382838389dd317d2f661bec79d34c5b6abd4d2d475f84079da548c030fc91611041918490613399565b6000612250600080516020613ee683398151915233611e18565b61225957600080fd5b85158015612265575084155b8061227d5750600186151514801561227d5750600085115b6122995760405162461bcd60e51b8152600401610b1c9061378f565b600083116122b95760405162461bcd60e51b8152600401610b1c906139ee565b60006122d26122cb8462015180612739565b4290612a37565b6010549091506122e3906001612a37565b60108181556000918252600d60205260408083208054336001600160a01b03199091168117825542600180840191909155600883018b905560048301805460ff19168e1515179055600583018c9055600383018a90556009830180546002850189905560068501889055600785019790975561ffff1990961617909455915490519192917f75c3234b322da18df8c948bde9b9983e5a43633c4e2647d4d9f4f15c0706f05d906123969089908790613d74565b60405180910390a350506010549695505050505050565b6123c5600080516020613f0683398151915282611e18565b6123ce57600080fd5b6001600160a01b0381166123e157600080fd5b6123f9600080516020613f06833981519152826124ab565b6040516001600160a01b038216907fc8f0ca04e3a4bee64fa8f12ab2c36bf665502f928567c2adfbbcc4ad796ed26990600090a250565b612448600080516020613ec683398151915233611e18565b8061245d57506011546001600160a01b031633145b61246657600080fd5b6000818152600d602052604090206008015460041461248457600080fd5b6000818152600d602052604090206009015460ff16156124a357600080fd5b6113fd611e52565b6124b482610ed9565b6124c08161106161275e565b6110708383612a43565b60006124e4600080516020613ee683398151915233611e18565b6125005760405162461bcd60e51b8152600401610b1c906136fd565b50336000908152600f602052604090205490565b6011546001600160a01b031681565b6001600160a01b03918216600090815260016020908152604080832093909416825291909152205490565b600080516020613ec683398151915281565b7f65d7a28e3265b37a6474929f336521b332c1681b933f6cb9f3376673440d862a81565b600061258f82611af3565b61259857600080fd5b6000828152600d6020526040902060020154610b8790610b8f565b6125cb600080516020613ec683398151915233611e18565b806125e057506011546001600160a01b031633145b6125e957600080fd5b806125f381612584565b1515600114801561261a57506000818152600d602052604090206009015460ff1615156001145b15612639576000818152600d60205260409020600901805460ff191690555b61264282611af3565b61264b57600080fd5b506000908152600d60205260409020600901805460ff19169055565b61267f600080516020613ec683398151915233611e18565b8061269457506011546001600160a01b031633145b61269d57600080fd5b601180546001600160a01b0319166001600160a01b0392909216919091179055565b600f6020526000908152604090205481565b6126dc838383611070565b6001600160a01b038316612700576126f382612d8c565b6126fb612db6565b611070565b6001600160a01b038216612717576126f383612d8c565b61272083612d8c565b61107082612d8c565b5490565b6000611eb68284613da8565b6000611eb68284613dbc565b6001600160e01b031981166301ffc9a760e01b14919050565b3390565b6001600160a01b0383166127885760405162461bcd60e51b8152600401610b1c90613a82565b6001600160a01b0382166127ae5760405162461bcd60e51b8152600401610b1c9061357e565b6001600160a01b0380841660008181526001602090815260408083209487168084529490915290819020849055517f8c5be1e5ebec7d5bd14f71427d1e84f3dd0314c0f7b2291e5b200ac8c7c3b9259061280990859061341a565b60405180910390a3505050565b6001600160a01b03831661283c5760405162461bcd60e51b8152600401610b1c906139a9565b6001600160a01b0382166128625760405162461bcd60e51b8152600401610b1c906134f9565b61286d838383612c81565b6001600160a01b038316600090815260208190526040902054818110156128a65760405162461bcd60e51b8152600401610b1c906135c0565b6001600160a01b038085166000908152602081905260408082208585039055918516815290812080548492906128dd908490613d90565b92505081905550826001600160a01b0316846001600160a01b03167fddf252ad1be2c89b69c2b068fc378daa952ba7f163c4a11628f55a4df523b3ef84604051612927919061341a565b60405180910390a361293a848484611070565b50505050565b6000611eb68284613ddb565b6129568282611e18565b6112945761296e816001600160a01b03166014612dc5565b612979836020612dc5565b60405160200161298a929190613310565b60408051601f198184030181529082905262461bcd60e51b8252610b1c91600401613423565b6129ba8282611e18565b6112945760008281526009602090815260408083206001600160a01b03851684529091529020805460ff191660011790556129f361275e565b6001600160a01b0316816001600160a01b0316837f2f8788117e7eff1d82e926ec794901d17c78024a50270940304540a733656f0d60405160405180910390a45050565b6000611eb68284613d90565b612a4d8282611e18565b156112945760008281526009602090815260408083206001600160a01b03851684529091529020805460ff19169055612a8461275e565b6001600160a01b0316816001600160a01b0316837ff6391f5c32d9c69d2a47ea670b442974b53935d1edc7fd64eb21e047a839171b60405160405180910390a45050565b6001600160a01b038216612aee5760405162461bcd60e51b8152600401610b1c90613d3d565b612afa60008383612c81565b8060026000828254612b0c9190613d90565b90915550506001600160a01b03821660009081526020819052604081208054839290612b39908490613d90565b90915550506040516001600160a01b038316906000907fddf252ad1be2c89b69c2b068fc378daa952ba7f163c4a11628f55a4df523b3ef90612b7c90859061341a565b60405180910390a361129460008383611070565b6001600160a01b038216612bb65760405162461bcd60e51b8152600401610b1c90613968565b612bc282600083612c81565b6001600160a01b03821660009081526020819052604090205481811015612bfb5760405162461bcd60e51b8152600401610b1c9061353c565b6001600160a01b0383166000908152602081905260408120838303905560028054849290612c2a908490613ddb565b90915550506040516000906001600160a01b038516907fddf252ad1be2c89b69c2b068fc378daa952ba7f163c4a11628f55a4df523b3ef90612c6d90869061341a565b60405180910390a361107083600084611070565b6110708383836126d1565b60008060008411612caf5760405162461bcd60e51b8152600401610b1c90613b14565b612cb7612f77565b841115612cd65760405162461bcd60e51b8152600401610b1c90613456565b6000612ce28486612f88565b8454909150811415612cfb576000809250925050612d31565b6001846001018281548110612d2057634e487b7160e01b600052603260045260246000fd5b906000526020600020015492509250505b9250929050565b6000612d446008613067565b6000612d4e612f77565b90507f8030e83b04d87bef53480e26263266d6ca66863aa8506aca6f2559d18aa1cb6781604051612d7f919061341a565b60405180910390a1905090565b6001600160a01b03811660009081526005602052604090206113fd90612db183611705565b613070565b612dc36006612db1610c44565b565b60606000612dd4836002613dbc565b612ddf906002613d90565b67ffffffffffffffff811115612e0557634e487b7160e01b600052604160045260246000fd5b6040519080825280601f01601f191660200182016040528015612e2f576020820181803683370190505b509050600360fc1b81600081518110612e5857634e487b7160e01b600052603260045260246000fd5b60200101906001600160f81b031916908160001a905350600f60fb1b81600181518110612e9557634e487b7160e01b600052603260045260246000fd5b60200101906001600160f81b031916908160001a9053506000612eb9846002613dbc565b612ec4906001613d90565b90505b6001811115612f58576f181899199a1a9b1b9c1cb0b131b232b360811b85600f1660108110612f0657634e487b7160e01b600052603260045260246000fd5b1a60f81b828281518110612f2a57634e487b7160e01b600052603260045260246000fd5b60200101906001600160f81b031916908160001a90535060049490941c93612f5181613e1e565b9050612ec7565b508315611eb65760405162461bcd60e51b8152600401610b1c906134c4565b6000612f836008612729565b905090565b8154600090612f9957506000610c3e565b82546000905b80821015613003576000612fb383836130ba565b905084868281548110612fd657634e487b7160e01b600052603260045260246000fd5b90600052602060002001541115612fef57809150612ffd565b612ffa816001613d90565b92505b50612f9f565b6000821180156130465750838561301b600185613ddb565b8154811061303957634e487b7160e01b600052603260045260246000fd5b9060005260206000200154145b1561305f57613056600183613ddb565b92505050610c3e565b509050610c3e565b80546001019055565b600061307a612f77565b90508061308684613111565b1015611070578254600180820185556000858152602080822090930193909355938401805494850181558252902090910155565b600060026130c88184613e85565b6130d3600286613e85565b6130dd9190613d90565b6130e79190613da8565b6130f2600284613da8565b6130fd600286613da8565b6131079190613d90565b611eb69190613d90565b805460009061312257506000610b8a565b8154829061313290600190613ddb565b8154811061315057634e487b7160e01b600052603260045260246000fd5b90600052602060002001549050610b8a565b80356001600160a01b0381168114610b8a57600080fd5b60006020828403121561318a578081fd5b611eb682613162565b600080604083850312156131a5578081fd5b6131ae83613162565b91506131bc60208401613162565b90509250929050565b6000806000606084860312156131d9578081fd5b6131e284613162565b92506131f060208501613162565b9150604084013590509250925092565b60008060408385031215613212578182fd5b61321b83613162565b946020939093013593505050565b600080600080600060a08688031215613240578081fd5b8535801515811461324f578182fd5b97602087013597506040870135966060810135965060800135945092505050565b600060208284031215613281578081fd5b5035919050565b6000806040838503121561329a578182fd5b823591506131bc60208401613162565b6000602082840312156132bb578081fd5b81356001600160e01b031981168114611eb6578182fd5b600080600080608085870312156132e7578384fd5b84359350602085013592506040850135915061330560608601613162565b905092959194509250565b60007f416363657373436f6e74726f6c3a206163636f756e742000000000000000000082528351613348816017850160208801613df2565b7001034b99036b4b9b9b4b733903937b6329607d1b6017918401918201528351613379816028840160208801613df2565b01602801949350505050565b6001600160a01b0391909116815260200190565b6001600160a01b03929092168252602082015260400190565b6001600160a01b039b909b168b5260208b019990995260408a01979097526060890195909552921515608088015260a087019190915260c086015260e0850152610100840152151561012083015215156101408201526101600190565b901515815260200190565b90815260200190565b6000602082528251806020840152613442816040850160208701613df2565b601f01601f19169190910160400192915050565b6020808252601d908201527f4552433230536e617073686f743a206e6f6e6578697374656e74206964000000604082015260600190565b60208082526017908201527f5265776172647320616c726561647920636c61696d6564000000000000000000604082015260600190565b6020808252818101527f537472696e67733a20686578206c656e67746820696e73756666696369656e74604082015260600190565b60208082526023908201527f45524332303a207472616e7366657220746f20746865207a65726f206164647260408201526265737360e81b606082015260800190565b60208082526022908201527f45524332303a206275726e20616d6f756e7420657863656564732062616c616e604082015261636560f01b606082015260800190565b60208082526022908201527f45524332303a20617070726f766520746f20746865207a65726f206164647265604082015261737360f01b606082015260800190565b60208082526026908201527f45524332303a207472616e7366657220616d6f756e7420657863656564732062604082015265616c616e636560d01b606082015260800190565b60208082526023908201527f4d75737420776974686472617720616d6f756e742077697468696e2062616c616040820152626e636560e81b606082015260800190565b60208082526047908201527f4d75737420686176652061207374616b65642062616c616e6365206f66206d6f60408201527f7265207468616e206d696e5374616b65204d414920746f206265636f6d6520616060820152661039ba30b5b2b960c91b608082015260a00190565b60208082526027908201527f4164647265737320686173206e6f20766f74657320617661696c61626c6520746040820152666f20636c61696d60c81b606082015260800190565b6020808252602c908201527f4d7573742068617665207374616b657220726f6c6520746f20706572666f726d60408201526b103a3434b99030b1ba34b7b760a11b606082015260800190565b60208082526026908201527f596f75206861766520766f74656420666f7220616e6f746865722073696465206040820152656265666f726560d01b606082015260800190565b602080825260609082018190527f51756f72756d206d7573742065697468657220626520616c6c6f77656420776960408301527f7468206120766f74652071756f72756d206e756d626572206f72206469736162908201527f6c656420776974686f7574206120766f74652071756f72756d206e756d626572608082015260a00190565b6020808252600c908201526b496e76616c6964207369646560a01b604082015260600190565b60208082526028908201527f45524332303a207472616e7366657220616d6f756e74206578636565647320616040820152676c6c6f77616e636560c01b606082015260800190565b60208082526050908201527f596f75206d757374206e6f742062652070617274696369706174696e6720696e60408201527f20616e7920766f746520696e206f7264657220746f207769746864726177206160608201526f6e79207374616b656420746f6b656e7360801b608082015260a00190565b60208082526024908201527f45524332303a206275726e20616d6f756e74206578636565647320616c6c6f77604082015263616e636560e01b606082015260800190565b602080825260139082015272141bdb1b08191bd95cc81b9bdd08195e1a5cdd606a1b604082015260600190565b60208082526021908201527f45524332303a206275726e2066726f6d20746865207a65726f206164647265736040820152607360f81b606082015260800190565b60208082526025908201527f45524332303a207472616e736665722066726f6d20746865207a65726f206164604082015264647265737360d81b606082015260800190565b6020808252603f908201527f54686520616d6f756e74206f6620746f6b656e7320746f206265206275726e6560408201527f642f206d696e746564206d757374206265206c6172676572207468616e203000606082015260800190565b6020808252601a908201527f4d7573742062652061206e6f6e2d7a65726f2061646472657373000000000000604082015260600190565b60208082526024908201527f45524332303a20617070726f76652066726f6d20746865207a65726f206164646040820152637265737360e01b606082015260800190565b6020808252602e908201527f596f7520646f206e6f74206861766520656e6f75676820766f74657320746f2060408201526d3237903a3434b99030b1ba34b7b760911b606082015260800190565b60208082526016908201527504552433230536e617073686f743a20696420697320360541b604082015260600190565b6020808252608f908201527f412062616c616e6365206f6620686967686572207468616e206d696e5374616b60408201527f6520697320726571756972656420746f206d61696e7461696e20726f6c65206f60608201527f66207374616b65722c20696620796f75207769736820746f207265766f6b652060808201527f74686520726f6c65206f66207374616b65722c20757365207265766f6b65537460a08201526e30b5b2b9141490333ab731ba34b7b760891b60c082015260e00190565b60208082526047908201527f4164647265737320686173206e6f20766f7465732063757272656e746c792c2060408201527f63616c6c2066756e6374696f6e20636c61696d566f746520746f20636c61696d606082015266206120766f746560c81b608082015260a00190565b60208082526018908201527f596f752061726520616c72656164792061207374616b65720000000000000000604082015260600190565b60208082526025908201527f45524332303a2064656372656173656420616c6c6f77616e63652062656c6f77604082015264207a65726f60d81b606082015260800190565b6020808252602f908201527f416363657373436f6e74726f6c3a2063616e206f6e6c792072656e6f756e636560408201526e103937b632b9903337b91039b2b63360891b606082015260800190565b6020808252601f908201527f45524332303a206d696e7420746f20746865207a65726f206164647265737300604082015260600190565b918252602082015260400190565b60ff91909116815260200190565b60008219821115613da357613da3613e99565b500190565b600082613db757613db7613eaf565b500490565b6000816000190483118215151615613dd657613dd6613e99565b500290565b600082821015613ded57613ded613e99565b500390565b60005b83811015613e0d578181015183820152602001613df5565b8381111561293a5750506000910152565b600081613e2d57613e2d613e99565b506000190190565b600281046001821680613e4957607f821691505b60208210811415610b5c57634e487b7160e01b600052602260045260246000fd5b6000600019821415613e7e57613e7e613e99565b5060010190565b600082613e9457613e94613eaf565b500690565b634e487b7160e01b600052601160045260246000fd5b634e487b7160e01b600052601260045260246000fdfeb19546dff01e856fb3f010c267a7b1c60363cf8a4664e21cc89c26224620214eb9e206fa2af7ee1331b72ce58b6d938ac810ce9b5cdb65d35ab723fd67badf9e72c3eec1760bf69946625c2d4fb8e44e2c806345041960b434674fb9ab3976cfa26469706673582212202ca92da40253556529892d3b2875811e5d92b01ad83f5f62877f5036ba68d0f064736f6c63430008000033",
  "immutableReferences": {},
  "source": "// SPDX-License-Identifier: MIT\npragma solidity >=0.4.22 <0.9.0;\n\nimport \"@openzeppelin/contracts/utils/Context.sol\";\nimport \"@openzeppelin/contracts/token/ERC20/ERC20.sol\";\nimport \"@openzeppelin/contracts/token/ERC20/extensions/ERC20Burnable.sol\";\nimport \"@openzeppelin/contracts/access/AccessControl.sol\";\nimport \"@openzeppelin/contracts/utils/math/SafeMath.sol\";\nimport \"@openzeppelin/contracts/security/Pausable.sol\";\n\nimport \"@openzeppelin/contracts/token/ERC20/extensions/ERC20Snapshot.sol\";\n   \n\ncontract Mai is Context, ERC20, ERC20Burnable, ERC20Snapshot, AccessControl, Pausable {\n    using SafeMath for uint256;\n    bytes32 public constant VOTER_ROLE = keccak256(\"VOTER_ROLE\");\n    bytes32 public constant STAKER_ROLE = keccak256(\"STAKER_ROLE\");\n    bytes32 public constant OWNER_ROLE = keccak256(\"OWNER_ROLE\");\n    bytes32 public constant PAUSER_ROLE = keccak256(\"PAUSER_ROLE\");\n    bytes32 public constant SNAPSHOT_ROLE = keccak256(\"SNAPSHOT_ROLE\");\n    \n    event _VoteMade(uint256 indexed pollID, uint256 votes, address indexed voter, uint256 side);\n    event _VoteClaimed(address indexed voter, uint256 amountClaimed);\n    event _VoteRevoked(uint256 indexed pollID, uint256 votes, address indexed voter); \n    event _VoteEnded(uint256 indexed pollID);\n    event _RewardsMinted(uint256 indexed pollID, uint256 indexed amount);\n    event _RewardsBurned(uint256 indexed pollID, uint256 indexed amount);\n    event _PollCreated(uint256 votedTokenAmount, uint256 end, uint256 indexed pollID, address indexed creator);\n    event _VotingRightsGranted(address indexed voter);\n    event _VotingRightsRevoked(address indexed voter);\n    event _ResultsGenerated(uint256 amount, uint256 pollID);\n    event _Minted(address indexed to, uint256 amount);\n\n    constructor() ERC20(\"Mai\", \"MAI\") {\n        _mint(msg.sender, 10**12 * 10 ** decimals());\n        _setupRole(STAKER_ROLE, msg.sender);\n        _setupRole(OWNER_ROLE, msg.sender);\n        _setupRole(PAUSER_ROLE, msg.sender);\n        _setupRole(SNAPSHOT_ROLE, msg.sender);\n        _setupRole(DEFAULT_ADMIN_ROLE, msg.sender);\n    }\n\n    modifier onlyOwner() {\n        require(hasRole(OWNER_ROLE, msg.sender) || msg.sender == stakingAddress);\n        _;\n    }\n\n    modifier checkTime(uint256 pollID) {\n      if (pollEnded(pollID) == true && pollMapping[pollID].ongoing == true) {\n        pollMapping[pollID].ongoing = false;\n      } \n      _;\n    }\n      \n\n    function pause() onlyOwner internal {\n        _pause();\n    }\n\n    function unpause() onlyOwner internal {\n        _unpause();\n    }\n\n    function snapshot() public onlyOwner() {\n        _snapshot();\n    }\n\n    function _beforeTokenTransfer(address from, address to, uint256 amount)\n        internal\n        override(ERC20, ERC20Snapshot)\n    {\n        super._beforeTokenTransfer(from, to, amount);\n    }\n\n    // Staking\n\n    event _StakerGranted(address to);\n    event _StakerRoleRevoked(address account, uint256 amountReturned);\n    event _StakesDeposited(address account, uint256 amount);\n    event _StakesWithdrawn(address account, uint256 amount);\n    event _MinimumStakeChanged(uint256 minStake);\n\n    mapping(address => uint256) stakedBalance; // Maps user address to the total amount of staked tokens\n\n    \n    uint256 minStake = 1000;\n    // uint256 minStakeTimeBeforeVoterRoleGranted = ;\n\n    function changeMinimumStake(uint256 newMinAmount) onlyOwner public {\n        require(newMinAmount != minStake);\n        require(msg.sender == stakingAddress);\n        minStake = newMinAmount;\n        emit _MinimumStakeChanged(newMinAmount);\n    }\n\n    /**\n    @dev sets staking address for testing only\n    @param staking Staking Address\n    */\n\n    function setStakingAddress(address staking) onlyOwner public {\n      stakingAddress = staking;\n    }\n\n    /**\n    @dev Allows users to stake, adding their respective amount of tokens to the staked balance\n    @param amount Amount of tokens used in the stake pool\n    */\n\n    function stake(uint256 amount) payable public {\n        require(amount >= minStake, \"Must have a staked balance of more than minStake MAI to become a staker\");\n        require(hasRole(STAKER_ROLE, msg.sender) == false, \"You are already a staker\");\n        transferFrom(msg.sender, stakingAddress, amount);\n        grantRole(STAKER_ROLE, msg.sender);\n        stakedBalance[msg.sender] = stakedBalance[msg.sender].add(amount);\n        emit _StakerGranted(msg.sender);\n    }\n\n    /**\n    @dev Withdraws tokens from the stake pool back to the users account, the user must not be part of any active polls\n    @param amount Amount of tokens the user wishes to withdraw\n    */\n\n    function withdraw(uint256 amount) payable public {\n        require(hasRole(STAKER_ROLE, msg.sender), \"Must have staker role to perform this action\");\n        require(amount <= stakedBalance[msg.sender], \"Must withdraw amount within balance\"); \n        require(stakedBalance[msg.sender].sub(amount) >= minStake, \"A balance of higher than minStake is required to maintain role of staker, if you wish to revoke the role of staker, use revokeStaker() function\");\n        require(checkParticipation(msg.sender) == false, \"You must not be participating in any vote in order to withdraw any staked tokens\");\n        transfer(msg.sender, amount);\n        stakedBalance[msg.sender] = stakedBalance[msg.sender].sub(amount);\n        stakedTotal[msg.sender] = stakedTotal[msg.sender].sub(amount);\n        emit _StakesWithdrawn(msg.sender, amount);\n    }\n\n    /**\n    @dev Deposits tokens into the stake pool from the users account\n    @param amount Amount of tokens the user wishes to deposit\n    */\n\n    function deposit(uint256 amount) payable public {\n        require(hasRole(STAKER_ROLE, msg.sender), \"Must have staker role to perform this action\");\n        transfer(stakingAddress, amount);\n        stakedBalance[msg.sender] = stakedBalance[msg.sender].add(amount);\n        stakedTotal[msg.sender] = stakedTotal[msg.sender].add(amount);\n        emit _StakesDeposited(msg.sender, amount);\n    }\n\n    /**\n    @dev Function for users to see the balance they currently have in the stake pool\n    */\n\n    function viewStakedBalance() view public returns (uint256 balance) {\n        require(hasRole(STAKER_ROLE, msg.sender), \"Must have staker role to perform this action\");\n        return (stakedBalance[msg.sender]);\n    }\n\n    /**\n    @dev Function for users to see the TOTAL balance (sum of stakes in all ecosystems) they currently have in the stake pool\n    */\n\n    function viewStakedTotal() view public returns (uint256 balance) {\n      require(hasRole(STAKER_ROLE, msg.sender), \"Must have staker role to perform this action\");\n      return(stakedTotal[msg.sender]);\n    }\n    /**\n    @dev Revokes their staker role and returns all their tokens back to the user\n    */\n    \n    function revokeStaker() public {\n        require(hasRole(STAKER_ROLE, msg.sender), \"Must have staker role to perform this action\");\n        revokeRole(STAKER_ROLE, msg.sender);\n        transfer(msg.sender, stakedBalance[msg.sender]);\n        stakedBalance[msg.sender] = 0;\n        emit _StakerRoleRevoked(msg.sender, stakedBalance[msg.sender]); \n    }\n\n    // Polls and votes\n\n    struct Poll {\n        address pollStarter; // initiator of the poll;\n        uint256 start; // block start;\n        uint256 end; // start + period (_commitDuration)\n        // uint256 end; // Date when poll ends\n        uint256 votedTokenAmount; // Amount of tokens minted/ burned if poll is passed\n        bool quorumOption; // Allows option to judge voting process by percentage \n        uint256 voteQuorum; // The percentage of for votes required for poll to pass\n        uint256 votesFor; // Amount of votes supporting the proposal \n        uint256 votesAgainst; // Amount of votes countering the proposal\n        uint256 action; // action 1: Minting tokens; action 2: Burning tokens; action 3: Transfering tokens; action 4: snapshot;\n        bool ongoing; // Returns true if poll is still active\n        bool rewardsClaimed; // Stores if the rewards were already claimed\n        mapping(address => uint256) _votesClaimed; // Amount of votes already claimed by the voter\n        mapping(address => bool) _participant; // Maps address of user to whether they have voted in an active poll\n        mapping(address => uint256) _votes; // Amount of votes placed by the voter\n        mapping(address => uint256) _side; // The side the voter is on if they already voted\n    }\n\n    \n    mapping (uint256 => Poll) public pollMapping; // Maps the pollID to the struct\n    mapping (uint256 => uint256) public totalVotes; // Maps the pollID to its respective number of votes\n    mapping (address => uint256) public stakedTotal; // Maps the user address to their total staked balance in all categories\n    uint256 pollNonce = 0; // Counter for pollID\n    address public stakingAddress; // Address used for storing staked tokens\n\n    /**\n    @dev Initiates poll and emits PollCreate event\n    @param _quorumOption Users can decide if the winner is decided by the percentage majority out of 100 or whether the 'for' side has more votes than the 'against' side\n    @param _voteQuorum Assumes that the _quorumOption is false, passes in the percentage majority out of 100 that is required to win the vote\n    @param _votedTokenAmount The amount of tokens minted/burned if poll is successful \n    @param _commitDuration Length of the poll in days\n    @param _action Type of poll, action 1 is for minting tokens, action 2 is for burning tokens, action 3 is for transfering tokens, action 4 is for taking a snapshot.\n    */\n\n    function startPoll(bool _quorumOption, uint256 _voteQuorum, uint256 _action, uint256 _votedTokenAmount, uint256 _commitDuration) public returns (uint256 pollID) {\n        require(hasRole(STAKER_ROLE, msg.sender));\n        require (((_quorumOption == false && _voteQuorum == 0) || (_quorumOption == true && _voteQuorum > 0)), \"Quorum must either be allowed with a vote quorum number or disabled without a vote quorum number\");\n        require (_votedTokenAmount > 0, \"The amount of tokens to be burned/ minted must be larger than 0\");\n        uint256 end = block.timestamp.add(_commitDuration.mul(1 days));\n        pollNonce = pollNonce.add(1);\n        Poll storage newPoll = pollMapping[pollNonce];\n        newPoll.pollStarter = msg.sender;\n        newPoll.start = block.timestamp;\n        newPoll.action = _action;\n        newPoll.quorumOption = _quorumOption;\n        newPoll.voteQuorum = _voteQuorum;\n        newPoll.votedTokenAmount = _votedTokenAmount;\n        newPoll.rewardsClaimed = false;\n        newPoll.end = end;\n        newPoll.votesFor = 0;\n        newPoll.votesAgainst = 0;\n        newPoll.ongoing = true;\n\n        emit _PollCreated(_votedTokenAmount, end, pollNonce, msg.sender);\n        return pollNonce;\n    }\n\n    /**\n    @dev Allocates voter role to stakers and emits event\n    @param voter address of staker\n    */\n\n    function voterAllocation(address voter) public {  //thi\n        require(hasRole(STAKER_ROLE, voter)); \n\n        grantRole(VOTER_ROLE, voter);       \n        emit _VotingRightsGranted(voter);\n    }\n\n    /**\n    @dev Revokes votes that are already made and returns the vote to msg.sender //B: to msg.sender? this does not make sense... \n        //B: is this talking about after a vote is completed or the scenario where a staker unstakes?\n    @param amount Amount of votes to be revoked\n    @param pollID ID of poll\n    */\n    \n    /* B: this revokeVote  function is problematic, as it allows for one to votepump and mislead strategic voters of the other party. \n        Consider this analogy: you have three candidates: Biden, Sanders, and Trump, and their support numbers are 40%, 25%, and 35%.\n        A significant number of Biden supporters support Sanders as well, and they only vote for Biden because they believe Sanders just hasn't got a chance\n        With this revokeVote set-up, Trump supports can pump up Sanders's vote, say to 40% - in which the support numbers would be 40%, 40%, 20%.\n            Biden-Sanders supporters would then be essentially offered a chance to switch to Sanders, and have the candidate of their desire actually win. \n            Suppose 6% of Biden supporters switched to sanders, giving us: 34%, 46%, 20%. Then it would appear that Sanders is winning. \n            At the very last moment, suppose Trump supporters revoke their vote, we'd be left with 34%, 31%, 35%. Trump wins. \n    */\n\n    /*function revokeVote(uint256 amount, uint256 pollID) public {\n        require(msg.sender != address(0));\n        require(pollMapping[pollID].ongoing = true);\n        require(isNotExpired(pollID));\n        require(amount <= pollMapping[pollID]._votes[msg.sender]);\n        pollMapping[pollID]._votes[msg.sender] = pollMapping[pollID]._votes[msg.sender].sub(amount);\n        pollMapping[pollID]._votesClaimed[msg.sender] = pollMapping[pollID]._votesClaimed[msg.sender].add(amount);\n        if (pollMapping[pollID]._votes[msg.sender] == 0) {\n            pollMapping[pollID]._participant[msg.sender] = false;\n        }\n        totalVotes[pollID] = totalVotes[pollID].sub(amount);\n    }\n    */\n\n\n    /**\n    @dev Function that takes away voter role from addresses when necessary\n    @param voter Voter that is going to get their role revoked\n    */\n\n    function voterRevokation(address voter) public {\n        require(hasRole(VOTER_ROLE, voter)); //msg.sender change to voter\n        require(voter != address(0));\n        revokeRole(VOTER_ROLE, voter);\n        emit _VotingRightsRevoked(voter);\n    }\n\n    /**\n    @dev Checks if user has voter role\n    @param voter Address of voter\n    */\n\n    modifier voterCheck(address voter) {\n        require(hasRole(VOTER_ROLE, voter));\n        _;\n    }\n\n    /**\n    @dev Claims votes from existing staked tokens and stores available votes at _votes\n    @param pollID ID of vote\n    */\n\n    function claimVote(uint256 pollID, address voter) public checkTime(pollID) voterCheck(voter) {  // msg.sender is usually for contracts, not addresses. So here, it is change(d) to voter\n        require(voter != address(0));\n        uint256 claimable = (stakedTotal[voter].sub(pollMapping[pollID]._votesClaimed[voter])).sub(minStake.sub(1));\n        require(claimable > 0, \"Address has no votes available to claim\");\n        pollMapping[pollID]._votesClaimed[voter] = pollMapping[pollID]._votesClaimed[voter].add(claimable);\n        pollMapping[pollID]._votes[voter] = pollMapping[pollID]._votes[voter].add(claimable);\n        emit _VoteClaimed(voter, claimable);\n    }\n\n    function mint(address account, uint256 amount) onlyOwner public {\n        _mint(account, amount);\n        emit _Minted(account, amount);\n    }\n\n    /**\n    @dev Returns number of votes available to users\n    @param voter Address of requested voter\n    @param pollID ID of poll\n    */\n\n    function numOfVotes(address voter, uint256 pollID) public checkTime(pollID) returns  (uint256 votes) {\n        require(voter != address(0));\n        return pollMapping[pollID]._votes[voter]; \n    }\n\n    /**\n    @dev Voters makes votes on corresponding polls, deducting their _votes and emitting _VoteMade event\n    @param votesMade Amount of votes going to be made\n    @param pollID ID of the poll\n    @param side The side of the poll the user wants to support (1: for; 2: against)\n    */\n\n\n    function makeVote(uint256 votesMade, uint256 pollID, uint256 side, address voter) public checkTime(pollID) voterCheck(voter) {\n        require(voter != address(0), \"Must be a non-zero address\");\n        require(pollMapping[pollID].ongoing = true, \"Must be an ongoing poll\");\n        require(pollMapping[pollID]._votes[voter] > 0, \"Address has no votes currently, call function claimVote to claim a vote\");\n        require(votesMade <= pollMapping[pollID]._votes[voter], \"You do not have enough votes to do this action\");\n        require(pollMapping[pollID]._side[voter] == 0 || pollMapping[pollID]._side[voter] == side, \"You have voted for another side before\");\n        require(side == 1 || side == 2, \"Invalid side\");\n        if (side == 1) {\n            pollMapping[pollID].votesFor = pollMapping[pollID].votesFor.add(1);\n        } else if (side == 2) {\n            pollMapping[pollID].votesAgainst = pollMapping[pollID].votesAgainst.add(1);\n        }\n        pollMapping[pollID]._side[voter] = side;\n        pollMapping[pollID]._votes[voter] = pollMapping[pollID]._votes[voter].sub(votesMade);\n        totalVotes[pollID] = totalVotes[pollID].add(1);\n        pollMapping[pollID]._participant[voter] = true;\n        emit _VoteMade(pollID, votesMade, voter, side); \n    }\n\n    /**\n    @dev Returns whether the poll/ proposal passed the voting\n    @param pollID ID of the poll\n    */\n    // ties are understood as rejections\n\n    function results(uint256 pollID) public checkTime(pollID) returns (bool passed) {\n        endPoll(pollID);\n        require(isNotExpired(pollID) == false);\n        require(pollExists(pollID));\n        if (pollMapping[pollID].quorumOption == false) {\n            if (pollMapping[pollID].votesFor > pollMapping[pollID].votesAgainst) {\n                return (true);\n            } else if (pollMapping[pollID].votesFor < pollMapping[pollID].votesAgainst) {\n                return (false);\n            } else {\n                return (false);\n            }\n        } else if (pollMapping[pollID].quorumOption == true) {\n            if (quorumCalc(pollID) >= pollMapping[pollID].voteQuorum) {\n                return (true);\n            } else if (quorumCalc(pollID) < pollMapping[pollID].voteQuorum) {\n                return  (false);\n            } else {\n                return (false);\n            }\n        }\n    }\n\n    /**\n    @dev Calculates the percentage of voters that supports the proposal\n    @param pollID ID of the poll\n    */\n\n    function quorumCalc(uint256 pollID) public checkTime(pollID) returns  (uint256 result) {\n        require (totalVotes[pollID] > 0);\n        require (pollExists(pollID), \"Poll does not exist\");\n        uint256 ans = pollMapping[pollID].votesFor.div(totalVotes[pollID]);\n        ans = ans.mul(100);\n        return ans;\n    }\n\n    /**\n    @dev Ends the poll instantly if necessary\n    @param pollID ID of the poll\n    */\n\n    function endPoll(uint pollID) onlyOwner checkTime(pollID) public {\n        require(pollExists(pollID));\n        pollMapping[pollID].ongoing = false;\n    }\n\n    /**\n    @dev can be called by other claim mint, burn or transaction functions\n    @param pollID ID of the poll\n    */\n    \n\n    function _claimRewards(uint256 pollID) checkTime(pollID) public {\n      require(pollMapping[pollID].rewardsClaimed == false, \"Rewards already claimed\");\n      pollMapping[pollID].rewardsClaimed = true;\n    }\n\n    /**\n    @dev Mints the proposed amount of tokens after the poll has ended and passed\n    @param pollID ID of the poll\n    */\n        \n\n    function mintRewards (uint256 pollID) checkTime(pollID) onlyOwner payable public {\n        _claimRewards(pollID);\n        require(pollMapping[pollID].action == 1);\n        require(pollMapping[pollID].ongoing == false);\n        _beforeTokenTransfer(address(0), msg.sender, pollMapping[pollID].votedTokenAmount);\n        _mint(msg.sender, pollMapping[pollID].votedTokenAmount);\n        emit _ResultsGenerated(pollMapping[pollID].votedTokenAmount, pollID);  \n    }\n\n    /**\n    @dev Burns the proposed amount of tokens after the poll has ended and passed\n    @param pollID ID of the poll\n    */\n\n    function burnRewards (uint256 pollID) checkTime(pollID) onlyOwner payable public { \n        _claimRewards(pollID);\n        require(pollMapping[pollID].action == 2);\n        require(pollMapping[pollID].ongoing == false);\n        _beforeTokenTransfer(msg.sender, address(0), pollMapping[pollID].votedTokenAmount);\n        burnFrom(msg.sender, pollMapping[pollID].votedTokenAmount);\n        emit _ResultsGenerated(pollMapping[pollID].votedTokenAmount, pollID);\n    }\n\n\n    function transferRewards(uint256 pollID, address recipient) checkTime(pollID) onlyOwner public virtual {\n        _claimRewards(pollID);\n        require(pollMapping[pollID].action == 3);\n        require(pollMapping[pollID].ongoing == false);\n        _beforeTokenTransfer(msg.sender, address(0), pollMapping[pollID].votedTokenAmount);\n        burn(pollMapping[pollID].votedTokenAmount);\n        _transfer(_msgSender(), recipient, pollMapping[pollID].votedTokenAmount);\n        \n        emit _ResultsGenerated(pollMapping[pollID].votedTokenAmount, pollID);\n    }\n\n    function takeSnapshot(uint256 pollID) onlyOwner public virtual {\n        require(pollMapping[pollID].action == 4);\n        require(pollMapping[pollID].ongoing == false);\n        snapshot();        \n    }\n\n    /**\n    @dev Checks if the address of the voter has participated in any active poll\n    @param voter Address of the voter\n    */\n\n    function checkParticipation(address voter) public view returns(bool participating){\n        for (uint256 i = 1; i < pollNonce; i++) {\n            if (pollMapping[i].ongoing == true && pollMapping[i]._participant[voter] == true) {\n                return true;\n            }\n        }\n        return false;\n    }\n\n    /**\n    @dev Checks if poll exists and returns a boolean value\n    @param _pollID ID of the poll\n    */\n\n    function pollExists(uint256 _pollID) public view returns (bool exists) {\n        return (_pollID != 0 && _pollID <= pollNonce);\n    }\n\n    /**\n    @dev Checks of poll has ended or not\n    @param _pollID ID of the poll\n    */\n\n    function pollEnded(uint256 _pollID) public view returns (bool ended) {\n        require(pollExists(_pollID));\n\n        return isNotExpired(pollMapping[_pollID].end);\n    }\n\n    /**\n    @dev Checks if a date has expired or not\n    @param _terminationDate The date for checking\n    */\n\n    function isNotExpired(uint256 _terminationDate) public view returns (bool expired) {\n        return (block.timestamp < _terminationDate);\n    }\n}\n\n",
  "sourcePath": "/Users/colinlam/Desktop/code/HoHey/contracts/MaiToken.sol",
  "compiler": {
    "name": "solc",
    "version": "0.8.0+commit.c7dfd78e.Emscripten.clang"
  },
  "schemaVersion": "3.4.1",
  "updatedAt": "2021-07-23T12:05:25.269Z",
  "devdoc": {
    "kind": "dev",
    "methods": {
      "_claimRewards(uint256)": {
        "details": "can be called by other claim mint, burn or transaction functions",
        "params": {
          "pollID": "ID of the poll"
        }
      },
      "allowance(address,address)": {
        "details": "See {IERC20-allowance}."
      },
      "approve(address,uint256)": {
        "details": "See {IERC20-approve}. Requirements: - `spender` cannot be the zero address."
      },
      "balanceOf(address)": {
        "details": "See {IERC20-balanceOf}."
      },
      "balanceOfAt(address,uint256)": {
        "details": "Retrieves the balance of `account` at the time `snapshotId` was created."
      },
      "burn(uint256)": {
        "details": "Destroys `amount` tokens from the caller. See {ERC20-_burn}."
      },
      "burnFrom(address,uint256)": {
        "details": "Destroys `amount` tokens from `account`, deducting from the caller's allowance. See {ERC20-_burn} and {ERC20-allowance}. Requirements: - the caller must have allowance for ``accounts``'s tokens of at least `amount`."
      },
      "burnRewards(uint256)": {
        "details": "Burns the proposed amount of tokens after the poll has ended and passed",
        "params": {
          "pollID": "ID of the poll"
        }
      },
      "checkParticipation(address)": {
        "details": "Checks if the address of the voter has participated in any active poll",
        "params": {
          "voter": "Address of the voter"
        }
      },
      "claimVote(uint256,address)": {
        "details": "Claims votes from existing staked tokens and stores available votes at _votes",
        "params": {
          "pollID": "ID of vote"
        }
      },
      "decimals()": {
        "details": "Returns the number of decimals used to get its user representation. For example, if `decimals` equals `2`, a balance of `505` tokens should be displayed to a user as `5,05` (`505 / 10 ** 2`). Tokens usually opt for a value of 18, imitating the relationship between Ether and Wei. This is the value {ERC20} uses, unless this function is overridden; NOTE: This information is only used for _display_ purposes: it in no way affects any of the arithmetic of the contract, including {IERC20-balanceOf} and {IERC20-transfer}."
      },
      "decreaseAllowance(address,uint256)": {
        "details": "Atomically decreases the allowance granted to `spender` by the caller. This is an alternative to {approve} that can be used as a mitigation for problems described in {IERC20-approve}. Emits an {Approval} event indicating the updated allowance. Requirements: - `spender` cannot be the zero address. - `spender` must have allowance for the caller of at least `subtractedValue`."
      },
      "deposit(uint256)": {
        "details": "Deposits tokens into the stake pool from the users account",
        "params": {
          "amount": "Amount of tokens the user wishes to deposit"
        }
      },
      "endPoll(uint256)": {
        "details": "Ends the poll instantly if necessary",
        "params": {
          "pollID": "ID of the poll"
        }
      },
      "getRoleAdmin(bytes32)": {
        "details": "Returns the admin role that controls `role`. See {grantRole} and {revokeRole}. To change a role's admin, use {_setRoleAdmin}."
      },
      "grantRole(bytes32,address)": {
        "details": "Grants `role` to `account`. If `account` had not been already granted `role`, emits a {RoleGranted} event. Requirements: - the caller must have ``role``'s admin role."
      },
      "hasRole(bytes32,address)": {
        "details": "Returns `true` if `account` has been granted `role`."
      },
      "increaseAllowance(address,uint256)": {
        "details": "Atomically increases the allowance granted to `spender` by the caller. This is an alternative to {approve} that can be used as a mitigation for problems described in {IERC20-approve}. Emits an {Approval} event indicating the updated allowance. Requirements: - `spender` cannot be the zero address."
      },
      "isNotExpired(uint256)": {
        "details": "Checks if a date has expired or not",
        "params": {
          "_terminationDate": "The date for checking"
        }
      },
      "makeVote(uint256,uint256,uint256,address)": {
        "details": "Voters makes votes on corresponding polls, deducting their _votes and emitting _VoteMade event",
        "params": {
          "pollID": "ID of the poll",
          "side": "The side of the poll the user wants to support (1: for; 2: against)",
          "votesMade": "Amount of votes going to be made"
        }
      },
      "mintRewards(uint256)": {
        "details": "Mints the proposed amount of tokens after the poll has ended and passed",
        "params": {
          "pollID": "ID of the poll"
        }
      },
      "name()": {
        "details": "Returns the name of the token."
      },
      "numOfVotes(address,uint256)": {
        "details": "Returns number of votes available to users",
        "params": {
          "pollID": "ID of poll",
          "voter": "Address of requested voter"
        }
      },
      "paused()": {
        "details": "Returns true if the contract is paused, and false otherwise."
      },
      "pollEnded(uint256)": {
        "details": "Checks of poll has ended or not",
        "params": {
          "_pollID": "ID of the poll"
        }
      },
      "pollExists(uint256)": {
        "details": "Checks if poll exists and returns a boolean value",
        "params": {
          "_pollID": "ID of the poll"
        }
      },
      "quorumCalc(uint256)": {
        "details": "Calculates the percentage of voters that supports the proposal",
        "params": {
          "pollID": "ID of the poll"
        }
      },
      "renounceRole(bytes32,address)": {
        "details": "Revokes `role` from the calling account. Roles are often managed via {grantRole} and {revokeRole}: this function's purpose is to provide a mechanism for accounts to lose their privileges if they are compromised (such as when a trusted device is misplaced). If the calling account had been granted `role`, emits a {RoleRevoked} event. Requirements: - the caller must be `account`."
      },
      "results(uint256)": {
        "details": "Returns whether the poll/ proposal passed the voting",
        "params": {
          "pollID": "ID of the poll"
        }
      },
      "revokeRole(bytes32,address)": {
        "details": "Revokes `role` from `account`. If `account` had been granted `role`, emits a {RoleRevoked} event. Requirements: - the caller must have ``role``'s admin role."
      },
      "revokeStaker()": {
        "details": "Revokes their staker role and returns all their tokens back to the user"
      },
      "setStakingAddress(address)": {
        "details": "sets staking address for testing only",
        "params": {
          "staking": "Staking Address"
        }
      },
      "stake(uint256)": {
        "details": "Allows users to stake, adding their respective amount of tokens to the staked balance",
        "params": {
          "amount": "Amount of tokens used in the stake pool"
        }
      },
      "startPoll(bool,uint256,uint256,uint256,uint256)": {
        "details": "Initiates poll and emits PollCreate event",
        "params": {
          "_action": "Type of poll, action 1 is for minting tokens, action 2 is for burning tokens, action 3 is for transfering tokens, action 4 is for taking a snapshot.",
          "_commitDuration": "Length of the poll in days",
          "_quorumOption": "Users can decide if the winner is decided by the percentage majority out of 100 or whether the 'for' side has more votes than the 'against' side",
          "_voteQuorum": "Assumes that the _quorumOption is false, passes in the percentage majority out of 100 that is required to win the vote",
          "_votedTokenAmount": "The amount of tokens minted/burned if poll is successful "
        }
      },
      "supportsInterface(bytes4)": {
        "details": "See {IERC165-supportsInterface}."
      },
      "symbol()": {
        "details": "Returns the symbol of the token, usually a shorter version of the name."
      },
      "totalSupply()": {
        "details": "See {IERC20-totalSupply}."
      },
      "totalSupplyAt(uint256)": {
        "details": "Retrieves the total supply at the time `snapshotId` was created."
      },
      "transfer(address,uint256)": {
        "details": "See {IERC20-transfer}. Requirements: - `recipient` cannot be the zero address. - the caller must have a balance of at least `amount`."
      },
      "transferFrom(address,address,uint256)": {
        "details": "See {IERC20-transferFrom}. Emits an {Approval} event indicating the updated allowance. This is not required by the EIP. See the note at the beginning of {ERC20}. Requirements: - `sender` and `recipient` cannot be the zero address. - `sender` must have a balance of at least `amount`. - the caller must have allowance for ``sender``'s tokens of at least `amount`."
      },
      "viewStakedBalance()": {
        "details": "Function for users to see the balance they currently have in the stake pool"
      },
      "viewStakedTotal()": {
        "details": "Function for users to see the TOTAL balance (sum of stakes in all ecosystems) they currently have in the stake pool"
      },
      "voterAllocation(address)": {
        "details": "Allocates voter role to stakers and emits event",
        "params": {
          "voter": "address of staker"
        }
      },
      "voterRevokation(address)": {
        "details": "Function that takes away voter role from addresses when necessary",
        "params": {
          "voter": "Voter that is going to get their role revoked"
        }
      },
      "withdraw(uint256)": {
        "details": "Withdraws tokens from the stake pool back to the users account, the user must not be part of any active polls",
        "params": {
          "amount": "Amount of tokens the user wishes to withdraw"
        }
      }
    },
    "version": 1
  },
  "userdoc": {
    "kind": "user",
    "methods": {},
    "version": 1
  }
}