{
  "contractName": "Mai",
  "abi": [
    {
      "inputs": [],
      "stateMutability": "nonpayable",
      "type": "constructor"
    },
    {
      "anonymous": false,
      "inputs": [
        {
          "indexed": true,
          "internalType": "address",
          "name": "owner",
          "type": "address"
        },
        {
          "indexed": true,
          "internalType": "address",
          "name": "spender",
          "type": "address"
        },
        {
          "indexed": false,
          "internalType": "uint256",
          "name": "value",
          "type": "uint256"
        }
      ],
      "name": "Approval",
      "type": "event"
    },
    {
      "anonymous": false,
      "inputs": [
        {
          "indexed": false,
          "internalType": "address",
          "name": "account",
          "type": "address"
        }
      ],
      "name": "Paused",
      "type": "event"
    },
    {
      "anonymous": false,
      "inputs": [
        {
          "indexed": true,
          "internalType": "bytes32",
          "name": "role",
          "type": "bytes32"
        },
        {
          "indexed": true,
          "internalType": "bytes32",
          "name": "previousAdminRole",
          "type": "bytes32"
        },
        {
          "indexed": true,
          "internalType": "bytes32",
          "name": "newAdminRole",
          "type": "bytes32"
        }
      ],
      "name": "RoleAdminChanged",
      "type": "event"
    },
    {
      "anonymous": false,
      "inputs": [
        {
          "indexed": true,
          "internalType": "bytes32",
          "name": "role",
          "type": "bytes32"
        },
        {
          "indexed": true,
          "internalType": "address",
          "name": "account",
          "type": "address"
        },
        {
          "indexed": true,
          "internalType": "address",
          "name": "sender",
          "type": "address"
        }
      ],
      "name": "RoleGranted",
      "type": "event"
    },
    {
      "anonymous": false,
      "inputs": [
        {
          "indexed": true,
          "internalType": "bytes32",
          "name": "role",
          "type": "bytes32"
        },
        {
          "indexed": true,
          "internalType": "address",
          "name": "account",
          "type": "address"
        },
        {
          "indexed": true,
          "internalType": "address",
          "name": "sender",
          "type": "address"
        }
      ],
      "name": "RoleRevoked",
      "type": "event"
    },
    {
      "anonymous": false,
      "inputs": [
        {
          "indexed": true,
          "internalType": "address",
          "name": "from",
          "type": "address"
        },
        {
          "indexed": true,
          "internalType": "address",
          "name": "to",
          "type": "address"
        },
        {
          "indexed": false,
          "internalType": "uint256",
          "name": "value",
          "type": "uint256"
        }
      ],
      "name": "Transfer",
      "type": "event"
    },
    {
      "anonymous": false,
      "inputs": [
        {
          "indexed": false,
          "internalType": "address",
          "name": "account",
          "type": "address"
        }
      ],
      "name": "Unpaused",
      "type": "event"
    },
    {
      "anonymous": false,
      "inputs": [
        {
          "indexed": false,
          "internalType": "uint256",
          "name": "voteAmount",
          "type": "uint256"
        },
        {
          "indexed": false,
          "internalType": "uint256",
          "name": "commitEndDate",
          "type": "uint256"
        },
        {
          "indexed": true,
          "internalType": "uint256",
          "name": "pollID",
          "type": "uint256"
        },
        {
          "indexed": true,
          "internalType": "address",
          "name": "creator",
          "type": "address"
        }
      ],
      "name": "_PollCreated",
      "type": "event"
    },
    {
      "anonymous": false,
      "inputs": [
        {
          "indexed": true,
          "internalType": "uint256",
          "name": "pollID",
          "type": "uint256"
        },
        {
          "indexed": false,
          "internalType": "uint256",
          "name": "votes",
          "type": "uint256"
        },
        {
          "indexed": true,
          "internalType": "address",
          "name": "voter",
          "type": "address"
        }
      ],
      "name": "_VoteMade",
      "type": "event"
    },
    {
      "anonymous": false,
      "inputs": [
        {
          "indexed": true,
          "internalType": "address",
          "name": "voter",
          "type": "address"
        }
      ],
      "name": "_VotingRightsGranted",
      "type": "event"
    },
    {
      "anonymous": false,
      "inputs": [
        {
          "indexed": true,
          "internalType": "address",
          "name": "voter",
          "type": "address"
        }
      ],
      "name": "_VotingRightsRevoked",
      "type": "event"
    },
    {
      "anonymous": false,
      "inputs": [
        {
          "indexed": false,
          "internalType": "uint256",
          "name": "amountMinted",
          "type": "uint256"
        },
        {
          "indexed": false,
          "internalType": "uint256",
          "name": "pollID",
          "type": "uint256"
        }
      ],
      "name": "_resultsGenerated",
      "type": "event"
    },
    {
      "inputs": [],
      "name": "DEFAULT_ADMIN_ROLE",
      "outputs": [
        {
          "internalType": "bytes32",
          "name": "",
          "type": "bytes32"
        }
      ],
      "stateMutability": "view",
      "type": "function"
    },
    {
      "inputs": [],
      "name": "MINTER_ROLE",
      "outputs": [
        {
          "internalType": "bytes32",
          "name": "",
          "type": "bytes32"
        }
      ],
      "stateMutability": "view",
      "type": "function"
    },
    {
      "inputs": [],
      "name": "PAUSER_ROLE",
      "outputs": [
        {
          "internalType": "bytes32",
          "name": "",
          "type": "bytes32"
        }
      ],
      "stateMutability": "view",
      "type": "function"
    },
    {
      "inputs": [],
      "name": "VOTER_ROLE",
      "outputs": [
        {
          "internalType": "bytes32",
          "name": "",
          "type": "bytes32"
        }
      ],
      "stateMutability": "view",
      "type": "function"
    },
    {
      "inputs": [
        {
          "internalType": "address",
          "name": "owner",
          "type": "address"
        },
        {
          "internalType": "address",
          "name": "spender",
          "type": "address"
        }
      ],
      "name": "allowance",
      "outputs": [
        {
          "internalType": "uint256",
          "name": "",
          "type": "uint256"
        }
      ],
      "stateMutability": "view",
      "type": "function"
    },
    {
      "inputs": [
        {
          "internalType": "address",
          "name": "spender",
          "type": "address"
        },
        {
          "internalType": "uint256",
          "name": "amount",
          "type": "uint256"
        }
      ],
      "name": "approve",
      "outputs": [
        {
          "internalType": "bool",
          "name": "",
          "type": "bool"
        }
      ],
      "stateMutability": "nonpayable",
      "type": "function"
    },
    {
      "inputs": [
        {
          "internalType": "address",
          "name": "account",
          "type": "address"
        }
      ],
      "name": "balanceOf",
      "outputs": [
        {
          "internalType": "uint256",
          "name": "",
          "type": "uint256"
        }
      ],
      "stateMutability": "view",
      "type": "function"
    },
    {
      "inputs": [
        {
          "internalType": "uint256",
          "name": "amount",
          "type": "uint256"
        }
      ],
      "name": "burn",
      "outputs": [],
      "stateMutability": "nonpayable",
      "type": "function"
    },
    {
      "inputs": [
        {
          "internalType": "address",
          "name": "account",
          "type": "address"
        },
        {
          "internalType": "uint256",
          "name": "amount",
          "type": "uint256"
        }
      ],
      "name": "burnFrom",
      "outputs": [],
      "stateMutability": "nonpayable",
      "type": "function"
    },
    {
      "inputs": [],
      "name": "decimals",
      "outputs": [
        {
          "internalType": "uint8",
          "name": "",
          "type": "uint8"
        }
      ],
      "stateMutability": "view",
      "type": "function"
    },
    {
      "inputs": [
        {
          "internalType": "address",
          "name": "spender",
          "type": "address"
        },
        {
          "internalType": "uint256",
          "name": "subtractedValue",
          "type": "uint256"
        }
      ],
      "name": "decreaseAllowance",
      "outputs": [
        {
          "internalType": "bool",
          "name": "",
          "type": "bool"
        }
      ],
      "stateMutability": "nonpayable",
      "type": "function"
    },
    {
      "inputs": [
        {
          "internalType": "bytes32",
          "name": "role",
          "type": "bytes32"
        }
      ],
      "name": "getRoleAdmin",
      "outputs": [
        {
          "internalType": "bytes32",
          "name": "",
          "type": "bytes32"
        }
      ],
      "stateMutability": "view",
      "type": "function"
    },
    {
      "inputs": [
        {
          "internalType": "bytes32",
          "name": "role",
          "type": "bytes32"
        },
        {
          "internalType": "address",
          "name": "account",
          "type": "address"
        }
      ],
      "name": "grantRole",
      "outputs": [],
      "stateMutability": "nonpayable",
      "type": "function"
    },
    {
      "inputs": [
        {
          "internalType": "bytes32",
          "name": "role",
          "type": "bytes32"
        },
        {
          "internalType": "address",
          "name": "account",
          "type": "address"
        }
      ],
      "name": "hasRole",
      "outputs": [
        {
          "internalType": "bool",
          "name": "",
          "type": "bool"
        }
      ],
      "stateMutability": "view",
      "type": "function"
    },
    {
      "inputs": [
        {
          "internalType": "address",
          "name": "spender",
          "type": "address"
        },
        {
          "internalType": "uint256",
          "name": "addedValue",
          "type": "uint256"
        }
      ],
      "name": "increaseAllowance",
      "outputs": [
        {
          "internalType": "bool",
          "name": "",
          "type": "bool"
        }
      ],
      "stateMutability": "nonpayable",
      "type": "function"
    },
    {
      "inputs": [],
      "name": "name",
      "outputs": [
        {
          "internalType": "string",
          "name": "",
          "type": "string"
        }
      ],
      "stateMutability": "view",
      "type": "function"
    },
    {
      "inputs": [],
      "name": "paused",
      "outputs": [
        {
          "internalType": "bool",
          "name": "",
          "type": "bool"
        }
      ],
      "stateMutability": "view",
      "type": "function"
    },
    {
      "inputs": [
        {
          "internalType": "uint256",
          "name": "",
          "type": "uint256"
        }
      ],
      "name": "pollMapping",
      "outputs": [
        {
          "internalType": "uint256",
          "name": "commitEndDate",
          "type": "uint256"
        },
        {
          "internalType": "uint256",
          "name": "voteAmount",
          "type": "uint256"
        },
        {
          "internalType": "bool",
          "name": "quorumOption",
          "type": "bool"
        },
        {
          "internalType": "uint256",
          "name": "voteQuorum",
          "type": "uint256"
        },
        {
          "internalType": "uint256",
          "name": "votesFor",
          "type": "uint256"
        },
        {
          "internalType": "uint256",
          "name": "votesAgainst",
          "type": "uint256"
        },
        {
          "internalType": "uint256",
          "name": "option",
          "type": "uint256"
        },
        {
          "internalType": "bool",
          "name": "ongoing",
          "type": "bool"
        }
      ],
      "stateMutability": "view",
      "type": "function"
    },
    {
      "inputs": [
        {
          "internalType": "bytes32",
          "name": "role",
          "type": "bytes32"
        },
        {
          "internalType": "address",
          "name": "account",
          "type": "address"
        }
      ],
      "name": "renounceRole",
      "outputs": [],
      "stateMutability": "nonpayable",
      "type": "function"
    },
    {
      "inputs": [
        {
          "internalType": "bytes32",
          "name": "role",
          "type": "bytes32"
        },
        {
          "internalType": "address",
          "name": "account",
          "type": "address"
        }
      ],
      "name": "revokeRole",
      "outputs": [],
      "stateMutability": "nonpayable",
      "type": "function"
    },
    {
      "inputs": [
        {
          "internalType": "bytes4",
          "name": "interfaceId",
          "type": "bytes4"
        }
      ],
      "name": "supportsInterface",
      "outputs": [
        {
          "internalType": "bool",
          "name": "",
          "type": "bool"
        }
      ],
      "stateMutability": "view",
      "type": "function"
    },
    {
      "inputs": [],
      "name": "symbol",
      "outputs": [
        {
          "internalType": "string",
          "name": "",
          "type": "string"
        }
      ],
      "stateMutability": "view",
      "type": "function"
    },
    {
      "inputs": [],
      "name": "totalSupply",
      "outputs": [
        {
          "internalType": "uint256",
          "name": "",
          "type": "uint256"
        }
      ],
      "stateMutability": "view",
      "type": "function"
    },
    {
      "inputs": [
        {
          "internalType": "uint256",
          "name": "",
          "type": "uint256"
        }
      ],
      "name": "totalVotes",
      "outputs": [
        {
          "internalType": "uint256",
          "name": "",
          "type": "uint256"
        }
      ],
      "stateMutability": "view",
      "type": "function"
    },
    {
      "inputs": [
        {
          "internalType": "address",
          "name": "sender",
          "type": "address"
        },
        {
          "internalType": "address",
          "name": "recipient",
          "type": "address"
        },
        {
          "internalType": "uint256",
          "name": "amount",
          "type": "uint256"
        }
      ],
      "name": "transferFrom",
      "outputs": [
        {
          "internalType": "bool",
          "name": "",
          "type": "bool"
        }
      ],
      "stateMutability": "nonpayable",
      "type": "function"
    },
    {
      "inputs": [
        {
          "internalType": "bool",
          "name": "_quorumOption",
          "type": "bool"
        },
        {
          "internalType": "uint256",
          "name": "_voteQuorum",
          "type": "uint256"
        },
        {
          "internalType": "uint256",
          "name": "_voteAmount",
          "type": "uint256"
        },
        {
          "internalType": "uint256",
          "name": "_commitDuration",
          "type": "uint256"
        },
        {
          "internalType": "uint256",
          "name": "_option",
          "type": "uint256"
        }
      ],
      "name": "startPoll",
      "outputs": [
        {
          "internalType": "uint256",
          "name": "pollID",
          "type": "uint256"
        }
      ],
      "stateMutability": "nonpayable",
      "type": "function"
    },
    {
      "inputs": [
        {
          "internalType": "address",
          "name": "voter",
          "type": "address"
        }
      ],
      "name": "voterAllocation",
      "outputs": [],
      "stateMutability": "nonpayable",
      "type": "function"
    },
    {
      "inputs": [
        {
          "internalType": "address",
          "name": "recipient",
          "type": "address"
        },
        {
          "internalType": "uint256",
          "name": "amount",
          "type": "uint256"
        }
      ],
      "name": "transfer",
      "outputs": [
        {
          "internalType": "bool",
          "name": "",
          "type": "bool"
        }
      ],
      "stateMutability": "nonpayable",
      "type": "function"
    },
    {
      "inputs": [
        {
          "internalType": "address",
          "name": "voter",
          "type": "address"
        }
      ],
      "name": "voteRevokation",
      "outputs": [],
      "stateMutability": "nonpayable",
      "type": "function"
    },
    {
      "inputs": [
        {
          "internalType": "address",
          "name": "voter",
          "type": "address"
        },
        {
          "internalType": "uint256",
          "name": "pollID",
          "type": "uint256"
        }
      ],
      "name": "claimVote",
      "outputs": [],
      "stateMutability": "nonpayable",
      "type": "function"
    },
    {
      "inputs": [
        {
          "internalType": "address",
          "name": "voter",
          "type": "address"
        },
        {
          "internalType": "uint256",
          "name": "pollID",
          "type": "uint256"
        }
      ],
      "name": "numOfVotes",
      "outputs": [
        {
          "internalType": "uint256",
          "name": "votes",
          "type": "uint256"
        }
      ],
      "stateMutability": "view",
      "type": "function"
    },
    {
      "inputs": [
        {
          "internalType": "address",
          "name": "voter",
          "type": "address"
        },
        {
          "internalType": "uint256",
          "name": "votesMade",
          "type": "uint256"
        },
        {
          "internalType": "uint256",
          "name": "pollID",
          "type": "uint256"
        },
        {
          "internalType": "uint256",
          "name": "side",
          "type": "uint256"
        }
      ],
      "name": "makeVote",
      "outputs": [],
      "stateMutability": "nonpayable",
      "type": "function"
    },
    {
      "inputs": [
        {
          "internalType": "uint256",
          "name": "pollID",
          "type": "uint256"
        }
      ],
      "name": "results",
      "outputs": [
        {
          "internalType": "bool",
          "name": "passed",
          "type": "bool"
        }
      ],
      "stateMutability": "nonpayable",
      "type": "function"
    },
    {
      "inputs": [
        {
          "internalType": "uint256",
          "name": "pollID",
          "type": "uint256"
        }
      ],
      "name": "quorumCalc",
      "outputs": [
        {
          "internalType": "uint256",
          "name": "result",
          "type": "uint256"
        }
      ],
      "stateMutability": "view",
      "type": "function"
    },
    {
      "inputs": [
        {
          "internalType": "uint256",
          "name": "pollID",
          "type": "uint256"
        }
      ],
      "name": "endPoll",
      "outputs": [],
      "stateMutability": "nonpayable",
      "type": "function"
    },
    {
      "inputs": [
        {
          "internalType": "uint256",
          "name": "pollID",
          "type": "uint256"
        }
      ],
      "name": "whenTie",
      "outputs": [
        {
          "internalType": "string",
          "name": "tied",
          "type": "string"
        }
      ],
      "stateMutability": "view",
      "type": "function"
    },
    {
      "inputs": [
        {
          "internalType": "uint256",
          "name": "pollID",
          "type": "uint256"
        }
      ],
      "name": "burnRewards",
      "outputs": [],
      "stateMutability": "payable",
      "type": "function"
    },
    {
      "inputs": [
        {
          "internalType": "uint256",
          "name": "pollID",
          "type": "uint256"
        }
      ],
      "name": "mintRewards",
      "outputs": [],
      "stateMutability": "payable",
      "type": "function"
    },
    {
      "inputs": [
        {
          "internalType": "uint256",
          "name": "pollID",
          "type": "uint256"
        },
        {
          "internalType": "uint256",
          "name": "timeAdded",
          "type": "uint256"
        }
      ],
      "name": "addTime",
      "outputs": [],
      "stateMutability": "nonpayable",
      "type": "function"
    },
    {
      "inputs": [],
      "name": "pause",
      "outputs": [],
      "stateMutability": "nonpayable",
      "type": "function"
    },
    {
      "inputs": [],
      "name": "unpause",
      "outputs": [],
      "stateMutability": "nonpayable",
      "type": "function"
    },
    {
      "inputs": [
        {
          "internalType": "address",
          "name": "to",
          "type": "address"
        },
        {
          "internalType": "uint256",
          "name": "amount",
          "type": "uint256"
        }
      ],
      "name": "mint",
      "outputs": [],
      "stateMutability": "nonpayable",
      "type": "function"
    },
    {
      "inputs": [
        {
          "internalType": "uint256",
          "name": "_pollID",
          "type": "uint256"
        }
      ],
      "name": "pollExists",
      "outputs": [
        {
          "internalType": "bool",
          "name": "exists",
          "type": "bool"
        }
      ],
      "stateMutability": "view",
      "type": "function"
    },
    {
      "inputs": [
        {
          "internalType": "uint256",
          "name": "_pollID",
          "type": "uint256"
        }
      ],
      "name": "pollEnded",
      "outputs": [
        {
          "internalType": "bool",
          "name": "ended",
          "type": "bool"
        }
      ],
      "stateMutability": "view",
      "type": "function"
    },
    {
      "inputs": [
        {
          "internalType": "uint256",
          "name": "_terminationDate",
          "type": "uint256"
        }
      ],
      "name": "isNotExpired",
      "outputs": [
        {
          "internalType": "bool",
          "name": "expired",
          "type": "bool"
        }
      ],
      "stateMutability": "view",
      "type": "function"
    }
  ],
  "bytecode": "0x608060405260006009553480156200001657600080fd5b506040518060400160405280600381526020017f4d616900000000000000000000000000000000000000000000000000000000008152506040518060400160405280600381526020017f4d4149000000000000000000000000000000000000000000000000000000000081525081600390805190602001906200009b92919062000504565b508060049080519060200190620000b492919062000504565b5050506000600660006101000a81548160ff0219169083151502179055506200011033620000e76200018f60201b60201c565b600a620000f5919062000773565b6103e8620001049190620008b0565b6200019860201b60201c565b620001256000801b33620002fd60201b60201c565b620001577f9f2df0fed2c77648de5860a4cc508cd0818c85b8b8a1ab4ceeef8d981c8956a633620002fd60201b60201c565b620001897f72c3eec1760bf69946625c2d4fb8e44e2c806345041960b434674fb9ab3976cf33620002fd60201b60201c565b620009c9565b60006012905090565b600073ffffffffffffffffffffffffffffffffffffffff168273ffffffffffffffffffffffffffffffffffffffff1614156200020b576040517f08c379a000000000000000000000000000000000000000000000000000000000815260040162000202906200066b565b60405180910390fd5b6200021f600083836200031360201b60201c565b8060026000828254620002339190620006bb565b92505081905550806000808473ffffffffffffffffffffffffffffffffffffffff1673ffffffffffffffffffffffffffffffffffffffff16815260200190815260200160002060008282546200028a9190620006bb565b925050819055508173ffffffffffffffffffffffffffffffffffffffff16600073ffffffffffffffffffffffffffffffffffffffff167fddf252ad1be2c89b69c2b068fc378daa952ba7f163c4a11628f55a4df523b3ef83604051620002f191906200068d565b60405180910390a35050565b6200030f82826200038360201b60201c565b5050565b620003236200047560201b60201c565b1562000366576040517f08c379a00000000000000000000000000000000000000000000000000000000081526004016200035d9062000649565b60405180910390fd5b6200037e8383836200048c60201b620027581760201c565b505050565b6200039582826200049160201b60201c565b620004715760016005600084815260200190815260200160002060000160008373ffffffffffffffffffffffffffffffffffffffff1673ffffffffffffffffffffffffffffffffffffffff16815260200190815260200160002060006101000a81548160ff02191690831515021790555062000416620004fc60201b60201c565b73ffffffffffffffffffffffffffffffffffffffff168173ffffffffffffffffffffffffffffffffffffffff16837f2f8788117e7eff1d82e926ec794901d17c78024a50270940304540a733656f0d60405160405180910390a45b5050565b6000600660009054906101000a900460ff16905090565b505050565b60006005600084815260200190815260200160002060000160008373ffffffffffffffffffffffffffffffffffffffff1673ffffffffffffffffffffffffffffffffffffffff16815260200190815260200160002060009054906101000a900460ff16905092915050565b600033905090565b828054620005129062000928565b90600052602060002090601f01602090048101928262000536576000855562000582565b82601f106200055157805160ff191683800117855562000582565b8280016001018555821562000582579182015b828111156200058157825182559160200191906001019062000564565b5b50905062000591919062000595565b5090565b5b80821115620005b057600081600090555060010162000596565b5090565b6000620005c3601083620006aa565b91507f5061757361626c653a20706175736564000000000000000000000000000000006000830152602082019050919050565b600062000605601f83620006aa565b91507f45524332303a206d696e7420746f20746865207a65726f2061646472657373006000830152602082019050919050565b620006438162000911565b82525050565b600060208201905081810360008301526200066481620005b4565b9050919050565b600060208201905081810360008301526200068681620005f6565b9050919050565b6000602082019050620006a4600083018462000638565b92915050565b600082825260208201905092915050565b6000620006c88262000911565b9150620006d58362000911565b9250827fffffffffffffffffffffffffffffffffffffffffffffffffffffffffffffffff038211156200070d576200070c6200095e565b5b828201905092915050565b6000808291508390505b60018511156200076a578086048111156200074257620007416200095e565b5b6001851615620007525780820291505b80810290506200076285620009bc565b945062000722565b94509492505050565b6000620007808262000911565b91506200078d836200091b565b9250620007bc7fffffffffffffffffffffffffffffffffffffffffffffffffffffffffffffffff8484620007c4565b905092915050565b600082620007d65760019050620008a9565b81620007e65760009050620008a9565b8160018114620007ff57600281146200080a5762000840565b6001915050620008a9565b60ff8411156200081f576200081e6200095e565b5b8360020a9150848211156200083957620008386200095e565b5b50620008a9565b5060208310610133831016604e8410600b84101617156200087a5782820a9050838111156200087457620008736200095e565b5b620008a9565b62000889848484600162000718565b92509050818404811115620008a357620008a26200095e565b5b81810290505b9392505050565b6000620008bd8262000911565b9150620008ca8362000911565b9250817fffffffffffffffffffffffffffffffffffffffffffffffffffffffffffffffff04831182151516156200090657620009056200095e565b5b828202905092915050565b6000819050919050565b600060ff82169050919050565b600060028204905060018216806200094157607f821691505b602082108114156200095857620009576200098d565b5b50919050565b7f4e487b7100000000000000000000000000000000000000000000000000000000600052601160045260246000fd5b7f4e487b7100000000000000000000000000000000000000000000000000000000600052602260045260246000fd5b60008160011c9050919050565b614a7880620009d96000396000f3fe6080604052600436106102715760003560e01c806378de12391161014f578063a457c2d7116100c1578063d547741f1161007a578063d547741f146109f6578063d930245d14610a1f578063dd62ed3e14610a48578063e63ab1e914610a85578063ee68483014610ab0578063f43b877814610aed57610271565b8063a457c2d7146108c0578063a9059cbb146108fd578063a94015c81461093a578063b687bcc014610965578063ca5f0b991461098e578063d5391393146109cb57610271565b806389ec02571161011357806389ec0257146107ab5780638c405503146107c757806391d148541461080457806395d89b41146108415780639855ae201461086c578063a217fddf1461089557610271565b806378de1239146106c8578063791581c61461070557806379cc67901461072e5780638456cb591461075757806388d21ff31461076e57610271565b8063313ce567116101e857806340c10f19116101ac57806340c10f19146105c957806342966c68146105f25780634828ced91461061b5780635c975abb146106375780636c1d0c3a1461066257806370a082311461068b57610271565b8063313ce567146104dd57806336568abe14610508578063372c48e11461053157806339509351146105755780633f4ba83a146105b257610271565b806318160ddd1161023a57806318160ddd1461039557806319e6e158146103c05780631b0c27da146103fd57806323b872dd1461043a578063248a9ca3146104775780632f2ff15d146104b457610271565b8062f027201461027657806301ffc9a7146102b357806303d29a5b146102f057806306fdde031461032d578063095ea7b314610358575b600080fd5b34801561028257600080fd5b5061029d60048036038101906102989190613951565b610b16565b6040516102aa91906145fe565b60405180910390f35b3480156102bf57600080fd5b506102da60048036038101906102d59190613928565b610bde565b6040516102e79190614306565b60405180910390f35b3480156102fc57600080fd5b5061031760048036038101906103129190613951565b610c58565b6040516103249190614306565b60405180910390f35b34801561033957600080fd5b50610342610c64565b60405161034f919061433c565b60405180910390f35b34801561036457600080fd5b5061037f600480360381019061037a91906137ad565b610cf6565b60405161038c9190614306565b60405180910390f35b3480156103a157600080fd5b506103aa610d14565b6040516103b791906145fe565b60405180910390f35b3480156103cc57600080fd5b506103e760048036038101906103e29190613951565b610d1e565b6040516103f491906145fe565b60405180910390f35b34801561040957600080fd5b50610424600480360381019061041f9190613951565b610d36565b6040516104319190614306565b60405180910390f35b34801561044657600080fd5b50610461600480360381019061045c919061375e565b610ec4565b60405161046e9190614306565b60405180910390f35b34801561048357600080fd5b5061049e600480360381019061049991906138c3565b610fc5565b6040516104ab9190614321565b60405180910390f35b3480156104c057600080fd5b506104db60048036038101906104d691906138ec565b610fe5565b005b3480156104e957600080fd5b506104f261100e565b6040516104ff91906146c0565b60405180910390f35b34801561051457600080fd5b5061052f600480360381019061052a91906138ec565b611017565b005b34801561053d57600080fd5b5061055860048036038101906105539190613951565b61109a565b60405161056c989796959493929190614642565b60405180910390f35b34801561058157600080fd5b5061059c600480360381019061059791906137ad565b6110fc565b6040516105a99190614306565b60405180910390f35b3480156105be57600080fd5b506105c76111a8565b005b3480156105d557600080fd5b506105f060048036038101906105eb91906137ad565b6111e5565b005b3480156105fe57600080fd5b5061061960048036038101906106149190613951565b611226565b005b61063560048036038101906106309190613951565b61123a565b005b34801561064357600080fd5b5061064c611303565b6040516106599190614306565b60405180910390f35b34801561066e57600080fd5b50610689600480360381019061068491906136f9565b61131a565b005b34801561069757600080fd5b506106b260048036038101906106ad91906136f9565b6113c4565b6040516106bf91906145fe565b60405180910390f35b3480156106d457600080fd5b506106ef60048036038101906106ea9190613951565b61140c565b6040516106fc919061433c565b60405180910390f35b34801561071157600080fd5b5061072c6004803603810190610727919061397a565b611561565b005b34801561073a57600080fd5b50610755600480360381019061075091906137ad565b6115fd565b005b34801561076357600080fd5b5061076c611681565b005b34801561077a57600080fd5b5061079560048036038101906107909190613951565b6116be565b6040516107a29190614306565b60405180910390f35b6107c560048036038101906107c09190613951565b6116d9565b005b3480156107d357600080fd5b506107ee60048036038101906107e991906137ad565b6117a1565b6040516107fb91906145fe565b60405180910390f35b34801561081057600080fd5b5061082b600480360381019061082691906138ec565b611838565b6040516108389190614306565b60405180910390f35b34801561084d57600080fd5b506108566118a3565b604051610863919061433c565b60405180910390f35b34801561087857600080fd5b50610893600480360381019061088e91906137e9565b611935565b005b3480156108a157600080fd5b506108aa611e4f565b6040516108b79190614321565b60405180910390f35b3480156108cc57600080fd5b506108e760048036038101906108e291906137ad565b611e56565b6040516108f49190614306565b60405180910390f35b34801561090957600080fd5b50610924600480360381019061091f91906137ad565b611f4a565b6040516109319190614306565b60405180910390f35b34801561094657600080fd5b5061094f611f68565b60405161095c9190614321565b60405180910390f35b34801561097157600080fd5b5061098c600480360381019061098791906136f9565b611f8c565b005b34801561099a57600080fd5b506109b560048036038101906109b0919061384c565b612013565b6040516109c291906145fe565b60405180910390f35b3480156109d757600080fd5b506109e06121af565b6040516109ed9190614321565b60405180910390f35b348015610a0257600080fd5b50610a1d6004803603810190610a1891906138ec565b6121d3565b005b348015610a2b57600080fd5b50610a466004803603810190610a4191906137ad565b6121fc565b005b348015610a5457600080fd5b50610a6f6004803603810190610a6a9190613722565b6125fc565b604051610a7c91906145fe565b60405180910390f35b348015610a9157600080fd5b50610a9a612683565b604051610aa79190614321565b60405180910390f35b348015610abc57600080fd5b50610ad76004803603810190610ad29190613951565b6126a7565b604051610ae49190614306565b60405180910390f35b348015610af957600080fd5b50610b146004803603810190610b0f9190613951565b6126e1565b005b600080600860008481526020019081526020016000205411610b3757600080fd5b610b40826116be565b610b7f576040517f08c379a0000000000000000000000000000000000000000000000000000000008152600401610b76906144de565b60405180910390fd5b6000610bbd6008600085815260200190815260200160002054600760008681526020019081526020016000206004015461275d90919063ffffffff16565b9050610bd360648261277390919063ffffffff16565b905080915050919050565b60007f7965db0b000000000000000000000000000000000000000000000000000000007bffffffffffffffffffffffffffffffffffffffffffffffffffffffff1916827bffffffffffffffffffffffffffffffffffffffffffffffffffffffff19161480610c515750610c5082612789565b5b9050919050565b60008142119050919050565b606060038054610c73906148ff565b80601f0160208091040260200160405190810160405280929190818152602001828054610c9f906148ff565b8015610cec5780601f10610cc157610100808354040283529160200191610cec565b820191906000526020600020905b815481529060010190602001808311610ccf57829003601f168201915b5050505050905090565b6000610d0a610d036127f3565b84846127fb565b6001905092915050565b6000600254905090565b60086020528060005260406000206000915090505481565b6000610d41826126e1565b60001515610d4e83610c58565b151514610d5a57600080fd5b610d63826116be565b610d6c57600080fd5b600015156007600084815260200190815260200160002060020160009054906101000a900460ff1615151415610e2557600760008381526020019081526020016000206005015460076000848152602001908152602001600020600401541115610dd95760019050610ebf565b600760008381526020019081526020016000206005015460076000848152602001908152602001600020600401541015610e165760009050610ebf565b610e1f8261140c565b50610ebe565b600115156007600084815260200190815260200160002060020160009054906101000a900460ff1615151415610ebd576007600083815260200190815260200160002060030154610e7583610b16565b10610e835760019050610ebf565b6007600083815260200190815260200160002060030154610ea383610b16565b1015610eb25760009050610ebf565b610ebb8261140c565b505b5b5b919050565b6000610ed18484846129c6565b6000600160008673ffffffffffffffffffffffffffffffffffffffff1673ffffffffffffffffffffffffffffffffffffffff1681526020019081526020016000206000610f1c6127f3565b73ffffffffffffffffffffffffffffffffffffffff1673ffffffffffffffffffffffffffffffffffffffff16815260200190815260200160002054905082811015610f9c576040517f08c379a0000000000000000000000000000000000000000000000000000000008152600401610f939061449e565b60405180910390fd5b610fb985610fa86127f3565b8584610fb491906147e3565b6127fb565b60019150509392505050565b600060056000838152602001908152602001600020600101549050919050565b610fee82610fc5565b610fff81610ffa6127f3565b612c45565b6110098383612ce2565b505050565b60006012905090565b61101f6127f3565b73ffffffffffffffffffffffffffffffffffffffff168173ffffffffffffffffffffffffffffffffffffffff161461108c576040517f08c379a0000000000000000000000000000000000000000000000000000000008152600401611083906145be565b60405180910390fd5b6110968282612dc3565b5050565b60076020528060005260406000206000915090508060000154908060010154908060020160009054906101000a900460ff16908060030154908060040154908060050154908060060154908060070160009054906101000a900460ff16905088565b600061119e6111096127f3565b8484600160006111176127f3565b73ffffffffffffffffffffffffffffffffffffffff1673ffffffffffffffffffffffffffffffffffffffff16815260200190815260200160002060008873ffffffffffffffffffffffffffffffffffffffff1673ffffffffffffffffffffffffffffffffffffffff168152602001908152602001600020546111999190614702565b6127fb565b6001905092915050565b6111d27f65d7a28e3265b37a6474929f336521b332c1681b933f6cb9f3376673440d862a33611838565b6111db57600080fd5b6111e3612ea5565b565b61120f7f9f2df0fed2c77648de5860a4cc508cd0818c85b8b8a1ab4ceeef8d981c8956a633611838565b61121857600080fd5b6112228282612f47565b5050565b6112376112316127f3565b8261309b565b50565b600160076000838152602001908152602001600020600601541461125d57600080fd5b600015156007600083815260200190815260200160002060070160009054906101000a900460ff1615151461129157600080fd5b6112b1336007600084815260200190815260200160002060010154612f47565b7f815e966a30d910f09bbe731021156b873eaca737ddd8f638c08f40c47d4c55da6007600083815260200190815260200160002060010154826040516112f8929190614619565b60405180910390a150565b6000600660009054906101000a900460ff16905090565b600073ffffffffffffffffffffffffffffffffffffffff168173ffffffffffffffffffffffffffffffffffffffff16141561135457600080fd5b61137e7f72c3eec1760bf69946625c2d4fb8e44e2c806345041960b434674fb9ab3976cf826121d3565b8073ffffffffffffffffffffffffffffffffffffffff167fc8f0ca04e3a4bee64fa8f12ab2c36bf665502f928567c2adfbbcc4ad796ed26960405160405180910390a250565b60008060008373ffffffffffffffffffffffffffffffffffffffff1673ffffffffffffffffffffffffffffffffffffffff168152602001908152602001600020549050919050565b6060611417826116be565b61142057600080fd5b600015156007600084815260200190815260200160002060020160009054906101000a900460ff16151514156114c6576007600083815260200190815260200160002060050154600760008481526020019081526020016000206004015414156114c1576040518060400160405280600981526020017f506f6c6c20746965640000000000000000000000000000000000000000000000815250905061155c565b61155b565b600115156007600084815260200190815260200160002060020160009054906101000a900460ff161515141561155a57600760008381526020019081526020016000206003015461151683610b16565b1415611559576040518060400160405280600981526020017f506f6c6c20746965640000000000000000000000000000000000000000000000815250905061155c565b5b5b5b919050565b61156a826116be565b61157357600080fd5b600081116115b6576040517f08c379a00000000000000000000000000000000000000000000000000000000081526004016115ad9061447e565b60405180910390fd5b6115df81600760008581526020019081526020016000206000015461326f90919063ffffffff16565b60076000848152602001908152602001600020600001819055505050565b60006116108361160b6127f3565b6125fc565b905081811015611655576040517f08c379a000000000000000000000000000000000000000000000000000000000815260040161164c906144be565b60405180910390fd5b611672836116616127f3565b848461166d91906147e3565b6127fb565b61167c838361309b565b505050565b6116ab7f65d7a28e3265b37a6474929f336521b332c1681b933f6cb9f3376673440d862a33611838565b6116b457600080fd5b6116bc613285565b565b60008082141580156116d257506009548211155b9050919050565b60026007600083815260200190815260200160002060060154146116fc57600080fd5b600015156007600083815260200190815260200160002060070160009054906101000a900460ff1615151461173057600080fd5b61174f6007600083815260200190815260200160002060010154611226565b7f815e966a30d910f09bbe731021156b873eaca737ddd8f638c08f40c47d4c55da600760008381526020019081526020016000206001015482604051611796929190614619565b60405180910390a150565b60008073ffffffffffffffffffffffffffffffffffffffff168373ffffffffffffffffffffffffffffffffffffffff1614156117dc57600080fd5b6007600083815260200190815260200160002060090160008473ffffffffffffffffffffffffffffffffffffffff1673ffffffffffffffffffffffffffffffffffffffff16815260200190815260200160002054905092915050565b60006005600084815260200190815260200160002060000160008373ffffffffffffffffffffffffffffffffffffffff1673ffffffffffffffffffffffffffffffffffffffff16815260200190815260200160002060009054906101000a900460ff16905092915050565b6060600480546118b2906148ff565b80601f01602080910402602001604051908101604052809291908181526020018280546118de906148ff565b801561192b5780601f106119005761010080835404028352916020019161192b565b820191906000526020600020905b81548152906001019060200180831161190e57829003601f168201915b5050505050905090565b61193d611303565b1561197d576040517f08c379a00000000000000000000000000000000000000000000000000000000081526004016119749061445e565b60405180910390fd5b83600073ffffffffffffffffffffffffffffffffffffffff168173ffffffffffffffffffffffffffffffffffffffff1614156119b857600080fd5b600015156119e67f72c3eec1760bf69946625c2d4fb8e44e2c806345041960b434674fb9ab3976cf83611838565b15151480156119ff57506103e86119fc826113c4565b10155b15611a0e57611a0d81611f8c565b5b60011515611a3c7f72c3eec1760bf69946625c2d4fb8e44e2c806345041960b434674fb9ab3976cf83611838565b1515148015611a5457506103e8611a52826113c4565b105b15611a6357611a628161131a565b5b611a8d7f72c3eec1760bf69946625c2d4fb8e44e2c806345041960b434674fb9ab3976cf82611838565b611acc576040517f08c379a0000000000000000000000000000000000000000000000000000000008152600401611ac39061443e565b60405180910390fd5b600073ffffffffffffffffffffffffffffffffffffffff168573ffffffffffffffffffffffffffffffffffffffff161415611b0657600080fd5b60016007600085815260200190815260200160002060070160006101000a81548160ff0219169083151502179055611b3d57600080fd5b611b4683610c58565b611b4f57600080fd5b60006007600085815260200190815260200160002060090160008773ffffffffffffffffffffffffffffffffffffffff1673ffffffffffffffffffffffffffffffffffffffff1681526020019081526020016000205411611be5576040517f08c379a0000000000000000000000000000000000000000000000000000000008152600401611bdc9061457e565b60405180910390fd5b6007600084815260200190815260200160002060090160008673ffffffffffffffffffffffffffffffffffffffff1673ffffffffffffffffffffffffffffffffffffffff16815260200190815260200160002054841115611c4557600080fd5b6001821480611c545750600282145b611c5d57600080fd5b6001821415611caf57611c906001600760008681526020019081526020016000206004015461326f90919063ffffffff16565b6007600085815260200190815260200160002060040181905550611cfe565b6002821415611cfd57611ce26001600760008681526020019081526020016000206005015461326f90919063ffffffff16565b60076000858152602001908152602001600020600501819055505b5b611d64846007600086815260200190815260200160002060090160008873ffffffffffffffffffffffffffffffffffffffff1673ffffffffffffffffffffffffffffffffffffffff1681526020019081526020016000205461332890919063ffffffff16565b6007600085815260200190815260200160002060090160008773ffffffffffffffffffffffffffffffffffffffff1673ffffffffffffffffffffffffffffffffffffffff168152602001908152602001600020819055508473ffffffffffffffffffffffffffffffffffffffff16837fb8032ae25c12382c9eae96f471eca2deb60c0e3f794645265e4309094702395686604051611e0291906145fe565b60405180910390a3611e316001600860008681526020019081526020016000205461326f90919063ffffffff16565b60086000858152602001908152602001600020819055505050505050565b6000801b81565b60008060016000611e656127f3565b73ffffffffffffffffffffffffffffffffffffffff1673ffffffffffffffffffffffffffffffffffffffff16815260200190815260200160002060008573ffffffffffffffffffffffffffffffffffffffff1673ffffffffffffffffffffffffffffffffffffffff16815260200190815260200160002054905082811015611f22576040517f08c379a0000000000000000000000000000000000000000000000000000000008152600401611f199061459e565b60405180910390fd5b611f3f611f2d6127f3565b858584611f3a91906147e3565b6127fb565b600191505092915050565b6000611f5e611f576127f3565b84846129c6565b6001905092915050565b7f72c3eec1760bf69946625c2d4fb8e44e2c806345041960b434674fb9ab3976cf81565b6103e8611f98826113c4565b1015611fa357600080fd5b611fcd7f72c3eec1760bf69946625c2d4fb8e44e2c806345041960b434674fb9ab3976cf82610fe5565b8073ffffffffffffffffffffffffffffffffffffffff167f3025407ee9b066f6cd97886b0c47bda6b6ebbb42d2c7574284f5814cfd3a504a60405160405180910390a250565b60008015158615151480156120285750600085145b806120435750600115158615151480156120425750600085115b5b61204c57600080fd5b6000841161208f576040517f08c379a00000000000000000000000000000000000000000000000000000000081526004016120869061453e565b60405180910390fd5b60006120a4844261326f90919063ffffffff16565b90506120bc600160095461326f90919063ffffffff16565b60098190555060006007600060095481526020019081526020016000209050838160060181905550878160020160006101000a81548160ff021916908315150217905550868160030181905550858160010181905550818160000181905550600081600401819055506000816005018190555060018160070160006101000a81548160ff0219169083151502179055503373ffffffffffffffffffffffffffffffffffffffff166009547f75c3234b322da18df8c948bde9b9983e5a43633c4e2647d4d9f4f15c0706f05d8885604051612197929190614619565b60405180910390a36009549250505095945050505050565b7f9f2df0fed2c77648de5860a4cc508cd0818c85b8b8a1ab4ceeef8d981c8956a681565b6121dc82610fc5565b6121ed816121e86127f3565b612c45565b6121f78383612dc3565b505050565b612204611303565b15612244576040517f08c379a000000000000000000000000000000000000000000000000000000000815260040161223b9061445e565b60405180910390fd5b81600073ffffffffffffffffffffffffffffffffffffffff168173ffffffffffffffffffffffffffffffffffffffff16141561227f57600080fd5b600015156122ad7f72c3eec1760bf69946625c2d4fb8e44e2c806345041960b434674fb9ab3976cf83611838565b15151480156122c657506103e86122c3826113c4565b10155b156122d5576122d481611f8c565b5b600115156123037f72c3eec1760bf69946625c2d4fb8e44e2c806345041960b434674fb9ab3976cf83611838565b151514801561231b57506103e8612319826113c4565b105b1561232a576123298161131a565b5b6123547f72c3eec1760bf69946625c2d4fb8e44e2c806345041960b434674fb9ab3976cf82611838565b612393576040517f08c379a000000000000000000000000000000000000000000000000000000000815260040161238a9061443e565b60405180910390fd5b600073ffffffffffffffffffffffffffffffffffffffff168373ffffffffffffffffffffffffffffffffffffffff1614156123cd57600080fd5b60006124376103e76007600086815260200190815260200160002060080160008773ffffffffffffffffffffffffffffffffffffffff1673ffffffffffffffffffffffffffffffffffffffff1681526020019081526020016000205461332890919063ffffffff16565b90506000811161247c576040517f08c379a00000000000000000000000000000000000000000000000000000000081526004016124739061441e565b60405180910390fd5b6124e2816007600086815260200190815260200160002060080160008773ffffffffffffffffffffffffffffffffffffffff1673ffffffffffffffffffffffffffffffffffffffff1681526020019081526020016000205461326f90919063ffffffff16565b6007600085815260200190815260200160002060080160008673ffffffffffffffffffffffffffffffffffffffff1673ffffffffffffffffffffffffffffffffffffffff1681526020019081526020016000208190555061259f816007600086815260200190815260200160002060090160008773ffffffffffffffffffffffffffffffffffffffff1673ffffffffffffffffffffffffffffffffffffffff1681526020019081526020016000205461326f90919063ffffffff16565b6007600085815260200190815260200160002060090160008673ffffffffffffffffffffffffffffffffffffffff1673ffffffffffffffffffffffffffffffffffffffff1681526020019081526020016000208190555050505050565b6000600160008473ffffffffffffffffffffffffffffffffffffffff1673ffffffffffffffffffffffffffffffffffffffff16815260200190815260200160002060008373ffffffffffffffffffffffffffffffffffffffff1673ffffffffffffffffffffffffffffffffffffffff16815260200190815260200160002054905092915050565b7f65d7a28e3265b37a6474929f336521b332c1681b933f6cb9f3376673440d862a81565b60006126b2826116be565b6126bb57600080fd5b6126da6007600084815260200190815260200160002060000154610c58565b9050919050565b61270b7f65d7a28e3265b37a6474929f336521b332c1681b933f6cb9f3376673440d862a33611838565b61271457600080fd5b61271d816116be565b61272657600080fd5b60006007600083815260200190815260200160002060070160006101000a81548160ff02191690831515021790555050565b505050565b6000818361276b9190614758565b905092915050565b600081836127819190614789565b905092915050565b60007f01ffc9a7000000000000000000000000000000000000000000000000000000007bffffffffffffffffffffffffffffffffffffffffffffffffffffffff1916827bffffffffffffffffffffffffffffffffffffffffffffffffffffffff1916149050919050565b600033905090565b600073ffffffffffffffffffffffffffffffffffffffff168373ffffffffffffffffffffffffffffffffffffffff16141561286b576040517f08c379a00000000000000000000000000000000000000000000000000000000081526004016128629061455e565b60405180910390fd5b600073ffffffffffffffffffffffffffffffffffffffff168273ffffffffffffffffffffffffffffffffffffffff1614156128db576040517f08c379a00000000000000000000000000000000000000000000000000000000081526004016128d2906143de565b60405180910390fd5b80600160008573ffffffffffffffffffffffffffffffffffffffff1673ffffffffffffffffffffffffffffffffffffffff16815260200190815260200160002060008473ffffffffffffffffffffffffffffffffffffffff1673ffffffffffffffffffffffffffffffffffffffff168152602001908152602001600020819055508173ffffffffffffffffffffffffffffffffffffffff168373ffffffffffffffffffffffffffffffffffffffff167f8c5be1e5ebec7d5bd14f71427d1e84f3dd0314c0f7b2291e5b200ac8c7c3b925836040516129b991906145fe565b60405180910390a3505050565b600073ffffffffffffffffffffffffffffffffffffffff168373ffffffffffffffffffffffffffffffffffffffff161415612a36576040517f08c379a0000000000000000000000000000000000000000000000000000000008152600401612a2d9061451e565b60405180910390fd5b600073ffffffffffffffffffffffffffffffffffffffff168273ffffffffffffffffffffffffffffffffffffffff161415612aa6576040517f08c379a0000000000000000000000000000000000000000000000000000000008152600401612a9d9061437e565b60405180910390fd5b612ab183838361333e565b60008060008573ffffffffffffffffffffffffffffffffffffffff1673ffffffffffffffffffffffffffffffffffffffff16815260200190815260200160002054905081811015612b37576040517f08c379a0000000000000000000000000000000000000000000000000000000008152600401612b2e906143fe565b60405180910390fd5b8181612b4391906147e3565b6000808673ffffffffffffffffffffffffffffffffffffffff1673ffffffffffffffffffffffffffffffffffffffff16815260200190815260200160002081905550816000808573ffffffffffffffffffffffffffffffffffffffff1673ffffffffffffffffffffffffffffffffffffffff1681526020019081526020016000206000828254612bd39190614702565b925050819055508273ffffffffffffffffffffffffffffffffffffffff168473ffffffffffffffffffffffffffffffffffffffff167fddf252ad1be2c89b69c2b068fc378daa952ba7f163c4a11628f55a4df523b3ef84604051612c3791906145fe565b60405180910390a350505050565b612c4f8282611838565b612cde57612c748173ffffffffffffffffffffffffffffffffffffffff166014613396565b612c828360001c6020613396565b604051602001612c939291906142b1565b6040516020818303038152906040526040517f08c379a0000000000000000000000000000000000000000000000000000000008152600401612cd5919061433c565b60405180910390fd5b5050565b612cec8282611838565b612dbf5760016005600084815260200190815260200160002060000160008373ffffffffffffffffffffffffffffffffffffffff1673ffffffffffffffffffffffffffffffffffffffff16815260200190815260200160002060006101000a81548160ff021916908315150217905550612d646127f3565b73ffffffffffffffffffffffffffffffffffffffff168173ffffffffffffffffffffffffffffffffffffffff16837f2f8788117e7eff1d82e926ec794901d17c78024a50270940304540a733656f0d60405160405180910390a45b5050565b612dcd8282611838565b15612ea15760006005600084815260200190815260200160002060000160008373ffffffffffffffffffffffffffffffffffffffff1673ffffffffffffffffffffffffffffffffffffffff16815260200190815260200160002060006101000a81548160ff021916908315150217905550612e466127f3565b73ffffffffffffffffffffffffffffffffffffffff168173ffffffffffffffffffffffffffffffffffffffff16837ff6391f5c32d9c69d2a47ea670b442974b53935d1edc7fd64eb21e047a839171b60405160405180910390a45b5050565b612ead611303565b612eec576040517f08c379a0000000000000000000000000000000000000000000000000000000008152600401612ee39061439e565b60405180910390fd5b6000600660006101000a81548160ff0219169083151502179055507f5db9ee0a495bf2e6ff9c91a7834c1ba4fdd244a5e8aa4e537bd38aeae4b073aa612f306127f3565b604051612f3d91906142eb565b60405180910390a1565b600073ffffffffffffffffffffffffffffffffffffffff168273ffffffffffffffffffffffffffffffffffffffff161415612fb7576040517f08c379a0000000000000000000000000000000000000000000000000000000008152600401612fae906145de565b60405180910390fd5b612fc36000838361333e565b8060026000828254612fd59190614702565b92505081905550806000808473ffffffffffffffffffffffffffffffffffffffff1673ffffffffffffffffffffffffffffffffffffffff168152602001908152602001600020600082825461302a9190614702565b925050819055508173ffffffffffffffffffffffffffffffffffffffff16600073ffffffffffffffffffffffffffffffffffffffff167fddf252ad1be2c89b69c2b068fc378daa952ba7f163c4a11628f55a4df523b3ef8360405161308f91906145fe565b60405180910390a35050565b600073ffffffffffffffffffffffffffffffffffffffff168273ffffffffffffffffffffffffffffffffffffffff16141561310b576040517f08c379a0000000000000000000000000000000000000000000000000000000008152600401613102906144fe565b60405180910390fd5b6131178260008361333e565b60008060008473ffffffffffffffffffffffffffffffffffffffff1673ffffffffffffffffffffffffffffffffffffffff1681526020019081526020016000205490508181101561319d576040517f08c379a0000000000000000000000000000000000000000000000000000000008152600401613194906143be565b60405180910390fd5b81816131a991906147e3565b6000808573ffffffffffffffffffffffffffffffffffffffff1673ffffffffffffffffffffffffffffffffffffffff1681526020019081526020016000208190555081600260008282546131fd91906147e3565b92505081905550600073ffffffffffffffffffffffffffffffffffffffff168373ffffffffffffffffffffffffffffffffffffffff167fddf252ad1be2c89b69c2b068fc378daa952ba7f163c4a11628f55a4df523b3ef8460405161326291906145fe565b60405180910390a3505050565b6000818361327d9190614702565b905092915050565b61328d611303565b156132cd576040517f08c379a00000000000000000000000000000000000000000000000000000000081526004016132c49061445e565b60405180910390fd5b6001600660006101000a81548160ff0219169083151502179055507f62e78cea01bee320cd4e420270b5ea74000d11b0c9f74754ebdbfc544b05a2586133116127f3565b60405161331e91906142eb565b60405180910390a1565b6000818361333691906147e3565b905092915050565b613346611303565b15613386576040517f08c379a000000000000000000000000000000000000000000000000000000000815260040161337d9061445e565b60405180910390fd5b613391838383612758565b505050565b6060600060028360026133a99190614789565b6133b39190614702565b67ffffffffffffffff8111156133f2577f4e487b7100000000000000000000000000000000000000000000000000000000600052604160045260246000fd5b6040519080825280601f01601f1916602001820160405280156134245781602001600182028036833780820191505090505b5090507f300000000000000000000000000000000000000000000000000000000000000081600081518110613482577f4e487b7100000000000000000000000000000000000000000000000000000000600052603260045260246000fd5b60200101907effffffffffffffffffffffffffffffffffffffffffffffffffffffffffffff1916908160001a9053507f78000000000000000000000000000000000000000000000000000000000000008160018151811061350c577f4e487b7100000000000000000000000000000000000000000000000000000000600052603260045260246000fd5b60200101907effffffffffffffffffffffffffffffffffffffffffffffffffffffffffffff1916908160001a9053506000600184600261354c9190614789565b6135569190614702565b90505b6001811115613642577f3031323334353637383961626364656600000000000000000000000000000000600f8616601081106135be577f4e487b7100000000000000000000000000000000000000000000000000000000600052603260045260246000fd5b1a60f81b8282815181106135fb577f4e487b7100000000000000000000000000000000000000000000000000000000600052603260045260246000fd5b60200101907effffffffffffffffffffffffffffffffffffffffffffffffffffffffffffff1916908160001a905350600485901c94508061363b906148d5565b9050613559565b5060008414613686576040517f08c379a000000000000000000000000000000000000000000000000000000000815260040161367d9061435e565b60405180910390fd5b8091505092915050565b60008135905061369f816149cf565b92915050565b6000813590506136b4816149e6565b92915050565b6000813590506136c9816149fd565b92915050565b6000813590506136de81614a14565b92915050565b6000813590506136f381614a2b565b92915050565b60006020828403121561370b57600080fd5b600061371984828501613690565b91505092915050565b6000806040838503121561373557600080fd5b600061374385828601613690565b925050602061375485828601613690565b9150509250929050565b60008060006060848603121561377357600080fd5b600061378186828701613690565b935050602061379286828701613690565b92505060406137a3868287016136e4565b9150509250925092565b600080604083850312156137c057600080fd5b60006137ce85828601613690565b92505060206137df858286016136e4565b9150509250929050565b600080600080608085870312156137ff57600080fd5b600061380d87828801613690565b945050602061381e878288016136e4565b935050604061382f878288016136e4565b9250506060613840878288016136e4565b91505092959194509250565b600080600080600060a0868803121561386457600080fd5b6000613872888289016136a5565b9550506020613883888289016136e4565b9450506040613894888289016136e4565b93505060606138a5888289016136e4565b92505060806138b6888289016136e4565b9150509295509295909350565b6000602082840312156138d557600080fd5b60006138e3848285016136ba565b91505092915050565b600080604083850312156138ff57600080fd5b600061390d858286016136ba565b925050602061391e85828601613690565b9150509250929050565b60006020828403121561393a57600080fd5b6000613948848285016136cf565b91505092915050565b60006020828403121561396357600080fd5b6000613971848285016136e4565b91505092915050565b6000806040838503121561398d57600080fd5b600061399b858286016136e4565b92505060206139ac858286016136e4565b9150509250929050565b6139bf81614817565b82525050565b6139ce81614829565b82525050565b6139dd81614835565b82525050565b60006139ee826146db565b6139f881856146e6565b9350613a088185602086016148a2565b613a11816149be565b840191505092915050565b6000613a27826146db565b613a3181856146f7565b9350613a418185602086016148a2565b80840191505092915050565b6000613a5a6020836146e6565b91507f537472696e67733a20686578206c656e67746820696e73756666696369656e746000830152602082019050919050565b6000613a9a6023836146e6565b91507f45524332303a207472616e7366657220746f20746865207a65726f206164647260008301527f65737300000000000000000000000000000000000000000000000000000000006020830152604082019050919050565b6000613b006014836146e6565b91507f5061757361626c653a206e6f74207061757365640000000000000000000000006000830152602082019050919050565b6000613b406022836146e6565b91507f45524332303a206275726e20616d6f756e7420657863656564732062616c616e60008301527f63650000000000000000000000000000000000000000000000000000000000006020830152604082019050919050565b6000613ba66022836146e6565b91507f45524332303a20617070726f766520746f20746865207a65726f20616464726560008301527f73730000000000000000000000000000000000000000000000000000000000006020830152604082019050919050565b6000613c0c6026836146e6565b91507f45524332303a207472616e7366657220616d6f756e742065786365656473206260008301527f616c616e636500000000000000000000000000000000000000000000000000006020830152604082019050919050565b6000613c726027836146e6565b91507f4164647265737320686173206e6f20766f74657320617661696c61626c65207460008301527f6f20636c61696d000000000000000000000000000000000000000000000000006020830152604082019050919050565b6000613cd86046836146e6565b91507f4f6e6c7920616464726573736573207468617420686176652062616c616e636560008301527f73206f66206f766572203130303020746f6b656e73206172652061626c65207460208301527f6f20766f746500000000000000000000000000000000000000000000000000006040830152606082019050919050565b6000613d646010836146e6565b91507f5061757361626c653a20706175736564000000000000000000000000000000006000830152602082019050919050565b6000613da4601c836146e6565b91507f4d757374206164642074696d652067726561746572207468616e2030000000006000830152602082019050919050565b6000613de46028836146e6565b91507f45524332303a207472616e7366657220616d6f756e742065786365656473206160008301527f6c6c6f77616e63650000000000000000000000000000000000000000000000006020830152604082019050919050565b6000613e4a6024836146e6565b91507f45524332303a206275726e20616d6f756e74206578636565647320616c6c6f7760008301527f616e6365000000000000000000000000000000000000000000000000000000006020830152604082019050919050565b6000613eb06013836146e6565b91507f506f6c6c20646f6573206e6f74206578697374000000000000000000000000006000830152602082019050919050565b6000613ef06021836146e6565b91507f45524332303a206275726e2066726f6d20746865207a65726f2061646472657360008301527f73000000000000000000000000000000000000000000000000000000000000006020830152604082019050919050565b6000613f566025836146e6565b91507f45524332303a207472616e736665722066726f6d20746865207a65726f20616460008301527f64726573730000000000000000000000000000000000000000000000000000006020830152604082019050919050565b6000613fbc603f836146e6565b91507f54686520616d6f756e74206f6620746f6b656e7320746f206265206275726e6560008301527f642f206d696e746564206d757374206265206c6172676572207468616e2030006020830152604082019050919050565b60006140226024836146e6565b91507f45524332303a20617070726f76652066726f6d20746865207a65726f2061646460008301527f72657373000000000000000000000000000000000000000000000000000000006020830152604082019050919050565b60006140886017836146f7565b91507f416363657373436f6e74726f6c3a206163636f756e74200000000000000000006000830152601782019050919050565b60006140c86047836146e6565b91507f4164647265737320686173206e6f20766f7465732063757272656e746c792c2060008301527f63616c6c2066756e6374696f6e20636c61696d566f746520746f20636c61696d60208301527f206120766f7465000000000000000000000000000000000000000000000000006040830152606082019050919050565b60006141546025836146e6565b91507f45524332303a2064656372656173656420616c6c6f77616e63652062656c6f7760008301527f207a65726f0000000000000000000000000000000000000000000000000000006020830152604082019050919050565b60006141ba6011836146f7565b91507f206973206d697373696e6720726f6c65200000000000000000000000000000006000830152601182019050919050565b60006141fa602f836146e6565b91507f416363657373436f6e74726f6c3a2063616e206f6e6c792072656e6f756e636560008301527f20726f6c657320666f722073656c6600000000000000000000000000000000006020830152604082019050919050565b6000614260601f836146e6565b91507f45524332303a206d696e7420746f20746865207a65726f2061646472657373006000830152602082019050919050565b61429c8161488b565b82525050565b6142ab81614895565b82525050565b60006142bc8261407b565b91506142c88285613a1c565b91506142d3826141ad565b91506142df8284613a1c565b91508190509392505050565b600060208201905061430060008301846139b6565b92915050565b600060208201905061431b60008301846139c5565b92915050565b600060208201905061433660008301846139d4565b92915050565b6000602082019050818103600083015261435681846139e3565b905092915050565b6000602082019050818103600083015261437781613a4d565b9050919050565b6000602082019050818103600083015261439781613a8d565b9050919050565b600060208201905081810360008301526143b781613af3565b9050919050565b600060208201905081810360008301526143d781613b33565b9050919050565b600060208201905081810360008301526143f781613b99565b9050919050565b6000602082019050818103600083015261441781613bff565b9050919050565b6000602082019050818103600083015261443781613c65565b9050919050565b6000602082019050818103600083015261445781613ccb565b9050919050565b6000602082019050818103600083015261447781613d57565b9050919050565b6000602082019050818103600083015261449781613d97565b9050919050565b600060208201905081810360008301526144b781613dd7565b9050919050565b600060208201905081810360008301526144d781613e3d565b9050919050565b600060208201905081810360008301526144f781613ea3565b9050919050565b6000602082019050818103600083015261451781613ee3565b9050919050565b6000602082019050818103600083015261453781613f49565b9050919050565b6000602082019050818103600083015261455781613faf565b9050919050565b6000602082019050818103600083015261457781614015565b9050919050565b60006020820190508181036000830152614597816140bb565b9050919050565b600060208201905081810360008301526145b781614147565b9050919050565b600060208201905081810360008301526145d7816141ed565b9050919050565b600060208201905081810360008301526145f781614253565b9050919050565b60006020820190506146136000830184614293565b92915050565b600060408201905061462e6000830185614293565b61463b6020830184614293565b9392505050565b600061010082019050614658600083018b614293565b614665602083018a614293565b61467260408301896139c5565b61467f6060830188614293565b61468c6080830187614293565b61469960a0830186614293565b6146a660c0830185614293565b6146b360e08301846139c5565b9998505050505050505050565b60006020820190506146d560008301846142a2565b92915050565b600081519050919050565b600082825260208201905092915050565b600081905092915050565b600061470d8261488b565b91506147188361488b565b9250827fffffffffffffffffffffffffffffffffffffffffffffffffffffffffffffffff0382111561474d5761474c614931565b5b828201905092915050565b60006147638261488b565b915061476e8361488b565b92508261477e5761477d614960565b5b828204905092915050565b60006147948261488b565b915061479f8361488b565b9250817fffffffffffffffffffffffffffffffffffffffffffffffffffffffffffffffff04831182151516156147d8576147d7614931565b5b828202905092915050565b60006147ee8261488b565b91506147f98361488b565b92508282101561480c5761480b614931565b5b828203905092915050565b60006148228261486b565b9050919050565b60008115159050919050565b6000819050919050565b60007fffffffff0000000000000000000000000000000000000000000000000000000082169050919050565b600073ffffffffffffffffffffffffffffffffffffffff82169050919050565b6000819050919050565b600060ff82169050919050565b60005b838110156148c05780820151818401526020810190506148a5565b838111156148cf576000848401525b50505050565b60006148e08261488b565b915060008214156148f4576148f3614931565b5b600182039050919050565b6000600282049050600182168061491757607f821691505b6020821081141561492b5761492a61498f565b5b50919050565b7f4e487b7100000000000000000000000000000000000000000000000000000000600052601160045260246000fd5b7f4e487b7100000000000000000000000000000000000000000000000000000000600052601260045260246000fd5b7f4e487b7100000000000000000000000000000000000000000000000000000000600052602260045260246000fd5b6000601f19601f8301169050919050565b6149d881614817565b81146149e357600080fd5b50565b6149ef81614829565b81146149fa57600080fd5b50565b614a0681614835565b8114614a1157600080fd5b50565b614a1d8161483f565b8114614a2857600080fd5b50565b614a348161488b565b8114614a3f57600080fd5b5056fea26469706673582212203ee24b771a64a2ef615190fc45f5b59b00c4c9173132fdb141bf56a163d6120864736f6c63430008000033",
  "immutableReferences": {},
  "source": "// SPDX-License-Identifier: MIT\npragma solidity >=0.4.22 <0.9.0;\n\nimport \"@openzeppelin/contracts/token/ERC20/ERC20.sol\";\nimport \"@openzeppelin/contracts/token/ERC20/extensions/ERC20Burnable.sol\";\nimport \"@openzeppelin/contracts/access/AccessControl.sol\";\nimport \"@openzeppelin/contracts/utils/math/SafeMath.sol\";\nimport \"@openzeppelin/contracts/security/Pausable.sol\";\n\ncontract Mai is ERC20, ERC20Burnable, AccessControl, Pausable{\n    using SafeMath for uint256;\n    bytes32 public constant PAUSER_ROLE = keccak256(\"PAUSER_ROLE\");\n    bytes32 public constant MINTER_ROLE = keccak256(\"MINTER_ROLE\");\n    bytes32 public constant VOTER_ROLE = keccak256(\"VOTER_ROLE\");\n\n    event _VoteMade(uint256 indexed pollID, uint256 votes, address indexed voter);\n    event _PollCreated(uint voteAmount, uint commitEndDate, uint indexed pollID, address indexed creator);\n    event _VotingRightsGranted(address indexed voter);\n    event _VotingRightsRevoked(address indexed voter);\n    event _resultsGenerated(uint256 amountMinted, uint256 pollID);\n\n    constructor() ERC20(\"Mai\", \"MAI\") {\n        _mint(msg.sender, 1000 * 10 ** decimals());\n        _setupRole(DEFAULT_ADMIN_ROLE, msg.sender);\n        _setupRole(MINTER_ROLE, msg.sender);\n        _setupRole(VOTER_ROLE, msg.sender);\n    }\n\n    struct Poll {\n        uint256 commitEndDate;\n        uint256 voteAmount;\n        bool quorumOption;\n        uint256 voteQuorum;\n        uint256 votesFor;\n        uint256 votesAgainst;\n        uint256 option;\n        bool ongoing;\n        mapping(address => uint256) _votesClaimed;\n        mapping(address => uint256) _votes;\n    }\n\n    mapping (uint256 => Poll) public pollMapping;\n    mapping (uint256 => uint256) public totalVotes;\n    uint256 pollNonce = 0;\n    address stakingAddress;\n    /**\n    @dev Initiates poll and emits PollCreate event\n    @param _quorumOption Users can decide if the winner is decided by the percentage majority out of 100 or whether the 'for' side has more votes than the 'against' side\n    @param _voteQuorum Assumes that the _quorumOption is false, passes in the percentage majority out of 100 that is required to win the vote\n    @param _voteAmount The amount of tokens minted/burned if poll is successful \n    @param _commitDuration Length of the poll in seconds\n    @param _option Type of poll, option 1 is for minting tokens, option 2 is for burning tokens \n    **/\n    function startPoll(bool _quorumOption, uint256 _voteQuorum, uint256 _voteAmount, uint256 _commitDuration, uint256 _option) public returns (uint256 pollID) {\n        require ((_quorumOption == false && _voteQuorum == 0) || (_quorumOption == true && _voteQuorum > 0));\n        require (_voteAmount > 0, \"The amount of tokens to be burned/ minted must be larger than 0\");\n        uint256 commitEndDate = block.timestamp.add(_commitDuration);\n        pollNonce = pollNonce.add(1);\n        Poll storage newPoll = pollMapping[pollNonce];\n        newPoll.option = _option;\n        newPoll.quorumOption = _quorumOption;\n        newPoll.voteQuorum = _voteQuorum;\n        newPoll.voteAmount = _voteAmount;\n        newPoll.commitEndDate = commitEndDate;\n        newPoll.votesFor = 0;\n        newPoll.votesAgainst = 0;\n        newPoll.ongoing = true;\n\n        emit _PollCreated(_voteAmount, commitEndDate, pollNonce, msg.sender);\n        return pollNonce;\n    }\n\n    function voterAllocation(address voter) public {\n        require(balanceOf(voter) >= 1000);\n        grantRole(VOTER_ROLE, voter);\n        emit _VotingRightsGranted(voter);\n    }\n\n    function transfer(address recipient, uint256 amount) public virtual override returns (bool) {\n        _transfer(_msgSender(), recipient, amount);\n        return true;\n    }\n\n    function voteRevokation(address voter) public {\n        require(voter != address(0));\n        revokeRole(VOTER_ROLE, voter);\n        emit _VotingRightsRevoked(voter);\n    }\n\n    modifier voterCheck(address voter) {\n        require(voter != address(0));\n        if (hasRole(VOTER_ROLE, voter) == false && balanceOf(voter) >= 1000) {\n            voterAllocation(voter);\n        }\n        if (hasRole(VOTER_ROLE, voter) == true && balanceOf(voter) < 1000) {\n           voteRevokation(voter); \n        }\n        require(hasRole(VOTER_ROLE, voter), \"Only addresses that have balances of over 1000 tokens are able to vote\");\n        _;\n    }\n\n    function claimVote(address voter, uint256 pollID) public whenNotPaused voterCheck(voter) {\n        require(voter != address(0));\n        uint256 claimable = pollMapping[pollID]._votesClaimed[voter].sub(999);\n        require(claimable > 0, \"Address has no votes available to claim\");\n        pollMapping[pollID]._votesClaimed[voter] = pollMapping[pollID]._votesClaimed[voter].add(claimable);\n        pollMapping[pollID]._votes[voter] = pollMapping[pollID]._votes[voter].add(claimable);\n    }\n\n    function numOfVotes(address voter, uint256 pollID) public view returns (uint256 votes) {\n        require(voter != address(0));\n        return pollMapping[pollID]._votes[voter]; \n    }\n\n    function makeVote(address voter, uint256 votesMade, uint256 pollID, uint256 side) public whenNotPaused voterCheck(voter) {\n        require(voter != address(0));\n        require(pollMapping[pollID].ongoing = true);\n        require(isNotExpired(pollID));\n        require(pollMapping[pollID]._votes[voter] > 0, \"Address has no votes currently, call function claimVote to claim a vote\");\n        require(votesMade <= pollMapping[pollID]._votes[voter]);\n        require(side == 1 || side == 2);\n        if (side == 1) {\n            pollMapping[pollID].votesFor = pollMapping[pollID].votesFor.add(1);\n        } else if (side == 2) {\n            pollMapping[pollID].votesAgainst = pollMapping[pollID].votesAgainst.add(1);\n        }\n        pollMapping[pollID]._votes[voter] = pollMapping[pollID]._votes[voter].sub(votesMade);\n        emit _VoteMade(pollID, votesMade, voter); \n        totalVotes[pollID] = totalVotes[pollID].add(1);\n    }\n\n    function results(uint256 pollID) public returns (bool passed) {\n        endPoll(pollID);\n        require(isNotExpired(pollID) == false);\n        require(pollExists(pollID));\n        if (pollMapping[pollID].quorumOption == false) {\n            if (pollMapping[pollID].votesFor > pollMapping[pollID].votesAgainst) {\n                return (true);\n            } else if (pollMapping[pollID].votesFor < pollMapping[pollID].votesAgainst) {\n                return (false);\n            } else {\n                whenTie(pollID);\n            }\n        } else if (pollMapping[pollID].quorumOption == true) {\n            if (quorumCalc(pollID) >= pollMapping[pollID].voteQuorum) {\n                return (true);\n            } else if (quorumCalc(pollID) < pollMapping[pollID].voteQuorum) {\n                return  (false);\n            } else {\n                whenTie(pollID);\n            }\n        }\n    }\n\n    function quorumCalc(uint256 pollID) public view returns (uint256 result) {\n        require (totalVotes[pollID] > 0);\n        require (pollExists(pollID), \"Poll does not exist\");\n        uint256 ans = pollMapping[pollID].votesFor.div(totalVotes[pollID]);\n        ans = ans.mul(100);\n        return ans;\n    }\n\n    function endPoll(uint pollID) public {\n        require(hasRole(PAUSER_ROLE, msg.sender));\n        require(pollExists(pollID));\n        pollMapping[pollID].ongoing = false;\n    }\n\n    function whenTie(uint256 pollID) public view returns (string memory tied) {\n        require(pollExists(pollID));\n        if (pollMapping[pollID].quorumOption == false) {\n            if (pollMapping[pollID].votesFor == pollMapping[pollID].votesAgainst) {\n                return (\"Poll tied\");\n            }\n        } else if (pollMapping[pollID].quorumOption == true) {\n            if (quorumCalc(pollID) == pollMapping[pollID].voteQuorum) {\n                return (\"Poll tied\");\n            }\n        }\n    } \n\n    function burnRewards (uint256 pollID) public payable {\n        require(pollMapping[pollID].option == 2);\n        require(pollMapping[pollID].ongoing == false);\n        burn(pollMapping[pollID].voteAmount);\n        emit _resultsGenerated(pollMapping[pollID].voteAmount, pollID);\n    }\n        \n\n    function mintRewards (uint256 pollID) public payable {\n        require(pollMapping[pollID].option == 1);\n        require(pollMapping[pollID].ongoing == false);\n        _mint(msg.sender, pollMapping[pollID].voteAmount);\n        emit _resultsGenerated(pollMapping[pollID].voteAmount, pollID);  \n    }\n        \n    \n    function addTime(uint256 pollID, uint256 timeAdded) public {\n        require (pollExists(pollID)); \n        require(timeAdded > 0, \"Must add time greater than 0\");\n        pollMapping[pollID].commitEndDate = pollMapping[pollID].commitEndDate.add(timeAdded); \n    }\n\n\n    function pause() public {\n        require(hasRole(PAUSER_ROLE, msg.sender));\n        _pause();\n    }\n\n    function unpause() public {\n        require(hasRole(PAUSER_ROLE, msg.sender));\n        _unpause();\n    }\n\n    function _beforeTokenTransfer(address from, address to, uint256 amount)\n        internal\n        whenNotPaused\n        override\n    {\n        super._beforeTokenTransfer(from, to, amount);\n    }\n\n    function mint(address to, uint256 amount) public {\n        require(hasRole(MINTER_ROLE, msg.sender));\n        _mint(to, amount);\n    }\n\n    function pollExists(uint256 _pollID) public view returns (bool exists) {\n        return (_pollID != 0 && _pollID <= pollNonce);\n    }\n\n    function pollEnded(uint256 _pollID) public view returns (bool ended) {\n        require(pollExists(_pollID));\n\n        return isNotExpired(pollMapping[_pollID].commitEndDate);\n    }\n\n    function isNotExpired(uint256 _terminationDate) public view returns (bool expired) {\n        return (block.timestamp > _terminationDate);\n    }\n\n}\n",
  "sourcePath": "/Users/colinlam/Desktop/code/MaiContract/contracts/MaiGeneration.sol",
  "compiler": {
    "name": "solc",
    "version": "0.8.0+commit.c7dfd78e.Emscripten.clang"
  },
  "schemaVersion": "3.4.1",
  "updatedAt": "2021-07-02T09:26:00.958Z",
  "devdoc": {
    "kind": "dev",
    "methods": {
      "allowance(address,address)": {
        "details": "See {IERC20-allowance}."
      },
      "approve(address,uint256)": {
        "details": "See {IERC20-approve}. Requirements: - `spender` cannot be the zero address."
      },
      "balanceOf(address)": {
        "details": "See {IERC20-balanceOf}."
      },
      "burn(uint256)": {
        "details": "Destroys `amount` tokens from the caller. See {ERC20-_burn}."
      },
      "burnFrom(address,uint256)": {
        "details": "Destroys `amount` tokens from `account`, deducting from the caller's allowance. See {ERC20-_burn} and {ERC20-allowance}. Requirements: - the caller must have allowance for ``accounts``'s tokens of at least `amount`."
      },
      "decimals()": {
        "details": "Returns the number of decimals used to get its user representation. For example, if `decimals` equals `2`, a balance of `505` tokens should be displayed to a user as `5,05` (`505 / 10 ** 2`). Tokens usually opt for a value of 18, imitating the relationship between Ether and Wei. This is the value {ERC20} uses, unless this function is overridden; NOTE: This information is only used for _display_ purposes: it in no way affects any of the arithmetic of the contract, including {IERC20-balanceOf} and {IERC20-transfer}."
      },
      "decreaseAllowance(address,uint256)": {
        "details": "Atomically decreases the allowance granted to `spender` by the caller. This is an alternative to {approve} that can be used as a mitigation for problems described in {IERC20-approve}. Emits an {Approval} event indicating the updated allowance. Requirements: - `spender` cannot be the zero address. - `spender` must have allowance for the caller of at least `subtractedValue`."
      },
      "getRoleAdmin(bytes32)": {
        "details": "Returns the admin role that controls `role`. See {grantRole} and {revokeRole}. To change a role's admin, use {_setRoleAdmin}."
      },
      "grantRole(bytes32,address)": {
        "details": "Grants `role` to `account`. If `account` had not been already granted `role`, emits a {RoleGranted} event. Requirements: - the caller must have ``role``'s admin role."
      },
      "hasRole(bytes32,address)": {
        "details": "Returns `true` if `account` has been granted `role`."
      },
      "increaseAllowance(address,uint256)": {
        "details": "Atomically increases the allowance granted to `spender` by the caller. This is an alternative to {approve} that can be used as a mitigation for problems described in {IERC20-approve}. Emits an {Approval} event indicating the updated allowance. Requirements: - `spender` cannot be the zero address."
      },
      "name()": {
        "details": "Returns the name of the token."
      },
      "paused()": {
        "details": "Returns true if the contract is paused, and false otherwise."
      },
      "renounceRole(bytes32,address)": {
        "details": "Revokes `role` from the calling account. Roles are often managed via {grantRole} and {revokeRole}: this function's purpose is to provide a mechanism for accounts to lose their privileges if they are compromised (such as when a trusted device is misplaced). If the calling account had been granted `role`, emits a {RoleRevoked} event. Requirements: - the caller must be `account`."
      },
      "revokeRole(bytes32,address)": {
        "details": "Revokes `role` from `account`. If `account` had been granted `role`, emits a {RoleRevoked} event. Requirements: - the caller must have ``role``'s admin role."
      },
      "startPoll(bool,uint256,uint256,uint256,uint256)": {
        "details": "Initiates poll and emits PollCreate event",
        "params": {
          "_commitDuration": "Length of the poll in seconds",
          "_option": "Type of poll, option 1 is for minting tokens, option 2 is for burning tokens *",
          "_quorumOption": "Users can decide if the winner is decided by the percentage majority out of 100 or whether the 'for' side has more votes than the 'against' side",
          "_voteAmount": "The amount of tokens minted/burned if poll is successful ",
          "_voteQuorum": "Assumes that the _quorumOption is false, passes in the percentage majority out of 100 that is required to win the vote"
        }
      },
      "supportsInterface(bytes4)": {
        "details": "See {IERC165-supportsInterface}."
      },
      "symbol()": {
        "details": "Returns the symbol of the token, usually a shorter version of the name."
      },
      "totalSupply()": {
        "details": "See {IERC20-totalSupply}."
      },
      "transfer(address,uint256)": {
        "details": "See {IERC20-transfer}. Requirements: - `recipient` cannot be the zero address. - the caller must have a balance of at least `amount`."
      },
      "transferFrom(address,address,uint256)": {
        "details": "See {IERC20-transferFrom}. Emits an {Approval} event indicating the updated allowance. This is not required by the EIP. See the note at the beginning of {ERC20}. Requirements: - `sender` and `recipient` cannot be the zero address. - `sender` must have a balance of at least `amount`. - the caller must have allowance for ``sender``'s tokens of at least `amount`."
      }
    },
    "version": 1
  },
  "userdoc": {
    "kind": "user",
    "methods": {},
    "version": 1
  }
}