{
  "contractName": "Mai",
  "abi": [
    {
      "inputs": [],
      "stateMutability": "nonpayable",
      "type": "constructor"
    },
    {
      "anonymous": false,
      "inputs": [
        {
          "indexed": true,
          "internalType": "address",
          "name": "owner",
          "type": "address"
        },
        {
          "indexed": true,
          "internalType": "address",
          "name": "spender",
          "type": "address"
        },
        {
          "indexed": false,
          "internalType": "uint256",
          "name": "value",
          "type": "uint256"
        }
      ],
      "name": "Approval",
      "type": "event"
    },
    {
      "anonymous": false,
      "inputs": [
        {
          "indexed": false,
          "internalType": "address",
          "name": "account",
          "type": "address"
        }
      ],
      "name": "Paused",
      "type": "event"
    },
    {
      "anonymous": false,
      "inputs": [
        {
          "indexed": true,
          "internalType": "bytes32",
          "name": "role",
          "type": "bytes32"
        },
        {
          "indexed": true,
          "internalType": "bytes32",
          "name": "previousAdminRole",
          "type": "bytes32"
        },
        {
          "indexed": true,
          "internalType": "bytes32",
          "name": "newAdminRole",
          "type": "bytes32"
        }
      ],
      "name": "RoleAdminChanged",
      "type": "event"
    },
    {
      "anonymous": false,
      "inputs": [
        {
          "indexed": true,
          "internalType": "bytes32",
          "name": "role",
          "type": "bytes32"
        },
        {
          "indexed": true,
          "internalType": "address",
          "name": "account",
          "type": "address"
        },
        {
          "indexed": true,
          "internalType": "address",
          "name": "sender",
          "type": "address"
        }
      ],
      "name": "RoleGranted",
      "type": "event"
    },
    {
      "anonymous": false,
      "inputs": [
        {
          "indexed": true,
          "internalType": "bytes32",
          "name": "role",
          "type": "bytes32"
        },
        {
          "indexed": true,
          "internalType": "address",
          "name": "account",
          "type": "address"
        },
        {
          "indexed": true,
          "internalType": "address",
          "name": "sender",
          "type": "address"
        }
      ],
      "name": "RoleRevoked",
      "type": "event"
    },
    {
      "anonymous": false,
      "inputs": [
        {
          "indexed": false,
          "internalType": "uint256",
          "name": "id",
          "type": "uint256"
        }
      ],
      "name": "Snapshot",
      "type": "event"
    },
    {
      "anonymous": false,
      "inputs": [
        {
          "indexed": true,
          "internalType": "address",
          "name": "from",
          "type": "address"
        },
        {
          "indexed": true,
          "internalType": "address",
          "name": "to",
          "type": "address"
        },
        {
          "indexed": false,
          "internalType": "uint256",
          "name": "value",
          "type": "uint256"
        }
      ],
      "name": "Transfer",
      "type": "event"
    },
    {
      "anonymous": false,
      "inputs": [
        {
          "indexed": false,
          "internalType": "address",
          "name": "account",
          "type": "address"
        }
      ],
      "name": "Unpaused",
      "type": "event"
    },
    {
      "anonymous": false,
      "inputs": [
        {
          "indexed": false,
          "internalType": "uint256",
          "name": "minStake",
          "type": "uint256"
        }
      ],
      "name": "_MinimumStakeChanged",
      "type": "event"
    },
    {
      "anonymous": false,
      "inputs": [
        {
          "indexed": false,
          "internalType": "uint256",
          "name": "votedTokenAmount",
          "type": "uint256"
        },
        {
          "indexed": false,
          "internalType": "uint256",
          "name": "end",
          "type": "uint256"
        },
        {
          "indexed": true,
          "internalType": "uint256",
          "name": "pollID",
          "type": "uint256"
        },
        {
          "indexed": true,
          "internalType": "address",
          "name": "creator",
          "type": "address"
        }
      ],
      "name": "_PollCreated",
      "type": "event"
    },
    {
      "anonymous": false,
      "inputs": [
        {
          "indexed": true,
          "internalType": "uint256",
          "name": "pollID",
          "type": "uint256"
        },
        {
          "indexed": true,
          "internalType": "uint256",
          "name": "amount",
          "type": "uint256"
        }
      ],
      "name": "_RewardsBurned",
      "type": "event"
    },
    {
      "anonymous": false,
      "inputs": [
        {
          "indexed": true,
          "internalType": "uint256",
          "name": "pollID",
          "type": "uint256"
        },
        {
          "indexed": true,
          "internalType": "uint256",
          "name": "amount",
          "type": "uint256"
        }
      ],
      "name": "_RewardsMinted",
      "type": "event"
    },
    {
      "anonymous": false,
      "inputs": [
        {
          "indexed": false,
          "internalType": "address",
          "name": "to",
          "type": "address"
        }
      ],
      "name": "_StakerGranted",
      "type": "event"
    },
    {
      "anonymous": false,
      "inputs": [
        {
          "indexed": false,
          "internalType": "address",
          "name": "account",
          "type": "address"
        },
        {
          "indexed": false,
          "internalType": "uint256",
          "name": "amountReturned",
          "type": "uint256"
        }
      ],
      "name": "_StakerRoleRevoked",
      "type": "event"
    },
    {
      "anonymous": false,
      "inputs": [
        {
          "indexed": false,
          "internalType": "address",
          "name": "account",
          "type": "address"
        },
        {
          "indexed": false,
          "internalType": "uint256",
          "name": "amount",
          "type": "uint256"
        }
      ],
      "name": "_StakesDeposited",
      "type": "event"
    },
    {
      "anonymous": false,
      "inputs": [
        {
          "indexed": false,
          "internalType": "address",
          "name": "account",
          "type": "address"
        },
        {
          "indexed": false,
          "internalType": "uint256",
          "name": "amount",
          "type": "uint256"
        }
      ],
      "name": "_StakesWithdrawn",
      "type": "event"
    },
    {
      "anonymous": false,
      "inputs": [
        {
          "indexed": true,
          "internalType": "address",
          "name": "voter",
          "type": "address"
        },
        {
          "indexed": false,
          "internalType": "uint256",
          "name": "amountClaimed",
          "type": "uint256"
        }
      ],
      "name": "_VoteClaimed",
      "type": "event"
    },
    {
      "anonymous": false,
      "inputs": [
        {
          "indexed": true,
          "internalType": "uint256",
          "name": "pollID",
          "type": "uint256"
        }
      ],
      "name": "_VoteEnded",
      "type": "event"
    },
    {
      "anonymous": false,
      "inputs": [
        {
          "indexed": true,
          "internalType": "uint256",
          "name": "pollID",
          "type": "uint256"
        },
        {
          "indexed": false,
          "internalType": "uint256",
          "name": "votes",
          "type": "uint256"
        },
        {
          "indexed": true,
          "internalType": "address",
          "name": "voter",
          "type": "address"
        },
        {
          "indexed": false,
          "internalType": "uint256",
          "name": "side",
          "type": "uint256"
        }
      ],
      "name": "_VoteMade",
      "type": "event"
    },
    {
      "anonymous": false,
      "inputs": [
        {
          "indexed": true,
          "internalType": "uint256",
          "name": "pollID",
          "type": "uint256"
        },
        {
          "indexed": false,
          "internalType": "uint256",
          "name": "votes",
          "type": "uint256"
        },
        {
          "indexed": true,
          "internalType": "address",
          "name": "voter",
          "type": "address"
        }
      ],
      "name": "_VoteRevoked",
      "type": "event"
    },
    {
      "anonymous": false,
      "inputs": [
        {
          "indexed": true,
          "internalType": "address",
          "name": "voter",
          "type": "address"
        }
      ],
      "name": "_VotingRightsGranted",
      "type": "event"
    },
    {
      "anonymous": false,
      "inputs": [
        {
          "indexed": true,
          "internalType": "address",
          "name": "voter",
          "type": "address"
        }
      ],
      "name": "_VotingRightsRevoked",
      "type": "event"
    },
    {
      "anonymous": false,
      "inputs": [
        {
          "indexed": false,
          "internalType": "uint256",
          "name": "amountMinted",
          "type": "uint256"
        },
        {
          "indexed": false,
          "internalType": "uint256",
          "name": "pollID",
          "type": "uint256"
        }
      ],
      "name": "_resultsGenerated",
      "type": "event"
    },
    {
      "inputs": [],
      "name": "DEFAULT_ADMIN_ROLE",
      "outputs": [
        {
          "internalType": "bytes32",
          "name": "",
          "type": "bytes32"
        }
      ],
      "stateMutability": "view",
      "type": "function"
    },
    {
      "inputs": [],
      "name": "OWNER_ROLE",
      "outputs": [
        {
          "internalType": "bytes32",
          "name": "",
          "type": "bytes32"
        }
      ],
      "stateMutability": "view",
      "type": "function"
    },
    {
      "inputs": [],
      "name": "PAUSER_ROLE",
      "outputs": [
        {
          "internalType": "bytes32",
          "name": "",
          "type": "bytes32"
        }
      ],
      "stateMutability": "view",
      "type": "function"
    },
    {
      "inputs": [],
      "name": "SNAPSHOT_ROLE",
      "outputs": [
        {
          "internalType": "bytes32",
          "name": "",
          "type": "bytes32"
        }
      ],
      "stateMutability": "view",
      "type": "function"
    },
    {
      "inputs": [],
      "name": "STAKER_ROLE",
      "outputs": [
        {
          "internalType": "bytes32",
          "name": "",
          "type": "bytes32"
        }
      ],
      "stateMutability": "view",
      "type": "function"
    },
    {
      "inputs": [],
      "name": "VOTER_ROLE",
      "outputs": [
        {
          "internalType": "bytes32",
          "name": "",
          "type": "bytes32"
        }
      ],
      "stateMutability": "view",
      "type": "function"
    },
    {
      "inputs": [
        {
          "internalType": "address",
          "name": "owner",
          "type": "address"
        },
        {
          "internalType": "address",
          "name": "spender",
          "type": "address"
        }
      ],
      "name": "allowance",
      "outputs": [
        {
          "internalType": "uint256",
          "name": "",
          "type": "uint256"
        }
      ],
      "stateMutability": "view",
      "type": "function"
    },
    {
      "inputs": [
        {
          "internalType": "address",
          "name": "spender",
          "type": "address"
        },
        {
          "internalType": "uint256",
          "name": "amount",
          "type": "uint256"
        }
      ],
      "name": "approve",
      "outputs": [
        {
          "internalType": "bool",
          "name": "",
          "type": "bool"
        }
      ],
      "stateMutability": "nonpayable",
      "type": "function"
    },
    {
      "inputs": [
        {
          "internalType": "address",
          "name": "account",
          "type": "address"
        }
      ],
      "name": "balanceOf",
      "outputs": [
        {
          "internalType": "uint256",
          "name": "",
          "type": "uint256"
        }
      ],
      "stateMutability": "view",
      "type": "function"
    },
    {
      "inputs": [
        {
          "internalType": "address",
          "name": "account",
          "type": "address"
        },
        {
          "internalType": "uint256",
          "name": "snapshotId",
          "type": "uint256"
        }
      ],
      "name": "balanceOfAt",
      "outputs": [
        {
          "internalType": "uint256",
          "name": "",
          "type": "uint256"
        }
      ],
      "stateMutability": "view",
      "type": "function"
    },
    {
      "inputs": [
        {
          "internalType": "uint256",
          "name": "amount",
          "type": "uint256"
        }
      ],
      "name": "burn",
      "outputs": [],
      "stateMutability": "nonpayable",
      "type": "function"
    },
    {
      "inputs": [
        {
          "internalType": "address",
          "name": "account",
          "type": "address"
        },
        {
          "internalType": "uint256",
          "name": "amount",
          "type": "uint256"
        }
      ],
      "name": "burnFrom",
      "outputs": [],
      "stateMutability": "nonpayable",
      "type": "function"
    },
    {
      "inputs": [],
      "name": "decimals",
      "outputs": [
        {
          "internalType": "uint8",
          "name": "",
          "type": "uint8"
        }
      ],
      "stateMutability": "view",
      "type": "function"
    },
    {
      "inputs": [
        {
          "internalType": "address",
          "name": "spender",
          "type": "address"
        },
        {
          "internalType": "uint256",
          "name": "subtractedValue",
          "type": "uint256"
        }
      ],
      "name": "decreaseAllowance",
      "outputs": [
        {
          "internalType": "bool",
          "name": "",
          "type": "bool"
        }
      ],
      "stateMutability": "nonpayable",
      "type": "function"
    },
    {
      "inputs": [
        {
          "internalType": "bytes32",
          "name": "role",
          "type": "bytes32"
        }
      ],
      "name": "getRoleAdmin",
      "outputs": [
        {
          "internalType": "bytes32",
          "name": "",
          "type": "bytes32"
        }
      ],
      "stateMutability": "view",
      "type": "function"
    },
    {
      "inputs": [
        {
          "internalType": "bytes32",
          "name": "role",
          "type": "bytes32"
        },
        {
          "internalType": "address",
          "name": "account",
          "type": "address"
        }
      ],
      "name": "grantRole",
      "outputs": [],
      "stateMutability": "nonpayable",
      "type": "function"
    },
    {
      "inputs": [
        {
          "internalType": "bytes32",
          "name": "role",
          "type": "bytes32"
        },
        {
          "internalType": "address",
          "name": "account",
          "type": "address"
        }
      ],
      "name": "hasRole",
      "outputs": [
        {
          "internalType": "bool",
          "name": "",
          "type": "bool"
        }
      ],
      "stateMutability": "view",
      "type": "function"
    },
    {
      "inputs": [
        {
          "internalType": "address",
          "name": "spender",
          "type": "address"
        },
        {
          "internalType": "uint256",
          "name": "addedValue",
          "type": "uint256"
        }
      ],
      "name": "increaseAllowance",
      "outputs": [
        {
          "internalType": "bool",
          "name": "",
          "type": "bool"
        }
      ],
      "stateMutability": "nonpayable",
      "type": "function"
    },
    {
      "inputs": [],
      "name": "name",
      "outputs": [
        {
          "internalType": "string",
          "name": "",
          "type": "string"
        }
      ],
      "stateMutability": "view",
      "type": "function"
    },
    {
      "inputs": [],
      "name": "paused",
      "outputs": [
        {
          "internalType": "bool",
          "name": "",
          "type": "bool"
        }
      ],
      "stateMutability": "view",
      "type": "function"
    },
    {
      "inputs": [
        {
          "internalType": "uint256",
          "name": "",
          "type": "uint256"
        }
      ],
      "name": "pollMapping",
      "outputs": [
        {
          "internalType": "address",
          "name": "pollStarter",
          "type": "address"
        },
        {
          "internalType": "uint256",
          "name": "start",
          "type": "uint256"
        },
        {
          "internalType": "uint256",
          "name": "end",
          "type": "uint256"
        },
        {
          "internalType": "uint256",
          "name": "votedTokenAmount",
          "type": "uint256"
        },
        {
          "internalType": "bool",
          "name": "quorumOption",
          "type": "bool"
        },
        {
          "internalType": "uint256",
          "name": "voteQuorum",
          "type": "uint256"
        },
        {
          "internalType": "uint256",
          "name": "votesFor",
          "type": "uint256"
        },
        {
          "internalType": "uint256",
          "name": "votesAgainst",
          "type": "uint256"
        },
        {
          "internalType": "uint256",
          "name": "action",
          "type": "uint256"
        },
        {
          "internalType": "bool",
          "name": "ongoing",
          "type": "bool"
        }
      ],
      "stateMutability": "view",
      "type": "function"
    },
    {
      "inputs": [
        {
          "internalType": "bytes32",
          "name": "role",
          "type": "bytes32"
        },
        {
          "internalType": "address",
          "name": "account",
          "type": "address"
        }
      ],
      "name": "renounceRole",
      "outputs": [],
      "stateMutability": "nonpayable",
      "type": "function"
    },
    {
      "inputs": [
        {
          "internalType": "bytes32",
          "name": "role",
          "type": "bytes32"
        },
        {
          "internalType": "address",
          "name": "account",
          "type": "address"
        }
      ],
      "name": "revokeRole",
      "outputs": [],
      "stateMutability": "nonpayable",
      "type": "function"
    },
    {
      "inputs": [
        {
          "internalType": "address",
          "name": "",
          "type": "address"
        }
      ],
      "name": "stakedTotal",
      "outputs": [
        {
          "internalType": "uint256",
          "name": "",
          "type": "uint256"
        }
      ],
      "stateMutability": "view",
      "type": "function"
    },
    {
      "inputs": [],
      "name": "stakingAddress",
      "outputs": [
        {
          "internalType": "address",
          "name": "",
          "type": "address"
        }
      ],
      "stateMutability": "view",
      "type": "function"
    },
    {
      "inputs": [
        {
          "internalType": "bytes4",
          "name": "interfaceId",
          "type": "bytes4"
        }
      ],
      "name": "supportsInterface",
      "outputs": [
        {
          "internalType": "bool",
          "name": "",
          "type": "bool"
        }
      ],
      "stateMutability": "view",
      "type": "function"
    },
    {
      "inputs": [],
      "name": "symbol",
      "outputs": [
        {
          "internalType": "string",
          "name": "",
          "type": "string"
        }
      ],
      "stateMutability": "view",
      "type": "function"
    },
    {
      "inputs": [],
      "name": "totalSupply",
      "outputs": [
        {
          "internalType": "uint256",
          "name": "",
          "type": "uint256"
        }
      ],
      "stateMutability": "view",
      "type": "function"
    },
    {
      "inputs": [
        {
          "internalType": "uint256",
          "name": "snapshotId",
          "type": "uint256"
        }
      ],
      "name": "totalSupplyAt",
      "outputs": [
        {
          "internalType": "uint256",
          "name": "",
          "type": "uint256"
        }
      ],
      "stateMutability": "view",
      "type": "function"
    },
    {
      "inputs": [
        {
          "internalType": "uint256",
          "name": "",
          "type": "uint256"
        }
      ],
      "name": "totalVotes",
      "outputs": [
        {
          "internalType": "uint256",
          "name": "",
          "type": "uint256"
        }
      ],
      "stateMutability": "view",
      "type": "function"
    },
    {
      "inputs": [
        {
          "internalType": "address",
          "name": "recipient",
          "type": "address"
        },
        {
          "internalType": "uint256",
          "name": "amount",
          "type": "uint256"
        }
      ],
      "name": "transfer",
      "outputs": [
        {
          "internalType": "bool",
          "name": "",
          "type": "bool"
        }
      ],
      "stateMutability": "nonpayable",
      "type": "function"
    },
    {
      "inputs": [
        {
          "internalType": "address",
          "name": "sender",
          "type": "address"
        },
        {
          "internalType": "address",
          "name": "recipient",
          "type": "address"
        },
        {
          "internalType": "uint256",
          "name": "amount",
          "type": "uint256"
        }
      ],
      "name": "transferFrom",
      "outputs": [
        {
          "internalType": "bool",
          "name": "",
          "type": "bool"
        }
      ],
      "stateMutability": "nonpayable",
      "type": "function"
    },
    {
      "inputs": [],
      "name": "snapshot",
      "outputs": [],
      "stateMutability": "nonpayable",
      "type": "function"
    },
    {
      "inputs": [
        {
          "internalType": "uint256",
          "name": "newMinAmount",
          "type": "uint256"
        }
      ],
      "name": "changeMinimumStake",
      "outputs": [],
      "stateMutability": "nonpayable",
      "type": "function"
    },
    {
      "inputs": [
        {
          "internalType": "uint256",
          "name": "amount",
          "type": "uint256"
        }
      ],
      "name": "stake",
      "outputs": [],
      "stateMutability": "payable",
      "type": "function"
    },
    {
      "inputs": [
        {
          "internalType": "uint256",
          "name": "amount",
          "type": "uint256"
        }
      ],
      "name": "withdraw",
      "outputs": [],
      "stateMutability": "payable",
      "type": "function"
    },
    {
      "inputs": [
        {
          "internalType": "uint256",
          "name": "amount",
          "type": "uint256"
        }
      ],
      "name": "deposit",
      "outputs": [],
      "stateMutability": "payable",
      "type": "function"
    },
    {
      "inputs": [],
      "name": "viewStakedBalance",
      "outputs": [
        {
          "internalType": "uint256",
          "name": "balance",
          "type": "uint256"
        }
      ],
      "stateMutability": "view",
      "type": "function"
    },
    {
      "inputs": [],
      "name": "revokeStaker",
      "outputs": [],
      "stateMutability": "nonpayable",
      "type": "function"
    },
    {
      "inputs": [
        {
          "internalType": "bool",
          "name": "_quorumOption",
          "type": "bool"
        },
        {
          "internalType": "uint256",
          "name": "_voteQuorum",
          "type": "uint256"
        },
        {
          "internalType": "uint256",
          "name": "_action",
          "type": "uint256"
        },
        {
          "internalType": "uint256",
          "name": "_votedTokenAmount",
          "type": "uint256"
        },
        {
          "internalType": "uint256",
          "name": "_commitDuration",
          "type": "uint256"
        },
        {
          "internalType": "address",
          "name": "_pollStarter",
          "type": "address"
        }
      ],
      "name": "startPoll",
      "outputs": [
        {
          "internalType": "uint256",
          "name": "pollID",
          "type": "uint256"
        }
      ],
      "stateMutability": "nonpayable",
      "type": "function"
    },
    {
      "inputs": [
        {
          "internalType": "address",
          "name": "voter",
          "type": "address"
        }
      ],
      "name": "voterAllocation",
      "outputs": [],
      "stateMutability": "nonpayable",
      "type": "function"
    },
    {
      "inputs": [
        {
          "internalType": "address",
          "name": "voter",
          "type": "address"
        }
      ],
      "name": "voterRevokation",
      "outputs": [],
      "stateMutability": "nonpayable",
      "type": "function"
    },
    {
      "inputs": [
        {
          "internalType": "uint256",
          "name": "pollID",
          "type": "uint256"
        },
        {
          "internalType": "address",
          "name": "voter",
          "type": "address"
        }
      ],
      "name": "claimVote",
      "outputs": [],
      "stateMutability": "nonpayable",
      "type": "function"
    },
    {
      "inputs": [
        {
          "internalType": "address",
          "name": "voter",
          "type": "address"
        },
        {
          "internalType": "uint256",
          "name": "pollID",
          "type": "uint256"
        }
      ],
      "name": "numOfVotes",
      "outputs": [
        {
          "internalType": "uint256",
          "name": "votes",
          "type": "uint256"
        }
      ],
      "stateMutability": "view",
      "type": "function"
    },
    {
      "inputs": [
        {
          "internalType": "uint256",
          "name": "votesMade",
          "type": "uint256"
        },
        {
          "internalType": "uint256",
          "name": "pollID",
          "type": "uint256"
        },
        {
          "internalType": "uint256",
          "name": "side",
          "type": "uint256"
        },
        {
          "internalType": "address",
          "name": "voter",
          "type": "address"
        }
      ],
      "name": "makeVote",
      "outputs": [],
      "stateMutability": "nonpayable",
      "type": "function"
    },
    {
      "inputs": [
        {
          "internalType": "uint256",
          "name": "pollID",
          "type": "uint256"
        }
      ],
      "name": "results",
      "outputs": [
        {
          "internalType": "bool",
          "name": "passed",
          "type": "bool"
        }
      ],
      "stateMutability": "nonpayable",
      "type": "function"
    },
    {
      "inputs": [
        {
          "internalType": "uint256",
          "name": "pollID",
          "type": "uint256"
        }
      ],
      "name": "quorumCalc",
      "outputs": [
        {
          "internalType": "uint256",
          "name": "result",
          "type": "uint256"
        }
      ],
      "stateMutability": "view",
      "type": "function"
    },
    {
      "inputs": [
        {
          "internalType": "uint256",
          "name": "pollID",
          "type": "uint256"
        }
      ],
      "name": "endPoll",
      "outputs": [],
      "stateMutability": "nonpayable",
      "type": "function"
    },
    {
      "inputs": [
        {
          "internalType": "uint256",
          "name": "pollID",
          "type": "uint256"
        }
      ],
      "name": "mintRewards",
      "outputs": [],
      "stateMutability": "payable",
      "type": "function"
    },
    {
      "inputs": [
        {
          "internalType": "uint256",
          "name": "pollID",
          "type": "uint256"
        }
      ],
      "name": "burnRewards",
      "outputs": [],
      "stateMutability": "payable",
      "type": "function"
    },
    {
      "inputs": [
        {
          "internalType": "uint256",
          "name": "pollID",
          "type": "uint256"
        },
        {
          "internalType": "address",
          "name": "recipient",
          "type": "address"
        }
      ],
      "name": "transferRewards",
      "outputs": [],
      "stateMutability": "nonpayable",
      "type": "function"
    },
    {
      "inputs": [
        {
          "internalType": "uint256",
          "name": "pollID",
          "type": "uint256"
        }
      ],
      "name": "takeSnapshot",
      "outputs": [],
      "stateMutability": "nonpayable",
      "type": "function"
    },
    {
      "inputs": [
        {
          "internalType": "address",
          "name": "voter",
          "type": "address"
        }
      ],
      "name": "checkParticipation",
      "outputs": [
        {
          "internalType": "bool",
          "name": "participating",
          "type": "bool"
        }
      ],
      "stateMutability": "view",
      "type": "function"
    },
    {
      "inputs": [
        {
          "internalType": "uint256",
          "name": "_pollID",
          "type": "uint256"
        }
      ],
      "name": "pollExists",
      "outputs": [
        {
          "internalType": "bool",
          "name": "exists",
          "type": "bool"
        }
      ],
      "stateMutability": "view",
      "type": "function"
    },
    {
      "inputs": [
        {
          "internalType": "uint256",
          "name": "_pollID",
          "type": "uint256"
        }
      ],
      "name": "pollEnded",
      "outputs": [
        {
          "internalType": "bool",
          "name": "ended",
          "type": "bool"
        }
      ],
      "stateMutability": "view",
      "type": "function"
    },
    {
      "inputs": [
        {
          "internalType": "uint256",
          "name": "_terminationDate",
          "type": "uint256"
        }
      ],
      "name": "isNotExpired",
      "outputs": [
        {
          "internalType": "bool",
          "name": "expired",
          "type": "bool"
        }
      ],
      "stateMutability": "view",
      "type": "function"
    }
  ],
  "bytecode": "0x60806040526103e8600c5560006010553480156200001c57600080fd5b506040518060400160405280600381526020017f4d616900000000000000000000000000000000000000000000000000000000008152506040518060400160405280600381526020017f4d414900000000000000000000000000000000000000000000000000000000008152508160039080519060200190620000a1929190620007df565b508060049080519060200190620000ba929190620007df565b5050506000600a60006101000a81548160ff0219169083151502179055506200011933620000ed620001e760201b60201c565b600a620000fb9190620009ea565b64e8d4a510006200010d919062000b27565b620001f060201b60201c565b6200014b7fb9e206fa2af7ee1331b72ce58b6d938ac810ce9b5cdb65d35ab723fd67badf9e336200035560201b60201c565b6200017d7fb19546dff01e856fb3f010c267a7b1c60363cf8a4664e21cc89c26224620214e336200035560201b60201c565b620001af7f65d7a28e3265b37a6474929f336521b332c1681b933f6cb9f3376673440d862a336200035560201b60201c565b620001e17f5fdbd35e8da83ee755d5e62a539e5ed7f47126abede0b8b10f9ea43dc6eed07f336200035560201b60201c565b62000c7b565b60006012905090565b600073ffffffffffffffffffffffffffffffffffffffff168273ffffffffffffffffffffffffffffffffffffffff16141562000263576040517f08c379a00000000000000000000000000000000000000000000000000000000081526004016200025a90620008e2565b60405180910390fd5b62000277600083836200036b60201b60201c565b80600260008282546200028b919062000932565b92505081905550806000808473ffffffffffffffffffffffffffffffffffffffff1673ffffffffffffffffffffffffffffffffffffffff1681526020019081526020016000206000828254620002e2919062000932565b925050819055508173ffffffffffffffffffffffffffffffffffffffff16600073ffffffffffffffffffffffffffffffffffffffff167fddf252ad1be2c89b69c2b068fc378daa952ba7f163c4a11628f55a4df523b3ef8360405162000349919062000904565b60405180910390a35050565b6200036782826200038860201b60201c565b5050565b620003838383836200047a60201b620038351760201c565b505050565b6200039a82826200057560201b60201c565b620004765760016009600084815260200190815260200160002060000160008373ffffffffffffffffffffffffffffffffffffffff1673ffffffffffffffffffffffffffffffffffffffff16815260200190815260200160002060006101000a81548160ff0219169083151502179055506200041b620005e060201b60201c565b73ffffffffffffffffffffffffffffffffffffffff168173ffffffffffffffffffffffffffffffffffffffff16837f2f8788117e7eff1d82e926ec794901d17c78024a50270940304540a733656f0d60405160405180910390a45b5050565b62000492838383620005e860201b620038ef1760201c565b600073ffffffffffffffffffffffffffffffffffffffff168373ffffffffffffffffffffffffffffffffffffffff161415620004ef57620004d982620005ed60201b60201c565b620004e96200065060201b60201c565b62000570565b600073ffffffffffffffffffffffffffffffffffffffff168273ffffffffffffffffffffffffffffffffffffffff1614156200054c576200053683620005ed60201b60201c565b620005466200065060201b60201c565b6200056f565b6200055d83620005ed60201b60201c565b6200056e82620005ed60201b60201c565b5b5b505050565b60006009600084815260200190815260200160002060000160008373ffffffffffffffffffffffffffffffffffffffff1673ffffffffffffffffffffffffffffffffffffffff16815260200190815260200160002060009054906101000a900460ff16905092915050565b600033905090565b505050565b6200064d600560008373ffffffffffffffffffffffffffffffffffffffff1673ffffffffffffffffffffffffffffffffffffffff16815260200190815260200160002062000641836200067460201b60201c565b620006bc60201b60201c565b50565b620006726006620006666200074f60201b60201c565b620006bc60201b60201c565b565b60008060008373ffffffffffffffffffffffffffffffffffffffff1673ffffffffffffffffffffffffffffffffffffffff168152602001908152602001600020549050919050565b6000620006d560086200075960201b620038f41760201c565b905080620006ec846000016200076760201b60201c565b10156200074a5782600001819080600181540180825580915050600190039060005260206000200160009091909190915055826001018290806001815401808255809150506001900390600052602060002001600090919091909150555b505050565b6000600254905090565b600081600001549050919050565b60008082805490501415620007805760009050620007da565b816001838054905062000794919062000b88565b81548110620007cc577f4e487b7100000000000000000000000000000000000000000000000000000000600052603260045260246000fd5b906000526020600020015490505b919050565b828054620007ed9062000bda565b90600052602060002090601f0160209004810192826200081157600085556200085d565b82601f106200082c57805160ff19168380011785556200085d565b828001600101855582156200085d579182015b828111156200085c5782518255916020019190600101906200083f565b5b5090506200086c919062000870565b5090565b5b808211156200088b57600081600090555060010162000871565b5090565b60006200089e601f8362000921565b91507f45524332303a206d696e7420746f20746865207a65726f2061646472657373006000830152602082019050919050565b620008dc8162000bc3565b82525050565b60006020820190508181036000830152620008fd816200088f565b9050919050565b60006020820190506200091b6000830184620008d1565b92915050565b600082825260208201905092915050565b60006200093f8262000bc3565b91506200094c8362000bc3565b9250827fffffffffffffffffffffffffffffffffffffffffffffffffffffffffffffffff0382111562000984576200098362000c10565b5b828201905092915050565b6000808291508390505b6001851115620009e157808604811115620009b957620009b862000c10565b5b6001851615620009c95780820291505b8081029050620009d98562000c6e565b945062000999565b94509492505050565b6000620009f78262000bc3565b915062000a048362000bcd565b925062000a337fffffffffffffffffffffffffffffffffffffffffffffffffffffffffffffffff848462000a3b565b905092915050565b60008262000a4d576001905062000b20565b8162000a5d576000905062000b20565b816001811462000a76576002811462000a815762000ab7565b600191505062000b20565b60ff84111562000a965762000a9562000c10565b5b8360020a91508482111562000ab05762000aaf62000c10565b5b5062000b20565b5060208310610133831016604e8410600b841016171562000af15782820a90508381111562000aeb5762000aea62000c10565b5b62000b20565b62000b0084848460016200098f565b9250905081840481111562000b1a5762000b1962000c10565b5b81810290505b9392505050565b600062000b348262000bc3565b915062000b418362000bc3565b9250817fffffffffffffffffffffffffffffffffffffffffffffffffffffffffffffffff048311821515161562000b7d5762000b7c62000c10565b5b828202905092915050565b600062000b958262000bc3565b915062000ba28362000bc3565b92508282101562000bb85762000bb762000c10565b5b828203905092915050565b6000819050919050565b600060ff82169050919050565b6000600282049050600182168062000bf357607f821691505b6020821081141562000c0a5762000c0962000c3f565b5b50919050565b7f4e487b7100000000000000000000000000000000000000000000000000000000600052601160045260246000fd5b7f4e487b7100000000000000000000000000000000000000000000000000000000600052602260045260246000fd5b60008160011c9050919050565b6162838062000c8b6000396000f3fe60806040526004361061036a5760003560e01c806385f8db10116101c6578063ae47785b116100f7578063dd62ed3e11610095578063ee6848301161006f578063ee68483014610d11578063ef043ca714610d4e578063f43b877814610d8b578063f567918914610db45761036a565b8063dd62ed3e14610c7e578063e58378bb14610cbb578063e63ab1e914610ce65761036a565b8063cd8cd048116100d1578063cd8cd04814610bd8578063d0beb73a14610c01578063d547741f14610c2a578063d7b4be2414610c535761036a565b8063ae47785b14610b7c578063b687bcc014610b93578063b6b55f2514610bbc5761036a565b80639711715a11610164578063a457c2d71161013e578063a457c2d714610abb578063a694fc3a14610af8578063a9059cbb14610b14578063a94015c814610b515761036a565b80639711715a14610a3c578063981b24d014610a53578063a217fddf14610a905761036a565b80638c405503116101a05780638c4055031461096e5780638fecb1a2146109ab57806391d14854146109d457806395d89b4114610a115761036a565b806385f8db10146108ea57806388d21ff31461091557806389ec0257146109525761036a565b8063356cb555116102a05780634828ced91161023e5780637028e2cd116102185780637028e2cd1461083057806370a082311461085b57806379cc67901461089857806379d0e6fe146108c15761036a565b80634828ced9146107ac5780634ee2cd7e146107c85780635c975abb146108055761036a565b80633780b3ed1161027a5780633780b3ed146106f2578063395093511461071d57806342966c681461075a57806343398cd2146107835761036a565b8063356cb5551461065a57806336568abe14610683578063372c48e1146106ac5761036a565b80631b0c27da1161030d578063248a9ca3116102e7578063248a9ca3146105ad5780632e1a7d4d146105ea5780632f2ff15d14610606578063313ce5671461062f5761036a565b80631b0c27da146104f657806321e04c321461053357806323b872dd146105705761036a565b806306fdde031161034957806306fdde0314610426578063095ea7b31461045157806318160ddd1461048e57806319e6e158146104b95761036a565b8062f027201461036f57806301ffc9a7146103ac57806303d29a5b146103e9575b600080fd5b34801561037b57600080fd5b5061039660048036038101906103919190614d88565b610df1565b6040516103a39190615e0d565b60405180910390f35b3480156103b857600080fd5b506103d360048036038101906103ce9190614d5f565b610eb9565b6040516103e09190615a95565b60405180910390f35b3480156103f557600080fd5b50610410600480360381019061040b9190614d88565b610f33565b60405161041d9190615a95565b60405180910390f35b34801561043257600080fd5b5061043b610f3f565b6040516104489190615acb565b60405180910390f35b34801561045d57600080fd5b5061047860048036038101906104739190614c35565b610fd1565b6040516104859190615a95565b60405180910390f35b34801561049a57600080fd5b506104a3610fef565b6040516104b09190615e0d565b60405180910390f35b3480156104c557600080fd5b506104e060048036038101906104db9190614d88565b610ff9565b6040516104ed9190615e0d565b60405180910390f35b34801561050257600080fd5b5061051d60048036038101906105189190614d88565b611011565b60405161052a9190615a95565b60405180910390f35b34801561053f57600080fd5b5061055a60048036038101906105559190614b81565b611196565b6040516105679190615a95565b60405180910390f35b34801561057c57600080fd5b5061059760048036038101906105929190614be6565b611270565b6040516105a49190615a95565b60405180910390f35b3480156105b957600080fd5b506105d460048036038101906105cf9190614cfa565b611371565b6040516105e19190615ab0565b60405180910390f35b61060460048036038101906105ff9190614d88565b611391565b005b34801561061257600080fd5b5061062d60048036038101906106289190614d23565b61163d565b005b34801561063b57600080fd5b50610644611666565b6040516106519190615e51565b60405180910390f35b34801561066657600080fd5b50610681600480360381019061067c9190614db1565b61166f565b005b34801561068f57600080fd5b506106aa60048036038101906106a59190614d23565b6119b7565b005b3480156106b857600080fd5b506106d360048036038101906106ce9190614d88565b611a3a565b6040516106e99a999897969594939291906159f9565b60405180910390f35b3480156106fe57600080fd5b50610707611ac8565b6040516107149190615ab0565b60405180910390f35b34801561072957600080fd5b50610744600480360381019061073f9190614c35565b611aec565b6040516107519190615a95565b60405180910390f35b34801561076657600080fd5b50610781600480360381019061077c9190614d88565b611b98565b005b34801561078f57600080fd5b506107aa60048036038101906107a59190614d88565b611bac565b005b6107c660048036038101906107c19190614d88565b611ce1565b005b3480156107d457600080fd5b506107ef60048036038101906107ea9190614c35565b611e8a565b6040516107fc9190615e0d565b60405180910390f35b34801561081157600080fd5b5061081a611efa565b6040516108279190615a95565b60405180910390f35b34801561083c57600080fd5b50610845611f11565b6040516108529190615ab0565b60405180910390f35b34801561086757600080fd5b50610882600480360381019061087d9190614b81565b611f35565b60405161088f9190615e0d565b60405180910390f35b3480156108a457600080fd5b506108bf60048036038101906108ba9190614c35565b611f7d565b005b3480156108cd57600080fd5b506108e860048036038101906108e39190614ded565b612001565b005b3480156108f657600080fd5b506108ff61253b565b60405161090c9190615e0d565b60405180910390f35b34801561092157600080fd5b5061093c60048036038101906109379190614d88565b6125eb565b6040516109499190615a95565b60405180910390f35b61096c60048036038101906109679190614d88565b612606565b005b34801561097a57600080fd5b5061099560048036038101906109909190614c35565b6127af565b6040516109a29190615e0d565b60405180910390f35b3480156109b757600080fd5b506109d260048036038101906109cd9190614db1565b612846565b005b3480156109e057600080fd5b506109fb60048036038101906109f69190614d23565b612a17565b604051610a089190615a95565b60405180910390f35b348015610a1d57600080fd5b50610a26612a82565b604051610a339190615acb565b60405180910390f35b348015610a4857600080fd5b50610a51612b14565b005b348015610a5f57600080fd5b50610a7a6004803603810190610a759190614d88565b612baa565b604051610a879190615e0d565b60405180910390f35b348015610a9c57600080fd5b50610aa5612bdb565b604051610ab29190615ab0565b60405180910390f35b348015610ac757600080fd5b50610ae26004803603810190610add9190614c35565b612be2565b604051610aef9190615a95565b60405180910390f35b610b126004803603810190610b0d9190614d88565b612cd6565b005b348015610b2057600080fd5b50610b3b6004803603810190610b369190614c35565b612eb2565b604051610b489190615a95565b60405180910390f35b348015610b5d57600080fd5b50610b66612ed0565b604051610b739190615ab0565b60405180910390f35b348015610b8857600080fd5b50610b91612ef4565b005b348015610b9f57600080fd5b50610bba6004803603810190610bb59190614b81565b613090565b005b610bd66004803603810190610bd19190614d88565b613133565b005b348015610be457600080fd5b50610bff6004803603810190610bfa9190614b81565b61329b565b005b348015610c0d57600080fd5b50610c286004803603810190610c239190614d88565b613378565b005b348015610c3657600080fd5b50610c516004803603810190610c4c9190614d23565b613465565b005b348015610c5f57600080fd5b50610c6861348e565b604051610c7591906159b5565b60405180910390f35b348015610c8a57600080fd5b50610ca56004803603810190610ca09190614baa565b6134b4565b604051610cb29190615e0d565b60405180910390f35b348015610cc757600080fd5b50610cd061353b565b604051610cdd9190615ab0565b60405180910390f35b348015610cf257600080fd5b50610cfb61355f565b604051610d089190615ab0565b60405180910390f35b348015610d1d57600080fd5b50610d386004803603810190610d339190614d88565b613583565b604051610d459190615a95565b60405180910390f35b348015610d5a57600080fd5b50610d756004803603810190610d709190614c71565b6135bd565b604051610d829190615e0d565b60405180910390f35b348015610d9757600080fd5b50610db26004803603810190610dad9190614d88565b6137a6565b005b348015610dc057600080fd5b50610ddb6004803603810190610dd69190614b81565b61381d565b604051610de89190615e0d565b60405180910390f35b600080600e60008481526020019081526020016000205411610e1257600080fd5b610e1b826125eb565b610e5a576040517f08c379a0000000000000000000000000000000000000000000000000000000008152600401610e5190615c8d565b60405180910390fd5b6000610e98600e600085815260200190815260200160002054600d60008681526020019081526020016000206006015461390290919063ffffffff16565b9050610eae60648261391890919063ffffffff16565b905080915050919050565b60007f7965db0b000000000000000000000000000000000000000000000000000000007bffffffffffffffffffffffffffffffffffffffffffffffffffffffff1916827bffffffffffffffffffffffffffffffffffffffffffffffffffffffff19161480610f2c5750610f2b8261392e565b5b9050919050565b60008142109050919050565b606060038054610f4e90616090565b80601f0160208091040260200160405190810160405280929190818152602001828054610f7a90616090565b8015610fc75780601f10610f9c57610100808354040283529160200191610fc7565b820191906000526020600020905b815481529060010190602001808311610faa57829003601f168201915b5050505050905090565b6000610fe5610fde613998565b84846139a0565b6001905092915050565b6000600254905090565b600e6020528060005260406000206000915090505481565b600061101c826137a6565b6000151561102983610f33565b15151461103557600080fd5b61103e826125eb565b61104757600080fd5b60001515600d600084815260200190815260200160002060040160009054906101000a900460ff16151514156110fa57600d600083815260200190815260200160002060070154600d60008481526020019081526020016000206006015411156110b45760019050611191565b600d600083815260200190815260200160002060070154600d60008481526020019081526020016000206006015410156110f15760009050611191565b60009050611191565b60011515600d600084815260200190815260200160002060040160009054906101000a900460ff161515141561119057600d60008381526020019081526020016000206005015461114a83610df1565b106111585760019050611191565b600d60008381526020019081526020016000206005015461117883610df1565b10156111875760009050611191565b60009050611191565b5b919050565b600080600190505b6010548110156112655760011515600d600083815260200190815260200160002060090160009054906101000a900460ff161515148015611243575060011515600d6000838152602001908152602001600020600b0160008573ffffffffffffffffffffffffffffffffffffffff1673ffffffffffffffffffffffffffffffffffffffff16815260200190815260200160002060009054906101000a900460ff161515145b1561125257600191505061126b565b808061125d906160c2565b91505061119e565b50600090505b919050565b600061127d848484613b6b565b6000600160008673ffffffffffffffffffffffffffffffffffffffff1673ffffffffffffffffffffffffffffffffffffffff16815260200190815260200160002060006112c8613998565b73ffffffffffffffffffffffffffffffffffffffff1673ffffffffffffffffffffffffffffffffffffffff16815260200190815260200160002054905082811015611348576040517f08c379a000000000000000000000000000000000000000000000000000000000815260040161133f90615c2d565b60405180910390fd5b61136585611354613998565b85846113609190615f74565b6139a0565b60019150509392505050565b600060096000838152602001908152602001600020600101549050919050565b6113bb7fb9e206fa2af7ee1331b72ce58b6d938ac810ce9b5cdb65d35ab723fd67badf9e33612a17565b6113fa576040517f08c379a00000000000000000000000000000000000000000000000000000000081526004016113f190615c0d565b60405180910390fd5b600b60003373ffffffffffffffffffffffffffffffffffffffff1673ffffffffffffffffffffffffffffffffffffffff1681526020019081526020016000205481111561147c576040517f08c379a000000000000000000000000000000000000000000000000000000000815260040161147390615bad565b60405180910390fd5b600c546114d182600b60003373ffffffffffffffffffffffffffffffffffffffff1673ffffffffffffffffffffffffffffffffffffffff16815260200190815260200160002054613dea90919063ffffffff16565b1015611512576040517f08c379a000000000000000000000000000000000000000000000000000000000815260040161150990615d4d565b60405180910390fd5b6000151561151f33611196565b151514611561576040517f08c379a000000000000000000000000000000000000000000000000000000000815260040161155890615c4d565b60405180910390fd5b61156b3382612eb2565b506115be81600b60003373ffffffffffffffffffffffffffffffffffffffff1673ffffffffffffffffffffffffffffffffffffffff16815260200190815260200160002054613dea90919063ffffffff16565b600b60003373ffffffffffffffffffffffffffffffffffffffff1673ffffffffffffffffffffffffffffffffffffffff168152602001908152602001600020819055507f636cb222c0a14b941cff2b7b16a3920b7043e92dabbf4ebe5104f45b7c5ea23c33826040516116329291906159d0565b60405180910390a150565b61164682611371565b61165781611652613998565b613e00565b6116618383613e9d565b505050565b60006012905090565b8061169a7f72c3eec1760bf69946625c2d4fb8e44e2c806345041960b434674fb9ab3976cf82612a17565b6116a357600080fd5b600073ffffffffffffffffffffffffffffffffffffffff168273ffffffffffffffffffffffffffffffffffffffff1614156116dd57600080fd5b60006117a46001600c546116f19190615f74565b611796600d6000888152602001908152602001600020600a0160008773ffffffffffffffffffffffffffffffffffffffff1673ffffffffffffffffffffffffffffffffffffffff16815260200190815260200160002054600f60008873ffffffffffffffffffffffffffffffffffffffff1673ffffffffffffffffffffffffffffffffffffffff16815260200190815260200160002054613dea90919063ffffffff16565b613dea90919063ffffffff16565b9050600081116117e9576040517f08c379a00000000000000000000000000000000000000000000000000000000081526004016117e090615bed565b60405180910390fd5b61184f81600d6000878152602001908152602001600020600a0160008673ffffffffffffffffffffffffffffffffffffffff1673ffffffffffffffffffffffffffffffffffffffff16815260200190815260200160002054613f7e90919063ffffffff16565b600d6000868152602001908152602001600020600a0160008573ffffffffffffffffffffffffffffffffffffffff1673ffffffffffffffffffffffffffffffffffffffff1681526020019081526020016000208190555061190c81600d6000878152602001908152602001600020600c0160008673ffffffffffffffffffffffffffffffffffffffff1673ffffffffffffffffffffffffffffffffffffffff16815260200190815260200160002054613f7e90919063ffffffff16565b600d6000868152602001908152602001600020600c0160008573ffffffffffffffffffffffffffffffffffffffff1673ffffffffffffffffffffffffffffffffffffffff168152602001908152602001600020819055508273ffffffffffffffffffffffffffffffffffffffff167f11121ac798069fb07833ce3bd6cbfb51fec926c61a652138d3241566fe724079826040516119a99190615e0d565b60405180910390a250505050565b6119bf613998565b73ffffffffffffffffffffffffffffffffffffffff168173ffffffffffffffffffffffffffffffffffffffff1614611a2c576040517f08c379a0000000000000000000000000000000000000000000000000000000008152600401611a2390615dcd565b60405180910390fd5b611a368282613f94565b5050565b600d6020528060005260406000206000915090508060000160009054906101000a900473ffffffffffffffffffffffffffffffffffffffff16908060010154908060020154908060030154908060040160009054906101000a900460ff16908060050154908060060154908060070154908060080154908060090160009054906101000a900460ff1690508a565b7fb9e206fa2af7ee1331b72ce58b6d938ac810ce9b5cdb65d35ab723fd67badf9e81565b6000611b8e611af9613998565b848460016000611b07613998565b73ffffffffffffffffffffffffffffffffffffffff1673ffffffffffffffffffffffffffffffffffffffff16815260200190815260200160002060008873ffffffffffffffffffffffffffffffffffffffff1673ffffffffffffffffffffffffffffffffffffffff16815260200190815260200160002054611b899190615e93565b6139a0565b6001905092915050565b611ba9611ba3613998565b82614076565b50565b611bd67fb19546dff01e856fb3f010c267a7b1c60363cf8a4664e21cc89c26224620214e33612a17565b80611c2e5750601160009054906101000a900473ffffffffffffffffffffffffffffffffffffffff1673ffffffffffffffffffffffffffffffffffffffff163373ffffffffffffffffffffffffffffffffffffffff16145b611c3757600080fd5b600c54811415611c4657600080fd5b601160009054906101000a900473ffffffffffffffffffffffffffffffffffffffff1673ffffffffffffffffffffffffffffffffffffffff163373ffffffffffffffffffffffffffffffffffffffff1614611ca057600080fd5b80600c819055507fa780cb8437215d835d6296c681503f759ac98b8f069b8bdc2ec57a92054ff76981604051611cd69190615e0d565b60405180910390a150565b611d0b7fb19546dff01e856fb3f010c267a7b1c60363cf8a4664e21cc89c26224620214e33612a17565b80611d635750601160009054906101000a900473ffffffffffffffffffffffffffffffffffffffff1673ffffffffffffffffffffffffffffffffffffffff163373ffffffffffffffffffffffffffffffffffffffff16145b611d6c57600080fd5b611d967fb19546dff01e856fb3f010c267a7b1c60363cf8a4664e21cc89c26224620214e33612a17565b611d9f57600080fd5b6001600d60008381526020019081526020016000206008015414611dc257600080fd5b60001515600d600083815260200190815260200160002060090160009054906101000a900460ff16151514611df657600080fd5b611e18600033600d60008581526020019081526020016000206003015461424a565b611e3833600d60008481526020019081526020016000206003015461425a565b7f815e966a30d910f09bbe731021156b873eaca737ddd8f638c08f40c47d4c55da600d60008381526020019081526020016000206003015482604051611e7f929190615e28565b60405180910390a150565b6000806000611ed784600560008873ffffffffffffffffffffffffffffffffffffffff1673ffffffffffffffffffffffffffffffffffffffff1681526020019081526020016000206143ae565b9150915081611eee57611ee985611f35565b611ef0565b805b9250505092915050565b6000600a60009054906101000a900460ff16905090565b7f5fdbd35e8da83ee755d5e62a539e5ed7f47126abede0b8b10f9ea43dc6eed07f81565b60008060008373ffffffffffffffffffffffffffffffffffffffff1673ffffffffffffffffffffffffffffffffffffffff168152602001908152602001600020549050919050565b6000611f9083611f8b613998565b6134b4565b905081811015611fd5576040517f08c379a0000000000000000000000000000000000000000000000000000000008152600401611fcc90615c6d565b60405180910390fd5b611ff283611fe1613998565b8484611fed9190615f74565b6139a0565b611ffc8383614076565b505050565b8061202c7f72c3eec1760bf69946625c2d4fb8e44e2c806345041960b434674fb9ab3976cf82612a17565b61203557600080fd5b600073ffffffffffffffffffffffffffffffffffffffff168273ffffffffffffffffffffffffffffffffffffffff16141561206f57600080fd5b6001600d600086815260200190815260200160002060090160006101000a81548160ff02191690831515021790556120a657600080fd5b6120af84610f33565b6120b857600080fd5b6000600d6000868152602001908152602001600020600c0160008473ffffffffffffffffffffffffffffffffffffffff1673ffffffffffffffffffffffffffffffffffffffff168152602001908152602001600020541161214e576040517f08c379a000000000000000000000000000000000000000000000000000000000815260040161214590615d6d565b60405180910390fd5b600d6000858152602001908152602001600020600c0160008373ffffffffffffffffffffffffffffffffffffffff1673ffffffffffffffffffffffffffffffffffffffff168152602001908152602001600020548511156121ae57600080fd5b6000600d6000868152602001908152602001600020600d0160008473ffffffffffffffffffffffffffffffffffffffff1673ffffffffffffffffffffffffffffffffffffffff168152602001908152602001600020541480612262575082600d6000868152602001908152602001600020600d0160008473ffffffffffffffffffffffffffffffffffffffff1673ffffffffffffffffffffffffffffffffffffffff16815260200190815260200160002054145b61226b57600080fd5b600183148061227a5750600283145b61228357600080fd5b60018314156122d5576122b66001600d600087815260200190815260200160002060060154613f7e90919063ffffffff16565b600d600086815260200190815260200160002060060181905550612324565b6002831415612323576123086001600d600087815260200190815260200160002060070154613f7e90919063ffffffff16565b600d6000868152602001908152602001600020600701819055505b5b82600d6000868152602001908152602001600020600d0160008473ffffffffffffffffffffffffffffffffffffffff1673ffffffffffffffffffffffffffffffffffffffff168152602001908152602001600020819055506123e285600d6000878152602001908152602001600020600c0160008573ffffffffffffffffffffffffffffffffffffffff1673ffffffffffffffffffffffffffffffffffffffff16815260200190815260200160002054613dea90919063ffffffff16565b600d6000868152602001908152602001600020600c0160008473ffffffffffffffffffffffffffffffffffffffff1673ffffffffffffffffffffffffffffffffffffffff168152602001908152602001600020819055506124606001600e600087815260200190815260200160002054613f7e90919063ffffffff16565b600e6000868152602001908152602001600020819055506001600d6000868152602001908152602001600020600b0160008473ffffffffffffffffffffffffffffffffffffffff1673ffffffffffffffffffffffffffffffffffffffff16815260200190815260200160002060006101000a81548160ff0219169083151502179055508173ffffffffffffffffffffffffffffffffffffffff16847f5996e6b79a799eac35fb8f87a5ec15485d68232f99e6a9a13118feb7b77adb80878660405161252c929190615e28565b60405180910390a35050505050565b60006125677fb9e206fa2af7ee1331b72ce58b6d938ac810ce9b5cdb65d35ab723fd67badf9e33612a17565b6125a6576040517f08c379a000000000000000000000000000000000000000000000000000000000815260040161259d90615c0d565b60405180910390fd5b600b60003373ffffffffffffffffffffffffffffffffffffffff1673ffffffffffffffffffffffffffffffffffffffff16815260200190815260200160002054905090565b60008082141580156125ff57506010548211155b9050919050565b6126307fb19546dff01e856fb3f010c267a7b1c60363cf8a4664e21cc89c26224620214e33612a17565b806126885750601160009054906101000a900473ffffffffffffffffffffffffffffffffffffffff1673ffffffffffffffffffffffffffffffffffffffff163373ffffffffffffffffffffffffffffffffffffffff16145b61269157600080fd5b6126bb7fb19546dff01e856fb3f010c267a7b1c60363cf8a4664e21cc89c26224620214e33612a17565b6126c457600080fd5b6002600d600083815260200190815260200160002060080154146126e757600080fd5b60001515600d600083815260200190815260200160002060090160009054906101000a900460ff1615151461271b57600080fd5b61273d336000600d60008581526020019081526020016000206003015461424a565b61275d33600d600084815260200190815260200160002060030154611f7d565b7f815e966a30d910f09bbe731021156b873eaca737ddd8f638c08f40c47d4c55da600d600083815260200190815260200160002060030154826040516127a4929190615e28565b60405180910390a150565b60008073ffffffffffffffffffffffffffffffffffffffff168373ffffffffffffffffffffffffffffffffffffffff1614156127ea57600080fd5b600d6000838152602001908152602001600020600c0160008473ffffffffffffffffffffffffffffffffffffffff1673ffffffffffffffffffffffffffffffffffffffff16815260200190815260200160002054905092915050565b6128707fb19546dff01e856fb3f010c267a7b1c60363cf8a4664e21cc89c26224620214e33612a17565b806128c85750601160009054906101000a900473ffffffffffffffffffffffffffffffffffffffff1673ffffffffffffffffffffffffffffffffffffffff163373ffffffffffffffffffffffffffffffffffffffff16145b6128d157600080fd5b6128fb7fb19546dff01e856fb3f010c267a7b1c60363cf8a4664e21cc89c26224620214e33612a17565b61290457600080fd5b6003600d6000848152602001908152602001600020600801541461292757600080fd5b60001515600d600084815260200190815260200160002060090160009054906101000a900460ff1615151461295b57600080fd5b61297d336000600d60008681526020019081526020016000206003015461424a565b61299c600d600084815260200190815260200160002060030154611b98565b6129c46129a7613998565b82600d600086815260200190815260200160002060030154613b6b565b7f815e966a30d910f09bbe731021156b873eaca737ddd8f638c08f40c47d4c55da600d60008481526020019081526020016000206003015483604051612a0b929190615e28565b60405180910390a15050565b60006009600084815260200190815260200160002060000160008373ffffffffffffffffffffffffffffffffffffffff1673ffffffffffffffffffffffffffffffffffffffff16815260200190815260200160002060009054906101000a900460ff16905092915050565b606060048054612a9190616090565b80601f0160208091040260200160405190810160405280929190818152602001828054612abd90616090565b8015612b0a5780601f10612adf57610100808354040283529160200191612b0a565b820191906000526020600020905b815481529060010190602001808311612aed57829003601f168201915b5050505050905090565b612b3e7fb19546dff01e856fb3f010c267a7b1c60363cf8a4664e21cc89c26224620214e33612a17565b80612b965750601160009054906101000a900473ffffffffffffffffffffffffffffffffffffffff1673ffffffffffffffffffffffffffffffffffffffff163373ffffffffffffffffffffffffffffffffffffffff16145b612b9f57600080fd5b612ba76144cc565b50565b6000806000612bba8460066143ae565b9150915081612bd057612bcb610fef565b612bd2565b805b92505050919050565b6000801b81565b60008060016000612bf1613998565b73ffffffffffffffffffffffffffffffffffffffff1673ffffffffffffffffffffffffffffffffffffffff16815260200190815260200160002060008573ffffffffffffffffffffffffffffffffffffffff1673ffffffffffffffffffffffffffffffffffffffff16815260200190815260200160002054905082811015612cae576040517f08c379a0000000000000000000000000000000000000000000000000000000008152600401612ca590615dad565b60405180910390fd5b612ccb612cb9613998565b858584612cc69190615f74565b6139a0565b600191505092915050565b600c54811015612d1b576040517f08c379a0000000000000000000000000000000000000000000000000000000008152600401612d1290615bcd565b60405180910390fd5b60001515612d497fb9e206fa2af7ee1331b72ce58b6d938ac810ce9b5cdb65d35ab723fd67badf9e33612a17565b151514612d8b576040517f08c379a0000000000000000000000000000000000000000000000000000000008152600401612d8290615d8d565b60405180910390fd5b612db833601160009054906101000a900473ffffffffffffffffffffffffffffffffffffffff1683611270565b50612de37fb9e206fa2af7ee1331b72ce58b6d938ac810ce9b5cdb65d35ab723fd67badf9e3361163d565b612e3581600b60003373ffffffffffffffffffffffffffffffffffffffff1673ffffffffffffffffffffffffffffffffffffffff16815260200190815260200160002054613f7e90919063ffffffff16565b600b60003373ffffffffffffffffffffffffffffffffffffffff1673ffffffffffffffffffffffffffffffffffffffff168152602001908152602001600020819055507faa9b7cbce69f378b88683439602b2857dc079ec95e5996ecd5e84df0673de4d733604051612ea791906159b5565b60405180910390a150565b6000612ec6612ebf613998565b8484613b6b565b6001905092915050565b7f72c3eec1760bf69946625c2d4fb8e44e2c806345041960b434674fb9ab3976cf81565b612f1e7fb9e206fa2af7ee1331b72ce58b6d938ac810ce9b5cdb65d35ab723fd67badf9e33612a17565b612f5d576040517f08c379a0000000000000000000000000000000000000000000000000000000008152600401612f5490615c0d565b60405180910390fd5b612f877fb9e206fa2af7ee1331b72ce58b6d938ac810ce9b5cdb65d35ab723fd67badf9e33613465565b612fd033600b60003373ffffffffffffffffffffffffffffffffffffffff1673ffffffffffffffffffffffffffffffffffffffff16815260200190815260200160002054612eb2565b506000600b60003373ffffffffffffffffffffffffffffffffffffffff1673ffffffffffffffffffffffffffffffffffffffff168152602001908152602001600020819055507fcb71ce4aef17d5694e262b4bedec3b5f7ea68f25621d775f80bc72e78d27692d33600b60003373ffffffffffffffffffffffffffffffffffffffff1673ffffffffffffffffffffffffffffffffffffffff168152602001908152602001600020546040516130869291906159d0565b60405180910390a1565b6130ba7fb9e206fa2af7ee1331b72ce58b6d938ac810ce9b5cdb65d35ab723fd67badf9e82612a17565b6130c357600080fd5b6130ed7f72c3eec1760bf69946625c2d4fb8e44e2c806345041960b434674fb9ab3976cf8261163d565b8073ffffffffffffffffffffffffffffffffffffffff167f3025407ee9b066f6cd97886b0c47bda6b6ebbb42d2c7574284f5814cfd3a504a60405160405180910390a250565b61315d7fb9e206fa2af7ee1331b72ce58b6d938ac810ce9b5cdb65d35ab723fd67badf9e33612a17565b61319c576040517f08c379a000000000000000000000000000000000000000000000000000000000815260040161319390615c0d565b60405180910390fd5b6131c933601160009054906101000a900473ffffffffffffffffffffffffffffffffffffffff1683611270565b5061321c81600b60003373ffffffffffffffffffffffffffffffffffffffff1673ffffffffffffffffffffffffffffffffffffffff16815260200190815260200160002054613f7e90919063ffffffff16565b600b60003373ffffffffffffffffffffffffffffffffffffffff1673ffffffffffffffffffffffffffffffffffffffff168152602001908152602001600020819055507f91dd5382838389dd317d2f661bec79d34c5b6abd4d2d475f84079da548c030fc33826040516132909291906159d0565b60405180910390a150565b6132c57f72c3eec1760bf69946625c2d4fb8e44e2c806345041960b434674fb9ab3976cf82612a17565b6132ce57600080fd5b600073ffffffffffffffffffffffffffffffffffffffff168173ffffffffffffffffffffffffffffffffffffffff16141561330857600080fd5b6133327f72c3eec1760bf69946625c2d4fb8e44e2c806345041960b434674fb9ab3976cf82613465565b8073ffffffffffffffffffffffffffffffffffffffff167fc8f0ca04e3a4bee64fa8f12ab2c36bf665502f928567c2adfbbcc4ad796ed26960405160405180910390a250565b6133a27fb19546dff01e856fb3f010c267a7b1c60363cf8a4664e21cc89c26224620214e33612a17565b806133fa5750601160009054906101000a900473ffffffffffffffffffffffffffffffffffffffff1673ffffffffffffffffffffffffffffffffffffffff163373ffffffffffffffffffffffffffffffffffffffff16145b61340357600080fd5b6004600d6000838152602001908152602001600020600801541461342657600080fd5b60001515600d600083815260200190815260200160002060090160009054906101000a900460ff1615151461345a57600080fd5b613462612b14565b50565b61346e82611371565b61347f8161347a613998565b613e00565b6134898383613f94565b505050565b601160009054906101000a900473ffffffffffffffffffffffffffffffffffffffff1681565b6000600160008473ffffffffffffffffffffffffffffffffffffffff1673ffffffffffffffffffffffffffffffffffffffff16815260200190815260200160002060008373ffffffffffffffffffffffffffffffffffffffff1673ffffffffffffffffffffffffffffffffffffffff16815260200190815260200160002054905092915050565b7fb19546dff01e856fb3f010c267a7b1c60363cf8a4664e21cc89c26224620214e81565b7f65d7a28e3265b37a6474929f336521b332c1681b933f6cb9f3376673440d862a81565b600061358e826125eb565b61359757600080fd5b6135b6600d600084815260200190815260200160002060020154610f33565b9050919050565b60008015158715151480156135d25750600086145b806135ed5750600115158715151480156135ec5750600086115b5b6135f657600080fd5b60008411613639576040517f08c379a000000000000000000000000000000000000000000000000000000000815260040161363090615ced565b60405180910390fd5b600061364e8442613f7e90919063ffffffff16565b90506136666001601054613f7e90919063ffffffff16565b6010819055506000600d600060105481526020019081526020016000209050838160000160006101000a81548173ffffffffffffffffffffffffffffffffffffffff021916908373ffffffffffffffffffffffffffffffffffffffff160217905550428160010181905550868160080181905550888160040160006101000a81548160ff021916908315150217905550878160050181905550858160030181905550818160020181905550600081600601819055506000816007018190555060018160090160006101000a81548160ff0219169083151502179055503373ffffffffffffffffffffffffffffffffffffffff166010547f75c3234b322da18df8c948bde9b9983e5a43633c4e2647d4d9f4f15c0706f05d888560405161378d929190615e28565b60405180910390a3601054925050509695505050505050565b6137d07f65d7a28e3265b37a6474929f336521b332c1681b933f6cb9f3376673440d862a33612a17565b6137d957600080fd5b6137e2816125eb565b6137eb57600080fd5b6000600d600083815260200190815260200160002060090160006101000a81548160ff02191690831515021790555050565b600f6020528060005260406000206000915090505481565b6138408383836138ef565b600073ffffffffffffffffffffffffffffffffffffffff168373ffffffffffffffffffffffffffffffffffffffff16141561388b5761387e82614524565b613886614577565b6138ea565b600073ffffffffffffffffffffffffffffffffffffffff168273ffffffffffffffffffffffffffffffffffffffff1614156138d6576138c983614524565b6138d1614577565b6138e9565b6138df83614524565b6138e882614524565b5b5b505050565b505050565b600081600001549050919050565b600081836139109190615ee9565b905092915050565b600081836139269190615f1a565b905092915050565b60007f01ffc9a7000000000000000000000000000000000000000000000000000000007bffffffffffffffffffffffffffffffffffffffffffffffffffffffff1916827bffffffffffffffffffffffffffffffffffffffffffffffffffffffff1916149050919050565b600033905090565b600073ffffffffffffffffffffffffffffffffffffffff168373ffffffffffffffffffffffffffffffffffffffff161415613a10576040517f08c379a0000000000000000000000000000000000000000000000000000000008152600401613a0790615d0d565b60405180910390fd5b600073ffffffffffffffffffffffffffffffffffffffff168273ffffffffffffffffffffffffffffffffffffffff161415613a80576040517f08c379a0000000000000000000000000000000000000000000000000000000008152600401613a7790615b6d565b60405180910390fd5b80600160008573ffffffffffffffffffffffffffffffffffffffff1673ffffffffffffffffffffffffffffffffffffffff16815260200190815260200160002060008473ffffffffffffffffffffffffffffffffffffffff1673ffffffffffffffffffffffffffffffffffffffff168152602001908152602001600020819055508173ffffffffffffffffffffffffffffffffffffffff168373ffffffffffffffffffffffffffffffffffffffff167f8c5be1e5ebec7d5bd14f71427d1e84f3dd0314c0f7b2291e5b200ac8c7c3b92583604051613b5e9190615e0d565b60405180910390a3505050565b600073ffffffffffffffffffffffffffffffffffffffff168373ffffffffffffffffffffffffffffffffffffffff161415613bdb576040517f08c379a0000000000000000000000000000000000000000000000000000000008152600401613bd290615ccd565b60405180910390fd5b600073ffffffffffffffffffffffffffffffffffffffff168273ffffffffffffffffffffffffffffffffffffffff161415613c4b576040517f08c379a0000000000000000000000000000000000000000000000000000000008152600401613c4290615b2d565b60405180910390fd5b613c5683838361424a565b60008060008573ffffffffffffffffffffffffffffffffffffffff1673ffffffffffffffffffffffffffffffffffffffff16815260200190815260200160002054905081811015613cdc576040517f08c379a0000000000000000000000000000000000000000000000000000000008152600401613cd390615b8d565b60405180910390fd5b8181613ce89190615f74565b6000808673ffffffffffffffffffffffffffffffffffffffff1673ffffffffffffffffffffffffffffffffffffffff16815260200190815260200160002081905550816000808573ffffffffffffffffffffffffffffffffffffffff1673ffffffffffffffffffffffffffffffffffffffff1681526020019081526020016000206000828254613d789190615e93565b925050819055508273ffffffffffffffffffffffffffffffffffffffff168473ffffffffffffffffffffffffffffffffffffffff167fddf252ad1be2c89b69c2b068fc378daa952ba7f163c4a11628f55a4df523b3ef84604051613ddc9190615e0d565b60405180910390a350505050565b60008183613df89190615f74565b905092915050565b613e0a8282612a17565b613e9957613e2f8173ffffffffffffffffffffffffffffffffffffffff16601461458b565b613e3d8360001c602061458b565b604051602001613e4e92919061597b565b6040516020818303038152906040526040517f08c379a0000000000000000000000000000000000000000000000000000000008152600401613e909190615acb565b60405180910390fd5b5050565b613ea78282612a17565b613f7a5760016009600084815260200190815260200160002060000160008373ffffffffffffffffffffffffffffffffffffffff1673ffffffffffffffffffffffffffffffffffffffff16815260200190815260200160002060006101000a81548160ff021916908315150217905550613f1f613998565b73ffffffffffffffffffffffffffffffffffffffff168173ffffffffffffffffffffffffffffffffffffffff16837f2f8788117e7eff1d82e926ec794901d17c78024a50270940304540a733656f0d60405160405180910390a45b5050565b60008183613f8c9190615e93565b905092915050565b613f9e8282612a17565b156140725760006009600084815260200190815260200160002060000160008373ffffffffffffffffffffffffffffffffffffffff1673ffffffffffffffffffffffffffffffffffffffff16815260200190815260200160002060006101000a81548160ff021916908315150217905550614017613998565b73ffffffffffffffffffffffffffffffffffffffff168173ffffffffffffffffffffffffffffffffffffffff16837ff6391f5c32d9c69d2a47ea670b442974b53935d1edc7fd64eb21e047a839171b60405160405180910390a45b5050565b600073ffffffffffffffffffffffffffffffffffffffff168273ffffffffffffffffffffffffffffffffffffffff1614156140e6576040517f08c379a00000000000000000000000000000000000000000000000000000000081526004016140dd90615cad565b60405180910390fd5b6140f28260008361424a565b60008060008473ffffffffffffffffffffffffffffffffffffffff1673ffffffffffffffffffffffffffffffffffffffff16815260200190815260200160002054905081811015614178576040517f08c379a000000000000000000000000000000000000000000000000000000000815260040161416f90615b4d565b60405180910390fd5b81816141849190615f74565b6000808573ffffffffffffffffffffffffffffffffffffffff1673ffffffffffffffffffffffffffffffffffffffff1681526020019081526020016000208190555081600260008282546141d89190615f74565b92505081905550600073ffffffffffffffffffffffffffffffffffffffff168373ffffffffffffffffffffffffffffffffffffffff167fddf252ad1be2c89b69c2b068fc378daa952ba7f163c4a11628f55a4df523b3ef8460405161423d9190615e0d565b60405180910390a3505050565b614255838383613835565b505050565b600073ffffffffffffffffffffffffffffffffffffffff168273ffffffffffffffffffffffffffffffffffffffff1614156142ca576040517f08c379a00000000000000000000000000000000000000000000000000000000081526004016142c190615ded565b60405180910390fd5b6142d66000838361424a565b80600260008282546142e89190615e93565b92505081905550806000808473ffffffffffffffffffffffffffffffffffffffff1673ffffffffffffffffffffffffffffffffffffffff168152602001908152602001600020600082825461433d9190615e93565b925050819055508173ffffffffffffffffffffffffffffffffffffffff16600073ffffffffffffffffffffffffffffffffffffffff167fddf252ad1be2c89b69c2b068fc378daa952ba7f163c4a11628f55a4df523b3ef836040516143a29190615e0d565b60405180910390a35050565b600080600084116143f4576040517f08c379a00000000000000000000000000000000000000000000000000000000081526004016143eb90615d2d565b60405180910390fd5b6143fe60086138f4565b841115614440576040517f08c379a000000000000000000000000000000000000000000000000000000000815260040161443790615aed565b60405180910390fd5b6000614458858560000161488590919063ffffffff16565b905083600001805490508114156144765760008092509250506144c5565b60018460010182815481106144b4577f4e487b7100000000000000000000000000000000000000000000000000000000600052603260045260246000fd5b906000526020600020015492509250505b9250929050565b60006144d860086149ab565b60006144e460086138f4565b90507f8030e83b04d87bef53480e26263266d6ca66863aa8506aca6f2559d18aa1cb67816040516145159190615e0d565b60405180910390a18091505090565b614574600560008373ffffffffffffffffffffffffffffffffffffffff1673ffffffffffffffffffffffffffffffffffffffff16815260200190815260200160002061456f83611f35565b6149c1565b50565b6145896006614584610fef565b6149c1565b565b60606000600283600261459e9190615f1a565b6145a89190615e93565b67ffffffffffffffff8111156145e7577f4e487b7100000000000000000000000000000000000000000000000000000000600052604160045260246000fd5b6040519080825280601f01601f1916602001820160405280156146195781602001600182028036833780820191505090505b5090507f300000000000000000000000000000000000000000000000000000000000000081600081518110614677577f4e487b7100000000000000000000000000000000000000000000000000000000600052603260045260246000fd5b60200101907effffffffffffffffffffffffffffffffffffffffffffffffffffffffffffff1916908160001a9053507f780000000000000000000000000000000000000000000000000000000000000081600181518110614701577f4e487b7100000000000000000000000000000000000000000000000000000000600052603260045260246000fd5b60200101907effffffffffffffffffffffffffffffffffffffffffffffffffffffffffffff1916908160001a905350600060018460026147419190615f1a565b61474b9190615e93565b90505b6001811115614837577f3031323334353637383961626364656600000000000000000000000000000000600f8616601081106147b3577f4e487b7100000000000000000000000000000000000000000000000000000000600052603260045260246000fd5b1a60f81b8282815181106147f0577f4e487b7100000000000000000000000000000000000000000000000000000000600052603260045260246000fd5b60200101907effffffffffffffffffffffffffffffffffffffffffffffffffffffffffffff1916908160001a905350600485901c94508061483090616066565b905061474e565b506000841461487b576040517f08c379a000000000000000000000000000000000000000000000000000000000815260040161487290615b0d565b60405180910390fd5b8091505092915050565b6000808380549050141561489c57600090506149a5565b600080848054905090505b808210156149265760006148bb8383614a3e565b9050848682815481106148f7577f4e487b7100000000000000000000000000000000000000000000000000000000600052603260045260246000fd5b9060005260206000200154111561491057809150614920565b60018161491d9190615e93565b92505b506148a7565b600082118015614984575083856001846149409190615f74565b81548110614977577f4e487b7100000000000000000000000000000000000000000000000000000000600052603260045260246000fd5b9060005260206000200154145b1561499f576001826149969190615f74565b925050506149a5565b81925050505b92915050565b6001816000016000828254019250508190555050565b60006149cd60086138f4565b9050806149dc84600001614aa5565b1015614a395782600001819080600181540180825580915050600190039060005260206000200160009091909190915055826001018290806001815401808255809150506001900390600052602060002001600090919091909150555b505050565b600060028083614a4e919061610b565b600285614a5b919061610b565b614a659190615e93565b614a6f9190615ee9565b600283614a7c9190615ee9565b600285614a899190615ee9565b614a939190615e93565b614a9d9190615e93565b905092915050565b60008082805490501415614abc5760009050614b13565b8160018380549050614ace9190615f74565b81548110614b05577f4e487b7100000000000000000000000000000000000000000000000000000000600052603260045260246000fd5b906000526020600020015490505b919050565b600081359050614b27816161da565b92915050565b600081359050614b3c816161f1565b92915050565b600081359050614b5181616208565b92915050565b600081359050614b668161621f565b92915050565b600081359050614b7b81616236565b92915050565b600060208284031215614b9357600080fd5b6000614ba184828501614b18565b91505092915050565b60008060408385031215614bbd57600080fd5b6000614bcb85828601614b18565b9250506020614bdc85828601614b18565b9150509250929050565b600080600060608486031215614bfb57600080fd5b6000614c0986828701614b18565b9350506020614c1a86828701614b18565b9250506040614c2b86828701614b6c565b9150509250925092565b60008060408385031215614c4857600080fd5b6000614c5685828601614b18565b9250506020614c6785828601614b6c565b9150509250929050565b60008060008060008060c08789031215614c8a57600080fd5b6000614c9889828a01614b2d565b9650506020614ca989828a01614b6c565b9550506040614cba89828a01614b6c565b9450506060614ccb89828a01614b6c565b9350506080614cdc89828a01614b6c565b92505060a0614ced89828a01614b18565b9150509295509295509295565b600060208284031215614d0c57600080fd5b6000614d1a84828501614b42565b91505092915050565b60008060408385031215614d3657600080fd5b6000614d4485828601614b42565b9250506020614d5585828601614b18565b9150509250929050565b600060208284031215614d7157600080fd5b6000614d7f84828501614b57565b91505092915050565b600060208284031215614d9a57600080fd5b6000614da884828501614b6c565b91505092915050565b60008060408385031215614dc457600080fd5b6000614dd285828601614b6c565b9250506020614de385828601614b18565b9150509250929050565b60008060008060808587031215614e0357600080fd5b6000614e1187828801614b6c565b9450506020614e2287828801614b6c565b9350506040614e3387828801614b6c565b9250506060614e4487828801614b18565b91505092959194509250565b614e5981615fa8565b82525050565b614e6881615fba565b82525050565b614e7781615fc6565b82525050565b6000614e8882615e6c565b614e928185615e77565b9350614ea2818560208601616033565b614eab816161c9565b840191505092915050565b6000614ec182615e6c565b614ecb8185615e88565b9350614edb818560208601616033565b80840191505092915050565b6000614ef4601d83615e77565b91507f4552433230536e617073686f743a206e6f6e6578697374656e742069640000006000830152602082019050919050565b6000614f34602083615e77565b91507f537472696e67733a20686578206c656e67746820696e73756666696369656e746000830152602082019050919050565b6000614f74602383615e77565b91507f45524332303a207472616e7366657220746f20746865207a65726f206164647260008301527f65737300000000000000000000000000000000000000000000000000000000006020830152604082019050919050565b6000614fda602283615e77565b91507f45524332303a206275726e20616d6f756e7420657863656564732062616c616e60008301527f63650000000000000000000000000000000000000000000000000000000000006020830152604082019050919050565b6000615040602283615e77565b91507f45524332303a20617070726f766520746f20746865207a65726f20616464726560008301527f73730000000000000000000000000000000000000000000000000000000000006020830152604082019050919050565b60006150a6602683615e77565b91507f45524332303a207472616e7366657220616d6f756e742065786365656473206260008301527f616c616e636500000000000000000000000000000000000000000000000000006020830152604082019050919050565b600061510c602383615e77565b91507f4d75737420776974686472617720616d6f756e742077697468696e2062616c6160008301527f6e636500000000000000000000000000000000000000000000000000000000006020830152604082019050919050565b6000615172604783615e77565b91507f4d75737420686176652061207374616b65642062616c616e6365206f66206d6f60008301527f7265207468616e206d696e5374616b65204d414920746f206265636f6d65206160208301527f207374616b6572000000000000000000000000000000000000000000000000006040830152606082019050919050565b60006151fe602783615e77565b91507f4164647265737320686173206e6f20766f74657320617661696c61626c65207460008301527f6f20636c61696d000000000000000000000000000000000000000000000000006020830152604082019050919050565b6000615264602c83615e77565b91507f4d7573742068617665207374616b657220726f6c6520746f20706572666f726d60008301527f207468697320616374696f6e00000000000000000000000000000000000000006020830152604082019050919050565b60006152ca602883615e77565b91507f45524332303a207472616e7366657220616d6f756e742065786365656473206160008301527f6c6c6f77616e63650000000000000000000000000000000000000000000000006020830152604082019050919050565b6000615330605083615e77565b91507f596f75206d757374206e6f742062652070617274696369706174696e6720696e60008301527f20616e7920766f746520696e206f7264657220746f207769746864726177206160208301527f6e79207374616b656420746f6b656e73000000000000000000000000000000006040830152606082019050919050565b60006153bc602483615e77565b91507f45524332303a206275726e20616d6f756e74206578636565647320616c6c6f7760008301527f616e6365000000000000000000000000000000000000000000000000000000006020830152604082019050919050565b6000615422601383615e77565b91507f506f6c6c20646f6573206e6f74206578697374000000000000000000000000006000830152602082019050919050565b6000615462602183615e77565b91507f45524332303a206275726e2066726f6d20746865207a65726f2061646472657360008301527f73000000000000000000000000000000000000000000000000000000000000006020830152604082019050919050565b60006154c8602583615e77565b91507f45524332303a207472616e736665722066726f6d20746865207a65726f20616460008301527f64726573730000000000000000000000000000000000000000000000000000006020830152604082019050919050565b600061552e603f83615e77565b91507f54686520616d6f756e74206f6620746f6b656e7320746f206265206275726e6560008301527f642f206d696e746564206d757374206265206c6172676572207468616e2030006020830152604082019050919050565b6000615594602483615e77565b91507f45524332303a20617070726f76652066726f6d20746865207a65726f2061646460008301527f72657373000000000000000000000000000000000000000000000000000000006020830152604082019050919050565b60006155fa601683615e77565b91507f4552433230536e617073686f743a2069642069732030000000000000000000006000830152602082019050919050565b600061563a601783615e88565b91507f416363657373436f6e74726f6c3a206163636f756e74200000000000000000006000830152601782019050919050565b600061567a608f83615e77565b91507f412062616c616e6365206f6620686967686572207468616e206d696e5374616b60008301527f6520697320726571756972656420746f206d61696e7461696e20726f6c65206f60208301527f66207374616b65722c20696620796f75207769736820746f207265766f6b652060408301527f74686520726f6c65206f66207374616b65722c20757365207265766f6b65537460608301527f616b657228292066756e6374696f6e0000000000000000000000000000000000608083015260a082019050919050565b6000615752604783615e77565b91507f4164647265737320686173206e6f20766f7465732063757272656e746c792c2060008301527f63616c6c2066756e6374696f6e20636c61696d566f746520746f20636c61696d60208301527f206120766f7465000000000000000000000000000000000000000000000000006040830152606082019050919050565b60006157de601883615e77565b91507f596f752061726520616c72656164792061207374616b657200000000000000006000830152602082019050919050565b600061581e602583615e77565b91507f45524332303a2064656372656173656420616c6c6f77616e63652062656c6f7760008301527f207a65726f0000000000000000000000000000000000000000000000000000006020830152604082019050919050565b6000615884601183615e88565b91507f206973206d697373696e6720726f6c65200000000000000000000000000000006000830152601182019050919050565b60006158c4602f83615e77565b91507f416363657373436f6e74726f6c3a2063616e206f6e6c792072656e6f756e636560008301527f20726f6c657320666f722073656c6600000000000000000000000000000000006020830152604082019050919050565b600061592a601f83615e77565b91507f45524332303a206d696e7420746f20746865207a65726f2061646472657373006000830152602082019050919050565b6159668161601c565b82525050565b61597581616026565b82525050565b60006159868261562d565b91506159928285614eb6565b915061599d82615877565b91506159a98284614eb6565b91508190509392505050565b60006020820190506159ca6000830184614e50565b92915050565b60006040820190506159e56000830185614e50565b6159f2602083018461595d565b9392505050565b600061014082019050615a0f600083018d614e50565b615a1c602083018c61595d565b615a29604083018b61595d565b615a36606083018a61595d565b615a436080830189614e5f565b615a5060a083018861595d565b615a5d60c083018761595d565b615a6a60e083018661595d565b615a7861010083018561595d565b615a86610120830184614e5f565b9b9a5050505050505050505050565b6000602082019050615aaa6000830184614e5f565b92915050565b6000602082019050615ac56000830184614e6e565b92915050565b60006020820190508181036000830152615ae58184614e7d565b905092915050565b60006020820190508181036000830152615b0681614ee7565b9050919050565b60006020820190508181036000830152615b2681614f27565b9050919050565b60006020820190508181036000830152615b4681614f67565b9050919050565b60006020820190508181036000830152615b6681614fcd565b9050919050565b60006020820190508181036000830152615b8681615033565b9050919050565b60006020820190508181036000830152615ba681615099565b9050919050565b60006020820190508181036000830152615bc6816150ff565b9050919050565b60006020820190508181036000830152615be681615165565b9050919050565b60006020820190508181036000830152615c06816151f1565b9050919050565b60006020820190508181036000830152615c2681615257565b9050919050565b60006020820190508181036000830152615c46816152bd565b9050919050565b60006020820190508181036000830152615c6681615323565b9050919050565b60006020820190508181036000830152615c86816153af565b9050919050565b60006020820190508181036000830152615ca681615415565b9050919050565b60006020820190508181036000830152615cc681615455565b9050919050565b60006020820190508181036000830152615ce6816154bb565b9050919050565b60006020820190508181036000830152615d0681615521565b9050919050565b60006020820190508181036000830152615d2681615587565b9050919050565b60006020820190508181036000830152615d46816155ed565b9050919050565b60006020820190508181036000830152615d668161566d565b9050919050565b60006020820190508181036000830152615d8681615745565b9050919050565b60006020820190508181036000830152615da6816157d1565b9050919050565b60006020820190508181036000830152615dc681615811565b9050919050565b60006020820190508181036000830152615de6816158b7565b9050919050565b60006020820190508181036000830152615e068161591d565b9050919050565b6000602082019050615e22600083018461595d565b92915050565b6000604082019050615e3d600083018561595d565b615e4a602083018461595d565b9392505050565b6000602082019050615e66600083018461596c565b92915050565b600081519050919050565b600082825260208201905092915050565b600081905092915050565b6000615e9e8261601c565b9150615ea98361601c565b9250827fffffffffffffffffffffffffffffffffffffffffffffffffffffffffffffffff03821115615ede57615edd61613c565b5b828201905092915050565b6000615ef48261601c565b9150615eff8361601c565b925082615f0f57615f0e61616b565b5b828204905092915050565b6000615f258261601c565b9150615f308361601c565b9250817fffffffffffffffffffffffffffffffffffffffffffffffffffffffffffffffff0483118215151615615f6957615f6861613c565b5b828202905092915050565b6000615f7f8261601c565b9150615f8a8361601c565b925082821015615f9d57615f9c61613c565b5b828203905092915050565b6000615fb382615ffc565b9050919050565b60008115159050919050565b6000819050919050565b60007fffffffff0000000000000000000000000000000000000000000000000000000082169050919050565b600073ffffffffffffffffffffffffffffffffffffffff82169050919050565b6000819050919050565b600060ff82169050919050565b60005b83811015616051578082015181840152602081019050616036565b83811115616060576000848401525b50505050565b60006160718261601c565b915060008214156160855761608461613c565b5b600182039050919050565b600060028204905060018216806160a857607f821691505b602082108114156160bc576160bb61619a565b5b50919050565b60006160cd8261601c565b91507fffffffffffffffffffffffffffffffffffffffffffffffffffffffffffffffff821415616100576160ff61613c565b5b600182019050919050565b60006161168261601c565b91506161218361601c565b9250826161315761613061616b565b5b828206905092915050565b7f4e487b7100000000000000000000000000000000000000000000000000000000600052601160045260246000fd5b7f4e487b7100000000000000000000000000000000000000000000000000000000600052601260045260246000fd5b7f4e487b7100000000000000000000000000000000000000000000000000000000600052602260045260246000fd5b6000601f19601f8301169050919050565b6161e381615fa8565b81146161ee57600080fd5b50565b6161fa81615fba565b811461620557600080fd5b50565b61621181615fc6565b811461621c57600080fd5b50565b61622881615fd0565b811461623357600080fd5b50565b61623f8161601c565b811461624a57600080fd5b5056fea2646970667358221220e4ed97337aa113ce7344df96ca80573d127828262a3b8856d527e2391a82514664736f6c63430008000033",
  "immutableReferences": {},
  "source": "// SPDX-License-Identifier: MIT\npragma solidity >=0.4.22 <0.9.0;\n\nimport \"@openzeppelin/contracts/utils/Context.sol\";\nimport \"@openzeppelin/contracts/token/ERC20/ERC20.sol\";\nimport \"@openzeppelin/contracts/token/ERC20/extensions/ERC20Burnable.sol\";\nimport \"@openzeppelin/contracts/access/AccessControl.sol\";\nimport \"@openzeppelin/contracts/utils/math/SafeMath.sol\";\nimport \"@openzeppelin/contracts/security/Pausable.sol\";\nimport \"./MaiToken.sol\";\n\nimport \"@openzeppelin/contracts/token/ERC20/extensions/ERC20Snapshot.sol\";\n   \n\ncontract Mai is Context, ERC20, ERC20Burnable, ERC20Snapshot, AccessControl, Pausable {\n    using SafeMath for uint256;\n    bytes32 public constant VOTER_ROLE = keccak256(\"VOTER_ROLE\");\n    bytes32 public constant STAKER_ROLE = keccak256(\"STAKER_ROLE\");\n    bytes32 public constant OWNER_ROLE = keccak256(\"OWNER_ROLE\");\n    bytes32 public constant PAUSER_ROLE = keccak256(\"PAUSER_ROLE\");\n    bytes32 public constant SNAPSHOT_ROLE = keccak256(\"SNAPSHOT_ROLE\");\n    \n    event _VoteMade(uint256 indexed pollID, uint256 votes, address indexed voter, uint256 side);\n    event _VoteClaimed(address indexed voter, uint256 amountClaimed);\n    event _VoteRevoked(uint256 indexed pollID, uint256 votes, address indexed voter); \n    event _VoteEnded(uint256 indexed pollID);\n    event _RewardsMinted(uint256 indexed pollID, uint256 indexed amount);\n    event _RewardsBurned(uint256 indexed pollID, uint256 indexed amount);\n    event _PollCreated(uint votedTokenAmount, uint end, uint indexed pollID, address indexed creator);\n    event _VotingRightsGranted(address indexed voter);\n    event _VotingRightsRevoked(address indexed voter);\n    event _resultsGenerated(uint256 amountMinted, uint256 pollID);\n\n    constructor() ERC20(\"Mai\", \"MAI\") {\n        _mint(msg.sender, 10**12 * 10 ** decimals());\n        _setupRole(STAKER_ROLE, msg.sender);\n        _setupRole(OWNER_ROLE, msg.sender);\n        _setupRole(PAUSER_ROLE, msg.sender);\n        _setupRole(SNAPSHOT_ROLE, msg.sender);\n    }\n\n    modifier onlyOwner() {\n        require(hasRole(OWNER_ROLE, msg.sender) || msg.sender == stakingAddress);\n        _;\n    }\n\n    function pause() onlyOwner internal {\n        _pause();\n    }\n\n    function unpause() onlyOwner internal {\n        _unpause();\n    }\n\n    function snapshot() public onlyOwner() {\n        _snapshot();\n    }\n\n    function _beforeTokenTransfer(address from, address to, uint256 amount)\n        internal\n        override(ERC20, ERC20Snapshot)\n    {\n        super._beforeTokenTransfer(from, to, amount);\n    }\n\n    function mint(address to, uint256 amount) onlyOwner internal {\n        _mint(to, amount);\n        _beforeTokenTransfer(address(0), msg.sender, amount);\n    }\n\n    // Staking\n\n    event _StakerGranted(address to);\n    event _StakerRoleRevoked(address account, uint256 amountReturned);\n    event _StakesDeposited(address account, uint256 amount);\n    event _StakesWithdrawn(address account, uint256 amount);\n    event _MinimumStakeChanged(uint256 minStake);\n\n    mapping(address => uint256) stakedBalance; // Maps user address to the total amount of staked tokens\n\n    \n    uint256 minStake = 1000;\n    // uint256 minStakeTimeBeforeVoterRoleGranted = ;\n\n    function changeMinimumStake(uint256 newMinAmount) onlyOwner public {\n        require(newMinAmount != minStake);\n        require(msg.sender == stakingAddress);\n        minStake = newMinAmount;\n        emit _MinimumStakeChanged(newMinAmount);\n    }\n\n    /**\n    @dev Allows users to stake, adding their respective amount of tokens to the staked balance\n    @param amount Amount of tokens used in the stake pool\n    */\n\n    function stake(uint256 amount) payable public {\n        require(amount >= minStake, \"Must have a staked balance of more than minStake MAI to become a staker\");\n        require(hasRole(STAKER_ROLE, msg.sender) == false, \"You are already a staker\");\n        transferFrom(msg.sender, stakingAddress, amount);\n        grantRole(STAKER_ROLE, msg.sender);\n        stakedBalance[msg.sender] = stakedBalance[msg.sender].add(amount);\n        emit _StakerGranted(msg.sender);\n    }\n\n    /**\n    @dev Withdraws tokens from the stake pool back to the users account, the user must not be part of any active polls\n    @param amount Amount of tokens the user wishes to withdraw\n    */\n\n    function withdraw(uint256 amount) payable public {\n        require(hasRole(STAKER_ROLE, msg.sender), \"Must have staker role to perform this action\");\n        require(amount <= stakedBalance[msg.sender], \"Must withdraw amount within balance\"); \n        require(stakedBalance[msg.sender].sub(amount) >= minStake, \"A balance of higher than minStake is required to maintain role of staker, if you wish to revoke the role of staker, use revokeStaker() function\");\n        require(checkParticipation(msg.sender) == false, \"You must not be participating in any vote in order to withdraw any staked tokens\");\n        transfer(msg.sender, amount);\n        stakedBalance[msg.sender] = stakedBalance[msg.sender].sub(amount);\n        emit _StakesWithdrawn(msg.sender, amount);\n    }\n\n    /**\n    @dev Deposits tokens into the stake pool from the users account\n    @param amount Amount of tokens the user wishes to deposit\n    */\n\n    function deposit(uint256 amount) payable public {\n        require(hasRole(STAKER_ROLE, msg.sender), \"Must have staker role to perform this action\");\n        transferFrom(msg.sender, stakingAddress, amount);\n        stakedBalance[msg.sender] = stakedBalance[msg.sender].add(amount);\n        emit _StakesDeposited(msg.sender, amount);\n    }\n\n    /**\n    @dev Function for users to see the balance they currently have in the stake pool\n    */\n\n    function viewStakedBalance() view public returns (uint256 balance) {\n        require(hasRole(STAKER_ROLE, msg.sender), \"Must have staker role to perform this action\");\n        return (stakedBalance[msg.sender]);\n    }\n\n    /**\n    @dev Revokes their staker role and returns all their tokens back to the user\n    */\n    \n    function revokeStaker() public {\n        require(hasRole(STAKER_ROLE, msg.sender), \"Must have staker role to perform this action\");\n        revokeRole(STAKER_ROLE, msg.sender);\n        transfer(msg.sender, stakedBalance[msg.sender]);\n        stakedBalance[msg.sender] = 0;\n        emit _StakerRoleRevoked(msg.sender, stakedBalance[msg.sender]); \n    }\n\n    // Polls and votes\n\n    struct Poll {\n        address pollStarter; // initiator of the poll;\n        uint256 start; // block start;\n        uint256 end; // start + period (_commitDuration)\n        // uint256 end; // Date when poll ends\n        uint256 votedTokenAmount; // Amount of tokens minted/ burned if poll is passed\n        bool quorumOption; // Allows option to judge voting process by percentage \n        uint256 voteQuorum; // The percentage of for votes required for poll to pass\n        uint256 votesFor; // Amount of votes supporting the proposal \n        uint256 votesAgainst; // Amount of votes countering the proposal\n        uint256 action; // action 1: Minting tokens; action 2: Burning tokens; action 3: Transfering tokens; action 4: snapshot;\n        bool ongoing; // Returns true if poll is still active\n        mapping(address => uint256) _votesClaimed; // Amount of votes already claimed by the voter\n        mapping(address => bool) _participant; // Maps address of user to whether they have voted in an active poll\n        mapping(address => uint256) _votes; // Amount of votes placed by the voter\n        mapping(address => uint256) _side; // The side the voter is on if they already voted\n    }\n\n    \n    mapping (uint256 => Poll) public pollMapping; // Maps the pollID to the struct\n    mapping (uint256 => uint256) public totalVotes; // Maps the pollID to its respective number of votes\n    mapping (address => uint256) public stakedTotal; // Maps the user address to their total staked balance in all categories\n    uint256 pollNonce = 0; // Counter for pollID\n    address public stakingAddress; // Address used for storing staked tokens\n\n    /**\n    @dev Initiates poll and emits PollCreate event\n    @param _quorumOption Users can decide if the winner is decided by the percentage majority out of 100 or whether the 'for' side has more votes than the 'against' side\n    @param _voteQuorum Assumes that the _quorumOption is false, passes in the percentage majority out of 100 that is required to win the vote\n    @param _votedTokenAmount The amount of tokens minted/burned if poll is successful \n    @param _commitDuration Length of the poll in seconds\n    @param _action Type of poll, action 1 is for minting tokens, action 2 is for burning tokens, action 3 is for transfering tokens, action 4 is for taking a snapshot.\n    */\n\n    function startPoll(bool _quorumOption, uint256 _voteQuorum, uint256 _action, uint256 _votedTokenAmount, uint256 _commitDuration, address _pollStarter) public returns (uint256 pollID) {\n        require ((_quorumOption == false && _voteQuorum == 0) || (_quorumOption == true && _voteQuorum > 0));\n        require (_votedTokenAmount > 0, \"The amount of tokens to be burned/ minted must be larger than 0\");\n        uint256 end = block.timestamp.add(_commitDuration);\n        pollNonce = pollNonce.add(1);\n        Poll storage newPoll = pollMapping[pollNonce];\n        newPoll.pollStarter = _pollStarter;\n        newPoll.start = block.timestamp;\n        newPoll.action = _action;\n        newPoll.quorumOption = _quorumOption;\n        newPoll.voteQuorum = _voteQuorum;\n        newPoll.votedTokenAmount = _votedTokenAmount;\n        newPoll.end = end;\n        newPoll.votesFor = 0;\n        newPoll.votesAgainst = 0;\n        newPoll.ongoing = true;\n\n        emit _PollCreated(_votedTokenAmount, end, pollNonce, msg.sender);\n        return pollNonce;\n    }\n\n    /**\n    @dev Allocates voter role to stakers and emits event\n    @param voter address of staker\n    */\n\n    function voterAllocation(address voter) public {  //thi\n        require(hasRole(STAKER_ROLE, voter)); \n\n        grantRole(VOTER_ROLE, voter);       \n        emit _VotingRightsGranted(voter);\n    }\n\n    /**\n    @dev Revokes votes that are already made and returns the vote to msg.sender //B: to msg.sender? this does not make sense... \n        //B: is this talking about after a vote is completed or the scenario where a staker unstakes?\n    @param amount Amount of votes to be revoked\n    @param pollID ID of poll\n    */\n    \n    /* B: this revokeVote  function is problematic, as it allows for one to votepump and mislead strategic voters of the other party. \n        Consider this analogy: you have three candidates: Biden, Sanders, and Trump, and their support numbers are 40%, 25%, and 35%.\n        A significant number of Biden supporters support Sanders as well, and they only vote for Biden because they believe Sanders just hasn't got a chance\n        With this revokeVote set-up, Trump supports can pump up Sanders's vote, say to 40% - in which the support numbers would be 40%, 40%, 20%.\n            Biden-Sanders supporters would then be essentially offered a chance to switch to Sanders, and have the candidate of their desire actually win. \n            Suppose 6% of Biden supporters switched to sanders, giving us: 34%, 46%, 20%. Then it would appear that Sanders is winning. \n            At the very last moment, suppose Trump supporters revoke their vote, we'd be left with 34%, 31%, 35%. Trump wins. \n    */\n\n    /*function revokeVote(uint256 amount, uint256 pollID) public {\n        require(msg.sender != address(0));\n        require(pollMapping[pollID].ongoing = true);\n        require(isNotExpired(pollID));\n        require(amount <= pollMapping[pollID]._votes[msg.sender]);\n        pollMapping[pollID]._votes[msg.sender] = pollMapping[pollID]._votes[msg.sender].sub(amount);\n        pollMapping[pollID]._votesClaimed[msg.sender] = pollMapping[pollID]._votesClaimed[msg.sender].add(amount);\n        if (pollMapping[pollID]._votes[msg.sender] == 0) {\n            pollMapping[pollID]._participant[msg.sender] = false;\n        }\n        totalVotes[pollID] = totalVotes[pollID].sub(amount);\n    }\n    */\n\n\n    /**\n    @dev Function that takes away voter role from addresses when necessary\n    @param voter Voter that is going to get their role revoked\n    */\n\n    function voterRevokation(address voter) public {\n        require(hasRole(VOTER_ROLE, voter)); //msg.sender change to voter\n        require(voter != address(0));\n        revokeRole(VOTER_ROLE, voter);\n        emit _VotingRightsRevoked(voter);\n    }\n\n    /**\n    @dev Checks if user has voter role\n    @param voter Address of voter\n    */\n\n    modifier voterCheck(address voter) {\n        require(hasRole(VOTER_ROLE, voter));\n        _;\n    }\n\n    /**\n    @dev Claims votes from existing staked tokens and stores available votes at _votes\n    @param pollID ID of vote\n    */\n\n    function claimVote(uint256 pollID, address voter) public voterCheck(voter) {  // msg.sender is usually for contracts, not addresses. So here, it is change(d) to voter\n        require(voter != address(0));\n        uint256 claimable = stakedTotal[voter].sub(pollMapping[pollID]._votesClaimed[voter]).sub(minStake - 1);\n        require(claimable > 0, \"Address has no votes available to claim\");\n        pollMapping[pollID]._votesClaimed[voter] = pollMapping[pollID]._votesClaimed[voter].add(claimable);\n        pollMapping[pollID]._votes[voter] = pollMapping[pollID]._votes[voter].add(claimable);\n        emit _VoteClaimed(voter, claimable);\n    }\n\n    /**\n    @dev Returns number of votes available to users\n    @param voter Address of requested voter\n    @param pollID ID of poll\n    */\n\n    function numOfVotes(address voter, uint256 pollID) public view returns (uint256 votes) {\n        require(voter != address(0));\n        return pollMapping[pollID]._votes[voter]; \n    }\n\n    /**\n    @dev Voters makes votes on corresponding polls, deducting their _votes and emitting _VoteMade event\n    @param votesMade Amount of votes going to be made\n    @param pollID ID of the poll\n    @param side The side of the poll the user wants to support (1: for; 2: against)\n    */\n\n\n    function makeVote(uint256 votesMade, uint256 pollID, uint256 side, address voter) public voterCheck(voter) {\n        require(voter != address(0));\n        require(pollMapping[pollID].ongoing = true);\n        require(isNotExpired(pollID));\n        require(pollMapping[pollID]._votes[voter] > 0, \"Address has no votes currently, call function claimVote to claim a vote\");\n        require(votesMade <= pollMapping[pollID]._votes[voter]);\n        require(pollMapping[pollID]._side[voter] == 0 || pollMapping[pollID]._side[voter] == side);\n        require(side == 1 || side == 2);\n        if (side == 1) {\n            pollMapping[pollID].votesFor = pollMapping[pollID].votesFor.add(1);\n        } else if (side == 2) {\n            pollMapping[pollID].votesAgainst = pollMapping[pollID].votesAgainst.add(1);\n        }\n        pollMapping[pollID]._side[voter] = side;\n        pollMapping[pollID]._votes[voter] = pollMapping[pollID]._votes[voter].sub(votesMade);\n        totalVotes[pollID] = totalVotes[pollID].add(1);\n        pollMapping[pollID]._participant[voter] = true;\n        emit _VoteMade(pollID, votesMade, voter, side); \n    }\n\n    /**\n    @dev Returns whether the poll/ proposal passed the voting\n    @param pollID ID of the poll\n    */\n    // ties are understood as rejections\n\n    function results(uint256 pollID) public returns (bool passed) {\n        endPoll(pollID);\n        require(isNotExpired(pollID) == false);\n        require(pollExists(pollID));\n        if (pollMapping[pollID].quorumOption == false) {\n            if (pollMapping[pollID].votesFor > pollMapping[pollID].votesAgainst) {\n                return (true);\n            } else if (pollMapping[pollID].votesFor < pollMapping[pollID].votesAgainst) {\n                return (false);\n            } else {\n                return (false);\n            }\n        } else if (pollMapping[pollID].quorumOption == true) {\n            if (quorumCalc(pollID) >= pollMapping[pollID].voteQuorum) {\n                return (true);\n            } else if (quorumCalc(pollID) < pollMapping[pollID].voteQuorum) {\n                return  (false);\n            } else {\n                return (false);\n            }\n        }\n    }\n\n    /**\n    @dev Calculates the percentage of voters that supports the proposal\n    @param pollID ID of the poll\n    */\n\n    function quorumCalc(uint256 pollID) public view returns (uint256 result) {\n        require (totalVotes[pollID] > 0);\n        require (pollExists(pollID), \"Poll does not exist\");\n        uint256 ans = pollMapping[pollID].votesFor.div(totalVotes[pollID]);\n        ans = ans.mul(100);\n        return ans;\n    }\n\n    /**\n    @dev Ends the poll instantly if necessary\n    @param pollID ID of the poll\n    */\n\n    function endPoll(uint pollID) public {\n        require(hasRole(PAUSER_ROLE, msg.sender));\n        require(pollExists(pollID));\n        pollMapping[pollID].ongoing = false;\n    }\n\n    /**\n    @dev Mints the proposed amount of tokens after the poll has ended and passed\n    @param pollID ID of the poll\n    */\n        \n\n    function mintRewards (uint256 pollID) onlyOwner payable public {\n        require(hasRole(OWNER_ROLE, msg.sender));\n        require(pollMapping[pollID].action == 1);\n        require(pollMapping[pollID].ongoing == false);\n        _beforeTokenTransfer(address(0), msg.sender, pollMapping[pollID].votedTokenAmount);\n        _mint(msg.sender, pollMapping[pollID].votedTokenAmount);\n        emit _resultsGenerated(pollMapping[pollID].votedTokenAmount, pollID);  \n    }\n\n    /**\n    @dev Burns the proposed amount of tokens after the poll has ended and passed\n    @param pollID ID of the poll\n    */\n\n    function burnRewards (uint256 pollID) onlyOwner payable public { \n        require(hasRole(OWNER_ROLE, msg.sender));\n        require(pollMapping[pollID].action == 2);\n        require(pollMapping[pollID].ongoing == false);\n        _beforeTokenTransfer(msg.sender, address(0), pollMapping[pollID].votedTokenAmount);\n        burnFrom(msg.sender, pollMapping[pollID].votedTokenAmount);\n        emit _resultsGenerated(pollMapping[pollID].votedTokenAmount, pollID);\n    }\n\n\n    function transferRewards(uint256 pollID, address recipient) onlyOwner public virtual {\n        require(hasRole(OWNER_ROLE, msg.sender));\n        require(pollMapping[pollID].action == 3);\n        require(pollMapping[pollID].ongoing == false);\n        _beforeTokenTransfer(msg.sender, address(0), pollMapping[pollID].votedTokenAmount);\n        burn(pollMapping[pollID].votedTokenAmount);\n        _transfer(_msgSender(), recipient, pollMapping[pollID].votedTokenAmount);\n        \n        emit _resultsGenerated(pollMapping[pollID].votedTokenAmount, pollID);\n    }\n\n    function takeSnapshot(uint256 pollID) onlyOwner public virtual {\n        require(pollMapping[pollID].action == 4);\n        require(pollMapping[pollID].ongoing == false);\n        snapshot();        \n    }\n\n    /**\n    @dev Checks if the address of the voter has participated in any active poll\n    @param voter Address of the voter\n    */\n\n    function checkParticipation(address voter) public view returns(bool participating){\n        for (uint256 i = 1; i < pollNonce; i++) {\n            if (pollMapping[i].ongoing == true && pollMapping[i]._participant[voter] == true) {\n                return true;\n            }\n        }\n        return false;\n    }\n\n    /**\n    @dev Checks if poll exists and returns a boolean value\n    @param _pollID ID of the poll\n    */\n\n    function pollExists(uint256 _pollID) public view returns (bool exists) {\n        return (_pollID != 0 && _pollID <= pollNonce);\n    }\n\n    /**\n    @dev Checks of poll has ended or not\n    @param _pollID ID of the poll\n    */\n\n    function pollEnded(uint256 _pollID) public view returns (bool ended) {\n        require(pollExists(_pollID));\n\n        return isNotExpired(pollMapping[_pollID].end);\n    }\n\n    /**\n    @dev Checks if a date has expired or not\n    @param _terminationDate The date for checking\n    */\n\n    function isNotExpired(uint256 _terminationDate) public view returns (bool expired) {\n        return (block.timestamp < _terminationDate);\n    }\n\n    \n}\n\n",
  "sourcePath": "/Users/colinlam/Desktop/code/HoHey/contracts/MaiToken.sol",
  "compiler": {
    "name": "solc",
    "version": "0.8.0+commit.c7dfd78e.Emscripten.clang"
  },
  "schemaVersion": "3.4.1",
  "updatedAt": "2021-07-16T06:08:05.381Z",
  "devdoc": {
    "kind": "dev",
    "methods": {
      "allowance(address,address)": {
        "details": "See {IERC20-allowance}."
      },
      "approve(address,uint256)": {
        "details": "See {IERC20-approve}. Requirements: - `spender` cannot be the zero address."
      },
      "balanceOf(address)": {
        "details": "See {IERC20-balanceOf}."
      },
      "balanceOfAt(address,uint256)": {
        "details": "Retrieves the balance of `account` at the time `snapshotId` was created."
      },
      "burn(uint256)": {
        "details": "Destroys `amount` tokens from the caller. See {ERC20-_burn}."
      },
      "burnFrom(address,uint256)": {
        "details": "Destroys `amount` tokens from `account`, deducting from the caller's allowance. See {ERC20-_burn} and {ERC20-allowance}. Requirements: - the caller must have allowance for ``accounts``'s tokens of at least `amount`."
      },
      "burnRewards(uint256)": {
        "details": "Burns the proposed amount of tokens after the poll has ended and passed",
        "params": {
          "pollID": "ID of the poll"
        }
      },
      "checkParticipation(address)": {
        "details": "Checks if the address of the voter has participated in any active poll",
        "params": {
          "voter": "Address of the voter"
        }
      },
      "claimVote(uint256,address)": {
        "details": "Claims votes from existing staked tokens and stores available votes at _votes",
        "params": {
          "pollID": "ID of vote"
        }
      },
      "decimals()": {
        "details": "Returns the number of decimals used to get its user representation. For example, if `decimals` equals `2`, a balance of `505` tokens should be displayed to a user as `5,05` (`505 / 10 ** 2`). Tokens usually opt for a value of 18, imitating the relationship between Ether and Wei. This is the value {ERC20} uses, unless this function is overridden; NOTE: This information is only used for _display_ purposes: it in no way affects any of the arithmetic of the contract, including {IERC20-balanceOf} and {IERC20-transfer}."
      },
      "decreaseAllowance(address,uint256)": {
        "details": "Atomically decreases the allowance granted to `spender` by the caller. This is an alternative to {approve} that can be used as a mitigation for problems described in {IERC20-approve}. Emits an {Approval} event indicating the updated allowance. Requirements: - `spender` cannot be the zero address. - `spender` must have allowance for the caller of at least `subtractedValue`."
      },
      "deposit(uint256)": {
        "details": "Deposits tokens into the stake pool from the users account",
        "params": {
          "amount": "Amount of tokens the user wishes to deposit"
        }
      },
      "endPoll(uint256)": {
        "details": "Ends the poll instantly if necessary",
        "params": {
          "pollID": "ID of the poll"
        }
      },
      "getRoleAdmin(bytes32)": {
        "details": "Returns the admin role that controls `role`. See {grantRole} and {revokeRole}. To change a role's admin, use {_setRoleAdmin}."
      },
      "grantRole(bytes32,address)": {
        "details": "Grants `role` to `account`. If `account` had not been already granted `role`, emits a {RoleGranted} event. Requirements: - the caller must have ``role``'s admin role."
      },
      "hasRole(bytes32,address)": {
        "details": "Returns `true` if `account` has been granted `role`."
      },
      "increaseAllowance(address,uint256)": {
        "details": "Atomically increases the allowance granted to `spender` by the caller. This is an alternative to {approve} that can be used as a mitigation for problems described in {IERC20-approve}. Emits an {Approval} event indicating the updated allowance. Requirements: - `spender` cannot be the zero address."
      },
      "isNotExpired(uint256)": {
        "details": "Checks if a date has expired or not",
        "params": {
          "_terminationDate": "The date for checking"
        }
      },
      "makeVote(uint256,uint256,uint256,address)": {
        "details": "Voters makes votes on corresponding polls, deducting their _votes and emitting _VoteMade event",
        "params": {
          "pollID": "ID of the poll",
          "side": "The side of the poll the user wants to support (1: for; 2: against)",
          "votesMade": "Amount of votes going to be made"
        }
      },
      "mintRewards(uint256)": {
        "details": "Mints the proposed amount of tokens after the poll has ended and passed",
        "params": {
          "pollID": "ID of the poll"
        }
      },
      "name()": {
        "details": "Returns the name of the token."
      },
      "numOfVotes(address,uint256)": {
        "details": "Returns number of votes available to users",
        "params": {
          "pollID": "ID of poll",
          "voter": "Address of requested voter"
        }
      },
      "paused()": {
        "details": "Returns true if the contract is paused, and false otherwise."
      },
      "pollEnded(uint256)": {
        "details": "Checks of poll has ended or not",
        "params": {
          "_pollID": "ID of the poll"
        }
      },
      "pollExists(uint256)": {
        "details": "Checks if poll exists and returns a boolean value",
        "params": {
          "_pollID": "ID of the poll"
        }
      },
      "quorumCalc(uint256)": {
        "details": "Calculates the percentage of voters that supports the proposal",
        "params": {
          "pollID": "ID of the poll"
        }
      },
      "renounceRole(bytes32,address)": {
        "details": "Revokes `role` from the calling account. Roles are often managed via {grantRole} and {revokeRole}: this function's purpose is to provide a mechanism for accounts to lose their privileges if they are compromised (such as when a trusted device is misplaced). If the calling account had been granted `role`, emits a {RoleRevoked} event. Requirements: - the caller must be `account`."
      },
      "results(uint256)": {
        "details": "Returns whether the poll/ proposal passed the voting",
        "params": {
          "pollID": "ID of the poll"
        }
      },
      "revokeRole(bytes32,address)": {
        "details": "Revokes `role` from `account`. If `account` had been granted `role`, emits a {RoleRevoked} event. Requirements: - the caller must have ``role``'s admin role."
      },
      "revokeStaker()": {
        "details": "Revokes their staker role and returns all their tokens back to the user"
      },
      "stake(uint256)": {
        "details": "Allows users to stake, adding their respective amount of tokens to the staked balance",
        "params": {
          "amount": "Amount of tokens used in the stake pool"
        }
      },
      "startPoll(bool,uint256,uint256,uint256,uint256,address)": {
        "details": "Initiates poll and emits PollCreate event",
        "params": {
          "_action": "Type of poll, action 1 is for minting tokens, action 2 is for burning tokens, action 3 is for transfering tokens, action 4 is for taking a snapshot.",
          "_commitDuration": "Length of the poll in seconds",
          "_quorumOption": "Users can decide if the winner is decided by the percentage majority out of 100 or whether the 'for' side has more votes than the 'against' side",
          "_voteQuorum": "Assumes that the _quorumOption is false, passes in the percentage majority out of 100 that is required to win the vote",
          "_votedTokenAmount": "The amount of tokens minted/burned if poll is successful "
        }
      },
      "supportsInterface(bytes4)": {
        "details": "See {IERC165-supportsInterface}."
      },
      "symbol()": {
        "details": "Returns the symbol of the token, usually a shorter version of the name."
      },
      "totalSupply()": {
        "details": "See {IERC20-totalSupply}."
      },
      "totalSupplyAt(uint256)": {
        "details": "Retrieves the total supply at the time `snapshotId` was created."
      },
      "transfer(address,uint256)": {
        "details": "See {IERC20-transfer}. Requirements: - `recipient` cannot be the zero address. - the caller must have a balance of at least `amount`."
      },
      "transferFrom(address,address,uint256)": {
        "details": "See {IERC20-transferFrom}. Emits an {Approval} event indicating the updated allowance. This is not required by the EIP. See the note at the beginning of {ERC20}. Requirements: - `sender` and `recipient` cannot be the zero address. - `sender` must have a balance of at least `amount`. - the caller must have allowance for ``sender``'s tokens of at least `amount`."
      },
      "viewStakedBalance()": {
        "details": "Function for users to see the balance they currently have in the stake pool"
      },
      "voterAllocation(address)": {
        "details": "Allocates voter role to stakers and emits event",
        "params": {
          "voter": "address of staker"
        }
      },
      "voterRevokation(address)": {
        "details": "Function that takes away voter role from addresses when necessary",
        "params": {
          "voter": "Voter that is going to get their role revoked"
        }
      },
      "withdraw(uint256)": {
        "details": "Withdraws tokens from the stake pool back to the users account, the user must not be part of any active polls",
        "params": {
          "amount": "Amount of tokens the user wishes to withdraw"
        }
      }
    },
    "version": 1
  },
  "userdoc": {
    "kind": "user",
    "methods": {},
    "version": 1
  }
}