{
  "contractName": "Mai",
  "abi": [
    {
      "inputs": [],
      "stateMutability": "nonpayable",
      "type": "constructor"
    },
    {
      "anonymous": false,
      "inputs": [
        {
          "indexed": true,
          "internalType": "address",
          "name": "owner",
          "type": "address"
        },
        {
          "indexed": true,
          "internalType": "address",
          "name": "spender",
          "type": "address"
        },
        {
          "indexed": false,
          "internalType": "uint256",
          "name": "value",
          "type": "uint256"
        }
      ],
      "name": "Approval",
      "type": "event"
    },
    {
      "anonymous": false,
      "inputs": [
        {
          "indexed": false,
          "internalType": "address",
          "name": "account",
          "type": "address"
        }
      ],
      "name": "Paused",
      "type": "event"
    },
    {
      "anonymous": false,
      "inputs": [
        {
          "indexed": true,
          "internalType": "bytes32",
          "name": "role",
          "type": "bytes32"
        },
        {
          "indexed": true,
          "internalType": "bytes32",
          "name": "previousAdminRole",
          "type": "bytes32"
        },
        {
          "indexed": true,
          "internalType": "bytes32",
          "name": "newAdminRole",
          "type": "bytes32"
        }
      ],
      "name": "RoleAdminChanged",
      "type": "event"
    },
    {
      "anonymous": false,
      "inputs": [
        {
          "indexed": true,
          "internalType": "bytes32",
          "name": "role",
          "type": "bytes32"
        },
        {
          "indexed": true,
          "internalType": "address",
          "name": "account",
          "type": "address"
        },
        {
          "indexed": true,
          "internalType": "address",
          "name": "sender",
          "type": "address"
        }
      ],
      "name": "RoleGranted",
      "type": "event"
    },
    {
      "anonymous": false,
      "inputs": [
        {
          "indexed": true,
          "internalType": "bytes32",
          "name": "role",
          "type": "bytes32"
        },
        {
          "indexed": true,
          "internalType": "address",
          "name": "account",
          "type": "address"
        },
        {
          "indexed": true,
          "internalType": "address",
          "name": "sender",
          "type": "address"
        }
      ],
      "name": "RoleRevoked",
      "type": "event"
    },
    {
      "anonymous": false,
      "inputs": [
        {
          "indexed": true,
          "internalType": "address",
          "name": "from",
          "type": "address"
        },
        {
          "indexed": true,
          "internalType": "address",
          "name": "to",
          "type": "address"
        },
        {
          "indexed": false,
          "internalType": "uint256",
          "name": "value",
          "type": "uint256"
        }
      ],
      "name": "Transfer",
      "type": "event"
    },
    {
      "anonymous": false,
      "inputs": [
        {
          "indexed": false,
          "internalType": "address",
          "name": "account",
          "type": "address"
        }
      ],
      "name": "Unpaused",
      "type": "event"
    },
    {
      "anonymous": false,
      "inputs": [
        {
          "indexed": false,
          "internalType": "uint256",
          "name": "voteAmount",
          "type": "uint256"
        },
        {
          "indexed": false,
          "internalType": "uint256",
          "name": "commitEndDate",
          "type": "uint256"
        },
        {
          "indexed": true,
          "internalType": "uint256",
          "name": "pollID",
          "type": "uint256"
        },
        {
          "indexed": true,
          "internalType": "address",
          "name": "creator",
          "type": "address"
        }
      ],
      "name": "_PollCreated",
      "type": "event"
    },
    {
      "anonymous": false,
      "inputs": [
        {
          "indexed": true,
          "internalType": "uint256",
          "name": "pollID",
          "type": "uint256"
        },
        {
          "indexed": true,
          "internalType": "uint256",
          "name": "amount",
          "type": "uint256"
        }
      ],
      "name": "_RewardsBurned",
      "type": "event"
    },
    {
      "anonymous": false,
      "inputs": [
        {
          "indexed": true,
          "internalType": "uint256",
          "name": "pollID",
          "type": "uint256"
        },
        {
          "indexed": true,
          "internalType": "uint256",
          "name": "amount",
          "type": "uint256"
        }
      ],
      "name": "_RewardsMinted",
      "type": "event"
    },
    {
      "anonymous": false,
      "inputs": [
        {
          "indexed": true,
          "internalType": "address",
          "name": "voter",
          "type": "address"
        },
        {
          "indexed": false,
          "internalType": "uint256",
          "name": "amountClaimed",
          "type": "uint256"
        }
      ],
      "name": "_VoteClaimed",
      "type": "event"
    },
    {
      "anonymous": false,
      "inputs": [
        {
          "indexed": true,
          "internalType": "uint256",
          "name": "pollID",
          "type": "uint256"
        }
      ],
      "name": "_VoteEnded",
      "type": "event"
    },
    {
      "anonymous": false,
      "inputs": [
        {
          "indexed": true,
          "internalType": "uint256",
          "name": "pollID",
          "type": "uint256"
        },
        {
          "indexed": false,
          "internalType": "uint256",
          "name": "votes",
          "type": "uint256"
        },
        {
          "indexed": true,
          "internalType": "address",
          "name": "voter",
          "type": "address"
        },
        {
          "indexed": false,
          "internalType": "uint256",
          "name": "side",
          "type": "uint256"
        }
      ],
      "name": "_VoteMade",
      "type": "event"
    },
    {
      "anonymous": false,
      "inputs": [
        {
          "indexed": true,
          "internalType": "uint256",
          "name": "pollID",
          "type": "uint256"
        },
        {
          "indexed": false,
          "internalType": "uint256",
          "name": "votes",
          "type": "uint256"
        },
        {
          "indexed": true,
          "internalType": "address",
          "name": "voter",
          "type": "address"
        }
      ],
      "name": "_VoteRevoked",
      "type": "event"
    },
    {
      "anonymous": false,
      "inputs": [
        {
          "indexed": true,
          "internalType": "address",
          "name": "voter",
          "type": "address"
        }
      ],
      "name": "_VotingRightsGranted",
      "type": "event"
    },
    {
      "anonymous": false,
      "inputs": [
        {
          "indexed": true,
          "internalType": "address",
          "name": "voter",
          "type": "address"
        }
      ],
      "name": "_VotingRightsRevoked",
      "type": "event"
    },
    {
      "anonymous": false,
      "inputs": [
        {
          "indexed": true,
          "internalType": "uint256",
          "name": "lengthExtended",
          "type": "uint256"
        },
        {
          "indexed": true,
          "internalType": "uint256",
          "name": "NewCommitDuration",
          "type": "uint256"
        }
      ],
      "name": "_VotingTimeAdded",
      "type": "event"
    },
    {
      "anonymous": false,
      "inputs": [
        {
          "indexed": false,
          "internalType": "uint256",
          "name": "amountMinted",
          "type": "uint256"
        },
        {
          "indexed": false,
          "internalType": "uint256",
          "name": "pollID",
          "type": "uint256"
        }
      ],
      "name": "_resultsGenerated",
      "type": "event"
    },
    {
      "inputs": [],
      "name": "DEFAULT_ADMIN_ROLE",
      "outputs": [
        {
          "internalType": "bytes32",
          "name": "",
          "type": "bytes32"
        }
      ],
      "stateMutability": "view",
      "type": "function"
    },
    {
      "inputs": [],
      "name": "MINTER_ROLE",
      "outputs": [
        {
          "internalType": "bytes32",
          "name": "",
          "type": "bytes32"
        }
      ],
      "stateMutability": "view",
      "type": "function"
    },
    {
      "inputs": [],
      "name": "PAUSER_ROLE",
      "outputs": [
        {
          "internalType": "bytes32",
          "name": "",
          "type": "bytes32"
        }
      ],
      "stateMutability": "view",
      "type": "function"
    },
    {
      "inputs": [],
      "name": "STAKER_ROLE",
      "outputs": [
        {
          "internalType": "bytes32",
          "name": "",
          "type": "bytes32"
        }
      ],
      "stateMutability": "view",
      "type": "function"
    },
    {
      "inputs": [],
      "name": "VOTER_ROLE",
      "outputs": [
        {
          "internalType": "bytes32",
          "name": "",
          "type": "bytes32"
        }
      ],
      "stateMutability": "view",
      "type": "function"
    },
    {
      "inputs": [
        {
          "internalType": "address",
          "name": "owner",
          "type": "address"
        },
        {
          "internalType": "address",
          "name": "spender",
          "type": "address"
        }
      ],
      "name": "allowance",
      "outputs": [
        {
          "internalType": "uint256",
          "name": "",
          "type": "uint256"
        }
      ],
      "stateMutability": "view",
      "type": "function"
    },
    {
      "inputs": [
        {
          "internalType": "address",
          "name": "spender",
          "type": "address"
        },
        {
          "internalType": "uint256",
          "name": "amount",
          "type": "uint256"
        }
      ],
      "name": "approve",
      "outputs": [
        {
          "internalType": "bool",
          "name": "",
          "type": "bool"
        }
      ],
      "stateMutability": "nonpayable",
      "type": "function"
    },
    {
      "inputs": [
        {
          "internalType": "address",
          "name": "account",
          "type": "address"
        }
      ],
      "name": "balanceOf",
      "outputs": [
        {
          "internalType": "uint256",
          "name": "",
          "type": "uint256"
        }
      ],
      "stateMutability": "view",
      "type": "function"
    },
    {
      "inputs": [
        {
          "internalType": "uint256",
          "name": "amount",
          "type": "uint256"
        }
      ],
      "name": "burn",
      "outputs": [],
      "stateMutability": "nonpayable",
      "type": "function"
    },
    {
      "inputs": [
        {
          "internalType": "address",
          "name": "account",
          "type": "address"
        },
        {
          "internalType": "uint256",
          "name": "amount",
          "type": "uint256"
        }
      ],
      "name": "burnFrom",
      "outputs": [],
      "stateMutability": "nonpayable",
      "type": "function"
    },
    {
      "inputs": [],
      "name": "decimals",
      "outputs": [
        {
          "internalType": "uint8",
          "name": "",
          "type": "uint8"
        }
      ],
      "stateMutability": "view",
      "type": "function"
    },
    {
      "inputs": [
        {
          "internalType": "address",
          "name": "spender",
          "type": "address"
        },
        {
          "internalType": "uint256",
          "name": "subtractedValue",
          "type": "uint256"
        }
      ],
      "name": "decreaseAllowance",
      "outputs": [
        {
          "internalType": "bool",
          "name": "",
          "type": "bool"
        }
      ],
      "stateMutability": "nonpayable",
      "type": "function"
    },
    {
      "inputs": [
        {
          "internalType": "bytes32",
          "name": "role",
          "type": "bytes32"
        }
      ],
      "name": "getRoleAdmin",
      "outputs": [
        {
          "internalType": "bytes32",
          "name": "",
          "type": "bytes32"
        }
      ],
      "stateMutability": "view",
      "type": "function"
    },
    {
      "inputs": [
        {
          "internalType": "bytes32",
          "name": "role",
          "type": "bytes32"
        },
        {
          "internalType": "address",
          "name": "account",
          "type": "address"
        }
      ],
      "name": "grantRole",
      "outputs": [],
      "stateMutability": "nonpayable",
      "type": "function"
    },
    {
      "inputs": [
        {
          "internalType": "bytes32",
          "name": "role",
          "type": "bytes32"
        },
        {
          "internalType": "address",
          "name": "account",
          "type": "address"
        }
      ],
      "name": "hasRole",
      "outputs": [
        {
          "internalType": "bool",
          "name": "",
          "type": "bool"
        }
      ],
      "stateMutability": "view",
      "type": "function"
    },
    {
      "inputs": [
        {
          "internalType": "address",
          "name": "spender",
          "type": "address"
        },
        {
          "internalType": "uint256",
          "name": "addedValue",
          "type": "uint256"
        }
      ],
      "name": "increaseAllowance",
      "outputs": [
        {
          "internalType": "bool",
          "name": "",
          "type": "bool"
        }
      ],
      "stateMutability": "nonpayable",
      "type": "function"
    },
    {
      "inputs": [],
      "name": "name",
      "outputs": [
        {
          "internalType": "string",
          "name": "",
          "type": "string"
        }
      ],
      "stateMutability": "view",
      "type": "function"
    },
    {
      "inputs": [],
      "name": "paused",
      "outputs": [
        {
          "internalType": "bool",
          "name": "",
          "type": "bool"
        }
      ],
      "stateMutability": "view",
      "type": "function"
    },
    {
      "inputs": [
        {
          "internalType": "uint256",
          "name": "",
          "type": "uint256"
        }
      ],
      "name": "pollMapping",
      "outputs": [
        {
          "internalType": "uint256",
          "name": "commitEndDate",
          "type": "uint256"
        },
        {
          "internalType": "uint256",
          "name": "voteAmount",
          "type": "uint256"
        },
        {
          "internalType": "bool",
          "name": "quorumOption",
          "type": "bool"
        },
        {
          "internalType": "uint256",
          "name": "voteQuorum",
          "type": "uint256"
        },
        {
          "internalType": "uint256",
          "name": "votesFor",
          "type": "uint256"
        },
        {
          "internalType": "uint256",
          "name": "votesAgainst",
          "type": "uint256"
        },
        {
          "internalType": "uint256",
          "name": "option",
          "type": "uint256"
        },
        {
          "internalType": "bool",
          "name": "ongoing",
          "type": "bool"
        }
      ],
      "stateMutability": "view",
      "type": "function"
    },
    {
      "inputs": [
        {
          "internalType": "bytes32",
          "name": "role",
          "type": "bytes32"
        },
        {
          "internalType": "address",
          "name": "account",
          "type": "address"
        }
      ],
      "name": "renounceRole",
      "outputs": [],
      "stateMutability": "nonpayable",
      "type": "function"
    },
    {
      "inputs": [
        {
          "internalType": "bytes32",
          "name": "role",
          "type": "bytes32"
        },
        {
          "internalType": "address",
          "name": "account",
          "type": "address"
        }
      ],
      "name": "revokeRole",
      "outputs": [],
      "stateMutability": "nonpayable",
      "type": "function"
    },
    {
      "inputs": [
        {
          "internalType": "address",
          "name": "",
          "type": "address"
        }
      ],
      "name": "stakedTotal",
      "outputs": [
        {
          "internalType": "uint256",
          "name": "",
          "type": "uint256"
        }
      ],
      "stateMutability": "view",
      "type": "function"
    },
    {
      "inputs": [
        {
          "internalType": "bytes4",
          "name": "interfaceId",
          "type": "bytes4"
        }
      ],
      "name": "supportsInterface",
      "outputs": [
        {
          "internalType": "bool",
          "name": "",
          "type": "bool"
        }
      ],
      "stateMutability": "view",
      "type": "function"
    },
    {
      "inputs": [],
      "name": "symbol",
      "outputs": [
        {
          "internalType": "string",
          "name": "",
          "type": "string"
        }
      ],
      "stateMutability": "view",
      "type": "function"
    },
    {
      "inputs": [],
      "name": "totalSupply",
      "outputs": [
        {
          "internalType": "uint256",
          "name": "",
          "type": "uint256"
        }
      ],
      "stateMutability": "view",
      "type": "function"
    },
    {
      "inputs": [
        {
          "internalType": "uint256",
          "name": "",
          "type": "uint256"
        }
      ],
      "name": "totalVotes",
      "outputs": [
        {
          "internalType": "uint256",
          "name": "",
          "type": "uint256"
        }
      ],
      "stateMutability": "view",
      "type": "function"
    },
    {
      "inputs": [
        {
          "internalType": "address",
          "name": "sender",
          "type": "address"
        },
        {
          "internalType": "address",
          "name": "recipient",
          "type": "address"
        },
        {
          "internalType": "uint256",
          "name": "amount",
          "type": "uint256"
        }
      ],
      "name": "transferFrom",
      "outputs": [
        {
          "internalType": "bool",
          "name": "",
          "type": "bool"
        }
      ],
      "stateMutability": "nonpayable",
      "type": "function"
    },
    {
      "inputs": [
        {
          "internalType": "bool",
          "name": "_quorumOption",
          "type": "bool"
        },
        {
          "internalType": "uint256",
          "name": "_voteQuorum",
          "type": "uint256"
        },
        {
          "internalType": "uint256",
          "name": "_voteAmount",
          "type": "uint256"
        },
        {
          "internalType": "uint256",
          "name": "_commitDuration",
          "type": "uint256"
        },
        {
          "internalType": "uint256",
          "name": "_option",
          "type": "uint256"
        }
      ],
      "name": "startPoll",
      "outputs": [
        {
          "internalType": "uint256",
          "name": "pollID",
          "type": "uint256"
        }
      ],
      "stateMutability": "nonpayable",
      "type": "function"
    },
    {
      "inputs": [
        {
          "internalType": "address",
          "name": "voter",
          "type": "address"
        }
      ],
      "name": "voterAllocation",
      "outputs": [],
      "stateMutability": "nonpayable",
      "type": "function"
    },
    {
      "inputs": [
        {
          "internalType": "uint256",
          "name": "amount",
          "type": "uint256"
        },
        {
          "internalType": "uint256",
          "name": "pollID",
          "type": "uint256"
        }
      ],
      "name": "revokeVote",
      "outputs": [],
      "stateMutability": "nonpayable",
      "type": "function"
    },
    {
      "inputs": [
        {
          "internalType": "address",
          "name": "recipient",
          "type": "address"
        },
        {
          "internalType": "uint256",
          "name": "amount",
          "type": "uint256"
        }
      ],
      "name": "transfer",
      "outputs": [
        {
          "internalType": "bool",
          "name": "",
          "type": "bool"
        }
      ],
      "stateMutability": "nonpayable",
      "type": "function"
    },
    {
      "inputs": [
        {
          "internalType": "address",
          "name": "voter",
          "type": "address"
        }
      ],
      "name": "voterRevokation",
      "outputs": [],
      "stateMutability": "nonpayable",
      "type": "function"
    },
    {
      "inputs": [
        {
          "internalType": "uint256",
          "name": "pollID",
          "type": "uint256"
        }
      ],
      "name": "claimVote",
      "outputs": [],
      "stateMutability": "nonpayable",
      "type": "function"
    },
    {
      "inputs": [
        {
          "internalType": "address",
          "name": "voter",
          "type": "address"
        },
        {
          "internalType": "uint256",
          "name": "pollID",
          "type": "uint256"
        }
      ],
      "name": "numOfVotes",
      "outputs": [
        {
          "internalType": "uint256",
          "name": "votes",
          "type": "uint256"
        }
      ],
      "stateMutability": "view",
      "type": "function"
    },
    {
      "inputs": [
        {
          "internalType": "uint256",
          "name": "votesMade",
          "type": "uint256"
        },
        {
          "internalType": "uint256",
          "name": "pollID",
          "type": "uint256"
        },
        {
          "internalType": "uint256",
          "name": "side",
          "type": "uint256"
        }
      ],
      "name": "makeVote",
      "outputs": [],
      "stateMutability": "nonpayable",
      "type": "function"
    },
    {
      "inputs": [
        {
          "internalType": "uint256",
          "name": "pollID",
          "type": "uint256"
        }
      ],
      "name": "results",
      "outputs": [
        {
          "internalType": "bool",
          "name": "passed",
          "type": "bool"
        }
      ],
      "stateMutability": "nonpayable",
      "type": "function"
    },
    {
      "inputs": [
        {
          "internalType": "uint256",
          "name": "pollID",
          "type": "uint256"
        }
      ],
      "name": "quorumCalc",
      "outputs": [
        {
          "internalType": "uint256",
          "name": "result",
          "type": "uint256"
        }
      ],
      "stateMutability": "view",
      "type": "function"
    },
    {
      "inputs": [
        {
          "internalType": "uint256",
          "name": "pollID",
          "type": "uint256"
        }
      ],
      "name": "endPoll",
      "outputs": [],
      "stateMutability": "nonpayable",
      "type": "function"
    },
    {
      "inputs": [
        {
          "internalType": "uint256",
          "name": "pollID",
          "type": "uint256"
        }
      ],
      "name": "burnRewards",
      "outputs": [],
      "stateMutability": "payable",
      "type": "function"
    },
    {
      "inputs": [
        {
          "internalType": "uint256",
          "name": "pollID",
          "type": "uint256"
        }
      ],
      "name": "mintRewards",
      "outputs": [],
      "stateMutability": "payable",
      "type": "function"
    },
    {
      "inputs": [
        {
          "internalType": "uint256",
          "name": "pollID",
          "type": "uint256"
        },
        {
          "internalType": "uint256",
          "name": "timeAdded",
          "type": "uint256"
        }
      ],
      "name": "addTime",
      "outputs": [],
      "stateMutability": "nonpayable",
      "type": "function"
    },
    {
      "inputs": [
        {
          "internalType": "address",
          "name": "voter",
          "type": "address"
        }
      ],
      "name": "checkParticipation",
      "outputs": [
        {
          "internalType": "bool",
          "name": "participating",
          "type": "bool"
        }
      ],
      "stateMutability": "view",
      "type": "function"
    },
    {
      "inputs": [],
      "name": "pause",
      "outputs": [],
      "stateMutability": "nonpayable",
      "type": "function"
    },
    {
      "inputs": [],
      "name": "unpause",
      "outputs": [],
      "stateMutability": "nonpayable",
      "type": "function"
    },
    {
      "inputs": [
        {
          "internalType": "address",
          "name": "to",
          "type": "address"
        },
        {
          "internalType": "uint256",
          "name": "amount",
          "type": "uint256"
        }
      ],
      "name": "mint",
      "outputs": [],
      "stateMutability": "nonpayable",
      "type": "function"
    },
    {
      "inputs": [
        {
          "internalType": "uint256",
          "name": "_pollID",
          "type": "uint256"
        }
      ],
      "name": "pollExists",
      "outputs": [
        {
          "internalType": "bool",
          "name": "exists",
          "type": "bool"
        }
      ],
      "stateMutability": "view",
      "type": "function"
    },
    {
      "inputs": [
        {
          "internalType": "uint256",
          "name": "_pollID",
          "type": "uint256"
        }
      ],
      "name": "pollEnded",
      "outputs": [
        {
          "internalType": "bool",
          "name": "ended",
          "type": "bool"
        }
      ],
      "stateMutability": "view",
      "type": "function"
    },
    {
      "inputs": [
        {
          "internalType": "uint256",
          "name": "_terminationDate",
          "type": "uint256"
        }
      ],
      "name": "isNotExpired",
      "outputs": [
        {
          "internalType": "bool",
          "name": "expired",
          "type": "bool"
        }
      ],
      "stateMutability": "view",
      "type": "function"
    }
  ],
  "bytecode": "0x60806040526000600a553480156200001657600080fd5b506040518060400160405280600381526020017f4d616900000000000000000000000000000000000000000000000000000000008152506040518060400160405280600381526020017f4d4149000000000000000000000000000000000000000000000000000000000081525081600390805190602001906200009b929190620004cc565b508060049080519060200190620000b4929190620004cc565b5050506000600660006101000a81548160ff0219169083151502179055506200011033620000e7620001c160201b60201c565b600a620000f59190620006d7565b6103e862000104919062000814565b620001ca60201b60201c565b620001256000801b336200032f60201b60201c565b620001577f9f2df0fed2c77648de5860a4cc508cd0818c85b8b8a1ab4ceeef8d981c8956a6336200032f60201b60201c565b620001897f72c3eec1760bf69946625c2d4fb8e44e2c806345041960b434674fb9ab3976cf336200032f60201b60201c565b620001bb7fb9e206fa2af7ee1331b72ce58b6d938ac810ce9b5cdb65d35ab723fd67badf9e336200032f60201b60201c565b6200092d565b60006012905090565b600073ffffffffffffffffffffffffffffffffffffffff168273ffffffffffffffffffffffffffffffffffffffff1614156200023d576040517f08c379a00000000000000000000000000000000000000000000000000000000081526004016200023490620005cf565b60405180910390fd5b62000251600083836200034560201b60201c565b80600260008282546200026591906200061f565b92505081905550806000808473ffffffffffffffffffffffffffffffffffffffff1673ffffffffffffffffffffffffffffffffffffffff1681526020019081526020016000206000828254620002bc91906200061f565b925050819055508173ffffffffffffffffffffffffffffffffffffffff16600073ffffffffffffffffffffffffffffffffffffffff167fddf252ad1be2c89b69c2b068fc378daa952ba7f163c4a11628f55a4df523b3ef83604051620003239190620005f1565b60405180910390a35050565b6200034182826200036260201b60201c565b5050565b6200035d8383836200045460201b62002b221760201c565b505050565b6200037482826200045960201b60201c565b620004505760016005600084815260200190815260200160002060000160008373ffffffffffffffffffffffffffffffffffffffff1673ffffffffffffffffffffffffffffffffffffffff16815260200190815260200160002060006101000a81548160ff021916908315150217905550620003f5620004c460201b60201c565b73ffffffffffffffffffffffffffffffffffffffff168173ffffffffffffffffffffffffffffffffffffffff16837f2f8788117e7eff1d82e926ec794901d17c78024a50270940304540a733656f0d60405160405180910390a45b5050565b505050565b60006005600084815260200190815260200160002060000160008373ffffffffffffffffffffffffffffffffffffffff1673ffffffffffffffffffffffffffffffffffffffff16815260200190815260200160002060009054906101000a900460ff16905092915050565b600033905090565b828054620004da906200088c565b90600052602060002090601f016020900481019282620004fe57600085556200054a565b82601f106200051957805160ff19168380011785556200054a565b828001600101855582156200054a579182015b82811115620005495782518255916020019190600101906200052c565b5b5090506200055991906200055d565b5090565b5b80821115620005785760008160009055506001016200055e565b5090565b60006200058b601f836200060e565b91507f45524332303a206d696e7420746f20746865207a65726f2061646472657373006000830152602082019050919050565b620005c98162000875565b82525050565b60006020820190508181036000830152620005ea816200057c565b9050919050565b6000602082019050620006086000830184620005be565b92915050565b600082825260208201905092915050565b60006200062c8262000875565b9150620006398362000875565b9250827fffffffffffffffffffffffffffffffffffffffffffffffffffffffffffffffff03821115620006715762000670620008c2565b5b828201905092915050565b6000808291508390505b6001851115620006ce57808604811115620006a657620006a5620008c2565b5b6001851615620006b65780820291505b8081029050620006c68562000920565b945062000686565b94509492505050565b6000620006e48262000875565b9150620006f1836200087f565b9250620007207fffffffffffffffffffffffffffffffffffffffffffffffffffffffffffffffff848462000728565b905092915050565b6000826200073a57600190506200080d565b816200074a57600090506200080d565b81600181146200076357600281146200076e57620007a4565b60019150506200080d565b60ff841115620007835762000782620008c2565b5b8360020a9150848211156200079d576200079c620008c2565b5b506200080d565b5060208310610133831016604e8410600b8410161715620007de5782820a905083811115620007d857620007d7620008c2565b5b6200080d565b620007ed84848460016200067c565b92509050818404811115620008075762000806620008c2565b5b81810290505b9392505050565b6000620008218262000875565b91506200082e8362000875565b9250817fffffffffffffffffffffffffffffffffffffffffffffffffffffffffffffffff04831182151516156200086a5762000869620008c2565b5b828202905092915050565b6000819050919050565b600060ff82169050919050565b60006002820490506001821680620008a557607f821691505b60208210811415620008bc57620008bb620008f1565b5b50919050565b7f4e487b7100000000000000000000000000000000000000000000000000000000600052601160045260246000fd5b7f4e487b7100000000000000000000000000000000000000000000000000000000600052602260045260246000fd5b60008160011c9050919050565b614d83806200093d6000396000f3fe6080604052600436106102925760003560e01c806379cc67901161015a578063a94015c8116100c1578063dd62ed3e1161007a578063dd62ed3e14610a94578063e63ab1e914610ad1578063edf949e814610afc578063ee68483014610b25578063f43b877814610b62578063f567918914610b8b57610292565b8063a94015c814610986578063b687bcc0146109b1578063ca5f0b99146109da578063cd8cd04814610a17578063d539139314610a40578063d547741f14610a6b57610292565b806395d89b411161011357806395d89b411461086457806398dcad611461088f578063a217fddf146108b8578063a3a4333b146108e3578063a457c2d71461090c578063a9059cbb1461094957610292565b806379cc6790146107515780638456cb591461077a57806388d21ff31461079157806389ec0257146107ce5780638c405503146107ea57806391d148541461082757610292565b8063313ce567116101fe57806340c10f19116101b757806340c10f191461065257806342966c681461067b5780634828ced9146106a45780635c975abb146106c057806370a08231146106eb578063791581c61461072857610292565b8063313ce5671461053b57806336568abe14610566578063372c48e11461058f5780633780b3ed146105d357806339509351146105fe5780633f4ba83a1461063b57610292565b806319e6e1581161025057806319e6e158146103e15780631b0c27da1461041e57806321e04c321461045b57806323b872dd14610498578063248a9ca3146104d55780632f2ff15d1461051257610292565b8062f027201461029757806301ffc9a7146102d457806303d29a5b1461031157806306fdde031461034e578063095ea7b31461037957806318160ddd146103b6575b600080fd5b3480156102a357600080fd5b506102be60048036038101906102b99190613c70565b610bc8565b6040516102cb91906148c0565b60405180910390f35b3480156102e057600080fd5b506102fb60048036038101906102f69190613c47565b610c90565b60405161030891906145e8565b60405180910390f35b34801561031d57600080fd5b5061033860048036038101906103339190613c70565b610d0a565b60405161034591906145e8565b60405180910390f35b34801561035a57600080fd5b50610363610d16565b604051610370919061461e565b60405180910390f35b34801561038557600080fd5b506103a0600480360381019061039b9190613b2f565b610da8565b6040516103ad91906145e8565b60405180910390f35b3480156103c257600080fd5b506103cb610dc6565b6040516103d891906148c0565b60405180910390f35b3480156103ed57600080fd5b5061040860048036038101906104039190613c70565b610dd0565b60405161041591906148c0565b60405180910390f35b34801561042a57600080fd5b5061044560048036038101906104409190613c70565b610de8565b60405161045291906145e8565b60405180910390f35b34801561046757600080fd5b50610482600480360381019061047d9190613a7b565b610f6d565b60405161048f91906145e8565b60405180910390f35b3480156104a457600080fd5b506104bf60048036038101906104ba9190613ae0565b611047565b6040516104cc91906145e8565b60405180910390f35b3480156104e157600080fd5b506104fc60048036038101906104f79190613be2565b611148565b6040516105099190614603565b60405180910390f35b34801561051e57600080fd5b5061053960048036038101906105349190613c0b565b611168565b005b34801561054757600080fd5b50610550611191565b60405161055d9190614982565b60405180910390f35b34801561057257600080fd5b5061058d60048036038101906105889190613c0b565b61119a565b005b34801561059b57600080fd5b506105b660048036038101906105b19190613c70565b61121d565b6040516105ca989796959493929190614904565b60405180910390f35b3480156105df57600080fd5b506105e861127f565b6040516105f59190614603565b60405180910390f35b34801561060a57600080fd5b5061062560048036038101906106209190613b2f565b6112a3565b60405161063291906145e8565b60405180910390f35b34801561064757600080fd5b5061065061134f565b005b34801561065e57600080fd5b5061067960048036038101906106749190613b2f565b61138c565b005b34801561068757600080fd5b506106a2600480360381019061069d9190613c70565b6113d9565b005b6106be60048036038101906106b99190613c70565b6113ed565b005b3480156106cc57600080fd5b506106d56114d8565b6040516106e291906145e8565b60405180910390f35b3480156106f757600080fd5b50610712600480360381019061070d9190613a7b565b6114ef565b60405161071f91906148c0565b60405180910390f35b34801561073457600080fd5b5061074f600480360381019061074a9190613c99565b611537565b005b34801561075d57600080fd5b5061077860048036038101906107739190613b2f565b6115d3565b005b34801561078657600080fd5b5061078f611657565b005b34801561079d57600080fd5b506107b860048036038101906107b39190613c70565b611694565b6040516107c591906145e8565b60405180910390f35b6107e860048036038101906107e39190613c70565b6116af565b005b3480156107f657600080fd5b50610811600480360381019061080c9190613b2f565b611799565b60405161081e91906148c0565b60405180910390f35b34801561083357600080fd5b5061084e60048036038101906108499190613c0b565b611830565b60405161085b91906145e8565b60405180910390f35b34801561087057600080fd5b5061087961189b565b604051610886919061461e565b60405180910390f35b34801561089b57600080fd5b506108b660048036038101906108b19190613cd5565b61192d565b005b3480156108c457600080fd5b506108cd611e66565b6040516108da9190614603565b60405180910390f35b3480156108ef57600080fd5b5061090a60048036038101906109059190613c70565b611e6d565b005b34801561091857600080fd5b50610933600480360381019061092e9190613b2f565b6121a8565b60405161094091906145e8565b60405180910390f35b34801561095557600080fd5b50610970600480360381019061096b9190613b2f565b61229c565b60405161097d91906145e8565b60405180910390f35b34801561099257600080fd5b5061099b6122ba565b6040516109a89190614603565b60405180910390f35b3480156109bd57600080fd5b506109d860048036038101906109d39190613a7b565b6122de565b005b3480156109e657600080fd5b50610a0160048036038101906109fc9190613b6b565b612381565b604051610a0e91906148c0565b60405180910390f35b348015610a2357600080fd5b50610a3e6004803603810190610a399190613a7b565b61251d565b005b348015610a4c57600080fd5b50610a556125fa565b604051610a629190614603565b60405180910390f35b348015610a7757600080fd5b50610a926004803603810190610a8d9190613c0b565b61261e565b005b348015610aa057600080fd5b50610abb6004803603810190610ab69190613aa4565b612647565b604051610ac891906148c0565b60405180910390f35b348015610add57600080fd5b50610ae66126ce565b604051610af39190614603565b60405180910390f35b348015610b0857600080fd5b50610b236004803603810190610b1e9190613c99565b6126f2565b005b348015610b3157600080fd5b50610b4c6004803603810190610b479190613c70565b612a59565b604051610b5991906145e8565b60405180910390f35b348015610b6e57600080fd5b50610b896004803603810190610b849190613c70565b612a93565b005b348015610b9757600080fd5b50610bb26004803603810190610bad9190613a7b565b612b0a565b604051610bbf91906148c0565b60405180910390f35b600080600860008481526020019081526020016000205411610be957600080fd5b610bf282611694565b610c31576040517f08c379a0000000000000000000000000000000000000000000000000000000008152600401610c28906147a0565b60405180910390fd5b6000610c6f60086000858152602001908152602001600020546007600086815260200190815260200160002060040154612b2790919063ffffffff16565b9050610c85606482612b3d90919063ffffffff16565b905080915050919050565b60007f7965db0b000000000000000000000000000000000000000000000000000000007bffffffffffffffffffffffffffffffffffffffffffffffffffffffff1916827bffffffffffffffffffffffffffffffffffffffffffffffffffffffff19161480610d035750610d0282612b53565b5b9050919050565b60008142109050919050565b606060038054610d2590614bc1565b80601f0160208091040260200160405190810160405280929190818152602001828054610d5190614bc1565b8015610d9e5780601f10610d7357610100808354040283529160200191610d9e565b820191906000526020600020905b815481529060010190602001808311610d8157829003601f168201915b5050505050905090565b6000610dbc610db5612bbd565b8484612bc5565b6001905092915050565b6000600254905090565b60086020528060005260406000206000915090505481565b6000610df382612a93565b60001515610e0083610d0a565b151514610e0c57600080fd5b610e1582611694565b610e1e57600080fd5b600015156007600084815260200190815260200160002060020160009054906101000a900460ff1615151415610ed157600760008381526020019081526020016000206005015460076000848152602001908152602001600020600401541115610e8b5760019050610f68565b600760008381526020019081526020016000206005015460076000848152602001908152602001600020600401541015610ec85760009050610f68565b60009050610f68565b600115156007600084815260200190815260200160002060020160009054906101000a900460ff1615151415610f67576007600083815260200190815260200160002060030154610f2183610bc8565b10610f2f5760019050610f68565b6007600083815260200190815260200160002060030154610f4f83610bc8565b1015610f5e5760009050610f68565b60009050610f68565b5b919050565b600080600190505b600a5481101561103c57600115156007600083815260200190815260200160002060070160009054906101000a900460ff16151514801561101a5750600115156007600083815260200190815260200160002060090160008573ffffffffffffffffffffffffffffffffffffffff1673ffffffffffffffffffffffffffffffffffffffff16815260200190815260200160002060009054906101000a900460ff161515145b15611029576001915050611042565b808061103490614bf3565b915050610f75565b50600090505b919050565b6000611054848484612d90565b6000600160008673ffffffffffffffffffffffffffffffffffffffff1673ffffffffffffffffffffffffffffffffffffffff168152602001908152602001600020600061109f612bbd565b73ffffffffffffffffffffffffffffffffffffffff1673ffffffffffffffffffffffffffffffffffffffff1681526020019081526020016000205490508281101561111f576040517f08c379a000000000000000000000000000000000000000000000000000000000815260040161111690614760565b60405180910390fd5b61113c8561112b612bbd565b85846111379190614aa5565b612bc5565b60019150509392505050565b600060056000838152602001908152602001600020600101549050919050565b61117182611148565b6111828161117d612bbd565b61300f565b61118c83836130ac565b505050565b60006012905090565b6111a2612bbd565b73ffffffffffffffffffffffffffffffffffffffff168173ffffffffffffffffffffffffffffffffffffffff161461120f576040517f08c379a000000000000000000000000000000000000000000000000000000000815260040161120690614880565b60405180910390fd5b611219828261318d565b5050565b60076020528060005260406000206000915090508060000154908060010154908060020160009054906101000a900460ff16908060030154908060040154908060050154908060060154908060070160009054906101000a900460ff16905088565b7fb9e206fa2af7ee1331b72ce58b6d938ac810ce9b5cdb65d35ab723fd67badf9e81565b60006113456112b0612bbd565b8484600160006112be612bbd565b73ffffffffffffffffffffffffffffffffffffffff1673ffffffffffffffffffffffffffffffffffffffff16815260200190815260200160002060008873ffffffffffffffffffffffffffffffffffffffff1673ffffffffffffffffffffffffffffffffffffffff1681526020019081526020016000205461134091906149c4565b612bc5565b6001905092915050565b6113797f65d7a28e3265b37a6474929f336521b332c1681b933f6cb9f3376673440d862a33611830565b61138257600080fd5b61138a61326f565b565b6113b67f9f2df0fed2c77648de5860a4cc508cd0818c85b8b8a1ab4ceeef8d981c8956a633611830565b6113bf57600080fd5b6113c98282613311565b6113d560003383613465565b5050565b6113ea6113e4612bbd565b82613475565b50565b600160076000838152602001908152602001600020600601541461141057600080fd5b600015156007600083815260200190815260200160002060070160009054906101000a900460ff1615151461144457600080fd5b6114666000336007600085815260200190815260200160002060010154613465565b611486336007600084815260200190815260200160002060010154613311565b7f815e966a30d910f09bbe731021156b873eaca737ddd8f638c08f40c47d4c55da6007600083815260200190815260200160002060010154826040516114cd9291906148db565b60405180910390a150565b6000600660009054906101000a900460ff16905090565b60008060008373ffffffffffffffffffffffffffffffffffffffff1673ffffffffffffffffffffffffffffffffffffffff168152602001908152602001600020549050919050565b61154082611694565b61154957600080fd5b6000811161158c576040517f08c379a000000000000000000000000000000000000000000000000000000000815260040161158390614740565b60405180910390fd5b6115b581600760008581526020019081526020016000206000015461364990919063ffffffff16565b60076000848152602001908152602001600020600001819055505050565b60006115e6836115e1612bbd565b612647565b90508181101561162b576040517f08c379a000000000000000000000000000000000000000000000000000000000815260040161162290614780565b60405180910390fd5b61164883611637612bbd565b84846116439190614aa5565b612bc5565b6116528383613475565b505050565b6116817f65d7a28e3265b37a6474929f336521b332c1681b933f6cb9f3376673440d862a33611830565b61168a57600080fd5b61169261365f565b565b60008082141580156116a85750600a548211155b9050919050565b60026007600083815260200190815260200160002060060154146116d257600080fd5b600015156007600083815260200190815260200160002060070160009054906101000a900460ff1615151461170657600080fd5b6117283360006007600085815260200190815260200160002060010154613465565b61174760076000838152602001908152602001600020600101546113d9565b7f815e966a30d910f09bbe731021156b873eaca737ddd8f638c08f40c47d4c55da60076000838152602001908152602001600020600101548260405161178e9291906148db565b60405180910390a150565b60008073ffffffffffffffffffffffffffffffffffffffff168373ffffffffffffffffffffffffffffffffffffffff1614156117d457600080fd5b60076000838152602001908152602001600020600a0160008473ffffffffffffffffffffffffffffffffffffffff1673ffffffffffffffffffffffffffffffffffffffff16815260200190815260200160002054905092915050565b60006005600084815260200190815260200160002060000160008373ffffffffffffffffffffffffffffffffffffffff1673ffffffffffffffffffffffffffffffffffffffff16815260200190815260200160002060009054906101000a900460ff16905092915050565b6060600480546118aa90614bc1565b80601f01602080910402602001604051908101604052809291908181526020018280546118d690614bc1565b80156119235780601f106118f857610100808354040283529160200191611923565b820191906000526020600020905b81548152906001019060200180831161190657829003601f168201915b5050505050905090565b336119587f72c3eec1760bf69946625c2d4fb8e44e2c806345041960b434674fb9ab3976cf82611830565b61196157600080fd5b600073ffffffffffffffffffffffffffffffffffffffff163373ffffffffffffffffffffffffffffffffffffffff16141561199b57600080fd5b60016007600085815260200190815260200160002060070160006101000a81548160ff02191690831515021790556119d257600080fd5b6119db83610d0a565b6119e457600080fd5b600060076000858152602001908152602001600020600a0160003373ffffffffffffffffffffffffffffffffffffffff1673ffffffffffffffffffffffffffffffffffffffff1681526020019081526020016000205411611a7a576040517f08c379a0000000000000000000000000000000000000000000000000000000008152600401611a7190614840565b60405180910390fd5b60076000848152602001908152602001600020600a0160003373ffffffffffffffffffffffffffffffffffffffff1673ffffffffffffffffffffffffffffffffffffffff16815260200190815260200160002054841115611ada57600080fd5b600060076000858152602001908152602001600020600b0160003373ffffffffffffffffffffffffffffffffffffffff1673ffffffffffffffffffffffffffffffffffffffff168152602001908152602001600020541480611b8e57508160076000858152602001908152602001600020600b0160003373ffffffffffffffffffffffffffffffffffffffff1673ffffffffffffffffffffffffffffffffffffffff16815260200190815260200160002054145b611b9757600080fd5b6001821480611ba65750600282145b611baf57600080fd5b6001821415611c0157611be26001600760008681526020019081526020016000206004015461364990919063ffffffff16565b6007600085815260200190815260200160002060040181905550611c50565b6002821415611c4f57611c346001600760008681526020019081526020016000206005015461364990919063ffffffff16565b60076000858152602001908152602001600020600501819055505b5b8160076000858152602001908152602001600020600b0160003373ffffffffffffffffffffffffffffffffffffffff1673ffffffffffffffffffffffffffffffffffffffff16815260200190815260200160002081905550611d0e8460076000868152602001908152602001600020600a0160003373ffffffffffffffffffffffffffffffffffffffff1673ffffffffffffffffffffffffffffffffffffffff1681526020019081526020016000205461370290919063ffffffff16565b60076000858152602001908152602001600020600a0160003373ffffffffffffffffffffffffffffffffffffffff1673ffffffffffffffffffffffffffffffffffffffff16815260200190815260200160002081905550611d8c6001600860008681526020019081526020016000205461364990919063ffffffff16565b600860008581526020019081526020016000208190555060016007600085815260200190815260200160002060090160003373ffffffffffffffffffffffffffffffffffffffff1673ffffffffffffffffffffffffffffffffffffffff16815260200190815260200160002060006101000a81548160ff0219169083151502179055503373ffffffffffffffffffffffffffffffffffffffff16837f5996e6b79a799eac35fb8f87a5ec15485d68232f99e6a9a13118feb7b77adb808685604051611e589291906148db565b60405180910390a350505050565b6000801b81565b33611e987f72c3eec1760bf69946625c2d4fb8e44e2c806345041960b434674fb9ab3976cf82611830565b611ea157600080fd5b600073ffffffffffffffffffffffffffffffffffffffff163373ffffffffffffffffffffffffffffffffffffffff161415611edb57600080fd5b6000611f966103e7611f886007600087815260200190815260200160002060080160003373ffffffffffffffffffffffffffffffffffffffff1673ffffffffffffffffffffffffffffffffffffffff16815260200190815260200160002054600960003373ffffffffffffffffffffffffffffffffffffffff1673ffffffffffffffffffffffffffffffffffffffff1681526020019081526020016000205461370290919063ffffffff16565b61370290919063ffffffff16565b905060008111611fdb576040517f08c379a0000000000000000000000000000000000000000000000000000000008152600401611fd290614700565b60405180910390fd5b612041816007600086815260200190815260200160002060080160003373ffffffffffffffffffffffffffffffffffffffff1673ffffffffffffffffffffffffffffffffffffffff1681526020019081526020016000205461364990919063ffffffff16565b6007600085815260200190815260200160002060080160003373ffffffffffffffffffffffffffffffffffffffff1673ffffffffffffffffffffffffffffffffffffffff168152602001908152602001600020819055506120fe8160076000868152602001908152602001600020600a0160003373ffffffffffffffffffffffffffffffffffffffff1673ffffffffffffffffffffffffffffffffffffffff1681526020019081526020016000205461364990919063ffffffff16565b60076000858152602001908152602001600020600a0160003373ffffffffffffffffffffffffffffffffffffffff1673ffffffffffffffffffffffffffffffffffffffff168152602001908152602001600020819055503373ffffffffffffffffffffffffffffffffffffffff167f11121ac798069fb07833ce3bd6cbfb51fec926c61a652138d3241566fe7240798260405161219b91906148c0565b60405180910390a2505050565b600080600160006121b7612bbd565b73ffffffffffffffffffffffffffffffffffffffff1673ffffffffffffffffffffffffffffffffffffffff16815260200190815260200160002060008573ffffffffffffffffffffffffffffffffffffffff1673ffffffffffffffffffffffffffffffffffffffff16815260200190815260200160002054905082811015612274576040517f08c379a000000000000000000000000000000000000000000000000000000000815260040161226b90614860565b60405180910390fd5b61229161227f612bbd565b85858461228c9190614aa5565b612bc5565b600191505092915050565b60006122b06122a9612bbd565b8484612d90565b6001905092915050565b7f72c3eec1760bf69946625c2d4fb8e44e2c806345041960b434674fb9ab3976cf81565b6123087fb9e206fa2af7ee1331b72ce58b6d938ac810ce9b5cdb65d35ab723fd67badf9e33611830565b61231157600080fd5b61233b7f72c3eec1760bf69946625c2d4fb8e44e2c806345041960b434674fb9ab3976cf82611168565b8073ffffffffffffffffffffffffffffffffffffffff167f3025407ee9b066f6cd97886b0c47bda6b6ebbb42d2c7574284f5814cfd3a504a60405160405180910390a250565b60008015158615151480156123965750600085145b806123b15750600115158615151480156123b05750600085115b5b6123ba57600080fd5b600084116123fd576040517f08c379a00000000000000000000000000000000000000000000000000000000081526004016123f490614800565b60405180910390fd5b6000612412844261364990919063ffffffff16565b905061242a6001600a5461364990919063ffffffff16565b600a81905550600060076000600a5481526020019081526020016000209050838160060181905550878160020160006101000a81548160ff021916908315150217905550868160030181905550858160010181905550818160000181905550600081600401819055506000816005018190555060018160070160006101000a81548160ff0219169083151502179055503373ffffffffffffffffffffffffffffffffffffffff16600a547f75c3234b322da18df8c948bde9b9983e5a43633c4e2647d4d9f4f15c0706f05d88856040516125059291906148db565b60405180910390a3600a549250505095945050505050565b6125477f72c3eec1760bf69946625c2d4fb8e44e2c806345041960b434674fb9ab3976cf33611830565b61255057600080fd5b600073ffffffffffffffffffffffffffffffffffffffff168173ffffffffffffffffffffffffffffffffffffffff16141561258a57600080fd5b6125b47f72c3eec1760bf69946625c2d4fb8e44e2c806345041960b434674fb9ab3976cf8261261e565b8073ffffffffffffffffffffffffffffffffffffffff167fc8f0ca04e3a4bee64fa8f12ab2c36bf665502f928567c2adfbbcc4ad796ed26960405160405180910390a250565b7f9f2df0fed2c77648de5860a4cc508cd0818c85b8b8a1ab4ceeef8d981c8956a681565b61262782611148565b61263881612633612bbd565b61300f565b612642838361318d565b505050565b6000600160008473ffffffffffffffffffffffffffffffffffffffff1673ffffffffffffffffffffffffffffffffffffffff16815260200190815260200160002060008373ffffffffffffffffffffffffffffffffffffffff1673ffffffffffffffffffffffffffffffffffffffff16815260200190815260200160002054905092915050565b7f65d7a28e3265b37a6474929f336521b332c1681b933f6cb9f3376673440d862a81565b600073ffffffffffffffffffffffffffffffffffffffff163373ffffffffffffffffffffffffffffffffffffffff16141561272c57600080fd5b60016007600083815260200190815260200160002060070160006101000a81548160ff021916908315150217905561276357600080fd5b61276c81610d0a565b61277557600080fd5b60076000828152602001908152602001600020600a0160003373ffffffffffffffffffffffffffffffffffffffff1673ffffffffffffffffffffffffffffffffffffffff168152602001908152602001600020548211156127d557600080fd5b61283b8260076000848152602001908152602001600020600a0160003373ffffffffffffffffffffffffffffffffffffffff1673ffffffffffffffffffffffffffffffffffffffff1681526020019081526020016000205461370290919063ffffffff16565b60076000838152602001908152602001600020600a0160003373ffffffffffffffffffffffffffffffffffffffff1673ffffffffffffffffffffffffffffffffffffffff168152602001908152602001600020819055506128f8826007600084815260200190815260200160002060080160003373ffffffffffffffffffffffffffffffffffffffff1673ffffffffffffffffffffffffffffffffffffffff1681526020019081526020016000205461364990919063ffffffff16565b6007600083815260200190815260200160002060080160003373ffffffffffffffffffffffffffffffffffffffff1673ffffffffffffffffffffffffffffffffffffffff16815260200190815260200160002081905550600060076000838152602001908152602001600020600a0160003373ffffffffffffffffffffffffffffffffffffffff1673ffffffffffffffffffffffffffffffffffffffff168152602001908152602001600020541415612a185760006007600083815260200190815260200160002060090160003373ffffffffffffffffffffffffffffffffffffffff1673ffffffffffffffffffffffffffffffffffffffff16815260200190815260200160002060006101000a81548160ff0219169083151502179055505b612a3e82600860008481526020019081526020016000205461370290919063ffffffff16565b60086000838152602001908152602001600020819055505050565b6000612a6482611694565b612a6d57600080fd5b612a8c6007600084815260200190815260200160002060000154610d0a565b9050919050565b612abd7f65d7a28e3265b37a6474929f336521b332c1681b933f6cb9f3376673440d862a33611830565b612ac657600080fd5b612acf81611694565b612ad857600080fd5b60006007600083815260200190815260200160002060070160006101000a81548160ff02191690831515021790555050565b60096020528060005260406000206000915090505481565b505050565b60008183612b359190614a1a565b905092915050565b60008183612b4b9190614a4b565b905092915050565b60007f01ffc9a7000000000000000000000000000000000000000000000000000000007bffffffffffffffffffffffffffffffffffffffffffffffffffffffff1916827bffffffffffffffffffffffffffffffffffffffffffffffffffffffff1916149050919050565b600033905090565b600073ffffffffffffffffffffffffffffffffffffffff168373ffffffffffffffffffffffffffffffffffffffff161415612c35576040517f08c379a0000000000000000000000000000000000000000000000000000000008152600401612c2c90614820565b60405180910390fd5b600073ffffffffffffffffffffffffffffffffffffffff168273ffffffffffffffffffffffffffffffffffffffff161415612ca5576040517f08c379a0000000000000000000000000000000000000000000000000000000008152600401612c9c906146c0565b60405180910390fd5b80600160008573ffffffffffffffffffffffffffffffffffffffff1673ffffffffffffffffffffffffffffffffffffffff16815260200190815260200160002060008473ffffffffffffffffffffffffffffffffffffffff1673ffffffffffffffffffffffffffffffffffffffff168152602001908152602001600020819055508173ffffffffffffffffffffffffffffffffffffffff168373ffffffffffffffffffffffffffffffffffffffff167f8c5be1e5ebec7d5bd14f71427d1e84f3dd0314c0f7b2291e5b200ac8c7c3b92583604051612d8391906148c0565b60405180910390a3505050565b600073ffffffffffffffffffffffffffffffffffffffff168373ffffffffffffffffffffffffffffffffffffffff161415612e00576040517f08c379a0000000000000000000000000000000000000000000000000000000008152600401612df7906147e0565b60405180910390fd5b600073ffffffffffffffffffffffffffffffffffffffff168273ffffffffffffffffffffffffffffffffffffffff161415612e70576040517f08c379a0000000000000000000000000000000000000000000000000000000008152600401612e6790614660565b60405180910390fd5b612e7b838383613465565b60008060008573ffffffffffffffffffffffffffffffffffffffff1673ffffffffffffffffffffffffffffffffffffffff16815260200190815260200160002054905081811015612f01576040517f08c379a0000000000000000000000000000000000000000000000000000000008152600401612ef8906146e0565b60405180910390fd5b8181612f0d9190614aa5565b6000808673ffffffffffffffffffffffffffffffffffffffff1673ffffffffffffffffffffffffffffffffffffffff16815260200190815260200160002081905550816000808573ffffffffffffffffffffffffffffffffffffffff1673ffffffffffffffffffffffffffffffffffffffff1681526020019081526020016000206000828254612f9d91906149c4565b925050819055508273ffffffffffffffffffffffffffffffffffffffff168473ffffffffffffffffffffffffffffffffffffffff167fddf252ad1be2c89b69c2b068fc378daa952ba7f163c4a11628f55a4df523b3ef8460405161300191906148c0565b60405180910390a350505050565b6130198282611830565b6130a85761303e8173ffffffffffffffffffffffffffffffffffffffff166014613718565b61304c8360001c6020613718565b60405160200161305d929190614593565b6040516020818303038152906040526040517f08c379a000000000000000000000000000000000000000000000000000000000815260040161309f919061461e565b60405180910390fd5b5050565b6130b68282611830565b6131895760016005600084815260200190815260200160002060000160008373ffffffffffffffffffffffffffffffffffffffff1673ffffffffffffffffffffffffffffffffffffffff16815260200190815260200160002060006101000a81548160ff02191690831515021790555061312e612bbd565b73ffffffffffffffffffffffffffffffffffffffff168173ffffffffffffffffffffffffffffffffffffffff16837f2f8788117e7eff1d82e926ec794901d17c78024a50270940304540a733656f0d60405160405180910390a45b5050565b6131978282611830565b1561326b5760006005600084815260200190815260200160002060000160008373ffffffffffffffffffffffffffffffffffffffff1673ffffffffffffffffffffffffffffffffffffffff16815260200190815260200160002060006101000a81548160ff021916908315150217905550613210612bbd565b73ffffffffffffffffffffffffffffffffffffffff168173ffffffffffffffffffffffffffffffffffffffff16837ff6391f5c32d9c69d2a47ea670b442974b53935d1edc7fd64eb21e047a839171b60405160405180910390a45b5050565b6132776114d8565b6132b6576040517f08c379a00000000000000000000000000000000000000000000000000000000081526004016132ad90614680565b60405180910390fd5b6000600660006101000a81548160ff0219169083151502179055507f5db9ee0a495bf2e6ff9c91a7834c1ba4fdd244a5e8aa4e537bd38aeae4b073aa6132fa612bbd565b60405161330791906145cd565b60405180910390a1565b600073ffffffffffffffffffffffffffffffffffffffff168273ffffffffffffffffffffffffffffffffffffffff161415613381576040517f08c379a0000000000000000000000000000000000000000000000000000000008152600401613378906148a0565b60405180910390fd5b61338d60008383613465565b806002600082825461339f91906149c4565b92505081905550806000808473ffffffffffffffffffffffffffffffffffffffff1673ffffffffffffffffffffffffffffffffffffffff16815260200190815260200160002060008282546133f491906149c4565b925050819055508173ffffffffffffffffffffffffffffffffffffffff16600073ffffffffffffffffffffffffffffffffffffffff167fddf252ad1be2c89b69c2b068fc378daa952ba7f163c4a11628f55a4df523b3ef8360405161345991906148c0565b60405180910390a35050565b613470838383612b22565b505050565b600073ffffffffffffffffffffffffffffffffffffffff168273ffffffffffffffffffffffffffffffffffffffff1614156134e5576040517f08c379a00000000000000000000000000000000000000000000000000000000081526004016134dc906147c0565b60405180910390fd5b6134f182600083613465565b60008060008473ffffffffffffffffffffffffffffffffffffffff1673ffffffffffffffffffffffffffffffffffffffff16815260200190815260200160002054905081811015613577576040517f08c379a000000000000000000000000000000000000000000000000000000000815260040161356e906146a0565b60405180910390fd5b81816135839190614aa5565b6000808573ffffffffffffffffffffffffffffffffffffffff1673ffffffffffffffffffffffffffffffffffffffff1681526020019081526020016000208190555081600260008282546135d79190614aa5565b92505081905550600073ffffffffffffffffffffffffffffffffffffffff168373ffffffffffffffffffffffffffffffffffffffff167fddf252ad1be2c89b69c2b068fc378daa952ba7f163c4a11628f55a4df523b3ef8460405161363c91906148c0565b60405180910390a3505050565b6000818361365791906149c4565b905092915050565b6136676114d8565b156136a7576040517f08c379a000000000000000000000000000000000000000000000000000000000815260040161369e90614720565b60405180910390fd5b6001600660006101000a81548160ff0219169083151502179055507f62e78cea01bee320cd4e420270b5ea74000d11b0c9f74754ebdbfc544b05a2586136eb612bbd565b6040516136f891906145cd565b60405180910390a1565b600081836137109190614aa5565b905092915050565b60606000600283600261372b9190614a4b565b61373591906149c4565b67ffffffffffffffff811115613774577f4e487b7100000000000000000000000000000000000000000000000000000000600052604160045260246000fd5b6040519080825280601f01601f1916602001820160405280156137a65781602001600182028036833780820191505090505b5090507f300000000000000000000000000000000000000000000000000000000000000081600081518110613804577f4e487b7100000000000000000000000000000000000000000000000000000000600052603260045260246000fd5b60200101907effffffffffffffffffffffffffffffffffffffffffffffffffffffffffffff1916908160001a9053507f78000000000000000000000000000000000000000000000000000000000000008160018151811061388e577f4e487b7100000000000000000000000000000000000000000000000000000000600052603260045260246000fd5b60200101907effffffffffffffffffffffffffffffffffffffffffffffffffffffffffffff1916908160001a905350600060018460026138ce9190614a4b565b6138d891906149c4565b90505b60018111156139c4577f3031323334353637383961626364656600000000000000000000000000000000600f861660108110613940577f4e487b7100000000000000000000000000000000000000000000000000000000600052603260045260246000fd5b1a60f81b82828151811061397d577f4e487b7100000000000000000000000000000000000000000000000000000000600052603260045260246000fd5b60200101907effffffffffffffffffffffffffffffffffffffffffffffffffffffffffffff1916908160001a905350600485901c9450806139bd90614b97565b90506138db565b5060008414613a08576040517f08c379a00000000000000000000000000000000000000000000000000000000081526004016139ff90614640565b60405180910390fd5b8091505092915050565b600081359050613a2181614cda565b92915050565b600081359050613a3681614cf1565b92915050565b600081359050613a4b81614d08565b92915050565b600081359050613a6081614d1f565b92915050565b600081359050613a7581614d36565b92915050565b600060208284031215613a8d57600080fd5b6000613a9b84828501613a12565b91505092915050565b60008060408385031215613ab757600080fd5b6000613ac585828601613a12565b9250506020613ad685828601613a12565b9150509250929050565b600080600060608486031215613af557600080fd5b6000613b0386828701613a12565b9350506020613b1486828701613a12565b9250506040613b2586828701613a66565b9150509250925092565b60008060408385031215613b4257600080fd5b6000613b5085828601613a12565b9250506020613b6185828601613a66565b9150509250929050565b600080600080600060a08688031215613b8357600080fd5b6000613b9188828901613a27565b9550506020613ba288828901613a66565b9450506040613bb388828901613a66565b9350506060613bc488828901613a66565b9250506080613bd588828901613a66565b9150509295509295909350565b600060208284031215613bf457600080fd5b6000613c0284828501613a3c565b91505092915050565b60008060408385031215613c1e57600080fd5b6000613c2c85828601613a3c565b9250506020613c3d85828601613a12565b9150509250929050565b600060208284031215613c5957600080fd5b6000613c6784828501613a51565b91505092915050565b600060208284031215613c8257600080fd5b6000613c9084828501613a66565b91505092915050565b60008060408385031215613cac57600080fd5b6000613cba85828601613a66565b9250506020613ccb85828601613a66565b9150509250929050565b600080600060608486031215613cea57600080fd5b6000613cf886828701613a66565b9350506020613d0986828701613a66565b9250506040613d1a86828701613a66565b9150509250925092565b613d2d81614ad9565b82525050565b613d3c81614aeb565b82525050565b613d4b81614af7565b82525050565b6000613d5c8261499d565b613d6681856149a8565b9350613d76818560208601614b64565b613d7f81614cc9565b840191505092915050565b6000613d958261499d565b613d9f81856149b9565b9350613daf818560208601614b64565b80840191505092915050565b6000613dc86020836149a8565b91507f537472696e67733a20686578206c656e67746820696e73756666696369656e746000830152602082019050919050565b6000613e086023836149a8565b91507f45524332303a207472616e7366657220746f20746865207a65726f206164647260008301527f65737300000000000000000000000000000000000000000000000000000000006020830152604082019050919050565b6000613e6e6014836149a8565b91507f5061757361626c653a206e6f74207061757365640000000000000000000000006000830152602082019050919050565b6000613eae6022836149a8565b91507f45524332303a206275726e20616d6f756e7420657863656564732062616c616e60008301527f63650000000000000000000000000000000000000000000000000000000000006020830152604082019050919050565b6000613f146022836149a8565b91507f45524332303a20617070726f766520746f20746865207a65726f20616464726560008301527f73730000000000000000000000000000000000000000000000000000000000006020830152604082019050919050565b6000613f7a6026836149a8565b91507f45524332303a207472616e7366657220616d6f756e742065786365656473206260008301527f616c616e636500000000000000000000000000000000000000000000000000006020830152604082019050919050565b6000613fe06027836149a8565b91507f4164647265737320686173206e6f20766f74657320617661696c61626c65207460008301527f6f20636c61696d000000000000000000000000000000000000000000000000006020830152604082019050919050565b60006140466010836149a8565b91507f5061757361626c653a20706175736564000000000000000000000000000000006000830152602082019050919050565b6000614086601c836149a8565b91507f4d757374206164642074696d652067726561746572207468616e2030000000006000830152602082019050919050565b60006140c66028836149a8565b91507f45524332303a207472616e7366657220616d6f756e742065786365656473206160008301527f6c6c6f77616e63650000000000000000000000000000000000000000000000006020830152604082019050919050565b600061412c6024836149a8565b91507f45524332303a206275726e20616d6f756e74206578636565647320616c6c6f7760008301527f616e6365000000000000000000000000000000000000000000000000000000006020830152604082019050919050565b60006141926013836149a8565b91507f506f6c6c20646f6573206e6f74206578697374000000000000000000000000006000830152602082019050919050565b60006141d26021836149a8565b91507f45524332303a206275726e2066726f6d20746865207a65726f2061646472657360008301527f73000000000000000000000000000000000000000000000000000000000000006020830152604082019050919050565b60006142386025836149a8565b91507f45524332303a207472616e736665722066726f6d20746865207a65726f20616460008301527f64726573730000000000000000000000000000000000000000000000000000006020830152604082019050919050565b600061429e603f836149a8565b91507f54686520616d6f756e74206f6620746f6b656e7320746f206265206275726e6560008301527f642f206d696e746564206d757374206265206c6172676572207468616e2030006020830152604082019050919050565b60006143046024836149a8565b91507f45524332303a20617070726f76652066726f6d20746865207a65726f2061646460008301527f72657373000000000000000000000000000000000000000000000000000000006020830152604082019050919050565b600061436a6017836149b9565b91507f416363657373436f6e74726f6c3a206163636f756e74200000000000000000006000830152601782019050919050565b60006143aa6047836149a8565b91507f4164647265737320686173206e6f20766f7465732063757272656e746c792c2060008301527f63616c6c2066756e6374696f6e20636c61696d566f746520746f20636c61696d60208301527f206120766f7465000000000000000000000000000000000000000000000000006040830152606082019050919050565b60006144366025836149a8565b91507f45524332303a2064656372656173656420616c6c6f77616e63652062656c6f7760008301527f207a65726f0000000000000000000000000000000000000000000000000000006020830152604082019050919050565b600061449c6011836149b9565b91507f206973206d697373696e6720726f6c65200000000000000000000000000000006000830152601182019050919050565b60006144dc602f836149a8565b91507f416363657373436f6e74726f6c3a2063616e206f6e6c792072656e6f756e636560008301527f20726f6c657320666f722073656c6600000000000000000000000000000000006020830152604082019050919050565b6000614542601f836149a8565b91507f45524332303a206d696e7420746f20746865207a65726f2061646472657373006000830152602082019050919050565b61457e81614b4d565b82525050565b61458d81614b57565b82525050565b600061459e8261435d565b91506145aa8285613d8a565b91506145b58261448f565b91506145c18284613d8a565b91508190509392505050565b60006020820190506145e26000830184613d24565b92915050565b60006020820190506145fd6000830184613d33565b92915050565b60006020820190506146186000830184613d42565b92915050565b600060208201905081810360008301526146388184613d51565b905092915050565b6000602082019050818103600083015261465981613dbb565b9050919050565b6000602082019050818103600083015261467981613dfb565b9050919050565b6000602082019050818103600083015261469981613e61565b9050919050565b600060208201905081810360008301526146b981613ea1565b9050919050565b600060208201905081810360008301526146d981613f07565b9050919050565b600060208201905081810360008301526146f981613f6d565b9050919050565b6000602082019050818103600083015261471981613fd3565b9050919050565b6000602082019050818103600083015261473981614039565b9050919050565b6000602082019050818103600083015261475981614079565b9050919050565b60006020820190508181036000830152614779816140b9565b9050919050565b600060208201905081810360008301526147998161411f565b9050919050565b600060208201905081810360008301526147b981614185565b9050919050565b600060208201905081810360008301526147d9816141c5565b9050919050565b600060208201905081810360008301526147f98161422b565b9050919050565b6000602082019050818103600083015261481981614291565b9050919050565b60006020820190508181036000830152614839816142f7565b9050919050565b600060208201905081810360008301526148598161439d565b9050919050565b6000602082019050818103600083015261487981614429565b9050919050565b60006020820190508181036000830152614899816144cf565b9050919050565b600060208201905081810360008301526148b981614535565b9050919050565b60006020820190506148d56000830184614575565b92915050565b60006040820190506148f06000830185614575565b6148fd6020830184614575565b9392505050565b60006101008201905061491a600083018b614575565b614927602083018a614575565b6149346040830189613d33565b6149416060830188614575565b61494e6080830187614575565b61495b60a0830186614575565b61496860c0830185614575565b61497560e0830184613d33565b9998505050505050505050565b60006020820190506149976000830184614584565b92915050565b600081519050919050565b600082825260208201905092915050565b600081905092915050565b60006149cf82614b4d565b91506149da83614b4d565b9250827fffffffffffffffffffffffffffffffffffffffffffffffffffffffffffffffff03821115614a0f57614a0e614c3c565b5b828201905092915050565b6000614a2582614b4d565b9150614a3083614b4d565b925082614a4057614a3f614c6b565b5b828204905092915050565b6000614a5682614b4d565b9150614a6183614b4d565b9250817fffffffffffffffffffffffffffffffffffffffffffffffffffffffffffffffff0483118215151615614a9a57614a99614c3c565b5b828202905092915050565b6000614ab082614b4d565b9150614abb83614b4d565b925082821015614ace57614acd614c3c565b5b828203905092915050565b6000614ae482614b2d565b9050919050565b60008115159050919050565b6000819050919050565b60007fffffffff0000000000000000000000000000000000000000000000000000000082169050919050565b600073ffffffffffffffffffffffffffffffffffffffff82169050919050565b6000819050919050565b600060ff82169050919050565b60005b83811015614b82578082015181840152602081019050614b67565b83811115614b91576000848401525b50505050565b6000614ba282614b4d565b91506000821415614bb657614bb5614c3c565b5b600182039050919050565b60006002820490506001821680614bd957607f821691505b60208210811415614bed57614bec614c9a565b5b50919050565b6000614bfe82614b4d565b91507fffffffffffffffffffffffffffffffffffffffffffffffffffffffffffffffff821415614c3157614c30614c3c565b5b600182019050919050565b7f4e487b7100000000000000000000000000000000000000000000000000000000600052601160045260246000fd5b7f4e487b7100000000000000000000000000000000000000000000000000000000600052601260045260246000fd5b7f4e487b7100000000000000000000000000000000000000000000000000000000600052602260045260246000fd5b6000601f19601f8301169050919050565b614ce381614ad9565b8114614cee57600080fd5b50565b614cfa81614aeb565b8114614d0557600080fd5b50565b614d1181614af7565b8114614d1c57600080fd5b50565b614d2881614b01565b8114614d3357600080fd5b50565b614d3f81614b4d565b8114614d4a57600080fd5b5056fea2646970667358221220c6f2bed7142bd529add2bf9978779cafbb0723500b700548131bb79a27fbea0e64736f6c63430008000033",
  "immutableReferences": {},
  "source": "// SPDX-License-Identifier: MIT\npragma solidity >=0.4.22 <0.9.0;\n\nimport \"@openzeppelin/contracts/token/ERC20/ERC20.sol\";\nimport \"@openzeppelin/contracts/token/ERC20/extensions/ERC20Burnable.sol\";\nimport \"@openzeppelin/contracts/access/AccessControl.sol\";\nimport \"@openzeppelin/contracts/utils/math/SafeMath.sol\";\nimport \"@openzeppelin/contracts/security/Pausable.sol\";\n\ncontract Mai is ERC20, ERC20Burnable, AccessControl, Pausable{\n    using SafeMath for uint256;\n    bytes32 public constant PAUSER_ROLE = keccak256(\"PAUSER_ROLE\");\n    bytes32 public constant MINTER_ROLE = keccak256(\"MINTER_ROLE\");\n    bytes32 public constant VOTER_ROLE = keccak256(\"VOTER_ROLE\");\n    bytes32 public constant STAKER_ROLE = keccak256(\"STAKER_ROLE\");\n\n    event _VoteMade(uint256 indexed pollID, uint256 votes, address indexed voter, uint256 side);\n    event _VoteClaimed(address indexed voter, uint256 amountClaimed);\n    event _VoteRevoked(uint256 indexed pollID, uint256 votes, address indexed voter); \n    event _VotingTimeAdded(uint256 indexed lengthExtended, uint256 indexed NewCommitDuration);\n    event _VoteEnded(uint256 indexed pollID);\n    event _RewardsMinted(uint256 indexed pollID, uint256 indexed amount);\n    event _RewardsBurned(uint256 indexed pollID, uint256 indexed amount);\n    event _PollCreated(uint voteAmount, uint commitEndDate, uint indexed pollID, address indexed creator);\n    event _VotingRightsGranted(address indexed voter);\n    event _VotingRightsRevoked(address indexed voter);\n    event _resultsGenerated(uint256 amountMinted, uint256 pollID);\n\n    constructor() ERC20(\"Mai\", \"MAI\") {\n        _mint(msg.sender, 1000 * 10 ** decimals());\n        _setupRole(DEFAULT_ADMIN_ROLE, msg.sender);\n        _setupRole(MINTER_ROLE, msg.sender);\n        _setupRole(VOTER_ROLE, msg.sender);\n        _setupRole(STAKER_ROLE, msg.sender);\n    }\n\n    struct Poll {\n        uint256 commitEndDate; // Date when poll ends\n        uint256 voteAmount; // Amount of votes minted/ burned if poll is passed\n        bool quorumOption; // Allows option to judge voting process by percentage \n        uint256 voteQuorum; // The percentage of for votes required for poll to pass\n        uint256 votesFor; // Amount of votes supporting the proposal \n        uint256 votesAgainst; // Amount of votes countering the proposal\n        uint256 option; // Option 1: Minting tokens; Option 2: Burning tokens\n        bool ongoing; // Returns true if poll is still active\n        mapping(address => uint256) _votesClaimed; // Amount of votes already claimed by the voter\n        mapping(address => bool) _participant; // Maps address of user to whether they have voted in an active poll\n        mapping(address => uint256) _votes; // Amount of votes placed by the voter\n        mapping(address => uint256) _side; // The side the voter is on if they already voted\n    }\n\n    \n    mapping (uint256 => Poll) public pollMapping; // Maps the pollID to the struct\n    mapping (uint256 => uint256) public totalVotes; // Maps the pollID to its respective number of votes\n    mapping (address => uint256) public stakedTotal; // Maps the user address to their total staked balance in all categories\n    uint256 pollNonce = 0; // Counter for pollID\n    address stakingAddress; // Address used for storing staked tokens\n\n    /**\n    @dev Initiates poll and emits PollCreate event\n    @param _quorumOption Users can decide if the winner is decided by the percentage majority out of 100 or whether the 'for' side has more votes than the 'against' side\n    @param _voteQuorum Assumes that the _quorumOption is false, passes in the percentage majority out of 100 that is required to win the vote\n    @param _voteAmount The amount of tokens minted/burned if poll is successful \n    @param _commitDuration Length of the poll in seconds\n    @param _option Type of poll, option 1 is for minting tokens, option 2 is for burning tokens \n    */\n\n    function startPoll(bool _quorumOption, uint256 _voteQuorum, uint256 _voteAmount, uint256 _commitDuration, uint256 _option) public returns (uint256 pollID) {\n        require ((_quorumOption == false && _voteQuorum == 0) || (_quorumOption == true && _voteQuorum > 0));\n        require (_voteAmount > 0, \"The amount of tokens to be burned/ minted must be larger than 0\");\n        uint256 commitEndDate = block.timestamp.add(_commitDuration);\n        pollNonce = pollNonce.add(1);\n        Poll storage newPoll = pollMapping[pollNonce];\n        newPoll.option = _option;\n        newPoll.quorumOption = _quorumOption;\n        newPoll.voteQuorum = _voteQuorum;\n        newPoll.voteAmount = _voteAmount;\n        newPoll.commitEndDate = commitEndDate;\n        newPoll.votesFor = 0;\n        newPoll.votesAgainst = 0;\n        newPoll.ongoing = true;\n\n        emit _PollCreated(_voteAmount, commitEndDate, pollNonce, msg.sender);\n        return pollNonce;\n    }\n\n    /**\n    @dev Allocates voter role to stakers and emits event\n    @param voter address of staker\n    */\n\n    function voterAllocation(address voter) public {\n        require(hasRole(STAKER_ROLE, msg.sender));\n        grantRole(VOTER_ROLE, voter);\n        emit _VotingRightsGranted(voter);\n    }\n\n    /**\n    @dev Revokes votes that are already made and returns the vote to msg.sender\n    @param amount Amount of votes to be revoked\n    @param pollID ID of poll\n    */\n\n    function revokeVote(uint256 amount, uint256 pollID) public {\n        require(msg.sender != address(0));\n        require(pollMapping[pollID].ongoing = true);\n        require(isNotExpired(pollID));\n        require(amount <= pollMapping[pollID]._votes[msg.sender]);\n        pollMapping[pollID]._votes[msg.sender] = pollMapping[pollID]._votes[msg.sender].sub(amount);\n        pollMapping[pollID]._votesClaimed[msg.sender] = pollMapping[pollID]._votesClaimed[msg.sender].add(amount);\n        if (pollMapping[pollID]._votes[msg.sender] == 0) {\n            pollMapping[pollID]._participant[msg.sender] = false;\n        }\n        totalVotes[pollID] = totalVotes[pollID].sub(amount);\n    }\n\n    /**\n    @dev a random transfer function for no apparent reason\n    */\n\n    function transfer(address recipient, uint256 amount) public virtual override returns (bool) {\n        _transfer(_msgSender(), recipient, amount);\n        return true;\n    }\n\n    /**\n    @dev Function that takes away voter role from addresses when necessary\n    @param voter Voter that is going to get their role revoked\n    */\n\n    function voterRevokation(address voter) public {\n        require(hasRole(VOTER_ROLE, msg.sender));\n        require(voter != address(0));\n        revokeRole(VOTER_ROLE, voter);\n        emit _VotingRightsRevoked(voter);\n    }\n\n    /**\n    @dev Checks if user has voter role\n    @param voter Address of voter\n    */\n\n    modifier voterCheck(address voter) {\n        require(hasRole(VOTER_ROLE, voter));\n        _;\n    }\n\n    /**\n    @dev Claims votes from existing staked tokens and stores available votes at _votes\n    @param pollID ID of vote\n    */\n\n    function claimVote(uint256 pollID) public voterCheck(msg.sender) {\n        require(msg.sender != address(0));\n        uint256 claimable = stakedTotal[msg.sender].sub(pollMapping[pollID]._votesClaimed[msg.sender]).sub(999);\n        require(claimable > 0, \"Address has no votes available to claim\");\n        pollMapping[pollID]._votesClaimed[msg.sender] = pollMapping[pollID]._votesClaimed[msg.sender].add(claimable);\n        pollMapping[pollID]._votes[msg.sender] = pollMapping[pollID]._votes[msg.sender].add(claimable);\n        emit _VoteClaimed(msg.sender, claimable);\n    }\n\n    /**\n    @dev Returns number of votes available to users\n    @param voter Address of requested voter\n    @param pollID ID of poll\n    */\n\n    function numOfVotes(address voter, uint256 pollID) public view returns (uint256 votes) {\n        require(voter != address(0));\n        return pollMapping[pollID]._votes[voter]; \n    }\n\n    /**\n    @dev Voters makes votes on corresponding polls, deducting their _votes and emitting _VoteMade event\n    @param votesMade Amount of votes going to be made\n    @param pollID ID of the poll\n    @param side The side of the poll the user wants to support (1: for; 2: against)\n    */\n\n\n    function makeVote(uint256 votesMade, uint256 pollID, uint256 side) public voterCheck(msg.sender) {\n        require(msg.sender != address(0));\n        require(pollMapping[pollID].ongoing = true);\n        require(isNotExpired(pollID));\n        require(pollMapping[pollID]._votes[msg.sender] > 0, \"Address has no votes currently, call function claimVote to claim a vote\");\n        require(votesMade <= pollMapping[pollID]._votes[msg.sender]);\n        require(pollMapping[pollID]._side[msg.sender] == 0 || pollMapping[pollID]._side[msg.sender] == side);\n        require(side == 1 || side == 2);\n        if (side == 1) {\n            pollMapping[pollID].votesFor = pollMapping[pollID].votesFor.add(1);\n        } else if (side == 2) {\n            pollMapping[pollID].votesAgainst = pollMapping[pollID].votesAgainst.add(1);\n        }\n        pollMapping[pollID]._side[msg.sender] = side;\n        pollMapping[pollID]._votes[msg.sender] = pollMapping[pollID]._votes[msg.sender].sub(votesMade);\n        totalVotes[pollID] = totalVotes[pollID].add(1);\n        pollMapping[pollID]._participant[msg.sender] = true;\n        emit _VoteMade(pollID, votesMade, msg.sender, side); \n    }\n\n    /**\n    @dev Returns whether the poll/ proposal passed the voting\n    @param pollID ID of the poll\n    */\n\n    function results(uint256 pollID) public returns (bool passed) {\n        endPoll(pollID);\n        require(isNotExpired(pollID) == false);\n        require(pollExists(pollID));\n        if (pollMapping[pollID].quorumOption == false) {\n            if (pollMapping[pollID].votesFor > pollMapping[pollID].votesAgainst) {\n                return (true);\n            } else if (pollMapping[pollID].votesFor < pollMapping[pollID].votesAgainst) {\n                return (false);\n            } else {\n                return (false);\n            }\n        } else if (pollMapping[pollID].quorumOption == true) {\n            if (quorumCalc(pollID) >= pollMapping[pollID].voteQuorum) {\n                return (true);\n            } else if (quorumCalc(pollID) < pollMapping[pollID].voteQuorum) {\n                return  (false);\n            } else {\n                return (false);\n            }\n        }\n    }\n\n    /**\n    @dev Calculates the percentage of voters that supports the proposal\n    @param pollID ID of the poll\n    */\n\n    function quorumCalc(uint256 pollID) public view returns (uint256 result) {\n        require (totalVotes[pollID] > 0);\n        require (pollExists(pollID), \"Poll does not exist\");\n        uint256 ans = pollMapping[pollID].votesFor.div(totalVotes[pollID]);\n        ans = ans.mul(100);\n        return ans;\n    }\n\n    /**\n    @dev Ends the poll instantly if necessary\n    @param pollID ID of the poll\n    */\n\n    function endPoll(uint pollID) public {\n        require(hasRole(PAUSER_ROLE, msg.sender));\n        require(pollExists(pollID));\n        pollMapping[pollID].ongoing = false;\n    }\n\n    /**\n    @dev Burns the proposed amount of tokens after the poll has ended and passed\n    @param pollID ID of the poll\n    */\n\n    function burnRewards (uint256 pollID) public payable {\n        require(pollMapping[pollID].option == 2);\n        require(pollMapping[pollID].ongoing == false);\n        _beforeTokenTransfer(msg.sender, address(0), pollMapping[pollID].voteAmount);\n        burn(pollMapping[pollID].voteAmount);\n        emit _resultsGenerated(pollMapping[pollID].voteAmount, pollID);\n    }\n\n    /**\n    @dev Mints the proposed amount of tokens after the poll has ended and passed\n    @param pollID ID of the poll\n    */\n        \n\n    function mintRewards (uint256 pollID) public payable {\n        require(pollMapping[pollID].option == 1);\n        require(pollMapping[pollID].ongoing == false);\n        _beforeTokenTransfer(address(0), msg.sender, pollMapping[pollID].voteAmount);\n        _mint(msg.sender, pollMapping[pollID].voteAmount);\n        emit _resultsGenerated(pollMapping[pollID].voteAmount, pollID);  \n    }\n\n    /**\n    @dev Adds time to the commit duration of the poll\n    @param pollID ID of the poll\n    @param timeAdded Amount of time to be added to the poll\n    */\n    \n    function addTime(uint256 pollID, uint256 timeAdded) public {\n        require (pollExists(pollID)); \n        require(timeAdded > 0, \"Must add time greater than 0\");\n        pollMapping[pollID].commitEndDate = pollMapping[pollID].commitEndDate.add(timeAdded); \n    }\n\n    /**\n    @dev Checks if the address of the voter has participated in any active poll\n    @param voter Address of the voter\n    */\n\n    function checkParticipation(address voter) public view returns(bool participating){\n        for (uint256 i = 1; i < pollNonce; i++) {\n            if (pollMapping[i].ongoing == true && pollMapping[i]._participant[voter] == true) {\n                return true;\n            }\n        }\n        return false;\n    }\n\n    function pause() public {\n        require(hasRole(PAUSER_ROLE, msg.sender));\n        _pause();\n    }\n\n    function unpause() public {\n        require(hasRole(PAUSER_ROLE, msg.sender));\n        _unpause();\n    }\n\n    function _beforeTokenTransfer(address from, address to, uint256 amount)\n        internal\n        override\n    {\n        super._beforeTokenTransfer(from, to, amount);\n    }\n\n    function mint(address to, uint256 amount) public {\n        require(hasRole(MINTER_ROLE, msg.sender));\n        _mint(to, amount);\n        _beforeTokenTransfer(address(0), msg.sender, amount);\n    }\n\n    /**\n    @dev Checks if poll exists and returns a boolean value\n    @param _pollID ID of the poll\n    */\n\n    function pollExists(uint256 _pollID) public view returns (bool exists) {\n        return (_pollID != 0 && _pollID <= pollNonce);\n    }\n\n    /**\n    @dev Checks of poll has ended or not\n    @param _pollID ID of the poll\n    */\n\n    function pollEnded(uint256 _pollID) public view returns (bool ended) {\n        require(pollExists(_pollID));\n\n        return isNotExpired(pollMapping[_pollID].commitEndDate);\n    }\n\n    /**\n    @dev Checks if a date has expired or not\n    @param _terminationDate The date for checking\n    */\n\n    function isNotExpired(uint256 _terminationDate) public view returns (bool expired) {\n        return (block.timestamp < _terminationDate);\n    }\n\n}\n",
  "sourcePath": "/Users/colinlam/Desktop/code/MaiContract/contracts/MaiGeneration.sol",
  "compiler": {
    "name": "solc",
    "version": "0.8.0+commit.c7dfd78e.Emscripten.clang"
  },
  "schemaVersion": "3.4.1",
  "updatedAt": "2021-07-06T09:03:09.195Z",
  "devdoc": {
    "kind": "dev",
    "methods": {
      "addTime(uint256,uint256)": {
        "details": "Adds time to the commit duration of the poll",
        "params": {
          "pollID": "ID of the poll",
          "timeAdded": "Amount of time to be added to the poll"
        }
      },
      "allowance(address,address)": {
        "details": "See {IERC20-allowance}."
      },
      "approve(address,uint256)": {
        "details": "See {IERC20-approve}. Requirements: - `spender` cannot be the zero address."
      },
      "balanceOf(address)": {
        "details": "See {IERC20-balanceOf}."
      },
      "burn(uint256)": {
        "details": "Destroys `amount` tokens from the caller. See {ERC20-_burn}."
      },
      "burnFrom(address,uint256)": {
        "details": "Destroys `amount` tokens from `account`, deducting from the caller's allowance. See {ERC20-_burn} and {ERC20-allowance}. Requirements: - the caller must have allowance for ``accounts``'s tokens of at least `amount`."
      },
      "burnRewards(uint256)": {
        "details": "Burns the proposed amount of tokens after the poll has ended and passed",
        "params": {
          "pollID": "ID of the poll"
        }
      },
      "checkParticipation(address)": {
        "details": "Checks if the address of the voter has participated in any active poll",
        "params": {
          "voter": "Address of the voter"
        }
      },
      "claimVote(uint256)": {
        "details": "Claims votes from existing staked tokens and stores available votes at _votes",
        "params": {
          "pollID": "ID of vote"
        }
      },
      "decimals()": {
        "details": "Returns the number of decimals used to get its user representation. For example, if `decimals` equals `2`, a balance of `505` tokens should be displayed to a user as `5,05` (`505 / 10 ** 2`). Tokens usually opt for a value of 18, imitating the relationship between Ether and Wei. This is the value {ERC20} uses, unless this function is overridden; NOTE: This information is only used for _display_ purposes: it in no way affects any of the arithmetic of the contract, including {IERC20-balanceOf} and {IERC20-transfer}."
      },
      "decreaseAllowance(address,uint256)": {
        "details": "Atomically decreases the allowance granted to `spender` by the caller. This is an alternative to {approve} that can be used as a mitigation for problems described in {IERC20-approve}. Emits an {Approval} event indicating the updated allowance. Requirements: - `spender` cannot be the zero address. - `spender` must have allowance for the caller of at least `subtractedValue`."
      },
      "endPoll(uint256)": {
        "details": "Ends the poll instantly if necessary",
        "params": {
          "pollID": "ID of the poll"
        }
      },
      "getRoleAdmin(bytes32)": {
        "details": "Returns the admin role that controls `role`. See {grantRole} and {revokeRole}. To change a role's admin, use {_setRoleAdmin}."
      },
      "grantRole(bytes32,address)": {
        "details": "Grants `role` to `account`. If `account` had not been already granted `role`, emits a {RoleGranted} event. Requirements: - the caller must have ``role``'s admin role."
      },
      "hasRole(bytes32,address)": {
        "details": "Returns `true` if `account` has been granted `role`."
      },
      "increaseAllowance(address,uint256)": {
        "details": "Atomically increases the allowance granted to `spender` by the caller. This is an alternative to {approve} that can be used as a mitigation for problems described in {IERC20-approve}. Emits an {Approval} event indicating the updated allowance. Requirements: - `spender` cannot be the zero address."
      },
      "isNotExpired(uint256)": {
        "details": "Checks if a date has expired or not",
        "params": {
          "_terminationDate": "The date for checking"
        }
      },
      "makeVote(uint256,uint256,uint256)": {
        "details": "Voters makes votes on corresponding polls, deducting their _votes and emitting _VoteMade event",
        "params": {
          "pollID": "ID of the poll",
          "side": "The side of the poll the user wants to support (1: for; 2: against)",
          "votesMade": "Amount of votes going to be made"
        }
      },
      "mintRewards(uint256)": {
        "details": "Mints the proposed amount of tokens after the poll has ended and passed",
        "params": {
          "pollID": "ID of the poll"
        }
      },
      "name()": {
        "details": "Returns the name of the token."
      },
      "numOfVotes(address,uint256)": {
        "details": "Returns number of votes available to users",
        "params": {
          "pollID": "ID of poll",
          "voter": "Address of requested voter"
        }
      },
      "paused()": {
        "details": "Returns true if the contract is paused, and false otherwise."
      },
      "pollEnded(uint256)": {
        "details": "Checks of poll has ended or not",
        "params": {
          "_pollID": "ID of the poll"
        }
      },
      "pollExists(uint256)": {
        "details": "Checks if poll exists and returns a boolean value",
        "params": {
          "_pollID": "ID of the poll"
        }
      },
      "quorumCalc(uint256)": {
        "details": "Calculates the percentage of voters that supports the proposal",
        "params": {
          "pollID": "ID of the poll"
        }
      },
      "renounceRole(bytes32,address)": {
        "details": "Revokes `role` from the calling account. Roles are often managed via {grantRole} and {revokeRole}: this function's purpose is to provide a mechanism for accounts to lose their privileges if they are compromised (such as when a trusted device is misplaced). If the calling account had been granted `role`, emits a {RoleRevoked} event. Requirements: - the caller must be `account`."
      },
      "results(uint256)": {
        "details": "Returns whether the poll/ proposal passed the voting",
        "params": {
          "pollID": "ID of the poll"
        }
      },
      "revokeRole(bytes32,address)": {
        "details": "Revokes `role` from `account`. If `account` had been granted `role`, emits a {RoleRevoked} event. Requirements: - the caller must have ``role``'s admin role."
      },
      "revokeVote(uint256,uint256)": {
        "details": "Revokes votes that are already made and returns the vote to msg.sender",
        "params": {
          "amount": "Amount of votes to be revoked",
          "pollID": "ID of poll"
        }
      },
      "startPoll(bool,uint256,uint256,uint256,uint256)": {
        "details": "Initiates poll and emits PollCreate event",
        "params": {
          "_commitDuration": "Length of the poll in seconds",
          "_option": "Type of poll, option 1 is for minting tokens, option 2 is for burning tokens ",
          "_quorumOption": "Users can decide if the winner is decided by the percentage majority out of 100 or whether the 'for' side has more votes than the 'against' side",
          "_voteAmount": "The amount of tokens minted/burned if poll is successful ",
          "_voteQuorum": "Assumes that the _quorumOption is false, passes in the percentage majority out of 100 that is required to win the vote"
        }
      },
      "supportsInterface(bytes4)": {
        "details": "See {IERC165-supportsInterface}."
      },
      "symbol()": {
        "details": "Returns the symbol of the token, usually a shorter version of the name."
      },
      "totalSupply()": {
        "details": "See {IERC20-totalSupply}."
      },
      "transfer(address,uint256)": {
        "details": "a random transfer function for no apparent reason"
      },
      "transferFrom(address,address,uint256)": {
        "details": "See {IERC20-transferFrom}. Emits an {Approval} event indicating the updated allowance. This is not required by the EIP. See the note at the beginning of {ERC20}. Requirements: - `sender` and `recipient` cannot be the zero address. - `sender` must have a balance of at least `amount`. - the caller must have allowance for ``sender``'s tokens of at least `amount`."
      },
      "voterAllocation(address)": {
        "details": "Allocates voter role to stakers and emits event",
        "params": {
          "voter": "address of staker"
        }
      },
      "voterRevokation(address)": {
        "details": "Function that takes away voter role from addresses when necessary",
        "params": {
          "voter": "Voter that is going to get their role revoked"
        }
      }
    },
    "version": 1
  },
  "userdoc": {
    "kind": "user",
    "methods": {},
    "version": 1
  }
}