{
  "contractName": "Mai",
  "abi": [
    {
      "inputs": [],
      "stateMutability": "nonpayable",
      "type": "constructor"
    },
    {
      "anonymous": false,
      "inputs": [
        {
          "indexed": true,
          "internalType": "address",
          "name": "owner",
          "type": "address"
        },
        {
          "indexed": true,
          "internalType": "address",
          "name": "spender",
          "type": "address"
        },
        {
          "indexed": false,
          "internalType": "uint256",
          "name": "value",
          "type": "uint256"
        }
      ],
      "name": "Approval",
      "type": "event"
    },
    {
      "anonymous": false,
      "inputs": [
        {
          "indexed": false,
          "internalType": "address",
          "name": "account",
          "type": "address"
        }
      ],
      "name": "Paused",
      "type": "event"
    },
    {
      "anonymous": false,
      "inputs": [
        {
          "indexed": true,
          "internalType": "bytes32",
          "name": "role",
          "type": "bytes32"
        },
        {
          "indexed": true,
          "internalType": "bytes32",
          "name": "previousAdminRole",
          "type": "bytes32"
        },
        {
          "indexed": true,
          "internalType": "bytes32",
          "name": "newAdminRole",
          "type": "bytes32"
        }
      ],
      "name": "RoleAdminChanged",
      "type": "event"
    },
    {
      "anonymous": false,
      "inputs": [
        {
          "indexed": true,
          "internalType": "bytes32",
          "name": "role",
          "type": "bytes32"
        },
        {
          "indexed": true,
          "internalType": "address",
          "name": "account",
          "type": "address"
        },
        {
          "indexed": true,
          "internalType": "address",
          "name": "sender",
          "type": "address"
        }
      ],
      "name": "RoleGranted",
      "type": "event"
    },
    {
      "anonymous": false,
      "inputs": [
        {
          "indexed": true,
          "internalType": "bytes32",
          "name": "role",
          "type": "bytes32"
        },
        {
          "indexed": true,
          "internalType": "address",
          "name": "account",
          "type": "address"
        },
        {
          "indexed": true,
          "internalType": "address",
          "name": "sender",
          "type": "address"
        }
      ],
      "name": "RoleRevoked",
      "type": "event"
    },
    {
      "anonymous": false,
      "inputs": [
        {
          "indexed": false,
          "internalType": "uint256",
          "name": "id",
          "type": "uint256"
        }
      ],
      "name": "Snapshot",
      "type": "event"
    },
    {
      "anonymous": false,
      "inputs": [
        {
          "indexed": true,
          "internalType": "address",
          "name": "from",
          "type": "address"
        },
        {
          "indexed": true,
          "internalType": "address",
          "name": "to",
          "type": "address"
        },
        {
          "indexed": false,
          "internalType": "uint256",
          "name": "value",
          "type": "uint256"
        }
      ],
      "name": "Transfer",
      "type": "event"
    },
    {
      "anonymous": false,
      "inputs": [
        {
          "indexed": false,
          "internalType": "address",
          "name": "account",
          "type": "address"
        }
      ],
      "name": "Unpaused",
      "type": "event"
    },
    {
      "anonymous": false,
      "inputs": [
        {
          "indexed": false,
          "internalType": "uint256",
          "name": "minStake",
          "type": "uint256"
        }
      ],
      "name": "_MinimumStakeChanged",
      "type": "event"
    },
    {
      "anonymous": false,
      "inputs": [
        {
          "indexed": true,
          "internalType": "address",
          "name": "to",
          "type": "address"
        },
        {
          "indexed": false,
          "internalType": "uint256",
          "name": "amount",
          "type": "uint256"
        }
      ],
      "name": "_Minted",
      "type": "event"
    },
    {
      "anonymous": false,
      "inputs": [
        {
          "indexed": false,
          "internalType": "uint256",
          "name": "votedTokenAmount",
          "type": "uint256"
        },
        {
          "indexed": false,
          "internalType": "uint256",
          "name": "end",
          "type": "uint256"
        },
        {
          "indexed": true,
          "internalType": "uint256",
          "name": "pollID",
          "type": "uint256"
        },
        {
          "indexed": true,
          "internalType": "address",
          "name": "creator",
          "type": "address"
        }
      ],
      "name": "_PollCreated",
      "type": "event"
    },
    {
      "anonymous": false,
      "inputs": [
        {
          "indexed": false,
          "internalType": "uint256",
          "name": "amount",
          "type": "uint256"
        },
        {
          "indexed": false,
          "internalType": "uint256",
          "name": "pollID",
          "type": "uint256"
        }
      ],
      "name": "_ResultsGenerated",
      "type": "event"
    },
    {
      "anonymous": false,
      "inputs": [
        {
          "indexed": true,
          "internalType": "uint256",
          "name": "pollID",
          "type": "uint256"
        },
        {
          "indexed": true,
          "internalType": "uint256",
          "name": "amount",
          "type": "uint256"
        }
      ],
      "name": "_RewardsBurned",
      "type": "event"
    },
    {
      "anonymous": false,
      "inputs": [
        {
          "indexed": true,
          "internalType": "uint256",
          "name": "pollID",
          "type": "uint256"
        },
        {
          "indexed": true,
          "internalType": "uint256",
          "name": "amount",
          "type": "uint256"
        }
      ],
      "name": "_RewardsMinted",
      "type": "event"
    },
    {
      "anonymous": false,
      "inputs": [
        {
          "indexed": false,
          "internalType": "address",
          "name": "to",
          "type": "address"
        }
      ],
      "name": "_StakerGranted",
      "type": "event"
    },
    {
      "anonymous": false,
      "inputs": [
        {
          "indexed": false,
          "internalType": "address",
          "name": "account",
          "type": "address"
        },
        {
          "indexed": false,
          "internalType": "uint256",
          "name": "amountReturned",
          "type": "uint256"
        }
      ],
      "name": "_StakerRoleRevoked",
      "type": "event"
    },
    {
      "anonymous": false,
      "inputs": [
        {
          "indexed": false,
          "internalType": "address",
          "name": "account",
          "type": "address"
        },
        {
          "indexed": false,
          "internalType": "uint256",
          "name": "amount",
          "type": "uint256"
        }
      ],
      "name": "_StakesDeposited",
      "type": "event"
    },
    {
      "anonymous": false,
      "inputs": [
        {
          "indexed": false,
          "internalType": "address",
          "name": "account",
          "type": "address"
        },
        {
          "indexed": false,
          "internalType": "uint256",
          "name": "amount",
          "type": "uint256"
        }
      ],
      "name": "_StakesWithdrawn",
      "type": "event"
    },
    {
      "anonymous": false,
      "inputs": [
        {
          "indexed": true,
          "internalType": "address",
          "name": "voter",
          "type": "address"
        },
        {
          "indexed": false,
          "internalType": "uint256",
          "name": "amountClaimed",
          "type": "uint256"
        }
      ],
      "name": "_VoteClaimed",
      "type": "event"
    },
    {
      "anonymous": false,
      "inputs": [
        {
          "indexed": true,
          "internalType": "uint256",
          "name": "pollID",
          "type": "uint256"
        }
      ],
      "name": "_VoteEnded",
      "type": "event"
    },
    {
      "anonymous": false,
      "inputs": [
        {
          "indexed": true,
          "internalType": "uint256",
          "name": "pollID",
          "type": "uint256"
        },
        {
          "indexed": false,
          "internalType": "uint256",
          "name": "votes",
          "type": "uint256"
        },
        {
          "indexed": true,
          "internalType": "address",
          "name": "voter",
          "type": "address"
        },
        {
          "indexed": false,
          "internalType": "uint256",
          "name": "side",
          "type": "uint256"
        }
      ],
      "name": "_VoteMade",
      "type": "event"
    },
    {
      "anonymous": false,
      "inputs": [
        {
          "indexed": true,
          "internalType": "uint256",
          "name": "pollID",
          "type": "uint256"
        },
        {
          "indexed": false,
          "internalType": "uint256",
          "name": "votes",
          "type": "uint256"
        },
        {
          "indexed": true,
          "internalType": "address",
          "name": "voter",
          "type": "address"
        }
      ],
      "name": "_VoteRevoked",
      "type": "event"
    },
    {
      "anonymous": false,
      "inputs": [
        {
          "indexed": true,
          "internalType": "address",
          "name": "voter",
          "type": "address"
        }
      ],
      "name": "_VotingRightsGranted",
      "type": "event"
    },
    {
      "anonymous": false,
      "inputs": [
        {
          "indexed": true,
          "internalType": "address",
          "name": "voter",
          "type": "address"
        }
      ],
      "name": "_VotingRightsRevoked",
      "type": "event"
    },
    {
      "inputs": [],
      "name": "DEFAULT_ADMIN_ROLE",
      "outputs": [
        {
          "internalType": "bytes32",
          "name": "",
          "type": "bytes32"
        }
      ],
      "stateMutability": "view",
      "type": "function"
    },
    {
      "inputs": [],
      "name": "OWNER_ROLE",
      "outputs": [
        {
          "internalType": "bytes32",
          "name": "",
          "type": "bytes32"
        }
      ],
      "stateMutability": "view",
      "type": "function"
    },
    {
      "inputs": [],
      "name": "PAUSER_ROLE",
      "outputs": [
        {
          "internalType": "bytes32",
          "name": "",
          "type": "bytes32"
        }
      ],
      "stateMutability": "view",
      "type": "function"
    },
    {
      "inputs": [],
      "name": "SNAPSHOT_ROLE",
      "outputs": [
        {
          "internalType": "bytes32",
          "name": "",
          "type": "bytes32"
        }
      ],
      "stateMutability": "view",
      "type": "function"
    },
    {
      "inputs": [],
      "name": "STAKER_ROLE",
      "outputs": [
        {
          "internalType": "bytes32",
          "name": "",
          "type": "bytes32"
        }
      ],
      "stateMutability": "view",
      "type": "function"
    },
    {
      "inputs": [],
      "name": "VOTER_ROLE",
      "outputs": [
        {
          "internalType": "bytes32",
          "name": "",
          "type": "bytes32"
        }
      ],
      "stateMutability": "view",
      "type": "function"
    },
    {
      "inputs": [
        {
          "internalType": "address",
          "name": "owner",
          "type": "address"
        },
        {
          "internalType": "address",
          "name": "spender",
          "type": "address"
        }
      ],
      "name": "allowance",
      "outputs": [
        {
          "internalType": "uint256",
          "name": "",
          "type": "uint256"
        }
      ],
      "stateMutability": "view",
      "type": "function"
    },
    {
      "inputs": [
        {
          "internalType": "address",
          "name": "spender",
          "type": "address"
        },
        {
          "internalType": "uint256",
          "name": "amount",
          "type": "uint256"
        }
      ],
      "name": "approve",
      "outputs": [
        {
          "internalType": "bool",
          "name": "",
          "type": "bool"
        }
      ],
      "stateMutability": "nonpayable",
      "type": "function"
    },
    {
      "inputs": [
        {
          "internalType": "address",
          "name": "account",
          "type": "address"
        }
      ],
      "name": "balanceOf",
      "outputs": [
        {
          "internalType": "uint256",
          "name": "",
          "type": "uint256"
        }
      ],
      "stateMutability": "view",
      "type": "function"
    },
    {
      "inputs": [
        {
          "internalType": "address",
          "name": "account",
          "type": "address"
        },
        {
          "internalType": "uint256",
          "name": "snapshotId",
          "type": "uint256"
        }
      ],
      "name": "balanceOfAt",
      "outputs": [
        {
          "internalType": "uint256",
          "name": "",
          "type": "uint256"
        }
      ],
      "stateMutability": "view",
      "type": "function"
    },
    {
      "inputs": [
        {
          "internalType": "uint256",
          "name": "amount",
          "type": "uint256"
        }
      ],
      "name": "burn",
      "outputs": [],
      "stateMutability": "nonpayable",
      "type": "function"
    },
    {
      "inputs": [
        {
          "internalType": "address",
          "name": "account",
          "type": "address"
        },
        {
          "internalType": "uint256",
          "name": "amount",
          "type": "uint256"
        }
      ],
      "name": "burnFrom",
      "outputs": [],
      "stateMutability": "nonpayable",
      "type": "function"
    },
    {
      "inputs": [],
      "name": "decimals",
      "outputs": [
        {
          "internalType": "uint8",
          "name": "",
          "type": "uint8"
        }
      ],
      "stateMutability": "view",
      "type": "function"
    },
    {
      "inputs": [
        {
          "internalType": "address",
          "name": "spender",
          "type": "address"
        },
        {
          "internalType": "uint256",
          "name": "subtractedValue",
          "type": "uint256"
        }
      ],
      "name": "decreaseAllowance",
      "outputs": [
        {
          "internalType": "bool",
          "name": "",
          "type": "bool"
        }
      ],
      "stateMutability": "nonpayable",
      "type": "function"
    },
    {
      "inputs": [
        {
          "internalType": "bytes32",
          "name": "role",
          "type": "bytes32"
        }
      ],
      "name": "getRoleAdmin",
      "outputs": [
        {
          "internalType": "bytes32",
          "name": "",
          "type": "bytes32"
        }
      ],
      "stateMutability": "view",
      "type": "function"
    },
    {
      "inputs": [
        {
          "internalType": "bytes32",
          "name": "role",
          "type": "bytes32"
        },
        {
          "internalType": "address",
          "name": "account",
          "type": "address"
        }
      ],
      "name": "grantRole",
      "outputs": [],
      "stateMutability": "nonpayable",
      "type": "function"
    },
    {
      "inputs": [
        {
          "internalType": "bytes32",
          "name": "role",
          "type": "bytes32"
        },
        {
          "internalType": "address",
          "name": "account",
          "type": "address"
        }
      ],
      "name": "hasRole",
      "outputs": [
        {
          "internalType": "bool",
          "name": "",
          "type": "bool"
        }
      ],
      "stateMutability": "view",
      "type": "function"
    },
    {
      "inputs": [
        {
          "internalType": "address",
          "name": "spender",
          "type": "address"
        },
        {
          "internalType": "uint256",
          "name": "addedValue",
          "type": "uint256"
        }
      ],
      "name": "increaseAllowance",
      "outputs": [
        {
          "internalType": "bool",
          "name": "",
          "type": "bool"
        }
      ],
      "stateMutability": "nonpayable",
      "type": "function"
    },
    {
      "inputs": [],
      "name": "name",
      "outputs": [
        {
          "internalType": "string",
          "name": "",
          "type": "string"
        }
      ],
      "stateMutability": "view",
      "type": "function"
    },
    {
      "inputs": [],
      "name": "paused",
      "outputs": [
        {
          "internalType": "bool",
          "name": "",
          "type": "bool"
        }
      ],
      "stateMutability": "view",
      "type": "function"
    },
    {
      "inputs": [
        {
          "internalType": "uint256",
          "name": "",
          "type": "uint256"
        }
      ],
      "name": "pollMapping",
      "outputs": [
        {
          "internalType": "address",
          "name": "pollStarter",
          "type": "address"
        },
        {
          "internalType": "uint256",
          "name": "start",
          "type": "uint256"
        },
        {
          "internalType": "uint256",
          "name": "end",
          "type": "uint256"
        },
        {
          "internalType": "uint256",
          "name": "votedTokenAmount",
          "type": "uint256"
        },
        {
          "internalType": "bool",
          "name": "quorumOption",
          "type": "bool"
        },
        {
          "internalType": "uint256",
          "name": "voteQuorum",
          "type": "uint256"
        },
        {
          "internalType": "uint256",
          "name": "votesFor",
          "type": "uint256"
        },
        {
          "internalType": "uint256",
          "name": "votesAgainst",
          "type": "uint256"
        },
        {
          "internalType": "uint256",
          "name": "action",
          "type": "uint256"
        },
        {
          "internalType": "bool",
          "name": "ongoing",
          "type": "bool"
        },
        {
          "internalType": "bool",
          "name": "rewardsClaimed",
          "type": "bool"
        },
        {
          "internalType": "bool",
          "name": "passed",
          "type": "bool"
        }
      ],
      "stateMutability": "view",
      "type": "function"
    },
    {
      "inputs": [
        {
          "internalType": "bytes32",
          "name": "role",
          "type": "bytes32"
        },
        {
          "internalType": "address",
          "name": "account",
          "type": "address"
        }
      ],
      "name": "renounceRole",
      "outputs": [],
      "stateMutability": "nonpayable",
      "type": "function"
    },
    {
      "inputs": [
        {
          "internalType": "bytes32",
          "name": "role",
          "type": "bytes32"
        },
        {
          "internalType": "address",
          "name": "account",
          "type": "address"
        }
      ],
      "name": "revokeRole",
      "outputs": [],
      "stateMutability": "nonpayable",
      "type": "function"
    },
    {
      "inputs": [
        {
          "internalType": "address",
          "name": "",
          "type": "address"
        }
      ],
      "name": "stakedTotal",
      "outputs": [
        {
          "internalType": "uint256",
          "name": "",
          "type": "uint256"
        }
      ],
      "stateMutability": "view",
      "type": "function"
    },
    {
      "inputs": [],
      "name": "stakingAddress",
      "outputs": [
        {
          "internalType": "address",
          "name": "",
          "type": "address"
        }
      ],
      "stateMutability": "view",
      "type": "function"
    },
    {
      "inputs": [
        {
          "internalType": "bytes4",
          "name": "interfaceId",
          "type": "bytes4"
        }
      ],
      "name": "supportsInterface",
      "outputs": [
        {
          "internalType": "bool",
          "name": "",
          "type": "bool"
        }
      ],
      "stateMutability": "view",
      "type": "function"
    },
    {
      "inputs": [],
      "name": "symbol",
      "outputs": [
        {
          "internalType": "string",
          "name": "",
          "type": "string"
        }
      ],
      "stateMutability": "view",
      "type": "function"
    },
    {
      "inputs": [],
      "name": "totalSupply",
      "outputs": [
        {
          "internalType": "uint256",
          "name": "",
          "type": "uint256"
        }
      ],
      "stateMutability": "view",
      "type": "function"
    },
    {
      "inputs": [
        {
          "internalType": "uint256",
          "name": "snapshotId",
          "type": "uint256"
        }
      ],
      "name": "totalSupplyAt",
      "outputs": [
        {
          "internalType": "uint256",
          "name": "",
          "type": "uint256"
        }
      ],
      "stateMutability": "view",
      "type": "function"
    },
    {
      "inputs": [
        {
          "internalType": "uint256",
          "name": "",
          "type": "uint256"
        }
      ],
      "name": "totalVotes",
      "outputs": [
        {
          "internalType": "uint256",
          "name": "",
          "type": "uint256"
        }
      ],
      "stateMutability": "view",
      "type": "function"
    },
    {
      "inputs": [
        {
          "internalType": "address",
          "name": "recipient",
          "type": "address"
        },
        {
          "internalType": "uint256",
          "name": "amount",
          "type": "uint256"
        }
      ],
      "name": "transfer",
      "outputs": [
        {
          "internalType": "bool",
          "name": "",
          "type": "bool"
        }
      ],
      "stateMutability": "nonpayable",
      "type": "function"
    },
    {
      "inputs": [
        {
          "internalType": "address",
          "name": "sender",
          "type": "address"
        },
        {
          "internalType": "address",
          "name": "recipient",
          "type": "address"
        },
        {
          "internalType": "uint256",
          "name": "amount",
          "type": "uint256"
        }
      ],
      "name": "transferFrom",
      "outputs": [
        {
          "internalType": "bool",
          "name": "",
          "type": "bool"
        }
      ],
      "stateMutability": "nonpayable",
      "type": "function"
    },
    {
      "inputs": [
        {
          "internalType": "uint256",
          "name": "pollID",
          "type": "uint256"
        }
      ],
      "name": "correctTime",
      "outputs": [],
      "stateMutability": "nonpayable",
      "type": "function"
    },
    {
      "inputs": [],
      "name": "snapshot",
      "outputs": [],
      "stateMutability": "nonpayable",
      "type": "function"
    },
    {
      "inputs": [
        {
          "internalType": "uint256",
          "name": "newMinAmount",
          "type": "uint256"
        }
      ],
      "name": "changeMinimumStake",
      "outputs": [],
      "stateMutability": "nonpayable",
      "type": "function"
    },
    {
      "inputs": [
        {
          "internalType": "address",
          "name": "staking",
          "type": "address"
        }
      ],
      "name": "setStakingAddress",
      "outputs": [],
      "stateMutability": "nonpayable",
      "type": "function"
    },
    {
      "inputs": [
        {
          "internalType": "uint256",
          "name": "amount",
          "type": "uint256"
        }
      ],
      "name": "stake",
      "outputs": [],
      "stateMutability": "payable",
      "type": "function"
    },
    {
      "inputs": [
        {
          "internalType": "uint256",
          "name": "amount",
          "type": "uint256"
        }
      ],
      "name": "withdraw",
      "outputs": [],
      "stateMutability": "payable",
      "type": "function"
    },
    {
      "inputs": [
        {
          "internalType": "uint256",
          "name": "amount",
          "type": "uint256"
        }
      ],
      "name": "deposit",
      "outputs": [],
      "stateMutability": "payable",
      "type": "function"
    },
    {
      "inputs": [],
      "name": "viewStakedBalance",
      "outputs": [
        {
          "internalType": "uint256",
          "name": "balance",
          "type": "uint256"
        }
      ],
      "stateMutability": "view",
      "type": "function"
    },
    {
      "inputs": [],
      "name": "viewStakedTotal",
      "outputs": [
        {
          "internalType": "uint256",
          "name": "balance",
          "type": "uint256"
        }
      ],
      "stateMutability": "view",
      "type": "function"
    },
    {
      "inputs": [],
      "name": "revokeStaker",
      "outputs": [],
      "stateMutability": "nonpayable",
      "type": "function"
    },
    {
      "inputs": [
        {
          "internalType": "bool",
          "name": "_quorumOption",
          "type": "bool"
        },
        {
          "internalType": "uint256",
          "name": "_voteQuorum",
          "type": "uint256"
        },
        {
          "internalType": "uint256",
          "name": "_action",
          "type": "uint256"
        },
        {
          "internalType": "uint256",
          "name": "_votedTokenAmount",
          "type": "uint256"
        },
        {
          "internalType": "uint256",
          "name": "_commitDuration",
          "type": "uint256"
        }
      ],
      "name": "startPoll",
      "outputs": [
        {
          "internalType": "uint256",
          "name": "pollID",
          "type": "uint256"
        }
      ],
      "stateMutability": "nonpayable",
      "type": "function"
    },
    {
      "inputs": [
        {
          "internalType": "address",
          "name": "voter",
          "type": "address"
        }
      ],
      "name": "voterAllocation",
      "outputs": [],
      "stateMutability": "nonpayable",
      "type": "function"
    },
    {
      "inputs": [
        {
          "internalType": "address",
          "name": "voter",
          "type": "address"
        }
      ],
      "name": "voterRevokation",
      "outputs": [],
      "stateMutability": "nonpayable",
      "type": "function"
    },
    {
      "inputs": [
        {
          "internalType": "uint256",
          "name": "pollID",
          "type": "uint256"
        },
        {
          "internalType": "address",
          "name": "voter",
          "type": "address"
        }
      ],
      "name": "claimVote",
      "outputs": [],
      "stateMutability": "nonpayable",
      "type": "function"
    },
    {
      "inputs": [
        {
          "internalType": "address",
          "name": "account",
          "type": "address"
        },
        {
          "internalType": "uint256",
          "name": "amount",
          "type": "uint256"
        }
      ],
      "name": "mint",
      "outputs": [],
      "stateMutability": "nonpayable",
      "type": "function"
    },
    {
      "inputs": [
        {
          "internalType": "address",
          "name": "voter",
          "type": "address"
        },
        {
          "internalType": "uint256",
          "name": "pollID",
          "type": "uint256"
        }
      ],
      "name": "numOfVotes",
      "outputs": [
        {
          "internalType": "uint256",
          "name": "votes",
          "type": "uint256"
        }
      ],
      "stateMutability": "nonpayable",
      "type": "function"
    },
    {
      "inputs": [
        {
          "internalType": "uint256",
          "name": "votesMade",
          "type": "uint256"
        },
        {
          "internalType": "uint256",
          "name": "pollID",
          "type": "uint256"
        },
        {
          "internalType": "uint256",
          "name": "side",
          "type": "uint256"
        },
        {
          "internalType": "address",
          "name": "voter",
          "type": "address"
        }
      ],
      "name": "makeVote",
      "outputs": [],
      "stateMutability": "nonpayable",
      "type": "function"
    },
    {
      "inputs": [
        {
          "internalType": "uint256",
          "name": "pollID",
          "type": "uint256"
        }
      ],
      "name": "calculateResults",
      "outputs": [],
      "stateMutability": "nonpayable",
      "type": "function"
    },
    {
      "inputs": [
        {
          "internalType": "uint256",
          "name": "pollID",
          "type": "uint256"
        }
      ],
      "name": "quorumCalc",
      "outputs": [
        {
          "internalType": "uint256",
          "name": "result",
          "type": "uint256"
        }
      ],
      "stateMutability": "nonpayable",
      "type": "function"
    },
    {
      "inputs": [
        {
          "internalType": "uint256",
          "name": "pollID",
          "type": "uint256"
        }
      ],
      "name": "endPoll",
      "outputs": [],
      "stateMutability": "nonpayable",
      "type": "function"
    },
    {
      "inputs": [
        {
          "internalType": "uint256",
          "name": "pollID",
          "type": "uint256"
        }
      ],
      "name": "_claimRewards",
      "outputs": [],
      "stateMutability": "nonpayable",
      "type": "function"
    },
    {
      "inputs": [
        {
          "internalType": "uint256",
          "name": "pollID",
          "type": "uint256"
        }
      ],
      "name": "mintRewards",
      "outputs": [],
      "stateMutability": "payable",
      "type": "function"
    },
    {
      "inputs": [
        {
          "internalType": "uint256",
          "name": "pollID",
          "type": "uint256"
        }
      ],
      "name": "burnRewards",
      "outputs": [],
      "stateMutability": "payable",
      "type": "function"
    },
    {
      "inputs": [
        {
          "internalType": "uint256",
          "name": "pollID",
          "type": "uint256"
        },
        {
          "internalType": "address",
          "name": "recipient",
          "type": "address"
        }
      ],
      "name": "transferRewards",
      "outputs": [],
      "stateMutability": "nonpayable",
      "type": "function"
    },
    {
      "inputs": [
        {
          "internalType": "uint256",
          "name": "pollID",
          "type": "uint256"
        }
      ],
      "name": "takeSnapshot",
      "outputs": [],
      "stateMutability": "nonpayable",
      "type": "function"
    },
    {
      "inputs": [
        {
          "internalType": "address",
          "name": "voter",
          "type": "address"
        }
      ],
      "name": "checkParticipation",
      "outputs": [
        {
          "internalType": "bool",
          "name": "participating",
          "type": "bool"
        }
      ],
      "stateMutability": "nonpayable",
      "type": "function"
    },
    {
      "inputs": [
        {
          "internalType": "uint256",
          "name": "_pollID",
          "type": "uint256"
        }
      ],
      "name": "pollExists",
      "outputs": [
        {
          "internalType": "bool",
          "name": "exists",
          "type": "bool"
        }
      ],
      "stateMutability": "view",
      "type": "function"
    },
    {
      "inputs": [
        {
          "internalType": "uint256",
          "name": "_pollID",
          "type": "uint256"
        }
      ],
      "name": "pollEnded",
      "outputs": [
        {
          "internalType": "bool",
          "name": "ended",
          "type": "bool"
        }
      ],
      "stateMutability": "view",
      "type": "function"
    },
    {
      "inputs": [
        {
          "internalType": "uint256",
          "name": "_terminationDate",
          "type": "uint256"
        }
      ],
      "name": "isExpired",
      "outputs": [
        {
          "internalType": "bool",
          "name": "expired",
          "type": "bool"
        }
      ],
      "stateMutability": "view",
      "type": "function"
    }
  ],
  "bytecode": "0x60806040526103e8600c5560006010553480156200001c57600080fd5b506040805180820182526003808252624d616960e81b60208084019182528451808601909552828552624d414960e81b90850152825192939262000062929190620004e8565b50805162000078906004906020840190620004e8565b5050600a805460ff1916905550620000b833620000946200017b565b620000a190600a62000636565b620000b29064e8d4a510006200072e565b62000180565b620000e47fb9e206fa2af7ee1331b72ce58b6d938ac810ce9b5cdb65d35ab723fd67badf9e3362000262565b620001107fb19546dff01e856fb3f010c267a7b1c60363cf8a4664e21cc89c26224620214e3362000262565b6200013c7f65d7a28e3265b37a6474929f336521b332c1681b933f6cb9f3376673440d862a3362000262565b620001687f5fdbd35e8da83ee755d5e62a539e5ed7f47126abede0b8b10f9ea43dc6eed07f3362000262565b6200017560003362000262565b620007bd565b601290565b6001600160a01b038216620001b25760405162461bcd60e51b8152600401620001a9906200058e565b60405180910390fd5b620001c0600083836200026e565b8060026000828254620001d49190620005ce565b90915550506001600160a01b0382166000908152602081905260408120805483929062000203908490620005ce565b90915550506040516001600160a01b038316906000907fddf252ad1be2c89b69c2b068fc378daa952ba7f163c4a11628f55a4df523b3ef9062000248908590620005c5565b60405180910390a36200025e6000838362000286565b5050565b6200025e82826200028b565b620002868383836200031760201b620028a31760201c565b505050565b62000297828262000389565b6200025e5760008281526009602090815260408083206001600160a01b03851684529091529020805460ff19166001179055620002d3620003b4565b6001600160a01b0316816001600160a01b0316837f2f8788117e7eff1d82e926ec794901d17c78024a50270940304540a733656f0d60405160405180910390a45050565b6200032f8383836200028660201b62000f3b1760201c565b6001600160a01b03831662000359576200034982620003b8565b62000353620003e9565b62000286565b6001600160a01b03821662000373576200034983620003b8565b6200037e83620003b8565b6200028682620003b8565b60009182526009602090815260408084206001600160a01b0393909316845291905290205460ff1690565b3390565b6001600160a01b0381166000908152600560205260409020620003e690620003e083620003fb565b6200041a565b50565b620003f96006620003e062000469565b565b6001600160a01b0381166000908152602081905260409020545b919050565b6000620004266200046f565b90508062000434846200048d565b101562000286578254600180820185556000858152602080822090930193909355938401805494850181558252902090910155565b60025490565b6000620004886008620004e460201b620028fb1760201c565b905090565b8054600090620004a05750600062000415565b81548290620004b29060019062000750565b81548110620004d157634e487b7160e01b600052603260045260246000fd5b9060005260206000200154905062000415565b5490565b828054620004f6906200076a565b90600052602060002090601f0160209004810192826200051a576000855562000565565b82601f106200053557805160ff191683800117855562000565565b8280016001018555821562000565579182015b828111156200056557825182559160200191906001019062000548565b506200057392915062000577565b5090565b5b8082111562000573576000815560010162000578565b6020808252601f908201527f45524332303a206d696e7420746f20746865207a65726f206164647265737300604082015260600190565b90815260200190565b60008219821115620005e457620005e4620007a7565b500190565b80825b6001808611620005fd57506200062d565b818704821115620006125762000612620007a7565b808616156200062057918102915b9490941c938002620005ec565b94509492505050565b60006200064a60001960ff85168462000651565b9392505050565b60008262000662575060016200064a565b8162000671575060006200064a565b81600181146200068a57600281146200069557620006c9565b60019150506200064a565b60ff841115620006a957620006a9620007a7565b6001841b915084821115620006c257620006c2620007a7565b506200064a565b5060208310610133831016604e8410600b841016171562000701575081810a83811115620006fb57620006fb620007a7565b6200064a565b620007108484846001620005e9565b808604821115620007255762000725620007a7565b02949350505050565b60008160001904831182151516156200074b576200074b620007a7565b500290565b600082821015620007655762000765620007a7565b500390565b6002810460018216806200077f57607f821691505b60208210811415620007a157634e487b7160e01b600052602260045260246000fd5b50919050565b634e487b7160e01b600052601160045260246000fd5b61420780620007cd6000396000f3fe6080604052600436106103a15760003560e01c806385f8db10116101e7578063b687bcc01161010d578063d9548e53116100a0578063ee6848301161006f578063ee68483014610a39578063f43b877814610a59578063f4e0d9ac14610a79578063f567918914610a99576103a1565b8063d9548e53146109cf578063dd62ed3e146109ef578063e58378bb14610a0f578063e63ab1e914610a24576103a1565b8063d0beb73a116100dc578063d0beb73a14610958578063d547741f14610978578063d72cd60714610998578063d7b4be24146109ad576103a1565b8063b687bcc0146108e5578063b6b55f2514610905578063ca5f0b9914610918578063cd8cd04814610938576103a1565b80639711715a11610185578063a694fc3a11610154578063a694fc3a14610888578063a9059cbb1461089b578063a94015c8146108bb578063ae47785b146108d0576103a1565b80639711715a1461081e578063981b24d014610833578063a217fddf14610853578063a457c2d714610868576103a1565b80638c405503116101c15780638c405503146107a95780638fecb1a2146107c957806391d14854146107e957806395d89b4114610809576103a1565b806385f8db101461076157806388d21ff31461077657806389ec025714610796576103a1565b80633780b3ed116102cc5780634ee2cd7e1161026a5780637028e2cd116102395780637028e2cd146106ec57806370a082311461070157806379cc67901461072157806379d0e6fe14610741576103a1565b80634ee2cd7e146106775780635b8bd26b146106975780635c975abb146106b75780636458c9ce146106cc576103a1565b806342966c68116102a657806342966c681461060457806343398cd2146106245780634828ced9146106445780634a65ea6014610657576103a1565b80633780b3ed146105af57806339509351146105c457806340c10f19146105e4576103a1565b806323b872dd11610344578063313ce56711610313578063313ce56714610515578063356cb5551461053757806336568abe14610557578063372c48e114610577576103a1565b806323b872dd146104a0578063248a9ca3146104c05780632e1a7d4d146104e05780632f2ff15d146104f5576103a1565b8063095ea7b311610380578063095ea7b31461042b57806318160ddd1461044b57806319e6e1581461046057806321e04c3214610480576103a1565b8062f02720146103a657806301ffc9a7146103dc57806306fdde0314610409575b600080fd5b3480156103b257600080fd5b506103c66103c1366004613442565b610ab9565b6040516103d391906135f4565b60405180910390f35b3480156103e857600080fd5b506103fc6103f736600461347c565b610b8e565b6040516103d391906135e9565b34801561041557600080fd5b5061041e610bbb565b6040516103d391906135fd565b34801561043757600080fd5b506103fc6104463660046133d2565b610c4d565b34801561045757600080fd5b506103c6610c6b565b34801561046c57600080fd5b506103c661047b366004613442565b610c71565b34801561048c57600080fd5b506103fc61049b36600461334b565b610c83565b3480156104ac57600080fd5b506103fc6104bb366004613397565b610d14565b3480156104cc57600080fd5b506103c66104db366004613442565b610da4565b6104f36104ee366004613442565b610db9565b005b34801561050157600080fd5b506104f361051036600461345a565b610f17565b34801561052157600080fd5b5061052a610f40565b6040516103d3919061402e565b34801561054357600080fd5b506104f361055236600461345a565b610f45565b34801561056357600080fd5b506104f361057236600461345a565b61111d565b34801561058357600080fd5b50610597610592366004613442565b611163565b6040516103d39c9b9a99989796959493929190613584565b3480156105bb57600080fd5b506103c66111d6565b3480156105d057600080fd5b506103fc6105df3660046133d2565b6111e8565b3480156105f057600080fd5b506104f36105ff3660046133d2565b61123c565b34801561061057600080fd5b506104f361061f366004613442565b6112c1565b34801561063057600080fd5b506104f361063f366004613442565b6112d5565b6104f3610652366004613442565b611366565b34801561066357600080fd5b506104f3610672366004613442565b6114e2565b34801561068357600080fd5b506103c66106923660046133d2565b6115cf565b3480156106a357600080fd5b506104f36106b2366004613442565b611618565b3480156106c357600080fd5b506103fc611668565b3480156106d857600080fd5b506104f36106e7366004613442565b611671565b3480156106f857600080fd5b506103c6611872565b34801561070d57600080fd5b506103c661071c36600461334b565b611896565b34801561072d57600080fd5b506104f361073c3660046133d2565b6118b1565b34801561074d57600080fd5b506104f361075c3660046134a4565b6118ff565b34801561076d57600080fd5b506103c6611c61565b34801561078257600080fd5b506103fc610791366004613442565b611cab565b6104f36107a4366004613442565b611cc0565b3480156107b557600080fd5b506103c66107c43660046133d2565b611dc6565b3480156107d557600080fd5b506104f36107e436600461345a565b611e58565b3480156107f557600080fd5b506103fc61080436600461345a565b611fd0565b34801561081557600080fd5b5061041e611ffb565b34801561082a57600080fd5b506104f361200a565b34801561083f57600080fd5b506103c661084e366004613442565b612048565b34801561085f57600080fd5b506103c6612075565b34801561087457600080fd5b506103fc6108833660046133d2565b61207a565b6104f3610896366004613442565b6120f3565b3480156108a757600080fd5b506103fc6108b63660046133d2565b6121d7565b3480156108c757600080fd5b506103c66121eb565b3480156108dc57600080fd5b506104f36121fd565b3480156108f157600080fd5b506104f361090036600461334b565b6122af565b6104f3610913366004613442565b61231f565b34801561092457600080fd5b506103c66109333660046133fb565b6123ee565b34801561094457600080fd5b506104f361095336600461334b565b61255e565b34801561096457600080fd5b506104f3610973366004613442565b6125e1565b34801561098457600080fd5b506104f361099336600461345a565b61265c565b3480156109a457600080fd5b506103c661267b565b3480156109b957600080fd5b506109c26126c5565b6040516103d39190613557565b3480156109db57600080fd5b506103fc6109ea366004613442565b6126d4565b3480156109fb57600080fd5b506103c6610a0a366004613365565b6126f5565b348015610a1b57600080fd5b506103c6612720565b348015610a3057600080fd5b506103c6612732565b348015610a4557600080fd5b506103fc610a54366004613442565b612756565b348015610a6557600080fd5b506104f3610a74366004613442565b612785565b348015610a8557600080fd5b506104f3610a9436600461334b565b612839565b348015610aa557600080fd5b506103c6610ab436600461334b565b612891565b600081610ac581612756565b15156001148015610aec57506000818152600d602052604090206009015460ff1615156001145b15610b0b576000818152600d60205260409020600901805460ff191690555b6000838152600e6020526040902054610b2357600080fd5b610b2c83611cab565b610b515760405162461bcd60e51b8152600401610b4890613b4c565b60405180910390fd5b6000838152600e6020908152604080832054600d909252822060060154610b77916128ff565b9050610b8481606461290b565b9250505b50919050565b60006001600160e01b03198216637965db0b60e01b1480610bb35750610bb382612917565b90505b919050565b606060038054610bca906140e1565b80601f0160208091040260200160405190810160405280929190818152602001828054610bf6906140e1565b8015610c435780601f10610c1857610100808354040283529160200191610c43565b820191906000526020600020905b815481529060010190602001808311610c2657829003601f168201915b5050505050905090565b6000610c61610c5a612930565b8484612934565b5060015b92915050565b60025490565b600e6020526000908152604090205481565b600060015b6010548111610d0b57610c9a81611618565b6000818152600d602052604090206009015460ff1615156001148015610cea57506000818152600d602090815260408083206001600160a01b0387168452600b0190915290205460ff1615156001145b15610cf9576001915050610bb6565b80610d0381614116565b915050610c88565b50600092915050565b6000610d218484846129e8565b6001600160a01b038416600090815260016020526040812081610d42612930565b6001600160a01b03166001600160a01b0316815260200190815260200160002054905082811015610d855760405162461bcd60e51b8152600401610b4890613a4a565b610d9985610d91612930565b858403612934565b506001949350505050565b60009081526009602052604090206001015490565b610dd160008051602061419283398151915233611fd0565b610ded5760405162461bcd60e51b8152600401610b489061390e565b336000908152600b6020526040902054811115610e1c5760405162461bcd60e51b8152600401610b4890613817565b600c54336000908152600b6020526040902054610e399083612b12565b1015610e575760405162461bcd60e51b8152600401610b4890613dbb565b610e6033610c83565b15610e7d5760405162461bcd60e51b8152600401610b4890613a92565b610e8733826121d7565b50336000908152600b6020526040902054610ea29082612b12565b336000908152600b6020908152604080832093909355600f90522054610ec89082612b12565b336000818152600f6020526040908190209290925590517f636cb222c0a14b941cff2b7b16a3920b7043e92dabbf4ebe5104f45b7c5ea23c91610f0c91849061356b565b60405180910390a150565b610f2082610da4565b610f3181610f2c612930565b612b1e565b610f3b8383612b82565b505050565b601290565b81610f4f81612756565b15156001148015610f7657506000818152600d602052604090206009015460ff1615156001145b15610f95576000818152600d60205260409020600901805460ff191690555b81610fae6000805160206141b283398151915282611fd0565b610fb757600080fd5b6001600160a01b038316610fca57600080fd5b6000611023610fe56001600c54612b1290919063ffffffff16565b6000878152600d602090815260408083206001600160a01b038a168452600a01825280832054600f9092529091205461101d91612b12565b90612b12565b9050600081116110455760405162461bcd60e51b8152600401610b48906138c7565b6000858152600d602090815260408083206001600160a01b0388168452600a019091529020546110759082612c09565b6000868152600d602090815260408083206001600160a01b0389168452600a8101835281842094909455600c909301905220546110b29082612c09565b6000868152600d602090815260408083206001600160a01b038916808552600c9091019092529182902092909255517f11121ac798069fb07833ce3bd6cbfb51fec926c61a652138d3241566fe7240799061110e9084906135f4565b60405180910390a25050505050565b611125612930565b6001600160a01b0316816001600160a01b0316146111555760405162461bcd60e51b8152600401610b4890613f9a565b61115f8282612c15565b5050565b600d6020526000908152604090208054600182015460028301546003840154600485015460058601546006870154600788015460088901546009909901546001600160a01b039098169896979596949560ff9485169593949293919281811691610100810482169162010000909104168c565b60008051602061419283398151915281565b6000610c616111f5612930565b848460016000611203612930565b6001600160a01b03908116825260208083019390935260409182016000908120918b1681529252902054611237919061403c565b612934565b61125460008051602061417283398151915233611fd0565b8061126957506011546001600160a01b031633145b61127257600080fd5b61127c8282612c9a565b816001600160a01b03167fa01c539e02f0011c0f14be4450f129565d1e05ad6863b64aa665a28431f66e00826040516112b591906135f4565b60405180910390a25050565b6112d26112cc612930565b82612d62565b50565b6112ed60008051602061417283398151915233611fd0565b8061130257506011546001600160a01b031633145b61130b57600080fd5b600c5481141561131a57600080fd5b6011546001600160a01b0316331461133157600080fd5b600c8190556040517fa780cb8437215d835d6296c681503f759ac98b8f069b8bdc2ec57a92054ff76990610f0c9083906135f4565b8061137081612756565b1515600114801561139757506000818152600d602052604090206009015460ff1615156001145b156113b6576000818152600d60205260409020600901805460ff191690555b6113ce60008051602061417283398151915233611fd0565b806113e357506011546001600160a01b031633145b6113ec57600080fd5b6113f5826114e2565b6000828152600d60205260409020600801546001146114265760405162461bcd60e51b8152600401610b4890613f20565b6000828152600d602052604090206009015460ff16156114585760405162461bcd60e51b8152600401610b48906137e0565b6000828152600d602052604081206003015461147691903390612e53565b6000828152600d6020526040902060030154611493903390612c9a565b6000828152600d6020526040908190206003015490517f143263f7b9f933ad95c7547e531e5a27d3f06f741fae22be1353448a3d0e9171916114d6918590614020565b60405180910390a15050565b806114ec81612756565b1515600114801561151357506000818152600d602052604090206009015460ff1615156001145b15611532576000818152600d60205260409020600901805460ff191690555b61153b82611671565b6000828152600d602052604090206009015462010000900460ff1615156001146115775760405162461bcd60e51b8152600401610b4890613d8c565b6000828152600d6020526040902060090154610100900460ff16156115ae5760405162461bcd60e51b8152600401610b4890613667565b506000908152600d60205260409020600901805461ff001916610100179055565b6001600160a01b0382166000908152600560205260408120819081906115f6908590612e5e565b915091508161160d5761160885611896565b61160f565b805b95945050505050565b61162181612756565b1515600114801561164857506000818152600d602052604090206009015460ff1615156001145b156112d2576000908152600d60205260409020600901805460ff19169055565b600a5460ff1690565b8061167b81612756565b151560011480156116a257506000818152600d602052604090206009015460ff1615156001145b156116c1576000818152600d60205260409020600901805460ff191690555b6000828152600d602052604090206009015460ff16156116f35760405162461bcd60e51b8152600401610b48906137e0565b6000828152600d602052604090206004015460ff166117cf576000828152600d6020526040902060078101546006909101541115611750576000828152600d60205260409020600901805462ff00001916620100001790556117ca565b6000828152600d602052604090206007810154600690910154101561178f576000828152600d60205260409020600901805462ff0000191690556117ca565b6000828152600d60205260409020600781015460069091015414156117ca576000828152600d60205260409020600901805462ff0000191690555b61115f565b6000828152600d602052604090206004015460ff1615156001141561115f576000828152600d602052604090206005015461180983610ab9565b10611833576000828152600d60205260409020600901805462ff000019166201000017905561115f565b6000828152600d602052604090206005015461184e83610ab9565b101561115f57506000908152600d60205260409020600901805462ff000019169055565b7f5fdbd35e8da83ee755d5e62a539e5ed7f47126abede0b8b10f9ea43dc6eed07f81565b6001600160a01b031660009081526020819052604090205490565b60006118bf83610a0a612930565b9050818110156118e15760405162461bcd60e51b8152600401610b4890613b08565b6118f5836118ed612930565b848403612934565b610f3b8383612d62565b8261190981612756565b1515600114801561193057506000818152600d602052604090206009015460ff1615156001145b1561194f576000818152600d60205260409020600901805460ff191690555b816119686000805160206141b283398151915282611fd0565b61197157600080fd5b6001600160a01b0383166119975760405162461bcd60e51b8152600401610b4890613c5c565b6000858152600d602052604090206009015460ff1615156001146119cd5760405162461bcd60e51b8152600401610b4890613cd7565b6000858152600d602090815260408083206001600160a01b0387168452600c01909152902054611a0f5760405162461bcd60e51b8152600401610b4890613e7c565b6000858152600d602090815260408083206001600160a01b0387168452600c01909152902054861115611a545760405162461bcd60e51b8152600401610b4890613d0e565b6000858152600d602081815260408084206001600160a01b038816855290920190529020541580611aa857506000858152600d602081815260408084206001600160a01b0388168552909201905290205484145b611ac45760405162461bcd60e51b8152600401610b489061395a565b8360011480611ad35750836002145b611aef5760405162461bcd60e51b8152600401610b4890613a24565b8360011415611b2c576000858152600d6020526040902060060154611b15906001612c09565b6000868152600d6020526040902060060155611b65565b8360021415611b65576000858152600d6020526040902060070154611b52906001612c09565b6000868152600d60205260409020600701555b6000858152600d602081815260408084206001600160a01b03881685529283018252808420889055600c9092019052902054611ba19087612b12565b6000868152600d602090815260408083206001600160a01b0388168452600c01825280832093909355878252600e90522054611bde906001612c09565b6000868152600e6020908152604080832093909355600d81528282206001600160a01b038716808452600b90910190915290829020805460ff19166001179055905186907f5996e6b79a799eac35fb8f87a5ec15485d68232f99e6a9a13118feb7b77adb8090611c51908a908990614020565b60405180910390a3505050505050565b6000611c7b60008051602061419283398151915233611fd0565b611c975760405162461bcd60e51b8152600401610b489061390e565b50336000908152600b602052604090205490565b60008115801590610bb3575050601054101590565b80611cca81612756565b15156001148015611cf157506000818152600d602052604090206009015460ff1615156001145b15611d10576000818152600d60205260409020600901805460ff191690555b611d2860008051602061417283398151915233611fd0565b80611d3d57506011546001600160a01b031633145b611d4657600080fd5b611d4f826114e2565b6000828152600d6020526040902060080154600214611d6d57600080fd5b6000828152600d602052604090206009015460ff1615611d8c57600080fd5b6000828152600d6020526040812060030154611da9913391612e53565b6000828152600d60205260409020600301546114939033906118b1565b600081611dd281612756565b15156001148015611df957506000818152600d602052604090206009015460ff1615156001145b15611e18576000818152600d60205260409020600901805460ff191690555b6001600160a01b038416611e2b57600080fd5b50506000908152600d602090815260408083206001600160a01b03949094168352600c9093019052205490565b81611e6281612756565b15156001148015611e8957506000818152600d602052604090206009015460ff1615156001145b15611ea8576000818152600d60205260409020600901805460ff191690555b611ec060008051602061417283398151915233611fd0565b80611ed557506011546001600160a01b031633145b611ede57600080fd5b611ee7836114e2565b6000838152600d6020526040902060080154600314611f0557600080fd5b6000838152600d602052604090206009015460ff1615611f2457600080fd5b6000838152600d6020526040812060030154611f41913391612e53565b6000838152600d6020526040902060030154611f5c906112c1565b611f80611f67612930565b6000858152600d602052604090206003015484906129e8565b6000838152600d6020526040908190206003015490517f143263f7b9f933ad95c7547e531e5a27d3f06f741fae22be1353448a3d0e917191611fc3918690614020565b60405180910390a1505050565b60009182526009602090815260408084206001600160a01b0393909316845291905290205460ff1690565b606060048054610bca906140e1565b61202260008051602061417283398151915233611fd0565b8061203757506011546001600160a01b031633145b61204057600080fd5b6112d2612f0a565b6000806000612058846006612e5e565b915091508161206e57612069610c6b565b610b84565b9392505050565b600081565b60008060016000612089612930565b6001600160a01b03908116825260208083019390935260409182016000908120918816815292529020549050828110156120d55760405162461bcd60e51b8152600401610b4890613f55565b6120e96120e0612930565b85858403612934565b5060019392505050565b600c548110156121155760405162461bcd60e51b8152600401610b489061385a565b61212d60008051602061419283398151915233611fd0565b1561214a5760405162461bcd60e51b8152600401610b4890613ee9565b6011546121629033906001600160a01b031683610d14565b5061217b60008051602061419283398151915233610f17565b336000908152600b60205260409020546121959082612c09565b336000818152600b6020526040908190209290925590517faa9b7cbce69f378b88683439602b2857dc079ec95e5996ecd5e84df0673de4d791610f0c91613557565b6000610c616121e4612930565b84846129e8565b6000805160206141b283398151915281565b61221560008051602061419283398151915233611fd0565b6122315760405162461bcd60e51b8152600401610b489061390e565b6122496000805160206141928339815191523361265c565b336000818152600b602052604090205461226391906121d7565b50336000818152600b6020526040808220829055517fcb71ce4aef17d5694e262b4bedec3b5f7ea68f25621d775f80bc72e78d27692d926122a592909161356b565b60405180910390a1565b6122c760008051602061419283398151915282611fd0565b6122d057600080fd5b6122e86000805160206141b283398151915282610f17565b6040516001600160a01b038216907f3025407ee9b066f6cd97886b0c47bda6b6ebbb42d2c7574284f5814cfd3a504a90600090a250565b61233760008051602061419283398151915233611fd0565b6123535760405162461bcd60e51b8152600401610b489061390e565b601154612369906001600160a01b0316826121d7565b50336000908152600b60205260409020546123849082612c09565b336000908152600b6020908152604080832093909355600f905220546123aa9082612c09565b336000818152600f6020526040908190209290925590517f91dd5382838389dd317d2f661bec79d34c5b6abd4d2d475f84079da548c030fc91610f0c91849061356b565b600061240860008051602061419283398151915233611fd0565b61241157600080fd5b8515801561241d575084155b80612435575060018615151480156124355750600085115b6124515760405162461bcd60e51b8152600401610b48906139a0565b600083116124715760405162461bcd60e51b8152600401610b4890613bff565b600061247d4284612c09565b60105490915061248e906001612c09565b60108181556000918252600d60205260408083208054336001600160a01b03199091168117825542600180840191909155600883018b905560048301805460ff19168e1515179055600583018c9055600383018a90556009830180546002850189905560068501889055600785019790975561ffff199096161762ff00001916909455915490519192917f75c3234b322da18df8c948bde9b9983e5a43633c4e2647d4d9f4f15c0706f05d906125479089908790614020565b60405180910390a350506010549695505050505050565b6125766000805160206141b283398151915282611fd0565b61257f57600080fd5b6001600160a01b03811661259257600080fd5b6125aa6000805160206141b28339815191528261265c565b6040516001600160a01b038216907fc8f0ca04e3a4bee64fa8f12ab2c36bf665502f928567c2adfbbcc4ad796ed26990600090a250565b6125f960008051602061417283398151915233611fd0565b8061260e57506011546001600160a01b031633145b61261757600080fd5b6000818152600d602052604090206008015460041461263557600080fd5b6000818152600d602052604090206009015460ff161561265457600080fd5b6112d261200a565b61266582610da4565b61267181610f2c612930565b610f3b8383612c15565b600061269560008051602061419283398151915233611fd0565b6126b15760405162461bcd60e51b8152600401610b489061390e565b50336000908152600f602052604090205490565b6011546001600160a01b031681565b6000814211156126e657506001610bb6565b814211610bb657506000610bb6565b6001600160a01b03918216600090815260016020908152604080832093909416825291909152205490565b60008051602061417283398151915281565b7f65d7a28e3265b37a6474929f336521b332c1681b933f6cb9f3376673440d862a81565b600061276182611cab565b61276a57600080fd5b6000828152600d6020526040902060020154610bb3906126d4565b61279d60008051602061417283398151915233611fd0565b806127b257506011546001600160a01b031633145b6127bb57600080fd5b806127c581612756565b151560011480156127ec57506000818152600d602052604090206009015460ff1615156001145b1561280b576000818152600d60205260409020600901805460ff191690555b61281482611cab565b61281d57600080fd5b506000908152600d60205260409020600901805460ff19169055565b61285160008051602061417283398151915233611fd0565b8061286657506011546001600160a01b031633145b61286f57600080fd5b601180546001600160a01b0319166001600160a01b0392909216919091179055565b600f6020526000908152604090205481565b6128ae838383610f3b565b6001600160a01b0383166128d2576128c582612f5e565b6128cd612f88565b610f3b565b6001600160a01b0382166128e9576128c583612f5e565b6128f283612f5e565b610f3b82612f5e565b5490565b600061206e8284614054565b600061206e8284614068565b6001600160e01b031981166301ffc9a760e01b14919050565b3390565b6001600160a01b03831661295a5760405162461bcd60e51b8152600401610b4890613c93565b6001600160a01b0382166129805760405162461bcd60e51b8152600401610b4890613758565b6001600160a01b0380841660008181526001602090815260408083209487168084529490915290819020849055517f8c5be1e5ebec7d5bd14f71427d1e84f3dd0314c0f7b2291e5b200ac8c7c3b925906129db9085906135f4565b60405180910390a3505050565b6001600160a01b038316612a0e5760405162461bcd60e51b8152600401610b4890613bba565b6001600160a01b038216612a345760405162461bcd60e51b8152600401610b48906136d3565b612a3f838383612e53565b6001600160a01b03831660009081526020819052604090205481811015612a785760405162461bcd60e51b8152600401610b489061379a565b6001600160a01b03808516600090815260208190526040808220858503905591851681529081208054849290612aaf90849061403c565b92505081905550826001600160a01b0316846001600160a01b03167fddf252ad1be2c89b69c2b068fc378daa952ba7f163c4a11628f55a4df523b3ef84604051612af991906135f4565b60405180910390a3612b0c848484610f3b565b50505050565b600061206e8284614087565b612b288282611fd0565b61115f57612b40816001600160a01b03166014612f97565b612b4b836020612f97565b604051602001612b5c9291906134e2565b60408051601f198184030181529082905262461bcd60e51b8252610b48916004016135fd565b612b8c8282611fd0565b61115f5760008281526009602090815260408083206001600160a01b03851684529091529020805460ff19166001179055612bc5612930565b6001600160a01b0316816001600160a01b0316837f2f8788117e7eff1d82e926ec794901d17c78024a50270940304540a733656f0d60405160405180910390a45050565b600061206e828461403c565b612c1f8282611fd0565b1561115f5760008281526009602090815260408083206001600160a01b03851684529091529020805460ff19169055612c56612930565b6001600160a01b0316816001600160a01b0316837ff6391f5c32d9c69d2a47ea670b442974b53935d1edc7fd64eb21e047a839171b60405160405180910390a45050565b6001600160a01b038216612cc05760405162461bcd60e51b8152600401610b4890613fe9565b612ccc60008383612e53565b8060026000828254612cde919061403c565b90915550506001600160a01b03821660009081526020819052604081208054839290612d0b90849061403c565b90915550506040516001600160a01b038316906000907fddf252ad1be2c89b69c2b068fc378daa952ba7f163c4a11628f55a4df523b3ef90612d4e9085906135f4565b60405180910390a361115f60008383610f3b565b6001600160a01b038216612d885760405162461bcd60e51b8152600401610b4890613b79565b612d9482600083612e53565b6001600160a01b03821660009081526020819052604090205481811015612dcd5760405162461bcd60e51b8152600401610b4890613716565b6001600160a01b0383166000908152602081905260408120838303905560028054849290612dfc908490614087565b90915550506040516000906001600160a01b038516907fddf252ad1be2c89b69c2b068fc378daa952ba7f163c4a11628f55a4df523b3ef90612e3f9086906135f4565b60405180910390a3610f3b83600084610f3b565b610f3b8383836128a3565b60008060008411612e815760405162461bcd60e51b8152600401610b4890613d5c565b612e89613149565b841115612ea85760405162461bcd60e51b8152600401610b4890613630565b6000612eb4848661315a565b8454909150811415612ecd576000809250925050612f03565b6001846001018281548110612ef257634e487b7160e01b600052603260045260246000fd5b906000526020600020015492509250505b9250929050565b6000612f166008613239565b6000612f20613149565b90507f8030e83b04d87bef53480e26263266d6ca66863aa8506aca6f2559d18aa1cb6781604051612f5191906135f4565b60405180910390a1905090565b6001600160a01b03811660009081526005602052604090206112d290612f8383611896565b613242565b612f956006612f83610c6b565b565b60606000612fa6836002614068565b612fb190600261403c565b67ffffffffffffffff811115612fd757634e487b7160e01b600052604160045260246000fd5b6040519080825280601f01601f191660200182016040528015613001576020820181803683370190505b509050600360fc1b8160008151811061302a57634e487b7160e01b600052603260045260246000fd5b60200101906001600160f81b031916908160001a905350600f60fb1b8160018151811061306757634e487b7160e01b600052603260045260246000fd5b60200101906001600160f81b031916908160001a905350600061308b846002614068565b61309690600161403c565b90505b600181111561312a576f181899199a1a9b1b9c1cb0b131b232b360811b85600f16601081106130d857634e487b7160e01b600052603260045260246000fd5b1a60f81b8282815181106130fc57634e487b7160e01b600052603260045260246000fd5b60200101906001600160f81b031916908160001a90535060049490941c93613123816140ca565b9050613099565b50831561206e5760405162461bcd60e51b8152600401610b489061369e565b600061315560086128fb565b905090565b815460009061316b57506000610c65565b82546000905b808210156131d5576000613185838361328c565b9050848682815481106131a857634e487b7160e01b600052603260045260246000fd5b906000526020600020015411156131c1578091506131cf565b6131cc81600161403c565b92505b50613171565b600082118015613218575083856131ed600185614087565b8154811061320b57634e487b7160e01b600052603260045260246000fd5b9060005260206000200154145b1561323157613228600183614087565b92505050610c65565b509050610c65565b80546001019055565b600061324c613149565b905080613258846132e3565b1015610f3b578254600180820185556000858152602080822090930193909355938401805494850181558252902090910155565b6000600261329a8184614131565b6132a5600286614131565b6132af919061403c565b6132b99190614054565b6132c4600284614054565b6132cf600286614054565b6132d9919061403c565b61206e919061403c565b80546000906132f457506000610bb6565b8154829061330490600190614087565b8154811061332257634e487b7160e01b600052603260045260246000fd5b90600052602060002001549050610bb6565b80356001600160a01b0381168114610bb657600080fd5b60006020828403121561335c578081fd5b61206e82613334565b60008060408385031215613377578081fd5b61338083613334565b915061338e60208401613334565b90509250929050565b6000806000606084860312156133ab578081fd5b6133b484613334565b92506133c260208501613334565b9150604084013590509250925092565b600080604083850312156133e4578182fd5b6133ed83613334565b946020939093013593505050565b600080600080600060a08688031215613412578081fd5b85358015158114613421578182fd5b97602087013597506040870135966060810135965060800135945092505050565b600060208284031215613453578081fd5b5035919050565b6000806040838503121561346c578182fd5b8235915061338e60208401613334565b60006020828403121561348d578081fd5b81356001600160e01b03198116811461206e578182fd5b600080600080608085870312156134b9578384fd5b8435935060208501359250604085013591506134d760608601613334565b905092959194509250565b60007f416363657373436f6e74726f6c3a206163636f756e74200000000000000000008252835161351a81601785016020880161409e565b7001034b99036b4b9b9b4b733903937b6329607d1b601791840191820152835161354b81602884016020880161409e565b01602801949350505050565b6001600160a01b0391909116815260200190565b6001600160a01b03929092168252602082015260400190565b6001600160a01b039c909c168c5260208c019a909a5260408b019890985260608a0196909652931515608089015260a088019290925260c087015260e08601526101008501521515610120840152151561014083015215156101608201526101800190565b901515815260200190565b90815260200190565b600060208252825180602084015261361c81604085016020870161409e565b601f01601f19169190910160400192915050565b6020808252601d908201527f4552433230536e617073686f743a206e6f6e6578697374656e74206964000000604082015260600190565b60208082526017908201527f5265776172647320616c726561647920636c61696d6564000000000000000000604082015260600190565b6020808252818101527f537472696e67733a20686578206c656e67746820696e73756666696369656e74604082015260600190565b60208082526023908201527f45524332303a207472616e7366657220746f20746865207a65726f206164647260408201526265737360e81b606082015260800190565b60208082526022908201527f45524332303a206275726e20616d6f756e7420657863656564732062616c616e604082015261636560f01b606082015260800190565b60208082526022908201527f45524332303a20617070726f766520746f20746865207a65726f206164647265604082015261737360f01b606082015260800190565b60208082526026908201527f45524332303a207472616e7366657220616d6f756e7420657863656564732062604082015265616c616e636560d01b606082015260800190565b60208082526019908201527f54686520706f6c6c206973207374696c6c206f6e676f696e6700000000000000604082015260600190565b60208082526023908201527f4d75737420776974686472617720616d6f756e742077697468696e2062616c616040820152626e636560e81b606082015260800190565b60208082526047908201527f4d75737420686176652061207374616b65642062616c616e6365206f66206d6f60408201527f7265207468616e206d696e5374616b65204d414920746f206265636f6d6520616060820152661039ba30b5b2b960c91b608082015260a00190565b60208082526027908201527f4164647265737320686173206e6f20766f74657320617661696c61626c6520746040820152666f20636c61696d60c81b606082015260800190565b6020808252602c908201527f4d7573742068617665207374616b657220726f6c6520746f20706572666f726d60408201526b103a3434b99030b1ba34b7b760a11b606082015260800190565b60208082526026908201527f596f75206861766520766f74656420666f7220616e6f746865722073696465206040820152656265666f726560d01b606082015260800190565b602080825260609082018190527f51756f72756d206d7573742065697468657220626520616c6c6f77656420776960408301527f7468206120766f74652071756f72756d206e756d626572206f72206469736162908201527f6c656420776974686f7574206120766f74652071756f72756d206e756d626572608082015260a00190565b6020808252600c908201526b496e76616c6964207369646560a01b604082015260600190565b60208082526028908201527f45524332303a207472616e7366657220616d6f756e74206578636565647320616040820152676c6c6f77616e636560c01b606082015260800190565b60208082526050908201527f596f75206d757374206e6f742062652070617274696369706174696e6720696e60408201527f20616e7920766f746520696e206f7264657220746f207769746864726177206160608201526f6e79207374616b656420746f6b656e7360801b608082015260a00190565b60208082526024908201527f45524332303a206275726e20616d6f756e74206578636565647320616c6c6f77604082015263616e636560e01b606082015260800190565b602080825260139082015272141bdb1b08191bd95cc81b9bdd08195e1a5cdd606a1b604082015260600190565b60208082526021908201527f45524332303a206275726e2066726f6d20746865207a65726f206164647265736040820152607360f81b606082015260800190565b60208082526025908201527f45524332303a207472616e736665722066726f6d20746865207a65726f206164604082015264647265737360d81b606082015260800190565b6020808252603f908201527f54686520616d6f756e74206f6620746f6b656e7320746f206265206275726e6560408201527f642f206d696e746564206d757374206265206c6172676572207468616e203000606082015260800190565b6020808252601a908201527f4d7573742062652061206e6f6e2d7a65726f2061646472657373000000000000604082015260600190565b60208082526024908201527f45524332303a20617070726f76652066726f6d20746865207a65726f206164646040820152637265737360e01b606082015260800190565b60208082526017908201527f4d75737420626520616e206f6e676f696e6720706f6c6c000000000000000000604082015260600190565b6020808252602e908201527f596f7520646f206e6f74206861766520656e6f75676820766f74657320746f2060408201526d3237903a3434b99030b1ba34b7b760911b606082015260800190565b60208082526016908201527504552433230536e617073686f743a20696420697320360541b604082015260600190565b60208082526015908201527474686520706f6c6c20646964206e6f74207061737360581b604082015260600190565b6020808252608f908201527f412062616c616e6365206f6620686967686572207468616e206d696e5374616b60408201527f6520697320726571756972656420746f206d61696e7461696e20726f6c65206f60608201527f66207374616b65722c20696620796f75207769736820746f207265766f6b652060808201527f74686520726f6c65206f66207374616b65722c20757365207265766f6b65537460a08201526e30b5b2b9141490333ab731ba34b7b760891b60c082015260e00190565b60208082526047908201527f4164647265737320686173206e6f20766f7465732063757272656e746c792c2060408201527f63616c6c2066756e6374696f6e20636c61696d566f746520746f20636c61696d606082015266206120766f746560c81b608082015260a00190565b60208082526018908201527f596f752061726520616c72656164792061207374616b65720000000000000000604082015260600190565b6020808252818101527f54686520706f6c6c206973206e6f74206d61646520666f72206d696e74696e67604082015260600190565b60208082526025908201527f45524332303a2064656372656173656420616c6c6f77616e63652062656c6f77604082015264207a65726f60d81b606082015260800190565b6020808252602f908201527f416363657373436f6e74726f6c3a2063616e206f6e6c792072656e6f756e636560408201526e103937b632b9903337b91039b2b63360891b606082015260800190565b6020808252601f908201527f45524332303a206d696e7420746f20746865207a65726f206164647265737300604082015260600190565b918252602082015260400190565b60ff91909116815260200190565b6000821982111561404f5761404f614145565b500190565b6000826140635761406361415b565b500490565b600081600019048311821515161561408257614082614145565b500290565b60008282101561409957614099614145565b500390565b60005b838110156140b95781810151838201526020016140a1565b83811115612b0c5750506000910152565b6000816140d9576140d9614145565b506000190190565b6002810460018216806140f557607f821691505b60208210811415610b8857634e487b7160e01b600052602260045260246000fd5b600060001982141561412a5761412a614145565b5060010190565b6000826141405761414061415b565b500690565b634e487b7160e01b600052601160045260246000fd5b634e487b7160e01b600052601260045260246000fdfeb19546dff01e856fb3f010c267a7b1c60363cf8a4664e21cc89c26224620214eb9e206fa2af7ee1331b72ce58b6d938ac810ce9b5cdb65d35ab723fd67badf9e72c3eec1760bf69946625c2d4fb8e44e2c806345041960b434674fb9ab3976cfa264697066735822122000a56fa1e15e7e8a1933e63e3ebb6638e1effc57f2fd549afad32b0024271b0864736f6c63430008000033",
  "immutableReferences": {},
  "source": "// SPDX-License-Identifier: MIT\npragma solidity >=0.4.22 <0.9.0;\n\nimport \"@openzeppelin/contracts/utils/Context.sol\";\nimport \"@openzeppelin/contracts/token/ERC20/ERC20.sol\";\nimport \"@openzeppelin/contracts/token/ERC20/extensions/ERC20Burnable.sol\";\nimport \"@openzeppelin/contracts/access/AccessControl.sol\";\nimport \"@openzeppelin/contracts/utils/math/SafeMath.sol\";\nimport \"@openzeppelin/contracts/security/Pausable.sol\";\n\nimport \"@openzeppelin/contracts/token/ERC20/extensions/ERC20Snapshot.sol\";\n   \n\ncontract Mai is Context, ERC20, ERC20Burnable, ERC20Snapshot, AccessControl, Pausable {\n    using SafeMath for uint256;\n    bytes32 public constant VOTER_ROLE = keccak256(\"VOTER_ROLE\");\n    bytes32 public constant STAKER_ROLE = keccak256(\"STAKER_ROLE\");\n    bytes32 public constant OWNER_ROLE = keccak256(\"OWNER_ROLE\");\n    bytes32 public constant PAUSER_ROLE = keccak256(\"PAUSER_ROLE\");\n    bytes32 public constant SNAPSHOT_ROLE = keccak256(\"SNAPSHOT_ROLE\");\n    \n    event _VoteMade(uint256 indexed pollID, uint256 votes, address indexed voter, uint256 side);\n    event _VoteClaimed(address indexed voter, uint256 amountClaimed);\n    event _VoteRevoked(uint256 indexed pollID, uint256 votes, address indexed voter); \n    event _VoteEnded(uint256 indexed pollID);\n    event _RewardsMinted(uint256 indexed pollID, uint256 indexed amount);\n    event _RewardsBurned(uint256 indexed pollID, uint256 indexed amount);\n    event _PollCreated(uint256 votedTokenAmount, uint256 end, uint256 indexed pollID, address indexed creator);\n    event _VotingRightsGranted(address indexed voter);\n    event _VotingRightsRevoked(address indexed voter);\n    event _ResultsGenerated(uint256 amount, uint256 pollID);\n    event _Minted(address indexed to, uint256 amount);\n\n    constructor() ERC20(\"Mai\", \"MAI\") {\n        _mint(msg.sender, 10**12 * 10 ** decimals());\n        _setupRole(STAKER_ROLE, msg.sender);\n        _setupRole(OWNER_ROLE, msg.sender);\n        _setupRole(PAUSER_ROLE, msg.sender);\n        _setupRole(SNAPSHOT_ROLE, msg.sender);\n        _setupRole(DEFAULT_ADMIN_ROLE, msg.sender);\n    }\n\n    modifier onlyOwner() {\n        require(hasRole(OWNER_ROLE, msg.sender) || msg.sender == stakingAddress);\n        _;\n    }\n\n    modifier checkTime(uint256 pollID) {\n      if (pollEnded(pollID) == true && pollMapping[pollID].ongoing == true) {\n        pollMapping[pollID].ongoing = false;\n      } \n      _;\n    }\n\n    function correctTime(uint256 pollID) public {\n      if (pollEnded(pollID) == true && pollMapping[pollID].ongoing == true) {\n        pollMapping[pollID].ongoing = false;\n      } \n    }\n\n      \n\n    function pause() onlyOwner internal {\n        _pause();\n    }\n\n    function unpause() onlyOwner internal {\n        _unpause();\n    }\n\n    function snapshot() public onlyOwner() {\n        _snapshot();\n    }\n\n    function _beforeTokenTransfer(address from, address to, uint256 amount)\n        internal\n        override(ERC20, ERC20Snapshot)\n    {\n        super._beforeTokenTransfer(from, to, amount);\n    }\n\n    // Staking\n\n    event _StakerGranted(address to);\n    event _StakerRoleRevoked(address account, uint256 amountReturned);\n    event _StakesDeposited(address account, uint256 amount);\n    event _StakesWithdrawn(address account, uint256 amount);\n    event _MinimumStakeChanged(uint256 minStake);\n\n    mapping(address => uint256) stakedBalance; // Maps user address to the total amount of staked tokens\n\n    \n    uint256 minStake = 1000;\n    // uint256 minStakeTimeBeforeVoterRoleGranted = ;\n\n    function changeMinimumStake(uint256 newMinAmount) onlyOwner public {\n        require(newMinAmount != minStake);\n        require(msg.sender == stakingAddress);\n        minStake = newMinAmount;\n        emit _MinimumStakeChanged(newMinAmount);\n    }\n\n    /**\n    @dev sets staking address for testing only\n    @param staking Staking Address\n    */\n\n    function setStakingAddress(address staking) onlyOwner public {\n      stakingAddress = staking;\n    }\n\n    /**\n    @dev Allows users to stake, adding their respective amount of tokens to the staked balance\n    @param amount Amount of tokens used in the stake pool\n    */\n\n    function stake(uint256 amount) payable public {\n        require(amount >= minStake, \"Must have a staked balance of more than minStake MAI to become a staker\");\n        require(hasRole(STAKER_ROLE, msg.sender) == false, \"You are already a staker\");\n        transferFrom(msg.sender, stakingAddress, amount);\n        grantRole(STAKER_ROLE, msg.sender);\n        stakedBalance[msg.sender] = stakedBalance[msg.sender].add(amount);\n        emit _StakerGranted(msg.sender);\n    }\n\n    /**\n    @dev Withdraws tokens from the stake pool back to the users account, the user must not be part of any active polls\n    @param amount Amount of tokens the user wishes to withdraw\n    */\n\n    function withdraw(uint256 amount) payable public {\n        require(hasRole(STAKER_ROLE, msg.sender), \"Must have staker role to perform this action\");\n        require(amount <= stakedBalance[msg.sender], \"Must withdraw amount within balance\"); \n        require(stakedBalance[msg.sender].sub(amount) >= minStake, \"A balance of higher than minStake is required to maintain role of staker, if you wish to revoke the role of staker, use revokeStaker() function\");\n        require(checkParticipation(msg.sender) == false, \"You must not be participating in any vote in order to withdraw any staked tokens\");\n        transfer(msg.sender, amount);\n        stakedBalance[msg.sender] = stakedBalance[msg.sender].sub(amount);\n        stakedTotal[msg.sender] = stakedTotal[msg.sender].sub(amount);\n        emit _StakesWithdrawn(msg.sender, amount);\n    }\n\n    /**\n    @dev Deposits tokens into the stake pool from the users account\n    @param amount Amount of tokens the user wishes to deposit\n    */\n\n    function deposit(uint256 amount) payable public {\n        require(hasRole(STAKER_ROLE, msg.sender), \"Must have staker role to perform this action\");\n        transfer(stakingAddress, amount);\n        stakedBalance[msg.sender] = stakedBalance[msg.sender].add(amount);\n        stakedTotal[msg.sender] = stakedTotal[msg.sender].add(amount);\n        emit _StakesDeposited(msg.sender, amount);\n    }\n\n    /**\n    @dev Function for users to see the balance they currently have in the stake pool\n    */\n\n    function viewStakedBalance() view public returns (uint256 balance) {\n        require(hasRole(STAKER_ROLE, msg.sender), \"Must have staker role to perform this action\");\n        return (stakedBalance[msg.sender]);\n    }\n\n    /**\n    @dev Function for users to see the TOTAL balance (sum of stakes in all ecosystems) they currently have in the stake pool\n    */\n\n    function viewStakedTotal() view public returns (uint256 balance) {\n      require(hasRole(STAKER_ROLE, msg.sender), \"Must have staker role to perform this action\");\n      return(stakedTotal[msg.sender]);\n    }\n    /**\n    @dev Revokes their staker role and returns all their tokens back to the user\n    */\n    \n    function revokeStaker() public {\n        require(hasRole(STAKER_ROLE, msg.sender), \"Must have staker role to perform this action\");\n        revokeRole(STAKER_ROLE, msg.sender);\n        transfer(msg.sender, stakedBalance[msg.sender]);\n        stakedBalance[msg.sender] = 0;\n        emit _StakerRoleRevoked(msg.sender, stakedBalance[msg.sender]); \n    }\n\n    // Polls and votes\n\n    struct Poll {\n        address pollStarter; // initiator of the poll;\n        uint256 start; // block start;\n        uint256 end; // start + period (_commitDuration)\n        // uint256 end; // Date when poll ends\n        uint256 votedTokenAmount; // Amount of tokens minted/ burned if poll is passed\n        bool quorumOption; // Allows option to judge voting process by percentage \n        uint256 voteQuorum; // The percentage of for votes required for poll to pass\n        uint256 votesFor; // Amount of votes supporting the proposal \n        uint256 votesAgainst; // Amount of votes countering the proposal\n        uint256 action; // action 1: Minting tokens; action 2: Burning tokens; action 3: Transfering tokens; action 4: snapshot;\n        bool ongoing; // Returns true if poll is still active\n        bool rewardsClaimed; // Stores if the rewards were already claimed\n        bool passed; // Stores if the poll passed or not\n        mapping(address => uint256) _votesClaimed; // Amount of votes already claimed by the voter\n        mapping(address => bool) _participant; // Maps address of user to whether they have voted in an active poll\n        mapping(address => uint256) _votes; // Amount of votes placed by the voter\n        mapping(address => uint256) _side; // The side the voter is on if they already voted\n    }\n\n    \n    mapping (uint256 => Poll) public pollMapping; // Maps the pollID to the struct\n    mapping (uint256 => uint256) public totalVotes; // Maps the pollID to its respective number of votes\n    mapping (address => uint256) public stakedTotal; // Maps the user address to their total staked balance in all categories\n    uint256 pollNonce = 0; // Counter for pollID\n    address public stakingAddress; // Address used for storing staked tokens\n\n    /**\n    @dev Initiates poll and emits PollCreate event\n    @param _quorumOption Users can decide if the winner is decided by the percentage majority out of 100 or whether the 'for' side has more votes than the 'against' side\n    @param _voteQuorum Assumes that the _quorumOption is false, passes in the percentage majority out of 100 that is required to win the vote\n    @param _votedTokenAmount The amount of tokens minted/burned if poll is successful \n    @param _commitDuration Length of the poll in seconds\n    @param _action Type of poll, action 1 is for minting tokens, action 2 is for burning tokens, action 3 is for transfering tokens, action 4 is for taking a snapshot.\n    */\n\n    function startPoll(bool _quorumOption, uint256 _voteQuorum, uint256 _action, uint256 _votedTokenAmount, uint256 _commitDuration) public returns (uint256 pollID) {\n        require(hasRole(STAKER_ROLE, msg.sender));\n        require (((_quorumOption == false && _voteQuorum == 0) || (_quorumOption == true && _voteQuorum > 0)), \"Quorum must either be allowed with a vote quorum number or disabled without a vote quorum number\");\n        require (_votedTokenAmount > 0, \"The amount of tokens to be burned/ minted must be larger than 0\");\n        uint256 end = block.timestamp.add(_commitDuration);\n        pollNonce = pollNonce.add(1);\n        Poll storage newPoll = pollMapping[pollNonce];\n        newPoll.pollStarter = msg.sender;\n        newPoll.start = block.timestamp;\n        newPoll.action = _action;\n        newPoll.quorumOption = _quorumOption;\n        newPoll.voteQuorum = _voteQuorum;\n        newPoll.votedTokenAmount = _votedTokenAmount;\n        newPoll.rewardsClaimed = false;\n        newPoll.end = end;\n        newPoll.votesFor = 0;\n        newPoll.votesAgainst = 0;\n        newPoll.ongoing = true;\n        newPoll.passed = false;\n\n        emit _PollCreated(_votedTokenAmount, end, pollNonce, msg.sender);\n        return pollNonce;\n    }\n\n    /**\n    @dev Allocates voter role to stakers and emits event\n    @param voter address of staker\n    */\n\n    function voterAllocation(address voter) public {  //thi\n        require(hasRole(STAKER_ROLE, voter)); \n\n        grantRole(VOTER_ROLE, voter);       \n        emit _VotingRightsGranted(voter);\n    }\n\n    /**\n    @dev Revokes votes that are already made and returns the vote to msg.sender //B: to msg.sender? this does not make sense... \n        //B: is this talking about after a vote is completed or the scenario where a staker unstakes?\n    @param amount Amount of votes to be revoked\n    @param pollID ID of poll\n    */\n    \n    /* B: this revokeVote  function is problematic, as it allows for one to votepump and mislead strategic voters of the other party. \n        Consider this analogy: you have three candidates: Biden, Sanders, and Trump, and their support numbers are 40%, 25%, and 35%.\n        A significant number of Biden supporters support Sanders as well, and they only vote for Biden because they believe Sanders just hasn't got a chance\n        With this revokeVote set-up, Trump supports can pump up Sanders's vote, say to 40% - in which the support numbers would be 40%, 40%, 20%.\n            Biden-Sanders supporters would then be essentially offered a chance to switch to Sanders, and have the candidate of their desire actually win. \n            Suppose 6% of Biden supporters switched to sanders, giving us: 34%, 46%, 20%. Then it would appear that Sanders is winning. \n            At the very last moment, suppose Trump supporters revoke their vote, we'd be left with 34%, 31%, 35%. Trump wins. \n    */\n\n    /*function revokeVote(uint256 amount, uint256 pollID) public {\n        require(msg.sender != address(0));\n        require(pollMapping[pollID].ongoing = true);\n        require(isNotExpired(pollID));\n        require(amount <= pollMapping[pollID]._votes[msg.sender]);\n        pollMapping[pollID]._votes[msg.sender] = pollMapping[pollID]._votes[msg.sender].sub(amount);\n        pollMapping[pollID]._votesClaimed[msg.sender] = pollMapping[pollID]._votesClaimed[msg.sender].add(amount);\n        if (pollMapping[pollID]._votes[msg.sender] == 0) {\n            pollMapping[pollID]._participant[msg.sender] = false;\n        }\n        totalVotes[pollID] = totalVotes[pollID].sub(amount);\n    }\n    */\n\n\n    /**\n    @dev Function that takes away voter role from addresses when necessary\n    @param voter Voter that is going to get their role revoked\n    */\n\n    function voterRevokation(address voter) public {\n        require(hasRole(VOTER_ROLE, voter)); //msg.sender change to voter\n        require(voter != address(0));\n        revokeRole(VOTER_ROLE, voter);\n        emit _VotingRightsRevoked(voter);\n    }\n\n    /**\n    @dev Checks if user has voter role\n    @param voter Address of voter\n    */\n\n    modifier voterCheck(address voter) {\n        require(hasRole(VOTER_ROLE, voter));\n        _;\n    }\n\n    /**\n    @dev Claims votes from existing staked tokens and stores available votes at _votes\n    @param pollID ID of vote\n    */\n\n    function claimVote(uint256 pollID, address voter) public checkTime(pollID) voterCheck(voter) {  // msg.sender is usually for contracts, not addresses. So here, it is change(d) to voter\n        require(voter != address(0));\n        uint256 claimable = (stakedTotal[voter].sub(pollMapping[pollID]._votesClaimed[voter])).sub(minStake.sub(1));\n        require(claimable > 0, \"Address has no votes available to claim\");\n        pollMapping[pollID]._votesClaimed[voter] = pollMapping[pollID]._votesClaimed[voter].add(claimable);\n        pollMapping[pollID]._votes[voter] = pollMapping[pollID]._votes[voter].add(claimable);\n        emit _VoteClaimed(voter, claimable);\n    }\n\n    function mint(address account, uint256 amount) onlyOwner public {\n        _mint(account, amount);\n        emit _Minted(account, amount);\n    }\n\n    /**\n    @dev Returns number of votes available to users\n    @param voter Address of requested voter\n    @param pollID ID of poll\n    */\n\n    function numOfVotes(address voter, uint256 pollID) public checkTime(pollID) returns  (uint256 votes) {\n        require(voter != address(0));\n        return pollMapping[pollID]._votes[voter]; \n    }\n\n    /**\n    @dev Voters makes votes on corresponding polls, deducting their _votes and emitting _VoteMade event\n    @param votesMade Amount of votes going to be made\n    @param pollID ID of the poll\n    @param side The side of the poll the user wants to support (1: for; 2: against)\n    */\n\n\n    function makeVote(uint256 votesMade, uint256 pollID, uint256 side, address voter) public checkTime(pollID) voterCheck(voter) {\n        require(voter != address(0), \"Must be a non-zero address\");\n        require(pollMapping[pollID].ongoing == true, \"Must be an ongoing poll\");\n        require(pollMapping[pollID]._votes[voter] > 0, \"Address has no votes currently, call function claimVote to claim a vote\");\n        require(votesMade <= pollMapping[pollID]._votes[voter], \"You do not have enough votes to do this action\");\n        require(pollMapping[pollID]._side[voter] == 0 || pollMapping[pollID]._side[voter] == side, \"You have voted for another side before\");\n        require(side == 1 || side == 2, \"Invalid side\");\n        if (side == 1) {\n            pollMapping[pollID].votesFor = pollMapping[pollID].votesFor.add(1);\n        } else if (side == 2) {\n            pollMapping[pollID].votesAgainst = pollMapping[pollID].votesAgainst.add(1);\n        }\n        pollMapping[pollID]._side[voter] = side;\n        pollMapping[pollID]._votes[voter] = pollMapping[pollID]._votes[voter].sub(votesMade);\n        totalVotes[pollID] = totalVotes[pollID].add(1);\n        pollMapping[pollID]._participant[voter] = true;\n        emit _VoteMade(pollID, votesMade, voter, side); \n    }\n\n    /**\n    @dev Returns whether the poll/ proposal passed the voting\n    @param pollID ID of the poll\n    */\n    // ties are understood as rejections\n\n    function calculateResults(uint256 pollID) public checkTime(pollID) {\n        require(pollMapping[pollID].ongoing == false, \"The poll is still ongoing\");\n        if (pollMapping[pollID].quorumOption == false) {\n            if (pollMapping[pollID].votesFor > pollMapping[pollID].votesAgainst) {\n              pollMapping[pollID].passed = true;\n            } else if (pollMapping[pollID].votesFor < pollMapping[pollID].votesAgainst) {\n              pollMapping[pollID].passed = false;\n            } else if (pollMapping[pollID].votesFor == pollMapping[pollID].votesAgainst){\n              pollMapping[pollID].passed = false;\n            }\n        } else if (pollMapping[pollID].quorumOption == true) {\n            if (quorumCalc(pollID) >= pollMapping[pollID].voteQuorum) {\n              pollMapping[pollID].passed = true;\n            } else if (quorumCalc(pollID) < pollMapping[pollID].voteQuorum) {\n              pollMapping[pollID].passed = false;\n            } \n        }\n    }\n\n    /**\n    @dev Calculates the percentage of voters that supports the proposal\n    @param pollID ID of the poll\n    */\n\n    function quorumCalc(uint256 pollID) public checkTime(pollID) returns  (uint256 result) {\n        require (totalVotes[pollID] > 0);\n        require (pollExists(pollID), \"Poll does not exist\");\n        uint256 ans = pollMapping[pollID].votesFor.div(totalVotes[pollID]);\n        ans = ans.mul(100);\n        return ans;\n    }\n\n    /**\n    @dev Ends the poll instantly if necessary\n    @param pollID ID of the poll\n    */\n\n    function endPoll(uint pollID) onlyOwner checkTime(pollID) public {\n        require(pollExists(pollID));\n        pollMapping[pollID].ongoing = false;\n    }\n\n    /**\n    @dev can be called by other claim mint, burn or transaction functions\n    @param pollID ID of the poll\n    */\n    \n\n    function _claimRewards(uint256 pollID) checkTime(pollID) public {\n      calculateResults(pollID);\n      require(pollMapping[pollID].passed == true, \"the poll did not pass\");\n      require(pollMapping[pollID].rewardsClaimed == false, \"Rewards already claimed\");\n      pollMapping[pollID].rewardsClaimed = true;\n    }\n\n    /**\n    @dev Mints the proposed amount of tokens after the poll has ended and passed\n    @param pollID ID of the poll\n    */\n        \n\n    function mintRewards (uint256 pollID) checkTime(pollID) onlyOwner payable public {\n        _claimRewards(pollID);\n        require(pollMapping[pollID].action == 1, \"The poll is not made for minting\");\n        require(pollMapping[pollID].ongoing == false, \"The poll is still ongoing\");\n        _beforeTokenTransfer(address(0), msg.sender, pollMapping[pollID].votedTokenAmount);\n        _mint(msg.sender, pollMapping[pollID].votedTokenAmount);\n        emit _ResultsGenerated(pollMapping[pollID].votedTokenAmount, pollID);  \n    }\n\n    /**\n    @dev Burns the proposed amount of tokens after the poll has ended and passed\n    @param pollID ID of the poll\n    */\n\n    function burnRewards (uint256 pollID) checkTime(pollID) onlyOwner payable public { \n        _claimRewards(pollID);\n        require(pollMapping[pollID].action == 2);\n        require(pollMapping[pollID].ongoing == false);\n        _beforeTokenTransfer(msg.sender, address(0), pollMapping[pollID].votedTokenAmount);\n        burnFrom(msg.sender, pollMapping[pollID].votedTokenAmount);\n        emit _ResultsGenerated(pollMapping[pollID].votedTokenAmount, pollID);\n    }\n\n\n    function transferRewards(uint256 pollID, address recipient) checkTime(pollID) onlyOwner public virtual {\n        _claimRewards(pollID);\n        require(pollMapping[pollID].action == 3);\n        require(pollMapping[pollID].ongoing == false);\n        _beforeTokenTransfer(msg.sender, address(0), pollMapping[pollID].votedTokenAmount);\n        burn(pollMapping[pollID].votedTokenAmount);\n        _transfer(_msgSender(), recipient, pollMapping[pollID].votedTokenAmount);\n        \n        emit _ResultsGenerated(pollMapping[pollID].votedTokenAmount, pollID);\n    }\n\n    function takeSnapshot(uint256 pollID) onlyOwner public virtual {\n        require(pollMapping[pollID].action == 4);\n        require(pollMapping[pollID].ongoing == false);\n        snapshot();        \n    }\n\n    /**\n    @dev Checks if the address of the voter has participated in any active poll\n    @param voter Address of the voter\n    */\n\n    function checkParticipation(address voter) public returns(bool participating){\n        for (uint256 i = 1; i <= pollNonce; i++) {\n            correctTime(i);\n            if (pollMapping[i].ongoing == true && pollMapping[i]._participant[voter] == true) {\n                return true;\n            }\n        }\n        return false;\n    }\n\n    /**\n    @dev Checks if poll exists and returns a boolean value\n    @param _pollID ID of the poll\n    */\n\n    function pollExists(uint256 _pollID) public view returns (bool exists) {\n        return (_pollID != 0 && _pollID <= pollNonce);\n    }\n\n    /**\n    @dev Checks of poll has ended or not\n    @param _pollID ID of the poll\n    */\n\n    function pollEnded(uint256 _pollID) public view returns (bool ended) {\n        require(pollExists(_pollID));\n\n        return isExpired(pollMapping[_pollID].end);\n    }\n\n    /**\n    @dev Checks if a date has expired or not\n    @param _terminationDate The date for checking\n    */\n\n    function isExpired(uint256 _terminationDate) public view returns (bool expired) {\n      if (block.timestamp > _terminationDate) {\n        return true;\n      } else if (block.timestamp <= _terminationDate) {\n        return false;\n      }\n    }\n}\n\n",
  "sourcePath": "/Users/colinlam/Desktop/code/HoHey/contracts/MaiToken.sol",
  "compiler": {
    "name": "solc",
    "version": "0.8.0+commit.c7dfd78e.Emscripten.clang"
  },
  "schemaVersion": "3.4.1",
  "updatedAt": "2021-07-25T16:54:55.321Z",
  "devdoc": {
    "kind": "dev",
    "methods": {
      "_claimRewards(uint256)": {
        "details": "can be called by other claim mint, burn or transaction functions",
        "params": {
          "pollID": "ID of the poll"
        }
      },
      "allowance(address,address)": {
        "details": "See {IERC20-allowance}."
      },
      "approve(address,uint256)": {
        "details": "See {IERC20-approve}. Requirements: - `spender` cannot be the zero address."
      },
      "balanceOf(address)": {
        "details": "See {IERC20-balanceOf}."
      },
      "balanceOfAt(address,uint256)": {
        "details": "Retrieves the balance of `account` at the time `snapshotId` was created."
      },
      "burn(uint256)": {
        "details": "Destroys `amount` tokens from the caller. See {ERC20-_burn}."
      },
      "burnFrom(address,uint256)": {
        "details": "Destroys `amount` tokens from `account`, deducting from the caller's allowance. See {ERC20-_burn} and {ERC20-allowance}. Requirements: - the caller must have allowance for ``accounts``'s tokens of at least `amount`."
      },
      "burnRewards(uint256)": {
        "details": "Burns the proposed amount of tokens after the poll has ended and passed",
        "params": {
          "pollID": "ID of the poll"
        }
      },
      "calculateResults(uint256)": {
        "details": "Returns whether the poll/ proposal passed the voting",
        "params": {
          "pollID": "ID of the poll"
        }
      },
      "checkParticipation(address)": {
        "details": "Checks if the address of the voter has participated in any active poll",
        "params": {
          "voter": "Address of the voter"
        }
      },
      "claimVote(uint256,address)": {
        "details": "Claims votes from existing staked tokens and stores available votes at _votes",
        "params": {
          "pollID": "ID of vote"
        }
      },
      "decimals()": {
        "details": "Returns the number of decimals used to get its user representation. For example, if `decimals` equals `2`, a balance of `505` tokens should be displayed to a user as `5,05` (`505 / 10 ** 2`). Tokens usually opt for a value of 18, imitating the relationship between Ether and Wei. This is the value {ERC20} uses, unless this function is overridden; NOTE: This information is only used for _display_ purposes: it in no way affects any of the arithmetic of the contract, including {IERC20-balanceOf} and {IERC20-transfer}."
      },
      "decreaseAllowance(address,uint256)": {
        "details": "Atomically decreases the allowance granted to `spender` by the caller. This is an alternative to {approve} that can be used as a mitigation for problems described in {IERC20-approve}. Emits an {Approval} event indicating the updated allowance. Requirements: - `spender` cannot be the zero address. - `spender` must have allowance for the caller of at least `subtractedValue`."
      },
      "deposit(uint256)": {
        "details": "Deposits tokens into the stake pool from the users account",
        "params": {
          "amount": "Amount of tokens the user wishes to deposit"
        }
      },
      "endPoll(uint256)": {
        "details": "Ends the poll instantly if necessary",
        "params": {
          "pollID": "ID of the poll"
        }
      },
      "getRoleAdmin(bytes32)": {
        "details": "Returns the admin role that controls `role`. See {grantRole} and {revokeRole}. To change a role's admin, use {_setRoleAdmin}."
      },
      "grantRole(bytes32,address)": {
        "details": "Grants `role` to `account`. If `account` had not been already granted `role`, emits a {RoleGranted} event. Requirements: - the caller must have ``role``'s admin role."
      },
      "hasRole(bytes32,address)": {
        "details": "Returns `true` if `account` has been granted `role`."
      },
      "increaseAllowance(address,uint256)": {
        "details": "Atomically increases the allowance granted to `spender` by the caller. This is an alternative to {approve} that can be used as a mitigation for problems described in {IERC20-approve}. Emits an {Approval} event indicating the updated allowance. Requirements: - `spender` cannot be the zero address."
      },
      "isExpired(uint256)": {
        "details": "Checks if a date has expired or not",
        "params": {
          "_terminationDate": "The date for checking"
        }
      },
      "makeVote(uint256,uint256,uint256,address)": {
        "details": "Voters makes votes on corresponding polls, deducting their _votes and emitting _VoteMade event",
        "params": {
          "pollID": "ID of the poll",
          "side": "The side of the poll the user wants to support (1: for; 2: against)",
          "votesMade": "Amount of votes going to be made"
        }
      },
      "mintRewards(uint256)": {
        "details": "Mints the proposed amount of tokens after the poll has ended and passed",
        "params": {
          "pollID": "ID of the poll"
        }
      },
      "name()": {
        "details": "Returns the name of the token."
      },
      "numOfVotes(address,uint256)": {
        "details": "Returns number of votes available to users",
        "params": {
          "pollID": "ID of poll",
          "voter": "Address of requested voter"
        }
      },
      "paused()": {
        "details": "Returns true if the contract is paused, and false otherwise."
      },
      "pollEnded(uint256)": {
        "details": "Checks of poll has ended or not",
        "params": {
          "_pollID": "ID of the poll"
        }
      },
      "pollExists(uint256)": {
        "details": "Checks if poll exists and returns a boolean value",
        "params": {
          "_pollID": "ID of the poll"
        }
      },
      "quorumCalc(uint256)": {
        "details": "Calculates the percentage of voters that supports the proposal",
        "params": {
          "pollID": "ID of the poll"
        }
      },
      "renounceRole(bytes32,address)": {
        "details": "Revokes `role` from the calling account. Roles are often managed via {grantRole} and {revokeRole}: this function's purpose is to provide a mechanism for accounts to lose their privileges if they are compromised (such as when a trusted device is misplaced). If the calling account had been granted `role`, emits a {RoleRevoked} event. Requirements: - the caller must be `account`."
      },
      "revokeRole(bytes32,address)": {
        "details": "Revokes `role` from `account`. If `account` had been granted `role`, emits a {RoleRevoked} event. Requirements: - the caller must have ``role``'s admin role."
      },
      "revokeStaker()": {
        "details": "Revokes their staker role and returns all their tokens back to the user"
      },
      "setStakingAddress(address)": {
        "details": "sets staking address for testing only",
        "params": {
          "staking": "Staking Address"
        }
      },
      "stake(uint256)": {
        "details": "Allows users to stake, adding their respective amount of tokens to the staked balance",
        "params": {
          "amount": "Amount of tokens used in the stake pool"
        }
      },
      "startPoll(bool,uint256,uint256,uint256,uint256)": {
        "details": "Initiates poll and emits PollCreate event",
        "params": {
          "_action": "Type of poll, action 1 is for minting tokens, action 2 is for burning tokens, action 3 is for transfering tokens, action 4 is for taking a snapshot.",
          "_commitDuration": "Length of the poll in seconds",
          "_quorumOption": "Users can decide if the winner is decided by the percentage majority out of 100 or whether the 'for' side has more votes than the 'against' side",
          "_voteQuorum": "Assumes that the _quorumOption is false, passes in the percentage majority out of 100 that is required to win the vote",
          "_votedTokenAmount": "The amount of tokens minted/burned if poll is successful "
        }
      },
      "supportsInterface(bytes4)": {
        "details": "See {IERC165-supportsInterface}."
      },
      "symbol()": {
        "details": "Returns the symbol of the token, usually a shorter version of the name."
      },
      "totalSupply()": {
        "details": "See {IERC20-totalSupply}."
      },
      "totalSupplyAt(uint256)": {
        "details": "Retrieves the total supply at the time `snapshotId` was created."
      },
      "transfer(address,uint256)": {
        "details": "See {IERC20-transfer}. Requirements: - `recipient` cannot be the zero address. - the caller must have a balance of at least `amount`."
      },
      "transferFrom(address,address,uint256)": {
        "details": "See {IERC20-transferFrom}. Emits an {Approval} event indicating the updated allowance. This is not required by the EIP. See the note at the beginning of {ERC20}. Requirements: - `sender` and `recipient` cannot be the zero address. - `sender` must have a balance of at least `amount`. - the caller must have allowance for ``sender``'s tokens of at least `amount`."
      },
      "viewStakedBalance()": {
        "details": "Function for users to see the balance they currently have in the stake pool"
      },
      "viewStakedTotal()": {
        "details": "Function for users to see the TOTAL balance (sum of stakes in all ecosystems) they currently have in the stake pool"
      },
      "voterAllocation(address)": {
        "details": "Allocates voter role to stakers and emits event",
        "params": {
          "voter": "address of staker"
        }
      },
      "voterRevokation(address)": {
        "details": "Function that takes away voter role from addresses when necessary",
        "params": {
          "voter": "Voter that is going to get their role revoked"
        }
      },
      "withdraw(uint256)": {
        "details": "Withdraws tokens from the stake pool back to the users account, the user must not be part of any active polls",
        "params": {
          "amount": "Amount of tokens the user wishes to withdraw"
        }
      }
    },
    "version": 1
  },
  "userdoc": {
    "kind": "user",
    "methods": {},
    "version": 1
  }
}