{
  "contractName": "Mai",
  "abi": [
    {
      "inputs": [],
      "stateMutability": "nonpayable",
      "type": "constructor"
    },
    {
      "anonymous": false,
      "inputs": [
        {
          "indexed": true,
          "internalType": "address",
          "name": "owner",
          "type": "address"
        },
        {
          "indexed": true,
          "internalType": "address",
          "name": "spender",
          "type": "address"
        },
        {
          "indexed": false,
          "internalType": "uint256",
          "name": "value",
          "type": "uint256"
        }
      ],
      "name": "Approval",
      "type": "event"
    },
    {
      "anonymous": false,
      "inputs": [
        {
          "indexed": false,
          "internalType": "address",
          "name": "account",
          "type": "address"
        }
      ],
      "name": "Paused",
      "type": "event"
    },
    {
      "anonymous": false,
      "inputs": [
        {
          "indexed": true,
          "internalType": "bytes32",
          "name": "role",
          "type": "bytes32"
        },
        {
          "indexed": true,
          "internalType": "bytes32",
          "name": "previousAdminRole",
          "type": "bytes32"
        },
        {
          "indexed": true,
          "internalType": "bytes32",
          "name": "newAdminRole",
          "type": "bytes32"
        }
      ],
      "name": "RoleAdminChanged",
      "type": "event"
    },
    {
      "anonymous": false,
      "inputs": [
        {
          "indexed": true,
          "internalType": "bytes32",
          "name": "role",
          "type": "bytes32"
        },
        {
          "indexed": true,
          "internalType": "address",
          "name": "account",
          "type": "address"
        },
        {
          "indexed": true,
          "internalType": "address",
          "name": "sender",
          "type": "address"
        }
      ],
      "name": "RoleGranted",
      "type": "event"
    },
    {
      "anonymous": false,
      "inputs": [
        {
          "indexed": true,
          "internalType": "bytes32",
          "name": "role",
          "type": "bytes32"
        },
        {
          "indexed": true,
          "internalType": "address",
          "name": "account",
          "type": "address"
        },
        {
          "indexed": true,
          "internalType": "address",
          "name": "sender",
          "type": "address"
        }
      ],
      "name": "RoleRevoked",
      "type": "event"
    },
    {
      "anonymous": false,
      "inputs": [
        {
          "indexed": false,
          "internalType": "uint256",
          "name": "id",
          "type": "uint256"
        }
      ],
      "name": "Snapshot",
      "type": "event"
    },
    {
      "anonymous": false,
      "inputs": [
        {
          "indexed": true,
          "internalType": "address",
          "name": "from",
          "type": "address"
        },
        {
          "indexed": true,
          "internalType": "address",
          "name": "to",
          "type": "address"
        },
        {
          "indexed": false,
          "internalType": "uint256",
          "name": "value",
          "type": "uint256"
        }
      ],
      "name": "Transfer",
      "type": "event"
    },
    {
      "anonymous": false,
      "inputs": [
        {
          "indexed": false,
          "internalType": "address",
          "name": "account",
          "type": "address"
        }
      ],
      "name": "Unpaused",
      "type": "event"
    },
    {
      "anonymous": false,
      "inputs": [
        {
          "indexed": false,
          "internalType": "uint256",
          "name": "minStake",
          "type": "uint256"
        }
      ],
      "name": "_MinimumStakeChanged",
      "type": "event"
    },
    {
      "anonymous": false,
      "inputs": [
        {
          "indexed": true,
          "internalType": "address",
          "name": "to",
          "type": "address"
        },
        {
          "indexed": false,
          "internalType": "uint256",
          "name": "amount",
          "type": "uint256"
        }
      ],
      "name": "_Minted",
      "type": "event"
    },
    {
      "anonymous": false,
      "inputs": [
        {
          "indexed": false,
          "internalType": "uint256",
          "name": "votedTokenAmount",
          "type": "uint256"
        },
        {
          "indexed": false,
          "internalType": "uint256",
          "name": "end",
          "type": "uint256"
        },
        {
          "indexed": true,
          "internalType": "uint256",
          "name": "pollID",
          "type": "uint256"
        },
        {
          "indexed": true,
          "internalType": "address",
          "name": "creator",
          "type": "address"
        }
      ],
      "name": "_PollCreated",
      "type": "event"
    },
    {
      "anonymous": false,
      "inputs": [
        {
          "indexed": false,
          "internalType": "uint256",
          "name": "amountMinted",
          "type": "uint256"
        },
        {
          "indexed": false,
          "internalType": "uint256",
          "name": "pollID",
          "type": "uint256"
        }
      ],
      "name": "_ResultsGenerated",
      "type": "event"
    },
    {
      "anonymous": false,
      "inputs": [
        {
          "indexed": true,
          "internalType": "uint256",
          "name": "pollID",
          "type": "uint256"
        },
        {
          "indexed": true,
          "internalType": "uint256",
          "name": "amount",
          "type": "uint256"
        }
      ],
      "name": "_RewardsBurned",
      "type": "event"
    },
    {
      "anonymous": false,
      "inputs": [
        {
          "indexed": true,
          "internalType": "uint256",
          "name": "pollID",
          "type": "uint256"
        },
        {
          "indexed": true,
          "internalType": "uint256",
          "name": "amount",
          "type": "uint256"
        }
      ],
      "name": "_RewardsMinted",
      "type": "event"
    },
    {
      "anonymous": false,
      "inputs": [
        {
          "indexed": false,
          "internalType": "address",
          "name": "to",
          "type": "address"
        }
      ],
      "name": "_StakerGranted",
      "type": "event"
    },
    {
      "anonymous": false,
      "inputs": [
        {
          "indexed": false,
          "internalType": "address",
          "name": "account",
          "type": "address"
        },
        {
          "indexed": false,
          "internalType": "uint256",
          "name": "amountReturned",
          "type": "uint256"
        }
      ],
      "name": "_StakerRoleRevoked",
      "type": "event"
    },
    {
      "anonymous": false,
      "inputs": [
        {
          "indexed": false,
          "internalType": "address",
          "name": "account",
          "type": "address"
        },
        {
          "indexed": false,
          "internalType": "uint256",
          "name": "amount",
          "type": "uint256"
        }
      ],
      "name": "_StakesDeposited",
      "type": "event"
    },
    {
      "anonymous": false,
      "inputs": [
        {
          "indexed": false,
          "internalType": "address",
          "name": "account",
          "type": "address"
        },
        {
          "indexed": false,
          "internalType": "uint256",
          "name": "amount",
          "type": "uint256"
        }
      ],
      "name": "_StakesWithdrawn",
      "type": "event"
    },
    {
      "anonymous": false,
      "inputs": [
        {
          "indexed": true,
          "internalType": "address",
          "name": "voter",
          "type": "address"
        },
        {
          "indexed": false,
          "internalType": "uint256",
          "name": "amountClaimed",
          "type": "uint256"
        }
      ],
      "name": "_VoteClaimed",
      "type": "event"
    },
    {
      "anonymous": false,
      "inputs": [
        {
          "indexed": true,
          "internalType": "uint256",
          "name": "pollID",
          "type": "uint256"
        }
      ],
      "name": "_VoteEnded",
      "type": "event"
    },
    {
      "anonymous": false,
      "inputs": [
        {
          "indexed": true,
          "internalType": "uint256",
          "name": "pollID",
          "type": "uint256"
        },
        {
          "indexed": false,
          "internalType": "uint256",
          "name": "votes",
          "type": "uint256"
        },
        {
          "indexed": true,
          "internalType": "address",
          "name": "voter",
          "type": "address"
        },
        {
          "indexed": false,
          "internalType": "uint256",
          "name": "side",
          "type": "uint256"
        }
      ],
      "name": "_VoteMade",
      "type": "event"
    },
    {
      "anonymous": false,
      "inputs": [
        {
          "indexed": true,
          "internalType": "uint256",
          "name": "pollID",
          "type": "uint256"
        },
        {
          "indexed": false,
          "internalType": "uint256",
          "name": "votes",
          "type": "uint256"
        },
        {
          "indexed": true,
          "internalType": "address",
          "name": "voter",
          "type": "address"
        }
      ],
      "name": "_VoteRevoked",
      "type": "event"
    },
    {
      "anonymous": false,
      "inputs": [
        {
          "indexed": true,
          "internalType": "address",
          "name": "voter",
          "type": "address"
        }
      ],
      "name": "_VotingRightsGranted",
      "type": "event"
    },
    {
      "anonymous": false,
      "inputs": [
        {
          "indexed": true,
          "internalType": "address",
          "name": "voter",
          "type": "address"
        }
      ],
      "name": "_VotingRightsRevoked",
      "type": "event"
    },
    {
      "inputs": [],
      "name": "DEFAULT_ADMIN_ROLE",
      "outputs": [
        {
          "internalType": "bytes32",
          "name": "",
          "type": "bytes32"
        }
      ],
      "stateMutability": "view",
      "type": "function",
      "constant": true
    },
    {
      "inputs": [],
      "name": "OWNER_ROLE",
      "outputs": [
        {
          "internalType": "bytes32",
          "name": "",
          "type": "bytes32"
        }
      ],
      "stateMutability": "view",
      "type": "function",
      "constant": true
    },
    {
      "inputs": [],
      "name": "PAUSER_ROLE",
      "outputs": [
        {
          "internalType": "bytes32",
          "name": "",
          "type": "bytes32"
        }
      ],
      "stateMutability": "view",
      "type": "function",
      "constant": true
    },
    {
      "inputs": [],
      "name": "SNAPSHOT_ROLE",
      "outputs": [
        {
          "internalType": "bytes32",
          "name": "",
          "type": "bytes32"
        }
      ],
      "stateMutability": "view",
      "type": "function",
      "constant": true
    },
    {
      "inputs": [],
      "name": "STAKER_ROLE",
      "outputs": [
        {
          "internalType": "bytes32",
          "name": "",
          "type": "bytes32"
        }
      ],
      "stateMutability": "view",
      "type": "function",
      "constant": true
    },
    {
      "inputs": [],
      "name": "VOTER_ROLE",
      "outputs": [
        {
          "internalType": "bytes32",
          "name": "",
          "type": "bytes32"
        }
      ],
      "stateMutability": "view",
      "type": "function",
      "constant": true
    },
    {
      "inputs": [
        {
          "internalType": "address",
          "name": "owner",
          "type": "address"
        },
        {
          "internalType": "address",
          "name": "spender",
          "type": "address"
        }
      ],
      "name": "allowance",
      "outputs": [
        {
          "internalType": "uint256",
          "name": "",
          "type": "uint256"
        }
      ],
      "stateMutability": "view",
      "type": "function",
      "constant": true
    },
    {
      "inputs": [
        {
          "internalType": "address",
          "name": "spender",
          "type": "address"
        },
        {
          "internalType": "uint256",
          "name": "amount",
          "type": "uint256"
        }
      ],
      "name": "approve",
      "outputs": [
        {
          "internalType": "bool",
          "name": "",
          "type": "bool"
        }
      ],
      "stateMutability": "nonpayable",
      "type": "function"
    },
    {
      "inputs": [
        {
          "internalType": "address",
          "name": "account",
          "type": "address"
        }
      ],
      "name": "balanceOf",
      "outputs": [
        {
          "internalType": "uint256",
          "name": "",
          "type": "uint256"
        }
      ],
      "stateMutability": "view",
      "type": "function",
      "constant": true
    },
    {
      "inputs": [
        {
          "internalType": "address",
          "name": "account",
          "type": "address"
        },
        {
          "internalType": "uint256",
          "name": "snapshotId",
          "type": "uint256"
        }
      ],
      "name": "balanceOfAt",
      "outputs": [
        {
          "internalType": "uint256",
          "name": "",
          "type": "uint256"
        }
      ],
      "stateMutability": "view",
      "type": "function",
      "constant": true
    },
    {
      "inputs": [
        {
          "internalType": "uint256",
          "name": "amount",
          "type": "uint256"
        }
      ],
      "name": "burn",
      "outputs": [],
      "stateMutability": "nonpayable",
      "type": "function"
    },
    {
      "inputs": [
        {
          "internalType": "address",
          "name": "account",
          "type": "address"
        },
        {
          "internalType": "uint256",
          "name": "amount",
          "type": "uint256"
        }
      ],
      "name": "burnFrom",
      "outputs": [],
      "stateMutability": "nonpayable",
      "type": "function"
    },
    {
      "inputs": [],
      "name": "decimals",
      "outputs": [
        {
          "internalType": "uint8",
          "name": "",
          "type": "uint8"
        }
      ],
      "stateMutability": "view",
      "type": "function",
      "constant": true
    },
    {
      "inputs": [
        {
          "internalType": "address",
          "name": "spender",
          "type": "address"
        },
        {
          "internalType": "uint256",
          "name": "subtractedValue",
          "type": "uint256"
        }
      ],
      "name": "decreaseAllowance",
      "outputs": [
        {
          "internalType": "bool",
          "name": "",
          "type": "bool"
        }
      ],
      "stateMutability": "nonpayable",
      "type": "function"
    },
    {
      "inputs": [
        {
          "internalType": "bytes32",
          "name": "role",
          "type": "bytes32"
        }
      ],
      "name": "getRoleAdmin",
      "outputs": [
        {
          "internalType": "bytes32",
          "name": "",
          "type": "bytes32"
        }
      ],
      "stateMutability": "view",
      "type": "function",
      "constant": true
    },
    {
      "inputs": [
        {
          "internalType": "bytes32",
          "name": "role",
          "type": "bytes32"
        },
        {
          "internalType": "address",
          "name": "account",
          "type": "address"
        }
      ],
      "name": "grantRole",
      "outputs": [],
      "stateMutability": "nonpayable",
      "type": "function"
    },
    {
      "inputs": [
        {
          "internalType": "bytes32",
          "name": "role",
          "type": "bytes32"
        },
        {
          "internalType": "address",
          "name": "account",
          "type": "address"
        }
      ],
      "name": "hasRole",
      "outputs": [
        {
          "internalType": "bool",
          "name": "",
          "type": "bool"
        }
      ],
      "stateMutability": "view",
      "type": "function",
      "constant": true
    },
    {
      "inputs": [
        {
          "internalType": "address",
          "name": "spender",
          "type": "address"
        },
        {
          "internalType": "uint256",
          "name": "addedValue",
          "type": "uint256"
        }
      ],
      "name": "increaseAllowance",
      "outputs": [
        {
          "internalType": "bool",
          "name": "",
          "type": "bool"
        }
      ],
      "stateMutability": "nonpayable",
      "type": "function"
    },
    {
      "inputs": [],
      "name": "name",
      "outputs": [
        {
          "internalType": "string",
          "name": "",
          "type": "string"
        }
      ],
      "stateMutability": "view",
      "type": "function",
      "constant": true
    },
    {
      "inputs": [],
      "name": "paused",
      "outputs": [
        {
          "internalType": "bool",
          "name": "",
          "type": "bool"
        }
      ],
      "stateMutability": "view",
      "type": "function",
      "constant": true
    },
    {
      "inputs": [
        {
          "internalType": "uint256",
          "name": "",
          "type": "uint256"
        }
      ],
      "name": "pollMapping",
      "outputs": [
        {
          "internalType": "address",
          "name": "pollStarter",
          "type": "address"
        },
        {
          "internalType": "uint256",
          "name": "start",
          "type": "uint256"
        },
        {
          "internalType": "uint256",
          "name": "end",
          "type": "uint256"
        },
        {
          "internalType": "uint256",
          "name": "votedTokenAmount",
          "type": "uint256"
        },
        {
          "internalType": "bool",
          "name": "quorumOption",
          "type": "bool"
        },
        {
          "internalType": "uint256",
          "name": "voteQuorum",
          "type": "uint256"
        },
        {
          "internalType": "uint256",
          "name": "votesFor",
          "type": "uint256"
        },
        {
          "internalType": "uint256",
          "name": "votesAgainst",
          "type": "uint256"
        },
        {
          "internalType": "uint256",
          "name": "action",
          "type": "uint256"
        },
        {
          "internalType": "bool",
          "name": "ongoing",
          "type": "bool"
        }
      ],
      "stateMutability": "view",
      "type": "function",
      "constant": true
    },
    {
      "inputs": [
        {
          "internalType": "bytes32",
          "name": "role",
          "type": "bytes32"
        },
        {
          "internalType": "address",
          "name": "account",
          "type": "address"
        }
      ],
      "name": "renounceRole",
      "outputs": [],
      "stateMutability": "nonpayable",
      "type": "function"
    },
    {
      "inputs": [
        {
          "internalType": "bytes32",
          "name": "role",
          "type": "bytes32"
        },
        {
          "internalType": "address",
          "name": "account",
          "type": "address"
        }
      ],
      "name": "revokeRole",
      "outputs": [],
      "stateMutability": "nonpayable",
      "type": "function"
    },
    {
      "inputs": [
        {
          "internalType": "address",
          "name": "",
          "type": "address"
        }
      ],
      "name": "stakedTotal",
      "outputs": [
        {
          "internalType": "uint256",
          "name": "",
          "type": "uint256"
        }
      ],
      "stateMutability": "view",
      "type": "function",
      "constant": true
    },
    {
      "inputs": [],
      "name": "stakingAddress",
      "outputs": [
        {
          "internalType": "address",
          "name": "",
          "type": "address"
        }
      ],
      "stateMutability": "view",
      "type": "function",
      "constant": true
    },
    {
      "inputs": [
        {
          "internalType": "bytes4",
          "name": "interfaceId",
          "type": "bytes4"
        }
      ],
      "name": "supportsInterface",
      "outputs": [
        {
          "internalType": "bool",
          "name": "",
          "type": "bool"
        }
      ],
      "stateMutability": "view",
      "type": "function",
      "constant": true
    },
    {
      "inputs": [],
      "name": "symbol",
      "outputs": [
        {
          "internalType": "string",
          "name": "",
          "type": "string"
        }
      ],
      "stateMutability": "view",
      "type": "function",
      "constant": true
    },
    {
      "inputs": [],
      "name": "totalSupply",
      "outputs": [
        {
          "internalType": "uint256",
          "name": "",
          "type": "uint256"
        }
      ],
      "stateMutability": "view",
      "type": "function",
      "constant": true
    },
    {
      "inputs": [
        {
          "internalType": "uint256",
          "name": "snapshotId",
          "type": "uint256"
        }
      ],
      "name": "totalSupplyAt",
      "outputs": [
        {
          "internalType": "uint256",
          "name": "",
          "type": "uint256"
        }
      ],
      "stateMutability": "view",
      "type": "function",
      "constant": true
    },
    {
      "inputs": [
        {
          "internalType": "uint256",
          "name": "",
          "type": "uint256"
        }
      ],
      "name": "totalVotes",
      "outputs": [
        {
          "internalType": "uint256",
          "name": "",
          "type": "uint256"
        }
      ],
      "stateMutability": "view",
      "type": "function",
      "constant": true
    },
    {
      "inputs": [
        {
          "internalType": "address",
          "name": "recipient",
          "type": "address"
        },
        {
          "internalType": "uint256",
          "name": "amount",
          "type": "uint256"
        }
      ],
      "name": "transfer",
      "outputs": [
        {
          "internalType": "bool",
          "name": "",
          "type": "bool"
        }
      ],
      "stateMutability": "nonpayable",
      "type": "function"
    },
    {
      "inputs": [
        {
          "internalType": "address",
          "name": "sender",
          "type": "address"
        },
        {
          "internalType": "address",
          "name": "recipient",
          "type": "address"
        },
        {
          "internalType": "uint256",
          "name": "amount",
          "type": "uint256"
        }
      ],
      "name": "transferFrom",
      "outputs": [
        {
          "internalType": "bool",
          "name": "",
          "type": "bool"
        }
      ],
      "stateMutability": "nonpayable",
      "type": "function"
    },
    {
      "inputs": [],
      "name": "snapshot",
      "outputs": [],
      "stateMutability": "nonpayable",
      "type": "function"
    },
    {
      "inputs": [
        {
          "internalType": "uint256",
          "name": "newMinAmount",
          "type": "uint256"
        }
      ],
      "name": "changeMinimumStake",
      "outputs": [],
      "stateMutability": "nonpayable",
      "type": "function"
    },
    {
      "inputs": [
        {
          "internalType": "uint256",
          "name": "amount",
          "type": "uint256"
        }
      ],
      "name": "stake",
      "outputs": [],
      "stateMutability": "payable",
      "type": "function",
      "payable": true
    },
    {
      "inputs": [
        {
          "internalType": "uint256",
          "name": "amount",
          "type": "uint256"
        }
      ],
      "name": "withdraw",
      "outputs": [],
      "stateMutability": "payable",
      "type": "function",
      "payable": true
    },
    {
      "inputs": [
        {
          "internalType": "uint256",
          "name": "amount",
          "type": "uint256"
        }
      ],
      "name": "deposit",
      "outputs": [],
      "stateMutability": "payable",
      "type": "function",
      "payable": true
    },
    {
      "inputs": [],
      "name": "viewStakedBalance",
      "outputs": [
        {
          "internalType": "uint256",
          "name": "balance",
          "type": "uint256"
        }
      ],
      "stateMutability": "view",
      "type": "function",
      "constant": true
    },
    {
      "inputs": [],
      "name": "revokeStaker",
      "outputs": [],
      "stateMutability": "nonpayable",
      "type": "function"
    },
    {
      "inputs": [
        {
          "internalType": "bool",
          "name": "_quorumOption",
          "type": "bool"
        },
        {
          "internalType": "uint256",
          "name": "_voteQuorum",
          "type": "uint256"
        },
        {
          "internalType": "uint256",
          "name": "_action",
          "type": "uint256"
        },
        {
          "internalType": "uint256",
          "name": "_votedTokenAmount",
          "type": "uint256"
        },
        {
          "internalType": "uint256",
          "name": "_commitDuration",
          "type": "uint256"
        }
      ],
      "name": "startPoll",
      "outputs": [
        {
          "internalType": "uint256",
          "name": "pollID",
          "type": "uint256"
        }
      ],
      "stateMutability": "nonpayable",
      "type": "function"
    },
    {
      "inputs": [
        {
          "internalType": "address",
          "name": "voter",
          "type": "address"
        }
      ],
      "name": "voterAllocation",
      "outputs": [],
      "stateMutability": "nonpayable",
      "type": "function"
    },
    {
      "inputs": [
        {
          "internalType": "address",
          "name": "voter",
          "type": "address"
        }
      ],
      "name": "voterRevokation",
      "outputs": [],
      "stateMutability": "nonpayable",
      "type": "function"
    },
    {
      "inputs": [
        {
          "internalType": "uint256",
          "name": "pollID",
          "type": "uint256"
        },
        {
          "internalType": "address",
          "name": "voter",
          "type": "address"
        }
      ],
      "name": "claimVote",
      "outputs": [],
      "stateMutability": "nonpayable",
      "type": "function"
    },
    {
      "inputs": [
        {
          "internalType": "address",
          "name": "voter",
          "type": "address"
        },
        {
          "internalType": "uint256",
          "name": "pollID",
          "type": "uint256"
        }
      ],
      "name": "numOfVotes",
      "outputs": [
        {
          "internalType": "uint256",
          "name": "votes",
          "type": "uint256"
        }
      ],
      "stateMutability": "view",
      "type": "function",
      "constant": true
    },
    {
      "inputs": [
        {
          "internalType": "uint256",
          "name": "votesMade",
          "type": "uint256"
        },
        {
          "internalType": "uint256",
          "name": "pollID",
          "type": "uint256"
        },
        {
          "internalType": "uint256",
          "name": "side",
          "type": "uint256"
        },
        {
          "internalType": "address",
          "name": "voter",
          "type": "address"
        }
      ],
      "name": "makeVote",
      "outputs": [],
      "stateMutability": "nonpayable",
      "type": "function"
    },
    {
      "inputs": [
        {
          "internalType": "uint256",
          "name": "pollID",
          "type": "uint256"
        }
      ],
      "name": "results",
      "outputs": [
        {
          "internalType": "bool",
          "name": "passed",
          "type": "bool"
        }
      ],
      "stateMutability": "nonpayable",
      "type": "function"
    },
    {
      "inputs": [
        {
          "internalType": "uint256",
          "name": "pollID",
          "type": "uint256"
        }
      ],
      "name": "quorumCalc",
      "outputs": [
        {
          "internalType": "uint256",
          "name": "result",
          "type": "uint256"
        }
      ],
      "stateMutability": "view",
      "type": "function",
      "constant": true
    },
    {
      "inputs": [
        {
          "internalType": "uint256",
          "name": "pollID",
          "type": "uint256"
        }
      ],
      "name": "endPoll",
      "outputs": [],
      "stateMutability": "nonpayable",
      "type": "function"
    },
    {
      "inputs": [
        {
          "internalType": "uint256",
          "name": "pollID",
          "type": "uint256"
        }
      ],
      "name": "mintRewards",
      "outputs": [],
      "stateMutability": "payable",
      "type": "function",
      "payable": true
    },
    {
      "inputs": [
        {
          "internalType": "uint256",
          "name": "pollID",
          "type": "uint256"
        }
      ],
      "name": "burnRewards",
      "outputs": [],
      "stateMutability": "payable",
      "type": "function",
      "payable": true
    },
    {
      "inputs": [
        {
          "internalType": "uint256",
          "name": "pollID",
          "type": "uint256"
        },
        {
          "internalType": "address",
          "name": "recipient",
          "type": "address"
        }
      ],
      "name": "transferRewards",
      "outputs": [],
      "stateMutability": "nonpayable",
      "type": "function"
    },
    {
      "inputs": [
        {
          "internalType": "uint256",
          "name": "pollID",
          "type": "uint256"
        }
      ],
      "name": "takeSnapshot",
      "outputs": [],
      "stateMutability": "nonpayable",
      "type": "function"
    },
    {
      "inputs": [
        {
          "internalType": "address",
          "name": "voter",
          "type": "address"
        }
      ],
      "name": "checkParticipation",
      "outputs": [
        {
          "internalType": "bool",
          "name": "participating",
          "type": "bool"
        }
      ],
      "stateMutability": "view",
      "type": "function",
      "constant": true
    },
    {
      "inputs": [
        {
          "internalType": "uint256",
          "name": "_pollID",
          "type": "uint256"
        }
      ],
      "name": "pollExists",
      "outputs": [
        {
          "internalType": "bool",
          "name": "exists",
          "type": "bool"
        }
      ],
      "stateMutability": "view",
      "type": "function",
      "constant": true
    },
    {
      "inputs": [
        {
          "internalType": "uint256",
          "name": "_pollID",
          "type": "uint256"
        }
      ],
      "name": "pollEnded",
      "outputs": [
        {
          "internalType": "bool",
          "name": "ended",
          "type": "bool"
        }
      ],
      "stateMutability": "view",
      "type": "function",
      "constant": true
    },
    {
      "inputs": [
        {
          "internalType": "uint256",
          "name": "_terminationDate",
          "type": "uint256"
        }
      ],
      "name": "isNotExpired",
      "outputs": [
        {
          "internalType": "bool",
          "name": "expired",
          "type": "bool"
        }
      ],
      "stateMutability": "view",
      "type": "function",
      "constant": true
    }
  ],
  "bytecode": "0x60806040526103e8600c5560006010553480156200001c57600080fd5b506040805180820182526003808252624d616960e81b60208084019182528451808601909552828552624d414960e81b90850152825192939262000062929190620004c0565b50805162000078906004906020840190620004c0565b5050600a805460ff1916905550620000b833620000946200016e565b620000a190600a6200060e565b620000b29064e8d4a5100062000706565b62000173565b620000e47fb9e206fa2af7ee1331b72ce58b6d938ac810ce9b5cdb65d35ab723fd67badf9e3362000247565b620001107fb19546dff01e856fb3f010c267a7b1c60363cf8a4664e21cc89c26224620214e3362000247565b6200013c7f65d7a28e3265b37a6474929f336521b332c1681b933f6cb9f3376673440d862a3362000247565b620001687f5fdbd35e8da83ee755d5e62a539e5ed7f47126abede0b8b10f9ea43dc6eed07f3362000247565b62000795565b601290565b6001600160a01b038216620001a55760405162461bcd60e51b81526004016200019c9062000566565b60405180910390fd5b620001b36000838362000257565b8060026000828254620001c79190620005a6565b90915550506001600160a01b03821660009081526020819052604081208054839290620001f6908490620005a6565b90915550506040516001600160a01b038316906000907fddf252ad1be2c89b69c2b068fc378daa952ba7f163c4a11628f55a4df523b3ef906200023b9085906200059d565b60405180910390a35050565b62000253828262000274565b5050565b6200026f8383836200030060201b620020f81760201c565b505050565b62000280828262000372565b620002535760008281526009602090815260408083206001600160a01b03851684529091529020805460ff19166001179055620002bc6200039d565b6001600160a01b0316816001600160a01b0316837f2f8788117e7eff1d82e926ec794901d17c78024a50270940304540a733656f0d60405160405180910390a45050565b620003188383836200026f60201b62000f041760201c565b6001600160a01b03831662000342576200033282620003a1565b6200033c620003d2565b6200026f565b6001600160a01b0382166200035c576200033283620003a1565b6200036783620003a1565b6200026f82620003a1565b60009182526009602090815260408084206001600160a01b0393909316845291905290205460ff1690565b3390565b6001600160a01b0381166000908152600560205260409020620003cf90620003c983620003e4565b62000403565b50565b620003e26006620003c96200045f565b565b6001600160a01b0381166000908152602081905260409020545b919050565b60006200041c60086200046560201b620021501760201c565b9050806200042a8462000469565b10156200026f578254600180820185556000858152602080822090930193909355938401805494850181558252902090910155565b60025490565b5490565b80546000906200047c57506000620003fe565b815482906200048e9060019062000728565b81548110620004ad57634e487b7160e01b600052603260045260246000fd5b90600052602060002001549050620003fe565b828054620004ce9062000742565b90600052602060002090601f016020900481019282620004f257600085556200053d565b82601f106200050d57805160ff19168380011785556200053d565b828001600101855582156200053d579182015b828111156200053d57825182559160200191906001019062000520565b506200054b9291506200054f565b5090565b5b808211156200054b576000815560010162000550565b6020808252601f908201527f45524332303a206d696e7420746f20746865207a65726f206164647265737300604082015260600190565b90815260200190565b60008219821115620005bc57620005bc6200077f565b500190565b80825b6001808611620005d5575062000605565b818704821115620005ea57620005ea6200077f565b80861615620005f857918102915b9490941c938002620005c4565b94509492505050565b60006200062260001960ff85168462000629565b9392505050565b6000826200063a5750600162000622565b81620006495750600062000622565b81600181146200066257600281146200066d57620006a1565b600191505062000622565b60ff8411156200068157620006816200077f565b6001841b9150848211156200069a576200069a6200077f565b5062000622565b5060208310610133831016604e8410600b8410161715620006d9575081810a83811115620006d357620006d36200077f565b62000622565b620006e88484846001620005c1565b808604821115620006fd57620006fd6200077f565b02949350505050565b60008160001904831182151516156200072357620007236200077f565b500290565b6000828210156200073d576200073d6200077f565b500390565b6002810460018216806200075757607f821691505b602082108114156200077957634e487b7160e01b600052602260045260246000fd5b50919050565b634e487b7160e01b600052601160045260246000fd5b6137bc80620007a56000396000f3fe60806040526004361061036a5760003560e01c806385f8db10116101c6578063ae47785b116100f7578063d7b4be2411610095578063e63ab1e91161006f578063e63ab1e914610976578063ee6848301461098b578063f43b8778146109ab578063f5679189146109cb5761036a565b8063d7b4be241461091f578063dd62ed3e14610941578063e58378bb146109615761036a565b8063ca5f0b99116100d1578063ca5f0b991461089f578063cd8cd048146108bf578063d0beb73a146108df578063d547741f146108ff5761036a565b8063ae47785b14610857578063b687bcc01461086c578063b6b55f251461088c5761036a565b80639711715a11610164578063a457c2d71161013e578063a457c2d7146107ef578063a694fc3a1461080f578063a9059cbb14610822578063a94015c8146108425761036a565b80639711715a146107a5578063981b24d0146107ba578063a217fddf146107da5761036a565b80638c405503116101a05780638c405503146107305780638fecb1a21461075057806391d148541461077057806395d89b41146107905761036a565b806385f8db10146106e857806388d21ff3146106fd57806389ec02571461071d5761036a565b8063356cb555116102a05780634828ced91161023e5780637028e2cd116102185780637028e2cd1461067357806370a082311461068857806379cc6790146106a857806379d0e6fe146106c85761036a565b80634828ced91461062b5780634ee2cd7e1461063e5780635c975abb1461065e5761036a565b80633780b3ed1161027a5780633780b3ed146105b657806339509351146105cb57806342966c68146105eb57806343398cd21461060b5761036a565b8063356cb5551461054057806336568abe14610560578063372c48e1146105805761036a565b80631b0c27da1161030d578063248a9ca3116102e7578063248a9ca3146104c95780632e1a7d4d146104e95780632f2ff15d146104fe578063313ce5671461051e5761036a565b80631b0c27da1461046957806321e04c321461048957806323b872dd146104a95761036a565b806306fdde031161034957806306fdde03146103f2578063095ea7b31461041457806318160ddd1461043457806319e6e158146104495761036a565b8062f027201461036f57806301ffc9a7146103a557806303d29a5b146103d2575b600080fd5b34801561037b57600080fd5b5061038f61038a366004612c7e565b6109eb565b60405161039c9190612e1d565b60405180910390f35b3480156103b157600080fd5b506103c56103c0366004612cb8565b610a6d565b60405161039c9190612e12565b3480156103de57600080fd5b506103c56103ed366004612c7e565b610a98565b3480156103fe57600080fd5b50610407610a9d565b60405161039c9190612e26565b34801561042057600080fd5b506103c561042f366004612c0e565b610b2f565b34801561044057600080fd5b5061038f610b4c565b34801561045557600080fd5b5061038f610464366004612c7e565b610b52565b34801561047557600080fd5b506103c5610484366004612c7e565b610b64565b34801561049557600080fd5b506103c56104a4366004612b87565b610c73565b3480156104b557600080fd5b506103c56104c4366004612bd3565b610cfc565b3480156104d557600080fd5b5061038f6104e4366004612c7e565b610d93565b6104fc6104f7366004612c7e565b610da8565b005b34801561050a57600080fd5b506104fc610519366004612c96565b610ee0565b34801561052a57600080fd5b50610533610f09565b60405161039c91906135d9565b34801561054c57600080fd5b506104fc61055b366004612c96565b610f0e565b34801561056c57600080fd5b506104fc61057b366004612c96565b61108e565b34801561058c57600080fd5b506105a061059b366004612c7e565b6110d4565b60405161039c9a99989796959493929190612dc0565b3480156105c257600080fd5b5061038f611134565b3480156105d757600080fd5b506103c56105e6366004612c0e565b611146565b3480156105f757600080fd5b506104fc610606366004612c7e565b611195565b34801561061757600080fd5b506104fc610626366004612c7e565b6111a9565b6104fc610639366004612c7e565b61123a565b34801561064a57600080fd5b5061038f610659366004612c0e565b61134c565b34801561066a57600080fd5b506103c5611395565b34801561067f57600080fd5b5061038f61139e565b34801561069457600080fd5b5061038f6106a3366004612b87565b6113c2565b3480156106b457600080fd5b506104fc6106c3366004612c0e565b6113dd565b3480156106d457600080fd5b506104fc6106e3366004612ce0565b61142d565b3480156106f457600080fd5b5061038f6116ea565b34801561070957600080fd5b506103c5610718366004612c7e565b611734565b6104fc61072b366004612c7e565b611749565b34801561073c57600080fd5b5061038f61074b366004612c0e565b611817565b34801561075c57600080fd5b506104fc61076b366004612c96565b611858565b34801561077c57600080fd5b506103c561078b366004612c96565b611997565b34801561079c57600080fd5b506104076119c2565b3480156107b157600080fd5b506104fc6119d1565b3480156107c657600080fd5b5061038f6107d5366004612c7e565b611a0f565b3480156107e657600080fd5b5061038f611a3f565b3480156107fb57600080fd5b506103c561080a366004612c0e565b611a44565b6104fc61081d366004612c7e565b611abf565b34801561082e57600080fd5b506103c561083d366004612c0e565b611ba3565b34801561084e57600080fd5b5061038f611bb7565b34801561086357600080fd5b506104fc611bc9565b34801561087857600080fd5b506104fc610887366004612b87565b611c7b565b6104fc61089a366004612c7e565b611ceb565b3480156108ab57600080fd5b5061038f6108ba366004612c37565b611d96565b3480156108cb57600080fd5b506104fc6108da366004612b87565b611eca565b3480156108eb57600080fd5b506104fc6108fa366004612c7e565b611f4d565b34801561090b57600080fd5b506104fc61091a366004612c96565b611fc8565b34801561092b57600080fd5b50610934611fe7565b60405161039c9190612d93565b34801561094d57600080fd5b5061038f61095c366004612ba1565b611ff6565b34801561096d57600080fd5b5061038f612021565b34801561098257600080fd5b5061038f612033565b34801561099757600080fd5b506103c56109a6366004612c7e565b612057565b3480156109b757600080fd5b506104fc6109c6366004612c7e565b612086565b3480156109d757600080fd5b5061038f6109e6366004612b87565b6120e6565b6000818152600e6020526040812054610a0357600080fd5b610a0c82611734565b610a315760405162461bcd60e51b8152600401610a2890613217565b60405180910390fd5b6000828152600e6020908152604080832054600d909252822060060154610a5791612154565b9050610a64816064612167565b9150505b919050565b60006001600160e01b03198216637965db0b60e01b1480610a925750610a9282612173565b92915050565b421090565b606060038054610aac90613690565b80601f0160208091040260200160405190810160405280929190818152602001828054610ad890613690565b8015610b255780601f10610afa57610100808354040283529160200191610b25565b820191906000526020600020905b815481529060010190602001808311610b0857829003601f168201915b5050505050905090565b6000610b43610b3c61218c565b8484612190565b50600192915050565b60025490565b600e6020526000908152604090205481565b6000610b6f82612086565b610b7882610a98565b15610b8257600080fd5b610b8b82611734565b610b9457600080fd5b6000828152600d602052604090206004015460ff16610c03576000828152600d6020526040902060078101546006909101541115610bd457506001610a68565b6000828152600d6020526040902060078101546006909101541015610bfb57506000610a68565b506000610a68565b6000828152600d602052604090206004015460ff16151560011415610a68576000828152600d6020526040902060050154610c3d836109eb565b10610c4a57506001610a68565b6000828152600d6020526040902060050154610c65836109eb565b1015610bfb57506000610a68565b600060015b601054811015610cf3576000818152600d602052604090206009015460ff1615156001148015610cd257506000818152600d602090815260408083206001600160a01b0387168452600b0190915290205460ff1615156001145b15610ce1576001915050610a68565b80610ceb816136cb565b915050610c78565b50600092915050565b6000610d09848484612244565b6001600160a01b038416600090815260016020526040812081610d2a61218c565b6001600160a01b03166001600160a01b0316815260200190815260200160002054905082811015610d6d5760405162461bcd60e51b8152600401610a2890613115565b610d8885610d7961218c565b610d838685613632565b612190565b506001949350505050565b60009081526009602052604090206001015490565b610dc060008051602061374783398151915233611997565b610ddc5760405162461bcd60e51b8152600401610a28906130c9565b336000908152600b6020526040902054811115610e0b5760405162461bcd60e51b8152600401610a2890612fd2565b600c54336000908152600b6020526040902054610e28908361236c565b1015610e465760405162461bcd60e51b8152600401610a289061339b565b610e4f33610c73565b15610e6c5760405162461bcd60e51b8152600401610a289061315d565b610e763382611ba3565b50336000908152600b6020526040902054610e91908261236c565b336000818152600b6020526040908190209290925590517f636cb222c0a14b941cff2b7b16a3920b7043e92dabbf4ebe5104f45b7c5ea23c91610ed5918490612da7565b60405180910390a150565b610ee982610d93565b610efa81610ef561218c565b612378565b610f0483836123dc565b505050565b601290565b80610f2760008051602061376783398151915282611997565b610f3057600080fd5b6001600160a01b038216610f4357600080fd5b6000610f956001600c54610f579190613632565b6000868152600d602090815260408083206001600160a01b0389168452600a01825280832054600f90925290912054610f8f9161236c565b9061236c565b905060008111610fb75760405162461bcd60e51b8152600401610a2890613082565b6000848152600d602090815260408083206001600160a01b0387168452600a01909152902054610fe79082612463565b6000858152600d602090815260408083206001600160a01b0388168452600a8101835281842094909455600c909301905220546110249082612463565b6000858152600d602090815260408083206001600160a01b038816808552600c9091019092529182902092909255517f11121ac798069fb07833ce3bd6cbfb51fec926c61a652138d3241566fe72407990611080908490612e1d565b60405180910390a250505050565b61109661218c565b6001600160a01b0316816001600160a01b0316146110c65760405162461bcd60e51b8152600401610a2890613545565b6110d0828261246f565b5050565b600d6020526000908152604090208054600182015460028301546003840154600485015460058601546006870154600788015460088901546009909901546001600160a01b039098169896979596949560ff94851695939492939192168a565b60008051602061374783398151915281565b6000610b4361115361218c565b84846001600061116161218c565b6001600160a01b03908116825260208083019390935260409182016000908120918b1681529252902054610d8391906135e7565b6111a66111a061218c565b826124f4565b50565b6111c160008051602061372783398151915233611997565b806111d657506011546001600160a01b031633145b6111df57600080fd5b600c548114156111ee57600080fd5b6011546001600160a01b0316331461120557600080fd5b600c8190556040517fa780cb8437215d835d6296c681503f759ac98b8f069b8bdc2ec57a92054ff76990610ed5908390612e1d565b61125260008051602061372783398151915233611997565b8061126757506011546001600160a01b031633145b61127057600080fd5b61128860008051602061372783398151915233611997565b61129157600080fd5b6000818152600d60205260409020600801546001146112af57600080fd5b6000818152600d602052604090206009015460ff16156112ce57600080fd5b6000818152600d60205260408120600301546112ec919033906125da565b6000818152600d60205260409020600301546113099033906125e5565b6000818152600d6020526040908190206003015490517f143263f7b9f933ad95c7547e531e5a27d3f06f741fae22be1353448a3d0e917191610ed59184906135cb565b6001600160a01b0382166000908152600560205260408120819081906113739085906126a5565b915091508161138a57611385856113c2565b61138c565b805b95945050505050565b600a5460ff1690565b7f5fdbd35e8da83ee755d5e62a539e5ed7f47126abede0b8b10f9ea43dc6eed07f81565b6001600160a01b031660009081526020819052604090205490565b60006113eb8361095c61218c565b90508181101561140d5760405162461bcd60e51b8152600401610a28906131d3565b6114238361141961218c565b610d838585613632565b610f0483836124f4565b8061144660008051602061376783398151915282611997565b61144f57600080fd5b6001600160a01b03821661146257600080fd5b6000848152600d60205260409020600901805460ff1916600117905561148784610a98565b61149057600080fd5b6000848152600d602090815260408083206001600160a01b0386168452600c019091529020546114d25760405162461bcd60e51b8152600401610a289061345c565b6000848152600d602090815260408083206001600160a01b0386168452600c0190915290205485111561150457600080fd5b6000848152600d602081815260408084206001600160a01b03871685529092019052902054158061155857506000848152600d602081815260408084206001600160a01b0387168552909201905290205483145b61156157600080fd5b82600114806115705750826002145b61157957600080fd5b82600114156115b6576000848152600d602052604090206006015461159f906001612463565b6000858152600d60205260409020600601556115ef565b82600214156115ef576000848152600d60205260409020600701546115dc906001612463565b6000858152600d60205260409020600701555b6000848152600d602081815260408084206001600160a01b03871685529283018252808420879055600c909201905290205461162b908661236c565b6000858152600d602090815260408083206001600160a01b0387168452600c01825280832093909355868252600e90522054611668906001612463565b6000858152600e6020908152604080832093909355600d81528282206001600160a01b038616808452600b90910190915290829020805460ff19166001179055905185907f5996e6b79a799eac35fb8f87a5ec15485d68232f99e6a9a13118feb7b77adb80906116db90899088906135cb565b60405180910390a35050505050565b600061170460008051602061374783398151915233611997565b6117205760405162461bcd60e51b8152600401610a28906130c9565b50336000908152600b602052604090205490565b60008115801590610a92575050601054101590565b61176160008051602061372783398151915233611997565b8061177657506011546001600160a01b031633145b61177f57600080fd5b61179760008051602061372783398151915233611997565b6117a057600080fd5b6000818152600d60205260409020600801546002146117be57600080fd5b6000818152600d602052604090206009015460ff16156117dd57600080fd5b6000818152600d60205260408120600301546117fa9133916125da565b6000818152600d60205260409020600301546113099033906113dd565b60006001600160a01b03831661182c57600080fd5b506000908152600d602090815260408083206001600160a01b03949094168352600c9093019052205490565b61187060008051602061372783398151915233611997565b8061188557506011546001600160a01b031633145b61188e57600080fd5b6118a660008051602061372783398151915233611997565b6118af57600080fd5b6000828152600d60205260409020600801546003146118cd57600080fd5b6000828152600d602052604090206009015460ff16156118ec57600080fd5b6000828152600d60205260408120600301546119099133916125da565b6000828152600d602052604090206003015461192490611195565b61194861192f61218c565b6000848152600d60205260409020600301548390612244565b6000828152600d6020526040908190206003015490517f143263f7b9f933ad95c7547e531e5a27d3f06f741fae22be1353448a3d0e91719161198b9185906135cb565b60405180910390a15050565b60009182526009602090815260408084206001600160a01b0393909316845291905290205460ff1690565b606060048054610aac90613690565b6119e960008051602061372783398151915233611997565b806119fe57506011546001600160a01b031633145b611a0757600080fd5b6111a6612753565b6000806000611a1f8460066126a5565b9150915081611a3557611a30610b4c565b611a37565b805b949350505050565b600081565b60008060016000611a5361218c565b6001600160a01b0390811682526020808301939093526040918201600090812091881681529252902054905082811015611a9f5760405162461bcd60e51b8152600401610a2890613500565b611ab5611aaa61218c565b85610d838685613632565b5060019392505050565b600c54811015611ae15760405162461bcd60e51b8152600401610a2890613015565b611af960008051602061374783398151915233611997565b15611b165760405162461bcd60e51b8152600401610a28906134c9565b601154611b2e9033906001600160a01b031683610cfc565b50611b4760008051602061374783398151915233610ee0565b336000908152600b6020526040902054611b619082612463565b336000818152600b6020526040908190209290925590517faa9b7cbce69f378b88683439602b2857dc079ec95e5996ecd5e84df0673de4d791610ed591612d93565b6000610b43611bb061218c565b8484612244565b60008051602061376783398151915281565b611be160008051602061374783398151915233611997565b611bfd5760405162461bcd60e51b8152600401610a28906130c9565b611c1560008051602061374783398151915233611fc8565b336000818152600b6020526040902054611c2f9190611ba3565b50336000818152600b6020526040808220829055517fcb71ce4aef17d5694e262b4bedec3b5f7ea68f25621d775f80bc72e78d27692d92611c71929091612da7565b60405180910390a1565b611c9360008051602061374783398151915282611997565b611c9c57600080fd5b611cb460008051602061376783398151915282610ee0565b6040516001600160a01b038216907f3025407ee9b066f6cd97886b0c47bda6b6ebbb42d2c7574284f5814cfd3a504a90600090a250565b611d0360008051602061374783398151915233611997565b611d1f5760405162461bcd60e51b8152600401610a28906130c9565b601154611d379033906001600160a01b031683610cfc565b50336000908152600b6020526040902054611d529082612463565b336000818152600b6020526040908190209290925590517f91dd5382838389dd317d2f661bec79d34c5b6abd4d2d475f84079da548c030fc91610ed5918490612da7565b600085158015611da4575084155b80611dbc57506001861515148015611dbc5750600085115b611dc557600080fd5b60008311611de55760405162461bcd60e51b8152600401610a28906132ca565b6000611df14284612463565b601054909150611e02906001612463565b60108181556000918252600d602052604080832080546001600160a01b03191633908117825542600180840191909155600883018b90556004830180548e151560ff1991821617909155600584018d9055600384018b90556002840188905560068401879055600784019690965560098301805490961617909455915490519192917f75c3234b322da18df8c948bde9b9983e5a43633c4e2647d4d9f4f15c0706f05d90611eb390899087906135cb565b60405180910390a350506010549695505050505050565b611ee260008051602061376783398151915282611997565b611eeb57600080fd5b6001600160a01b038116611efe57600080fd5b611f1660008051602061376783398151915282611fc8565b6040516001600160a01b038216907fc8f0ca04e3a4bee64fa8f12ab2c36bf665502f928567c2adfbbcc4ad796ed26990600090a250565b611f6560008051602061372783398151915233611997565b80611f7a57506011546001600160a01b031633145b611f8357600080fd5b6000818152600d6020526040902060080154600414611fa157600080fd5b6000818152600d602052604090206009015460ff1615611fc057600080fd5b6111a66119d1565b611fd182610d93565b611fdd81610ef561218c565b610f04838361246f565b6011546001600160a01b031681565b6001600160a01b03918216600090815260016020908152604080832093909416825291909152205490565b60008051602061372783398151915281565b7f65d7a28e3265b37a6474929f336521b332c1681b933f6cb9f3376673440d862a81565b600061206282611734565b61206b57600080fd5b6000828152600d6020526040902060020154610a9290610a98565b6120b07f65d7a28e3265b37a6474929f336521b332c1681b933f6cb9f3376673440d862a33611997565b6120b957600080fd5b6120c281611734565b6120cb57600080fd5b6000908152600d60205260409020600901805460ff19169055565b600f6020526000908152604090205481565b612103838383610f04565b6001600160a01b0383166121275761211a826127a9565b6121226127d3565b610f04565b6001600160a01b03821661213e5761211a836127a9565b612147836127a9565b610f04826127a9565b5490565b600061216082846135ff565b9392505050565b60006121608284613613565b6001600160e01b031981166301ffc9a760e01b14919050565b3390565b6001600160a01b0383166121b65760405162461bcd60e51b8152600401610a2890613327565b6001600160a01b0382166121dc5760405162461bcd60e51b8152600401610a2890612f4a565b6001600160a01b0380841660008181526001602090815260408083209487168084529490915290819020849055517f8c5be1e5ebec7d5bd14f71427d1e84f3dd0314c0f7b2291e5b200ac8c7c3b92590612237908590612e1d565b60405180910390a3505050565b6001600160a01b03831661226a5760405162461bcd60e51b8152600401610a2890613285565b6001600160a01b0382166122905760405162461bcd60e51b8152600401610a2890612ec5565b61229b8383836125da565b6001600160a01b038316600090815260208190526040902054818110156122d45760405162461bcd60e51b8152600401610a2890612f8c565b6122de8282613632565b6001600160a01b0380861660009081526020819052604080822093909355908516815290812080548492906123149084906135e7565b92505081905550826001600160a01b0316846001600160a01b03167fddf252ad1be2c89b69c2b068fc378daa952ba7f163c4a11628f55a4df523b3ef8460405161235e9190612e1d565b60405180910390a350505050565b60006121608284613632565b6123828282611997565b6110d05761239a816001600160a01b031660146127e2565b6123a58360206127e2565b6040516020016123b6929190612d1e565b60408051601f198184030181529082905262461bcd60e51b8252610a2891600401612e26565b6123e68282611997565b6110d05760008281526009602090815260408083206001600160a01b03851684529091529020805460ff1916600117905561241f61218c565b6001600160a01b0316816001600160a01b0316837f2f8788117e7eff1d82e926ec794901d17c78024a50270940304540a733656f0d60405160405180910390a45050565b600061216082846135e7565b6124798282611997565b156110d05760008281526009602090815260408083206001600160a01b03851684529091529020805460ff191690556124b061218c565b6001600160a01b0316816001600160a01b0316837ff6391f5c32d9c69d2a47ea670b442974b53935d1edc7fd64eb21e047a839171b60405160405180910390a45050565b6001600160a01b03821661251a5760405162461bcd60e51b8152600401610a2890613244565b612526826000836125da565b6001600160a01b0382166000908152602081905260409020548181101561255f5760405162461bcd60e51b8152600401610a2890612f08565b6125698282613632565b6001600160a01b03841660009081526020819052604081209190915560028054849290612597908490613632565b90915550506040516000906001600160a01b038516907fddf252ad1be2c89b69c2b068fc378daa952ba7f163c4a11628f55a4df523b3ef90612237908690612e1d565b610f048383836120f8565b6001600160a01b03821661260b5760405162461bcd60e51b8152600401610a2890613594565b612617600083836125da565b806002600082825461262991906135e7565b90915550506001600160a01b038216600090815260208190526040812080548392906126569084906135e7565b90915550506040516001600160a01b038316906000907fddf252ad1be2c89b69c2b068fc378daa952ba7f163c4a11628f55a4df523b3ef90612699908590612e1d565b60405180910390a35050565b600080600084116126c85760405162461bcd60e51b8152600401610a289061336b565b6126d26008612150565b8411156126f15760405162461bcd60e51b8152600401610a2890612e59565b60006126fd8486612994565b845490915081141561271657600080925092505061274c565b600184600101828154811061273b57634e487b7160e01b600052603260045260246000fd5b906000526020600020015492509250505b9250929050565b600061275f6008612a73565b600061276b6008612150565b90507f8030e83b04d87bef53480e26263266d6ca66863aa8506aca6f2559d18aa1cb678160405161279c9190612e1d565b60405180910390a1905090565b6001600160a01b03811660009081526005602052604090206111a6906127ce836113c2565b612a7c565b6127e060066127ce610b4c565b565b606060006127f1836002613613565b6127fc9060026135e7565b67ffffffffffffffff81111561282257634e487b7160e01b600052604160045260246000fd5b6040519080825280601f01601f19166020018201604052801561284c576020820181803683370190505b509050600360fc1b8160008151811061287557634e487b7160e01b600052603260045260246000fd5b60200101906001600160f81b031916908160001a905350600f60fb1b816001815181106128b257634e487b7160e01b600052603260045260246000fd5b60200101906001600160f81b031916908160001a90535060006128d6846002613613565b6128e19060016135e7565b90505b6001811115612975576f181899199a1a9b1b9c1cb0b131b232b360811b85600f166010811061292357634e487b7160e01b600052603260045260246000fd5b1a60f81b82828151811061294757634e487b7160e01b600052603260045260246000fd5b60200101906001600160f81b031916908160001a90535060049490941c9361296e81613679565b90506128e4565b5083156121605760405162461bcd60e51b8152600401610a2890612e90565b81546000906129a557506000610a92565b82546000905b80821015612a0f5760006129bf8383612ac8565b9050848682815481106129e257634e487b7160e01b600052603260045260246000fd5b906000526020600020015411156129fb57809150612a09565b612a068160016135e7565b92505b506129ab565b600082118015612a5257508385612a27600185613632565b81548110612a4557634e487b7160e01b600052603260045260246000fd5b9060005260206000200154145b15612a6b57612a62600183613632565b92505050610a92565b509050610a92565b80546001019055565b6000612a886008612150565b905080612a9484612b1f565b1015610f04578254600180820185556000858152602080822090930193909355938401805494850181558252902090910155565b60006002612ad681846136e6565b612ae16002866136e6565b612aeb91906135e7565b612af591906135ff565b612b006002846135ff565b612b0b6002866135ff565b612b1591906135e7565b61216091906135e7565b8054600090612b3057506000610a68565b81548290612b4090600190613632565b81548110612b5e57634e487b7160e01b600052603260045260246000fd5b90600052602060002001549050610a68565b80356001600160a01b0381168114610a6857600080fd5b600060208284031215612b98578081fd5b61216082612b70565b60008060408385031215612bb3578081fd5b612bbc83612b70565b9150612bca60208401612b70565b90509250929050565b600080600060608486031215612be7578081fd5b612bf084612b70565b9250612bfe60208501612b70565b9150604084013590509250925092565b60008060408385031215612c20578182fd5b612c2983612b70565b946020939093013593505050565b600080600080600060a08688031215612c4e578081fd5b85358015158114612c5d578182fd5b97602087013597506040870135966060810135965060800135945092505050565b600060208284031215612c8f578081fd5b5035919050565b60008060408385031215612ca8578182fd5b82359150612bca60208401612b70565b600060208284031215612cc9578081fd5b81356001600160e01b031981168114612160578182fd5b60008060008060808587031215612cf5578384fd5b843593506020850135925060408501359150612d1360608601612b70565b905092959194509250565b60007f416363657373436f6e74726f6c3a206163636f756e742000000000000000000082528351612d56816017850160208801613649565b7001034b99036b4b9b9b4b733903937b6329607d1b6017918401918201528351612d87816028840160208801613649565b01602801949350505050565b6001600160a01b0391909116815260200190565b6001600160a01b03929092168252602082015260400190565b6001600160a01b039a909a168a5260208a019890985260408901969096526060880194909452911515608087015260a086015260c085015260e084015261010083015215156101208201526101400190565b901515815260200190565b90815260200190565b6000602082528251806020840152612e45816040850160208701613649565b601f01601f19169190910160400192915050565b6020808252601d908201527f4552433230536e617073686f743a206e6f6e6578697374656e74206964000000604082015260600190565b6020808252818101527f537472696e67733a20686578206c656e67746820696e73756666696369656e74604082015260600190565b60208082526023908201527f45524332303a207472616e7366657220746f20746865207a65726f206164647260408201526265737360e81b606082015260800190565b60208082526022908201527f45524332303a206275726e20616d6f756e7420657863656564732062616c616e604082015261636560f01b606082015260800190565b60208082526022908201527f45524332303a20617070726f766520746f20746865207a65726f206164647265604082015261737360f01b606082015260800190565b60208082526026908201527f45524332303a207472616e7366657220616d6f756e7420657863656564732062604082015265616c616e636560d01b606082015260800190565b60208082526023908201527f4d75737420776974686472617720616d6f756e742077697468696e2062616c616040820152626e636560e81b606082015260800190565b60208082526047908201527f4d75737420686176652061207374616b65642062616c616e6365206f66206d6f60408201527f7265207468616e206d696e5374616b65204d414920746f206265636f6d6520616060820152661039ba30b5b2b960c91b608082015260a00190565b60208082526027908201527f4164647265737320686173206e6f20766f74657320617661696c61626c6520746040820152666f20636c61696d60c81b606082015260800190565b6020808252602c908201527f4d7573742068617665207374616b657220726f6c6520746f20706572666f726d60408201526b103a3434b99030b1ba34b7b760a11b606082015260800190565b60208082526028908201527f45524332303a207472616e7366657220616d6f756e74206578636565647320616040820152676c6c6f77616e636560c01b606082015260800190565b60208082526050908201527f596f75206d757374206e6f742062652070617274696369706174696e6720696e60408201527f20616e7920766f746520696e206f7264657220746f207769746864726177206160608201526f6e79207374616b656420746f6b656e7360801b608082015260a00190565b60208082526024908201527f45524332303a206275726e20616d6f756e74206578636565647320616c6c6f77604082015263616e636560e01b606082015260800190565b602080825260139082015272141bdb1b08191bd95cc81b9bdd08195e1a5cdd606a1b604082015260600190565b60208082526021908201527f45524332303a206275726e2066726f6d20746865207a65726f206164647265736040820152607360f81b606082015260800190565b60208082526025908201527f45524332303a207472616e736665722066726f6d20746865207a65726f206164604082015264647265737360d81b606082015260800190565b6020808252603f908201527f54686520616d6f756e74206f6620746f6b656e7320746f206265206275726e6560408201527f642f206d696e746564206d757374206265206c6172676572207468616e203000606082015260800190565b60208082526024908201527f45524332303a20617070726f76652066726f6d20746865207a65726f206164646040820152637265737360e01b606082015260800190565b60208082526016908201527504552433230536e617073686f743a20696420697320360541b604082015260600190565b6020808252608f908201527f412062616c616e6365206f6620686967686572207468616e206d696e5374616b60408201527f6520697320726571756972656420746f206d61696e7461696e20726f6c65206f60608201527f66207374616b65722c20696620796f75207769736820746f207265766f6b652060808201527f74686520726f6c65206f66207374616b65722c20757365207265766f6b65537460a08201526e30b5b2b9141490333ab731ba34b7b760891b60c082015260e00190565b60208082526047908201527f4164647265737320686173206e6f20766f7465732063757272656e746c792c2060408201527f63616c6c2066756e6374696f6e20636c61696d566f746520746f20636c61696d606082015266206120766f746560c81b608082015260a00190565b60208082526018908201527f596f752061726520616c72656164792061207374616b65720000000000000000604082015260600190565b60208082526025908201527f45524332303a2064656372656173656420616c6c6f77616e63652062656c6f77604082015264207a65726f60d81b606082015260800190565b6020808252602f908201527f416363657373436f6e74726f6c3a2063616e206f6e6c792072656e6f756e636560408201526e103937b632b9903337b91039b2b63360891b606082015260800190565b6020808252601f908201527f45524332303a206d696e7420746f20746865207a65726f206164647265737300604082015260600190565b918252602082015260400190565b60ff91909116815260200190565b600082198211156135fa576135fa6136fa565b500190565b60008261360e5761360e613710565b500490565b600081600019048311821515161561362d5761362d6136fa565b500290565b600082821015613644576136446136fa565b500390565b60005b8381101561366457818101518382015260200161364c565b83811115613673576000848401525b50505050565b600081613688576136886136fa565b506000190190565b6002810460018216806136a457607f821691505b602082108114156136c557634e487b7160e01b600052602260045260246000fd5b50919050565b60006000198214156136df576136df6136fa565b5060010190565b6000826136f5576136f5613710565b500690565b634e487b7160e01b600052601160045260246000fd5b634e487b7160e01b600052601260045260246000fdfeb19546dff01e856fb3f010c267a7b1c60363cf8a4664e21cc89c26224620214eb9e206fa2af7ee1331b72ce58b6d938ac810ce9b5cdb65d35ab723fd67badf9e72c3eec1760bf69946625c2d4fb8e44e2c806345041960b434674fb9ab3976cfa26469706673582212205e935dd5128f2047a383f091b601217bbb631acb0b5847d2a3036d64966814be64736f6c63430008000033",
  "immutableReferences": {},
  "source": "// SPDX-License-Identifier: MIT\npragma solidity >=0.4.22 <0.9.0;\n\nimport \"@openzeppelin/contracts/utils/Context.sol\";\nimport \"@openzeppelin/contracts/token/ERC20/ERC20.sol\";\nimport \"@openzeppelin/contracts/token/ERC20/extensions/ERC20Burnable.sol\";\nimport \"@openzeppelin/contracts/access/AccessControl.sol\";\nimport \"@openzeppelin/contracts/utils/math/SafeMath.sol\";\nimport \"@openzeppelin/contracts/security/Pausable.sol\";\nimport \"./MaiToken.sol\";\n\nimport \"@openzeppelin/contracts/token/ERC20/extensions/ERC20Snapshot.sol\";\n   \n\ncontract Mai is Context, ERC20, ERC20Burnable, ERC20Snapshot, AccessControl, Pausable {\n    using SafeMath for uint256;\n    bytes32 public constant VOTER_ROLE = keccak256(\"VOTER_ROLE\");\n    bytes32 public constant STAKER_ROLE = keccak256(\"STAKER_ROLE\");\n    bytes32 public constant OWNER_ROLE = keccak256(\"OWNER_ROLE\");\n    bytes32 public constant PAUSER_ROLE = keccak256(\"PAUSER_ROLE\");\n    bytes32 public constant SNAPSHOT_ROLE = keccak256(\"SNAPSHOT_ROLE\");\n    \n    event _VoteMade(uint256 indexed pollID, uint256 votes, address indexed voter, uint256 side);\n    event _VoteClaimed(address indexed voter, uint256 amountClaimed);\n    event _VoteRevoked(uint256 indexed pollID, uint256 votes, address indexed voter); \n    event _VoteEnded(uint256 indexed pollID);\n    event _RewardsMinted(uint256 indexed pollID, uint256 indexed amount);\n    event _RewardsBurned(uint256 indexed pollID, uint256 indexed amount);\n    event _PollCreated(uint votedTokenAmount, uint end, uint indexed pollID, address indexed creator);\n    event _VotingRightsGranted(address indexed voter);\n    event _VotingRightsRevoked(address indexed voter);\n    event _ResultsGenerated(uint256 amountMinted, uint256 pollID);\n    event _Minted(address indexed to, uint256 amount);\n\n    constructor() ERC20(\"Mai\", \"MAI\") {\n        _mint(msg.sender, 10**12 * 10 ** decimals());\n        _setupRole(STAKER_ROLE, msg.sender);\n        _setupRole(OWNER_ROLE, msg.sender);\n        _setupRole(PAUSER_ROLE, msg.sender);\n        _setupRole(SNAPSHOT_ROLE, msg.sender);\n    }\n\n    modifier onlyOwner() {\n        require(hasRole(OWNER_ROLE, msg.sender) || msg.sender == stakingAddress);\n        _;\n    }\n\n    function pause() onlyOwner internal {\n        _pause();\n    }\n\n    function unpause() onlyOwner internal {\n        _unpause();\n    }\n\n    function snapshot() public onlyOwner() {\n        _snapshot();\n    }\n\n    function _beforeTokenTransfer(address from, address to, uint256 amount)\n        internal\n        override(ERC20, ERC20Snapshot)\n    {\n        super._beforeTokenTransfer(from, to, amount);\n    }\n\n    function mint(address to, uint256 amount) onlyOwner internal {\n        _mint(to, amount);\n        _beforeTokenTransfer(address(0), msg.sender, amount);\n        emit _Minted(to, amount);\n    }\n\n    // Staking\n\n    event _StakerGranted(address to);\n    event _StakerRoleRevoked(address account, uint256 amountReturned);\n    event _StakesDeposited(address account, uint256 amount);\n    event _StakesWithdrawn(address account, uint256 amount);\n    event _MinimumStakeChanged(uint256 minStake);\n\n    mapping(address => uint256) stakedBalance; // Maps user address to the total amount of staked tokens\n\n    \n    uint256 minStake = 1000;\n    // uint256 minStakeTimeBeforeVoterRoleGranted = ;\n\n    function changeMinimumStake(uint256 newMinAmount) onlyOwner public {\n        require(newMinAmount != minStake);\n        require(msg.sender == stakingAddress);\n        minStake = newMinAmount;\n        emit _MinimumStakeChanged(newMinAmount);\n    }\n\n    /**\n    @dev Allows users to stake, adding their respective amount of tokens to the staked balance\n    @param amount Amount of tokens used in the stake pool\n    */\n\n    function stake(uint256 amount) payable public {\n        require(amount >= minStake, \"Must have a staked balance of more than minStake MAI to become a staker\");\n        require(hasRole(STAKER_ROLE, msg.sender) == false, \"You are already a staker\");\n        transferFrom(msg.sender, stakingAddress, amount);\n        grantRole(STAKER_ROLE, msg.sender);\n        stakedBalance[msg.sender] = stakedBalance[msg.sender].add(amount);\n        emit _StakerGranted(msg.sender);\n    }\n\n    /**\n    @dev Withdraws tokens from the stake pool back to the users account, the user must not be part of any active polls\n    @param amount Amount of tokens the user wishes to withdraw\n    */\n\n    function withdraw(uint256 amount) payable public {\n        require(hasRole(STAKER_ROLE, msg.sender), \"Must have staker role to perform this action\");\n        require(amount <= stakedBalance[msg.sender], \"Must withdraw amount within balance\"); \n        require(stakedBalance[msg.sender].sub(amount) >= minStake, \"A balance of higher than minStake is required to maintain role of staker, if you wish to revoke the role of staker, use revokeStaker() function\");\n        require(checkParticipation(msg.sender) == false, \"You must not be participating in any vote in order to withdraw any staked tokens\");\n        transfer(msg.sender, amount);\n        stakedBalance[msg.sender] = stakedBalance[msg.sender].sub(amount);\n        emit _StakesWithdrawn(msg.sender, amount);\n    }\n\n    /**\n    @dev Deposits tokens into the stake pool from the users account\n    @param amount Amount of tokens the user wishes to deposit\n    */\n\n    function deposit(uint256 amount) payable public {\n        require(hasRole(STAKER_ROLE, msg.sender), \"Must have staker role to perform this action\");\n        transferFrom(msg.sender, stakingAddress, amount);\n        stakedBalance[msg.sender] = stakedBalance[msg.sender].add(amount);\n        emit _StakesDeposited(msg.sender, amount);\n    }\n\n    /**\n    @dev Function for users to see the balance they currently have in the stake pool\n    */\n\n    function viewStakedBalance() view public returns (uint256 balance) {\n        require(hasRole(STAKER_ROLE, msg.sender), \"Must have staker role to perform this action\");\n        return (stakedBalance[msg.sender]);\n    }\n\n    /**\n    @dev Revokes their staker role and returns all their tokens back to the user\n    */\n    \n    function revokeStaker() public {\n        require(hasRole(STAKER_ROLE, msg.sender), \"Must have staker role to perform this action\");\n        revokeRole(STAKER_ROLE, msg.sender);\n        transfer(msg.sender, stakedBalance[msg.sender]);\n        stakedBalance[msg.sender] = 0;\n        emit _StakerRoleRevoked(msg.sender, stakedBalance[msg.sender]); \n    }\n\n    // Polls and votes\n\n    struct Poll {\n        address pollStarter; // initiator of the poll;\n        uint256 start; // block start;\n        uint256 end; // start + period (_commitDuration)\n        // uint256 end; // Date when poll ends\n        uint256 votedTokenAmount; // Amount of tokens minted/ burned if poll is passed\n        bool quorumOption; // Allows option to judge voting process by percentage \n        uint256 voteQuorum; // The percentage of for votes required for poll to pass\n        uint256 votesFor; // Amount of votes supporting the proposal \n        uint256 votesAgainst; // Amount of votes countering the proposal\n        uint256 action; // action 1: Minting tokens; action 2: Burning tokens; action 3: Transfering tokens; action 4: snapshot;\n        bool ongoing; // Returns true if poll is still active\n        mapping(address => uint256) _votesClaimed; // Amount of votes already claimed by the voter\n        mapping(address => bool) _participant; // Maps address of user to whether they have voted in an active poll\n        mapping(address => uint256) _votes; // Amount of votes placed by the voter\n        mapping(address => uint256) _side; // The side the voter is on if they already voted\n    }\n\n    \n    mapping (uint256 => Poll) public pollMapping; // Maps the pollID to the struct\n    mapping (uint256 => uint256) public totalVotes; // Maps the pollID to its respective number of votes\n    mapping (address => uint256) public stakedTotal; // Maps the user address to their total staked balance in all categories\n    uint256 pollNonce = 0; // Counter for pollID\n    address public stakingAddress; // Address used for storing staked tokens\n\n    /**\n    @dev Initiates poll and emits PollCreate event\n    @param _quorumOption Users can decide if the winner is decided by the percentage majority out of 100 or whether the 'for' side has more votes than the 'against' side\n    @param _voteQuorum Assumes that the _quorumOption is false, passes in the percentage majority out of 100 that is required to win the vote\n    @param _votedTokenAmount The amount of tokens minted/burned if poll is successful \n    @param _commitDuration Length of the poll in seconds\n    @param _action Type of poll, action 1 is for minting tokens, action 2 is for burning tokens, action 3 is for transfering tokens, action 4 is for taking a snapshot.\n    */\n\n    function startPoll(bool _quorumOption, uint256 _voteQuorum, uint256 _action, uint256 _votedTokenAmount, uint256 _commitDuration) public returns (uint256 pollID) {\n        require ((_quorumOption == false && _voteQuorum == 0) || (_quorumOption == true && _voteQuorum > 0));\n        require (_votedTokenAmount > 0, \"The amount of tokens to be burned/ minted must be larger than 0\");\n        uint256 end = block.timestamp.add(_commitDuration);\n        pollNonce = pollNonce.add(1);\n        Poll storage newPoll = pollMapping[pollNonce];\n        newPoll.pollStarter = msg.sender;\n        newPoll.start = block.timestamp;\n        newPoll.action = _action;\n        newPoll.quorumOption = _quorumOption;\n        newPoll.voteQuorum = _voteQuorum;\n        newPoll.votedTokenAmount = _votedTokenAmount;\n        newPoll.end = end;\n        newPoll.votesFor = 0;\n        newPoll.votesAgainst = 0;\n        newPoll.ongoing = true;\n\n        emit _PollCreated(_votedTokenAmount, end, pollNonce, msg.sender);\n        return pollNonce;\n    }\n\n    /**\n    @dev Allocates voter role to stakers and emits event\n    @param voter address of staker\n    */\n\n    function voterAllocation(address voter) public {  //thi\n        require(hasRole(STAKER_ROLE, voter)); \n\n        grantRole(VOTER_ROLE, voter);       \n        emit _VotingRightsGranted(voter);\n    }\n\n    /**\n    @dev Revokes votes that are already made and returns the vote to msg.sender //B: to msg.sender? this does not make sense... \n        //B: is this talking about after a vote is completed or the scenario where a staker unstakes?\n    @param amount Amount of votes to be revoked\n    @param pollID ID of poll\n    */\n    \n    /* B: this revokeVote  function is problematic, as it allows for one to votepump and mislead strategic voters of the other party. \n        Consider this analogy: you have three candidates: Biden, Sanders, and Trump, and their support numbers are 40%, 25%, and 35%.\n        A significant number of Biden supporters support Sanders as well, and they only vote for Biden because they believe Sanders just hasn't got a chance\n        With this revokeVote set-up, Trump supports can pump up Sanders's vote, say to 40% - in which the support numbers would be 40%, 40%, 20%.\n            Biden-Sanders supporters would then be essentially offered a chance to switch to Sanders, and have the candidate of their desire actually win. \n            Suppose 6% of Biden supporters switched to sanders, giving us: 34%, 46%, 20%. Then it would appear that Sanders is winning. \n            At the very last moment, suppose Trump supporters revoke their vote, we'd be left with 34%, 31%, 35%. Trump wins. \n    */\n\n    /*function revokeVote(uint256 amount, uint256 pollID) public {\n        require(msg.sender != address(0));\n        require(pollMapping[pollID].ongoing = true);\n        require(isNotExpired(pollID));\n        require(amount <= pollMapping[pollID]._votes[msg.sender]);\n        pollMapping[pollID]._votes[msg.sender] = pollMapping[pollID]._votes[msg.sender].sub(amount);\n        pollMapping[pollID]._votesClaimed[msg.sender] = pollMapping[pollID]._votesClaimed[msg.sender].add(amount);\n        if (pollMapping[pollID]._votes[msg.sender] == 0) {\n            pollMapping[pollID]._participant[msg.sender] = false;\n        }\n        totalVotes[pollID] = totalVotes[pollID].sub(amount);\n    }\n    */\n\n\n    /**\n    @dev Function that takes away voter role from addresses when necessary\n    @param voter Voter that is going to get their role revoked\n    */\n\n    function voterRevokation(address voter) public {\n        require(hasRole(VOTER_ROLE, voter)); //msg.sender change to voter\n        require(voter != address(0));\n        revokeRole(VOTER_ROLE, voter);\n        emit _VotingRightsRevoked(voter);\n    }\n\n    /**\n    @dev Checks if user has voter role\n    @param voter Address of voter\n    */\n\n    modifier voterCheck(address voter) {\n        require(hasRole(VOTER_ROLE, voter));\n        _;\n    }\n\n    /**\n    @dev Claims votes from existing staked tokens and stores available votes at _votes\n    @param pollID ID of vote\n    */\n\n    function claimVote(uint256 pollID, address voter) public voterCheck(voter) {  // msg.sender is usually for contracts, not addresses. So here, it is change(d) to voter\n        require(voter != address(0));\n        uint256 claimable = stakedTotal[voter].sub(pollMapping[pollID]._votesClaimed[voter]).sub(minStake - 1);\n        require(claimable > 0, \"Address has no votes available to claim\");\n        pollMapping[pollID]._votesClaimed[voter] = pollMapping[pollID]._votesClaimed[voter].add(claimable);\n        pollMapping[pollID]._votes[voter] = pollMapping[pollID]._votes[voter].add(claimable);\n        emit _VoteClaimed(voter, claimable);\n    }\n\n    /**\n    @dev Returns number of votes available to users\n    @param voter Address of requested voter\n    @param pollID ID of poll\n    */\n\n    function numOfVotes(address voter, uint256 pollID) public view returns (uint256 votes) {\n        require(voter != address(0));\n        return pollMapping[pollID]._votes[voter]; \n    }\n\n    /**\n    @dev Voters makes votes on corresponding polls, deducting their _votes and emitting _VoteMade event\n    @param votesMade Amount of votes going to be made\n    @param pollID ID of the poll\n    @param side The side of the poll the user wants to support (1: for; 2: against)\n    */\n\n\n    function makeVote(uint256 votesMade, uint256 pollID, uint256 side, address voter) public voterCheck(voter) {\n        require(voter != address(0));\n        require(pollMapping[pollID].ongoing = true);\n        require(isNotExpired(pollID));\n        require(pollMapping[pollID]._votes[voter] > 0, \"Address has no votes currently, call function claimVote to claim a vote\");\n        require(votesMade <= pollMapping[pollID]._votes[voter]);\n        require(pollMapping[pollID]._side[voter] == 0 || pollMapping[pollID]._side[voter] == side);\n        require(side == 1 || side == 2);\n        if (side == 1) {\n            pollMapping[pollID].votesFor = pollMapping[pollID].votesFor.add(1);\n        } else if (side == 2) {\n            pollMapping[pollID].votesAgainst = pollMapping[pollID].votesAgainst.add(1);\n        }\n        pollMapping[pollID]._side[voter] = side;\n        pollMapping[pollID]._votes[voter] = pollMapping[pollID]._votes[voter].sub(votesMade);\n        totalVotes[pollID] = totalVotes[pollID].add(1);\n        pollMapping[pollID]._participant[voter] = true;\n        emit _VoteMade(pollID, votesMade, voter, side); \n    }\n\n    /**\n    @dev Returns whether the poll/ proposal passed the voting\n    @param pollID ID of the poll\n    */\n    // ties are understood as rejections\n\n    function results(uint256 pollID) public returns (bool passed) {\n        endPoll(pollID);\n        require(isNotExpired(pollID) == false);\n        require(pollExists(pollID));\n        if (pollMapping[pollID].quorumOption == false) {\n            if (pollMapping[pollID].votesFor > pollMapping[pollID].votesAgainst) {\n                return (true);\n            } else if (pollMapping[pollID].votesFor < pollMapping[pollID].votesAgainst) {\n                return (false);\n            } else {\n                return (false);\n            }\n        } else if (pollMapping[pollID].quorumOption == true) {\n            if (quorumCalc(pollID) >= pollMapping[pollID].voteQuorum) {\n                return (true);\n            } else if (quorumCalc(pollID) < pollMapping[pollID].voteQuorum) {\n                return  (false);\n            } else {\n                return (false);\n            }\n        }\n    }\n\n    /**\n    @dev Calculates the percentage of voters that supports the proposal\n    @param pollID ID of the poll\n    */\n\n    function quorumCalc(uint256 pollID) public view returns (uint256 result) {\n        require (totalVotes[pollID] > 0);\n        require (pollExists(pollID), \"Poll does not exist\");\n        uint256 ans = pollMapping[pollID].votesFor.div(totalVotes[pollID]);\n        ans = ans.mul(100);\n        return ans;\n    }\n\n    /**\n    @dev Ends the poll instantly if necessary\n    @param pollID ID of the poll\n    */\n\n    function endPoll(uint pollID) public {\n        require(hasRole(PAUSER_ROLE, msg.sender));\n        require(pollExists(pollID));\n        pollMapping[pollID].ongoing = false;\n    }\n\n    /**\n    @dev Mints the proposed amount of tokens after the poll has ended and passed\n    @param pollID ID of the poll\n    */\n        \n\n    function mintRewards (uint256 pollID) onlyOwner payable public {\n        require(hasRole(OWNER_ROLE, msg.sender));\n        require(pollMapping[pollID].action == 1);\n        require(pollMapping[pollID].ongoing == false);\n        _beforeTokenTransfer(address(0), msg.sender, pollMapping[pollID].votedTokenAmount);\n        _mint(msg.sender, pollMapping[pollID].votedTokenAmount);\n        emit _ResultsGenerated(pollMapping[pollID].votedTokenAmount, pollID);  \n    }\n\n    /**\n    @dev Burns the proposed amount of tokens after the poll has ended and passed\n    @param pollID ID of the poll\n    */\n\n    function burnRewards (uint256 pollID) onlyOwner payable public { \n        require(hasRole(OWNER_ROLE, msg.sender));\n        require(pollMapping[pollID].action == 2);\n        require(pollMapping[pollID].ongoing == false);\n        _beforeTokenTransfer(msg.sender, address(0), pollMapping[pollID].votedTokenAmount);\n        burnFrom(msg.sender, pollMapping[pollID].votedTokenAmount);\n        emit _ResultsGenerated(pollMapping[pollID].votedTokenAmount, pollID);\n    }\n\n\n    function transferRewards(uint256 pollID, address recipient) onlyOwner public virtual {\n        require(hasRole(OWNER_ROLE, msg.sender));\n        require(pollMapping[pollID].action == 3);\n        require(pollMapping[pollID].ongoing == false);\n        _beforeTokenTransfer(msg.sender, address(0), pollMapping[pollID].votedTokenAmount);\n        burn(pollMapping[pollID].votedTokenAmount);\n        _transfer(_msgSender(), recipient, pollMapping[pollID].votedTokenAmount);\n        \n        emit _ResultsGenerated(pollMapping[pollID].votedTokenAmount, pollID);\n    }\n\n    function takeSnapshot(uint256 pollID) onlyOwner public virtual {\n        require(pollMapping[pollID].action == 4);\n        require(pollMapping[pollID].ongoing == false);\n        snapshot();        \n    }\n\n    /**\n    @dev Checks if the address of the voter has participated in any active poll\n    @param voter Address of the voter\n    */\n\n    function checkParticipation(address voter) public view returns(bool participating){\n        for (uint256 i = 1; i < pollNonce; i++) {\n            if (pollMapping[i].ongoing == true && pollMapping[i]._participant[voter] == true) {\n                return true;\n            }\n        }\n        return false;\n    }\n\n    /**\n    @dev Checks if poll exists and returns a boolean value\n    @param _pollID ID of the poll\n    */\n\n    function pollExists(uint256 _pollID) public view returns (bool exists) {\n        return (_pollID != 0 && _pollID <= pollNonce);\n    }\n\n    /**\n    @dev Checks of poll has ended or not\n    @param _pollID ID of the poll\n    */\n\n    function pollEnded(uint256 _pollID) public view returns (bool ended) {\n        require(pollExists(_pollID));\n\n        return isNotExpired(pollMapping[_pollID].end);\n    }\n\n    /**\n    @dev Checks if a date has expired or not\n    @param _terminationDate The date for checking\n    */\n\n    function isNotExpired(uint256 _terminationDate) public view returns (bool expired) {\n        return (block.timestamp < _terminationDate);\n    }\n}\n\n",
  "sourcePath": "/Users/colinlam/Desktop/code/HoHey/contracts/MaiToken.sol",
  "compiler": {
    "name": "solc",
    "version": "0.8.0+commit.c7dfd78e.Emscripten.clang"
  },
  "schemaVersion": "3.4.1",
  "updatedAt": "2021-07-19T13:33:52.077Z",
  "networkType": "ethereum",
  "devdoc": {
    "kind": "dev",
    "methods": {
      "allowance(address,address)": {
        "details": "See {IERC20-allowance}."
      },
      "approve(address,uint256)": {
        "details": "See {IERC20-approve}. Requirements: - `spender` cannot be the zero address."
      },
      "balanceOf(address)": {
        "details": "See {IERC20-balanceOf}."
      },
      "balanceOfAt(address,uint256)": {
        "details": "Retrieves the balance of `account` at the time `snapshotId` was created."
      },
      "burn(uint256)": {
        "details": "Destroys `amount` tokens from the caller. See {ERC20-_burn}."
      },
      "burnFrom(address,uint256)": {
        "details": "Destroys `amount` tokens from `account`, deducting from the caller's allowance. See {ERC20-_burn} and {ERC20-allowance}. Requirements: - the caller must have allowance for ``accounts``'s tokens of at least `amount`."
      },
      "burnRewards(uint256)": {
        "details": "Burns the proposed amount of tokens after the poll has ended and passed",
        "params": {
          "pollID": "ID of the poll"
        }
      },
      "checkParticipation(address)": {
        "details": "Checks if the address of the voter has participated in any active poll",
        "params": {
          "voter": "Address of the voter"
        }
      },
      "claimVote(uint256,address)": {
        "details": "Claims votes from existing staked tokens and stores available votes at _votes",
        "params": {
          "pollID": "ID of vote"
        }
      },
      "decimals()": {
        "details": "Returns the number of decimals used to get its user representation. For example, if `decimals` equals `2`, a balance of `505` tokens should be displayed to a user as `5,05` (`505 / 10 ** 2`). Tokens usually opt for a value of 18, imitating the relationship between Ether and Wei. This is the value {ERC20} uses, unless this function is overridden; NOTE: This information is only used for _display_ purposes: it in no way affects any of the arithmetic of the contract, including {IERC20-balanceOf} and {IERC20-transfer}."
      },
      "decreaseAllowance(address,uint256)": {
        "details": "Atomically decreases the allowance granted to `spender` by the caller. This is an alternative to {approve} that can be used as a mitigation for problems described in {IERC20-approve}. Emits an {Approval} event indicating the updated allowance. Requirements: - `spender` cannot be the zero address. - `spender` must have allowance for the caller of at least `subtractedValue`."
      },
      "deposit(uint256)": {
        "details": "Deposits tokens into the stake pool from the users account",
        "params": {
          "amount": "Amount of tokens the user wishes to deposit"
        }
      },
      "endPoll(uint256)": {
        "details": "Ends the poll instantly if necessary",
        "params": {
          "pollID": "ID of the poll"
        }
      },
      "getRoleAdmin(bytes32)": {
        "details": "Returns the admin role that controls `role`. See {grantRole} and {revokeRole}. To change a role's admin, use {_setRoleAdmin}."
      },
      "grantRole(bytes32,address)": {
        "details": "Grants `role` to `account`. If `account` had not been already granted `role`, emits a {RoleGranted} event. Requirements: - the caller must have ``role``'s admin role."
      },
      "hasRole(bytes32,address)": {
        "details": "Returns `true` if `account` has been granted `role`."
      },
      "increaseAllowance(address,uint256)": {
        "details": "Atomically increases the allowance granted to `spender` by the caller. This is an alternative to {approve} that can be used as a mitigation for problems described in {IERC20-approve}. Emits an {Approval} event indicating the updated allowance. Requirements: - `spender` cannot be the zero address."
      },
      "isNotExpired(uint256)": {
        "details": "Checks if a date has expired or not",
        "params": {
          "_terminationDate": "The date for checking"
        }
      },
      "makeVote(uint256,uint256,uint256,address)": {
        "details": "Voters makes votes on corresponding polls, deducting their _votes and emitting _VoteMade event",
        "params": {
          "pollID": "ID of the poll",
          "side": "The side of the poll the user wants to support (1: for; 2: against)",
          "votesMade": "Amount of votes going to be made"
        }
      },
      "mintRewards(uint256)": {
        "details": "Mints the proposed amount of tokens after the poll has ended and passed",
        "params": {
          "pollID": "ID of the poll"
        }
      },
      "name()": {
        "details": "Returns the name of the token."
      },
      "numOfVotes(address,uint256)": {
        "details": "Returns number of votes available to users",
        "params": {
          "pollID": "ID of poll",
          "voter": "Address of requested voter"
        }
      },
      "paused()": {
        "details": "Returns true if the contract is paused, and false otherwise."
      },
      "pollEnded(uint256)": {
        "details": "Checks of poll has ended or not",
        "params": {
          "_pollID": "ID of the poll"
        }
      },
      "pollExists(uint256)": {
        "details": "Checks if poll exists and returns a boolean value",
        "params": {
          "_pollID": "ID of the poll"
        }
      },
      "quorumCalc(uint256)": {
        "details": "Calculates the percentage of voters that supports the proposal",
        "params": {
          "pollID": "ID of the poll"
        }
      },
      "renounceRole(bytes32,address)": {
        "details": "Revokes `role` from the calling account. Roles are often managed via {grantRole} and {revokeRole}: this function's purpose is to provide a mechanism for accounts to lose their privileges if they are compromised (such as when a trusted device is misplaced). If the calling account had been granted `role`, emits a {RoleRevoked} event. Requirements: - the caller must be `account`."
      },
      "results(uint256)": {
        "details": "Returns whether the poll/ proposal passed the voting",
        "params": {
          "pollID": "ID of the poll"
        }
      },
      "revokeRole(bytes32,address)": {
        "details": "Revokes `role` from `account`. If `account` had been granted `role`, emits a {RoleRevoked} event. Requirements: - the caller must have ``role``'s admin role."
      },
      "revokeStaker()": {
        "details": "Revokes their staker role and returns all their tokens back to the user"
      },
      "stake(uint256)": {
        "details": "Allows users to stake, adding their respective amount of tokens to the staked balance",
        "params": {
          "amount": "Amount of tokens used in the stake pool"
        }
      },
      "startPoll(bool,uint256,uint256,uint256,uint256)": {
        "details": "Initiates poll and emits PollCreate event",
        "params": {
          "_action": "Type of poll, action 1 is for minting tokens, action 2 is for burning tokens, action 3 is for transfering tokens, action 4 is for taking a snapshot.",
          "_commitDuration": "Length of the poll in seconds",
          "_quorumOption": "Users can decide if the winner is decided by the percentage majority out of 100 or whether the 'for' side has more votes than the 'against' side",
          "_voteQuorum": "Assumes that the _quorumOption is false, passes in the percentage majority out of 100 that is required to win the vote",
          "_votedTokenAmount": "The amount of tokens minted/burned if poll is successful "
        }
      },
      "supportsInterface(bytes4)": {
        "details": "See {IERC165-supportsInterface}."
      },
      "symbol()": {
        "details": "Returns the symbol of the token, usually a shorter version of the name."
      },
      "totalSupply()": {
        "details": "See {IERC20-totalSupply}."
      },
      "totalSupplyAt(uint256)": {
        "details": "Retrieves the total supply at the time `snapshotId` was created."
      },
      "transfer(address,uint256)": {
        "details": "See {IERC20-transfer}. Requirements: - `recipient` cannot be the zero address. - the caller must have a balance of at least `amount`."
      },
      "transferFrom(address,address,uint256)": {
        "details": "See {IERC20-transferFrom}. Emits an {Approval} event indicating the updated allowance. This is not required by the EIP. See the note at the beginning of {ERC20}. Requirements: - `sender` and `recipient` cannot be the zero address. - `sender` must have a balance of at least `amount`. - the caller must have allowance for ``sender``'s tokens of at least `amount`."
      },
      "viewStakedBalance()": {
        "details": "Function for users to see the balance they currently have in the stake pool"
      },
      "voterAllocation(address)": {
        "details": "Allocates voter role to stakers and emits event",
        "params": {
          "voter": "address of staker"
        }
      },
      "voterRevokation(address)": {
        "details": "Function that takes away voter role from addresses when necessary",
        "params": {
          "voter": "Voter that is going to get their role revoked"
        }
      },
      "withdraw(uint256)": {
        "details": "Withdraws tokens from the stake pool back to the users account, the user must not be part of any active polls",
        "params": {
          "amount": "Amount of tokens the user wishes to withdraw"
        }
      }
    },
    "version": 1
  },
  "userdoc": {
    "kind": "user",
    "methods": {},
    "version": 1
  }
}