{
  "contractName": "Mai",
  "abi": [
    {
      "inputs": [],
      "stateMutability": "nonpayable",
      "type": "constructor"
    },
    {
      "anonymous": false,
      "inputs": [
        {
          "indexed": true,
          "internalType": "address",
          "name": "owner",
          "type": "address"
        },
        {
          "indexed": true,
          "internalType": "address",
          "name": "spender",
          "type": "address"
        },
        {
          "indexed": false,
          "internalType": "uint256",
          "name": "value",
          "type": "uint256"
        }
      ],
      "name": "Approval",
      "type": "event"
    },
    {
      "anonymous": false,
      "inputs": [
        {
          "indexed": false,
          "internalType": "address",
          "name": "account",
          "type": "address"
        }
      ],
      "name": "Paused",
      "type": "event"
    },
    {
      "anonymous": false,
      "inputs": [
        {
          "indexed": true,
          "internalType": "bytes32",
          "name": "role",
          "type": "bytes32"
        },
        {
          "indexed": true,
          "internalType": "bytes32",
          "name": "previousAdminRole",
          "type": "bytes32"
        },
        {
          "indexed": true,
          "internalType": "bytes32",
          "name": "newAdminRole",
          "type": "bytes32"
        }
      ],
      "name": "RoleAdminChanged",
      "type": "event"
    },
    {
      "anonymous": false,
      "inputs": [
        {
          "indexed": true,
          "internalType": "bytes32",
          "name": "role",
          "type": "bytes32"
        },
        {
          "indexed": true,
          "internalType": "address",
          "name": "account",
          "type": "address"
        },
        {
          "indexed": true,
          "internalType": "address",
          "name": "sender",
          "type": "address"
        }
      ],
      "name": "RoleGranted",
      "type": "event"
    },
    {
      "anonymous": false,
      "inputs": [
        {
          "indexed": true,
          "internalType": "bytes32",
          "name": "role",
          "type": "bytes32"
        },
        {
          "indexed": true,
          "internalType": "address",
          "name": "account",
          "type": "address"
        },
        {
          "indexed": true,
          "internalType": "address",
          "name": "sender",
          "type": "address"
        }
      ],
      "name": "RoleRevoked",
      "type": "event"
    },
    {
      "anonymous": false,
      "inputs": [
        {
          "indexed": true,
          "internalType": "address",
          "name": "from",
          "type": "address"
        },
        {
          "indexed": true,
          "internalType": "address",
          "name": "to",
          "type": "address"
        },
        {
          "indexed": false,
          "internalType": "uint256",
          "name": "value",
          "type": "uint256"
        }
      ],
      "name": "Transfer",
      "type": "event"
    },
    {
      "anonymous": false,
      "inputs": [
        {
          "indexed": false,
          "internalType": "address",
          "name": "account",
          "type": "address"
        }
      ],
      "name": "Unpaused",
      "type": "event"
    },
    {
      "anonymous": false,
      "inputs": [
        {
          "indexed": false,
          "internalType": "uint256",
          "name": "voteAmount",
          "type": "uint256"
        },
        {
          "indexed": false,
          "internalType": "uint256",
          "name": "commitEndDate",
          "type": "uint256"
        },
        {
          "indexed": true,
          "internalType": "uint256",
          "name": "pollID",
          "type": "uint256"
        },
        {
          "indexed": true,
          "internalType": "address",
          "name": "creator",
          "type": "address"
        }
      ],
      "name": "_PollCreated",
      "type": "event"
    },
    {
      "anonymous": false,
      "inputs": [
        {
          "indexed": true,
          "internalType": "uint256",
          "name": "pollID",
          "type": "uint256"
        },
        {
          "indexed": false,
          "internalType": "uint256",
          "name": "votes",
          "type": "uint256"
        },
        {
          "indexed": true,
          "internalType": "address",
          "name": "voter",
          "type": "address"
        }
      ],
      "name": "_VoteMade",
      "type": "event"
    },
    {
      "anonymous": false,
      "inputs": [
        {
          "indexed": true,
          "internalType": "address",
          "name": "voter",
          "type": "address"
        }
      ],
      "name": "_VotingRightsGranted",
      "type": "event"
    },
    {
      "anonymous": false,
      "inputs": [
        {
          "indexed": true,
          "internalType": "address",
          "name": "voter",
          "type": "address"
        }
      ],
      "name": "_VotingRightsRevoked",
      "type": "event"
    },
    {
      "anonymous": false,
      "inputs": [
        {
          "indexed": false,
          "internalType": "uint256",
          "name": "amountMinted",
          "type": "uint256"
        },
        {
          "indexed": false,
          "internalType": "uint256",
          "name": "pollID",
          "type": "uint256"
        }
      ],
      "name": "_resultsGenerated",
      "type": "event"
    },
    {
      "inputs": [],
      "name": "DEFAULT_ADMIN_ROLE",
      "outputs": [
        {
          "internalType": "bytes32",
          "name": "",
          "type": "bytes32"
        }
      ],
      "stateMutability": "view",
      "type": "function"
    },
    {
      "inputs": [],
      "name": "MINTER_ROLE",
      "outputs": [
        {
          "internalType": "bytes32",
          "name": "",
          "type": "bytes32"
        }
      ],
      "stateMutability": "view",
      "type": "function"
    },
    {
      "inputs": [],
      "name": "PAUSER_ROLE",
      "outputs": [
        {
          "internalType": "bytes32",
          "name": "",
          "type": "bytes32"
        }
      ],
      "stateMutability": "view",
      "type": "function"
    },
    {
      "inputs": [],
      "name": "STAKER_ROLE",
      "outputs": [
        {
          "internalType": "bytes32",
          "name": "",
          "type": "bytes32"
        }
      ],
      "stateMutability": "view",
      "type": "function"
    },
    {
      "inputs": [],
      "name": "VOTER_ROLE",
      "outputs": [
        {
          "internalType": "bytes32",
          "name": "",
          "type": "bytes32"
        }
      ],
      "stateMutability": "view",
      "type": "function"
    },
    {
      "inputs": [
        {
          "internalType": "address",
          "name": "owner",
          "type": "address"
        },
        {
          "internalType": "address",
          "name": "spender",
          "type": "address"
        }
      ],
      "name": "allowance",
      "outputs": [
        {
          "internalType": "uint256",
          "name": "",
          "type": "uint256"
        }
      ],
      "stateMutability": "view",
      "type": "function"
    },
    {
      "inputs": [
        {
          "internalType": "address",
          "name": "spender",
          "type": "address"
        },
        {
          "internalType": "uint256",
          "name": "amount",
          "type": "uint256"
        }
      ],
      "name": "approve",
      "outputs": [
        {
          "internalType": "bool",
          "name": "",
          "type": "bool"
        }
      ],
      "stateMutability": "nonpayable",
      "type": "function"
    },
    {
      "inputs": [
        {
          "internalType": "address",
          "name": "account",
          "type": "address"
        }
      ],
      "name": "balanceOf",
      "outputs": [
        {
          "internalType": "uint256",
          "name": "",
          "type": "uint256"
        }
      ],
      "stateMutability": "view",
      "type": "function"
    },
    {
      "inputs": [
        {
          "internalType": "uint256",
          "name": "amount",
          "type": "uint256"
        }
      ],
      "name": "burn",
      "outputs": [],
      "stateMutability": "nonpayable",
      "type": "function"
    },
    {
      "inputs": [
        {
          "internalType": "address",
          "name": "account",
          "type": "address"
        },
        {
          "internalType": "uint256",
          "name": "amount",
          "type": "uint256"
        }
      ],
      "name": "burnFrom",
      "outputs": [],
      "stateMutability": "nonpayable",
      "type": "function"
    },
    {
      "inputs": [],
      "name": "decimals",
      "outputs": [
        {
          "internalType": "uint8",
          "name": "",
          "type": "uint8"
        }
      ],
      "stateMutability": "view",
      "type": "function"
    },
    {
      "inputs": [
        {
          "internalType": "address",
          "name": "spender",
          "type": "address"
        },
        {
          "internalType": "uint256",
          "name": "subtractedValue",
          "type": "uint256"
        }
      ],
      "name": "decreaseAllowance",
      "outputs": [
        {
          "internalType": "bool",
          "name": "",
          "type": "bool"
        }
      ],
      "stateMutability": "nonpayable",
      "type": "function"
    },
    {
      "inputs": [
        {
          "internalType": "bytes32",
          "name": "role",
          "type": "bytes32"
        }
      ],
      "name": "getRoleAdmin",
      "outputs": [
        {
          "internalType": "bytes32",
          "name": "",
          "type": "bytes32"
        }
      ],
      "stateMutability": "view",
      "type": "function"
    },
    {
      "inputs": [
        {
          "internalType": "bytes32",
          "name": "role",
          "type": "bytes32"
        },
        {
          "internalType": "address",
          "name": "account",
          "type": "address"
        }
      ],
      "name": "grantRole",
      "outputs": [],
      "stateMutability": "nonpayable",
      "type": "function"
    },
    {
      "inputs": [
        {
          "internalType": "bytes32",
          "name": "role",
          "type": "bytes32"
        },
        {
          "internalType": "address",
          "name": "account",
          "type": "address"
        }
      ],
      "name": "hasRole",
      "outputs": [
        {
          "internalType": "bool",
          "name": "",
          "type": "bool"
        }
      ],
      "stateMutability": "view",
      "type": "function"
    },
    {
      "inputs": [
        {
          "internalType": "address",
          "name": "spender",
          "type": "address"
        },
        {
          "internalType": "uint256",
          "name": "addedValue",
          "type": "uint256"
        }
      ],
      "name": "increaseAllowance",
      "outputs": [
        {
          "internalType": "bool",
          "name": "",
          "type": "bool"
        }
      ],
      "stateMutability": "nonpayable",
      "type": "function"
    },
    {
      "inputs": [],
      "name": "name",
      "outputs": [
        {
          "internalType": "string",
          "name": "",
          "type": "string"
        }
      ],
      "stateMutability": "view",
      "type": "function"
    },
    {
      "inputs": [],
      "name": "paused",
      "outputs": [
        {
          "internalType": "bool",
          "name": "",
          "type": "bool"
        }
      ],
      "stateMutability": "view",
      "type": "function"
    },
    {
      "inputs": [
        {
          "internalType": "uint256",
          "name": "",
          "type": "uint256"
        }
      ],
      "name": "pollMapping",
      "outputs": [
        {
          "internalType": "uint256",
          "name": "commitEndDate",
          "type": "uint256"
        },
        {
          "internalType": "uint256",
          "name": "voteAmount",
          "type": "uint256"
        },
        {
          "internalType": "bool",
          "name": "quorumOption",
          "type": "bool"
        },
        {
          "internalType": "uint256",
          "name": "voteQuorum",
          "type": "uint256"
        },
        {
          "internalType": "uint256",
          "name": "votesFor",
          "type": "uint256"
        },
        {
          "internalType": "uint256",
          "name": "votesAgainst",
          "type": "uint256"
        },
        {
          "internalType": "uint256",
          "name": "option",
          "type": "uint256"
        },
        {
          "internalType": "bool",
          "name": "ongoing",
          "type": "bool"
        }
      ],
      "stateMutability": "view",
      "type": "function"
    },
    {
      "inputs": [
        {
          "internalType": "bytes32",
          "name": "role",
          "type": "bytes32"
        },
        {
          "internalType": "address",
          "name": "account",
          "type": "address"
        }
      ],
      "name": "renounceRole",
      "outputs": [],
      "stateMutability": "nonpayable",
      "type": "function"
    },
    {
      "inputs": [
        {
          "internalType": "bytes32",
          "name": "role",
          "type": "bytes32"
        },
        {
          "internalType": "address",
          "name": "account",
          "type": "address"
        }
      ],
      "name": "revokeRole",
      "outputs": [],
      "stateMutability": "nonpayable",
      "type": "function"
    },
    {
      "inputs": [
        {
          "internalType": "bytes4",
          "name": "interfaceId",
          "type": "bytes4"
        }
      ],
      "name": "supportsInterface",
      "outputs": [
        {
          "internalType": "bool",
          "name": "",
          "type": "bool"
        }
      ],
      "stateMutability": "view",
      "type": "function"
    },
    {
      "inputs": [],
      "name": "symbol",
      "outputs": [
        {
          "internalType": "string",
          "name": "",
          "type": "string"
        }
      ],
      "stateMutability": "view",
      "type": "function"
    },
    {
      "inputs": [],
      "name": "totalSupply",
      "outputs": [
        {
          "internalType": "uint256",
          "name": "",
          "type": "uint256"
        }
      ],
      "stateMutability": "view",
      "type": "function"
    },
    {
      "inputs": [
        {
          "internalType": "uint256",
          "name": "",
          "type": "uint256"
        }
      ],
      "name": "totalVotes",
      "outputs": [
        {
          "internalType": "uint256",
          "name": "",
          "type": "uint256"
        }
      ],
      "stateMutability": "view",
      "type": "function"
    },
    {
      "inputs": [
        {
          "internalType": "address",
          "name": "sender",
          "type": "address"
        },
        {
          "internalType": "address",
          "name": "recipient",
          "type": "address"
        },
        {
          "internalType": "uint256",
          "name": "amount",
          "type": "uint256"
        }
      ],
      "name": "transferFrom",
      "outputs": [
        {
          "internalType": "bool",
          "name": "",
          "type": "bool"
        }
      ],
      "stateMutability": "nonpayable",
      "type": "function"
    },
    {
      "inputs": [
        {
          "internalType": "bool",
          "name": "_quorumOption",
          "type": "bool"
        },
        {
          "internalType": "uint256",
          "name": "_voteQuorum",
          "type": "uint256"
        },
        {
          "internalType": "uint256",
          "name": "_voteAmount",
          "type": "uint256"
        },
        {
          "internalType": "uint256",
          "name": "_commitDuration",
          "type": "uint256"
        },
        {
          "internalType": "uint256",
          "name": "_option",
          "type": "uint256"
        }
      ],
      "name": "startPoll",
      "outputs": [
        {
          "internalType": "uint256",
          "name": "pollID",
          "type": "uint256"
        }
      ],
      "stateMutability": "nonpayable",
      "type": "function"
    },
    {
      "inputs": [
        {
          "internalType": "address",
          "name": "voter",
          "type": "address"
        }
      ],
      "name": "voterAllocation",
      "outputs": [],
      "stateMutability": "nonpayable",
      "type": "function"
    },
    {
      "inputs": [
        {
          "internalType": "uint256",
          "name": "amount",
          "type": "uint256"
        },
        {
          "internalType": "uint256",
          "name": "pollID",
          "type": "uint256"
        }
      ],
      "name": "revokeVote",
      "outputs": [],
      "stateMutability": "nonpayable",
      "type": "function"
    },
    {
      "inputs": [
        {
          "internalType": "address",
          "name": "recipient",
          "type": "address"
        },
        {
          "internalType": "uint256",
          "name": "amount",
          "type": "uint256"
        }
      ],
      "name": "transfer",
      "outputs": [
        {
          "internalType": "bool",
          "name": "",
          "type": "bool"
        }
      ],
      "stateMutability": "nonpayable",
      "type": "function"
    },
    {
      "inputs": [
        {
          "internalType": "address",
          "name": "voter",
          "type": "address"
        }
      ],
      "name": "voterRevokation",
      "outputs": [],
      "stateMutability": "nonpayable",
      "type": "function"
    },
    {
      "inputs": [
        {
          "internalType": "uint256",
          "name": "pollID",
          "type": "uint256"
        }
      ],
      "name": "claimVote",
      "outputs": [],
      "stateMutability": "nonpayable",
      "type": "function"
    },
    {
      "inputs": [
        {
          "internalType": "address",
          "name": "voter",
          "type": "address"
        },
        {
          "internalType": "uint256",
          "name": "pollID",
          "type": "uint256"
        }
      ],
      "name": "numOfVotes",
      "outputs": [
        {
          "internalType": "uint256",
          "name": "votes",
          "type": "uint256"
        }
      ],
      "stateMutability": "view",
      "type": "function"
    },
    {
      "inputs": [
        {
          "internalType": "uint256",
          "name": "votesMade",
          "type": "uint256"
        },
        {
          "internalType": "uint256",
          "name": "pollID",
          "type": "uint256"
        },
        {
          "internalType": "uint256",
          "name": "side",
          "type": "uint256"
        }
      ],
      "name": "makeVote",
      "outputs": [],
      "stateMutability": "nonpayable",
      "type": "function"
    },
    {
      "inputs": [
        {
          "internalType": "uint256",
          "name": "pollID",
          "type": "uint256"
        }
      ],
      "name": "results",
      "outputs": [
        {
          "internalType": "bool",
          "name": "passed",
          "type": "bool"
        }
      ],
      "stateMutability": "nonpayable",
      "type": "function"
    },
    {
      "inputs": [
        {
          "internalType": "uint256",
          "name": "pollID",
          "type": "uint256"
        }
      ],
      "name": "quorumCalc",
      "outputs": [
        {
          "internalType": "uint256",
          "name": "result",
          "type": "uint256"
        }
      ],
      "stateMutability": "view",
      "type": "function"
    },
    {
      "inputs": [
        {
          "internalType": "uint256",
          "name": "pollID",
          "type": "uint256"
        }
      ],
      "name": "endPoll",
      "outputs": [],
      "stateMutability": "nonpayable",
      "type": "function"
    },
    {
      "inputs": [
        {
          "internalType": "uint256",
          "name": "pollID",
          "type": "uint256"
        }
      ],
      "name": "whenTie",
      "outputs": [
        {
          "internalType": "string",
          "name": "tied",
          "type": "string"
        }
      ],
      "stateMutability": "view",
      "type": "function"
    },
    {
      "inputs": [
        {
          "internalType": "uint256",
          "name": "pollID",
          "type": "uint256"
        }
      ],
      "name": "burnRewards",
      "outputs": [],
      "stateMutability": "payable",
      "type": "function"
    },
    {
      "inputs": [
        {
          "internalType": "uint256",
          "name": "pollID",
          "type": "uint256"
        }
      ],
      "name": "mintRewards",
      "outputs": [],
      "stateMutability": "payable",
      "type": "function"
    },
    {
      "inputs": [
        {
          "internalType": "uint256",
          "name": "pollID",
          "type": "uint256"
        },
        {
          "internalType": "uint256",
          "name": "timeAdded",
          "type": "uint256"
        }
      ],
      "name": "addTime",
      "outputs": [],
      "stateMutability": "nonpayable",
      "type": "function"
    },
    {
      "inputs": [],
      "name": "pause",
      "outputs": [],
      "stateMutability": "nonpayable",
      "type": "function"
    },
    {
      "inputs": [],
      "name": "unpause",
      "outputs": [],
      "stateMutability": "nonpayable",
      "type": "function"
    },
    {
      "inputs": [
        {
          "internalType": "address",
          "name": "to",
          "type": "address"
        },
        {
          "internalType": "uint256",
          "name": "amount",
          "type": "uint256"
        }
      ],
      "name": "mint",
      "outputs": [],
      "stateMutability": "nonpayable",
      "type": "function"
    },
    {
      "inputs": [
        {
          "internalType": "uint256",
          "name": "_pollID",
          "type": "uint256"
        }
      ],
      "name": "pollExists",
      "outputs": [
        {
          "internalType": "bool",
          "name": "exists",
          "type": "bool"
        }
      ],
      "stateMutability": "view",
      "type": "function"
    },
    {
      "inputs": [
        {
          "internalType": "uint256",
          "name": "_pollID",
          "type": "uint256"
        }
      ],
      "name": "pollEnded",
      "outputs": [
        {
          "internalType": "bool",
          "name": "ended",
          "type": "bool"
        }
      ],
      "stateMutability": "view",
      "type": "function"
    },
    {
      "inputs": [
        {
          "internalType": "uint256",
          "name": "_terminationDate",
          "type": "uint256"
        }
      ],
      "name": "isNotExpired",
      "outputs": [
        {
          "internalType": "bool",
          "name": "expired",
          "type": "bool"
        }
      ],
      "stateMutability": "view",
      "type": "function"
    }
  ],
  "bytecode": "0x608060405260006009553480156200001657600080fd5b506040518060400160405280600381526020017f4d616900000000000000000000000000000000000000000000000000000000008152506040518060400160405280600381526020017f4d4149000000000000000000000000000000000000000000000000000000000081525081600390805190602001906200009b92919062000536565b508060049080519060200190620000b492919062000536565b5050506000600660006101000a81548160ff0219169083151502179055506200011033620000e7620001c160201b60201c565b600a620000f59190620007a5565b6103e8620001049190620008e2565b620001ca60201b60201c565b620001256000801b336200032f60201b60201c565b620001577f9f2df0fed2c77648de5860a4cc508cd0818c85b8b8a1ab4ceeef8d981c8956a6336200032f60201b60201c565b620001897f72c3eec1760bf69946625c2d4fb8e44e2c806345041960b434674fb9ab3976cf336200032f60201b60201c565b620001bb7fb9e206fa2af7ee1331b72ce58b6d938ac810ce9b5cdb65d35ab723fd67badf9e336200032f60201b60201c565b620009fb565b60006012905090565b600073ffffffffffffffffffffffffffffffffffffffff168273ffffffffffffffffffffffffffffffffffffffff1614156200023d576040517f08c379a000000000000000000000000000000000000000000000000000000000815260040162000234906200069d565b60405180910390fd5b62000251600083836200034560201b60201c565b8060026000828254620002659190620006ed565b92505081905550806000808473ffffffffffffffffffffffffffffffffffffffff1673ffffffffffffffffffffffffffffffffffffffff1681526020019081526020016000206000828254620002bc9190620006ed565b925050819055508173ffffffffffffffffffffffffffffffffffffffff16600073ffffffffffffffffffffffffffffffffffffffff167fddf252ad1be2c89b69c2b068fc378daa952ba7f163c4a11628f55a4df523b3ef83604051620003239190620006bf565b60405180910390a35050565b620003418282620003b560201b60201c565b5050565b62000355620004a760201b60201c565b1562000398576040517f08c379a00000000000000000000000000000000000000000000000000000000081526004016200038f906200067b565b60405180910390fd5b620003b0838383620004be60201b62002ba41760201c565b505050565b620003c78282620004c360201b60201c565b620004a35760016005600084815260200190815260200160002060000160008373ffffffffffffffffffffffffffffffffffffffff1673ffffffffffffffffffffffffffffffffffffffff16815260200190815260200160002060006101000a81548160ff021916908315150217905550620004486200052e60201b60201c565b73ffffffffffffffffffffffffffffffffffffffff168173ffffffffffffffffffffffffffffffffffffffff16837f2f8788117e7eff1d82e926ec794901d17c78024a50270940304540a733656f0d60405160405180910390a45b5050565b6000600660009054906101000a900460ff16905090565b505050565b60006005600084815260200190815260200160002060000160008373ffffffffffffffffffffffffffffffffffffffff1673ffffffffffffffffffffffffffffffffffffffff16815260200190815260200160002060009054906101000a900460ff16905092915050565b600033905090565b82805462000544906200095a565b90600052602060002090601f016020900481019282620005685760008555620005b4565b82601f106200058357805160ff1916838001178555620005b4565b82800160010185558215620005b4579182015b82811115620005b357825182559160200191906001019062000596565b5b509050620005c39190620005c7565b5090565b5b80821115620005e2576000816000905550600101620005c8565b5090565b6000620005f5601083620006dc565b91507f5061757361626c653a20706175736564000000000000000000000000000000006000830152602082019050919050565b600062000637601f83620006dc565b91507f45524332303a206d696e7420746f20746865207a65726f2061646472657373006000830152602082019050919050565b620006758162000943565b82525050565b600060208201905081810360008301526200069681620005e6565b9050919050565b60006020820190508181036000830152620006b88162000628565b9050919050565b6000602082019050620006d660008301846200066a565b92915050565b600082825260208201905092915050565b6000620006fa8262000943565b9150620007078362000943565b9250827fffffffffffffffffffffffffffffffffffffffffffffffffffffffffffffffff038211156200073f576200073e62000990565b5b828201905092915050565b6000808291508390505b60018511156200079c5780860481111562000774576200077362000990565b5b6001851615620007845780820291505b80810290506200079485620009ee565b945062000754565b94509492505050565b6000620007b28262000943565b9150620007bf836200094d565b9250620007ee7fffffffffffffffffffffffffffffffffffffffffffffffffffffffffffffffff8484620007f6565b905092915050565b600082620008085760019050620008db565b81620008185760009050620008db565b81600181146200083157600281146200083c5762000872565b6001915050620008db565b60ff84111562000851576200085062000990565b5b8360020a9150848211156200086b576200086a62000990565b5b50620008db565b5060208310610133831016604e8410600b8410161715620008ac5782820a905083811115620008a657620008a562000990565b5b620008db565b620008bb84848460016200074a565b92509050818404811115620008d557620008d462000990565b5b81810290505b9392505050565b6000620008ef8262000943565b9150620008fc8362000943565b9250817fffffffffffffffffffffffffffffffffffffffffffffffffffffffffffffffff048311821515161562000938576200093762000990565b5b828202905092915050565b6000819050919050565b600060ff82169050919050565b600060028204905060018216806200097357607f821691505b602082108114156200098a5762000989620009bf565b5b50919050565b7f4e487b7100000000000000000000000000000000000000000000000000000000600052601160045260246000fd5b7f4e487b7100000000000000000000000000000000000000000000000000000000600052602260045260246000fd5b60008160011c9050919050565b614eb08062000a0b6000396000f3fe6080604052600436106102875760003560e01c8063791581c61161015a578063a9059cbb116100c1578063d547741f1161007a578063d547741f14610a60578063dd62ed3e14610a89578063e63ab1e914610ac6578063edf949e814610af1578063ee68483014610b1a578063f43b877814610b5757610287565b8063a9059cbb1461093e578063a94015c81461097b578063b687bcc0146109a6578063ca5f0b99146109cf578063cd8cd04814610a0c578063d539139314610a3557610287565b806391d148541161011357806391d148541461081c57806395d89b411461085957806398dcad6114610884578063a217fddf146108ad578063a3a4333b146108d8578063a457c2d71461090157610287565b8063791581c61461071d57806379cc6790146107465780638456cb591461076f57806388d21ff31461078657806389ec0257146107c35780638c405503146107df57610287565b8063313ce567116101fe57806340c10f19116101b757806340c10f191461060a57806342966c68146106335780634828ced91461065c5780635c975abb1461067857806370a08231146106a357806378de1239146106e057610287565b8063313ce567146104f357806336568abe1461051e578063372c48e1146105475780633780b3ed1461058b57806339509351146105b65780633f4ba83a146105f357610287565b806318160ddd1161025057806318160ddd146103ab57806319e6e158146103d65780631b0c27da1461041357806323b872dd14610450578063248a9ca31461048d5780632f2ff15d146104ca57610287565b8062f027201461028c57806301ffc9a7146102c957806303d29a5b1461030657806306fdde0314610343578063095ea7b31461036e575b600080fd5b34801561029857600080fd5b506102b360048036038101906102ae9190613d3a565b610b80565b6040516102c09190614a36565b60405180910390f35b3480156102d557600080fd5b506102f060048036038101906102eb9190613d11565b610c48565b6040516102fd919061473e565b60405180910390f35b34801561031257600080fd5b5061032d60048036038101906103289190613d3a565b610cc2565b60405161033a919061473e565b60405180910390f35b34801561034f57600080fd5b50610358610cce565b6040516103659190614774565b60405180910390f35b34801561037a57600080fd5b5061039560048036038101906103909190613bf9565b610d60565b6040516103a2919061473e565b60405180910390f35b3480156103b757600080fd5b506103c0610d7e565b6040516103cd9190614a36565b60405180910390f35b3480156103e257600080fd5b506103fd60048036038101906103f89190613d3a565b610d88565b60405161040a9190614a36565b60405180910390f35b34801561041f57600080fd5b5061043a60048036038101906104359190613d3a565b610da0565b604051610447919061473e565b60405180910390f35b34801561045c57600080fd5b5061047760048036038101906104729190613baa565b610f2e565b604051610484919061473e565b60405180910390f35b34801561049957600080fd5b506104b460048036038101906104af9190613cac565b61102f565b6040516104c19190614759565b60405180910390f35b3480156104d657600080fd5b506104f160048036038101906104ec9190613cd5565b61104f565b005b3480156104ff57600080fd5b50610508611078565b6040516105159190614af8565b60405180910390f35b34801561052a57600080fd5b5061054560048036038101906105409190613cd5565b611081565b005b34801561055357600080fd5b5061056e60048036038101906105699190613d3a565b611104565b604051610582989796959493929190614a7a565b60405180910390f35b34801561059757600080fd5b506105a0611166565b6040516105ad9190614759565b60405180910390f35b3480156105c257600080fd5b506105dd60048036038101906105d89190613bf9565b61118a565b6040516105ea919061473e565b60405180910390f35b3480156105ff57600080fd5b50610608611236565b005b34801561061657600080fd5b50610631600480360381019061062c9190613bf9565b611273565b005b34801561063f57600080fd5b5061065a60048036038101906106559190613d3a565b6112b4565b005b61067660048036038101906106719190613d3a565b6112c8565b005b34801561068457600080fd5b5061068d611391565b60405161069a919061473e565b60405180910390f35b3480156106af57600080fd5b506106ca60048036038101906106c59190613b45565b6113a8565b6040516106d79190614a36565b60405180910390f35b3480156106ec57600080fd5b5061070760048036038101906107029190613d3a565b6113f0565b6040516107149190614774565b60405180910390f35b34801561072957600080fd5b50610744600480360381019061073f9190613d63565b611545565b005b34801561075257600080fd5b5061076d60048036038101906107689190613bf9565b6115e1565b005b34801561077b57600080fd5b50610784611665565b005b34801561079257600080fd5b506107ad60048036038101906107a89190613d3a565b6116a2565b6040516107ba919061473e565b60405180910390f35b6107dd60048036038101906107d89190613d3a565b6116bd565b005b3480156107eb57600080fd5b5061080660048036038101906108019190613bf9565b611785565b6040516108139190614a36565b60405180910390f35b34801561082857600080fd5b50610843600480360381019061083e9190613cd5565b61181c565b604051610850919061473e565b60405180910390f35b34801561086557600080fd5b5061086e611887565b60405161087b9190614774565b60405180910390f35b34801561089057600080fd5b506108ab60048036038101906108a69190613d9f565b611919565b005b3480156108b957600080fd5b506108c2611f47565b6040516108cf9190614759565b60405180910390f35b3480156108e457600080fd5b506108ff60048036038101906108fa9190613d3a565b611f4e565b005b34801561090d57600080fd5b5061092860048036038101906109239190613bf9565b61234d565b604051610935919061473e565b60405180910390f35b34801561094a57600080fd5b5061096560048036038101906109609190613bf9565b612441565b604051610972919061473e565b60405180910390f35b34801561098757600080fd5b5061099061245f565b60405161099d9190614759565b60405180910390f35b3480156109b257600080fd5b506109cd60048036038101906109c89190613b45565b612483565b005b3480156109db57600080fd5b506109f660048036038101906109f19190613c35565b61250a565b604051610a039190614a36565b60405180910390f35b348015610a1857600080fd5b50610a336004803603810190610a2e9190613b45565b6126a6565b005b348015610a4157600080fd5b50610a4a612783565b604051610a579190614759565b60405180910390f35b348015610a6c57600080fd5b50610a876004803603810190610a829190613cd5565b6127a7565b005b348015610a9557600080fd5b50610ab06004803603810190610aab9190613b6e565b6127d0565b604051610abd9190614a36565b60405180910390f35b348015610ad257600080fd5b50610adb612857565b604051610ae89190614759565b60405180910390f35b348015610afd57600080fd5b50610b186004803603810190610b139190613d63565b61287b565b005b348015610b2657600080fd5b50610b416004803603810190610b3c9190613d3a565b612af3565b604051610b4e919061473e565b60405180910390f35b348015610b6357600080fd5b50610b7e6004803603810190610b799190613d3a565b612b2d565b005b600080600860008481526020019081526020016000205411610ba157600080fd5b610baa826116a2565b610be9576040517f08c379a0000000000000000000000000000000000000000000000000000000008152600401610be090614916565b60405180910390fd5b6000610c2760086000858152602001908152602001600020546007600086815260200190815260200160002060040154612ba990919063ffffffff16565b9050610c3d606482612bbf90919063ffffffff16565b905080915050919050565b60007f7965db0b000000000000000000000000000000000000000000000000000000007bffffffffffffffffffffffffffffffffffffffffffffffffffffffff1916827bffffffffffffffffffffffffffffffffffffffffffffffffffffffff19161480610cbb5750610cba82612bd5565b5b9050919050565b60008142119050919050565b606060038054610cdd90614d37565b80601f0160208091040260200160405190810160405280929190818152602001828054610d0990614d37565b8015610d565780601f10610d2b57610100808354040283529160200191610d56565b820191906000526020600020905b815481529060010190602001808311610d3957829003601f168201915b5050505050905090565b6000610d74610d6d612c3f565b8484612c47565b6001905092915050565b6000600254905090565b60086020528060005260406000206000915090505481565b6000610dab82612b2d565b60001515610db883610cc2565b151514610dc457600080fd5b610dcd826116a2565b610dd657600080fd5b600015156007600084815260200190815260200160002060020160009054906101000a900460ff1615151415610e8f57600760008381526020019081526020016000206005015460076000848152602001908152602001600020600401541115610e435760019050610f29565b600760008381526020019081526020016000206005015460076000848152602001908152602001600020600401541015610e805760009050610f29565b610e89826113f0565b50610f28565b600115156007600084815260200190815260200160002060020160009054906101000a900460ff1615151415610f27576007600083815260200190815260200160002060030154610edf83610b80565b10610eed5760019050610f29565b6007600083815260200190815260200160002060030154610f0d83610b80565b1015610f1c5760009050610f29565b610f25826113f0565b505b5b5b919050565b6000610f3b848484612e12565b6000600160008673ffffffffffffffffffffffffffffffffffffffff1673ffffffffffffffffffffffffffffffffffffffff1681526020019081526020016000206000610f86612c3f565b73ffffffffffffffffffffffffffffffffffffffff1673ffffffffffffffffffffffffffffffffffffffff16815260200190815260200160002054905082811015611006576040517f08c379a0000000000000000000000000000000000000000000000000000000008152600401610ffd906148d6565b60405180910390fd5b61102385611012612c3f565b858461101e9190614c1b565b612c47565b60019150509392505050565b600060056000838152602001908152602001600020600101549050919050565b6110588261102f565b61106981611064612c3f565b613091565b611073838361312e565b505050565b60006012905090565b611089612c3f565b73ffffffffffffffffffffffffffffffffffffffff168173ffffffffffffffffffffffffffffffffffffffff16146110f6576040517f08c379a00000000000000000000000000000000000000000000000000000000081526004016110ed906149f6565b60405180910390fd5b611100828261320f565b5050565b60076020528060005260406000206000915090508060000154908060010154908060020160009054906101000a900460ff16908060030154908060040154908060050154908060060154908060070160009054906101000a900460ff16905088565b7fb9e206fa2af7ee1331b72ce58b6d938ac810ce9b5cdb65d35ab723fd67badf9e81565b600061122c611197612c3f565b8484600160006111a5612c3f565b73ffffffffffffffffffffffffffffffffffffffff1673ffffffffffffffffffffffffffffffffffffffff16815260200190815260200160002060008873ffffffffffffffffffffffffffffffffffffffff1673ffffffffffffffffffffffffffffffffffffffff168152602001908152602001600020546112279190614b3a565b612c47565b6001905092915050565b6112607f65d7a28e3265b37a6474929f336521b332c1681b933f6cb9f3376673440d862a3361181c565b61126957600080fd5b6112716132f1565b565b61129d7f9f2df0fed2c77648de5860a4cc508cd0818c85b8b8a1ab4ceeef8d981c8956a63361181c565b6112a657600080fd5b6112b08282613393565b5050565b6112c56112bf612c3f565b826134e7565b50565b60016007600083815260200190815260200160002060060154146112eb57600080fd5b600015156007600083815260200190815260200160002060070160009054906101000a900460ff1615151461131f57600080fd5b61133f336007600084815260200190815260200160002060010154613393565b7f815e966a30d910f09bbe731021156b873eaca737ddd8f638c08f40c47d4c55da600760008381526020019081526020016000206001015482604051611386929190614a51565b60405180910390a150565b6000600660009054906101000a900460ff16905090565b60008060008373ffffffffffffffffffffffffffffffffffffffff1673ffffffffffffffffffffffffffffffffffffffff168152602001908152602001600020549050919050565b60606113fb826116a2565b61140457600080fd5b600015156007600084815260200190815260200160002060020160009054906101000a900460ff16151514156114aa576007600083815260200190815260200160002060050154600760008481526020019081526020016000206004015414156114a5576040518060400160405280600981526020017f506f6c6c207469656400000000000000000000000000000000000000000000008152509050611540565b61153f565b600115156007600084815260200190815260200160002060020160009054906101000a900460ff161515141561153e5760076000838152602001908152602001600020600301546114fa83610b80565b141561153d576040518060400160405280600981526020017f506f6c6c207469656400000000000000000000000000000000000000000000008152509050611540565b5b5b5b919050565b61154e826116a2565b61155757600080fd5b6000811161159a576040517f08c379a0000000000000000000000000000000000000000000000000000000008152600401611591906148b6565b60405180910390fd5b6115c38160076000858152602001908152602001600020600001546136bb90919063ffffffff16565b60076000848152602001908152602001600020600001819055505050565b60006115f4836115ef612c3f565b6127d0565b905081811015611639576040517f08c379a0000000000000000000000000000000000000000000000000000000008152600401611630906148f6565b60405180910390fd5b61165683611645612c3f565b84846116519190614c1b565b612c47565b61166083836134e7565b505050565b61168f7f65d7a28e3265b37a6474929f336521b332c1681b933f6cb9f3376673440d862a3361181c565b61169857600080fd5b6116a06136d1565b565b60008082141580156116b657506009548211155b9050919050565b60026007600083815260200190815260200160002060060154146116e057600080fd5b600015156007600083815260200190815260200160002060070160009054906101000a900460ff1615151461171457600080fd5b61173360076000838152602001908152602001600020600101546112b4565b7f815e966a30d910f09bbe731021156b873eaca737ddd8f638c08f40c47d4c55da60076000838152602001908152602001600020600101548260405161177a929190614a51565b60405180910390a150565b60008073ffffffffffffffffffffffffffffffffffffffff168373ffffffffffffffffffffffffffffffffffffffff1614156117c057600080fd5b6007600083815260200190815260200160002060090160008473ffffffffffffffffffffffffffffffffffffffff1673ffffffffffffffffffffffffffffffffffffffff16815260200190815260200160002054905092915050565b60006005600084815260200190815260200160002060000160008373ffffffffffffffffffffffffffffffffffffffff1673ffffffffffffffffffffffffffffffffffffffff16815260200190815260200160002060009054906101000a900460ff16905092915050565b60606004805461189690614d37565b80601f01602080910402602001604051908101604052809291908181526020018280546118c290614d37565b801561190f5780601f106118e45761010080835404028352916020019161190f565b820191906000526020600020905b8154815290600101906020018083116118f257829003601f168201915b5050505050905090565b611921611391565b15611961576040517f08c379a000000000000000000000000000000000000000000000000000000000815260040161195890614896565b60405180910390fd5b33600073ffffffffffffffffffffffffffffffffffffffff168173ffffffffffffffffffffffffffffffffffffffff16141561199c57600080fd5b600015156119ca7f72c3eec1760bf69946625c2d4fb8e44e2c806345041960b434674fb9ab3976cf8361181c565b15151480156119e357506103e86119e0826113a8565b10155b156119f2576119f181612483565b5b60011515611a207f72c3eec1760bf69946625c2d4fb8e44e2c806345041960b434674fb9ab3976cf8361181c565b1515148015611a3857506103e8611a36826113a8565b105b15611a4757611a46816126a6565b5b611a717f72c3eec1760bf69946625c2d4fb8e44e2c806345041960b434674fb9ab3976cf8261181c565b611ab0576040517f08c379a0000000000000000000000000000000000000000000000000000000008152600401611aa790614876565b60405180910390fd5b600073ffffffffffffffffffffffffffffffffffffffff163373ffffffffffffffffffffffffffffffffffffffff161415611aea57600080fd5b60016007600085815260200190815260200160002060070160006101000a81548160ff0219169083151502179055611b2157600080fd5b611b2a83610cc2565b611b3357600080fd5b60006007600085815260200190815260200160002060090160003373ffffffffffffffffffffffffffffffffffffffff1673ffffffffffffffffffffffffffffffffffffffff1681526020019081526020016000205411611bc9576040517f08c379a0000000000000000000000000000000000000000000000000000000008152600401611bc0906149b6565b60405180910390fd5b6007600084815260200190815260200160002060090160003373ffffffffffffffffffffffffffffffffffffffff1673ffffffffffffffffffffffffffffffffffffffff16815260200190815260200160002054841115611c2957600080fd5b600060076000858152602001908152602001600020600a0160003373ffffffffffffffffffffffffffffffffffffffff1673ffffffffffffffffffffffffffffffffffffffff168152602001908152602001600020541480611cdd57508160076000858152602001908152602001600020600a0160003373ffffffffffffffffffffffffffffffffffffffff1673ffffffffffffffffffffffffffffffffffffffff16815260200190815260200160002054145b611ce657600080fd5b6001821480611cf55750600282145b611cfe57600080fd5b6001821415611d5057611d31600160076000868152602001908152602001600020600401546136bb90919063ffffffff16565b6007600085815260200190815260200160002060040181905550611d9f565b6002821415611d9e57611d83600160076000868152602001908152602001600020600501546136bb90919063ffffffff16565b60076000858152602001908152602001600020600501819055505b5b8160076000858152602001908152602001600020600a0160003373ffffffffffffffffffffffffffffffffffffffff1673ffffffffffffffffffffffffffffffffffffffff16815260200190815260200160002081905550611e5d846007600086815260200190815260200160002060090160003373ffffffffffffffffffffffffffffffffffffffff1673ffffffffffffffffffffffffffffffffffffffff1681526020019081526020016000205461377490919063ffffffff16565b6007600085815260200190815260200160002060090160003373ffffffffffffffffffffffffffffffffffffffff1673ffffffffffffffffffffffffffffffffffffffff168152602001908152602001600020819055503373ffffffffffffffffffffffffffffffffffffffff16837fb8032ae25c12382c9eae96f471eca2deb60c0e3f794645265e4309094702395686604051611efb9190614a36565b60405180910390a3611f2a600160086000868152602001908152602001600020546136bb90919063ffffffff16565b600860008581526020019081526020016000208190555050505050565b6000801b81565b611f56611391565b15611f96576040517f08c379a0000000000000000000000000000000000000000000000000000000008152600401611f8d90614896565b60405180910390fd5b33600073ffffffffffffffffffffffffffffffffffffffff168173ffffffffffffffffffffffffffffffffffffffff161415611fd157600080fd5b60001515611fff7f72c3eec1760bf69946625c2d4fb8e44e2c806345041960b434674fb9ab3976cf8361181c565b151514801561201857506103e8612015826113a8565b10155b156120275761202681612483565b5b600115156120557f72c3eec1760bf69946625c2d4fb8e44e2c806345041960b434674fb9ab3976cf8361181c565b151514801561206d57506103e861206b826113a8565b105b1561207c5761207b816126a6565b5b6120a67f72c3eec1760bf69946625c2d4fb8e44e2c806345041960b434674fb9ab3976cf8261181c565b6120e5576040517f08c379a00000000000000000000000000000000000000000000000000000000081526004016120dc90614876565b60405180910390fd5b600073ffffffffffffffffffffffffffffffffffffffff163373ffffffffffffffffffffffffffffffffffffffff16141561211f57600080fd5b60006121896103e76007600086815260200190815260200160002060080160003373ffffffffffffffffffffffffffffffffffffffff1673ffffffffffffffffffffffffffffffffffffffff1681526020019081526020016000205461377490919063ffffffff16565b9050600081116121ce576040517f08c379a00000000000000000000000000000000000000000000000000000000081526004016121c590614856565b60405180910390fd5b612234816007600086815260200190815260200160002060080160003373ffffffffffffffffffffffffffffffffffffffff1673ffffffffffffffffffffffffffffffffffffffff168152602001908152602001600020546136bb90919063ffffffff16565b6007600085815260200190815260200160002060080160003373ffffffffffffffffffffffffffffffffffffffff1673ffffffffffffffffffffffffffffffffffffffff168152602001908152602001600020819055506122f1816007600086815260200190815260200160002060090160003373ffffffffffffffffffffffffffffffffffffffff1673ffffffffffffffffffffffffffffffffffffffff168152602001908152602001600020546136bb90919063ffffffff16565b6007600085815260200190815260200160002060090160003373ffffffffffffffffffffffffffffffffffffffff1673ffffffffffffffffffffffffffffffffffffffff16815260200190815260200160002081905550505050565b6000806001600061235c612c3f565b73ffffffffffffffffffffffffffffffffffffffff1673ffffffffffffffffffffffffffffffffffffffff16815260200190815260200160002060008573ffffffffffffffffffffffffffffffffffffffff1673ffffffffffffffffffffffffffffffffffffffff16815260200190815260200160002054905082811015612419576040517f08c379a0000000000000000000000000000000000000000000000000000000008152600401612410906149d6565b60405180910390fd5b612436612424612c3f565b8585846124319190614c1b565b612c47565b600191505092915050565b600061245561244e612c3f565b8484612e12565b6001905092915050565b7f72c3eec1760bf69946625c2d4fb8e44e2c806345041960b434674fb9ab3976cf81565b6103e861248f826113a8565b101561249a57600080fd5b6124c47f72c3eec1760bf69946625c2d4fb8e44e2c806345041960b434674fb9ab3976cf8261104f565b8073ffffffffffffffffffffffffffffffffffffffff167f3025407ee9b066f6cd97886b0c47bda6b6ebbb42d2c7574284f5814cfd3a504a60405160405180910390a250565b600080151586151514801561251f5750600085145b8061253a5750600115158615151480156125395750600085115b5b61254357600080fd5b60008411612586576040517f08c379a000000000000000000000000000000000000000000000000000000000815260040161257d90614976565b60405180910390fd5b600061259b84426136bb90919063ffffffff16565b90506125b360016009546136bb90919063ffffffff16565b60098190555060006007600060095481526020019081526020016000209050838160060181905550878160020160006101000a81548160ff021916908315150217905550868160030181905550858160010181905550818160000181905550600081600401819055506000816005018190555060018160070160006101000a81548160ff0219169083151502179055503373ffffffffffffffffffffffffffffffffffffffff166009547f75c3234b322da18df8c948bde9b9983e5a43633c4e2647d4d9f4f15c0706f05d888560405161268e929190614a51565b60405180910390a36009549250505095945050505050565b6126d07f72c3eec1760bf69946625c2d4fb8e44e2c806345041960b434674fb9ab3976cf3361181c565b6126d957600080fd5b600073ffffffffffffffffffffffffffffffffffffffff168173ffffffffffffffffffffffffffffffffffffffff16141561271357600080fd5b61273d7f72c3eec1760bf69946625c2d4fb8e44e2c806345041960b434674fb9ab3976cf826127a7565b8073ffffffffffffffffffffffffffffffffffffffff167fc8f0ca04e3a4bee64fa8f12ab2c36bf665502f928567c2adfbbcc4ad796ed26960405160405180910390a250565b7f9f2df0fed2c77648de5860a4cc508cd0818c85b8b8a1ab4ceeef8d981c8956a681565b6127b08261102f565b6127c1816127bc612c3f565b613091565b6127cb838361320f565b505050565b6000600160008473ffffffffffffffffffffffffffffffffffffffff1673ffffffffffffffffffffffffffffffffffffffff16815260200190815260200160002060008373ffffffffffffffffffffffffffffffffffffffff1673ffffffffffffffffffffffffffffffffffffffff16815260200190815260200160002054905092915050565b7f65d7a28e3265b37a6474929f336521b332c1681b933f6cb9f3376673440d862a81565b600073ffffffffffffffffffffffffffffffffffffffff163373ffffffffffffffffffffffffffffffffffffffff1614156128b557600080fd5b60016007600083815260200190815260200160002060070160006101000a81548160ff02191690831515021790556128ec57600080fd5b6128f581610cc2565b6128fe57600080fd5b60006007600083815260200190815260200160002060090160003373ffffffffffffffffffffffffffffffffffffffff1673ffffffffffffffffffffffffffffffffffffffff1681526020019081526020016000205411612994576040517f08c379a000000000000000000000000000000000000000000000000000000000815260040161298b906149b6565b60405180910390fd5b6007600082815260200190815260200160002060090160003373ffffffffffffffffffffffffffffffffffffffff1673ffffffffffffffffffffffffffffffffffffffff168152602001908152602001600020548211156129f457600080fd5b612a5a826007600084815260200190815260200160002060090160003373ffffffffffffffffffffffffffffffffffffffff1673ffffffffffffffffffffffffffffffffffffffff1681526020019081526020016000205461377490919063ffffffff16565b6007600083815260200190815260200160002060090160003373ffffffffffffffffffffffffffffffffffffffff1673ffffffffffffffffffffffffffffffffffffffff16815260200190815260200160002081905550612ad8600160086000848152602001908152602001600020546136bb90919063ffffffff16565b60086000838152602001908152602001600020819055505050565b6000612afe826116a2565b612b0757600080fd5b612b266007600084815260200190815260200160002060000154610cc2565b9050919050565b612b577f65d7a28e3265b37a6474929f336521b332c1681b933f6cb9f3376673440d862a3361181c565b612b6057600080fd5b612b69816116a2565b612b7257600080fd5b60006007600083815260200190815260200160002060070160006101000a81548160ff02191690831515021790555050565b505050565b60008183612bb79190614b90565b905092915050565b60008183612bcd9190614bc1565b905092915050565b60007f01ffc9a7000000000000000000000000000000000000000000000000000000007bffffffffffffffffffffffffffffffffffffffffffffffffffffffff1916827bffffffffffffffffffffffffffffffffffffffffffffffffffffffff1916149050919050565b600033905090565b600073ffffffffffffffffffffffffffffffffffffffff168373ffffffffffffffffffffffffffffffffffffffff161415612cb7576040517f08c379a0000000000000000000000000000000000000000000000000000000008152600401612cae90614996565b60405180910390fd5b600073ffffffffffffffffffffffffffffffffffffffff168273ffffffffffffffffffffffffffffffffffffffff161415612d27576040517f08c379a0000000000000000000000000000000000000000000000000000000008152600401612d1e90614816565b60405180910390fd5b80600160008573ffffffffffffffffffffffffffffffffffffffff1673ffffffffffffffffffffffffffffffffffffffff16815260200190815260200160002060008473ffffffffffffffffffffffffffffffffffffffff1673ffffffffffffffffffffffffffffffffffffffff168152602001908152602001600020819055508173ffffffffffffffffffffffffffffffffffffffff168373ffffffffffffffffffffffffffffffffffffffff167f8c5be1e5ebec7d5bd14f71427d1e84f3dd0314c0f7b2291e5b200ac8c7c3b92583604051612e059190614a36565b60405180910390a3505050565b600073ffffffffffffffffffffffffffffffffffffffff168373ffffffffffffffffffffffffffffffffffffffff161415612e82576040517f08c379a0000000000000000000000000000000000000000000000000000000008152600401612e7990614956565b60405180910390fd5b600073ffffffffffffffffffffffffffffffffffffffff168273ffffffffffffffffffffffffffffffffffffffff161415612ef2576040517f08c379a0000000000000000000000000000000000000000000000000000000008152600401612ee9906147b6565b60405180910390fd5b612efd83838361378a565b60008060008573ffffffffffffffffffffffffffffffffffffffff1673ffffffffffffffffffffffffffffffffffffffff16815260200190815260200160002054905081811015612f83576040517f08c379a0000000000000000000000000000000000000000000000000000000008152600401612f7a90614836565b60405180910390fd5b8181612f8f9190614c1b565b6000808673ffffffffffffffffffffffffffffffffffffffff1673ffffffffffffffffffffffffffffffffffffffff16815260200190815260200160002081905550816000808573ffffffffffffffffffffffffffffffffffffffff1673ffffffffffffffffffffffffffffffffffffffff168152602001908152602001600020600082825461301f9190614b3a565b925050819055508273ffffffffffffffffffffffffffffffffffffffff168473ffffffffffffffffffffffffffffffffffffffff167fddf252ad1be2c89b69c2b068fc378daa952ba7f163c4a11628f55a4df523b3ef846040516130839190614a36565b60405180910390a350505050565b61309b828261181c565b61312a576130c08173ffffffffffffffffffffffffffffffffffffffff1660146137e2565b6130ce8360001c60206137e2565b6040516020016130df9291906146e9565b6040516020818303038152906040526040517f08c379a00000000000000000000000000000000000000000000000000000000081526004016131219190614774565b60405180910390fd5b5050565b613138828261181c565b61320b5760016005600084815260200190815260200160002060000160008373ffffffffffffffffffffffffffffffffffffffff1673ffffffffffffffffffffffffffffffffffffffff16815260200190815260200160002060006101000a81548160ff0219169083151502179055506131b0612c3f565b73ffffffffffffffffffffffffffffffffffffffff168173ffffffffffffffffffffffffffffffffffffffff16837f2f8788117e7eff1d82e926ec794901d17c78024a50270940304540a733656f0d60405160405180910390a45b5050565b613219828261181c565b156132ed5760006005600084815260200190815260200160002060000160008373ffffffffffffffffffffffffffffffffffffffff1673ffffffffffffffffffffffffffffffffffffffff16815260200190815260200160002060006101000a81548160ff021916908315150217905550613292612c3f565b73ffffffffffffffffffffffffffffffffffffffff168173ffffffffffffffffffffffffffffffffffffffff16837ff6391f5c32d9c69d2a47ea670b442974b53935d1edc7fd64eb21e047a839171b60405160405180910390a45b5050565b6132f9611391565b613338576040517f08c379a000000000000000000000000000000000000000000000000000000000815260040161332f906147d6565b60405180910390fd5b6000600660006101000a81548160ff0219169083151502179055507f5db9ee0a495bf2e6ff9c91a7834c1ba4fdd244a5e8aa4e537bd38aeae4b073aa61337c612c3f565b6040516133899190614723565b60405180910390a1565b600073ffffffffffffffffffffffffffffffffffffffff168273ffffffffffffffffffffffffffffffffffffffff161415613403576040517f08c379a00000000000000000000000000000000000000000000000000000000081526004016133fa90614a16565b60405180910390fd5b61340f6000838361378a565b80600260008282546134219190614b3a565b92505081905550806000808473ffffffffffffffffffffffffffffffffffffffff1673ffffffffffffffffffffffffffffffffffffffff16815260200190815260200160002060008282546134769190614b3a565b925050819055508173ffffffffffffffffffffffffffffffffffffffff16600073ffffffffffffffffffffffffffffffffffffffff167fddf252ad1be2c89b69c2b068fc378daa952ba7f163c4a11628f55a4df523b3ef836040516134db9190614a36565b60405180910390a35050565b600073ffffffffffffffffffffffffffffffffffffffff168273ffffffffffffffffffffffffffffffffffffffff161415613557576040517f08c379a000000000000000000000000000000000000000000000000000000000815260040161354e90614936565b60405180910390fd5b6135638260008361378a565b60008060008473ffffffffffffffffffffffffffffffffffffffff1673ffffffffffffffffffffffffffffffffffffffff168152602001908152602001600020549050818110156135e9576040517f08c379a00000000000000000000000000000000000000000000000000000000081526004016135e0906147f6565b60405180910390fd5b81816135f59190614c1b565b6000808573ffffffffffffffffffffffffffffffffffffffff1673ffffffffffffffffffffffffffffffffffffffff1681526020019081526020016000208190555081600260008282546136499190614c1b565b92505081905550600073ffffffffffffffffffffffffffffffffffffffff168373ffffffffffffffffffffffffffffffffffffffff167fddf252ad1be2c89b69c2b068fc378daa952ba7f163c4a11628f55a4df523b3ef846040516136ae9190614a36565b60405180910390a3505050565b600081836136c99190614b3a565b905092915050565b6136d9611391565b15613719576040517f08c379a000000000000000000000000000000000000000000000000000000000815260040161371090614896565b60405180910390fd5b6001600660006101000a81548160ff0219169083151502179055507f62e78cea01bee320cd4e420270b5ea74000d11b0c9f74754ebdbfc544b05a25861375d612c3f565b60405161376a9190614723565b60405180910390a1565b600081836137829190614c1b565b905092915050565b613792611391565b156137d2576040517f08c379a00000000000000000000000000000000000000000000000000000000081526004016137c990614896565b60405180910390fd5b6137dd838383612ba4565b505050565b6060600060028360026137f59190614bc1565b6137ff9190614b3a565b67ffffffffffffffff81111561383e577f4e487b7100000000000000000000000000000000000000000000000000000000600052604160045260246000fd5b6040519080825280601f01601f1916602001820160405280156138705781602001600182028036833780820191505090505b5090507f3000000000000000000000000000000000000000000000000000000000000000816000815181106138ce577f4e487b7100000000000000000000000000000000000000000000000000000000600052603260045260246000fd5b60200101907effffffffffffffffffffffffffffffffffffffffffffffffffffffffffffff1916908160001a9053507f780000000000000000000000000000000000000000000000000000000000000081600181518110613958577f4e487b7100000000000000000000000000000000000000000000000000000000600052603260045260246000fd5b60200101907effffffffffffffffffffffffffffffffffffffffffffffffffffffffffffff1916908160001a905350600060018460026139989190614bc1565b6139a29190614b3a565b90505b6001811115613a8e577f3031323334353637383961626364656600000000000000000000000000000000600f861660108110613a0a577f4e487b7100000000000000000000000000000000000000000000000000000000600052603260045260246000fd5b1a60f81b828281518110613a47577f4e487b7100000000000000000000000000000000000000000000000000000000600052603260045260246000fd5b60200101907effffffffffffffffffffffffffffffffffffffffffffffffffffffffffffff1916908160001a905350600485901c945080613a8790614d0d565b90506139a5565b5060008414613ad2576040517f08c379a0000000000000000000000000000000000000000000000000000000008152600401613ac990614796565b60405180910390fd5b8091505092915050565b600081359050613aeb81614e07565b92915050565b600081359050613b0081614e1e565b92915050565b600081359050613b1581614e35565b92915050565b600081359050613b2a81614e4c565b92915050565b600081359050613b3f81614e63565b92915050565b600060208284031215613b5757600080fd5b6000613b6584828501613adc565b91505092915050565b60008060408385031215613b8157600080fd5b6000613b8f85828601613adc565b9250506020613ba085828601613adc565b9150509250929050565b600080600060608486031215613bbf57600080fd5b6000613bcd86828701613adc565b9350506020613bde86828701613adc565b9250506040613bef86828701613b30565b9150509250925092565b60008060408385031215613c0c57600080fd5b6000613c1a85828601613adc565b9250506020613c2b85828601613b30565b9150509250929050565b600080600080600060a08688031215613c4d57600080fd5b6000613c5b88828901613af1565b9550506020613c6c88828901613b30565b9450506040613c7d88828901613b30565b9350506060613c8e88828901613b30565b9250506080613c9f88828901613b30565b9150509295509295909350565b600060208284031215613cbe57600080fd5b6000613ccc84828501613b06565b91505092915050565b60008060408385031215613ce857600080fd5b6000613cf685828601613b06565b9250506020613d0785828601613adc565b9150509250929050565b600060208284031215613d2357600080fd5b6000613d3184828501613b1b565b91505092915050565b600060208284031215613d4c57600080fd5b6000613d5a84828501613b30565b91505092915050565b60008060408385031215613d7657600080fd5b6000613d8485828601613b30565b9250506020613d9585828601613b30565b9150509250929050565b600080600060608486031215613db457600080fd5b6000613dc286828701613b30565b9350506020613dd386828701613b30565b9250506040613de486828701613b30565b9150509250925092565b613df781614c4f565b82525050565b613e0681614c61565b82525050565b613e1581614c6d565b82525050565b6000613e2682614b13565b613e308185614b1e565b9350613e40818560208601614cda565b613e4981614df6565b840191505092915050565b6000613e5f82614b13565b613e698185614b2f565b9350613e79818560208601614cda565b80840191505092915050565b6000613e92602083614b1e565b91507f537472696e67733a20686578206c656e67746820696e73756666696369656e746000830152602082019050919050565b6000613ed2602383614b1e565b91507f45524332303a207472616e7366657220746f20746865207a65726f206164647260008301527f65737300000000000000000000000000000000000000000000000000000000006020830152604082019050919050565b6000613f38601483614b1e565b91507f5061757361626c653a206e6f74207061757365640000000000000000000000006000830152602082019050919050565b6000613f78602283614b1e565b91507f45524332303a206275726e20616d6f756e7420657863656564732062616c616e60008301527f63650000000000000000000000000000000000000000000000000000000000006020830152604082019050919050565b6000613fde602283614b1e565b91507f45524332303a20617070726f766520746f20746865207a65726f20616464726560008301527f73730000000000000000000000000000000000000000000000000000000000006020830152604082019050919050565b6000614044602683614b1e565b91507f45524332303a207472616e7366657220616d6f756e742065786365656473206260008301527f616c616e636500000000000000000000000000000000000000000000000000006020830152604082019050919050565b60006140aa602783614b1e565b91507f4164647265737320686173206e6f20766f74657320617661696c61626c65207460008301527f6f20636c61696d000000000000000000000000000000000000000000000000006020830152604082019050919050565b6000614110604683614b1e565b91507f4f6e6c7920616464726573736573207468617420686176652062616c616e636560008301527f73206f66206f766572203130303020746f6b656e73206172652061626c65207460208301527f6f20766f746500000000000000000000000000000000000000000000000000006040830152606082019050919050565b600061419c601083614b1e565b91507f5061757361626c653a20706175736564000000000000000000000000000000006000830152602082019050919050565b60006141dc601c83614b1e565b91507f4d757374206164642074696d652067726561746572207468616e2030000000006000830152602082019050919050565b600061421c602883614b1e565b91507f45524332303a207472616e7366657220616d6f756e742065786365656473206160008301527f6c6c6f77616e63650000000000000000000000000000000000000000000000006020830152604082019050919050565b6000614282602483614b1e565b91507f45524332303a206275726e20616d6f756e74206578636565647320616c6c6f7760008301527f616e6365000000000000000000000000000000000000000000000000000000006020830152604082019050919050565b60006142e8601383614b1e565b91507f506f6c6c20646f6573206e6f74206578697374000000000000000000000000006000830152602082019050919050565b6000614328602183614b1e565b91507f45524332303a206275726e2066726f6d20746865207a65726f2061646472657360008301527f73000000000000000000000000000000000000000000000000000000000000006020830152604082019050919050565b600061438e602583614b1e565b91507f45524332303a207472616e736665722066726f6d20746865207a65726f20616460008301527f64726573730000000000000000000000000000000000000000000000000000006020830152604082019050919050565b60006143f4603f83614b1e565b91507f54686520616d6f756e74206f6620746f6b656e7320746f206265206275726e6560008301527f642f206d696e746564206d757374206265206c6172676572207468616e2030006020830152604082019050919050565b600061445a602483614b1e565b91507f45524332303a20617070726f76652066726f6d20746865207a65726f2061646460008301527f72657373000000000000000000000000000000000000000000000000000000006020830152604082019050919050565b60006144c0601783614b2f565b91507f416363657373436f6e74726f6c3a206163636f756e74200000000000000000006000830152601782019050919050565b6000614500604783614b1e565b91507f4164647265737320686173206e6f20766f7465732063757272656e746c792c2060008301527f63616c6c2066756e6374696f6e20636c61696d566f746520746f20636c61696d60208301527f206120766f7465000000000000000000000000000000000000000000000000006040830152606082019050919050565b600061458c602583614b1e565b91507f45524332303a2064656372656173656420616c6c6f77616e63652062656c6f7760008301527f207a65726f0000000000000000000000000000000000000000000000000000006020830152604082019050919050565b60006145f2601183614b2f565b91507f206973206d697373696e6720726f6c65200000000000000000000000000000006000830152601182019050919050565b6000614632602f83614b1e565b91507f416363657373436f6e74726f6c3a2063616e206f6e6c792072656e6f756e636560008301527f20726f6c657320666f722073656c6600000000000000000000000000000000006020830152604082019050919050565b6000614698601f83614b1e565b91507f45524332303a206d696e7420746f20746865207a65726f2061646472657373006000830152602082019050919050565b6146d481614cc3565b82525050565b6146e381614ccd565b82525050565b60006146f4826144b3565b91506147008285613e54565b915061470b826145e5565b91506147178284613e54565b91508190509392505050565b60006020820190506147386000830184613dee565b92915050565b60006020820190506147536000830184613dfd565b92915050565b600060208201905061476e6000830184613e0c565b92915050565b6000602082019050818103600083015261478e8184613e1b565b905092915050565b600060208201905081810360008301526147af81613e85565b9050919050565b600060208201905081810360008301526147cf81613ec5565b9050919050565b600060208201905081810360008301526147ef81613f2b565b9050919050565b6000602082019050818103600083015261480f81613f6b565b9050919050565b6000602082019050818103600083015261482f81613fd1565b9050919050565b6000602082019050818103600083015261484f81614037565b9050919050565b6000602082019050818103600083015261486f8161409d565b9050919050565b6000602082019050818103600083015261488f81614103565b9050919050565b600060208201905081810360008301526148af8161418f565b9050919050565b600060208201905081810360008301526148cf816141cf565b9050919050565b600060208201905081810360008301526148ef8161420f565b9050919050565b6000602082019050818103600083015261490f81614275565b9050919050565b6000602082019050818103600083015261492f816142db565b9050919050565b6000602082019050818103600083015261494f8161431b565b9050919050565b6000602082019050818103600083015261496f81614381565b9050919050565b6000602082019050818103600083015261498f816143e7565b9050919050565b600060208201905081810360008301526149af8161444d565b9050919050565b600060208201905081810360008301526149cf816144f3565b9050919050565b600060208201905081810360008301526149ef8161457f565b9050919050565b60006020820190508181036000830152614a0f81614625565b9050919050565b60006020820190508181036000830152614a2f8161468b565b9050919050565b6000602082019050614a4b60008301846146cb565b92915050565b6000604082019050614a6660008301856146cb565b614a7360208301846146cb565b9392505050565b600061010082019050614a90600083018b6146cb565b614a9d602083018a6146cb565b614aaa6040830189613dfd565b614ab760608301886146cb565b614ac460808301876146cb565b614ad160a08301866146cb565b614ade60c08301856146cb565b614aeb60e0830184613dfd565b9998505050505050505050565b6000602082019050614b0d60008301846146da565b92915050565b600081519050919050565b600082825260208201905092915050565b600081905092915050565b6000614b4582614cc3565b9150614b5083614cc3565b9250827fffffffffffffffffffffffffffffffffffffffffffffffffffffffffffffffff03821115614b8557614b84614d69565b5b828201905092915050565b6000614b9b82614cc3565b9150614ba683614cc3565b925082614bb657614bb5614d98565b5b828204905092915050565b6000614bcc82614cc3565b9150614bd783614cc3565b9250817fffffffffffffffffffffffffffffffffffffffffffffffffffffffffffffffff0483118215151615614c1057614c0f614d69565b5b828202905092915050565b6000614c2682614cc3565b9150614c3183614cc3565b925082821015614c4457614c43614d69565b5b828203905092915050565b6000614c5a82614ca3565b9050919050565b60008115159050919050565b6000819050919050565b60007fffffffff0000000000000000000000000000000000000000000000000000000082169050919050565b600073ffffffffffffffffffffffffffffffffffffffff82169050919050565b6000819050919050565b600060ff82169050919050565b60005b83811015614cf8578082015181840152602081019050614cdd565b83811115614d07576000848401525b50505050565b6000614d1882614cc3565b91506000821415614d2c57614d2b614d69565b5b600182039050919050565b60006002820490506001821680614d4f57607f821691505b60208210811415614d6357614d62614dc7565b5b50919050565b7f4e487b7100000000000000000000000000000000000000000000000000000000600052601160045260246000fd5b7f4e487b7100000000000000000000000000000000000000000000000000000000600052601260045260246000fd5b7f4e487b7100000000000000000000000000000000000000000000000000000000600052602260045260246000fd5b6000601f19601f8301169050919050565b614e1081614c4f565b8114614e1b57600080fd5b50565b614e2781614c61565b8114614e3257600080fd5b50565b614e3e81614c6d565b8114614e4957600080fd5b50565b614e5581614c77565b8114614e6057600080fd5b50565b614e6c81614cc3565b8114614e7757600080fd5b5056fea2646970667358221220d52e7dbed86d52e06e6f59abd21579839ad6f07457e0930e518aec31249f9f0964736f6c63430008000033",
  "immutableReferences": {},
  "source": "// SPDX-License-Identifier: MIT\npragma solidity >=0.4.22 <0.9.0;\n\nimport \"@openzeppelin/contracts/token/ERC20/ERC20.sol\";\nimport \"@openzeppelin/contracts/token/ERC20/extensions/ERC20Burnable.sol\";\nimport \"@openzeppelin/contracts/access/AccessControl.sol\";\nimport \"@openzeppelin/contracts/utils/math/SafeMath.sol\";\nimport \"@openzeppelin/contracts/security/Pausable.sol\";\n\ncontract Mai is ERC20, ERC20Burnable, AccessControl, Pausable{\n    using SafeMath for uint256;\n    bytes32 public constant PAUSER_ROLE = keccak256(\"PAUSER_ROLE\");\n    bytes32 public constant MINTER_ROLE = keccak256(\"MINTER_ROLE\");\n    bytes32 public constant VOTER_ROLE = keccak256(\"VOTER_ROLE\");\n    bytes32 public constant STAKER_ROLE = keccak256(\"STAKER_ROLE\");\n\n    event _VoteMade(uint256 indexed pollID, uint256 votes, address indexed voter);\n    event _PollCreated(uint voteAmount, uint commitEndDate, uint indexed pollID, address indexed creator);\n    event _VotingRightsGranted(address indexed voter);\n    event _VotingRightsRevoked(address indexed voter);\n    event _resultsGenerated(uint256 amountMinted, uint256 pollID);\n\n    constructor() ERC20(\"Mai\", \"MAI\") {\n        _mint(msg.sender, 1000 * 10 ** decimals());\n        _setupRole(DEFAULT_ADMIN_ROLE, msg.sender);\n        _setupRole(MINTER_ROLE, msg.sender);\n        _setupRole(VOTER_ROLE, msg.sender);\n        _setupRole(STAKER_ROLE, msg.sender);\n    }\n\n    struct Poll {\n        uint256 commitEndDate;\n        uint256 voteAmount;\n        bool quorumOption;\n        uint256 voteQuorum;\n        uint256 votesFor;\n        uint256 votesAgainst;\n        uint256 option;\n        bool ongoing;\n        mapping(address => uint256) _votesClaimed;\n        mapping(address => uint256) _votes;\n        mapping(address => uint256) _side;\n    }\n\n    mapping (uint256 => Poll) public pollMapping;\n    mapping (uint256 => uint256) public totalVotes;\n    uint256 pollNonce = 0;\n    address stakingAddress;\n\n    /**\n    @dev Initiates poll and emits PollCreate event\n    @param _quorumOption Users can decide if the winner is decided by the percentage majority out of 100 or whether the 'for' side has more votes than the 'against' side\n    @param _voteQuorum Assumes that the _quorumOption is false, passes in the percentage majority out of 100 that is required to win the vote\n    @param _voteAmount The amount of tokens minted/burned if poll is successful \n    @param _commitDuration Length of the poll in seconds\n    @param _option Type of poll, option 1 is for minting tokens, option 2 is for burning tokens \n    **/\n\n    function startPoll(bool _quorumOption, uint256 _voteQuorum, uint256 _voteAmount, uint256 _commitDuration, uint256 _option) public returns (uint256 pollID) {\n        require ((_quorumOption == false && _voteQuorum == 0) || (_quorumOption == true && _voteQuorum > 0));\n        require (_voteAmount > 0, \"The amount of tokens to be burned/ minted must be larger than 0\");\n        uint256 commitEndDate = block.timestamp.add(_commitDuration);\n        pollNonce = pollNonce.add(1);\n        Poll storage newPoll = pollMapping[pollNonce];\n        newPoll.option = _option;\n        newPoll.quorumOption = _quorumOption;\n        newPoll.voteQuorum = _voteQuorum;\n        newPoll.voteAmount = _voteAmount;\n        newPoll.commitEndDate = commitEndDate;\n        newPoll.votesFor = 0;\n        newPoll.votesAgainst = 0;\n        newPoll.ongoing = true;\n\n        emit _PollCreated(_voteAmount, commitEndDate, pollNonce, msg.sender);\n        return pollNonce;\n    }\n\n    function voterAllocation(address voter) public {\n        require(balanceOf(voter) >= 1000);\n        grantRole(VOTER_ROLE, voter);\n        emit _VotingRightsGranted(voter);\n    }\n\n    function revokeVote(uint256 amount, uint256 pollID) public {\n        require(msg.sender != address(0));\n        require(pollMapping[pollID].ongoing = true);\n        require(isNotExpired(pollID));\n        require(pollMapping[pollID]._votes[msg.sender] > 0, \"Address has no votes currently, call function claimVote to claim a vote\");\n        require(amount <= pollMapping[pollID]._votes[msg.sender]);\n        pollMapping[pollID]._votes[msg.sender] = pollMapping[pollID]._votes[msg.sender].sub(amount);\n        totalVotes[pollID] = totalVotes[pollID].add(1);\n    }\n\n    function transfer(address recipient, uint256 amount) public virtual override returns (bool) {\n        _transfer(_msgSender(), recipient, amount);\n        return true;\n    }\n\n    function voterRevokation(address voter) public {\n        require(hasRole(VOTER_ROLE, msg.sender));\n        require(voter != address(0));\n        revokeRole(VOTER_ROLE, voter);\n        emit _VotingRightsRevoked(voter);\n    }\n\n    modifier voterCheck(address voter) {\n        require(voter != address(0));\n        if (hasRole(VOTER_ROLE, voter) == false && balanceOf(voter) >= 1000) {\n            voterAllocation(voter);\n        }\n        if (hasRole(VOTER_ROLE, voter) == true && balanceOf(voter) < 1000) {\n           voterRevokation(voter); \n        }\n        require(hasRole(VOTER_ROLE, voter), \"Only addresses that have balances of over 1000 tokens are able to vote\");\n        _;\n    }\n\n    function claimVote(uint256 pollID) public whenNotPaused voterCheck(msg.sender) {\n        require(msg.sender != address(0));\n        uint256 claimable = pollMapping[pollID]._votesClaimed[msg.sender].sub(999);\n        require(claimable > 0, \"Address has no votes available to claim\");\n        pollMapping[pollID]._votesClaimed[msg.sender] = pollMapping[pollID]._votesClaimed[msg.sender].add(claimable);\n        pollMapping[pollID]._votes[msg.sender] = pollMapping[pollID]._votes[msg.sender].add(claimable);\n    }\n\n    function numOfVotes(address voter, uint256 pollID) public view returns (uint256 votes) {\n        require(voter != address(0));\n        return pollMapping[pollID]._votes[voter]; \n    }\n\n    function makeVote(uint256 votesMade, uint256 pollID, uint256 side) public whenNotPaused voterCheck(msg.sender) {\n        require(msg.sender != address(0));\n        require(pollMapping[pollID].ongoing = true);\n        require(isNotExpired(pollID));\n        require(pollMapping[pollID]._votes[msg.sender] > 0, \"Address has no votes currently, call function claimVote to claim a vote\");\n        require(votesMade <= pollMapping[pollID]._votes[msg.sender]);\n        require(pollMapping[pollID]._side[msg.sender] == 0 || pollMapping[pollID]._side[msg.sender] == side);\n        require(side == 1 || side == 2);\n        if (side == 1) {\n            pollMapping[pollID].votesFor = pollMapping[pollID].votesFor.add(1);\n        } else if (side == 2) {\n            pollMapping[pollID].votesAgainst = pollMapping[pollID].votesAgainst.add(1);\n        }\n        pollMapping[pollID]._side[msg.sender] = side;\n        pollMapping[pollID]._votes[msg.sender] = pollMapping[pollID]._votes[msg.sender].sub(votesMade);\n        emit _VoteMade(pollID, votesMade, msg.sender); \n        totalVotes[pollID] = totalVotes[pollID].add(1);\n    }\n\n    function results(uint256 pollID) public returns (bool passed) {\n        endPoll(pollID);\n        require(isNotExpired(pollID) == false);\n        require(pollExists(pollID));\n        if (pollMapping[pollID].quorumOption == false) {\n            if (pollMapping[pollID].votesFor > pollMapping[pollID].votesAgainst) {\n                return (true);\n            } else if (pollMapping[pollID].votesFor < pollMapping[pollID].votesAgainst) {\n                return (false);\n            } else {\n                whenTie(pollID);\n            }\n        } else if (pollMapping[pollID].quorumOption == true) {\n            if (quorumCalc(pollID) >= pollMapping[pollID].voteQuorum) {\n                return (true);\n            } else if (quorumCalc(pollID) < pollMapping[pollID].voteQuorum) {\n                return  (false);\n            } else {\n                whenTie(pollID);\n            }\n        }\n    }\n\n    function quorumCalc(uint256 pollID) public view returns (uint256 result) {\n        require (totalVotes[pollID] > 0);\n        require (pollExists(pollID), \"Poll does not exist\");\n        uint256 ans = pollMapping[pollID].votesFor.div(totalVotes[pollID]);\n        ans = ans.mul(100);\n        return ans;\n    }\n\n    function endPoll(uint pollID) public {\n        require(hasRole(PAUSER_ROLE, msg.sender));\n        require(pollExists(pollID));\n        pollMapping[pollID].ongoing = false;\n    }\n\n    function whenTie(uint256 pollID) public view returns (string memory tied) {\n        require(pollExists(pollID));\n        if (pollMapping[pollID].quorumOption == false) {\n            if (pollMapping[pollID].votesFor == pollMapping[pollID].votesAgainst) {\n                return (\"Poll tied\");\n            }\n        } else if (pollMapping[pollID].quorumOption == true) {\n            if (quorumCalc(pollID) == pollMapping[pollID].voteQuorum) {\n                return (\"Poll tied\");\n            }\n        }\n    } \n\n    function burnRewards (uint256 pollID) public payable {\n        require(pollMapping[pollID].option == 2);\n        require(pollMapping[pollID].ongoing == false);\n        burn(pollMapping[pollID].voteAmount);\n        emit _resultsGenerated(pollMapping[pollID].voteAmount, pollID);\n    }\n        \n\n    function mintRewards (uint256 pollID) public payable {\n        require(pollMapping[pollID].option == 1);\n        require(pollMapping[pollID].ongoing == false);\n        _mint(msg.sender, pollMapping[pollID].voteAmount);\n        emit _resultsGenerated(pollMapping[pollID].voteAmount, pollID);  \n    }\n        \n    \n    function addTime(uint256 pollID, uint256 timeAdded) public {\n        require (pollExists(pollID)); \n        require(timeAdded > 0, \"Must add time greater than 0\");\n        pollMapping[pollID].commitEndDate = pollMapping[pollID].commitEndDate.add(timeAdded); \n    }\n\n\n    function pause() public {\n        require(hasRole(PAUSER_ROLE, msg.sender));\n        _pause();\n    }\n\n    function unpause() public {\n        require(hasRole(PAUSER_ROLE, msg.sender));\n        _unpause();\n    }\n\n    function _beforeTokenTransfer(address from, address to, uint256 amount)\n        internal\n        whenNotPaused\n        override\n    {\n        super._beforeTokenTransfer(from, to, amount);\n    }\n\n    function mint(address to, uint256 amount) public {\n        require(hasRole(MINTER_ROLE, msg.sender));\n        _mint(to, amount);\n    }\n\n    function pollExists(uint256 _pollID) public view returns (bool exists) {\n        return (_pollID != 0 && _pollID <= pollNonce);\n    }\n\n    function pollEnded(uint256 _pollID) public view returns (bool ended) {\n        require(pollExists(_pollID));\n\n        return isNotExpired(pollMapping[_pollID].commitEndDate);\n    }\n\n    function isNotExpired(uint256 _terminationDate) public view returns (bool expired) {\n        return (block.timestamp > _terminationDate);\n    }\n\n}\n",
  "sourcePath": "/Users/colinlam/Desktop/code/MaiContract/contracts/MaiGeneration.sol",
  "compiler": {
    "name": "solc",
    "version": "0.8.0+commit.c7dfd78e.Emscripten.clang"
  },
  "schemaVersion": "3.4.1",
  "updatedAt": "2021-07-05T10:07:32.530Z",
  "devdoc": {
    "kind": "dev",
    "methods": {
      "allowance(address,address)": {
        "details": "See {IERC20-allowance}."
      },
      "approve(address,uint256)": {
        "details": "See {IERC20-approve}. Requirements: - `spender` cannot be the zero address."
      },
      "balanceOf(address)": {
        "details": "See {IERC20-balanceOf}."
      },
      "burn(uint256)": {
        "details": "Destroys `amount` tokens from the caller. See {ERC20-_burn}."
      },
      "burnFrom(address,uint256)": {
        "details": "Destroys `amount` tokens from `account`, deducting from the caller's allowance. See {ERC20-_burn} and {ERC20-allowance}. Requirements: - the caller must have allowance for ``accounts``'s tokens of at least `amount`."
      },
      "decimals()": {
        "details": "Returns the number of decimals used to get its user representation. For example, if `decimals` equals `2`, a balance of `505` tokens should be displayed to a user as `5,05` (`505 / 10 ** 2`). Tokens usually opt for a value of 18, imitating the relationship between Ether and Wei. This is the value {ERC20} uses, unless this function is overridden; NOTE: This information is only used for _display_ purposes: it in no way affects any of the arithmetic of the contract, including {IERC20-balanceOf} and {IERC20-transfer}."
      },
      "decreaseAllowance(address,uint256)": {
        "details": "Atomically decreases the allowance granted to `spender` by the caller. This is an alternative to {approve} that can be used as a mitigation for problems described in {IERC20-approve}. Emits an {Approval} event indicating the updated allowance. Requirements: - `spender` cannot be the zero address. - `spender` must have allowance for the caller of at least `subtractedValue`."
      },
      "getRoleAdmin(bytes32)": {
        "details": "Returns the admin role that controls `role`. See {grantRole} and {revokeRole}. To change a role's admin, use {_setRoleAdmin}."
      },
      "grantRole(bytes32,address)": {
        "details": "Grants `role` to `account`. If `account` had not been already granted `role`, emits a {RoleGranted} event. Requirements: - the caller must have ``role``'s admin role."
      },
      "hasRole(bytes32,address)": {
        "details": "Returns `true` if `account` has been granted `role`."
      },
      "increaseAllowance(address,uint256)": {
        "details": "Atomically increases the allowance granted to `spender` by the caller. This is an alternative to {approve} that can be used as a mitigation for problems described in {IERC20-approve}. Emits an {Approval} event indicating the updated allowance. Requirements: - `spender` cannot be the zero address."
      },
      "name()": {
        "details": "Returns the name of the token."
      },
      "paused()": {
        "details": "Returns true if the contract is paused, and false otherwise."
      },
      "renounceRole(bytes32,address)": {
        "details": "Revokes `role` from the calling account. Roles are often managed via {grantRole} and {revokeRole}: this function's purpose is to provide a mechanism for accounts to lose their privileges if they are compromised (such as when a trusted device is misplaced). If the calling account had been granted `role`, emits a {RoleRevoked} event. Requirements: - the caller must be `account`."
      },
      "revokeRole(bytes32,address)": {
        "details": "Revokes `role` from `account`. If `account` had been granted `role`, emits a {RoleRevoked} event. Requirements: - the caller must have ``role``'s admin role."
      },
      "startPoll(bool,uint256,uint256,uint256,uint256)": {
        "details": "Initiates poll and emits PollCreate event",
        "params": {
          "_commitDuration": "Length of the poll in seconds",
          "_option": "Type of poll, option 1 is for minting tokens, option 2 is for burning tokens *",
          "_quorumOption": "Users can decide if the winner is decided by the percentage majority out of 100 or whether the 'for' side has more votes than the 'against' side",
          "_voteAmount": "The amount of tokens minted/burned if poll is successful ",
          "_voteQuorum": "Assumes that the _quorumOption is false, passes in the percentage majority out of 100 that is required to win the vote"
        }
      },
      "supportsInterface(bytes4)": {
        "details": "See {IERC165-supportsInterface}."
      },
      "symbol()": {
        "details": "Returns the symbol of the token, usually a shorter version of the name."
      },
      "totalSupply()": {
        "details": "See {IERC20-totalSupply}."
      },
      "transfer(address,uint256)": {
        "details": "See {IERC20-transfer}. Requirements: - `recipient` cannot be the zero address. - the caller must have a balance of at least `amount`."
      },
      "transferFrom(address,address,uint256)": {
        "details": "See {IERC20-transferFrom}. Emits an {Approval} event indicating the updated allowance. This is not required by the EIP. See the note at the beginning of {ERC20}. Requirements: - `sender` and `recipient` cannot be the zero address. - `sender` must have a balance of at least `amount`. - the caller must have allowance for ``sender``'s tokens of at least `amount`."
      }
    },
    "version": 1
  },
  "userdoc": {
    "kind": "user",
    "methods": {},
    "version": 1
  }
}