{
  "contractName": "Mai",
  "abi": [
    {
      "inputs": [],
      "stateMutability": "nonpayable",
      "type": "constructor"
    },
    {
      "anonymous": false,
      "inputs": [
        {
          "indexed": true,
          "internalType": "address",
          "name": "owner",
          "type": "address"
        },
        {
          "indexed": true,
          "internalType": "address",
          "name": "spender",
          "type": "address"
        },
        {
          "indexed": false,
          "internalType": "uint256",
          "name": "value",
          "type": "uint256"
        }
      ],
      "name": "Approval",
      "type": "event"
    },
    {
      "anonymous": false,
      "inputs": [
        {
          "indexed": false,
          "internalType": "address",
          "name": "account",
          "type": "address"
        }
      ],
      "name": "Paused",
      "type": "event"
    },
    {
      "anonymous": false,
      "inputs": [
        {
          "indexed": true,
          "internalType": "bytes32",
          "name": "role",
          "type": "bytes32"
        },
        {
          "indexed": true,
          "internalType": "bytes32",
          "name": "previousAdminRole",
          "type": "bytes32"
        },
        {
          "indexed": true,
          "internalType": "bytes32",
          "name": "newAdminRole",
          "type": "bytes32"
        }
      ],
      "name": "RoleAdminChanged",
      "type": "event"
    },
    {
      "anonymous": false,
      "inputs": [
        {
          "indexed": true,
          "internalType": "bytes32",
          "name": "role",
          "type": "bytes32"
        },
        {
          "indexed": true,
          "internalType": "address",
          "name": "account",
          "type": "address"
        },
        {
          "indexed": true,
          "internalType": "address",
          "name": "sender",
          "type": "address"
        }
      ],
      "name": "RoleGranted",
      "type": "event"
    },
    {
      "anonymous": false,
      "inputs": [
        {
          "indexed": true,
          "internalType": "bytes32",
          "name": "role",
          "type": "bytes32"
        },
        {
          "indexed": true,
          "internalType": "address",
          "name": "account",
          "type": "address"
        },
        {
          "indexed": true,
          "internalType": "address",
          "name": "sender",
          "type": "address"
        }
      ],
      "name": "RoleRevoked",
      "type": "event"
    },
    {
      "anonymous": false,
      "inputs": [
        {
          "indexed": false,
          "internalType": "uint256",
          "name": "id",
          "type": "uint256"
        }
      ],
      "name": "Snapshot",
      "type": "event"
    },
    {
      "anonymous": false,
      "inputs": [
        {
          "indexed": true,
          "internalType": "address",
          "name": "from",
          "type": "address"
        },
        {
          "indexed": true,
          "internalType": "address",
          "name": "to",
          "type": "address"
        },
        {
          "indexed": false,
          "internalType": "uint256",
          "name": "value",
          "type": "uint256"
        }
      ],
      "name": "Transfer",
      "type": "event"
    },
    {
      "anonymous": false,
      "inputs": [
        {
          "indexed": false,
          "internalType": "address",
          "name": "account",
          "type": "address"
        }
      ],
      "name": "Unpaused",
      "type": "event"
    },
    {
      "anonymous": false,
      "inputs": [
        {
          "indexed": false,
          "internalType": "uint256",
          "name": "minStake",
          "type": "uint256"
        }
      ],
      "name": "_MinimumStakeChanged",
      "type": "event"
    },
    {
      "anonymous": false,
      "inputs": [
        {
          "indexed": true,
          "internalType": "address",
          "name": "to",
          "type": "address"
        },
        {
          "indexed": false,
          "internalType": "uint256",
          "name": "amount",
          "type": "uint256"
        }
      ],
      "name": "_Minted",
      "type": "event"
    },
    {
      "anonymous": false,
      "inputs": [
        {
          "indexed": false,
          "internalType": "uint256",
          "name": "votedTokenAmount",
          "type": "uint256"
        },
        {
          "indexed": false,
          "internalType": "uint256",
          "name": "end",
          "type": "uint256"
        },
        {
          "indexed": true,
          "internalType": "uint256",
          "name": "pollID",
          "type": "uint256"
        },
        {
          "indexed": true,
          "internalType": "address",
          "name": "creator",
          "type": "address"
        }
      ],
      "name": "_PollCreated",
      "type": "event"
    },
    {
      "anonymous": false,
      "inputs": [
        {
          "indexed": false,
          "internalType": "uint256",
          "name": "amountMinted",
          "type": "uint256"
        },
        {
          "indexed": false,
          "internalType": "uint256",
          "name": "pollID",
          "type": "uint256"
        }
      ],
      "name": "_ResultsGenerated",
      "type": "event"
    },
    {
      "anonymous": false,
      "inputs": [
        {
          "indexed": true,
          "internalType": "uint256",
          "name": "pollID",
          "type": "uint256"
        },
        {
          "indexed": true,
          "internalType": "uint256",
          "name": "amount",
          "type": "uint256"
        }
      ],
      "name": "_RewardsBurned",
      "type": "event"
    },
    {
      "anonymous": false,
      "inputs": [
        {
          "indexed": true,
          "internalType": "uint256",
          "name": "pollID",
          "type": "uint256"
        },
        {
          "indexed": true,
          "internalType": "uint256",
          "name": "amount",
          "type": "uint256"
        }
      ],
      "name": "_RewardsMinted",
      "type": "event"
    },
    {
      "anonymous": false,
      "inputs": [
        {
          "indexed": false,
          "internalType": "address",
          "name": "to",
          "type": "address"
        }
      ],
      "name": "_StakerGranted",
      "type": "event"
    },
    {
      "anonymous": false,
      "inputs": [
        {
          "indexed": false,
          "internalType": "address",
          "name": "account",
          "type": "address"
        },
        {
          "indexed": false,
          "internalType": "uint256",
          "name": "amountReturned",
          "type": "uint256"
        }
      ],
      "name": "_StakerRoleRevoked",
      "type": "event"
    },
    {
      "anonymous": false,
      "inputs": [
        {
          "indexed": false,
          "internalType": "address",
          "name": "account",
          "type": "address"
        },
        {
          "indexed": false,
          "internalType": "uint256",
          "name": "amount",
          "type": "uint256"
        }
      ],
      "name": "_StakesDeposited",
      "type": "event"
    },
    {
      "anonymous": false,
      "inputs": [
        {
          "indexed": false,
          "internalType": "address",
          "name": "account",
          "type": "address"
        },
        {
          "indexed": false,
          "internalType": "uint256",
          "name": "amount",
          "type": "uint256"
        }
      ],
      "name": "_StakesWithdrawn",
      "type": "event"
    },
    {
      "anonymous": false,
      "inputs": [
        {
          "indexed": true,
          "internalType": "address",
          "name": "voter",
          "type": "address"
        },
        {
          "indexed": false,
          "internalType": "uint256",
          "name": "amountClaimed",
          "type": "uint256"
        }
      ],
      "name": "_VoteClaimed",
      "type": "event"
    },
    {
      "anonymous": false,
      "inputs": [
        {
          "indexed": true,
          "internalType": "uint256",
          "name": "pollID",
          "type": "uint256"
        }
      ],
      "name": "_VoteEnded",
      "type": "event"
    },
    {
      "anonymous": false,
      "inputs": [
        {
          "indexed": true,
          "internalType": "uint256",
          "name": "pollID",
          "type": "uint256"
        },
        {
          "indexed": false,
          "internalType": "uint256",
          "name": "votes",
          "type": "uint256"
        },
        {
          "indexed": true,
          "internalType": "address",
          "name": "voter",
          "type": "address"
        },
        {
          "indexed": false,
          "internalType": "uint256",
          "name": "side",
          "type": "uint256"
        }
      ],
      "name": "_VoteMade",
      "type": "event"
    },
    {
      "anonymous": false,
      "inputs": [
        {
          "indexed": true,
          "internalType": "uint256",
          "name": "pollID",
          "type": "uint256"
        },
        {
          "indexed": false,
          "internalType": "uint256",
          "name": "votes",
          "type": "uint256"
        },
        {
          "indexed": true,
          "internalType": "address",
          "name": "voter",
          "type": "address"
        }
      ],
      "name": "_VoteRevoked",
      "type": "event"
    },
    {
      "anonymous": false,
      "inputs": [
        {
          "indexed": true,
          "internalType": "address",
          "name": "voter",
          "type": "address"
        }
      ],
      "name": "_VotingRightsGranted",
      "type": "event"
    },
    {
      "anonymous": false,
      "inputs": [
        {
          "indexed": true,
          "internalType": "address",
          "name": "voter",
          "type": "address"
        }
      ],
      "name": "_VotingRightsRevoked",
      "type": "event"
    },
    {
      "inputs": [],
      "name": "DEFAULT_ADMIN_ROLE",
      "outputs": [
        {
          "internalType": "bytes32",
          "name": "",
          "type": "bytes32"
        }
      ],
      "stateMutability": "view",
      "type": "function"
    },
    {
      "inputs": [],
      "name": "OWNER_ROLE",
      "outputs": [
        {
          "internalType": "bytes32",
          "name": "",
          "type": "bytes32"
        }
      ],
      "stateMutability": "view",
      "type": "function"
    },
    {
      "inputs": [],
      "name": "PAUSER_ROLE",
      "outputs": [
        {
          "internalType": "bytes32",
          "name": "",
          "type": "bytes32"
        }
      ],
      "stateMutability": "view",
      "type": "function"
    },
    {
      "inputs": [],
      "name": "SNAPSHOT_ROLE",
      "outputs": [
        {
          "internalType": "bytes32",
          "name": "",
          "type": "bytes32"
        }
      ],
      "stateMutability": "view",
      "type": "function"
    },
    {
      "inputs": [],
      "name": "STAKER_ROLE",
      "outputs": [
        {
          "internalType": "bytes32",
          "name": "",
          "type": "bytes32"
        }
      ],
      "stateMutability": "view",
      "type": "function"
    },
    {
      "inputs": [],
      "name": "VOTER_ROLE",
      "outputs": [
        {
          "internalType": "bytes32",
          "name": "",
          "type": "bytes32"
        }
      ],
      "stateMutability": "view",
      "type": "function"
    },
    {
      "inputs": [
        {
          "internalType": "address",
          "name": "owner",
          "type": "address"
        },
        {
          "internalType": "address",
          "name": "spender",
          "type": "address"
        }
      ],
      "name": "allowance",
      "outputs": [
        {
          "internalType": "uint256",
          "name": "",
          "type": "uint256"
        }
      ],
      "stateMutability": "view",
      "type": "function"
    },
    {
      "inputs": [
        {
          "internalType": "address",
          "name": "spender",
          "type": "address"
        },
        {
          "internalType": "uint256",
          "name": "amount",
          "type": "uint256"
        }
      ],
      "name": "approve",
      "outputs": [
        {
          "internalType": "bool",
          "name": "",
          "type": "bool"
        }
      ],
      "stateMutability": "nonpayable",
      "type": "function"
    },
    {
      "inputs": [
        {
          "internalType": "address",
          "name": "account",
          "type": "address"
        }
      ],
      "name": "balanceOf",
      "outputs": [
        {
          "internalType": "uint256",
          "name": "",
          "type": "uint256"
        }
      ],
      "stateMutability": "view",
      "type": "function"
    },
    {
      "inputs": [
        {
          "internalType": "address",
          "name": "account",
          "type": "address"
        },
        {
          "internalType": "uint256",
          "name": "snapshotId",
          "type": "uint256"
        }
      ],
      "name": "balanceOfAt",
      "outputs": [
        {
          "internalType": "uint256",
          "name": "",
          "type": "uint256"
        }
      ],
      "stateMutability": "view",
      "type": "function"
    },
    {
      "inputs": [
        {
          "internalType": "uint256",
          "name": "amount",
          "type": "uint256"
        }
      ],
      "name": "burn",
      "outputs": [],
      "stateMutability": "nonpayable",
      "type": "function"
    },
    {
      "inputs": [
        {
          "internalType": "address",
          "name": "account",
          "type": "address"
        },
        {
          "internalType": "uint256",
          "name": "amount",
          "type": "uint256"
        }
      ],
      "name": "burnFrom",
      "outputs": [],
      "stateMutability": "nonpayable",
      "type": "function"
    },
    {
      "inputs": [],
      "name": "decimals",
      "outputs": [
        {
          "internalType": "uint8",
          "name": "",
          "type": "uint8"
        }
      ],
      "stateMutability": "view",
      "type": "function"
    },
    {
      "inputs": [
        {
          "internalType": "address",
          "name": "spender",
          "type": "address"
        },
        {
          "internalType": "uint256",
          "name": "subtractedValue",
          "type": "uint256"
        }
      ],
      "name": "decreaseAllowance",
      "outputs": [
        {
          "internalType": "bool",
          "name": "",
          "type": "bool"
        }
      ],
      "stateMutability": "nonpayable",
      "type": "function"
    },
    {
      "inputs": [
        {
          "internalType": "bytes32",
          "name": "role",
          "type": "bytes32"
        }
      ],
      "name": "getRoleAdmin",
      "outputs": [
        {
          "internalType": "bytes32",
          "name": "",
          "type": "bytes32"
        }
      ],
      "stateMutability": "view",
      "type": "function"
    },
    {
      "inputs": [
        {
          "internalType": "bytes32",
          "name": "role",
          "type": "bytes32"
        },
        {
          "internalType": "address",
          "name": "account",
          "type": "address"
        }
      ],
      "name": "grantRole",
      "outputs": [],
      "stateMutability": "nonpayable",
      "type": "function"
    },
    {
      "inputs": [
        {
          "internalType": "bytes32",
          "name": "role",
          "type": "bytes32"
        },
        {
          "internalType": "address",
          "name": "account",
          "type": "address"
        }
      ],
      "name": "hasRole",
      "outputs": [
        {
          "internalType": "bool",
          "name": "",
          "type": "bool"
        }
      ],
      "stateMutability": "view",
      "type": "function"
    },
    {
      "inputs": [
        {
          "internalType": "address",
          "name": "spender",
          "type": "address"
        },
        {
          "internalType": "uint256",
          "name": "addedValue",
          "type": "uint256"
        }
      ],
      "name": "increaseAllowance",
      "outputs": [
        {
          "internalType": "bool",
          "name": "",
          "type": "bool"
        }
      ],
      "stateMutability": "nonpayable",
      "type": "function"
    },
    {
      "inputs": [],
      "name": "name",
      "outputs": [
        {
          "internalType": "string",
          "name": "",
          "type": "string"
        }
      ],
      "stateMutability": "view",
      "type": "function"
    },
    {
      "inputs": [],
      "name": "paused",
      "outputs": [
        {
          "internalType": "bool",
          "name": "",
          "type": "bool"
        }
      ],
      "stateMutability": "view",
      "type": "function"
    },
    {
      "inputs": [
        {
          "internalType": "uint256",
          "name": "",
          "type": "uint256"
        }
      ],
      "name": "pollMapping",
      "outputs": [
        {
          "internalType": "address",
          "name": "pollStarter",
          "type": "address"
        },
        {
          "internalType": "uint256",
          "name": "start",
          "type": "uint256"
        },
        {
          "internalType": "uint256",
          "name": "end",
          "type": "uint256"
        },
        {
          "internalType": "uint256",
          "name": "votedTokenAmount",
          "type": "uint256"
        },
        {
          "internalType": "bool",
          "name": "quorumOption",
          "type": "bool"
        },
        {
          "internalType": "uint256",
          "name": "voteQuorum",
          "type": "uint256"
        },
        {
          "internalType": "uint256",
          "name": "votesFor",
          "type": "uint256"
        },
        {
          "internalType": "uint256",
          "name": "votesAgainst",
          "type": "uint256"
        },
        {
          "internalType": "uint256",
          "name": "action",
          "type": "uint256"
        },
        {
          "internalType": "bool",
          "name": "ongoing",
          "type": "bool"
        }
      ],
      "stateMutability": "view",
      "type": "function"
    },
    {
      "inputs": [
        {
          "internalType": "bytes32",
          "name": "role",
          "type": "bytes32"
        },
        {
          "internalType": "address",
          "name": "account",
          "type": "address"
        }
      ],
      "name": "renounceRole",
      "outputs": [],
      "stateMutability": "nonpayable",
      "type": "function"
    },
    {
      "inputs": [
        {
          "internalType": "bytes32",
          "name": "role",
          "type": "bytes32"
        },
        {
          "internalType": "address",
          "name": "account",
          "type": "address"
        }
      ],
      "name": "revokeRole",
      "outputs": [],
      "stateMutability": "nonpayable",
      "type": "function"
    },
    {
      "inputs": [
        {
          "internalType": "address",
          "name": "",
          "type": "address"
        }
      ],
      "name": "stakedTotal",
      "outputs": [
        {
          "internalType": "uint256",
          "name": "",
          "type": "uint256"
        }
      ],
      "stateMutability": "view",
      "type": "function"
    },
    {
      "inputs": [],
      "name": "stakingAddress",
      "outputs": [
        {
          "internalType": "address",
          "name": "",
          "type": "address"
        }
      ],
      "stateMutability": "view",
      "type": "function"
    },
    {
      "inputs": [
        {
          "internalType": "bytes4",
          "name": "interfaceId",
          "type": "bytes4"
        }
      ],
      "name": "supportsInterface",
      "outputs": [
        {
          "internalType": "bool",
          "name": "",
          "type": "bool"
        }
      ],
      "stateMutability": "view",
      "type": "function"
    },
    {
      "inputs": [],
      "name": "symbol",
      "outputs": [
        {
          "internalType": "string",
          "name": "",
          "type": "string"
        }
      ],
      "stateMutability": "view",
      "type": "function"
    },
    {
      "inputs": [],
      "name": "totalSupply",
      "outputs": [
        {
          "internalType": "uint256",
          "name": "",
          "type": "uint256"
        }
      ],
      "stateMutability": "view",
      "type": "function"
    },
    {
      "inputs": [
        {
          "internalType": "uint256",
          "name": "snapshotId",
          "type": "uint256"
        }
      ],
      "name": "totalSupplyAt",
      "outputs": [
        {
          "internalType": "uint256",
          "name": "",
          "type": "uint256"
        }
      ],
      "stateMutability": "view",
      "type": "function"
    },
    {
      "inputs": [
        {
          "internalType": "uint256",
          "name": "",
          "type": "uint256"
        }
      ],
      "name": "totalVotes",
      "outputs": [
        {
          "internalType": "uint256",
          "name": "",
          "type": "uint256"
        }
      ],
      "stateMutability": "view",
      "type": "function"
    },
    {
      "inputs": [
        {
          "internalType": "address",
          "name": "recipient",
          "type": "address"
        },
        {
          "internalType": "uint256",
          "name": "amount",
          "type": "uint256"
        }
      ],
      "name": "transfer",
      "outputs": [
        {
          "internalType": "bool",
          "name": "",
          "type": "bool"
        }
      ],
      "stateMutability": "nonpayable",
      "type": "function"
    },
    {
      "inputs": [
        {
          "internalType": "address",
          "name": "sender",
          "type": "address"
        },
        {
          "internalType": "address",
          "name": "recipient",
          "type": "address"
        },
        {
          "internalType": "uint256",
          "name": "amount",
          "type": "uint256"
        }
      ],
      "name": "transferFrom",
      "outputs": [
        {
          "internalType": "bool",
          "name": "",
          "type": "bool"
        }
      ],
      "stateMutability": "nonpayable",
      "type": "function"
    },
    {
      "inputs": [],
      "name": "snapshot",
      "outputs": [],
      "stateMutability": "nonpayable",
      "type": "function"
    },
    {
      "inputs": [
        {
          "internalType": "uint256",
          "name": "newMinAmount",
          "type": "uint256"
        }
      ],
      "name": "changeMinimumStake",
      "outputs": [],
      "stateMutability": "nonpayable",
      "type": "function"
    },
    {
      "inputs": [
        {
          "internalType": "uint256",
          "name": "amount",
          "type": "uint256"
        }
      ],
      "name": "stake",
      "outputs": [],
      "stateMutability": "payable",
      "type": "function"
    },
    {
      "inputs": [
        {
          "internalType": "uint256",
          "name": "amount",
          "type": "uint256"
        }
      ],
      "name": "withdraw",
      "outputs": [],
      "stateMutability": "payable",
      "type": "function"
    },
    {
      "inputs": [
        {
          "internalType": "uint256",
          "name": "amount",
          "type": "uint256"
        }
      ],
      "name": "deposit",
      "outputs": [],
      "stateMutability": "payable",
      "type": "function"
    },
    {
      "inputs": [],
      "name": "viewStakedBalance",
      "outputs": [
        {
          "internalType": "uint256",
          "name": "balance",
          "type": "uint256"
        }
      ],
      "stateMutability": "view",
      "type": "function"
    },
    {
      "inputs": [],
      "name": "revokeStaker",
      "outputs": [],
      "stateMutability": "nonpayable",
      "type": "function"
    },
    {
      "inputs": [
        {
          "internalType": "bool",
          "name": "_quorumOption",
          "type": "bool"
        },
        {
          "internalType": "uint256",
          "name": "_voteQuorum",
          "type": "uint256"
        },
        {
          "internalType": "uint256",
          "name": "_action",
          "type": "uint256"
        },
        {
          "internalType": "uint256",
          "name": "_votedTokenAmount",
          "type": "uint256"
        },
        {
          "internalType": "uint256",
          "name": "_commitDuration",
          "type": "uint256"
        }
      ],
      "name": "startPoll",
      "outputs": [
        {
          "internalType": "uint256",
          "name": "pollID",
          "type": "uint256"
        }
      ],
      "stateMutability": "nonpayable",
      "type": "function"
    },
    {
      "inputs": [
        {
          "internalType": "address",
          "name": "voter",
          "type": "address"
        }
      ],
      "name": "voterAllocation",
      "outputs": [],
      "stateMutability": "nonpayable",
      "type": "function"
    },
    {
      "inputs": [
        {
          "internalType": "address",
          "name": "voter",
          "type": "address"
        }
      ],
      "name": "voterRevokation",
      "outputs": [],
      "stateMutability": "nonpayable",
      "type": "function"
    },
    {
      "inputs": [
        {
          "internalType": "uint256",
          "name": "pollID",
          "type": "uint256"
        },
        {
          "internalType": "address",
          "name": "voter",
          "type": "address"
        }
      ],
      "name": "claimVote",
      "outputs": [],
      "stateMutability": "nonpayable",
      "type": "function"
    },
    {
      "inputs": [
        {
          "internalType": "address",
          "name": "account",
          "type": "address"
        },
        {
          "internalType": "uint256",
          "name": "amount",
          "type": "uint256"
        }
      ],
      "name": "mint",
      "outputs": [],
      "stateMutability": "nonpayable",
      "type": "function"
    },
    {
      "inputs": [
        {
          "internalType": "address",
          "name": "voter",
          "type": "address"
        },
        {
          "internalType": "uint256",
          "name": "pollID",
          "type": "uint256"
        }
      ],
      "name": "numOfVotes",
      "outputs": [
        {
          "internalType": "uint256",
          "name": "votes",
          "type": "uint256"
        }
      ],
      "stateMutability": "view",
      "type": "function"
    },
    {
      "inputs": [
        {
          "internalType": "uint256",
          "name": "votesMade",
          "type": "uint256"
        },
        {
          "internalType": "uint256",
          "name": "pollID",
          "type": "uint256"
        },
        {
          "internalType": "uint256",
          "name": "side",
          "type": "uint256"
        },
        {
          "internalType": "address",
          "name": "voter",
          "type": "address"
        }
      ],
      "name": "makeVote",
      "outputs": [],
      "stateMutability": "nonpayable",
      "type": "function"
    },
    {
      "inputs": [
        {
          "internalType": "uint256",
          "name": "pollID",
          "type": "uint256"
        }
      ],
      "name": "results",
      "outputs": [
        {
          "internalType": "bool",
          "name": "passed",
          "type": "bool"
        }
      ],
      "stateMutability": "nonpayable",
      "type": "function"
    },
    {
      "inputs": [
        {
          "internalType": "uint256",
          "name": "pollID",
          "type": "uint256"
        }
      ],
      "name": "quorumCalc",
      "outputs": [
        {
          "internalType": "uint256",
          "name": "result",
          "type": "uint256"
        }
      ],
      "stateMutability": "view",
      "type": "function"
    },
    {
      "inputs": [
        {
          "internalType": "uint256",
          "name": "pollID",
          "type": "uint256"
        }
      ],
      "name": "endPoll",
      "outputs": [],
      "stateMutability": "nonpayable",
      "type": "function"
    },
    {
      "inputs": [
        {
          "internalType": "uint256",
          "name": "pollID",
          "type": "uint256"
        }
      ],
      "name": "mintRewards",
      "outputs": [],
      "stateMutability": "payable",
      "type": "function"
    },
    {
      "inputs": [
        {
          "internalType": "uint256",
          "name": "pollID",
          "type": "uint256"
        }
      ],
      "name": "burnRewards",
      "outputs": [],
      "stateMutability": "payable",
      "type": "function"
    },
    {
      "inputs": [
        {
          "internalType": "uint256",
          "name": "pollID",
          "type": "uint256"
        },
        {
          "internalType": "address",
          "name": "recipient",
          "type": "address"
        }
      ],
      "name": "transferRewards",
      "outputs": [],
      "stateMutability": "nonpayable",
      "type": "function"
    },
    {
      "inputs": [
        {
          "internalType": "uint256",
          "name": "pollID",
          "type": "uint256"
        }
      ],
      "name": "takeSnapshot",
      "outputs": [],
      "stateMutability": "nonpayable",
      "type": "function"
    },
    {
      "inputs": [
        {
          "internalType": "address",
          "name": "voter",
          "type": "address"
        }
      ],
      "name": "checkParticipation",
      "outputs": [
        {
          "internalType": "bool",
          "name": "participating",
          "type": "bool"
        }
      ],
      "stateMutability": "view",
      "type": "function"
    },
    {
      "inputs": [
        {
          "internalType": "uint256",
          "name": "_pollID",
          "type": "uint256"
        }
      ],
      "name": "pollExists",
      "outputs": [
        {
          "internalType": "bool",
          "name": "exists",
          "type": "bool"
        }
      ],
      "stateMutability": "view",
      "type": "function"
    },
    {
      "inputs": [
        {
          "internalType": "uint256",
          "name": "_pollID",
          "type": "uint256"
        }
      ],
      "name": "pollEnded",
      "outputs": [
        {
          "internalType": "bool",
          "name": "ended",
          "type": "bool"
        }
      ],
      "stateMutability": "view",
      "type": "function"
    },
    {
      "inputs": [
        {
          "internalType": "uint256",
          "name": "_terminationDate",
          "type": "uint256"
        }
      ],
      "name": "isNotExpired",
      "outputs": [
        {
          "internalType": "bool",
          "name": "expired",
          "type": "bool"
        }
      ],
      "stateMutability": "view",
      "type": "function"
    }
  ],
  "bytecode": "0x60806040526103e8600c5560006010553480156200001c57600080fd5b506040805180820182526003808252624d616960e81b60208084019182528451808601909552828552624d414960e81b90850152825192939262000062929190620004db565b50805162000078906004906020840190620004db565b5050600a805460ff1916905550620000b833620000946200016e565b620000a190600a62000629565b620000b29064e8d4a5100062000721565b62000173565b620000e47fb9e206fa2af7ee1331b72ce58b6d938ac810ce9b5cdb65d35ab723fd67badf9e3362000255565b620001107fb19546dff01e856fb3f010c267a7b1c60363cf8a4664e21cc89c26224620214e3362000255565b6200013c7f65d7a28e3265b37a6474929f336521b332c1681b933f6cb9f3376673440d862a3362000255565b620001687f5fdbd35e8da83ee755d5e62a539e5ed7f47126abede0b8b10f9ea43dc6eed07f3362000255565b620007b0565b601290565b6001600160a01b038216620001a55760405162461bcd60e51b81526004016200019c9062000581565b60405180910390fd5b620001b36000838362000261565b8060026000828254620001c79190620005c1565b90915550506001600160a01b03821660009081526020819052604081208054839290620001f6908490620005c1565b90915550506040516001600160a01b038316906000907fddf252ad1be2c89b69c2b068fc378daa952ba7f163c4a11628f55a4df523b3ef906200023b908590620005b8565b60405180910390a3620002516000838362000279565b5050565b6200025182826200027e565b620002798383836200030a60201b620021a21760201c565b505050565b6200028a82826200037c565b620002515760008281526009602090815260408083206001600160a01b03851684529091529020805460ff19166001179055620002c6620003a7565b6001600160a01b0316816001600160a01b0316837f2f8788117e7eff1d82e926ec794901d17c78024a50270940304540a733656f0d60405160405180910390a45050565b620003228383836200027960201b62000f281760201c565b6001600160a01b0383166200034c576200033c82620003ab565b62000346620003dc565b62000279565b6001600160a01b03821662000366576200033c83620003ab565b6200037183620003ab565b6200027982620003ab565b60009182526009602090815260408084206001600160a01b0393909316845291905290205460ff1690565b3390565b6001600160a01b0381166000908152600560205260409020620003d990620003d383620003ee565b6200040d565b50565b620003ec6006620003d36200045c565b565b6001600160a01b0381166000908152602081905260409020545b919050565b60006200041962000462565b905080620004278462000480565b101562000279578254600180820185556000858152602080822090930193909355938401805494850181558252902090910155565b60025490565b60006200047b6008620004d760201b620021fa1760201c565b905090565b8054600090620004935750600062000408565b81548290620004a59060019062000743565b81548110620004c457634e487b7160e01b600052603260045260246000fd5b9060005260206000200154905062000408565b5490565b828054620004e9906200075d565b90600052602060002090601f0160209004810192826200050d576000855562000558565b82601f106200052857805160ff191683800117855562000558565b8280016001018555821562000558579182015b82811115620005585782518255916020019190600101906200053b565b50620005669291506200056a565b5090565b5b808211156200056657600081556001016200056b565b6020808252601f908201527f45524332303a206d696e7420746f20746865207a65726f206164647265737300604082015260600190565b90815260200190565b60008219821115620005d757620005d76200079a565b500190565b80825b6001808611620005f0575062000620565b8187048211156200060557620006056200079a565b808616156200061357918102915b9490941c938002620005df565b94509492505050565b60006200063d60001960ff85168462000644565b9392505050565b60008262000655575060016200063d565b8162000664575060006200063d565b81600181146200067d57600281146200068857620006bc565b60019150506200063d565b60ff8411156200069c576200069c6200079a565b6001841b915084821115620006b557620006b56200079a565b506200063d565b5060208310610133831016604e8410600b8410161715620006f4575081810a83811115620006ee57620006ee6200079a565b6200063d565b620007038484846001620005dc565b8086048211156200071857620007186200079a565b02949350505050565b60008160001904831182151516156200073e576200073e6200079a565b500290565b6000828210156200075857620007586200079a565b500390565b6002810460018216806200077257607f821691505b602082108114156200079457634e487b7160e01b600052602260045260246000fd5b50919050565b634e487b7160e01b600052601160045260246000fd5b61388280620007c06000396000f3fe6080604052600436106103755760003560e01c806379d0e6fe116101d1578063a94015c811610102578063d547741f116100a0578063e63ab1e91161006f578063e63ab1e9146109a1578063ee684830146109b6578063f43b8778146109d6578063f5679189146109f657610375565b8063d547741f1461092a578063d7b4be241461094a578063dd62ed3e1461096c578063e58378bb1461098c57610375565b8063b6b55f25116100dc578063b6b55f25146108b7578063ca5f0b99146108ca578063cd8cd048146108ea578063d0beb73a1461090a57610375565b8063a94015c81461086d578063ae47785b14610882578063b687bcc01461089757610375565b806395d89b411161016f578063a217fddf11610149578063a217fddf14610805578063a457c2d71461081a578063a694fc3a1461083a578063a9059cbb1461084d57610375565b806395d89b41146107bb5780639711715a146107d0578063981b24d0146107e557610375565b806389ec0257116101ab57806389ec0257146107485780638c4055031461075b5780638fecb1a21461077b57806391d148541461079b57610375565b806379d0e6fe146106f357806385f8db101461071357806388d21ff31461072857610375565b8063356cb555116102ab57806343398cd2116102495780635c975abb116102235780635c975abb146106895780637028e2cd1461069e57806370a08231146106b357806379cc6790146106d357610375565b806343398cd2146106365780634828ced9146106565780634ee2cd7e1461066957610375565b80633780b3ed116102855780633780b3ed146105c157806339509351146105d657806340c10f19146105f657806342966c681461061657610375565b8063356cb5551461054b57806336568abe1461056b578063372c48e11461058b57610375565b80631b0c27da11610318578063248a9ca3116102f2578063248a9ca3146104d45780632e1a7d4d146104f45780632f2ff15d14610509578063313ce5671461052957610375565b80631b0c27da1461047457806321e04c321461049457806323b872dd146104b457610375565b806306fdde031161035457806306fdde03146103fd578063095ea7b31461041f57806318160ddd1461043f57806319e6e1581461045457610375565b8062f027201461037a57806301ffc9a7146103b057806303d29a5b146103dd575b600080fd5b34801561038657600080fd5b5061039a610395366004612d48565b610a16565b6040516103a79190612ee7565b60405180910390f35b3480156103bc57600080fd5b506103d06103cb366004612d82565b610a98565b6040516103a79190612edc565b3480156103e957600080fd5b506103d06103f8366004612d48565b610ac3565b34801561040957600080fd5b50610412610ac8565b6040516103a79190612ef0565b34801561042b57600080fd5b506103d061043a366004612cd8565b610b5a565b34801561044b57600080fd5b5061039a610b77565b34801561046057600080fd5b5061039a61046f366004612d48565b610b7d565b34801561048057600080fd5b506103d061048f366004612d48565b610b8f565b3480156104a057600080fd5b506103d06104af366004612c51565b610c9e565b3480156104c057600080fd5b506103d06104cf366004612c9d565b610d27565b3480156104e057600080fd5b5061039a6104ef366004612d48565b610db7565b610507610502366004612d48565b610dcc565b005b34801561051557600080fd5b50610507610524366004612d60565b610f04565b34801561053557600080fd5b5061053e610f2d565b6040516103a791906136a3565b34801561055757600080fd5b50610507610566366004612d60565b610f32565b34801561057757600080fd5b50610507610586366004612d60565b6110b2565b34801561059757600080fd5b506105ab6105a6366004612d48565b6110f8565b6040516103a79a99989796959493929190612e8a565b3480156105cd57600080fd5b5061039a611158565b3480156105e257600080fd5b506103d06105f1366004612cd8565b61116a565b34801561060257600080fd5b50610507610611366004612cd8565b6111be565b34801561062257600080fd5b50610507610631366004612d48565b611243565b34801561064257600080fd5b50610507610651366004612d48565b611257565b610507610664366004612d48565b6112e8565b34801561067557600080fd5b5061039a610684366004612cd8565b6113fa565b34801561069557600080fd5b506103d0611443565b3480156106aa57600080fd5b5061039a61144c565b3480156106bf57600080fd5b5061039a6106ce366004612c51565b611470565b3480156106df57600080fd5b506105076106ee366004612cd8565b61148b565b3480156106ff57600080fd5b5061050761070e366004612daa565b6114d9565b34801561071f57600080fd5b5061039a611796565b34801561073457600080fd5b506103d0610743366004612d48565b6117e0565b610507610756366004612d48565b6117f5565b34801561076757600080fd5b5061039a610776366004612cd8565b6118c3565b34801561078757600080fd5b50610507610796366004612d60565b611904565b3480156107a757600080fd5b506103d06107b6366004612d60565b611a43565b3480156107c757600080fd5b50610412611a6e565b3480156107dc57600080fd5b50610507611a7d565b3480156107f157600080fd5b5061039a610800366004612d48565b611abb565b34801561081157600080fd5b5061039a611aeb565b34801561082657600080fd5b506103d0610835366004612cd8565b611af0565b610507610848366004612d48565b611b69565b34801561085957600080fd5b506103d0610868366004612cd8565b611c4d565b34801561087957600080fd5b5061039a611c61565b34801561088e57600080fd5b50610507611c73565b3480156108a357600080fd5b506105076108b2366004612c51565b611d25565b6105076108c5366004612d48565b611d95565b3480156108d657600080fd5b5061039a6108e5366004612d01565b611e40565b3480156108f657600080fd5b50610507610905366004612c51565b611f74565b34801561091657600080fd5b50610507610925366004612d48565b611ff7565b34801561093657600080fd5b50610507610945366004612d60565b612072565b34801561095657600080fd5b5061095f612091565b6040516103a79190612e5d565b34801561097857600080fd5b5061039a610987366004612c6b565b6120a0565b34801561099857600080fd5b5061039a6120cb565b3480156109ad57600080fd5b5061039a6120dd565b3480156109c257600080fd5b506103d06109d1366004612d48565b612101565b3480156109e257600080fd5b506105076109f1366004612d48565b612130565b348015610a0257600080fd5b5061039a610a11366004612c51565b612190565b6000818152600e6020526040812054610a2e57600080fd5b610a37826117e0565b610a5c5760405162461bcd60e51b8152600401610a53906132e1565b60405180910390fd5b6000828152600e6020908152604080832054600d909252822060060154610a82916121fe565b9050610a8f816064612211565b9150505b919050565b60006001600160e01b03198216637965db0b60e01b1480610abd5750610abd8261221d565b92915050565b421090565b606060038054610ad790613756565b80601f0160208091040260200160405190810160405280929190818152602001828054610b0390613756565b8015610b505780601f10610b2557610100808354040283529160200191610b50565b820191906000526020600020905b815481529060010190602001808311610b3357829003601f168201915b5050505050905090565b6000610b6e610b67612236565b848461223a565b50600192915050565b60025490565b600e6020526000908152604090205481565b6000610b9a82612130565b610ba382610ac3565b15610bad57600080fd5b610bb6826117e0565b610bbf57600080fd5b6000828152600d602052604090206004015460ff16610c2e576000828152600d6020526040902060078101546006909101541115610bff57506001610a93565b6000828152600d6020526040902060078101546006909101541015610c2657506000610a93565b506000610a93565b6000828152600d602052604090206004015460ff16151560011415610a93576000828152600d6020526040902060050154610c6883610a16565b10610c7557506001610a93565b6000828152600d6020526040902060050154610c9083610a16565b1015610c2657506000610a93565b600060015b601054811015610d1e576000818152600d602052604090206009015460ff1615156001148015610cfd57506000818152600d602090815260408083206001600160a01b0387168452600b0190915290205460ff1615156001145b15610d0c576001915050610a93565b80610d1681613791565b915050610ca3565b50600092915050565b6000610d348484846122ee565b6001600160a01b038416600090815260016020526040812081610d55612236565b6001600160a01b03166001600160a01b0316815260200190815260200160002054905082811015610d985760405162461bcd60e51b8152600401610a53906131df565b610dac85610da4612236565b85840361223a565b506001949350505050565b60009081526009602052604090206001015490565b610de460008051602061380d83398151915233611a43565b610e005760405162461bcd60e51b8152600401610a5390613193565b336000908152600b6020526040902054811115610e2f5760405162461bcd60e51b8152600401610a539061309c565b600c54336000908152600b6020526040902054610e4c9083612418565b1015610e6a5760405162461bcd60e51b8152600401610a5390613465565b610e7333610c9e565b15610e905760405162461bcd60e51b8152600401610a5390613227565b610e9a3382611c4d565b50336000908152600b6020526040902054610eb59082612418565b336000818152600b6020526040908190209290925590517f636cb222c0a14b941cff2b7b16a3920b7043e92dabbf4ebe5104f45b7c5ea23c91610ef9918490612e71565b60405180910390a150565b610f0d82610db7565b610f1e81610f19612236565b612424565b610f288383612488565b505050565b601290565b80610f4b60008051602061382d83398151915282611a43565b610f5457600080fd5b6001600160a01b038216610f6757600080fd5b6000610fb96001600c54610f7b91906136fc565b6000868152600d602090815260408083206001600160a01b0389168452600a01825280832054600f90925290912054610fb391612418565b90612418565b905060008111610fdb5760405162461bcd60e51b8152600401610a539061314c565b6000848152600d602090815260408083206001600160a01b0387168452600a0190915290205461100b908261250f565b6000858152600d602090815260408083206001600160a01b0388168452600a8101835281842094909455600c90930190522054611048908261250f565b6000858152600d602090815260408083206001600160a01b038816808552600c9091019092529182902092909255517f11121ac798069fb07833ce3bd6cbfb51fec926c61a652138d3241566fe724079906110a4908490612ee7565b60405180910390a250505050565b6110ba612236565b6001600160a01b0316816001600160a01b0316146110ea5760405162461bcd60e51b8152600401610a539061360f565b6110f4828261251b565b5050565b600d6020526000908152604090208054600182015460028301546003840154600485015460058601546006870154600788015460088901546009909901546001600160a01b039098169896979596949560ff94851695939492939192168a565b60008051602061380d83398151915281565b6000610b6e611177612236565b848460016000611185612236565b6001600160a01b03908116825260208083019390935260409182016000908120918b16815292529020546111b991906136b1565b61223a565b6111d66000805160206137ed83398151915233611a43565b806111eb57506011546001600160a01b031633145b6111f457600080fd5b6111fe82826125a0565b816001600160a01b03167fa01c539e02f0011c0f14be4450f129565d1e05ad6863b64aa665a28431f66e00826040516112379190612ee7565b60405180910390a25050565b61125461124e612236565b82612668565b50565b61126f6000805160206137ed83398151915233611a43565b8061128457506011546001600160a01b031633145b61128d57600080fd5b600c5481141561129c57600080fd5b6011546001600160a01b031633146112b357600080fd5b600c8190556040517fa780cb8437215d835d6296c681503f759ac98b8f069b8bdc2ec57a92054ff76990610ef9908390612ee7565b6113006000805160206137ed83398151915233611a43565b8061131557506011546001600160a01b031633145b61131e57600080fd5b6113366000805160206137ed83398151915233611a43565b61133f57600080fd5b6000818152600d602052604090206008015460011461135d57600080fd5b6000818152600d602052604090206009015460ff161561137c57600080fd5b6000818152600d602052604081206003015461139a91903390612759565b6000818152600d60205260409020600301546113b79033906125a0565b6000818152600d6020526040908190206003015490517f143263f7b9f933ad95c7547e531e5a27d3f06f741fae22be1353448a3d0e917191610ef9918490613695565b6001600160a01b038216600090815260056020526040812081908190611421908590612764565b91509150816114385761143385611470565b61143a565b805b95945050505050565b600a5460ff1690565b7f5fdbd35e8da83ee755d5e62a539e5ed7f47126abede0b8b10f9ea43dc6eed07f81565b6001600160a01b031660009081526020819052604090205490565b600061149983610987612236565b9050818110156114bb5760405162461bcd60e51b8152600401610a539061329d565b6114cf836114c7612236565b84840361223a565b610f288383612668565b806114f260008051602061382d83398151915282611a43565b6114fb57600080fd5b6001600160a01b03821661150e57600080fd5b6000848152600d60205260409020600901805460ff1916600117905561153384610ac3565b61153c57600080fd5b6000848152600d602090815260408083206001600160a01b0386168452600c0190915290205461157e5760405162461bcd60e51b8152600401610a5390613526565b6000848152600d602090815260408083206001600160a01b0386168452600c019091529020548511156115b057600080fd5b6000848152600d602081815260408084206001600160a01b03871685529092019052902054158061160457506000848152600d602081815260408084206001600160a01b0387168552909201905290205483145b61160d57600080fd5b826001148061161c5750826002145b61162557600080fd5b8260011415611662576000848152600d602052604090206006015461164b90600161250f565b6000858152600d602052604090206006015561169b565b826002141561169b576000848152600d602052604090206007015461168890600161250f565b6000858152600d60205260409020600701555b6000848152600d602081815260408084206001600160a01b03871685529283018252808420879055600c90920190529020546116d79086612418565b6000858152600d602090815260408083206001600160a01b0387168452600c01825280832093909355868252600e9052205461171490600161250f565b6000858152600e6020908152604080832093909355600d81528282206001600160a01b038616808452600b90910190915290829020805460ff19166001179055905185907f5996e6b79a799eac35fb8f87a5ec15485d68232f99e6a9a13118feb7b77adb80906117879089908890613695565b60405180910390a35050505050565b60006117b060008051602061380d83398151915233611a43565b6117cc5760405162461bcd60e51b8152600401610a5390613193565b50336000908152600b602052604090205490565b60008115801590610abd575050601054101590565b61180d6000805160206137ed83398151915233611a43565b8061182257506011546001600160a01b031633145b61182b57600080fd5b6118436000805160206137ed83398151915233611a43565b61184c57600080fd5b6000818152600d602052604090206008015460021461186a57600080fd5b6000818152600d602052604090206009015460ff161561188957600080fd5b6000818152600d60205260408120600301546118a6913391612759565b6000818152600d60205260409020600301546113b790339061148b565b60006001600160a01b0383166118d857600080fd5b506000908152600d602090815260408083206001600160a01b03949094168352600c9093019052205490565b61191c6000805160206137ed83398151915233611a43565b8061193157506011546001600160a01b031633145b61193a57600080fd5b6119526000805160206137ed83398151915233611a43565b61195b57600080fd5b6000828152600d602052604090206008015460031461197957600080fd5b6000828152600d602052604090206009015460ff161561199857600080fd5b6000828152600d60205260408120600301546119b5913391612759565b6000828152600d60205260409020600301546119d090611243565b6119f46119db612236565b6000848152600d602052604090206003015483906122ee565b6000828152600d6020526040908190206003015490517f143263f7b9f933ad95c7547e531e5a27d3f06f741fae22be1353448a3d0e917191611a37918590613695565b60405180910390a15050565b60009182526009602090815260408084206001600160a01b0393909316845291905290205460ff1690565b606060048054610ad790613756565b611a956000805160206137ed83398151915233611a43565b80611aaa57506011546001600160a01b031633145b611ab357600080fd5b611254612810565b6000806000611acb846006612764565b9150915081611ae157611adc610b77565b611ae3565b805b949350505050565b600081565b60008060016000611aff612236565b6001600160a01b0390811682526020808301939093526040918201600090812091881681529252902054905082811015611b4b5760405162461bcd60e51b8152600401610a53906135ca565b611b5f611b56612236565b8585840361223a565b5060019392505050565b600c54811015611b8b5760405162461bcd60e51b8152600401610a53906130df565b611ba360008051602061380d83398151915233611a43565b15611bc05760405162461bcd60e51b8152600401610a5390613593565b601154611bd89033906001600160a01b031683610d27565b50611bf160008051602061380d83398151915233610f04565b336000908152600b6020526040902054611c0b908261250f565b336000818152600b6020526040908190209290925590517faa9b7cbce69f378b88683439602b2857dc079ec95e5996ecd5e84df0673de4d791610ef991612e5d565b6000610b6e611c5a612236565b84846122ee565b60008051602061382d83398151915281565b611c8b60008051602061380d83398151915233611a43565b611ca75760405162461bcd60e51b8152600401610a5390613193565b611cbf60008051602061380d83398151915233612072565b336000818152600b6020526040902054611cd99190611c4d565b50336000818152600b6020526040808220829055517fcb71ce4aef17d5694e262b4bedec3b5f7ea68f25621d775f80bc72e78d27692d92611d1b929091612e71565b60405180910390a1565b611d3d60008051602061380d83398151915282611a43565b611d4657600080fd5b611d5e60008051602061382d83398151915282610f04565b6040516001600160a01b038216907f3025407ee9b066f6cd97886b0c47bda6b6ebbb42d2c7574284f5814cfd3a504a90600090a250565b611dad60008051602061380d83398151915233611a43565b611dc95760405162461bcd60e51b8152600401610a5390613193565b601154611de19033906001600160a01b031683610d27565b50336000908152600b6020526040902054611dfc908261250f565b336000818152600b6020526040908190209290925590517f91dd5382838389dd317d2f661bec79d34c5b6abd4d2d475f84079da548c030fc91610ef9918490612e71565b600085158015611e4e575084155b80611e6657506001861515148015611e665750600085115b611e6f57600080fd5b60008311611e8f5760405162461bcd60e51b8152600401610a5390613394565b6000611e9b428461250f565b601054909150611eac90600161250f565b60108181556000918252600d602052604080832080546001600160a01b03191633908117825542600180840191909155600883018b90556004830180548e151560ff1991821617909155600584018d9055600384018b90556002840188905560068401879055600784019690965560098301805490961617909455915490519192917f75c3234b322da18df8c948bde9b9983e5a43633c4e2647d4d9f4f15c0706f05d90611f5d9089908790613695565b60405180910390a350506010549695505050505050565b611f8c60008051602061382d83398151915282611a43565b611f9557600080fd5b6001600160a01b038116611fa857600080fd5b611fc060008051602061382d83398151915282612072565b6040516001600160a01b038216907fc8f0ca04e3a4bee64fa8f12ab2c36bf665502f928567c2adfbbcc4ad796ed26990600090a250565b61200f6000805160206137ed83398151915233611a43565b8061202457506011546001600160a01b031633145b61202d57600080fd5b6000818152600d602052604090206008015460041461204b57600080fd5b6000818152600d602052604090206009015460ff161561206a57600080fd5b611254611a7d565b61207b82610db7565b61208781610f19612236565b610f28838361251b565b6011546001600160a01b031681565b6001600160a01b03918216600090815260016020908152604080832093909416825291909152205490565b6000805160206137ed83398151915281565b7f65d7a28e3265b37a6474929f336521b332c1681b933f6cb9f3376673440d862a81565b600061210c826117e0565b61211557600080fd5b6000828152600d6020526040902060020154610abd90610ac3565b61215a7f65d7a28e3265b37a6474929f336521b332c1681b933f6cb9f3376673440d862a33611a43565b61216357600080fd5b61216c816117e0565b61217557600080fd5b6000908152600d60205260409020600901805460ff19169055565b600f6020526000908152604090205481565b6121ad838383610f28565b6001600160a01b0383166121d1576121c482612864565b6121cc61288e565b610f28565b6001600160a01b0382166121e8576121c483612864565b6121f183612864565b610f2882612864565b5490565b600061220a82846136c9565b9392505050565b600061220a82846136dd565b6001600160e01b031981166301ffc9a760e01b14919050565b3390565b6001600160a01b0383166122605760405162461bcd60e51b8152600401610a53906133f1565b6001600160a01b0382166122865760405162461bcd60e51b8152600401610a5390613014565b6001600160a01b0380841660008181526001602090815260408083209487168084529490915290819020849055517f8c5be1e5ebec7d5bd14f71427d1e84f3dd0314c0f7b2291e5b200ac8c7c3b925906122e1908590612ee7565b60405180910390a3505050565b6001600160a01b0383166123145760405162461bcd60e51b8152600401610a539061334f565b6001600160a01b03821661233a5760405162461bcd60e51b8152600401610a5390612f8f565b612345838383612759565b6001600160a01b0383166000908152602081905260409020548181101561237e5760405162461bcd60e51b8152600401610a5390613056565b6001600160a01b038085166000908152602081905260408082208585039055918516815290812080548492906123b59084906136b1565b92505081905550826001600160a01b0316846001600160a01b03167fddf252ad1be2c89b69c2b068fc378daa952ba7f163c4a11628f55a4df523b3ef846040516123ff9190612ee7565b60405180910390a3612412848484610f28565b50505050565b600061220a82846136fc565b61242e8282611a43565b6110f457612446816001600160a01b0316601461289d565b61245183602061289d565b604051602001612462929190612de8565b60408051601f198184030181529082905262461bcd60e51b8252610a5391600401612ef0565b6124928282611a43565b6110f45760008281526009602090815260408083206001600160a01b03851684529091529020805460ff191660011790556124cb612236565b6001600160a01b0316816001600160a01b0316837f2f8788117e7eff1d82e926ec794901d17c78024a50270940304540a733656f0d60405160405180910390a45050565b600061220a82846136b1565b6125258282611a43565b156110f45760008281526009602090815260408083206001600160a01b03851684529091529020805460ff1916905561255c612236565b6001600160a01b0316816001600160a01b0316837ff6391f5c32d9c69d2a47ea670b442974b53935d1edc7fd64eb21e047a839171b60405160405180910390a45050565b6001600160a01b0382166125c65760405162461bcd60e51b8152600401610a539061365e565b6125d260008383612759565b80600260008282546125e491906136b1565b90915550506001600160a01b038216600090815260208190526040812080548392906126119084906136b1565b90915550506040516001600160a01b038316906000907fddf252ad1be2c89b69c2b068fc378daa952ba7f163c4a11628f55a4df523b3ef90612654908590612ee7565b60405180910390a36110f460008383610f28565b6001600160a01b03821661268e5760405162461bcd60e51b8152600401610a539061330e565b61269a82600083612759565b6001600160a01b038216600090815260208190526040902054818110156126d35760405162461bcd60e51b8152600401610a5390612fd2565b6001600160a01b03831660009081526020819052604081208383039055600280548492906127029084906136fc565b90915550506040516000906001600160a01b038516907fddf252ad1be2c89b69c2b068fc378daa952ba7f163c4a11628f55a4df523b3ef90612745908690612ee7565b60405180910390a3610f2883600084610f28565b610f288383836121a2565b600080600084116127875760405162461bcd60e51b8152600401610a5390613435565b61278f612a4f565b8411156127ae5760405162461bcd60e51b8152600401610a5390612f23565b60006127ba8486612a60565b84549091508114156127d3576000809250925050612809565b60018460010182815481106127f857634e487b7160e01b600052603260045260246000fd5b906000526020600020015492509250505b9250929050565b600061281c6008612b3f565b6000612826612a4f565b90507f8030e83b04d87bef53480e26263266d6ca66863aa8506aca6f2559d18aa1cb67816040516128579190612ee7565b60405180910390a1905090565b6001600160a01b03811660009081526005602052604090206112549061288983611470565b612b48565b61289b6006612889610b77565b565b606060006128ac8360026136dd565b6128b79060026136b1565b67ffffffffffffffff8111156128dd57634e487b7160e01b600052604160045260246000fd5b6040519080825280601f01601f191660200182016040528015612907576020820181803683370190505b509050600360fc1b8160008151811061293057634e487b7160e01b600052603260045260246000fd5b60200101906001600160f81b031916908160001a905350600f60fb1b8160018151811061296d57634e487b7160e01b600052603260045260246000fd5b60200101906001600160f81b031916908160001a90535060006129918460026136dd565b61299c9060016136b1565b90505b6001811115612a30576f181899199a1a9b1b9c1cb0b131b232b360811b85600f16601081106129de57634e487b7160e01b600052603260045260246000fd5b1a60f81b828281518110612a0257634e487b7160e01b600052603260045260246000fd5b60200101906001600160f81b031916908160001a90535060049490941c93612a298161373f565b905061299f565b50831561220a5760405162461bcd60e51b8152600401610a5390612f5a565b6000612a5b60086121fa565b905090565b8154600090612a7157506000610abd565b82546000905b80821015612adb576000612a8b8383612b92565b905084868281548110612aae57634e487b7160e01b600052603260045260246000fd5b90600052602060002001541115612ac757809150612ad5565b612ad28160016136b1565b92505b50612a77565b600082118015612b1e57508385612af36001856136fc565b81548110612b1157634e487b7160e01b600052603260045260246000fd5b9060005260206000200154145b15612b3757612b2e6001836136fc565b92505050610abd565b509050610abd565b80546001019055565b6000612b52612a4f565b905080612b5e84612be9565b1015610f28578254600180820185556000858152602080822090930193909355938401805494850181558252902090910155565b60006002612ba081846137ac565b612bab6002866137ac565b612bb591906136b1565b612bbf91906136c9565b612bca6002846136c9565b612bd56002866136c9565b612bdf91906136b1565b61220a91906136b1565b8054600090612bfa57506000610a93565b81548290612c0a906001906136fc565b81548110612c2857634e487b7160e01b600052603260045260246000fd5b90600052602060002001549050610a93565b80356001600160a01b0381168114610a9357600080fd5b600060208284031215612c62578081fd5b61220a82612c3a565b60008060408385031215612c7d578081fd5b612c8683612c3a565b9150612c9460208401612c3a565b90509250929050565b600080600060608486031215612cb1578081fd5b612cba84612c3a565b9250612cc860208501612c3a565b9150604084013590509250925092565b60008060408385031215612cea578182fd5b612cf383612c3a565b946020939093013593505050565b600080600080600060a08688031215612d18578081fd5b85358015158114612d27578182fd5b97602087013597506040870135966060810135965060800135945092505050565b600060208284031215612d59578081fd5b5035919050565b60008060408385031215612d72578182fd5b82359150612c9460208401612c3a565b600060208284031215612d93578081fd5b81356001600160e01b03198116811461220a578182fd5b60008060008060808587031215612dbf578384fd5b843593506020850135925060408501359150612ddd60608601612c3a565b905092959194509250565b60007f416363657373436f6e74726f6c3a206163636f756e742000000000000000000082528351612e20816017850160208801613713565b7001034b99036b4b9b9b4b733903937b6329607d1b6017918401918201528351612e51816028840160208801613713565b01602801949350505050565b6001600160a01b0391909116815260200190565b6001600160a01b03929092168252602082015260400190565b6001600160a01b039a909a168a5260208a019890985260408901969096526060880194909452911515608087015260a086015260c085015260e084015261010083015215156101208201526101400190565b901515815260200190565b90815260200190565b6000602082528251806020840152612f0f816040850160208701613713565b601f01601f19169190910160400192915050565b6020808252601d908201527f4552433230536e617073686f743a206e6f6e6578697374656e74206964000000604082015260600190565b6020808252818101527f537472696e67733a20686578206c656e67746820696e73756666696369656e74604082015260600190565b60208082526023908201527f45524332303a207472616e7366657220746f20746865207a65726f206164647260408201526265737360e81b606082015260800190565b60208082526022908201527f45524332303a206275726e20616d6f756e7420657863656564732062616c616e604082015261636560f01b606082015260800190565b60208082526022908201527f45524332303a20617070726f766520746f20746865207a65726f206164647265604082015261737360f01b606082015260800190565b60208082526026908201527f45524332303a207472616e7366657220616d6f756e7420657863656564732062604082015265616c616e636560d01b606082015260800190565b60208082526023908201527f4d75737420776974686472617720616d6f756e742077697468696e2062616c616040820152626e636560e81b606082015260800190565b60208082526047908201527f4d75737420686176652061207374616b65642062616c616e6365206f66206d6f60408201527f7265207468616e206d696e5374616b65204d414920746f206265636f6d6520616060820152661039ba30b5b2b960c91b608082015260a00190565b60208082526027908201527f4164647265737320686173206e6f20766f74657320617661696c61626c6520746040820152666f20636c61696d60c81b606082015260800190565b6020808252602c908201527f4d7573742068617665207374616b657220726f6c6520746f20706572666f726d60408201526b103a3434b99030b1ba34b7b760a11b606082015260800190565b60208082526028908201527f45524332303a207472616e7366657220616d6f756e74206578636565647320616040820152676c6c6f77616e636560c01b606082015260800190565b60208082526050908201527f596f75206d757374206e6f742062652070617274696369706174696e6720696e60408201527f20616e7920766f746520696e206f7264657220746f207769746864726177206160608201526f6e79207374616b656420746f6b656e7360801b608082015260a00190565b60208082526024908201527f45524332303a206275726e20616d6f756e74206578636565647320616c6c6f77604082015263616e636560e01b606082015260800190565b602080825260139082015272141bdb1b08191bd95cc81b9bdd08195e1a5cdd606a1b604082015260600190565b60208082526021908201527f45524332303a206275726e2066726f6d20746865207a65726f206164647265736040820152607360f81b606082015260800190565b60208082526025908201527f45524332303a207472616e736665722066726f6d20746865207a65726f206164604082015264647265737360d81b606082015260800190565b6020808252603f908201527f54686520616d6f756e74206f6620746f6b656e7320746f206265206275726e6560408201527f642f206d696e746564206d757374206265206c6172676572207468616e203000606082015260800190565b60208082526024908201527f45524332303a20617070726f76652066726f6d20746865207a65726f206164646040820152637265737360e01b606082015260800190565b60208082526016908201527504552433230536e617073686f743a20696420697320360541b604082015260600190565b6020808252608f908201527f412062616c616e6365206f6620686967686572207468616e206d696e5374616b60408201527f6520697320726571756972656420746f206d61696e7461696e20726f6c65206f60608201527f66207374616b65722c20696620796f75207769736820746f207265766f6b652060808201527f74686520726f6c65206f66207374616b65722c20757365207265766f6b65537460a08201526e30b5b2b9141490333ab731ba34b7b760891b60c082015260e00190565b60208082526047908201527f4164647265737320686173206e6f20766f7465732063757272656e746c792c2060408201527f63616c6c2066756e6374696f6e20636c61696d566f746520746f20636c61696d606082015266206120766f746560c81b608082015260a00190565b60208082526018908201527f596f752061726520616c72656164792061207374616b65720000000000000000604082015260600190565b60208082526025908201527f45524332303a2064656372656173656420616c6c6f77616e63652062656c6f77604082015264207a65726f60d81b606082015260800190565b6020808252602f908201527f416363657373436f6e74726f6c3a2063616e206f6e6c792072656e6f756e636560408201526e103937b632b9903337b91039b2b63360891b606082015260800190565b6020808252601f908201527f45524332303a206d696e7420746f20746865207a65726f206164647265737300604082015260600190565b918252602082015260400190565b60ff91909116815260200190565b600082198211156136c4576136c46137c0565b500190565b6000826136d8576136d86137d6565b500490565b60008160001904831182151516156136f7576136f76137c0565b500290565b60008282101561370e5761370e6137c0565b500390565b60005b8381101561372e578181015183820152602001613716565b838111156124125750506000910152565b60008161374e5761374e6137c0565b506000190190565b60028104600182168061376a57607f821691505b6020821081141561378b57634e487b7160e01b600052602260045260246000fd5b50919050565b60006000198214156137a5576137a56137c0565b5060010190565b6000826137bb576137bb6137d6565b500690565b634e487b7160e01b600052601160045260246000fd5b634e487b7160e01b600052601260045260246000fdfeb19546dff01e856fb3f010c267a7b1c60363cf8a4664e21cc89c26224620214eb9e206fa2af7ee1331b72ce58b6d938ac810ce9b5cdb65d35ab723fd67badf9e72c3eec1760bf69946625c2d4fb8e44e2c806345041960b434674fb9ab3976cfa26469706673582212204341e97c4095d04dfda114f59b346da06f153cf529468ba2f20c6d345ced625064736f6c63430008000033",
  "immutableReferences": {},
  "source": "// SPDX-License-Identifier: MIT\npragma solidity >=0.4.22 <0.9.0;\n\nimport \"@openzeppelin/contracts/utils/Context.sol\";\nimport \"@openzeppelin/contracts/token/ERC20/ERC20.sol\";\nimport \"@openzeppelin/contracts/token/ERC20/extensions/ERC20Burnable.sol\";\nimport \"@openzeppelin/contracts/access/AccessControl.sol\";\nimport \"@openzeppelin/contracts/utils/math/SafeMath.sol\";\nimport \"@openzeppelin/contracts/security/Pausable.sol\";\nimport \"./MaiToken.sol\";\n\nimport \"@openzeppelin/contracts/token/ERC20/extensions/ERC20Snapshot.sol\";\n   \n\ncontract Mai is Context, ERC20, ERC20Burnable, ERC20Snapshot, AccessControl, Pausable {\n    using SafeMath for uint256;\n    bytes32 public constant VOTER_ROLE = keccak256(\"VOTER_ROLE\");\n    bytes32 public constant STAKER_ROLE = keccak256(\"STAKER_ROLE\");\n    bytes32 public constant OWNER_ROLE = keccak256(\"OWNER_ROLE\");\n    bytes32 public constant PAUSER_ROLE = keccak256(\"PAUSER_ROLE\");\n    bytes32 public constant SNAPSHOT_ROLE = keccak256(\"SNAPSHOT_ROLE\");\n    \n    event _VoteMade(uint256 indexed pollID, uint256 votes, address indexed voter, uint256 side);\n    event _VoteClaimed(address indexed voter, uint256 amountClaimed);\n    event _VoteRevoked(uint256 indexed pollID, uint256 votes, address indexed voter); \n    event _VoteEnded(uint256 indexed pollID);\n    event _RewardsMinted(uint256 indexed pollID, uint256 indexed amount);\n    event _RewardsBurned(uint256 indexed pollID, uint256 indexed amount);\n    event _PollCreated(uint votedTokenAmount, uint end, uint indexed pollID, address indexed creator);\n    event _VotingRightsGranted(address indexed voter);\n    event _VotingRightsRevoked(address indexed voter);\n    event _ResultsGenerated(uint256 amountMinted, uint256 pollID);\n    event _Minted(address indexed to, uint256 amount);\n\n    constructor() ERC20(\"Mai\", \"MAI\") {\n        _mint(msg.sender, 10**12 * 10 ** decimals());\n        _setupRole(STAKER_ROLE, msg.sender);\n        _setupRole(OWNER_ROLE, msg.sender);\n        _setupRole(PAUSER_ROLE, msg.sender);\n        _setupRole(SNAPSHOT_ROLE, msg.sender);\n    }\n\n    modifier onlyOwner() {\n        require(hasRole(OWNER_ROLE, msg.sender) || msg.sender == stakingAddress);\n        _;\n    }\n\n    function pause() onlyOwner internal {\n        _pause();\n    }\n\n    function unpause() onlyOwner internal {\n        _unpause();\n    }\n\n    function snapshot() public onlyOwner() {\n        _snapshot();\n    }\n\n    function _beforeTokenTransfer(address from, address to, uint256 amount)\n        internal\n        override(ERC20, ERC20Snapshot)\n    {\n        super._beforeTokenTransfer(from, to, amount);\n    }\n\n    // Staking\n\n    event _StakerGranted(address to);\n    event _StakerRoleRevoked(address account, uint256 amountReturned);\n    event _StakesDeposited(address account, uint256 amount);\n    event _StakesWithdrawn(address account, uint256 amount);\n    event _MinimumStakeChanged(uint256 minStake);\n\n    mapping(address => uint256) stakedBalance; // Maps user address to the total amount of staked tokens\n\n    \n    uint256 minStake = 1000;\n    // uint256 minStakeTimeBeforeVoterRoleGranted = ;\n\n    function changeMinimumStake(uint256 newMinAmount) onlyOwner public {\n        require(newMinAmount != minStake);\n        require(msg.sender == stakingAddress);\n        minStake = newMinAmount;\n        emit _MinimumStakeChanged(newMinAmount);\n    }\n\n    /**\n    @dev Allows users to stake, adding their respective amount of tokens to the staked balance\n    @param amount Amount of tokens used in the stake pool\n    */\n\n    function stake(uint256 amount) payable public {\n        require(amount >= minStake, \"Must have a staked balance of more than minStake MAI to become a staker\");\n        require(hasRole(STAKER_ROLE, msg.sender) == false, \"You are already a staker\");\n        transferFrom(msg.sender, stakingAddress, amount);\n        grantRole(STAKER_ROLE, msg.sender);\n        stakedBalance[msg.sender] = stakedBalance[msg.sender].add(amount);\n        emit _StakerGranted(msg.sender);\n    }\n\n    /**\n    @dev Withdraws tokens from the stake pool back to the users account, the user must not be part of any active polls\n    @param amount Amount of tokens the user wishes to withdraw\n    */\n\n    function withdraw(uint256 amount) payable public {\n        require(hasRole(STAKER_ROLE, msg.sender), \"Must have staker role to perform this action\");\n        require(amount <= stakedBalance[msg.sender], \"Must withdraw amount within balance\"); \n        require(stakedBalance[msg.sender].sub(amount) >= minStake, \"A balance of higher than minStake is required to maintain role of staker, if you wish to revoke the role of staker, use revokeStaker() function\");\n        require(checkParticipation(msg.sender) == false, \"You must not be participating in any vote in order to withdraw any staked tokens\");\n        transfer(msg.sender, amount);\n        stakedBalance[msg.sender] = stakedBalance[msg.sender].sub(amount);\n        emit _StakesWithdrawn(msg.sender, amount);\n    }\n\n    /**\n    @dev Deposits tokens into the stake pool from the users account\n    @param amount Amount of tokens the user wishes to deposit\n    */\n\n    function deposit(uint256 amount) payable public {\n        require(hasRole(STAKER_ROLE, msg.sender), \"Must have staker role to perform this action\");\n        transferFrom(msg.sender, stakingAddress, amount);\n        stakedBalance[msg.sender] = stakedBalance[msg.sender].add(amount);\n        emit _StakesDeposited(msg.sender, amount);\n    }\n\n    /**\n    @dev Function for users to see the balance they currently have in the stake pool\n    */\n\n    function viewStakedBalance() view public returns (uint256 balance) {\n        require(hasRole(STAKER_ROLE, msg.sender), \"Must have staker role to perform this action\");\n        return (stakedBalance[msg.sender]);\n    }\n\n    /**\n    @dev Revokes their staker role and returns all their tokens back to the user\n    */\n    \n    function revokeStaker() public {\n        require(hasRole(STAKER_ROLE, msg.sender), \"Must have staker role to perform this action\");\n        revokeRole(STAKER_ROLE, msg.sender);\n        transfer(msg.sender, stakedBalance[msg.sender]);\n        stakedBalance[msg.sender] = 0;\n        emit _StakerRoleRevoked(msg.sender, stakedBalance[msg.sender]); \n    }\n\n    // Polls and votes\n\n    struct Poll {\n        address pollStarter; // initiator of the poll;\n        uint256 start; // block start;\n        uint256 end; // start + period (_commitDuration)\n        // uint256 end; // Date when poll ends\n        uint256 votedTokenAmount; // Amount of tokens minted/ burned if poll is passed\n        bool quorumOption; // Allows option to judge voting process by percentage \n        uint256 voteQuorum; // The percentage of for votes required for poll to pass\n        uint256 votesFor; // Amount of votes supporting the proposal \n        uint256 votesAgainst; // Amount of votes countering the proposal\n        uint256 action; // action 1: Minting tokens; action 2: Burning tokens; action 3: Transfering tokens; action 4: snapshot;\n        bool ongoing; // Returns true if poll is still active\n        mapping(address => uint256) _votesClaimed; // Amount of votes already claimed by the voter\n        mapping(address => bool) _participant; // Maps address of user to whether they have voted in an active poll\n        mapping(address => uint256) _votes; // Amount of votes placed by the voter\n        mapping(address => uint256) _side; // The side the voter is on if they already voted\n    }\n\n    \n    mapping (uint256 => Poll) public pollMapping; // Maps the pollID to the struct\n    mapping (uint256 => uint256) public totalVotes; // Maps the pollID to its respective number of votes\n    mapping (address => uint256) public stakedTotal; // Maps the user address to their total staked balance in all categories\n    uint256 pollNonce = 0; // Counter for pollID\n    address public stakingAddress; // Address used for storing staked tokens\n\n    /**\n    @dev Initiates poll and emits PollCreate event\n    @param _quorumOption Users can decide if the winner is decided by the percentage majority out of 100 or whether the 'for' side has more votes than the 'against' side\n    @param _voteQuorum Assumes that the _quorumOption is false, passes in the percentage majority out of 100 that is required to win the vote\n    @param _votedTokenAmount The amount of tokens minted/burned if poll is successful \n    @param _commitDuration Length of the poll in seconds\n    @param _action Type of poll, action 1 is for minting tokens, action 2 is for burning tokens, action 3 is for transfering tokens, action 4 is for taking a snapshot.\n    */\n\n    function startPoll(bool _quorumOption, uint256 _voteQuorum, uint256 _action, uint256 _votedTokenAmount, uint256 _commitDuration) public returns (uint256 pollID) {\n        require ((_quorumOption == false && _voteQuorum == 0) || (_quorumOption == true && _voteQuorum > 0));\n        require (_votedTokenAmount > 0, \"The amount of tokens to be burned/ minted must be larger than 0\");\n        uint256 end = block.timestamp.add(_commitDuration);\n        pollNonce = pollNonce.add(1);\n        Poll storage newPoll = pollMapping[pollNonce];\n        newPoll.pollStarter = msg.sender;\n        newPoll.start = block.timestamp;\n        newPoll.action = _action;\n        newPoll.quorumOption = _quorumOption;\n        newPoll.voteQuorum = _voteQuorum;\n        newPoll.votedTokenAmount = _votedTokenAmount;\n        newPoll.end = end;\n        newPoll.votesFor = 0;\n        newPoll.votesAgainst = 0;\n        newPoll.ongoing = true;\n\n        emit _PollCreated(_votedTokenAmount, end, pollNonce, msg.sender);\n        return pollNonce;\n    }\n\n    /**\n    @dev Allocates voter role to stakers and emits event\n    @param voter address of staker\n    */\n\n    function voterAllocation(address voter) public {  //thi\n        require(hasRole(STAKER_ROLE, voter)); \n\n        grantRole(VOTER_ROLE, voter);       \n        emit _VotingRightsGranted(voter);\n    }\n\n    /**\n    @dev Revokes votes that are already made and returns the vote to msg.sender //B: to msg.sender? this does not make sense... \n        //B: is this talking about after a vote is completed or the scenario where a staker unstakes?\n    @param amount Amount of votes to be revoked\n    @param pollID ID of poll\n    */\n    \n    /* B: this revokeVote  function is problematic, as it allows for one to votepump and mislead strategic voters of the other party. \n        Consider this analogy: you have three candidates: Biden, Sanders, and Trump, and their support numbers are 40%, 25%, and 35%.\n        A significant number of Biden supporters support Sanders as well, and they only vote for Biden because they believe Sanders just hasn't got a chance\n        With this revokeVote set-up, Trump supports can pump up Sanders's vote, say to 40% - in which the support numbers would be 40%, 40%, 20%.\n            Biden-Sanders supporters would then be essentially offered a chance to switch to Sanders, and have the candidate of their desire actually win. \n            Suppose 6% of Biden supporters switched to sanders, giving us: 34%, 46%, 20%. Then it would appear that Sanders is winning. \n            At the very last moment, suppose Trump supporters revoke their vote, we'd be left with 34%, 31%, 35%. Trump wins. \n    */\n\n    /*function revokeVote(uint256 amount, uint256 pollID) public {\n        require(msg.sender != address(0));\n        require(pollMapping[pollID].ongoing = true);\n        require(isNotExpired(pollID));\n        require(amount <= pollMapping[pollID]._votes[msg.sender]);\n        pollMapping[pollID]._votes[msg.sender] = pollMapping[pollID]._votes[msg.sender].sub(amount);\n        pollMapping[pollID]._votesClaimed[msg.sender] = pollMapping[pollID]._votesClaimed[msg.sender].add(amount);\n        if (pollMapping[pollID]._votes[msg.sender] == 0) {\n            pollMapping[pollID]._participant[msg.sender] = false;\n        }\n        totalVotes[pollID] = totalVotes[pollID].sub(amount);\n    }\n    */\n\n\n    /**\n    @dev Function that takes away voter role from addresses when necessary\n    @param voter Voter that is going to get their role revoked\n    */\n\n    function voterRevokation(address voter) public {\n        require(hasRole(VOTER_ROLE, voter)); //msg.sender change to voter\n        require(voter != address(0));\n        revokeRole(VOTER_ROLE, voter);\n        emit _VotingRightsRevoked(voter);\n    }\n\n    /**\n    @dev Checks if user has voter role\n    @param voter Address of voter\n    */\n\n    modifier voterCheck(address voter) {\n        require(hasRole(VOTER_ROLE, voter));\n        _;\n    }\n\n    /**\n    @dev Claims votes from existing staked tokens and stores available votes at _votes\n    @param pollID ID of vote\n    */\n\n    function claimVote(uint256 pollID, address voter) public voterCheck(voter) {  // msg.sender is usually for contracts, not addresses. So here, it is change(d) to voter\n        require(voter != address(0));\n        uint256 claimable = stakedTotal[voter].sub(pollMapping[pollID]._votesClaimed[voter]).sub(minStake - 1);\n        require(claimable > 0, \"Address has no votes available to claim\");\n        pollMapping[pollID]._votesClaimed[voter] = pollMapping[pollID]._votesClaimed[voter].add(claimable);\n        pollMapping[pollID]._votes[voter] = pollMapping[pollID]._votes[voter].add(claimable);\n        emit _VoteClaimed(voter, claimable);\n    }\n\n    function mint(address account, uint256 amount) onlyOwner public {\n        _mint(account, amount);\n        emit _Minted(account, amount);\n    }\n\n    /**\n    @dev Returns number of votes available to users\n    @param voter Address of requested voter\n    @param pollID ID of poll\n    */\n\n    function numOfVotes(address voter, uint256 pollID) public view returns (uint256 votes) {\n        require(voter != address(0));\n        return pollMapping[pollID]._votes[voter]; \n    }\n\n    /**\n    @dev Voters makes votes on corresponding polls, deducting their _votes and emitting _VoteMade event\n    @param votesMade Amount of votes going to be made\n    @param pollID ID of the poll\n    @param side The side of the poll the user wants to support (1: for; 2: against)\n    */\n\n\n    function makeVote(uint256 votesMade, uint256 pollID, uint256 side, address voter) public voterCheck(voter) {\n        require(voter != address(0));\n        require(pollMapping[pollID].ongoing = true);\n        require(isNotExpired(pollID));\n        require(pollMapping[pollID]._votes[voter] > 0, \"Address has no votes currently, call function claimVote to claim a vote\");\n        require(votesMade <= pollMapping[pollID]._votes[voter]);\n        require(pollMapping[pollID]._side[voter] == 0 || pollMapping[pollID]._side[voter] == side);\n        require(side == 1 || side == 2);\n        if (side == 1) {\n            pollMapping[pollID].votesFor = pollMapping[pollID].votesFor.add(1);\n        } else if (side == 2) {\n            pollMapping[pollID].votesAgainst = pollMapping[pollID].votesAgainst.add(1);\n        }\n        pollMapping[pollID]._side[voter] = side;\n        pollMapping[pollID]._votes[voter] = pollMapping[pollID]._votes[voter].sub(votesMade);\n        totalVotes[pollID] = totalVotes[pollID].add(1);\n        pollMapping[pollID]._participant[voter] = true;\n        emit _VoteMade(pollID, votesMade, voter, side); \n    }\n\n    /**\n    @dev Returns whether the poll/ proposal passed the voting\n    @param pollID ID of the poll\n    */\n    // ties are understood as rejections\n\n    function results(uint256 pollID) public returns (bool passed) {\n        endPoll(pollID);\n        require(isNotExpired(pollID) == false);\n        require(pollExists(pollID));\n        if (pollMapping[pollID].quorumOption == false) {\n            if (pollMapping[pollID].votesFor > pollMapping[pollID].votesAgainst) {\n                return (true);\n            } else if (pollMapping[pollID].votesFor < pollMapping[pollID].votesAgainst) {\n                return (false);\n            } else {\n                return (false);\n            }\n        } else if (pollMapping[pollID].quorumOption == true) {\n            if (quorumCalc(pollID) >= pollMapping[pollID].voteQuorum) {\n                return (true);\n            } else if (quorumCalc(pollID) < pollMapping[pollID].voteQuorum) {\n                return  (false);\n            } else {\n                return (false);\n            }\n        }\n    }\n\n    /**\n    @dev Calculates the percentage of voters that supports the proposal\n    @param pollID ID of the poll\n    */\n\n    function quorumCalc(uint256 pollID) public view returns (uint256 result) {\n        require (totalVotes[pollID] > 0);\n        require (pollExists(pollID), \"Poll does not exist\");\n        uint256 ans = pollMapping[pollID].votesFor.div(totalVotes[pollID]);\n        ans = ans.mul(100);\n        return ans;\n    }\n\n    /**\n    @dev Ends the poll instantly if necessary\n    @param pollID ID of the poll\n    */\n\n    function endPoll(uint pollID) public {\n        require(hasRole(PAUSER_ROLE, msg.sender));\n        require(pollExists(pollID));\n        pollMapping[pollID].ongoing = false;\n    }\n\n    /**\n    @dev Mints the proposed amount of tokens after the poll has ended and passed\n    @param pollID ID of the poll\n    */\n        \n\n    function mintRewards (uint256 pollID) onlyOwner payable public {\n        require(hasRole(OWNER_ROLE, msg.sender));\n        require(pollMapping[pollID].action == 1);\n        require(pollMapping[pollID].ongoing == false);\n        _beforeTokenTransfer(address(0), msg.sender, pollMapping[pollID].votedTokenAmount);\n        _mint(msg.sender, pollMapping[pollID].votedTokenAmount);\n        emit _ResultsGenerated(pollMapping[pollID].votedTokenAmount, pollID);  \n    }\n\n    /**\n    @dev Burns the proposed amount of tokens after the poll has ended and passed\n    @param pollID ID of the poll\n    */\n\n    function burnRewards (uint256 pollID) onlyOwner payable public { \n        require(hasRole(OWNER_ROLE, msg.sender));\n        require(pollMapping[pollID].action == 2);\n        require(pollMapping[pollID].ongoing == false);\n        _beforeTokenTransfer(msg.sender, address(0), pollMapping[pollID].votedTokenAmount);\n        burnFrom(msg.sender, pollMapping[pollID].votedTokenAmount);\n        emit _ResultsGenerated(pollMapping[pollID].votedTokenAmount, pollID);\n    }\n\n\n    function transferRewards(uint256 pollID, address recipient) onlyOwner public virtual {\n        require(hasRole(OWNER_ROLE, msg.sender));\n        require(pollMapping[pollID].action == 3);\n        require(pollMapping[pollID].ongoing == false);\n        _beforeTokenTransfer(msg.sender, address(0), pollMapping[pollID].votedTokenAmount);\n        burn(pollMapping[pollID].votedTokenAmount);\n        _transfer(_msgSender(), recipient, pollMapping[pollID].votedTokenAmount);\n        \n        emit _ResultsGenerated(pollMapping[pollID].votedTokenAmount, pollID);\n    }\n\n    function takeSnapshot(uint256 pollID) onlyOwner public virtual {\n        require(pollMapping[pollID].action == 4);\n        require(pollMapping[pollID].ongoing == false);\n        snapshot();        \n    }\n\n    /**\n    @dev Checks if the address of the voter has participated in any active poll\n    @param voter Address of the voter\n    */\n\n    function checkParticipation(address voter) public view returns(bool participating){\n        for (uint256 i = 1; i < pollNonce; i++) {\n            if (pollMapping[i].ongoing == true && pollMapping[i]._participant[voter] == true) {\n                return true;\n            }\n        }\n        return false;\n    }\n\n    /**\n    @dev Checks if poll exists and returns a boolean value\n    @param _pollID ID of the poll\n    */\n\n    function pollExists(uint256 _pollID) public view returns (bool exists) {\n        return (_pollID != 0 && _pollID <= pollNonce);\n    }\n\n    /**\n    @dev Checks of poll has ended or not\n    @param _pollID ID of the poll\n    */\n\n    function pollEnded(uint256 _pollID) public view returns (bool ended) {\n        require(pollExists(_pollID));\n\n        return isNotExpired(pollMapping[_pollID].end);\n    }\n\n    /**\n    @dev Checks if a date has expired or not\n    @param _terminationDate The date for checking\n    */\n\n    function isNotExpired(uint256 _terminationDate) public view returns (bool expired) {\n        return (block.timestamp < _terminationDate);\n    }\n}\n\n",
  "sourcePath": "/Users/colinlam/Desktop/code/HoHey/contracts/MaiToken.sol",
  "compiler": {
    "name": "solc",
    "version": "0.8.0+commit.c7dfd78e.Emscripten.clang"
  },
  "schemaVersion": "3.4.1",
  "updatedAt": "2021-07-20T07:49:27.376Z",
  "devdoc": {
    "kind": "dev",
    "methods": {
      "allowance(address,address)": {
        "details": "See {IERC20-allowance}."
      },
      "approve(address,uint256)": {
        "details": "See {IERC20-approve}. Requirements: - `spender` cannot be the zero address."
      },
      "balanceOf(address)": {
        "details": "See {IERC20-balanceOf}."
      },
      "balanceOfAt(address,uint256)": {
        "details": "Retrieves the balance of `account` at the time `snapshotId` was created."
      },
      "burn(uint256)": {
        "details": "Destroys `amount` tokens from the caller. See {ERC20-_burn}."
      },
      "burnFrom(address,uint256)": {
        "details": "Destroys `amount` tokens from `account`, deducting from the caller's allowance. See {ERC20-_burn} and {ERC20-allowance}. Requirements: - the caller must have allowance for ``accounts``'s tokens of at least `amount`."
      },
      "burnRewards(uint256)": {
        "details": "Burns the proposed amount of tokens after the poll has ended and passed",
        "params": {
          "pollID": "ID of the poll"
        }
      },
      "checkParticipation(address)": {
        "details": "Checks if the address of the voter has participated in any active poll",
        "params": {
          "voter": "Address of the voter"
        }
      },
      "claimVote(uint256,address)": {
        "details": "Claims votes from existing staked tokens and stores available votes at _votes",
        "params": {
          "pollID": "ID of vote"
        }
      },
      "decimals()": {
        "details": "Returns the number of decimals used to get its user representation. For example, if `decimals` equals `2`, a balance of `505` tokens should be displayed to a user as `5,05` (`505 / 10 ** 2`). Tokens usually opt for a value of 18, imitating the relationship between Ether and Wei. This is the value {ERC20} uses, unless this function is overridden; NOTE: This information is only used for _display_ purposes: it in no way affects any of the arithmetic of the contract, including {IERC20-balanceOf} and {IERC20-transfer}."
      },
      "decreaseAllowance(address,uint256)": {
        "details": "Atomically decreases the allowance granted to `spender` by the caller. This is an alternative to {approve} that can be used as a mitigation for problems described in {IERC20-approve}. Emits an {Approval} event indicating the updated allowance. Requirements: - `spender` cannot be the zero address. - `spender` must have allowance for the caller of at least `subtractedValue`."
      },
      "deposit(uint256)": {
        "details": "Deposits tokens into the stake pool from the users account",
        "params": {
          "amount": "Amount of tokens the user wishes to deposit"
        }
      },
      "endPoll(uint256)": {
        "details": "Ends the poll instantly if necessary",
        "params": {
          "pollID": "ID of the poll"
        }
      },
      "getRoleAdmin(bytes32)": {
        "details": "Returns the admin role that controls `role`. See {grantRole} and {revokeRole}. To change a role's admin, use {_setRoleAdmin}."
      },
      "grantRole(bytes32,address)": {
        "details": "Grants `role` to `account`. If `account` had not been already granted `role`, emits a {RoleGranted} event. Requirements: - the caller must have ``role``'s admin role."
      },
      "hasRole(bytes32,address)": {
        "details": "Returns `true` if `account` has been granted `role`."
      },
      "increaseAllowance(address,uint256)": {
        "details": "Atomically increases the allowance granted to `spender` by the caller. This is an alternative to {approve} that can be used as a mitigation for problems described in {IERC20-approve}. Emits an {Approval} event indicating the updated allowance. Requirements: - `spender` cannot be the zero address."
      },
      "isNotExpired(uint256)": {
        "details": "Checks if a date has expired or not",
        "params": {
          "_terminationDate": "The date for checking"
        }
      },
      "makeVote(uint256,uint256,uint256,address)": {
        "details": "Voters makes votes on corresponding polls, deducting their _votes and emitting _VoteMade event",
        "params": {
          "pollID": "ID of the poll",
          "side": "The side of the poll the user wants to support (1: for; 2: against)",
          "votesMade": "Amount of votes going to be made"
        }
      },
      "mintRewards(uint256)": {
        "details": "Mints the proposed amount of tokens after the poll has ended and passed",
        "params": {
          "pollID": "ID of the poll"
        }
      },
      "name()": {
        "details": "Returns the name of the token."
      },
      "numOfVotes(address,uint256)": {
        "details": "Returns number of votes available to users",
        "params": {
          "pollID": "ID of poll",
          "voter": "Address of requested voter"
        }
      },
      "paused()": {
        "details": "Returns true if the contract is paused, and false otherwise."
      },
      "pollEnded(uint256)": {
        "details": "Checks of poll has ended or not",
        "params": {
          "_pollID": "ID of the poll"
        }
      },
      "pollExists(uint256)": {
        "details": "Checks if poll exists and returns a boolean value",
        "params": {
          "_pollID": "ID of the poll"
        }
      },
      "quorumCalc(uint256)": {
        "details": "Calculates the percentage of voters that supports the proposal",
        "params": {
          "pollID": "ID of the poll"
        }
      },
      "renounceRole(bytes32,address)": {
        "details": "Revokes `role` from the calling account. Roles are often managed via {grantRole} and {revokeRole}: this function's purpose is to provide a mechanism for accounts to lose their privileges if they are compromised (such as when a trusted device is misplaced). If the calling account had been granted `role`, emits a {RoleRevoked} event. Requirements: - the caller must be `account`."
      },
      "results(uint256)": {
        "details": "Returns whether the poll/ proposal passed the voting",
        "params": {
          "pollID": "ID of the poll"
        }
      },
      "revokeRole(bytes32,address)": {
        "details": "Revokes `role` from `account`. If `account` had been granted `role`, emits a {RoleRevoked} event. Requirements: - the caller must have ``role``'s admin role."
      },
      "revokeStaker()": {
        "details": "Revokes their staker role and returns all their tokens back to the user"
      },
      "stake(uint256)": {
        "details": "Allows users to stake, adding their respective amount of tokens to the staked balance",
        "params": {
          "amount": "Amount of tokens used in the stake pool"
        }
      },
      "startPoll(bool,uint256,uint256,uint256,uint256)": {
        "details": "Initiates poll and emits PollCreate event",
        "params": {
          "_action": "Type of poll, action 1 is for minting tokens, action 2 is for burning tokens, action 3 is for transfering tokens, action 4 is for taking a snapshot.",
          "_commitDuration": "Length of the poll in seconds",
          "_quorumOption": "Users can decide if the winner is decided by the percentage majority out of 100 or whether the 'for' side has more votes than the 'against' side",
          "_voteQuorum": "Assumes that the _quorumOption is false, passes in the percentage majority out of 100 that is required to win the vote",
          "_votedTokenAmount": "The amount of tokens minted/burned if poll is successful "
        }
      },
      "supportsInterface(bytes4)": {
        "details": "See {IERC165-supportsInterface}."
      },
      "symbol()": {
        "details": "Returns the symbol of the token, usually a shorter version of the name."
      },
      "totalSupply()": {
        "details": "See {IERC20-totalSupply}."
      },
      "totalSupplyAt(uint256)": {
        "details": "Retrieves the total supply at the time `snapshotId` was created."
      },
      "transfer(address,uint256)": {
        "details": "See {IERC20-transfer}. Requirements: - `recipient` cannot be the zero address. - the caller must have a balance of at least `amount`."
      },
      "transferFrom(address,address,uint256)": {
        "details": "See {IERC20-transferFrom}. Emits an {Approval} event indicating the updated allowance. This is not required by the EIP. See the note at the beginning of {ERC20}. Requirements: - `sender` and `recipient` cannot be the zero address. - `sender` must have a balance of at least `amount`. - the caller must have allowance for ``sender``'s tokens of at least `amount`."
      },
      "viewStakedBalance()": {
        "details": "Function for users to see the balance they currently have in the stake pool"
      },
      "voterAllocation(address)": {
        "details": "Allocates voter role to stakers and emits event",
        "params": {
          "voter": "address of staker"
        }
      },
      "voterRevokation(address)": {
        "details": "Function that takes away voter role from addresses when necessary",
        "params": {
          "voter": "Voter that is going to get their role revoked"
        }
      },
      "withdraw(uint256)": {
        "details": "Withdraws tokens from the stake pool back to the users account, the user must not be part of any active polls",
        "params": {
          "amount": "Amount of tokens the user wishes to withdraw"
        }
      }
    },
    "version": 1
  },
  "userdoc": {
    "kind": "user",
    "methods": {},
    "version": 1
  }
}